{"abi":[{"type":"constructor","inputs":[],"stateMutability":"nonpayable"},{"type":"function","name":"BPS_DENOMINATOR","inputs":[],"outputs":[{"name":"","type":"uint256","internalType":"uint256"}],"stateMutability":"view"},{"type":"function","name":"MAX_FEE_BPS","inputs":[],"outputs":[{"name":"","type":"uint256","internalType":"uint256"}],"stateMutability":"view"},{"type":"function","name":"MAX_REDEMPTION_DELAY","inputs":[],"outputs":[{"name":"","type":"uint256","internalType":"uint256"}],"stateMutability":"view"},{"type":"function","name":"MIN_DEPOSIT","inputs":[],"outputs":[{"name":"","type":"uint256","internalType":"uint256"}],"stateMutability":"view"},{"type":"function","name":"MIN_REDEMPTION_DELAY","inputs":[],"outputs":[{"name":"","type":"uint256","internalType":"uint256"}],"stateMutability":"view"},{"type":"function","name":"PRECISION","inputs":[],"outputs":[{"name":"","type":"uint256","internalType":"uint256"}],"stateMutability":"view"},{"type":"function","name":"UPGRADE_INTERFACE_VERSION","inputs":[],"outputs":[{"name":"","type":"string","internalType":"string"}],"stateMutability":"view"},{"type":"function","name":"batchGetCollateralBalances","inputs":[{"name":"tokens","type":"address[]","internalType":"address[]"}],"outputs":[{"name":"balances","type":"uint256[]","internalType":"uint256[]"}],"stateMutability":"view"},{"type":"function","name":"batchGetRedemptionRequests","inputs":[{"name":"requestIds","type":"uint256[]","internalType":"uint256[]"}],"outputs":[{"name":"requests","type":"tuple[]","internalType":"struct ITreasuryVault.RedemptionRequest[]","components":[{"name":"id","type":"uint256","internalType":"uint256"},{"name":"requester","type":"address","internalType":"address"},{"name":"ssUSDAmount","type":"uint256","internalType":"uint256"},{"name":"collateralToken","type":"address","internalType":"address"},{"name":"requestedAt","type":"uint256","internalType":"uint256"},{"name":"processedAt","type":"uint256","internalType":"uint256"},{"name":"status","type":"uint8","internalType":"enum ITreasuryVault.RedemptionStatus"}]}],"stateMutability":"view"},{"type":"function","name":"batchIsOperator","inputs":[{"name":"addresses","type":"address[]","internalType":"address[]"}],"outputs":[{"name":"authorized","type":"bool[]","internalType":"bool[]"}],"stateMutability":"view"},{"type":"function","name":"cancelRedemption","inputs":[{"name":"requestId","type":"uint256","internalType":"uint256"}],"outputs":[],"stateMutability":"nonpayable"},{"type":"function","name":"checkCircuitBreaker","inputs":[],"outputs":[{"name":"triggered","type":"bool","internalType":"bool"}],"stateMutability":"nonpayable"},{"type":"function","name":"checkUndercollateralization","inputs":[],"outputs":[{"name":"isUnder","type":"bool","internalType":"bool"},{"name":"shortfall","type":"uint256","internalType":"uint256"}],"stateMutability":"view"},{"type":"function","name":"circuitBreakerEnabled","inputs":[],"outputs":[{"name":"","type":"bool","internalType":"bool"}],"stateMutability":"view"},{"type":"function","name":"circuitBreakerThreshold","inputs":[],"outputs":[{"name":"","type":"uint256","internalType":"uint256"}],"stateMutability":"view"},{"type":"function","name":"circuitBreakerTriggered","inputs":[],"outputs":[{"name":"","type":"bool","internalType":"bool"}],"stateMutability":"view"},{"type":"function","name":"circuitBreakerTriggeredAt","inputs":[],"outputs":[{"name":"","type":"uint256","internalType":"uint256"}],"stateMutability":"view"},{"type":"function","name":"collateralBalances","inputs":[{"name":"","type":"address","internalType":"address"}],"outputs":[{"name":"","type":"uint256","internalType":"uint256"}],"stateMutability":"view"},{"type":"function","name":"configureCircuitBreaker","inputs":[{"name":"enabled_","type":"bool","internalType":"bool"},{"name":"threshold_","type":"uint256","internalType":"uint256"}],"outputs":[],"stateMutability":"nonpayable"},{"type":"function","name":"deposit","inputs":[{"name":"collateralToken","type":"address","internalType":"address"},{"name":"amount","type":"uint256","internalType":"uint256"},{"name":"recipient","type":"address","internalType":"address"}],"outputs":[{"name":"ssUSDMinted","type":"uint256","internalType":"uint256"}],"stateMutability":"nonpayable"},{"type":"function","name":"depositsPaused","inputs":[],"outputs":[{"name":"","type":"bool","internalType":"bool"}],"stateMutability":"view"},{"type":"function","name":"emergencyWithdraw","inputs":[{"name":"token","type":"address","internalType":"address"},{"name":"amount","type":"uint256","internalType":"uint256"},{"name":"recipient","type":"address","internalType":"address"}],"outputs":[],"stateMutability":"nonpayable"},{"type":"function","name":"getCircuitBreakerStatus","inputs":[],"outputs":[{"name":"enabled","type":"bool","internalType":"bool"},{"name":"triggered","type":"bool","internalType":"bool"},{"name":"threshold","type":"uint256","internalType":"uint256"},{"name":"currentRatio","type":"uint256","internalType":"uint256"},{"name":"triggeredAt","type":"uint256","internalType":"uint256"}],"stateMutability":"view"},{"type":"function","name":"getCollateralBalance","inputs":[{"name":"token","type":"address","internalType":"address"}],"outputs":[{"name":"","type":"uint256","internalType":"uint256"}],"stateMutability":"view"},{"type":"function","name":"getCollateralBreakdown","inputs":[],"outputs":[{"name":"tokens","type":"address[]","internalType":"address[]"},{"name":"balances","type":"uint256[]","internalType":"uint256[]"},{"name":"values","type":"uint256[]","internalType":"uint256[]"}],"stateMutability":"view"},{"type":"function","name":"getCollateralRatio","inputs":[],"outputs":[{"name":"ratio","type":"uint256","internalType":"uint256"}],"stateMutability":"view"},{"type":"function","name":"getExcessCollateral","inputs":[],"outputs":[{"name":"excess","type":"uint256","internalType":"uint256"}],"stateMutability":"view"},{"type":"function","name":"getPendingRedemptionCount","inputs":[],"outputs":[{"name":"","type":"uint256","internalType":"uint256"}],"stateMutability":"view"},{"type":"function","name":"getReadyRedemptions","inputs":[{"name":"maxCount","type":"uint256","internalType":"uint256"}],"outputs":[{"name":"readyIds","type":"uint256[]","internalType":"uint256[]"}],"stateMutability":"view"},{"type":"function","name":"getRedemptionRequest","inputs":[{"name":"requestId","type":"uint256","internalType":"uint256"}],"outputs":[{"name":"","type":"tuple","internalType":"struct ITreasuryVault.RedemptionRequest","components":[{"name":"id","type":"uint256","internalType":"uint256"},{"name":"requester","type":"address","internalType":"address"},{"name":"ssUSDAmount","type":"uint256","internalType":"uint256"},{"name":"collateralToken","type":"address","internalType":"address"},{"name":"requestedAt","type":"uint256","internalType":"uint256"},{"name":"processedAt","type":"uint256","internalType":"uint256"},{"name":"status","type":"uint8","internalType":"enum ITreasuryVault.RedemptionStatus"}]}],"stateMutability":"view"},{"type":"function","name":"getRedemptionStatus","inputs":[{"name":"requestId","type":"uint256","internalType":"uint256"}],"outputs":[{"name":"status","type":"uint8","internalType":"enum ITreasuryVault.RedemptionStatus"},{"name":"timeRemaining","type":"uint256","internalType":"uint256"},{"name":"isReady","type":"bool","internalType":"bool"},{"name":"ssUSDValue","type":"uint256","internalType":"uint256"}],"stateMutability":"view"},{"type":"function","name":"getTotalCollateralValue","inputs":[],"outputs":[{"name":"","type":"uint256","internalType":"uint256"}],"stateMutability":"view"},{"type":"function","name":"getTotalPendingRedemptionValue","inputs":[],"outputs":[{"name":"totalValue","type":"uint256","internalType":"uint256"}],"stateMutability":"view"},{"type":"function","name":"getUserPendingRedemptionCount","inputs":[{"name":"user","type":"address","internalType":"address"}],"outputs":[{"name":"count","type":"uint256","internalType":"uint256"}],"stateMutability":"view"},{"type":"function","name":"getUserRedemptions","inputs":[{"name":"user","type":"address","internalType":"address"}],"outputs":[{"name":"","type":"uint256[]","internalType":"uint256[]"}],"stateMutability":"view"},{"type":"function","name":"getUserSummary","inputs":[{"name":"user","type":"address","internalType":"address"}],"outputs":[{"name":"ssUSDBalance","type":"uint256","internalType":"uint256"},{"name":"pendingRedemptions","type":"uint256","internalType":"uint256"},{"name":"totalPendingValue","type":"uint256","internalType":"uint256"},{"name":"canDeposit","type":"bool","internalType":"bool"},{"name":"canRedeem","type":"bool","internalType":"bool"}],"stateMutability":"view"},{"type":"function","name":"getVaultHealth","inputs":[],"outputs":[{"name":"collateralValue","type":"uint256","internalType":"uint256"},{"name":"ssUSDSupply","type":"uint256","internalType":"uint256"},{"name":"collateralizationRatio","type":"uint256","internalType":"uint256"},{"name":"isDepositsEnabled","type":"bool","internalType":"bool"},{"name":"isRedemptionsEnabled","type":"bool","internalType":"bool"},{"name":"pendingRedemptionsCount","type":"uint256","internalType":"uint256"}],"stateMutability":"view"},{"type":"function","name":"initialize","inputs":[{"name":"owner_","type":"address","internalType":"address"},{"name":"tokenRegistry_","type":"address","internalType":"address"},{"name":"navOracle_","type":"address","internalType":"address"},{"name":"ssUSD_","type":"address","internalType":"address"}],"outputs":[],"stateMutability":"nonpayable"},{"type":"function","name":"mintFee","inputs":[],"outputs":[{"name":"","type":"uint256","internalType":"uint256"}],"stateMutability":"view"},{"type":"function","name":"navOracle","inputs":[],"outputs":[{"name":"","type":"address","internalType":"contract INAVOracle"}],"stateMutability":"view"},{"type":"function","name":"operators","inputs":[{"name":"","type":"address","internalType":"address"}],"outputs":[{"name":"","type":"bool","internalType":"bool"}],"stateMutability":"view"},{"type":"function","name":"owner","inputs":[],"outputs":[{"name":"","type":"address","internalType":"address"}],"stateMutability":"view"},{"type":"function","name":"pauseDeposits","inputs":[{"name":"paused","type":"bool","internalType":"bool"}],"outputs":[],"stateMutability":"nonpayable"},{"type":"function","name":"pauseRedemptions","inputs":[{"name":"paused","type":"bool","internalType":"bool"}],"outputs":[],"stateMutability":"nonpayable"},{"type":"function","name":"paused","inputs":[],"outputs":[{"name":"","type":"bool","internalType":"bool"}],"stateMutability":"view"},{"type":"function","name":"pendingRedemptionCount","inputs":[],"outputs":[{"name":"","type":"uint256","internalType":"uint256"}],"stateMutability":"view"},{"type":"function","name":"processBatchRedemptions","inputs":[{"name":"requestIds","type":"uint256[]","internalType":"uint256[]"}],"outputs":[],"stateMutability":"nonpayable"},{"type":"function","name":"processRedemption","inputs":[{"name":"requestId","type":"uint256","internalType":"uint256"}],"outputs":[],"stateMutability":"nonpayable"},{"type":"function","name":"proxiableUUID","inputs":[],"outputs":[{"name":"","type":"bytes32","internalType":"bytes32"}],"stateMutability":"view"},{"type":"function","name":"redeemFee","inputs":[],"outputs":[{"name":"","type":"uint256","internalType":"uint256"}],"stateMutability":"view"},{"type":"function","name":"redemptionDelay","inputs":[],"outputs":[{"name":"","type":"uint256","internalType":"uint256"}],"stateMutability":"view"},{"type":"function","name":"redemptionShares","inputs":[{"name":"","type":"uint256","internalType":"uint256"}],"outputs":[{"name":"","type":"uint256","internalType":"uint256"}],"stateMutability":"view"},{"type":"function","name":"redemptionsPaused","inputs":[],"outputs":[{"name":"","type":"bool","internalType":"bool"}],"stateMutability":"view"},{"type":"function","name":"renounceOwnership","inputs":[],"outputs":[],"stateMutability":"nonpayable"},{"type":"function","name":"requestRedemption","inputs":[{"name":"ssUSDAmount","type":"uint256","internalType":"uint256"},{"name":"preferredCollateral","type":"address","internalType":"address"}],"outputs":[{"name":"requestId","type":"uint256","internalType":"uint256"}],"stateMutability":"nonpayable"},{"type":"function","name":"resetCircuitBreaker","inputs":[],"outputs":[],"stateMutability":"nonpayable"},{"type":"function","name":"setFees","inputs":[{"name":"mintFee_","type":"uint256","internalType":"uint256"},{"name":"redeemFee_","type":"uint256","internalType":"uint256"}],"outputs":[],"stateMutability":"nonpayable"},{"type":"function","name":"setOperator","inputs":[{"name":"operator","type":"address","internalType":"address"},{"name":"authorized","type":"bool","internalType":"bool"}],"outputs":[],"stateMutability":"nonpayable"},{"type":"function","name":"setRedemptionDelay","inputs":[{"name":"delay_","type":"uint256","internalType":"uint256"}],"outputs":[],"stateMutability":"nonpayable"},{"type":"function","name":"ssUSD","inputs":[],"outputs":[{"name":"","type":"address","internalType":"contract IssUSD"}],"stateMutability":"view"},{"type":"function","name":"tokenRegistry","inputs":[],"outputs":[{"name":"","type":"address","internalType":"contract ITokenRegistry"}],"stateMutability":"view"},{"type":"function","name":"totalCollateralValue","inputs":[],"outputs":[{"name":"","type":"uint256","internalType":"uint256"}],"stateMutability":"view"},{"type":"function","name":"totalPendingRedemptionShares","inputs":[],"outputs":[{"name":"","type":"uint256","internalType":"uint256"}],"stateMutability":"view"},{"type":"function","name":"transferOwnership","inputs":[{"name":"newOwner","type":"address","internalType":"address"}],"outputs":[],"stateMutability":"nonpayable"},{"type":"function","name":"upgradeToAndCall","inputs":[{"name":"newImplementation","type":"address","internalType":"address"},{"name":"data","type":"bytes","internalType":"bytes"}],"outputs":[],"stateMutability":"payable"},{"type":"event","name":"CircuitBreakerConfigured","inputs":[{"name":"enabled","type":"bool","indexed":false,"internalType":"bool"},{"name":"threshold","type":"uint256","indexed":false,"internalType":"uint256"}],"anonymous":false},{"type":"event","name":"CircuitBreakerReset","inputs":[{"name":"by","type":"address","indexed":true,"internalType":"address"},{"name":"timestamp","type":"uint256","indexed":false,"internalType":"uint256"}],"anonymous":false},{"type":"event","name":"CircuitBreakerTriggered","inputs":[{"name":"collateralRatio","type":"uint256","indexed":false,"internalType":"uint256"},{"name":"threshold","type":"uint256","indexed":false,"internalType":"uint256"},{"name":"timestamp","type":"uint256","indexed":false,"internalType":"uint256"}],"anonymous":false},{"type":"event","name":"Deposited","inputs":[{"name":"depositor","type":"address","indexed":true,"internalType":"address"},{"name":"collateralToken","type":"address","indexed":true,"internalType":"address"},{"name":"collateralAmount","type":"uint256","indexed":false,"internalType":"uint256"},{"name":"ssUSDMinted","type":"uint256","indexed":false,"internalType":"uint256"},{"name":"recipient","type":"address","indexed":true,"internalType":"address"}],"anonymous":false},{"type":"event","name":"DepositsPaused","inputs":[{"name":"paused","type":"bool","indexed":false,"internalType":"bool"}],"anonymous":false},{"type":"event","name":"EmergencyWithdrawal","inputs":[{"name":"token","type":"address","indexed":true,"internalType":"address"},{"name":"amount","type":"uint256","indexed":false,"internalType":"uint256"},{"name":"recipient","type":"address","indexed":true,"internalType":"address"}],"anonymous":false},{"type":"event","name":"FeesUpdated","inputs":[{"name":"mintFee","type":"uint256","indexed":false,"internalType":"uint256"},{"name":"redeemFee","type":"uint256","indexed":false,"internalType":"uint256"}],"anonymous":false},{"type":"event","name":"Initialized","inputs":[{"name":"version","type":"uint64","indexed":false,"internalType":"uint64"}],"anonymous":false},{"type":"event","name":"OperatorUpdated","inputs":[{"name":"operator","type":"address","indexed":true,"internalType":"address"},{"name":"authorized","type":"bool","indexed":false,"internalType":"bool"}],"anonymous":false},{"type":"event","name":"OwnershipTransferred","inputs":[{"name":"previousOwner","type":"address","indexed":true,"internalType":"address"},{"name":"newOwner","type":"address","indexed":true,"internalType":"address"}],"anonymous":false},{"type":"event","name":"Paused","inputs":[{"name":"account","type":"address","indexed":false,"internalType":"address"}],"anonymous":false},{"type":"event","name":"RedemptionCancelled","inputs":[{"name":"requestId","type":"uint256","indexed":true,"internalType":"uint256"},{"name":"requester","type":"address","indexed":true,"internalType":"address"}],"anonymous":false},{"type":"event","name":"RedemptionDelayUpdated","inputs":[{"name":"oldDelay","type":"uint256","indexed":false,"internalType":"uint256"},{"name":"newDelay","type":"uint256","indexed":false,"internalType":"uint256"}],"anonymous":false},{"type":"event","name":"RedemptionProcessed","inputs":[{"name":"requestId","type":"uint256","indexed":true,"internalType":"uint256"},{"name":"requester","type":"address","indexed":true,"internalType":"address"},{"name":"collateralAmount","type":"uint256","indexed":false,"internalType":"uint256"}],"anonymous":false},{"type":"event","name":"RedemptionRequested","inputs":[{"name":"requestId","type":"uint256","indexed":true,"internalType":"uint256"},{"name":"requester","type":"address","indexed":true,"internalType":"address"},{"name":"ssUSDAmount","type":"uint256","indexed":false,"internalType":"uint256"},{"name":"collateralToken","type":"address","indexed":false,"internalType":"address"}],"anonymous":false},{"type":"event","name":"RedemptionsPaused","inputs":[{"name":"paused","type":"bool","indexed":false,"internalType":"bool"}],"anonymous":false},{"type":"event","name":"Unpaused","inputs":[{"name":"account","type":"address","indexed":false,"internalType":"address"}],"anonymous":false},{"type":"event","name":"Upgraded","inputs":[{"name":"implementation","type":"address","indexed":true,"internalType":"address"}],"anonymous":false},{"type":"error","name":"AddressEmptyCode","inputs":[{"name":"target","type":"address","internalType":"address"}]},{"type":"error","name":"AddressInsufficientBalance","inputs":[{"name":"account","type":"address","internalType":"address"}]},{"type":"error","name":"CircuitBreakerActive","inputs":[]},{"type":"error","name":"DepositsArePaused","inputs":[]},{"type":"error","name":"ERC1967InvalidImplementation","inputs":[{"name":"implementation","type":"address","internalType":"address"}]},{"type":"error","name":"ERC1967NonPayable","inputs":[]},{"type":"error","name":"EnforcedPause","inputs":[]},{"type":"error","name":"ExpectedPause","inputs":[]},{"type":"error","name":"FailedInnerCall","inputs":[]},{"type":"error","name":"FeeTooHigh","inputs":[]},{"type":"error","name":"InsufficientCollateral","inputs":[]},{"type":"error","name":"InsufficientDeposit","inputs":[]},{"type":"error","name":"InvalidAmount","inputs":[]},{"type":"error","name":"InvalidCircuitBreakerThreshold","inputs":[]},{"type":"error","name":"InvalidInitialization","inputs":[]},{"type":"error","name":"InvalidRedemptionDelay","inputs":[]},{"type":"error","name":"NotApprovedCollateral","inputs":[]},{"type":"error","name":"NotInitializing","inputs":[]},{"type":"error","name":"NotOperator","inputs":[]},{"type":"error","name":"NotRequestOwner","inputs":[]},{"type":"error","name":"OwnableInvalidOwner","inputs":[{"name":"owner","type":"address","internalType":"address"}]},{"type":"error","name":"OwnableUnauthorizedAccount","inputs":[{"name":"account","type":"address","internalType":"address"}]},{"type":"error","name":"RedemptionAlreadyProcessed","inputs":[]},{"type":"error","name":"RedemptionNotFound","inputs":[]},{"type":"error","name":"RedemptionNotReady","inputs":[]},{"type":"error","name":"RedemptionsArePaused","inputs":[]},{"type":"error","name":"ReentrancyGuardReentrantCall","inputs":[]},{"type":"error","name":"SafeERC20FailedOperation","inputs":[{"name":"token","type":"address","internalType":"address"}]},{"type":"error","name":"UUPSUnauthorizedCallContext","inputs":[]},{"type":"error","name":"UUPSUnsupportedProxiableUUID","inputs":[{"name":"slot","type":"bytes32","internalType":"bytes32"}]}],"bytecode":{"object":"0x60a08060405234620000d157306080527ff0c57e16840df040f15088dc2f81fe391c3923bec73e23a9662efc9c229c6a009081549060ff8260401c16620000c257506001600160401b036002600160401b0319828216016200007c575b6040516135d89081620000d68239608051818181611eb40152611fa80152f35b6001600160401b031990911681179091556040519081527fc7f505b2f371ae2175ee4913f4499e1f2633a7b5936321eed1cdaeb6115181d290602090a15f80806200005c565b63f92ee8a960e01b8152600490fd5b5f80fdfe60406080815260049081361015610014575f80fd5b5f9160e08335811c90816308bf8c4d146127095781630b78f9c0146126865781630fc6f448146125ea57816313657e1c146125c057816313966db5146125a057816313e7c9d81461256157816318e58c121461234f5781631b3db7971461248d5781631cc1a74a1461246d57816324f2fe24146124455781632703ee851461240c57816329bc969d1461240c5781632a6739a2146123ee5781633373bcac146123d05781633aa6f0ee146123975781633ff6bec01461236f5781634080860a1461234f578163433ffe181461233057816347e4f3061461216f57816349d4640d146121455781634f1ef28614611f2d57816351108cac14611f0557816352d1902d14611e9e578163551512de14611d81578163558a729714611d02578163598ece7a14611b995781635c975abb14611b5557816360da3e8314611b30578163636d198814611a995781636f16b50d1461172d578163715018a6146116c4578163738b62e5146116625781637cfd0e1f14611522575080637d0b0a34146115035780638793e74214611400578063883004611461136d5780638da5cb5b146113385780638fbd0c2d1461111b57806391562cb3146110b45780639219e51014610f4a578063965fa21e14610f2b5780639b31c3a814610f0c5780639d23c4c714610ee4578063a383ae5414610de1578063a4e3c31114610dc4578063aaf5eb6814610a8f578063ab9068fa14610da0578063ad3cb1cc14610d06578063b030ec6c14610ce7578063c0cae29314610c3c578063c4e71eaf14610bb2578063cd377c5314610b8e578063d2522baa14610b68578063d55be8c614610b4c578063d7e4277f14610b0b578063de5f8d9314610ab5578063e1a4521814610a94578063e1e158a514610a8f578063eb8c8d411461098e578063ed6493af14610971578063ef2273d414610850578063f1a9ee03146107cf578063f2fde38b146107a7578063f45346dc146104f35763f8c8765e146102ec575f80fd5b346104ef5760803660031901126104ef57610305612741565b9061030e612757565b6001600160a01b036044358181169492908590036104eb57606435908282168092036104eb577ff0c57e16840df040f15088dc2f81fe391c3923bec73e23a9662efc9c229c6a009586549460ff868a1c1615956001600160401b038116978815806104e4575b6001809a1490816104da575b1590816104d1575b506104c3575067ffffffffffffffff198116881789556103bf9190876104a4575b506103b2612a63565b6103ba612a63565b612960565b6103c7612a63565b6103cf612a63565b855f80516020613583833981519152556103e7612a63565b6103ef612a63565b60ff19937fcd5ed15c6e187e77e9aee88184c21f4f2182ab5827cb3b7e07fbedcd63f03300858154169055610422612a63565b60018060a01b03199216828a541617895581865416178555600254161760025585600a55600a600b55610e10600c556010541660105561251c600f55610466578380f35b815460ff60401b191690915590519081527fc7f505b2f371ae2175ee4913f4499e1f2633a7b5936321eed1cdaeb6115181d290602090a15f80808380f35b68ffffffffffffffffff1916680100000000000000011789555f6103a9565b8a5163f92ee8a960e01b8152fd5b9050155f610388565b303b159150610380565b5087610374565b5f80fd5b8280fd5b5090346104ef5761050336612893565b9461050f929192612b34565b60ff600d54166107975760ff60105460081c166107875760018060a01b03958187809354169386519889916319b6b63d60e21b83521694858983015281602460209b8c935afa9081156106c657829161075a575b501561074a57855163313ce56760e01b815288818981885afa9081156106c6579061059691839161071d575b5086613255565b670de0b6b3a7640000811061070d576105ef906105b587303389612b63565b85835260038a528783206105ca888254612ad5565b90556105d7818a54612ad5565b89556127106105e8600a5483612af6565b0490612b27565b968360025416875191634b8fb92f60e01b835289818401528a83602481855afa9283156107035784936106d4575b50813b156106d05788516329460cc560e11b81526001600160a01b03861691810191825260208201939093528391839182908490829060400103925af180156106c6576106af575b50508451938452858785015216917f861a4138e41fb21c121a7dbb1053df465c837fc77380cc7226189a662281be2c843392a460015f805160206135838339815191525551908152f35b6106b98291612815565b6106c35780610665565b80fd5b87513d84823e3d90fd5b8380fd5b9092508a81813d83116106fc575b6106ec8183612857565b810103126104eb5751915f61061d565b503d6106e2565b89513d86823e3d90fd5b865163070f6eed60e11b81528890fd5b61073d91508a3d8c11610743575b6107358183612857565b810190612abc565b5f61058f565b503d61072b565b855163630e68bd60e11b81528790fd5b61077a9150893d8b11610780575b6107728183612857565b810190612aa4565b5f610563565b503d610768565b5050505163ff0376e760e01b8152fd5b50505051630b4cba3160e31b8152fd5b83346106c35760203660031901126106c3576107cc6107c4612741565b6103ba612928565b80f35b50346104ef5760203660031901126104ef578035906107ec612928565b61038482108015610844575b6108365750907f35d5f64991849d3a2e56aea3a3fe0a4a67da2d7967a3ec083e0c4311ee0565a491600c549080600c5582519182526020820152a180f35b82516347e94c9b60e11b8152fd5b5062093a8082116107f8565b5090346104ef5760203660031901126104ef5781356001600160401b0381116106d05761088090369084016128d6565b338552600e60205282852054919260ff9283161580610950575b61094157506108a7612b34565b845b8181106108c5578560015f805160206135838339815191525580f35b6108d96108d3828487612c72565b35612c28565b50836006820154168681101561092e579061090192911580610915575b610906575b50612c58565b6108a9565b61090f90612d36565b5f6108fb565b5061092687820154600c5490612ad5565b4210156108f6565b634e487b7160e01b885260218752602488fd5b51631f0853c160e21b81528490fd5b505f80516020613543833981519152546001600160a01b031633141561089a565b50346104ef57826003193601126104ef5760209250549051908152f35b5091346106c357806003193601126106c35760105491600f548460115493602060018060a01b03600254168551938480926318160ddd60e01b82525afa918215610a83578192610a50575b508115610a415786549061271091828102928184041490151715610a2e575060a0965090610a0691612b09565b915b60ff8151958181161515875260081c161515602086015284015260608301526080820152f35b634e487b7160e01b815260118852602490fd5b505060a0945061271091610a08565b9091506020813d8211610a7b575b81610a6b60209383612857565b810103126104eb5751905f6109d9565b3d9150610a5e565b508351903d90823e3d90fd5b612906565b505034610ab15781600319360112610ab157602090516127108152f35b5080fd5b505034610ab15781600319360112610ab157610acf612928565b61ff00196010541660105581601155514281527fdf2c80869f8349ad696d44d9b3bd9e12796ede774eccaeefcf974f9629d223fa60203392a280f35b5091346106c35760203660031901126106c35750610b2b6080923561341a565b929391610b3a8351809661276d565b60208501521515908301526060820152f35b505034610ab15781600319360112610ab1576020905160648152f35b505034610ab15781600319360112610ab157602090610b85613109565b90519015158152f35b505034610ab15781600319360112610ab157602090610bab612fc5565b9051908152f35b505034610ab157602090816003193601126104ef576001600160a01b03610bd7612741565b16835260068252808320815190819485928583549182815201928252858220915b86828210610c25578590610c2188610c1284890385612857565b519282849384528301906127e2565b0390f35b835485528895509093019260019283019201610bf8565b50829034610ab15782600319360112610ab157610c576128c7565b60243591610c63612928565b61138883108015610cdc575b610cce5750610cc87f682af3a133eeaeba602573cde275e64c1355409b093913e31d86d28d7a774584939460ff196010541660ff841515161760105583600f555192839283602090939291936040810194151581520152565b0390a180f35b8451632589695560e01b8152fd5b506127108311610c6f565b505034610ab15781600319360112610ab1576020906009549051908152f35b50346104ef57826003193601126104ef57815190828201908282106001600160401b03831117610d8d5750825260058152602090640352e302e360dc1b8282015282519382859384528251928382860152825b848110610d7757505050828201840152601f01601f19168101030190f35b8181018301518882018801528795508201610d59565b604190634e487b7160e01b5f525260245ffd5b505034610ab15781600319360112610ab15760209060ff6010541690519015158152f35b505034610ab15781600319360112610ab157602090610bab6132ce565b50829034610ab157602090816003193601126104ef5780356001600160401b0381116106d057610e16859285923691016128d6565b610e2281939293612c82565b90610e2f85519283612857565b808252610e3b81612c82565b8287019490601f1901368637835b828110610e905750505083519485948186019282875251809352850193925b828110610e7757505050500390f35b8351151585528695509381019392810192600101610e68565b9596949592949392610ed9906001600160a01b03610eb7610eb2838787612c72565b613406565b168552600e865260ff8986205416610ecf8289612d22565b9015159052612c58565b969594929396610e49565b505034610ab15781600319360112610ab157905490516001600160a01b039091168152602090f35b505034610ab15781600319360112610ab157602090600c549051908152f35b505034610ab15781600319360112610ab157602090600b549051908152f35b50919034610ab1576020366003190112610ab157823590610f69612b34565b610f7282612c28565b5060018101546001600160a01b03929190831633036110a4576006019485549560ff87168281101561109157611082576003869760ff9796971916179055610fbb600754612c66565b6007558484526008602052818420925f84549455610fdb84600954612b27565b6009556002541692833b1561107e5782516329460cc560e11b815233928101928352602083019190915292849184919082908490829060400103925af19081156110755750611061575b505033907f7f1fcdbc69590004e2b4592955b3e9f73c063bf132df986a15a01485e2e603b08380a360015f805160206135838339815191525580f35b61106a90612815565b610ab157815f611025565b513d84823e3d90fd5b8480fd5b509051636a903b7960e01b8152fd5b634e487b7160e01b875260218352602487fd5b815163517907dd60e01b81528690fd5b505034610ab1576020366003190112610ab15760207f115ad0fece58825ec20640903934fbedfb746157e6d93b35ddc249fb9c82330b916110f36128c7565b6110fb612928565b151590600d5461ff008360081b169061ff00191617600d5551908152a180f35b50919034610ab157602091826003193601126106c357611139612741565b9181809260018060a01b03958660025416968451966370a0823160e01b88521697888188015260249882888b818c5afa97881561132e5785986112ff575b50600d549085526006978884528686209187518084878296549384815201908a52878a20928a5b898282106112e9575050506111b592500384612857565b865b8351811015611235576111d36111cd8286612d22565b51612c28565b5060ff8c820154168681101561122357156111f8575b506111f390612c58565b6111b7565b966111f3919a61120a61121c92612c58565b98548a52600888528a8a205490612ad5565b99906111e9565b634e487b7160e01b8a52602187528e8afd5b509850989294939991905086611270575b60a08960ff8a8a8a8f8b825196875286015284015281811615606084015260081c16156080820152f35b9084969186959394955194859384926360588f9d60e01b84528301525afa9182156112de57916112a8575b50918560ff60a05f611246565b93928092915084813d83116112d7575b6112c28183612857565b810103126104eb5792519192909160a061129b565b503d6112b8565b8351903d90823e3d90fd5b855484526001958601958995509301920161119e565b9097508281813d8311611327575b6113178183612857565b810103126104eb5751965f611177565b503d61130d565b86513d87823e3d90fd5b505034610ab15781600319360112610ab1575f805160206135438339815191525490516001600160a01b039091168152602090f35b5090346104ef57602091826003193601126106d0578035906001600160401b03821161107e5761139f913691016128d6565b90936113aa826133d4565b94815b8381106113c657845186815280610c218189018a6127e2565b6113fb906001600160a01b036113e0610eb2838887612c72565b16845260038752858420546113f5828a612d22565b52612c58565b6113ad565b50919034610ab15781600319360112610ab1578290815492602060018060a01b03600254168351948580926318160ddd60e01b82525afa9283156114f75781936114c4575b5082156114b457612710908185029185830414851517156114a1575060c09450906114728360ff93612b09565b600d5491600754948151968752602087015285015281811615606085015260081c1615608083015260a0820152f35b634e487b7160e01b815260118652602490fd5b5060c0935060ff90612710611472565b9092506020813d82116114ef575b816114df60209383612857565b810103126104eb5751915f611445565b3d91506114d2565b509051903d90823e3d90fd5b505034610ab15781600319360112610ab157602090600f549051908152f35b848484346104ef57602090816003193601126106d05780356001600160401b03811161107e5784611558879386933691016128d6565b61156481949294612c82565b9361157183519586612857565b818552601f1961158083612c82565b01845b81811061164157505060055491845b8181106115e957505050508051948594818087019381885286518095528701950193905b8382106115c35786860387f35b9184965082866115d9600194969884985161278e565b01960192018695949293916115b6565b80846115ff61160a9385879d9a999b9c9d612c72565b351061161557612c58565b979695939497611592565b61162c6116266108d3838688612c72565b506130a3565b611636828b612d22565b526108fb818a612d22565b9780959496979861165061306c565b82828b01015201979695939497611583565b50505034610ab1576020366003190112610ab15760207f5ef34f53269a04b5b817e5be24a51ba6b477118b399ec9dd5b2baf5b299563dc916116a26128c7565b6116aa612928565b15159060ff19600d541660ff831617600d5551908152a180f35b84346106c357806003193601126106c3576116dd612928565b5f8051602061354383398151915280546001600160a01b031981169091555f906001600160a01b03167f8be0079c531659141344cd1fd0a4f28419497f9722a3daafe3b4186f6b6457e08280a380f35b82858534610ab15780600319360112610ab157823561174a612757565b611752612b34565b60ff600d5460081c16611a89578115611a795760025483516370a0823160e01b815233878201526020966001600160a01b039283169691602490898183818c5afa908115611a2f579087918591611a48575b5010611a39578651634b8fb92f60e01b8152828101879052898183818c5afa908115611a2f578491611a02575b506117e3876005549a30903390612b63565b8460025416803b1561107e578851633b9e9f0160e21b815230858201908152602081018490529091869183919082908490829060400103925af180156119f8576119e3575b506118419089855260088b528089862055600954612ad5565b6009558651936118508561283c565b88855289850194338652888101958887528260608301981697888152608083019042825260a084019288845260c08501958987526005549a600160401b9b8c8110156119d1578060016118a69201600555612c28565b9790976119c0579060069796959493929151875581600188019351169260018060a01b0319938482541617905551600287015560038601925116908254161790555186830155516005820155019051838110156119ae5760ff80198354169116179055338352600689528683209182549485101561199d576001850180845585101561198c57505081889188949352200155611943600754612c58565b600755825191825284820152827fa95840a822fe7a45bb75994a41c5935af0f36e0efb4cc0bde4e46888f89bf1ee833393a360015f805160206135838339815191525551908152f35b634e487b7160e01b84526032905282fd5b634e487b7160e01b84526041905282fd5b634e487b7160e01b8552602184528285fd5b634e487b7160e01b8c528b8b52898cfd5b634e487b7160e01b8c5260418b52898cfd5b936119f16118419295612815565b9390611828565b89513d87823e3d90fd5b90508981813d8311611a28575b611a198183612857565b810103126106d057518a6117d1565b503d611a0f565b88513d86823e3d90fd5b50855163162908e360e11b8152fd5b8092508b8092503d8311611a72575b611a618183612857565b810103126106d0578690518b6117a4565b503d611a57565b825163162908e360e11b81528590fd5b825163f677130360e01b81528590fd5b505090346104ef57826003193601126104ef5760025460095482516360588f9d60e01b815293840152602090839060249082906001600160a01b03165afa918215611b26578392611aef575b6020838351908152f35b9091506020813d8211611b1e575b81611b0a60209383612857565b810103126104ef576020925051905f611ae5565b3d9150611afd565b81513d85823e3d90fd5b50505034610ab15781600319360112610ab15760209060ff600d541690519015158152f35b50505034610ab15781600319360112610ab15760209060ff7fcd5ed15c6e187e77e9aee88184c21f4f2182ab5827cb3b7e07fbedcd63f03300541690519015158152f35b505091346106c35760203660031901126106c357600554833592829190825b82811080611cf9575b15611c4157611bcf81612c28565b5060ff60068201541688811015611c2e578890159182611c14575b5050611bff575b611bfa90612c58565b611bb8565b93611c0c611bfa91612c58565b949050611bf1565b611c2492500154600c5490612ad5565b421015875f611bea565b634e487b7160e01b865260218952602486fd5b50838693611c4e826133d4565b928192825b86811080611cf0575b15611cdb57611c6a81612c28565b5060ff60068201541689811015611cc8579089611c959392159182611cae575b5050611c9a57612c58565b611c53565b806113f5611ca788612c58565b9789612d22565b611cbe92500154600c5490612ad5565b421015898b611c8a565b634e487b7160e01b865260218a52602486fd5b825160208082528190610c21908201896127e2565b50818510611c5c565b50858510611bc1565b50505034610ab15780600319360112610ab157611d1d612741565b602435908115158092036106d0577f966c160e1c4dbc7df8d69af4ace01e9297c3cf016397b7914971f2fbfa32672d91602091611d58612928565b6001600160a01b0316808652600e8352848620805460ff191660ff84161790559351908152a280f35b505090346104ef57611d9236612893565b91611d9e939193612928565b6001600160a01b0390811692611db5858286612f84565b8387526020926003845285818920541015611dfa575b7f3ab9db27a4cdd8c603a752b62d5fbd93b4b3509fe2596708e9688e42bbac357694959650519586521693a380f35b805163313ce56760e01b81529684888281895afa978815611e9457611e4e7f3ab9db27a4cdd8c603a752b62d5fbd93b4b3509fe2596708e9688e42bbac3576979899611e6c928c91611e77575b508a613255565b888b5260038752838b20611e638b8254612b27565b90558254612b27565b905586959450611dcb565b611e8e9150883d8a11610743576107358183612857565b5f611e47565b82513d8b823e3d90fd5b505091346106c357806003193601126106c357507f00000000000000000000000000000000000000000000000000000000000000006001600160a01b03163003611ef857602090515f805160206135638339815191528152f35b5163703e46dd60e11b8152fd5b50505034610ab15781600319360112610ab15760209060ff60105460081c1690519015158152f35b505090806003193601126104ef57611f43612741565b9060249384356001600160401b038111610ab15736602382011215610ab1578085013593611f7085612878565b611f7c85519182612857565b85815260209586820193368a838301011161210f578186928b8a93018737830101526001600160a01b037f0000000000000000000000000000000000000000000000000000000000000000811630811490811561212a575b5061211a57611fe1612928565b85516352d1902d60e01b81529083169680828a818b5afa91829187936120e6575b505061201e5750505050505191634c9c8ce360e01b8352820152fd5b86899689925f80516020613563833981519152908181036120d15750853b156120bc5780546001600160a01b0319168317905551869392917fbc7cd75a20ee27fd9adebab32041f755214dbc6bffa90cc0225b39da2e5c2d3b8580a28251156120a057505061209c9382915190845af46120966129d1565b91612a00565b5080f35b935093505050346120b057505080f35b63b398979f60e01b8152fd5b5051634c9c8ce360e01b815291820152859150fd5b848a91845191632a87526960e21b8352820152fd5b9080929350813d8311612113575b6120fe8183612857565b8101031261210f5751905f80612002565b8580fd5b503d6120f4565b855163703e46dd60e11b81528890fd5b9050815f80516020613563833981519152541614155f611fd4565b50505034610ab15781600319360112610ab15760015490516001600160a01b039091168152602090f35b5050346104ef57826003193601126104ef578254825163b58eb63f60e01b81526001600160a01b0393909291859084908490829088165afa928315612326578593612302575b506121c083516133d4565b916121cb84516133d4565b93865b815181101561229d57866121e28284612d22565b51168852602060038152848920546121fa8388612d22565b526122058287612d22565b5161221a575b5061221590612c58565b6121ce565b8381896122278587612d22565b511687519283809263313ce56760e01b82525afa91821561229357916122659161221594938c92612276575b505061225f8389612d22565b51613255565b61226f8289612d22565b529061220b565b61228c9250803d10610743576107358183612857565b5f80612253565b86513d8c823e3d90fd5b868285888b89835194606086019260608752815180945260808701936020809301915b8181106122ec57888603848a01528880610c218a8a6122df8b8b6127e2565b91848303908501526127e2565b82518a16865294830194918301916001016122c0565b61231f9193503d8087833e6123178183612857565b810190612c99565b915f6121b5565b81513d87823e3d90fd5b50505034610ab15781600319360112610ab1576020905162093a808152f35b50505034610ab15781600319360112610ab1576020906007549051908152f35b5050346104ef5760203660031901126104ef5760209282913581526008845220549051908152f35b939050346106c35760203660031901126106c357506123c56116266123ce926123be61306c565b5035612c28565b9151809261278e565bf35b50505034610ab15781600319360112610ab157602090516103848152f35b5050346104ef57826003193601126104ef5760209250549051908152f35b50505034610ab1576020366003190112610ab15760209181906001600160a01b03612435612741565b1681526003845220549051908152f35b50505034610ab15781600319360112610ab15760209060ff600d5460081c1690519015158152f35b50505034610ab15781600319360112610ab1576020906011549051908152f35b505091346106c357602090816003193601126106c3576124ab612741565b6001600160a01b03168152600680835283822084518154808252918452848420939485949192909190839081840190875b8582821061254b575050506124f392500383612857565b835b82518110156125435760ff8461250e6111cd8487612d22565b5001541688811015611c2e571561252e575b61252990612c58565b6124f5565b9461253b61252991612c58565b959050612520565b508551858152f35b85548452600195860195889550930192016124dc565b50505034610ab1576020366003190112610ab15760209160ff9082906001600160a01b0361258d612741565b168152600e855220541690519015158152f35b50505034610ab15781600319360112610ab157602090600a549051908152f35b50505034610ab15781600319360112610ab15760025490516001600160a01b039091168152602090f35b5050346104ef5760203660031901126104ef57612605612b34565b61260f8135612c28565b509160ff60068401541682811015612673576126665761263582840154600c5490612ad5565b4210612659578361264584612d36565b60015f805160206135838339815191525580f35b51634d758ebd60e11b8152fd5b51636a903b7960e01b8152fd5b634e487b7160e01b855260218352602485fd5b82858534610ab15780600319360112610ab15782356024356126a6612928565b6064821180156126ff575b6126ef577f5c6323bf1c2d7aaea2c091a4751c1c87af7f2864650c336507a77d0557af37a193945081600a5580600b5582519182526020820152a180f35b825163cd4e616760e01b81528590fd5b50606481116126b1565b50505034610ab15781600319360112610ab157610c219061272861334e565b9151901515815260208101919091529081906040820190565b600435906001600160a01b03821682036104eb57565b602435906001600160a01b03821682036104eb57565b90600482101561277a5752565b634e487b7160e01b5f52602160045260245ffd5b9060c0806127e0938051845260018060a01b038060208301511660208601526040820151604086015260608201511660608501526080810151608085015260a081015160a0850152015191019061276d565b565b9081518082526020808093019301915f5b828110612801575050505090565b8351855293810193928101926001016127f3565b6001600160401b03811161282857604052565b634e487b7160e01b5f52604160045260245ffd5b60e081019081106001600160401b0382111761282857604052565b90601f801991011681019081106001600160401b0382111761282857604052565b6001600160401b03811161282857601f01601f191660200190565b60609060031901126104eb576001600160a01b0360043581811681036104eb57916024359160443590811681036104eb5790565b6004359081151582036104eb57565b9181601f840112156104eb578235916001600160401b0383116104eb576020808501948460051b0101116104eb57565b346104eb575f3660031901126104eb576020604051670de0b6b3a76400008152f35b5f80516020613543833981519152546001600160a01b0316330361294857565b60405163118cdaa760e01b8152336004820152602490fd5b6001600160a01b039081169081156129b9575f8051602061354383398151915280546001600160a01b031981168417909155167f8be0079c531659141344cd1fd0a4f28419497f9722a3daafe3b4186f6b6457e05f80a3565b604051631e4fbdf760e01b81525f6004820152602490fd5b3d156129fb573d906129e282612878565b916129f06040519384612857565b82523d5f602084013e565b606090565b90612a275750805115612a1557805190602001fd5b604051630a12f52160e11b8152600490fd5b81511580612a5a575b612a38575090565b604051639996b31560e01b81526001600160a01b039091166004820152602490fd5b50803b15612a30565b60ff7ff0c57e16840df040f15088dc2f81fe391c3923bec73e23a9662efc9c229c6a005460401c1615612a9257565b604051631afcd79f60e31b8152600490fd5b908160209103126104eb575180151581036104eb5790565b908160209103126104eb575160ff811681036104eb5790565b91908201809211612ae257565b634e487b7160e01b5f52601160045260245ffd5b81810292918115918404141715612ae257565b8115612b13570490565b634e487b7160e01b5f52601260045260245ffd5b91908203918211612ae257565b5f805160206135838339815191526002815414612b515760029055565b604051633ee5aeb560e01b8152600490fd5b6040516323b872dd60e01b60208201526001600160a01b03928316602482015292909116604483015260648083019390935291815260a08101918183106001600160401b03841117612828576127e0926040525b5f80612bdf9260018060a01b03169360208151910182865af1612bd86129d1565b9083612a00565b8051908115159182612c0d575b5050612bf55750565b60249060405190635274afe760e01b82526004820152fd5b612c209250602080918301019101612aa4565b155f80612bec565b600554811015612c445760055f52600760205f20910201905f90565b634e487b7160e01b5f52603260045260245ffd5b5f198114612ae25760010190565b8015612ae2575f190190565b9190811015612c445760051b0190565b6001600160401b0381116128285760051b60200190565b60209081818403126104eb578051906001600160401b0382116104eb57019180601f840112156104eb578251612cce81612c82565b93612cdc6040519586612857565b818552838086019260051b8201019283116104eb578301905b828210612d03575050505090565b81516001600160a01b03811681036104eb578152908301908301612cf5565b8051821015612c445760209160051b010190565b600681019160019260ff19908482825416178155612d6160028501546127106105e8600b5483612af6565b6003858101546001600160a01b039081169687158015612f71575b612eac575b9080929394959697169460409687519563313ce56760e01b875260209687816004818c5afa908115612ea25790612dc0915f91612e85575b508261329d565b95885f52808852868a5f205410612e74579260028793612e208c9d9e948c9d612e68987f7778ebef5d3a47fef6ed9fb6cc1f7f09e82ac058569c404aa4105f3a58d46f529e5f528d525f20612e16888254612b27565b9055600454612b27565b600455426005880155825416179055612e3a600754612c66565b60075583545f5260088752612e588a5f205f81549155600954612b27565b6009558301978489541690612f84565b549454169451908152a3565b8951633a23d82560e01b8152600490fd5b612e9c9150893d8b11610743576107358183612857565b5f612db9565b8a513d5f823e3d90fd5b60045f83815416908060409283519485809263b58eb63f60e01b82525afa9283156114f757908c9392918193612f55575b5080845b612ef0575b5050505050612d81565b8351811015612f505786612f048286612d22565b511682528760205282822054612f2357612f1d90612c58565b84612ee1565b9150508495969798999a508493949250612f3c91612d22565b51169796959493925090885f808080612ee6565b612ee6565b612f6a9193503d8085833e6123178183612857565b915f612edd565b50875f528260205260405f205415612d7c565b60405163a9059cbb60e01b60208201526001600160a01b039290921660248301526044808301939093529181526127e091612fc0606483612857565b612bb7565b6002546040516318160ddd60e01b815290602090829060049082906001600160a01b03165afa908115613061575f91613030575b50801561302a5760045490670de0b6b3a764000091828102928184041490151715612ae25761302791612b09565b90565b505f1990565b906020823d8211613059575b8161304960209383612857565b810103126106c35750515f612ff9565b3d915061303c565b6040513d5f823e3d90fd5b604051906130798261283c565b8160c05f918281528260208201528260408201528260608201528260808201528260a08201520152565b906040516130b08161283c565b60ff600682948054845260018060a01b0380600183015416602086015260028201546040860152600382015416606085015260048101546080850152600581015460a085015201541690600482101561277a5760c00152565b60105460ff8116158015613213575b61320e576002546040516318160ddd60e01b815290602090829060049082906001600160a01b03165afa908115613061575f916131dd575b5080156131d7576004549061271091828102928184041490151715612ae25761317891612b09565b90600f549182811061318b575050505f90565b7f3d747073b9d4b08f72a3edbdb8e590c3266455bdd20cc08af18f78bb50b0adcc9261010060609361ff00191617601055426011556040519182526020820152426040820152a1600190565b50505f90565b906020823d8211613206575b816131f660209383612857565b810103126106c35750515f613150565b3d91506131e9565b505f90565b5060ff8160081c16613118565b60ff166012039060ff8211612ae257565b60ff6011199116019060ff8211612ae257565b60ff16604d8111612ae257600a0a90565b60ff821660128114613297576012116132825761327c61327761302793613231565b613244565b90612b09565b61329161327761302793613220565b90612af6565b50905090565b60ff821660128114613297576012116132bf5761329161327761302793613231565b61327c61327761302793613220565b6002546040516318160ddd60e01b815290602090829060049082906001600160a01b03165afa908115613061575f9161331d575b50600454908082116133145750505f90565b61302791612b27565b906020823d8211613346575b8161333660209383612857565b810103126106c35750515f613302565b3d9150613329565b6002546040516318160ddd60e01b815290602090829060049082906001600160a01b03165afa908115613061575f916133a3575b506004548181106133955750505f905f90565b61339e91612b27565b600191565b906020823d82116133cc575b816133bc60209383612857565b810103126106c35750515f613382565b3d91506133af565b906133de82612c82565b6133eb6040519182612857565b82815280926133fc601f1991612c82565b0190602036910137565b356001600160a01b03811681036104eb5790565b905f915f918280926005548110156135355761343581612c28565b509160ff600684015416926004841015613521578315613459575b50505093929190565b613471929750600491969395500154600c5490612ad5565b42811161350d57505060019280945b815260086020526040812054602060018060a01b0360025416916024604051809481936360588f9d60e01b835260048301525afa9182156135015780926134cd575b5050915f8080613450565b9091506020823d82116134f9575b816134e860209383612857565b810103126106c35750515f806134c2565b3d91506134db565b604051903d90823e3d90fd5b61351b909491944290612b27565b94613480565b634e487b7160e01b82526021600452602482fd5b509350915050818091819056fe9016d09d72d40fdae2fd8ceac6b6234c7706214fd39c1cd1e609a0528c199300360894a13ba1a3210667c828492db98dca3e2076cc3735a920a3ca505d382bbc9b779b17422d0df92223018b32b4d1fa46e071723d6817e2486d003becc55f00a26469706673582212205508b61b0697ae603f54f8661f368bf690c311942b3643022ce0b185449e465a64736f6c63430008140033","linkReferences":{}},"methodIdentifiers":{"BPS_DENOMINATOR()":"e1a45218","MAX_FEE_BPS()":"d55be8c6","MAX_REDEMPTION_DELAY()":"433ffe18","MIN_DEPOSIT()":"e1e158a5","MIN_REDEMPTION_DELAY()":"3373bcac","PRECISION()":"aaf5eb68","UPGRADE_INTERFACE_VERSION()":"ad3cb1cc","batchGetCollateralBalances(address[])":"88300461","batchGetRedemptionRequests(uint256[])":"7cfd0e1f","batchIsOperator(address[])":"a383ae54","cancelRedemption(uint256)":"9219e510","checkCircuitBreaker()":"d2522baa","checkUndercollateralization()":"08bf8c4d","circuitBreakerEnabled()":"ab9068fa","circuitBreakerThreshold()":"7d0b0a34","circuitBreakerTriggered()":"51108cac","circuitBreakerTriggeredAt()":"1cc1a74a","collateralBalances(address)":"29bc969d","configureCircuitBreaker(bool,uint256)":"c0cae293","deposit(address,uint256,address)":"f45346dc","depositsPaused()":"60da3e83","emergencyWithdraw(address,uint256,address)":"551512de","getCircuitBreakerStatus()":"eb8c8d41","getCollateralBalance(address)":"2703ee85","getCollateralBreakdown()":"47e4f306","getCollateralRatio()":"cd377c53","getExcessCollateral()":"a4e3c311","getPendingRedemptionCount()":"4080860a","getReadyRedemptions(uint256)":"598ece7a","getRedemptionRequest(uint256)":"3aa6f0ee","getRedemptionStatus(uint256)":"d7e4277f","getTotalCollateralValue()":"ed6493af","getTotalPendingRedemptionValue()":"636d1988","getUserPendingRedemptionCount(address)":"1b3db797","getUserRedemptions(address)":"c4e71eaf","getUserSummary(address)":"8fbd0c2d","getVaultHealth()":"8793e742","initialize(address,address,address,address)":"f8c8765e","mintFee()":"13966db5","navOracle()":"49d4640d","operators(address)":"13e7c9d8","owner()":"8da5cb5b","pauseDeposits(bool)":"738b62e5","pauseRedemptions(bool)":"91562cb3","paused()":"5c975abb","pendingRedemptionCount()":"18e58c12","processBatchRedemptions(uint256[])":"ef2273d4","processRedemption(uint256)":"0fc6f448","proxiableUUID()":"52d1902d","redeemFee()":"965fa21e","redemptionDelay()":"9b31c3a8","redemptionShares(uint256)":"3ff6bec0","redemptionsPaused()":"24f2fe24","renounceOwnership()":"715018a6","requestRedemption(uint256,address)":"6f16b50d","resetCircuitBreaker()":"de5f8d93","setFees(uint256,uint256)":"0b78f9c0","setOperator(address,bool)":"558a7297","setRedemptionDelay(uint256)":"f1a9ee03","ssUSD()":"13657e1c","tokenRegistry()":"9d23c4c7","totalCollateralValue()":"2a6739a2","totalPendingRedemptionShares()":"b030ec6c","transferOwnership(address)":"f2fde38b","upgradeToAndCall(address,bytes)":"4f1ef286"},"id":403}