{"abi":[{"type":"constructor","inputs":[{"name":"name","type":"string","internalType":"string"},{"name":"symbol","type":"string","internalType":"string"},{"name":"offset","type":"uint96","internalType":"uint96"},{"name":"delegates","type":"address[]","internalType":"address[]"},{"name":"receivers","type":"address[]","internalType":"address[]"},{"name":"amounts","type":"uint96[]","internalType":"uint96[]"}],"stateMutability":"payable"},{"type":"function","name":"CLOCK_MODE","inputs":[],"outputs":[{"name":"","type":"string","internalType":"string"}],"stateMutability":"view"},{"type":"function","name":"approve","inputs":[{"name":"to","type":"address","internalType":"address"},{"name":"tokenId","type":"uint256","internalType":"uint256"}],"outputs":[],"stateMutability":"nonpayable"},{"type":"function","name":"balanceOf","inputs":[{"name":"owner","type":"address","internalType":"address"}],"outputs":[{"name":"","type":"uint256","internalType":"uint256"}],"stateMutability":"view"},{"type":"function","name":"clock","inputs":[],"outputs":[{"name":"","type":"uint48","internalType":"uint48"}],"stateMutability":"view"},{"type":"function","name":"delegate","inputs":[{"name":"delegatee","type":"address","internalType":"address"}],"outputs":[],"stateMutability":"nonpayable"},{"type":"function","name":"delegateBySig","inputs":[{"name":"delegatee","type":"address","internalType":"address"},{"name":"nonce","type":"uint256","internalType":"uint256"},{"name":"expiry","type":"uint256","internalType":"uint256"},{"name":"v","type":"uint8","internalType":"uint8"},{"name":"r","type":"bytes32","internalType":"bytes32"},{"name":"s","type":"bytes32","internalType":"bytes32"}],"outputs":[],"stateMutability":"nonpayable"},{"type":"function","name":"delegates","inputs":[{"name":"account","type":"address","internalType":"address"}],"outputs":[{"name":"","type":"address","internalType":"address"}],"stateMutability":"view"},{"type":"function","name":"eip712Domain","inputs":[],"outputs":[{"name":"fields","type":"bytes1","internalType":"bytes1"},{"name":"name","type":"string","internalType":"string"},{"name":"version","type":"string","internalType":"string"},{"name":"chainId","type":"uint256","internalType":"uint256"},{"name":"verifyingContract","type":"address","internalType":"address"},{"name":"salt","type":"bytes32","internalType":"bytes32"},{"name":"extensions","type":"uint256[]","internalType":"uint256[]"}],"stateMutability":"view"},{"type":"function","name":"getApproved","inputs":[{"name":"tokenId","type":"uint256","internalType":"uint256"}],"outputs":[{"name":"","type":"address","internalType":"address"}],"stateMutability":"view"},{"type":"function","name":"getPastTotalSupply","inputs":[{"name":"timepoint","type":"uint256","internalType":"uint256"}],"outputs":[{"name":"","type":"uint256","internalType":"uint256"}],"stateMutability":"view"},{"type":"function","name":"getPastVotes","inputs":[{"name":"account","type":"address","internalType":"address"},{"name":"timepoint","type":"uint256","internalType":"uint256"}],"outputs":[{"name":"","type":"uint256","internalType":"uint256"}],"stateMutability":"view"},{"type":"function","name":"getVotes","inputs":[{"name":"account","type":"address","internalType":"address"}],"outputs":[{"name":"","type":"uint256","internalType":"uint256"}],"stateMutability":"view"},{"type":"function","name":"isApprovedForAll","inputs":[{"name":"owner","type":"address","internalType":"address"},{"name":"operator","type":"address","internalType":"address"}],"outputs":[{"name":"","type":"bool","internalType":"bool"}],"stateMutability":"view"},{"type":"function","name":"name","inputs":[],"outputs":[{"name":"","type":"string","internalType":"string"}],"stateMutability":"view"},{"type":"function","name":"nonces","inputs":[{"name":"owner","type":"address","internalType":"address"}],"outputs":[{"name":"","type":"uint256","internalType":"uint256"}],"stateMutability":"view"},{"type":"function","name":"ownerOf","inputs":[{"name":"tokenId","type":"uint256","internalType":"uint256"}],"outputs":[{"name":"","type":"address","internalType":"address"}],"stateMutability":"view"},{"type":"function","name":"paused","inputs":[],"outputs":[{"name":"","type":"bool","internalType":"bool"}],"stateMutability":"view"},{"type":"function","name":"safeTransferFrom","inputs":[{"name":"from","type":"address","internalType":"address"},{"name":"to","type":"address","internalType":"address"},{"name":"tokenId","type":"uint256","internalType":"uint256"}],"outputs":[],"stateMutability":"nonpayable"},{"type":"function","name":"safeTransferFrom","inputs":[{"name":"from","type":"address","internalType":"address"},{"name":"to","type":"address","internalType":"address"},{"name":"tokenId","type":"uint256","internalType":"uint256"},{"name":"data","type":"bytes","internalType":"bytes"}],"outputs":[],"stateMutability":"nonpayable"},{"type":"function","name":"setApprovalForAll","inputs":[{"name":"operator","type":"address","internalType":"address"},{"name":"approved","type":"bool","internalType":"bool"}],"outputs":[],"stateMutability":"nonpayable"},{"type":"function","name":"supportsInterface","inputs":[{"name":"interfaceId","type":"bytes4","internalType":"bytes4"}],"outputs":[{"name":"","type":"bool","internalType":"bool"}],"stateMutability":"view"},{"type":"function","name":"symbol","inputs":[],"outputs":[{"name":"","type":"string","internalType":"string"}],"stateMutability":"view"},{"type":"function","name":"tokenURI","inputs":[{"name":"tokenId","type":"uint256","internalType":"uint256"}],"outputs":[{"name":"","type":"string","internalType":"string"}],"stateMutability":"view"},{"type":"function","name":"transferFrom","inputs":[{"name":"from","type":"address","internalType":"address"},{"name":"to","type":"address","internalType":"address"},{"name":"tokenId","type":"uint256","internalType":"uint256"}],"outputs":[],"stateMutability":"nonpayable"},{"type":"event","name":"Approval","inputs":[{"name":"owner","type":"address","indexed":true,"internalType":"address"},{"name":"approved","type":"address","indexed":true,"internalType":"address"},{"name":"tokenId","type":"uint256","indexed":true,"internalType":"uint256"}],"anonymous":false},{"type":"event","name":"ApprovalForAll","inputs":[{"name":"owner","type":"address","indexed":true,"internalType":"address"},{"name":"operator","type":"address","indexed":true,"internalType":"address"},{"name":"approved","type":"bool","indexed":false,"internalType":"bool"}],"anonymous":false},{"type":"event","name":"ConsecutiveTransfer","inputs":[{"name":"fromTokenId","type":"uint256","indexed":true,"internalType":"uint256"},{"name":"toTokenId","type":"uint256","indexed":false,"internalType":"uint256"},{"name":"fromAddress","type":"address","indexed":true,"internalType":"address"},{"name":"toAddress","type":"address","indexed":true,"internalType":"address"}],"anonymous":false},{"type":"event","name":"DelegateChanged","inputs":[{"name":"delegator","type":"address","indexed":true,"internalType":"address"},{"name":"fromDelegate","type":"address","indexed":true,"internalType":"address"},{"name":"toDelegate","type":"address","indexed":true,"internalType":"address"}],"anonymous":false},{"type":"event","name":"DelegateVotesChanged","inputs":[{"name":"delegate","type":"address","indexed":true,"internalType":"address"},{"name":"previousVotes","type":"uint256","indexed":false,"internalType":"uint256"},{"name":"newVotes","type":"uint256","indexed":false,"internalType":"uint256"}],"anonymous":false},{"type":"event","name":"EIP712DomainChanged","inputs":[],"anonymous":false},{"type":"event","name":"Initialized","inputs":[{"name":"version","type":"uint64","indexed":false,"internalType":"uint64"}],"anonymous":false},{"type":"event","name":"Paused","inputs":[{"name":"account","type":"address","indexed":false,"internalType":"address"}],"anonymous":false},{"type":"event","name":"Transfer","inputs":[{"name":"from","type":"address","indexed":true,"internalType":"address"},{"name":"to","type":"address","indexed":true,"internalType":"address"},{"name":"tokenId","type":"uint256","indexed":true,"internalType":"uint256"}],"anonymous":false},{"type":"event","name":"Unpaused","inputs":[{"name":"account","type":"address","indexed":false,"internalType":"address"}],"anonymous":false},{"type":"error","name":"CheckpointUnorderedInsertion","inputs":[]},{"type":"error","name":"ECDSAInvalidSignature","inputs":[]},{"type":"error","name":"ECDSAInvalidSignatureLength","inputs":[{"name":"length","type":"uint256","internalType":"uint256"}]},{"type":"error","name":"ECDSAInvalidSignatureS","inputs":[{"name":"s","type":"bytes32","internalType":"bytes32"}]},{"type":"error","name":"ERC5805FutureLookup","inputs":[{"name":"timepoint","type":"uint256","internalType":"uint256"},{"name":"clock","type":"uint48","internalType":"uint48"}]},{"type":"error","name":"ERC6372InconsistentClock","inputs":[]},{"type":"error","name":"ERC721ExceededMaxBatchMint","inputs":[{"name":"batchSize","type":"uint256","internalType":"uint256"},{"name":"maxBatch","type":"uint256","internalType":"uint256"}]},{"type":"error","name":"ERC721ForbiddenBatchBurn","inputs":[]},{"type":"error","name":"ERC721ForbiddenBatchMint","inputs":[]},{"type":"error","name":"ERC721ForbiddenMint","inputs":[]},{"type":"error","name":"ERC721IncorrectOwner","inputs":[{"name":"sender","type":"address","internalType":"address"},{"name":"tokenId","type":"uint256","internalType":"uint256"},{"name":"owner","type":"address","internalType":"address"}]},{"type":"error","name":"ERC721InsufficientApproval","inputs":[{"name":"operator","type":"address","internalType":"address"},{"name":"tokenId","type":"uint256","internalType":"uint256"}]},{"type":"error","name":"ERC721InvalidApprover","inputs":[{"name":"approver","type":"address","internalType":"address"}]},{"type":"error","name":"ERC721InvalidOperator","inputs":[{"name":"operator","type":"address","internalType":"address"}]},{"type":"error","name":"ERC721InvalidOwner","inputs":[{"name":"owner","type":"address","internalType":"address"}]},{"type":"error","name":"ERC721InvalidReceiver","inputs":[{"name":"receiver","type":"address","internalType":"address"}]},{"type":"error","name":"ERC721InvalidSender","inputs":[{"name":"sender","type":"address","internalType":"address"}]},{"type":"error","name":"ERC721NonexistentToken","inputs":[{"name":"tokenId","type":"uint256","internalType":"uint256"}]},{"type":"error","name":"EnforcedPause","inputs":[]},{"type":"error","name":"ExpectedPause","inputs":[]},{"type":"error","name":"InvalidAccountNonce","inputs":[{"name":"account","type":"address","internalType":"address"},{"name":"currentNonce","type":"uint256","internalType":"uint256"}]},{"type":"error","name":"InvalidInitialization","inputs":[]},{"type":"error","name":"NotInitializing","inputs":[]},{"type":"error","name":"SafeCastOverflowedUintDowncast","inputs":[{"name":"bits","type":"uint8","internalType":"uint8"},{"name":"value","type":"uint256","internalType":"uint256"}]},{"type":"error","name":"VotesExpiredSignature","inputs":[{"name":"expiry","type":"uint256","internalType":"uint256"}]}],"bytecode":{"object":"0x608060405262003f4e80380380620000178162000120565b92833981019060c081830312620000e25780516001600160401b039290838111620000e257816200004a91840162000146565b916020810151848111620000e257826200006691830162000146565b6200007460408301620001b6565b906060830151868111620000e2578462000090918501620001e3565b926080810151878111620000e25785620000ac918301620001e3565b9460a0820151978811620000e257620000d297620000cb920162000257565b94620002be565b6040516125c490816200184a8239f35b5f80fd5b634e487b7160e01b5f52604160045260245ffd5b60408051919082016001600160401b038111838210176200011a57604052565b620000e6565b6040519190601f01601f191682016001600160401b038111838210176200011a57604052565b919080601f84011215620000e25782516001600160401b0381116200011a576020906200017c601f8201601f1916830162000120565b92818452828287010111620000e2575f5b818110620001a25750825f9394955001015290565b85810183015184820184015282016200018d565b51906001600160601b0382168203620000e257565b6001600160401b0381116200011a5760051b60200190565b9080601f83011215620000e257815190620002086200020283620001cb565b62000120565b9182938184526020808095019260051b820101928311620000e2578301905b82821062000236575050505090565b81516001600160a01b0381168103620000e257815290830190830162000227565b9080601f83011215620000e257815190620002766200020283620001cb565b9182938184526020808095019260051b820101928311620000e2578301905b828210620002a4575050505090565b838091620002b284620001b6565b81520191019062000295565b94929093915f8051602062003eee8339815191529485549660ff8860401c16159760018060401b03811680159081620003cf575b6001149081620003c4575b159081620003ba575b50620003a8576001600160401b0319166001179096556200032d95876200037d57620003d8565b6200033457565b5f8051602062003eee833981519152805460ff60401b19169055604051600181527fc7f505b2f371ae2175ee4913f4499e1f2633a7b5936321eed1cdaeb6115181d290602090a1565b5f8051602062003eee833981519152805460ff60401b191668010000000000000000179055620003d8565b60405163f92ee8a960e01b8152600490fd5b9050155f62000306565b303b159150620002fd565b8a9150620002f2565b95949392919095620003e9620009e0565b620003f3620009e0565b80516001600160401b0381116200011a575f8051602062003e2e833981519152906200042b8162000425845462000a10565b62000a4b565b602080601f83116001146200049d575098620004899392826200046e936200048f9b9c5f9162000491575b508160011b915f199060031b1c191617905562000bdf565b620004786200109a565b6200048262000540565b90620010cf565b6200055b565b565b90508501515f62000456565b5f8051602062003e2e8339815191525f5290601f1983167f37c58c799b6609234b945e882912ee9ad34948a1dfaa20a97485e1a7752bbf81925f905b82821062000527575050836200048f9b9c93620004899796936200046e96600194106200050e575b5050811b01905562000bdf565b8701515f1960f88460031b161c191690555f8062000501565b80600185968294968b01518155019501930190620004d9565b6200054a620000fa565b9060018252603160f81b6020830152565b9390939291926200056b620009e0565b5f80546001600160601b0319166001600160601b03929092169190911781555b8451811015620005d757620005d190620005cb6001600160a01b0380620005b3848a62000682565b511690620005c2848a62000682565b5116906200069d565b62000659565b6200058b565b50919092505f5b81518110156200063f5780620006326200060e6200060162000639948662000682565b516001600160a01b031690565b6200062b6200061e848962000682565b516001600160601b031690565b9062000dff565b5062000659565b620005de565b50509050565b634e487b7160e01b5f52601160045260245ffd5b5f198114620006685760010190565b62000645565b634e487b7160e01b5f52603260045260245ffd5b8051821015620006975760209160051b010190565b6200066e565b919060018060a01b0390818416805f527fe8b26c30fad74198956032a3533d903385d56dd795af560196f9c78d4af40d0060205260405f2090815491848316948416809360018060a01b0319161790556040519184827f3134e8a2e6d97e929a7e54011ea5485d7d196dd5f0ba4d4ef95803e8e3fc257f5f80a4156200075357506200074b6200048f939460018060a01b03165f525f8051602062003e0e83398151915260205260405f2090565b549162000768565b6322718ad960e21b81525f6004820152602490fd5b6001600160a01b038083169392919081169081851415806200090d575b62000792575b5050505050565b8162000819575b505082620007aa575b80806200078b565b6001600160a01b03165f9081525f8051602062003ece833981519152602052604090205f8051602062003f2e83398151915291620007f591620007ee909162001247565b9062000917565b604080516001600160d01b039384168152919092166020820152a25f8080620007a2565b6001600160a01b03165f9081525f8051602062003ece83398151915260205260409020620008478462001247565b9065ffffffffffff90814311620008ee5780545f81620008b1575050906200088e91620008845f8051602062003f2e833981519152945f62001815565b91431690620014d1565b604080516001600160d01b039384168152919092166020820152a25f8062000799565b5f939291931994848681011162000668575f8051602062003f2e833981519152956200088e95602084866200088496522001015460301c62001815565b6040516306dfcc6560e41b815260306004820152436024820152604490fd5b5083151562000785565b65ffffffffffff90814311620008ee5780545f81620009465750506200088462000942935f6200182f565b9091565b90935f19858181011162000668576200094295602084866200088496522001015460301c6200182f565b65ffffffffffff804311620008ee575f8051602062003e8e83398151915280545f9080620009b457505050620009ab62000942925f62001815565b90431662001365565b5f949192941990808281011162000668576020846200094297620009ab96522001015460301c62001815565b60ff5f8051602062003eee8339815191525460401c1615620009fe57565b604051631afcd79f60e31b8152600490fd5b90600182811c9216801562000a40575b602083101462000a2c57565b634e487b7160e01b5f52602260045260245ffd5b91607f169162000a20565b601f811162000a58575050565b5f905f8051602062003e2e833981519152825260208220906020601f850160051c8301941062000aa5575b601f0160051c01915b82811062000a9957505050565b81815560010162000a8c565b909250829062000a83565b601f811162000abd575050565b5f905f8051602062003e4e833981519152825260208220906020601f850160051c8301941062000b0a575b601f0160051c01915b82811062000afe57505050565b81815560010162000af1565b909250829062000ae8565b601f811162000b22575050565b5f905f8051602062003f0e833981519152825260208220906020601f850160051c8301941062000b6f575b601f0160051c01915b82811062000b6357505050565b81815560010162000b56565b909250829062000b4d565b601f811162000b87575050565b5f905f8051602062003e6e833981519152825260208220906020601f850160051c8301941062000bd4575b601f0160051c01915b82811062000bc857505050565b81815560010162000bbb565b909250829062000bb2565b80519091906001600160401b0381116200011a575f8051602062003f0e8339815191529062000c1a8162000c14845462000a10565b62000b15565b602080601f831160011462000c575750819293945f9262000c4b575b50508160011b915f199060031b1c1916179055565b015190505f8062000c36565b5f8051602062003f0e8339815191525f52601f198316959091907ff4bad0a69248f59680a4f2b3000328cec71a413447c96781cfe5996daa8c456e925f905b88821062000cd05750508360019596971062000cb7575b505050811b019055565b01515f1960f88460031b161c191690555f808062000cad565b8060018596829496860151815501950193019062000c96565b80519091906001600160401b0381116200011a575f8051602062003e6e8339815191529062000d248162000d1e845462000a10565b62000b7a565b602080601f831160011462000d545750819293945f9262000c4b5750508160011b915f199060031b1c1916179055565b5f8051602062003e6e8339815191525f52601f198316959091907f5f9ce34815f8e11431c7bb75a8e6886a91478f7ffc1dbb0a98dc240fddd76b75925f905b88821062000db35750508360019596971062000cb757505050811b019055565b8060018596829496860151815501950193019062000d93565b6001600160601b0391821690821601919082116200066857565b6001600160601b039081165f1901919082116200066857565b9062000e0a62000f1e565b916001600160601b038281168062000e24575b5050505090565b303b62000f0c576001600160a01b03831693841562000ef457611388821162000ec9575f939262000e9f7fdeaa91b6123d068f5821d0fb0678463d1a8a6079fe8af5de3ce5e896dcf9133d9362000e8a62000e8462000ebc958b62000dcc565b62000de6565b9562000e978988620016b7565b505062000f5b565b6040516001600160601b0390941684528616929081906020820190565b0390a45f80808062000e1d565b6040516308f58e5760e41b81526001600160601b039190911660048201526113886024820152604490fd5b604051633250574960e11b81525f6004820152602490fd5b6040516329cfc83160e11b8152600490fd5b62000f28620015eb565b50905f901562000f4c57506001600160601b03908116600101908111620006685790565b546001600160601b0316919050565b6001600160a01b0381165f9081525f8051602062003e0e8339815191526020526040902090916001600160801b03169081815401905562000f9c8162001247565b9165ffffffffffff804311620008ee575f8051602062003e8e8339815191528054905f826200106a5750505062000fdd90620009ab6200048f955f6200182f565b50506001600160a01b039081169081156200104d575b7fe8b26c30fad74198956032a3533d903385d56dd795af560196f9c78d4af40d006020527fd4fb29e10204005f1a39963c6862b79a755e22f0177c53f05cdc3786c702f974545f9283526040909220548116911662000768565b620010626200105c8462001247565b62000970565b505062000ff3565b909291955f19878181011162000668576200048f9760208462000fdd97620009ab96522001015460301c6200182f565b620010a4620009e0565b7fcd5ed15c6e187e77e9aee88184c21f4f2182ab5827cb3b7e07fbedcd63f03300805460ff19169055565b9190620010db620009e0565b82516001600160401b0381116200011a575f8051602062003e4e8339815191529062001113816200110d845462000a10565b62000ab0565b602080601f8311600114620011aa575081906200114c95965f926200119e575b50508160011b915f199060031b1c191617905562000ce9565b620011755f7fa16a46d94261c7517cc8ff89f61c0ce93598e3c849801011dee649a6a557d10055565b6200048f5f7fa16a46d94261c7517cc8ff89f61c0ce93598e3c849801011dee649a6a557d10155565b015190505f8062001133565b5f8051602062003e4e8339815191525f52601f198316969091907f42ad5d3e1f2e6e70edcf6d991b8a3023d3fca8047a131592f9edb9fd9b89d57d925f905b8982106200122e575050908392916001946200114c98991062001215575b505050811b01905562000ce9565b01515f1960f88460031b161c191690555f808062001207565b80600185968294968601518155019501930190620011e9565b6001600160d01b03908181116200125c571690565b604490604051906306dfcc6560e41b825260d060048301526024820152fd5b5f198101919082116200066857565b5f8051602062003e8e833981519152908154680100000000000000008110156200011a576001810180845581101562000697575f9283526020928390208251929093015160301b65ffffffffffff191665ffffffffffff9290921691909117910155565b908154680100000000000000008110156200011a576001810180845581101562000697575f9283526020928390208251929093015160301b65ffffffffffff191665ffffffffffff9290921691909117910155565b906200134e620000fa565b915465ffffffffffff8116835260301c6020830152565b5f8051602062003e8e83398151915254919291908115620014a357620013cf620013c962001393846200127b565b5f8051602062003e8e8339815191525f527f88c46c62109817164d0ae1873830d4299a82e5daf552a3d8e989b27638fcf7480190565b62001343565b805165ffffffffffff83811694911684106200149157856020936200144f956200140e62001403865165ffffffffffff1690565b65ffffffffffff1690565b03620014535750620014286200139362001441936200127b565b9065ffffffffffff82549181199060301b169116179055565b01516001600160d01b031690565b9190565b90506200148b91506200147762001469620000fa565b65ffffffffffff9092168252565b6001600160d01b038716818501526200128a565b62001441565b604051632520601d60e01b8152600490fd5b620014cc9150620014b762001469620000fa565b6001600160d01b03841660208201526200128a565b5f9190565b8054929392919082156200159f57620014fd620013c9620014f2856200127b565b835f5260205f200190565b906200150f825165ffffffffffff1690565b65ffffffffffff8481169116811062001491576200144f9460209488926200154162001403875165ffffffffffff1690565b0362001567575062001441926200155c62001428926200127b565b905f5260205f200190565b9150506200148b916200158b6200157d620000fa565b65ffffffffffff9093168352565b6001600160d01b03881682860152620012ee565b620014cc9250620015b36200157d620000fa565b6001600160d01b0385166020830152620012ee565b90620015d3620000fa565b91546001600160601b038116835260601c6020830152565b5f8051602062003eae8339815191528054806200160c5750505f905f905f90565b5f1990808281011162000668576020925f52825f200101916200162e620000fa565b92546001600160601b03811680855260609190911c929093018290526001929190565b5f8051602062003eae833981519152908154680100000000000000008110156200011a576001810180845581101562000697575f9283526020928390208251929093015160601b6001600160601b0319166001600160601b039290921691909117910155565b5f8051602062003eae83398151915254919291908115620017ec57620017216200171b620016e5846200127b565b5f8051602062003eae8339815191525f527f9cb0505641590263598888e65a188123f5f99e290b2f1173125d930b6fc5fe520190565b620015c8565b80516001600160601b0383811694911684106200149157856020936200144f956200176262001756865160018060601b031690565b6001600160601b031690565b03620017ad57506200177c620016e56200179f936200127b565b80546001600160601b031660609290921b6001600160601b031916919091179055565b01516001600160a01b031690565b9050620017e69150620017d2620017c3620000fa565b6001600160601b039092168252565b6001600160a01b0387168185015262001651565b6200179f565b620014cc915062001800620017c3620000fa565b6001600160a01b038416602082015262001651565b6001600160d01b0391821690821603908111620006685790565b6001600160d01b039182169082160190811162000668579056fe60806040526004361015610011575f80fd5b5f3560e01c806301ffc9a71461019457806306fdde031461018f578063081812fc1461018a578063095ea7b31461018557806323b872dd146101805780633a46b1a81461017b57806342842e0e146101765780634bf5d7e914610171578063587cde1e1461016c5780635c19a95c146101675780635c975abb146101625780636352211e1461015d57806370a08231146101585780637ecebe001461015357806384b0196e1461014e5780638e539e8c1461014957806391ddadf41461014457806395d89b411461013f5780639ab24eb01461013a578063a22cb46514610135578063b88d4fde14610130578063c3cda5201461012b578063c87b56dd146101265763e985e9c514610121575f80fd5b610f5d565b610f0c565b610e3e565b610db7565b610c6a565b610c2e565b610b2f565b610b04565b6109f4565b610924565b610849565b61081e565b6107ee565b6107ad565b61078b565b610746565b6106b5565b61068e565b610569565b610552565b61042b565b6103b7565b61026f565b6101af565b6001600160e01b03198116036101ab57565b5f80fd5b346101ab5760203660031901126101ab5760206004356101ce81610199565b63ffffffff60e01b166380ac58cd60e01b811490811561020c575b81156101fb575b506040519015158152f35b6301ffc9a760e01b1490505f6101f0565b635b5e139f60e01b811491506101e9565b91908251928382525f5b848110610247575050825f602080949584010152601f8019910116010190565b602081830181015184830182015201610227565b90602061026c92818152019061021d565b90565b346101ab575f806003193601126103b45760405190807f80bb2b638cc20bc4d0a60d66940f3ab4a00c1d7b313497ca82fb0b4ab0079300549060019180831c928082169283156103aa575b602092838610851461039657858852602088019490811561037557506001146102fe575b6102fa876102ee81890382610d6c565b6040519182918261025b565b0390f35b7f80bb2b638cc20bc4d0a60d66940f3ab4a00c1d7b313497ca82fb0b4ab00793005f5294509192917f37c58c799b6609234b945e882912ee9ad34948a1dfaa20a97485e1a7752bbf815b83861061036457505050910190506102ee826102fa5f806102de565b805485870152948201948101610348565b60ff191685525050505090151560051b0190506102ee826102fa5f806102de565b634e487b7160e01b82526022600452602482fd5b93607f16936102ba565b80fd5b346101ab5760203660031901126101ab576004356103d48161180e565b505f525f8051602061254f833981519152602052602060018060a01b0360405f205416604051908152f35b600435906001600160a01b03821682036101ab57565b602435906001600160a01b03821682036101ab57565b346101ab5760403660031901126101ab576104446103ff565b602435906104518261180e565b3315158061050a575b806104dd575b6104c5576104c3926104a49181906001600160a01b0385811691167f8c5be1e5ebec7d5bd14f71427d1e84f3dd0314c0f7b2291e5b200ac8c7c3b9255f80a46117db565b80546001600160a01b0319166001600160a01b03909216919091179055565b005b60405163a9fbf51f60e01b8152336004820152602490fd5b5060ff610502336104ed84610fd2565b9060018060a01b03165f5260205260405f2090565b541615610460565b506001600160a01b03811633141561045a565b60609060031901126101ab576001600160a01b039060043582811681036101ab579160243590811681036101ab579060443590565b346101ab576104c36105633661051d565b91611550565b346101ab5760403660031901126101ab576105826103ff565b6024359061058f43611e7d565b9065ffffffffffff9182811684101561066557506105af6105b591610f9a565b92611e7d565b8254905f908260058111610617575b506105d0935084612408565b5f9190806105fa575050506102fa5f5b6040516001600160d01b0390911681529081906020820190565b6102fa92610609602092611eaf565b92815220015460301c6105e0565b909261062282611ecb565b8203918211610660576105d094868452808360208620015416908516105f1461064e5750915b5f6105c4565b92915061065a90611ebd565b90610648565b6112ec565b604051637669fc0f60e11b81526004810185905265ffffffffffff919091166024820152604490fd5b346101ab576104c361069f3661051d565b90604051926106ad84610d16565b5f84526116d9565b346101ab575f3660031901126101ab576106ce43611e7d565b65ffffffffffff806106df43611e7d565b16911603610734576102fa6040516106f681610d36565b601d81527f6d6f64653d626c6f636b6e756d6265722666726f6d3d64656661756c74000000602082015260405191829160208352602083019061021d565b6040516301bfc1c560e61b8152600490fd5b346101ab5760203660031901126101ab5760206001600160a01b038061076a6103ff565b165f525f8051602061250f833981519152825260405f205416604051908152f35b346101ab5760203660031901126101ab576104c36107a76103ff565b33611042565b346101ab575f3660031901126101ab57602060ff7fcd5ed15c6e187e77e9aee88184c21f4f2182ab5827cb3b7e07fbedcd63f0330054166040519015158152f35b346101ab5760203660031901126101ab57602061080c60043561180e565b6040516001600160a01b039091168152f35b346101ab5760203660031901126101ab57602061084161083c6103ff565b611300565b604051908152f35b346101ab5760203660031901126101ab576001600160a01b0361086a6103ff565b165f527f5ab42ced628888259c08ac98db1eb0cf702fc1501344311d8b100cd1bfe4bb00602052602060405f2054604051908152f35b916108d390949194600f60f81b84526108c560209660e08887015260e086019061021d565b90848203604086015261021d565b92606083015260018060a01b031660808201525f60a082015260c08183039101528180845192838152019301915f5b828110610910575050505090565b835185529381019392810192600101610902565b346101ab575f3660031901126101ab577fa16a46d94261c7517cc8ff89f61c0ce93598e3c849801011dee649a6a557d1005415806109cb575b1561098e5761096a611334565b61097261145c565b906102fa61097e611c20565b60405193849330914691866108a0565b60405162461bcd60e51b81526020600482015260156024820152741152540dcc4c8e88155b9a5b9a5d1a585b1a5e9959605a1b6044820152606490fd5b507fa16a46d94261c7517cc8ff89f61c0ce93598e3c849801011dee649a6a557d101541561095d565b346101ab5760203660031901126101ab57600435610a1143611e7d565b9065ffffffffffff91828116821015610add5750610a2e90611e7d565b905f8051602061252f833981519152918254905f908260058111610a94575b50610a589350612384565b5f919080610a795750505060205f5b6040516001600160d01b039091168152f35b602092610a868492611eaf565b92815220015460301c610a67565b9092610a9f82611ecb565b820391821161066057610a5894868452808360208620015416908516105f14610acb5750915b5f610a4d565b929150610ad790611ebd565b90610ac5565b604051637669fc0f60e11b8152600481019290925265ffffffffffff166024820152604490fd5b346101ab575f3660031901126101ab576020610b1f43611e7d565b65ffffffffffff60405191168152f35b346101ab575f806003193601126103b45760405190807f80bb2b638cc20bc4d0a60d66940f3ab4a00c1d7b313497ca82fb0b4ab0079301549060019180831c92808216928315610c24575b60209283861085146103965785885260208801949081156103755750600114610bad576102fa876102ee81890382610d6c565b7f80bb2b638cc20bc4d0a60d66940f3ab4a00c1d7b313497ca82fb0b4ab00793015f5294509192917ff4bad0a69248f59680a4f2b3000328cec71a413447c96781cfe5996daa8c456e5b838610610c1357505050910190506102ee826102fa5f806102de565b805485870152948201948101610bf7565b93607f1693610b7a565b346101ab5760203660031901126101ab5760206001600160d01b03610c61610c5c610c576103ff565b610f9a565b612054565b16604051908152f35b346101ab5760403660031901126101ab57610c836103ff565b6024358015158091036101ab576001600160a01b038216918215610ce957610cae906104ed33610fd2565b60ff1981541660ff83161790556040519081527f17307eab39ab6107e8899845ad3d59bd9653f200f220920489ca2b5937696c3160203392a3005b604051630b61174360e31b815260048101849052602490fd5b634e487b7160e01b5f52604160045260245ffd5b602081019081106001600160401b03821117610d3157604052565b610d02565b604081019081106001600160401b03821117610d3157604052565b60a081019081106001600160401b03821117610d3157604052565b90601f801991011681019081106001600160401b03821117610d3157604052565b60405190610d9a82610d36565b565b6001600160401b038111610d3157601f01601f191660200190565b346101ab5760803660031901126101ab57610dd06103ff565b610dd8610415565b606435916001600160401b0383116101ab57366023840112156101ab57826004013591610e0483610d9c565b92610e126040519485610d6c565b80845236602482870101116101ab576020815f9260246104c398018388013785010152604435916116d9565b346101ab5760c03660031901126101ab57610e576103ff565b6044359060243560643560ff811681036101ab57834211610ef357610ee76104c394610eee926040519060208201927fe48329057bfd03d55e49b547132e39cffd9c1820ad7b9d4c5307691425d15adf845260018060a01b0388166040840152866060840152608083015260808252610ecf82610d51565b610ee260a4359360843593519020611b91565b611d03565b9182611b1b565b611042565b604051632341d78760e11b815260048101859052602490fd5b346101ab5760203660031901126101ab57610f2860043561180e565b505f604051610f3681610d16565b526102fa604051610f4681610d16565b5f815260405191829160208352602083019061021d565b346101ab5760403660031901126101ab57602060ff610f8e610f7d6103ff565b6104ed610f88610415565b91610fd2565b54166040519015158152f35b6001600160a01b03165f9081527fe8b26c30fad74198956032a3533d903385d56dd795af560196f9c78d4af40d016020526040902090565b6001600160a01b03165f9081527f80bb2b638cc20bc4d0a60d66940f3ab4a00c1d7b313497ca82fb0b4ab00793056020526040902090565b6001600160a01b03165f9081527f80bb2b638cc20bc4d0a60d66940f3ab4a00c1d7b313497ca82fb0b4ab00793036020526040902090565b6001600160a01b038181165f8181525f8051602061250f8339815191526020526040812080548685166001600160a01b03198216811790925590959316936110b3929091869186917f3134e8a2e6d97e929a7e54011ea5485d7d196dd5f0ba4d4ef95803e8e3fc257f9080a4611300565b9183811415806111a3575b6110c9575b50505050565b80611129575b50826110dc575b806110c3565b5f8051602061256f833981519152916111006110fa61110693610f9a565b91611e4a565b906112ba565b604080516001600160d01b039384168152919092166020820152a25f80806110d6565b61113281610f9a565b61113b84611e4a565b61114443611e7d565b6001600160d01b0391828061115886612054565b169116900392828411610660575f8051602061256f8339815191529361119a92611181926122a6565b6040805192851683529316602082015291829190820190565b0390a25f6110cf565b508215156110be565b6001600160a01b03808316929190811690818414158061127e575b6111d15750505050565b81611227575b5050816111e6575b80806110c3565b6112056112005f8051602061256f83398151915292610f9a565b611286565b604080516001600160d01b039384168152919092166020820152a25f806111df565b61123090610f9a565b61123943611e7d565b6001600160d01b03905f198261124e85612054565b160192828411610660575f8051602061256f8339815191529361127492611181926122a6565b0390a25f806111d7565b5060016111c7565b61128f43611e7d565b6001600160d01b03906001826112a485612054565b1601918211610660576112b6926122a6565b9091565b906112c443611e7d565b6001600160d01b039182806112d886612054565b169116019182116112ec576112b6926122a6565b634e487b7160e01b5f52601160045260245ffd5b6001600160a01b0381161561131c576113189061100a565b5490565b6040516322718ad960e21b81525f6004820152602490fd5b604051905f7fa16a46d94261c7517cc8ff89f61c0ce93598e3c849801011dee649a6a557d1025490600182811c92818116918215611452575b602091828610841461143e5785885287949360208601939291811561141f57506001146113a4575b505050610d9a92500383610d6c565b7fa16a46d94261c7517cc8ff89f61c0ce93598e3c849801011dee649a6a557d1025f5290949092507f42ad5d3e1f2e6e70edcf6d991b8a3023d3fca8047a131592f9edb9fd9b89d57d945f935b82851061140957505050610d9a9350015f8080611395565b86548585015295860195889550938101936113f1565b92505050610d9a9491925060ff19168252151560051b015f8080611395565b634e487b7160e01b85526022600452602485fd5b93607f169361136d565b604051905f7fa16a46d94261c7517cc8ff89f61c0ce93598e3c849801011dee649a6a557d1035490600182811c92818116918215611546575b602091828610841461143e5785885287949360208601939291811561141f57506001146114cb57505050610d9a92500383610d6c565b7fa16a46d94261c7517cc8ff89f61c0ce93598e3c849801011dee649a6a557d1035f5290949092507f5f9ce34815f8e11431c7bb75a8e6886a91478f7ffc1dbb0a98dc240fddd76b75945f935b82851061153057505050610d9a9350015f8080611395565b8654858501529586019588955093810193611518565b93607f1693611495565b906001600160a01b038082169081156116c15760ff7fcd5ed15c6e187e77e9aee88184c21f4f2182ab5827cb3b7e07fbedcd63f0330054166116af57611595856118b8565b923361169f575b8184169283158015611681575b6115b28361100a565b600181540190556115ee836104a48a5f527f80bb2b638cc20bc4d0a60d66940f3ab4a00c1d7b313497ca82fb0b4ab007930260205260405f2090565b8760405192867fddf252ad1be2c89b69c2b068fc378daa952ba7f163c4a11628f55a4df523b3ef5f80a480611678575b611669575061162d9084611994565b83160361163957505050565b6040516364283d7b60e01b81526001600160a01b0392831660048201526024810193909352166044820152606490fd5b6356c4a82960e11b8152600490fd5b50303b1561161e565b61168a886117f5565b6116938661100a565b80545f190190556115a9565b6116aa863386611a57565b61159c565b60405163d93c066560e01b8152600490fd5b604051633250574960e11b81525f6004820152602490fd5b919290926116e8818585611550565b833b6116f45750505050565b611719916020916040519384928392630a85bd0160e11b978885523360048601611858565b03815f6001600160a01b0388165af15f91816117ab575b5061176f578261173e611889565b805191908261176857604051633250574960e11b81526001600160a01b0383166004820152602490fd5b9050602001fd5b6001600160e01b0319160361178857505f8080806110c3565b604051633250574960e11b81526001600160a01b03919091166004820152602490fd5b6117cd91925060203d81116117d4575b6117c58183610d6c565b810190611843565b905f611730565b503d6117bb565b5f525f8051602061254f83398151915260205260405f2090565b6117fe906117db565b80546001600160a01b0319169055565b611817816118b8565b906001600160a01b0382161561182b575090565b60249060405190637e27328960e01b82526004820152fd5b908160209103126101ab575161026c81610199565b6001600160a01b03918216815291166020820152604081019190915260806060820181905261026c9291019061021d565b3d156118b3573d9061189a82610d9c565b916118a86040519384610d6c565b82523d5f602084013e565b606090565b5f8181527f80bb2b638cc20bc4d0a60d66940f3ab4a00c1d7b313497ca82fb0b4ab007930260205260408120549091906001600160a01b03168015801590611984575b8015611971575b61196b5750600881901c82527f24de1071a22e1e6f709b09cc0dadb696f919b85b456665cd36195df4bc89ff016020526040822054600160ff83161b1615611948575090565b61026c91506001600160601b0361195f911661247b565b6001600160a01b031690565b91505090565b506001600160601b038354168210611902565b506001600160601b0382116118fb565b6001600160a01b039081169181908315611a1c575b169081156119df575b610d9a925f525f8051602061250f8339815191526020528060405f205416915f5260405f205416906111ac565b6119e843611e7d565b6001600160d01b0393905f19856119fd61201b565b160194851161066057610d9a94611a1391612156565b505092506119b2565b9050611a2743611e7d565b6001600160d01b039190600183611a3c61201b565b1601928311610660578392611a5091612156565b50506119a9565b6001600160a01b03908282168015159081611ac2575b5015611a795750505050565b16611a9757604051637e27328960e01b815260048101839052602490fd5b60405163177e802f60e01b81526001600160a01b039190911660048201526024810191909152604490fd5b828416811491508115611b02575b8115611ade575b505f611a6d565b9050845f525f8051602061254f8339815191526020528260405f205416145f611ad7565b905060ff611b13856104ed85610fd2565b541690611ad0565b6001600160a01b0381165f9081527f5ab42ced628888259c08ac98db1eb0cf702fc1501344311d8b100cd1bfe4bb006020526040902080546001810190915591829003611b66575050565b6040516301d4b62360e61b81526001600160a01b039190911660048201526024810191909152604490fd5b611b99611c36565b611ba1611ca0565b916040519260208401927f8b73c3c69bb8fe3d512ecc4cf759cc79239f7b179b0ffacaa9a75d522b39400f8452604085015260608401524660808401523060a084015260a0835260c08301918383106001600160401b03841117610d315760429360e291846040528151902061190160f01b855260c282015201522090565b604051611c2c81610d16565b5f8152905f368137565b611c3e611334565b8051908115611c4e576020012090565b50507fa16a46d94261c7517cc8ff89f61c0ce93598e3c849801011dee649a6a557d100548015611c7b5790565b507fc5d2460186f7233c927e7db2dcc703c0e500b653ca82273b7bfad8045d85a47090565b611ca861145c565b8051908115611cb8576020012090565b50507fa16a46d94261c7517cc8ff89f61c0ce93598e3c849801011dee649a6a557d101548015611c7b5790565b8115611cef570490565b634e487b7160e01b5f52601260045260245ffd5b9161026c9391611d1293611d1b565b90929192611dbd565b91906fa2a8918ca85bafe22016d0b997e4df60600160ff1b038411611d9457926020929160ff6080956040519485521684840152604083015260608201525f92839182805260015afa15611d885780516001600160a01b03811615611d7f57918190565b50809160019190565b604051903d90823e3d90fd5b5050505f9160039190565b60041115611da957565b634e487b7160e01b5f52602160045260245ffd5b611dc681611d9f565b80611dcf575050565b611dd881611d9f565b60018103611df25760405163f645eedf60e01b8152600490fd5b611dfb81611d9f565b60028103611e1c5760405163fce698f760e01b815260048101839052602490fd5b80611e28600392611d9f565b14611e305750565b6040516335e2f38360e21b81526004810191909152602490fd5b6001600160d01b0390818111611e5e571690565b604490604051906306dfcc6560e41b825260d060048301526024820152fd5b65ffffffffffff90818111611e90571690565b604490604051906306dfcc6560e41b8252603060048301526024820152fd5b5f1981019190821161066057565b906001820180921161066057565b80156120045780611f9d611f96611f8c611f82611f78611f6e611f64611f5a600161026c9a5f908b60801c80611ff8575b508060401c80611feb575b508060201c80611fde575b508060101c80611fd1575b508060081c80611fc4575b508060041c80611fb7575b508060021c80611faa575b50821c611fa3575b811c1b611f53818b611ce5565b0160011c90565b611f53818a611ce5565b611f538189611ce5565b611f538188611ce5565b611f538187611ce5565b611f538186611ce5565b611f538185611ce5565b8092611ce5565b90612009565b8101611f46565b600291509101905f611f3e565b600491509101905f611f33565b600891509101905f611f28565b601091509101905f611f1d565b602091509101905f611f12565b604091509101905f611f07565b9150506080905f611efc565b505f90565b9080821015612016575090565b905090565b5f8051602061252f83398151915280545f9181612039575050505f90565b5f199282848101116106605760209181522001015460301c90565b80545f9181612039575050505f90565b5f8051602061252f833981519152908154600160401b811015610d3157600181018084558110156120c0575f9283526020928390208251929093015160301b65ffffffffffff191665ffffffffffff9290921691909117910155565b634e487b7160e01b5f52603260045260245ffd5b908154600160401b811015610d3157600181018084558110156120c0575f9283526020928390208251929093015160301b65ffffffffffff191665ffffffffffff9290921691909117910155565b90604051604081018181106001600160401b03821117610d3157604052915465ffffffffffff8116835260301c6020830152565b5f8051602061252f8339815191525491929190811561227d576121b86121b361217e84611eaf565b5f8051602061252f8339815191525f527f88c46c62109817164d0ae1873830d4299a82e5daf552a3d8e989b27638fcf7480190565b612122565b805165ffffffffffff838116949116841061226b578560209361222f956121f36121e8865165ffffffffffff1690565b65ffffffffffff1690565b03612233575061220861217e61222193611eaf565b9065ffffffffffff82549181199060301b169116179055565b01516001600160d01b031690565b9190565b90506122669150612253612245610d8d565b65ffffffffffff9092168252565b6001600160d01b03871681850152612064565b612221565b604051632520601d60e01b8152600490fd5b6122a1915061228d612245610d8d565b6001600160d01b0384166020820152612064565b5f9190565b805492939291908215612360576122cd6121b36122c285611eaf565b835f5260205f200190565b906122de825165ffffffffffff1690565b65ffffffffffff8481169116811061226b5761222f94602094889261230c6121e8875165ffffffffffff1690565b0361232d57506122219261232261220892611eaf565b905f5260205f200190565b9150506122669161234d61233f610d8d565b65ffffffffffff9093168352565b6001600160d01b038816828601526120d4565b6122a1925061237061233f610d8d565b6001600160d01b03851660208301526120d4565b82821061239057505090565b909161239c8184612466565b5f8051602061252f8339815191525f527f88c46c62109817164d0ae1873830d4299a82e5daf552a3d8e989b27638fcf748810154909190829065ffffffffffff90811690851610156123f2575050915b90612384565b600191945080925001809111156123ec576112ec565b905b8383106124175750505090565b9091926124248185612466565b908160205f8681528265ffffffffffff92839220015416908516105f14612450575050925b919061240a565b60019195508092500180911115612449576112ec565b90808216911860011c81018091116106605790565b7f24de1071a22e1e6f709b09cc0dadb696f919b85b456665cd36195df4bc89ff0080545f9281935b8481106124cb5750505f9083145f146124bd575050505f90565b602091815220015460601c90565b6124d58582612466565b90845f526001600160601b03808360205f20015416908416115f14612506575060018101809111156124a3576112ec565b9450936124a356fee8b26c30fad74198956032a3533d903385d56dd795af560196f9c78d4af40d00e8b26c30fad74198956032a3533d903385d56dd795af560196f9c78d4af40d0280bb2b638cc20bc4d0a60d66940f3ab4a00c1d7b313497ca82fb0b4ab0079304dec2bacdd2f05b59de34da9b523dff8be42e5e38e818c82fdb0bae774387a724a264697066735822122096cc2ce24fdc4c24cb20e42f5a0ee6dd8593dc3d455e4a2acaa6fd9dabebeb6b64736f6c6343000814003380bb2b638cc20bc4d0a60d66940f3ab4a00c1d7b313497ca82fb0b4ab007930380bb2b638cc20bc4d0a60d66940f3ab4a00c1d7b313497ca82fb0b4ab0079300a16a46d94261c7517cc8ff89f61c0ce93598e3c849801011dee649a6a557d102a16a46d94261c7517cc8ff89f61c0ce93598e3c849801011dee649a6a557d103e8b26c30fad74198956032a3533d903385d56dd795af560196f9c78d4af40d0224de1071a22e1e6f709b09cc0dadb696f919b85b456665cd36195df4bc89ff00e8b26c30fad74198956032a3533d903385d56dd795af560196f9c78d4af40d01f0c57e16840df040f15088dc2f81fe391c3923bec73e23a9662efc9c229c6a0080bb2b638cc20bc4d0a60d66940f3ab4a00c1d7b313497ca82fb0b4ab0079301dec2bacdd2f05b59de34da9b523dff8be42e5e38e818c82fdb0bae774387a724","linkReferences":{}},"methodIdentifiers":{"CLOCK_MODE()":"4bf5d7e9","approve(address,uint256)":"095ea7b3","balanceOf(address)":"70a08231","clock()":"91ddadf4","delegate(address)":"5c19a95c","delegateBySig(address,uint256,uint256,uint8,bytes32,bytes32)":"c3cda520","delegates(address)":"587cde1e","eip712Domain()":"84b0196e","getApproved(uint256)":"081812fc","getPastTotalSupply(uint256)":"8e539e8c","getPastVotes(address,uint256)":"3a46b1a8","getVotes(address)":"9ab24eb0","isApprovedForAll(address,address)":"e985e9c5","name()":"06fdde03","nonces(address)":"7ecebe00","ownerOf(uint256)":"6352211e","paused()":"5c975abb","safeTransferFrom(address,address,uint256)":"42842e0e","safeTransferFrom(address,address,uint256,bytes)":"b88d4fde","setApprovalForAll(address,bool)":"a22cb465","supportsInterface(bytes4)":"01ffc9a7","symbol()":"95d89b41","tokenURI(uint256)":"c87b56dd","transferFrom(address,address,uint256)":"23b872dd"},"id":105}