{"abi":[{"type":"constructor","inputs":[],"stateMutability":"payable"},{"type":"receive","stateMutability":"payable"},{"type":"function","name":"BALLOT_TYPEHASH","inputs":[],"outputs":[{"name":"","type":"bytes32","internalType":"bytes32"}],"stateMutability":"view"},{"type":"function","name":"CLOCK_MODE","inputs":[],"outputs":[{"name":"","type":"string","internalType":"string"}],"stateMutability":"view"},{"type":"function","name":"COUNTING_MODE","inputs":[],"outputs":[{"name":"","type":"string","internalType":"string"}],"stateMutability":"pure"},{"type":"function","name":"EXTENDED_BALLOT_TYPEHASH","inputs":[],"outputs":[{"name":"","type":"bytes32","internalType":"bytes32"}],"stateMutability":"view"},{"type":"function","name":"accessManager","inputs":[],"outputs":[{"name":"","type":"address","internalType":"contract IAccessManager"}],"stateMutability":"view"},{"type":"function","name":"baseDelaySeconds","inputs":[],"outputs":[{"name":"","type":"uint32","internalType":"uint32"}],"stateMutability":"view"},{"type":"function","name":"cancel","inputs":[{"name":"targets","type":"address[]","internalType":"address[]"},{"name":"values","type":"uint256[]","internalType":"uint256[]"},{"name":"calldatas","type":"bytes[]","internalType":"bytes[]"},{"name":"descriptionHash","type":"bytes32","internalType":"bytes32"}],"outputs":[{"name":"","type":"uint256","internalType":"uint256"}],"stateMutability":"nonpayable"},{"type":"function","name":"castVote","inputs":[{"name":"proposalId","type":"uint256","internalType":"uint256"},{"name":"support","type":"uint8","internalType":"uint8"}],"outputs":[{"name":"","type":"uint256","internalType":"uint256"}],"stateMutability":"nonpayable"},{"type":"function","name":"castVoteBySig","inputs":[{"name":"proposalId","type":"uint256","internalType":"uint256"},{"name":"support","type":"uint8","internalType":"uint8"},{"name":"voter","type":"address","internalType":"address"},{"name":"signature","type":"bytes","internalType":"bytes"}],"outputs":[{"name":"","type":"uint256","internalType":"uint256"}],"stateMutability":"nonpayable"},{"type":"function","name":"castVoteWithReason","inputs":[{"name":"proposalId","type":"uint256","internalType":"uint256"},{"name":"support","type":"uint8","internalType":"uint8"},{"name":"reason","type":"string","internalType":"string"}],"outputs":[{"name":"","type":"uint256","internalType":"uint256"}],"stateMutability":"nonpayable"},{"type":"function","name":"castVoteWithReasonAndParams","inputs":[{"name":"proposalId","type":"uint256","internalType":"uint256"},{"name":"support","type":"uint8","internalType":"uint8"},{"name":"reason","type":"string","internalType":"string"},{"name":"params","type":"bytes","internalType":"bytes"}],"outputs":[{"name":"","type":"uint256","internalType":"uint256"}],"stateMutability":"nonpayable"},{"type":"function","name":"castVoteWithReasonAndParamsBySig","inputs":[{"name":"proposalId","type":"uint256","internalType":"uint256"},{"name":"support","type":"uint8","internalType":"uint8"},{"name":"voter","type":"address","internalType":"address"},{"name":"reason","type":"string","internalType":"string"},{"name":"params","type":"bytes","internalType":"bytes"},{"name":"signature","type":"bytes","internalType":"bytes"}],"outputs":[{"name":"","type":"uint256","internalType":"uint256"}],"stateMutability":"nonpayable"},{"type":"function","name":"clock","inputs":[],"outputs":[{"name":"","type":"uint48","internalType":"uint48"}],"stateMutability":"view"},{"type":"function","name":"eip712Domain","inputs":[],"outputs":[{"name":"fields","type":"bytes1","internalType":"bytes1"},{"name":"name","type":"string","internalType":"string"},{"name":"version","type":"string","internalType":"string"},{"name":"chainId","type":"uint256","internalType":"uint256"},{"name":"verifyingContract","type":"address","internalType":"address"},{"name":"salt","type":"bytes32","internalType":"bytes32"},{"name":"extensions","type":"uint256[]","internalType":"uint256[]"}],"stateMutability":"view"},{"type":"function","name":"execute","inputs":[{"name":"targets","type":"address[]","internalType":"address[]"},{"name":"values","type":"uint256[]","internalType":"uint256[]"},{"name":"calldatas","type":"bytes[]","internalType":"bytes[]"},{"name":"descriptionHash","type":"bytes32","internalType":"bytes32"}],"outputs":[{"name":"","type":"uint256","internalType":"uint256"}],"stateMutability":"payable"},{"type":"function","name":"getVotes","inputs":[{"name":"account","type":"address","internalType":"address"},{"name":"timepoint","type":"uint256","internalType":"uint256"}],"outputs":[{"name":"","type":"uint256","internalType":"uint256"}],"stateMutability":"view"},{"type":"function","name":"getVotesWithParams","inputs":[{"name":"account","type":"address","internalType":"address"},{"name":"timepoint","type":"uint256","internalType":"uint256"},{"name":"params","type":"bytes","internalType":"bytes"}],"outputs":[{"name":"","type":"uint256","internalType":"uint256"}],"stateMutability":"view"},{"type":"function","name":"hasVoted","inputs":[{"name":"proposalId","type":"uint256","internalType":"uint256"},{"name":"account","type":"address","internalType":"address"}],"outputs":[{"name":"","type":"bool","internalType":"bool"}],"stateMutability":"view"},{"type":"function","name":"hashProposal","inputs":[{"name":"targets","type":"address[]","internalType":"address[]"},{"name":"values","type":"uint256[]","internalType":"uint256[]"},{"name":"calldatas","type":"bytes[]","internalType":"bytes[]"},{"name":"descriptionHash","type":"bytes32","internalType":"bytes32"}],"outputs":[{"name":"","type":"uint256","internalType":"uint256"}],"stateMutability":"pure"},{"type":"function","name":"isAccessManagerIgnored","inputs":[{"name":"target","type":"address","internalType":"address"},{"name":"selector","type":"bytes4","internalType":"bytes4"}],"outputs":[{"name":"","type":"bool","internalType":"bool"}],"stateMutability":"view"},{"type":"function","name":"name","inputs":[],"outputs":[{"name":"","type":"string","internalType":"string"}],"stateMutability":"view"},{"type":"function","name":"nonGovernanceFunction","inputs":[],"outputs":[],"stateMutability":"nonpayable"},{"type":"function","name":"nonces","inputs":[{"name":"owner","type":"address","internalType":"address"}],"outputs":[{"name":"","type":"uint256","internalType":"uint256"}],"stateMutability":"view"},{"type":"function","name":"onERC1155BatchReceived","inputs":[{"name":"","type":"address","internalType":"address"},{"name":"","type":"address","internalType":"address"},{"name":"","type":"uint256[]","internalType":"uint256[]"},{"name":"","type":"uint256[]","internalType":"uint256[]"},{"name":"","type":"bytes","internalType":"bytes"}],"outputs":[{"name":"","type":"bytes4","internalType":"bytes4"}],"stateMutability":"nonpayable"},{"type":"function","name":"onERC1155Received","inputs":[{"name":"","type":"address","internalType":"address"},{"name":"","type":"address","internalType":"address"},{"name":"","type":"uint256","internalType":"uint256"},{"name":"","type":"uint256","internalType":"uint256"},{"name":"","type":"bytes","internalType":"bytes"}],"outputs":[{"name":"","type":"bytes4","internalType":"bytes4"}],"stateMutability":"nonpayable"},{"type":"function","name":"onERC721Received","inputs":[{"name":"","type":"address","internalType":"address"},{"name":"","type":"address","internalType":"address"},{"name":"","type":"uint256","internalType":"uint256"},{"name":"","type":"bytes","internalType":"bytes"}],"outputs":[{"name":"","type":"bytes4","internalType":"bytes4"}],"stateMutability":"nonpayable"},{"type":"function","name":"proposalDeadline","inputs":[{"name":"proposalId","type":"uint256","internalType":"uint256"}],"outputs":[{"name":"","type":"uint256","internalType":"uint256"}],"stateMutability":"view"},{"type":"function","name":"proposalEta","inputs":[{"name":"proposalId","type":"uint256","internalType":"uint256"}],"outputs":[{"name":"","type":"uint256","internalType":"uint256"}],"stateMutability":"view"},{"type":"function","name":"proposalExecutionPlan","inputs":[{"name":"proposalId","type":"uint256","internalType":"uint256"}],"outputs":[{"name":"delay","type":"uint32","internalType":"uint32"},{"name":"indirect","type":"bool[]","internalType":"bool[]"},{"name":"withDelay","type":"bool[]","internalType":"bool[]"}],"stateMutability":"view"},{"type":"function","name":"proposalNeedsQueuing","inputs":[{"name":"proposalId","type":"uint256","internalType":"uint256"}],"outputs":[{"name":"","type":"bool","internalType":"bool"}],"stateMutability":"view"},{"type":"function","name":"proposalProposer","inputs":[{"name":"proposalId","type":"uint256","internalType":"uint256"}],"outputs":[{"name":"","type":"address","internalType":"address"}],"stateMutability":"view"},{"type":"function","name":"proposalSnapshot","inputs":[{"name":"proposalId","type":"uint256","internalType":"uint256"}],"outputs":[{"name":"","type":"uint256","internalType":"uint256"}],"stateMutability":"view"},{"type":"function","name":"proposalThreshold","inputs":[],"outputs":[{"name":"","type":"uint256","internalType":"uint256"}],"stateMutability":"view"},{"type":"function","name":"proposalVotes","inputs":[{"name":"proposalId","type":"uint256","internalType":"uint256"}],"outputs":[{"name":"againstVotes","type":"uint256","internalType":"uint256"},{"name":"forVotes","type":"uint256","internalType":"uint256"},{"name":"abstainVotes","type":"uint256","internalType":"uint256"}],"stateMutability":"view"},{"type":"function","name":"propose","inputs":[{"name":"targets","type":"address[]","internalType":"address[]"},{"name":"values","type":"uint256[]","internalType":"uint256[]"},{"name":"calldatas","type":"bytes[]","internalType":"bytes[]"},{"name":"description","type":"string","internalType":"string"}],"outputs":[{"name":"","type":"uint256","internalType":"uint256"}],"stateMutability":"nonpayable"},{"type":"function","name":"queue","inputs":[{"name":"targets","type":"address[]","internalType":"address[]"},{"name":"values","type":"uint256[]","internalType":"uint256[]"},{"name":"calldatas","type":"bytes[]","internalType":"bytes[]"},{"name":"descriptionHash","type":"bytes32","internalType":"bytes32"}],"outputs":[{"name":"","type":"uint256","internalType":"uint256"}],"stateMutability":"nonpayable"},{"type":"function","name":"quorum","inputs":[{"name":"blockNumber","type":"uint256","internalType":"uint256"}],"outputs":[{"name":"","type":"uint256","internalType":"uint256"}],"stateMutability":"view"},{"type":"function","name":"quorumDenominator","inputs":[],"outputs":[{"name":"","type":"uint256","internalType":"uint256"}],"stateMutability":"view"},{"type":"function","name":"quorumNumerator","inputs":[{"name":"timepoint","type":"uint256","internalType":"uint256"}],"outputs":[{"name":"","type":"uint256","internalType":"uint256"}],"stateMutability":"view"},{"type":"function","name":"quorumNumerator","inputs":[],"outputs":[{"name":"","type":"uint256","internalType":"uint256"}],"stateMutability":"view"},{"type":"function","name":"relay","inputs":[{"name":"target","type":"address","internalType":"address"},{"name":"value","type":"uint256","internalType":"uint256"},{"name":"data","type":"bytes","internalType":"bytes"}],"outputs":[],"stateMutability":"payable"},{"type":"function","name":"setAccessManagerIgnored","inputs":[{"name":"target","type":"address","internalType":"address"},{"name":"selectors","type":"bytes4[]","internalType":"bytes4[]"},{"name":"ignored","type":"bool","internalType":"bool"}],"outputs":[],"stateMutability":"nonpayable"},{"type":"function","name":"setBaseDelaySeconds","inputs":[{"name":"newBaseDelay","type":"uint32","internalType":"uint32"}],"outputs":[],"stateMutability":"nonpayable"},{"type":"function","name":"setProposalThreshold","inputs":[{"name":"newProposalThreshold","type":"uint256","internalType":"uint256"}],"outputs":[],"stateMutability":"nonpayable"},{"type":"function","name":"setVotingDelay","inputs":[{"name":"newVotingDelay","type":"uint48","internalType":"uint48"}],"outputs":[],"stateMutability":"nonpayable"},{"type":"function","name":"setVotingPeriod","inputs":[{"name":"newVotingPeriod","type":"uint32","internalType":"uint32"}],"outputs":[],"stateMutability":"nonpayable"},{"type":"function","name":"state","inputs":[{"name":"proposalId","type":"uint256","internalType":"uint256"}],"outputs":[{"name":"","type":"uint8","internalType":"enum IGovernor.ProposalState"}],"stateMutability":"view"},{"type":"function","name":"supportsInterface","inputs":[{"name":"interfaceId","type":"bytes4","internalType":"bytes4"}],"outputs":[{"name":"","type":"bool","internalType":"bool"}],"stateMutability":"view"},{"type":"function","name":"token","inputs":[],"outputs":[{"name":"","type":"address","internalType":"contract IERC5805"}],"stateMutability":"view"},{"type":"function","name":"updateQuorumNumerator","inputs":[{"name":"newQuorumNumerator","type":"uint256","internalType":"uint256"}],"outputs":[],"stateMutability":"nonpayable"},{"type":"function","name":"version","inputs":[],"outputs":[{"name":"","type":"string","internalType":"string"}],"stateMutability":"view"},{"type":"function","name":"votingDelay","inputs":[],"outputs":[{"name":"","type":"uint256","internalType":"uint256"}],"stateMutability":"view"},{"type":"function","name":"votingPeriod","inputs":[],"outputs":[{"name":"","type":"uint256","internalType":"uint256"}],"stateMutability":"view"},{"type":"event","name":"AccessManagerIgnoredSet","inputs":[{"name":"target","type":"address","indexed":false,"internalType":"address"},{"name":"selector","type":"bytes4","indexed":false,"internalType":"bytes4"},{"name":"ignored","type":"bool","indexed":false,"internalType":"bool"}],"anonymous":false},{"type":"event","name":"BaseDelaySet","inputs":[{"name":"oldBaseDelaySeconds","type":"uint32","indexed":false,"internalType":"uint32"},{"name":"newBaseDelaySeconds","type":"uint32","indexed":false,"internalType":"uint32"}],"anonymous":false},{"type":"event","name":"EIP712DomainChanged","inputs":[],"anonymous":false},{"type":"event","name":"Initialized","inputs":[{"name":"version","type":"uint64","indexed":false,"internalType":"uint64"}],"anonymous":false},{"type":"event","name":"ProposalCanceled","inputs":[{"name":"proposalId","type":"uint256","indexed":false,"internalType":"uint256"}],"anonymous":false},{"type":"event","name":"ProposalCreated","inputs":[{"name":"proposalId","type":"uint256","indexed":false,"internalType":"uint256"},{"name":"proposer","type":"address","indexed":false,"internalType":"address"},{"name":"targets","type":"address[]","indexed":false,"internalType":"address[]"},{"name":"values","type":"uint256[]","indexed":false,"internalType":"uint256[]"},{"name":"signatures","type":"string[]","indexed":false,"internalType":"string[]"},{"name":"calldatas","type":"bytes[]","indexed":false,"internalType":"bytes[]"},{"name":"voteStart","type":"uint256","indexed":false,"internalType":"uint256"},{"name":"voteEnd","type":"uint256","indexed":false,"internalType":"uint256"},{"name":"description","type":"string","indexed":false,"internalType":"string"}],"anonymous":false},{"type":"event","name":"ProposalExecuted","inputs":[{"name":"proposalId","type":"uint256","indexed":false,"internalType":"uint256"}],"anonymous":false},{"type":"event","name":"ProposalQueued","inputs":[{"name":"proposalId","type":"uint256","indexed":false,"internalType":"uint256"},{"name":"etaSeconds","type":"uint256","indexed":false,"internalType":"uint256"}],"anonymous":false},{"type":"event","name":"ProposalThresholdSet","inputs":[{"name":"oldProposalThreshold","type":"uint256","indexed":false,"internalType":"uint256"},{"name":"newProposalThreshold","type":"uint256","indexed":false,"internalType":"uint256"}],"anonymous":false},{"type":"event","name":"QuorumNumeratorUpdated","inputs":[{"name":"oldQuorumNumerator","type":"uint256","indexed":false,"internalType":"uint256"},{"name":"newQuorumNumerator","type":"uint256","indexed":false,"internalType":"uint256"}],"anonymous":false},{"type":"event","name":"VoteCast","inputs":[{"name":"voter","type":"address","indexed":true,"internalType":"address"},{"name":"proposalId","type":"uint256","indexed":false,"internalType":"uint256"},{"name":"support","type":"uint8","indexed":false,"internalType":"uint8"},{"name":"weight","type":"uint256","indexed":false,"internalType":"uint256"},{"name":"reason","type":"string","indexed":false,"internalType":"string"}],"anonymous":false},{"type":"event","name":"VoteCastWithParams","inputs":[{"name":"voter","type":"address","indexed":true,"internalType":"address"},{"name":"proposalId","type":"uint256","indexed":false,"internalType":"uint256"},{"name":"support","type":"uint8","indexed":false,"internalType":"uint8"},{"name":"weight","type":"uint256","indexed":false,"internalType":"uint256"},{"name":"reason","type":"string","indexed":false,"internalType":"string"},{"name":"params","type":"bytes","indexed":false,"internalType":"bytes"}],"anonymous":false},{"type":"event","name":"VotingDelaySet","inputs":[{"name":"oldVotingDelay","type":"uint256","indexed":false,"internalType":"uint256"},{"name":"newVotingDelay","type":"uint256","indexed":false,"internalType":"uint256"}],"anonymous":false},{"type":"event","name":"VotingPeriodSet","inputs":[{"name":"oldVotingPeriod","type":"uint256","indexed":false,"internalType":"uint256"},{"name":"newVotingPeriod","type":"uint256","indexed":false,"internalType":"uint256"}],"anonymous":false},{"type":"error","name":"CheckpointUnorderedInsertion","inputs":[]},{"type":"error","name":"FailedInnerCall","inputs":[]},{"type":"error","name":"GovernorAlreadyCastVote","inputs":[{"name":"voter","type":"address","internalType":"address"}]},{"type":"error","name":"GovernorAlreadyQueuedProposal","inputs":[{"name":"proposalId","type":"uint256","internalType":"uint256"}]},{"type":"error","name":"GovernorDisabledDeposit","inputs":[]},{"type":"error","name":"GovernorInsufficientProposerVotes","inputs":[{"name":"proposer","type":"address","internalType":"address"},{"name":"votes","type":"uint256","internalType":"uint256"},{"name":"threshold","type":"uint256","internalType":"uint256"}]},{"type":"error","name":"GovernorInvalidProposalLength","inputs":[{"name":"targets","type":"uint256","internalType":"uint256"},{"name":"calldatas","type":"uint256","internalType":"uint256"},{"name":"values","type":"uint256","internalType":"uint256"}]},{"type":"error","name":"GovernorInvalidQuorumFraction","inputs":[{"name":"quorumNumerator","type":"uint256","internalType":"uint256"},{"name":"quorumDenominator","type":"uint256","internalType":"uint256"}]},{"type":"error","name":"GovernorInvalidSignature","inputs":[{"name":"voter","type":"address","internalType":"address"}]},{"type":"error","name":"GovernorInvalidVoteType","inputs":[]},{"type":"error","name":"GovernorInvalidVotingPeriod","inputs":[{"name":"votingPeriod","type":"uint256","internalType":"uint256"}]},{"type":"error","name":"GovernorLockedIgnore","inputs":[]},{"type":"error","name":"GovernorMismatchedNonce","inputs":[{"name":"proposalId","type":"uint256","internalType":"uint256"},{"name":"expectedNonce","type":"uint256","internalType":"uint256"},{"name":"actualNonce","type":"uint256","internalType":"uint256"}]},{"type":"error","name":"GovernorNonexistentProposal","inputs":[{"name":"proposalId","type":"uint256","internalType":"uint256"}]},{"type":"error","name":"GovernorNotQueuedProposal","inputs":[{"name":"proposalId","type":"uint256","internalType":"uint256"}]},{"type":"error","name":"GovernorOnlyExecutor","inputs":[{"name":"account","type":"address","internalType":"address"}]},{"type":"error","name":"GovernorOnlyProposer","inputs":[{"name":"account","type":"address","internalType":"address"}]},{"type":"error","name":"GovernorQueueNotImplemented","inputs":[]},{"type":"error","name":"GovernorRestrictedProposer","inputs":[{"name":"proposer","type":"address","internalType":"address"}]},{"type":"error","name":"GovernorUnexpectedProposalState","inputs":[{"name":"proposalId","type":"uint256","internalType":"uint256"},{"name":"current","type":"uint8","internalType":"enum IGovernor.ProposalState"},{"name":"expectedStates","type":"bytes32","internalType":"bytes32"}]},{"type":"error","name":"GovernorUnmetDelay","inputs":[{"name":"proposalId","type":"uint256","internalType":"uint256"},{"name":"neededTimestamp","type":"uint256","internalType":"uint256"}]},{"type":"error","name":"InvalidAccountNonce","inputs":[{"name":"account","type":"address","internalType":"address"},{"name":"currentNonce","type":"uint256","internalType":"uint256"}]},{"type":"error","name":"InvalidInitialization","inputs":[]},{"type":"error","name":"NotInitializing","inputs":[]},{"type":"error","name":"QueueEmpty","inputs":[]},{"type":"error","name":"QueueFull","inputs":[]},{"type":"error","name":"SafeCastOverflowedUintDowncast","inputs":[{"name":"bits","type":"uint8","internalType":"uint8"},{"name":"value","type":"uint256","internalType":"uint256"}]}],"bytecode":{"object":"0x608060408181527ff0c57e16840df040f15088dc2f81fe391c3923bec73e23a9662efc9c229c6a0080549192909180841c60ff1615916001600160401b0382168015908162000133575b600114908162000128575b1590816200011e575b506200010f57506001600160401b03198116600117835581620000f1575b5081549060ff82851c1615620000e057620000a0575b825161452d90816200013d8239f35b68ff0000000000000000191690557fc7f505b2f371ae2175ee4913f4499e1f2633a7b5936321eed1cdaeb6115181d26020825160018152a15f8062000091565b8351631afcd79f60e31b8152600490fd5b6001600160481b031916680100000000000000011782555f6200007b565b63f92ee8a960e01b8152600490fd5b9050155f6200005d565b303b15915062000054565b8491506200004956fe6080604052600436101561001a575b3615610018575f80fd5b005b5f3560e01c806301ffc9a71461036957806302a251a31461036457806306f3f9e61461035f57806306fdde031461035a5780630a2a550d14610355578063143489d014610350578063150b7a021461034b578063160cbed7146103465780632656227d146103415780632d63f6931461033c5780632fe3e2611461033757806336369547146103325780633932abb11461032d5780633e4f49e614610328578063417491db14610323578063438596321461031e578063452115d6146103195780634bf5d7e914610314578063544ffc9c1461030f57806354fd4d501461030a578063567813881461030557806357552fcb146103005780635b8d0e0d146102fb5780635f398a14146102f657806360c4247f146102f157806379051887146102ec5780637b3c71d3146102e75780637d5e81e2146102e25780637ecebe00146102dd57806382e49386146102d857806384b0196e146102d35780638ff262e3146102ce57806391ddadf4146102c957806397c3d334146102c45780639a802a6d146102bf578063a7713a70146102ba578063a9a95294146102b5578063ab58fb8e146102b0578063b58131b0146102ab578063bc197c81146102a6578063c01f9e37146102a1578063c28bc2fa1461029c578063c59057e414610297578063cc3bac5714610292578063dd4e2ba51461028d578063deaaa7cc14610288578063e540d01d14610283578063eb9019d41461027e578063ece40cc114610279578063f23a6e6114610274578063f8ce560a1461026f578063fc0c546a1461026a5763fdcb60680361000e57611ee8565b611eb4565b611e0b565b611db6565b611d56565b611ccc565b611c1b565b611be1565b611b84565b611b19565b611af3565b611a8c565b611a6e565b6119e6565b6119bd565b61197c565b61193b565b611910565b611845565b61182a565b611800565b611701565b611631565b611565565b61150e565b611475565b611420565b6113a0565b611372565b611303565b61127f565b611223565b6111d5565b611184565b61112d565b6110fe565b611031565b610fd4565b610fc2565b610f95565b610f43565b610ea2565b610e02565b610dc1565b610cf3565b610aef565b6108d5565b610718565b61069c565b610546565b610424565b6103f2565b610384565b6001600160e01b031981160361038057565b5f80fd5b346103805760203660031901126103805760206004356103a38161036e565b63ffffffff60e01b166332a2ad4360e11b81149081156103e1575b81156103d0575b506040519015158152f35b6301ffc9a760e01b1490505f6103c5565b630271189760e51b811491506103be565b34610380575f36600319011261038057602063ffffffff5f805160206144188339815191525460301c16604051908152f35b34610380576020366003190112610380576004356104406126ae565b606481116104cd576001600160d01b03908161045a614175565b16610463612ca4565b928083116104ad577f0553476bf02ef2726e8ce5ced78d63e26e602e4a2257b1f559418e24b46339979361049991841690614262565b5050604080519182526020820192909252a1005b6040516306dfcc6560e41b815260d0600482015260248101849052604490fd5b6044906040519063243e544560e01b8252600482015260646024820152fd5b5f5b8381106104fd5750505f910152565b81810151838201526020016104ee565b90602091610526815180928185528580860191016104ec565b601f01601f1916010190565b90602061054392818152019061050d565b90565b34610380575f8060031936011261068b5760405190807f7c712897014dbe49c045ef1299aa2d5f9e67e48eea4403efa21f1e0f3ac0cb00549060019180831c92808216928315610681575b602092838610851461066d57858852602088019490811561064c57506001146105d5575b6105d1876105c581890382610839565b60405191829182610532565b0390f35b7f7c712897014dbe49c045ef1299aa2d5f9e67e48eea4403efa21f1e0f3ac0cb005f5294509192917fda13dda7583a39a3cd73e8830529c760837228fa4683752c823b17e10548aad55b83861061063b57505050910190506105c5826105d15f806105b5565b80548587015294820194810161061f565b60ff191685525050505090151560051b0190506105c5826105d15f806105b5565b634e487b7160e01b82526022600452602482fd5b93607f1693610591565b80fd5b63ffffffff81160361038057565b34610380576020366003190112610380576004356106b98161068e565b6106c16126ae565b5f805160206144788339815191529081547f65135e4d9e214a272631f85c3ab68685271bccecf1ad1336709c14e139b3328d604080519363ffffffff9081851686521693846020820152a163ffffffff1916179055005b34610380576020366003190112610380576004355f525f805160206143f8833981519152602052602060018060a01b0360405f205416604051908152f35b600435906001600160a01b038216820361038057565b602435906001600160a01b038216820361038057565b604435906001600160a01b038216820361038057565b634e487b7160e01b5f52604160045260245ffd5b604081019081106001600160401b038211176107c757604052565b610798565b602081019081106001600160401b038211176107c757604052565b60c081019081106001600160401b038211176107c757604052565b61010081019081106001600160401b038211176107c757604052565b60a081019081106001600160401b038211176107c757604052565b90601f801991011681019081106001600160401b038211176107c757604052565b60405190610867826107ac565b565b6001600160401b0381116107c757601f01601f191660200190565b92919261089082610869565b9161089e6040519384610839565b829481845281830111610380578281602093845f960137010152565b9080601f830112156103805781602061054393359101610884565b34610380576080366003190112610380576108ee610756565b506108f761076c565b506064356001600160401b038111610380576109179036906004016108ba565b50604051630a85bd0160e11b8152602090f35b6001600160401b0381116107c75760051b60200190565b81601f82011215610380578035916109588361092a565b926109666040519485610839565b808452602092838086019260051b820101928311610380578301905b828210610990575050505090565b81356001600160a01b0381168103610380578152908301908301610982565b81601f82011215610380578035916109c68361092a565b926109d46040519485610839565b808452602092838086019260051b820101928311610380578301905b8282106109fe575050505090565b813581529083019083016109f0565b9080601f8301121561038057813590610a258261092a565b92610a336040519485610839565b828452602092838086019160051b8301019280841161038057848301915b848310610a615750505050505090565b82356001600160401b038111610380578691610a82848480948901016108ba565b815201920191610a51565b6080600319820112610380576001600160401b03916004358381116103805782610ab991600401610941565b926024358181116103805783610ad1916004016109af565b9260443591821161038057610ae891600401610a0d565b9060643590565b3461038057610b0a610b0036610a8d565b90809492846121da565b90610b14826126ee565b50610b1e8261223e565b610b49610b2a42613f9a565b8254610b439060101c63ffffffff165b63ffffffff1690565b9061239d565b5f92835b8151811015610c4e57610b608185612b05565b509050610b76575b610b71906123f3565b610b4d565b5f8051602061447883398151915254610bf191908690610ba99060201c6001600160a01b03165b6001600160a01b031690565b85610bc4610bb78588612415565b516001600160a01b031690565b91610bcf858d612415565b516040948594855198899586948593631f0034d360e31b855260048501613638565b03925af18015610c4957610b7193610c13928992610c1a575b5050828761357e565b9050610b68565b610c399250803d10610c42575b610c318183610839565b81019061361c565b90505f80610c0a565b503d610c27565b612c99565b828665ffffffffffff821615610ce1577f9a2e42fd6722813d69113e7d0079d3d940171428df7373df9c7f7617cfda2892610cce83610caf6105d1956001610c9587612258565b019065ffffffffffff1665ffffffffffff19825416179055565b6040805185815265ffffffffffff909216602083015290918291820190565b0390a16040519081529081906020820190565b604051634844252360e11b8152600490fd5b610d0b610cff36610a8d565b818385969394956121da565b91610d1583612272565b936008851015610dbc576030600160ff87161b1615610d8f5791610d5d918493610d57610d446105d197612258565b805460ff60f01b1916600160f01b179055565b846136a3565b6040518181527f712ae1383f79ac853f8d882153778e0260ef8f03b504e2866e0593e04d2b291f908060208101610cce565b6040516331b75e4d60e01b815260048101859052606490610db36024820188610f88565b60306044820152fd5b610f74565b34610380576020366003190112610380576004355f525f805160206143f8833981519152602052602065ffffffffffff60405f205460a01c16604051908152f35b34610380575f3660031901126103805760206040517f3e83946653575f9a39005e1545185629e92736b7528ab20ca3816f315424a8118152f35b9081518082526020808093019301915f5b828110610e5b575050505090565b8351151585529381019392810192600101610e4d565b91610e949063ffffffff6105439593168452606060208501526060840190610e3c565b916040818403910152610e3c565b34610380576020366003190112610380576004355f525f8051602061445883398151915260205260405f20805461ffff811691610ede83612ab7565b92610ee881612ab7565b915f5b828110610f0c57604051806105d1868960108a901c63ffffffff1684610e71565b80610f1a610f3e9284612b05565b50610f258388612415565b9015159052610f348289612415565b90151590526123f3565b610eeb565b34610380575f36600319011261038057602065ffffffffffff5f805160206144188339815191525416604051908152f35b634e487b7160e01b5f52602160045260245ffd5b906008821015610dbc5752565b34610380576020366003190112610380576020610fb3600435612272565b610fc06040518092610f88565bf35b34610380575f36600319011261038057005b3461038057604036600319011261038057602060ff611025610ff461076c565b6004355f525f805160206144d88339815191528452600360405f20019060018060a01b03165f5260205260405f2090565b54166040519015158152f35b346103805761103f36610a8d565b9061104e8282858796976121da565b61105781612272565b6008811015610dbc5760018060ff83161b16156110d157505f9081525f805160206143f883398151915260205260409020546001600160a01b031633036110b5576105d1936110a5936138b7565b6040519081529081906020820190565b60405163233d98e360e01b8152336004820152602490fd5b0390fd5b906110f5606492604051926331b75e4d60e01b845260048401526024830190610f88565b60016044820152fd5b34610380575f366003190112610380576105d1611119612d62565b60405191829160208352602083019061050d565b34610380576020366003190112610380576004355f525f805160206144d883398151915260205260405f2080546105d160026001840154930154604051938493846040919493926060820195825260208201520152565b34610380575f366003190112610380576105d16040516111a3816107ac565b60018152603160f81b602082015260405191829160208352602083019061050d565b6024359060ff8216820361038057565b3461038057604036600319011261038057602061121b6111f36111c5565b6040516111ff816107cc565b5f81526040519161120f836107cc565b5f835233600435612583565b604051908152f35b34610380575f36600319011261038057602063ffffffff5f805160206144788339815191525416604051908152f35b9181601f84011215610380578235916001600160401b038311610380576020838186019501011161038057565b346103805760c0366003190112610380576112986111c5565b6112a0610782565b906001600160401b0390606435828111610380576112c2903690600401611252565b608435848111610380576112da9036906004016108ba565b9160a435948511610380576105d1956112fa6110a59636906004016108ba565b9460043561242e565b346103805760803660031901126103805761131c6111c5565b6001600160401b03906044358281116103805761133d903690600401611252565b90916064359384116103805761136861121b9361136060209636906004016108ba565b933691610884565b9033600435612583565b3461038057602036600319011261038057602061121b600435612b76565b65ffffffffffff81160361038057565b34610380576020366003190112610380576004356113bd81611390565b6113c56126ae565b5f805160206144188339815191529081547fc565b045403dc03c2eea82b81a0465edad9e2e7fc4d97e11421c209da93d7a93604080519365ffffffffffff9081851686521693846020820152a165ffffffffffff1916179055005b34610380576060366003190112610380576114396111c5565b6044356001600160401b0381116103805760209161146861146161121b933690600401611252565b3691610884565b6040519161120f836107cc565b34610380576080366003190112610380576001600160401b03600435818111610380576114a6903690600401610941565b90602435818111610380576114bf9036906004016109af565b91604435828111610380576114d8903690600401610a0d565b6064359283116103805736602384011215610380576105d1936115086110a5943690602481600401359101610884565b92612efc565b34610380576020366003190112610380576001600160a01b0361152f610756565b165f527f5ab42ced628888259c08ac98db1eb0cf702fc1501344311d8b100cd1bfe4bb00602052602060405f2054604051908152f35b34610380576040366003190112610380576020611595611583610756565b602435906115908261036e565b612924565b6040519015158152f35b9081518082526020808093019301915f5b8281106115be575050505090565b8351855293810193928101926001016115b0565b91611607906115f961054397959693600f60f81b865260e0602087015260e086019061050d565b90848203604086015261050d565b60608301949094526001600160a01b031660808201525f60a082015280830360c09091015261159f565b34610380575f366003190112610380577fa16a46d94261c7517cc8ff89f61c0ce93598e3c849801011dee649a6a557d1005415806116d8575b1561169b57611677611f1c565b61167f612044565b906105d161168b613c16565b60405193849330914691866115d2565b60405162461bcd60e51b81526020600482015260156024820152741152540dcc4c8e88155b9a5b9a5d1a585b1a5e9959605a1b6044820152606490fd5b507fa16a46d94261c7517cc8ff89f61c0ce93598e3c849801011dee649a6a557d101541561166a565b346103805760803660031901126103805760043561171d6111c5565b90611726610782565b916064356001600160401b038111610380576117c061174c6117c49236906004016108ba565b6117ba61175887613b55565b60405160208101917ff2aad550cf55f045cb27e9c559f9889fdfb6e6cdaa032301d6ea397784ae51d7835288604083015260ff8816606083015260018060a01b038a16608083015260a082015260a081526117b2816107e7565b519020613b96565b86613dff565b1590565b6117df57906110a5916105d1936117d9612138565b92612508565b6040516394ab6c0760e01b81526001600160a01b0384166004820152602490fd5b34610380575f36600319011261038057602061181a612ca4565b65ffffffffffff60405191168152f35b34610380575f36600319011261038057602060405160648152f35b346103805760603660031901126103805761185e610756565b6044356001600160401b0381116103805761187d9036906004016108ba565b505f8051602061449883398151915254604051630748d63560e31b81526001600160a01b03928316600482015260248035908201529160209183916044918391165afa8015610c49576105d1915f916118e2575b506040519081529081906020820190565b611903915060203d8111611909575b6118fb8183610839565b810190612e34565b5f6118d1565b503d6118f1565b34610380575f3660031901126103805760206001600160d01b03611932614175565b16604051908152f35b34610380576020366003190112610380576004355f525f80516020614458833981519152602052602063ffffffff60405f205460101c161515604051908152f35b34610380576020366003190112610380576004355f525f805160206143f8833981519152602052602065ffffffffffff600160405f20015416604051908152f35b34610380575f3660031901126103805760205f805160206144b883398151915254604051908152f35b346103805760a0366003190112610380576119ff610756565b50611a0861076c565b506001600160401b0360443581811161038057611a299036906004016109af565b5060643581811161038057611a429036906004016109af565b5060843590811161038057611a5b9036906004016108ba565b5060405163bc197c8160e01b8152602090f35b3461038057602036600319011261038057602061121b6004356123b7565b606036600319011261038057611aa0610756565b604435906001600160401b038211610380575f8091611ac6610018943690600401611252565b90611acf6126ae565b81604051928392833781018481520391602435905af1611aed61267f565b90613dd6565b3461038057602061121b611b0636610a8d565b929190916121da565b8015150361038057565b3461038057606036600319011261038057611b32610756565b6024356001600160401b038082116103805736602383011215610380578160040135908111610380573660248260051b840101116103805761001892602460443593611b7d85611b0f565b019061297f565b34610380575f366003190112610380576105d1604051611ba3816107ac565b602081527f737570706f72743d627261766f2671756f72756d3d666f722c6162737461696e602082015260405191829160208352602083019061050d565b34610380575f3660031901126103805760206040517ff2aad550cf55f045cb27e9c559f9889fdfb6e6cdaa032301d6ea397784ae51d78152f35b3461038057602036600319011261038057600435611c388161068e565b611c406126ae565b63ffffffff90818116908115611cb45763ffffffff60301b907f7e3f7f0708a84de9203036abaa450dccc85ad5ff52f78c170f3edb55cf5e882860405f80516020614418833981519152958654958251918760301c1682526020820152a160301b169063ffffffff60301b19161790555f80f35b60405163f1cfbf0560e01b81525f6004820152602490fd5b3461038057604036600319011261038057611ce5610756565b5f604051611cf2816107cc565b525f8051602061449883398151915254604051630748d63560e31b81526001600160a01b03928316600482015260248035908201529160209183916044918391165afa8015610c49576105d1915f916118e257506040519081529081906020820190565b3461038057602036600319011261038057600435611d726126ae565b5f805160206144b8833981519152805460408051918252602082018490527fccb45da8d5717e6c4544694297c4ba5cf151d455c9bb0ed4fc7a38411bc0546191a155005b346103805760a036600319011261038057611dcf610756565b50611dd861076c565b506084356001600160401b03811161038057611df89036906004016108ba565b5060405163f23a6e6160e01b8152602090f35b34610380576020366003190112610380576024600435602060018060a01b035f80516020614498833981519152541660405193848092632394e7a360e21b82528560048301525afa918215610c49575f92611e90575b50611e6b90612b76565b90818102918183041490151715611e8b5760405160649091048152602090f35b612389565b611e6b919250611ead9060203d8111611909576118fb8183610839565b9190611e61565b34610380575f366003190112610380575f80516020614498833981519152546040516001600160a01b039091168152602090f35b34610380575f366003190112610380575f8051602061447883398151915254604051602091821c6001600160a01b03168152f35b604051905f7fa16a46d94261c7517cc8ff89f61c0ce93598e3c849801011dee649a6a557d1025490600182811c9281811691821561203a575b6020918286108414612026578588528794936020860193929181156120075750600114611f8c575b50505061086792500383610839565b7fa16a46d94261c7517cc8ff89f61c0ce93598e3c849801011dee649a6a557d1025f5290949092507f42ad5d3e1f2e6e70edcf6d991b8a3023d3fca8047a131592f9edb9fd9b89d57d945f935b828510611ff1575050506108679350015f8080611f7d565b8654858501529586019588955093810193611fd9565b925050506108679491925060ff19168252151560051b015f8080611f7d565b634e487b7160e01b85526022600452602485fd5b93607f1693611f55565b604051905f7fa16a46d94261c7517cc8ff89f61c0ce93598e3c849801011dee649a6a557d1035490600182811c9281811691821561212e575b60209182861084146120265785885287949360208601939291811561200757506001146120b35750505061086792500383610839565b7fa16a46d94261c7517cc8ff89f61c0ce93598e3c849801011dee649a6a557d1035f5290949092507f5f9ce34815f8e11431c7bb75a8e6886a91478f7ffc1dbb0a98dc240fddd76b75945f935b828510612118575050506108679350015f8080611f7d565b8654858501529586019588955093810193612100565b93607f169361207d565b60405190612145826107cc565b5f8252565b9081518082526020808093019301915f5b828110612169575050505090565b83516001600160a01b03168552938101939281019260010161215b565b90815180825260208092019182818360051b82019501935f915b8483106121b05750505050505090565b90919293949584806121ca83856001950387528a5161050d565b98019301930191949392906121a0565b92906122269261223892604051948592612216612203602086019960808b5260a087019061214a565b601f19968787830301604088015261159f565b9085858303016060860152612186565b90608083015203908101835282610839565b51902090565b5f525f8051602061445883398151915260205260405f2090565b5f525f805160206143f883398151915260205260405f2090565b61227b81612258565b5460ff8160f01c166123825760f81c61237c576122b76122ac61229d83612258565b5460a01c65ffffffffffff1690565b65ffffffffffff1690565b8015612363576122c86122ac612ca4565b8091101561235d576122d9826123b7565b106122e45750600190565b6122f06117c08261275b565b801561232e575b156123025750600390565b6122ac600161231361232093612258565b015465ffffffffffff1690565b61232957600490565b600590565b506123586117c0825f525f805160206144d883398151915260205260405f20600181015490541090565b6122f7565b50505f90565b604051636ad0607560e01b815260048101839052602490fd5b50600290565b5050600790565b634e487b7160e01b5f52601160045260245ffd5b91909165ffffffffffff80809416911601918211611e8b57565b5f525f805160206143f883398151915260205260405f20546123ef65ffffffffffff918263ffffffff8260d01c169160a01c1661239d565b1690565b5f198114611e8b5760010190565b634e487b7160e01b5f52603260045260245ffd5b80518210156124295760209160051b010190565b612401565b9390929196956117c06124cc916124c68a61244881613b55565b61245336888a610884565b602081519101208b5160208d0120906040519260208401947f3e83946653575f9a39005e1545185629e92736b7528ab20ca3816f315424a81186528d604086015260ff8d16606086015260018060a01b0316608085015260a084015260c083015260e082015260e081526117b281610802565b8a613dff565b6124e7576105439596916124e1913691610884565b92612583565b6040516394ab6c0760e01b81526001600160a01b0388166004820152602490fd5b9161054393916040519361251b856107cc565b5f8552612583565b93909260ff61254f9361054397958752166020860152604085015260a0606085015260a084019061050d565b91608081840391015261050d565b909260ff608093610543969584521660208301526040820152816060820152019061050d565b92919061258f84612272565b6008811015610dbc576002600160ff83161b161561265157506125c06125ba6122ac61229d87612258565b82612e43565b946125cd86848488612831565b8051612615575061260f7fb8e138887d0aa13bab447e82de9d5c1777041ecd21ca36ba824ff1e6c07ddda4938660405194859460018060a01b0316978561255d565b0390a290565b61260f907fe2babfbac5889a709b63bb7f598b324e08bc5a4fb9ec647fb3cbc9ec07eb8712948760405195869560018060a01b03169886612523565b6040516331b75e4d60e01b815260048101869052606491612676906024830190610f88565b60026044820152fd5b3d156126a9573d9061269082610869565b9161269e6040519384610839565b82523d5f602084013e565b606090565b3330036126b757565b6040516347096e4760e01b8152336004820152602490fd5b6040906126ea5f939594606083019683526020830190610f88565b0152565b6126f781612272565b906008821015610dbc576010600160ff84161b1615612714575090565b612737606492604051926331b75e4d60e01b845260048401526024830190610f88565b60106044820152fd5b9060018201809211611e8b57565b91908201809211611e8b57565b5f525f805160206144d8833981519152602052602460405f205f805160206143f883398151915260205265ffffffffffff60405f205460a01c16602060018060a01b035f80516020614498833981519152541660405194858092632394e7a360e21b82528560048301525afa928315610c49575f9361280d575b506127df90612b76565b91828102928184041490151715611e8b57612806816002600160649401549101549061274e565b9104111590565b6127df91935061282a9060203d8111611909576118fb8183610839565b92906127d5565b612852909291925f525f805160206144d883398151915260205260405f2090565b916003830161287b61287483839060018060a01b03165f5260205260405f2090565b5460ff1690565b6129035761289f60ff93926128ac929060018060a01b03165f5260205260405f2090565b805460ff19166001179055565b16806128c35750906128bf90825461274e565b9055565b600181036128db575060016128bf910191825461274e565b6002036128f15760026128bf910191825461274e565b6040516303599be160e11b8152600490fd5b6040516371c6af4960e01b81526001600160a01b0383166004820152602490fd5b61297660ff9160018060a01b0316805f527fb26e23d38df572f5669f6310d407229c15b4fb320cb19bf5e8c38856d28d080060205230149260405f209063ffffffff60e01b165f5260205260405f2090565b54161515141590565b6129876126ae565b5f91825b84811061299a57505050505050565b8060051b820135906129ab8261036e565b6001600160a01b0384163081148080612a9d575b612a8b57612a8693612a7e8a927f420cf47a8bf6c3ac65f850426acfe52d2eabee4997fbff83a80265ee36222c04948a527fb26e23d38df572f5669f6310d407229c15b4fb320cb19bf5e8c38856d28d0800602052612a4e8a612a3d8560408095891515141593209063ffffffff60e01b165f5260205260405f2090565b9060ff801983541691151516179055565b516001600160a01b03891681526001600160e01b0319909216602083015291151560408201529081906060820190565b0390a16123f3565b61298b565b60405163e547fc1160e01b8152600490fd5b506001600160e01b0319841663cc3bac5760e01b146129bf565b90612ac18261092a565b612ace6040519182610839565b8281528092612adf601f199161092a565b0190602036910137565b919091600883101561242957601c908360031c019260021b1690565b612b229160016007928260031c5f52016020521660405f20612ae9565b919063ffffffff928391549060031b1c169060018211925f845f14612b515750600119830116915b1515929190565b905091612b4a565b5f19810191908211611e8b57565b602719810191908211611e8b57565b5f8051602061443883398151915280545f199290838101818111611e8b57811115612429575f9383855281602086200101549165ffffffffffff92818482161115612c8d5750612bc590613f9a565b8491809360058211612c43575b5050612bde9350614372565b80612bf157505b6001600160d01b031690565b612c3e9150612c02612c3791612b59565b5f805160206144388339815191525f527f293b0181c8ec34cd3252e741689bdc21b70ee7a0ec76216439035a5c3718909b0190565b5460301c90565b612be5565b612c4f8293959261402a565b8303928311611e8b57612bde958752808360208920015416908516105f14612c7b5750915b5f80612bd2565b929150612c8790612740565b90612c74565b94505050505060301c90565b6040513d5f823e3d90fd5b5f80516020614498833981519152546040516324776b7d60e21b815290602090829060049082906001600160a01b03165afa5f9181612ced575b50610543575061054343613f9a565b90916020823d8211612d21575b81612d0760209383610839565b8101031261068b575051612d1a81611390565b905f612cde565b3d9150612cfa565b60405190612d36826107ac565b601d82527f6d6f64653d626c6f636b6e756d6265722666726f6d3d64656661756c740000006020830152565b5f8051602061449883398151915254604051634bf5d7e960e01b8152905f908190839060049082906001600160a01b03165afa90918282612dad575b50506105435750610543612d29565b909192503d8082843e612dc08184610839565b820191602081840312612e2c578051906001600160401b038211612e30570182601f82011215612e2c57805191612df683610869565b93612e046040519586610839565b8385526020848401011161068b575090612e2491602080850191016104ec565b905f80612d9e565b5080fd5b8280fd5b90816020910312610380575190565b5f8051602061449883398151915254604051630748d63560e31b81526001600160a01b039283166004820152602481019390935260209183916044918391165afa908115610c49575f91612e95575090565b610543915060203d8111611909576118fb8183610839565b8115612eb7570490565b634e487b7160e01b5f52601260045260245ffd5b906020825192015163ffffffff60e01b908181169360048110612eed57505050565b60040360031b82901b16169150565b9282612f08928561305d565b915f8051602061447883398151915293612f26855463ffffffff1690565b91612f308561223e565b91612f50612f3e8351613ffc565b845461ffff191661ffff909116178455565b5f5b8251811015613036576004612f678288612415565b51511061302d57612f7b610bb78285612415565b612f8e612f888389612415565b51612ecb565b90612fb282828c612fad610b9d30925460018060a01b039060201c1690565b613d15565b928115928361301d575b82613007575b5050612fd9575b5050612fd4906123f3565b612f52565b612fff918397612ff0610b3a93612fd4968a6135c5565b63ffffffff8091169116613f88565b94905f612fc9565b6130169250906117c091612924565b5f80612fc2565b63ffffffff851615159250612fbc565b612fd4906123f3565b5095505061054392509065ffffffff000082549160101b169065ffffffff00001916179055565b919392909361306c8233613443565b156131575765ffffffffffff945f1986613084612ca4565b160195808711611e8b576020905f60405161309e816107cc565b525f8051602061449883398151915254604051630748d63560e31b8152336004820152989091166024890152879060449082906001600160a01b03165afa958615610c49575f96613137575b505f805160206144b8833981519152549586811061311057506105439495503393613285565b604051636121770b60e11b8152336004820152602481019190915260448101879052606490fd5b61315091965060203d8111611909576118fb8183610839565b945f6130ea565b60405163d9b3955760e01b8152336004820152602490fd5b906131798261092a565b6131866040519182610839565b8281528092613197601f199161092a565b01905f5b8281106131a757505050565b80606060208093850101520161319b565b95926131eb906131f9939b9a9899969592885260209b60018060a01b03168c8901526101208060408a015288019061214a565b90868203606088015261159f565b9784890360808601528251808a52818a019180808360051b8d01019501925f905b8382106132575750505050506105439697509061323e9184820360a0860152612186565b9360c083015260e082015261010081840391015261050d565b909192939583806132768f93600194601f199082030186528a5161050d565b9801920192019093929161321a565b91949390929461329d865160208801208286866121da565b958351855190818114801590613427575b801561341f575b6133f657505065ffffffffffff94856132d061229d8a612258565b166133cf577f7d84a6263ae0d98d3329bd7b46bb4e8d6f98cd35a7adb45c274c8b7fd5ebd5e0956133ca9363ffffffff61332561330b612ca4565b5f805160206144188339815191525494808616911661274e565b9260301c166133a86133368c612258565b80546001600160a01b0319166001600160a01b038a1617815561337f61335b86613f9a565b825465ffffffffffff60a01b191660a09190911b65ffffffffffff60a01b16178255565b61338883613fcc565b815463ffffffff60d01b191660d09190911b63ffffffff60d01b16179055565b6133bc6133b5895161316f565b918461274e565b936040519889988d8a6131b8565b0390a1565b876133d981612272565b6040516331b75e4d60e01b81529182916110cd91600484016126cf565b8351604051630447b05d60e41b8152600481019290925260248201526044810191909152606490fd5b5080156132b5565b5083518114156132ae565b908151811015612429570160200190565b8151603481106134f95760131981840101516001600160a01b0319166b1b91f1b211f2119351b859f160a31b016134f957915f9261348081612b67565b915b81831061349d575050506001600160a01b0391821691161490565b9091936134c36134be6134b08785613432565b516001600160f81b03191690565b613501565b9190156134ee5760041b6010600160a01b031660ff9190911617936134e7906123f3565b9190613482565b505050505050600190565b505050600190565b60f81c9081602f1080613574575b1561352157600191602f190160ff1690565b816040108061356a575b1561353d576001916036190160ff1690565b8160601080613560575b15613559576001916056190160ff1690565b5f91508190565b5060678210613547565b506047821061352b565b50603a821061350f565b90600263ffffffff8094160191838311611e8b578160016007926135af9460031c5f52016020521660405f20612ae9565b90928084549260031b9316831b921b1916179055565b916135f191905f901561360d5750604060075f9260016002965b8260031c865201602052169120612ae9565b819291549060031b9163ffffffff809116831b921b1916179055565b906007604091600180966135df565b919082604091031261038057602082519201516105438161068e565b9161366565ffffffffffff9160409396959660018060a01b0316855260606020860152606085019061050d565b9416910152565b9081602091031261038057516105438161068e565b6001600160a01b0390911681526040602082018190526105439291019061050d565b9290916001926136c16136bc6122ac8661231389612258565b613f9a565b65ffffffffffff8116421061386557506136da8561223e565b5f855b6136eb575b50505050505050565b8251811015613860576136fe8183612b05565b909115613819575f8051602061447883398151915254613778919061372e9060201c6001600160a01b0316610b9d565b926137398589612415565b5190613748610bb7878a612415565b94613753878c612415565b51604093845192838092631cff79cd60e01b82528160209a8b9660049d8e8401613681565b03925af1948515610c49575f956137ea575b5050806137d7575b6137a957505050506137a3906123f3565b856136dd565b516318ee8bef60e01b81529283018a815263ffffffff91821660208201529116604082015281906060010390fd5b5063ffffffff8083169084161415613792565b61380a929550803d10613812575b6138028183610839565b81019061366c565b925f8061378a565b503d6137f8565b50508061385a5f80613831610bb76137a39689612415565b61383b858a612415565b5190613847868c612415565b5191602083519301915af1611aed61267f565b506123f3565b6136e2565b60405163fe589f3f60e01b81526004810187905265ffffffffffff919091166024820152604490fd5b6001600160a01b039182168152911660208201526060604082018190526105439291019061050d565b9192836138c49284613aaf565b916001906138db6136bc6122ac8461231388612258565b65ffffffffffff6138eb8661223e565b91166138f9575b5050505090565b5f835b613907575b506138f2565b8451811015613aaa5761391a8183612b05565b929150613932575b61392c91506123f3565b836138fc565b5f80516020614478833981519152546139979061395a9060201c6001600160a01b0316610b9d565b613967610bb7848a612415565b906139728488612415565b51906040908151926355ecde9560e11b845283806020978893600498308a850161388e565b0381845afa928315610c49576139ce9386915f91613a8d575b5083518095819263104da8cf60e21b83528883019190602083019252565b0381845afa938415610c495761392c978c9588955f91613a70575b5063ffffffff809116911614613a05575b505050505050613922565b5f613a17610bb78896613a3f98612415565b91613a22898d612415565b519451636b5db16360e11b8152968795869485933090850161388e565b03925af1613a52575b8281808a936139fa565b81613a6892903d10613812576138028183610839565b505f80613a48565b613a879150883d8a11613812576138028183610839565b5f6139e9565b613aa49150823d8411611909576118fb8183610839565b5f6139b0565b613901565b90613abb9392916121da565b613ac481612272565b6008811015610dbc57603b600160ff83161b1615613b285750613ae681612258565b80546001600160f81b0316600160f81b1790556040518181527f789cf55be980739dad1d0699b93b58e806b51c9d96619bfa8fe0a28abaa7b30c90602090a190565b90613b4c606492604051926331b75e4d60e01b845260048401526024830190610f88565b603b6044820152fd5b6001600160a01b03165f9081527f5ab42ced628888259c08ac98db1eb0cf702fc1501344311d8b100cd1bfe4bb006020526040902080546001810190915590565b604290613ba1613c2c565b613ba9613c96565b6040519060208201927f8b73c3c69bb8fe3d512ecc4cf759cc79239f7b179b0ffacaa9a75d522b39400f8452604083015260608201524660808201523060a082015260a08152613bf8816107e7565b519020906040519161190160f01b8352600283015260228201522090565b604051613c22816107cc565b5f8152905f368137565b613c34611f1c565b8051908115613c44576020012090565b50507fa16a46d94261c7517cc8ff89f61c0ce93598e3c849801011dee649a6a557d100548015613c715790565b507fc5d2460186f7233c927e7db2dcc703c0e500b653ca82273b7bfad8045d85a47090565b613c9e612044565b8051908115613cae576020012090565b50507fa16a46d94261c7517cc8ff89f61c0ce93598e3c849801011dee649a6a557d101548015613c715790565b90816020910312610380575161054381611b0f565b91908260409103126103805760208251613d0981611b0f565b9201516105438161068e565b5f809195949581948297604051906020968783019363b700961360e01b855260018060a01b03809216602485015216604483015263ffffffff60e01b16606482015260648152613d648161081e565b51915afa90613d7161267f565b91613d7d575b50509190565b815194919290919060408610613da957505080613d9f93948301019101613cf0565b91905b5f80613d77565b9291909481811015613dbe575b505050613da2565b613dce9350820181019101613cdb565b5f8080613db6565b9091906108675750805115613ded57805190602001fd5b604051630a12f52160e11b8152600490fd5b613e098383613ed6565b506004819592951015610dbc57159384613ec0575b508315613e2c575b50505090565b5f929350908291604051613e7281613e646020820194630b135d3f60e11b998a8752602484015260406044840152606483019061050d565b03601f198101835282610839565b51915afa90613e7f61267f565b82613eb2575b82613e95575b50505f8080613e26565b613eaa91925060208082518301019101612e34565b145f80613e8b565b915060208251101591613e85565b6001600160a01b0383811691161493505f613e1e565b8151919060418303613f0657613eff9250602082015190606060408401519301515f1a90613f10565b9192909190565b50505f9160029190565b91906fa2a8918ca85bafe22016d0b997e4df60600160ff1b038411613f7d57926020929160ff6080956040519485521684840152604083015260608201525f92839182805260015afa15610c495780516001600160a01b03811615613f7457918190565b50809160019190565b5050505f9160039190565b9080821115613f95575090565b905090565b65ffffffffffff90818111613fad571690565b604490604051906306dfcc6560e41b8252603060048301526024820152fd5b63ffffffff90818111613fdd571690565b604490604051906306dfcc6560e41b8252602060048301526024820152fd5b61ffff9081811161400b571690565b604490604051906306dfcc6560e41b8252601060048301526024820152fd5b801561416357806140fc6140f56140eb6140e16140d76140cd6140c36140b960016105439a5f908b60801c80614157575b508060401c8061414a575b508060201c8061413d575b508060101c80614130575b508060081c80614123575b508060041c80614116575b508060021c80614109575b50821c614102575b811c1b6140b2818b612ead565b0160011c90565b6140b2818a612ead565b6140b28189612ead565b6140b28188612ead565b6140b28187612ead565b6140b28186612ead565b6140b28185612ead565b8092612ead565b90614168565b81016140a5565b600291509101905f61409d565b600491509101905f614092565b600891509101905f614087565b601091509101905f61407c565b602091509101905f614071565b604091509101905f614066565b9150506080905f61405b565b505f90565b9080821015613f95575090565b5f8051602061443883398151915280545f9181614193575050505f90565b5f19928284810111611e8b5760209181522001015460301c90565b5f80516020614438833981519152908154600160401b8110156107c7576001810180845581101561242957610867925f5260205f20019061420c65ffffffffffff825116839065ffffffffffff1665ffffffffffff19825416179055565b60200151815465ffffffffffff1660309190911b65ffffffffffff1916179055565b90604051604081018181106001600160401b038211176107c757604052915465ffffffffffff8116835260301c6020830152565b5f80516020614438833981519152549192919081156143495761428f61428a612c0284612b59565b61422e565b805165ffffffffffff838116949116841061433757856020936142fb956142bf6122ac865165ffffffffffff1690565b036142ff57506142d4612c026142ed93612b59565b9065ffffffffffff82549181199060301b169116179055565b01516001600160d01b031690565b9190565b9050614332915061431f61431161085a565b65ffffffffffff9092168252565b6001600160d01b038716818501526141ae565b6142ed565b604051632520601d60e01b8152600490fd5b61436d915061435961431161085a565b6001600160d01b03841660208201526141ae565b5f9190565b905b82811061438057505090565b90918082169080831860011c8201809211611e8b575f805160206144388339815191525f527f293b0181c8ec34cd3252e741689bdc21b70ee7a0ec76216439035a5c3718909b82015465ffffffffffff90811690851610156143e55750915b90614374565b9291506143f190612740565b906143df56fe7c712897014dbe49c045ef1299aa2d5f9e67e48eea4403efa21f1e0f3ac0cb0100d7616c8fe29c6c2fbe1d0c5bc8f2faa4c35b43746e70b24b4d532752affd01e770710421fd2cad75ad828c61aa98f2d77d423a440b67872d0f65554148e000b26e23d38df572f5669f6310d407229c15b4fb320cb19bf5e8c38856d28d0801b26e23d38df572f5669f6310d407229c15b4fb320cb19bf5e8c38856d28d08023ba4977254e415696610a40ebf2258dbfa0ec6a2ff64e84bfe715ff16977cc0000d7616c8fe29c6c2fbe1d0c5bc8f2faa4c35b43746e70b24b4d532752affd00a1cefa0f43667ef127a258e673c94202a79b656e62899531c4376d87a7f39800a2646970667358221220e6ccd8874479ad5a1b617664acd6976059d55a05667828f36a2910935ec1457a64736f6c63430008140033","linkReferences":{}},"methodIdentifiers":{"BALLOT_TYPEHASH()":"deaaa7cc","CLOCK_MODE()":"4bf5d7e9","COUNTING_MODE()":"dd4e2ba5","EXTENDED_BALLOT_TYPEHASH()":"2fe3e261","accessManager()":"fdcb6068","baseDelaySeconds()":"57552fcb","cancel(address[],uint256[],bytes[],bytes32)":"452115d6","castVote(uint256,uint8)":"56781388","castVoteBySig(uint256,uint8,address,bytes)":"8ff262e3","castVoteWithReason(uint256,uint8,string)":"7b3c71d3","castVoteWithReasonAndParams(uint256,uint8,string,bytes)":"5f398a14","castVoteWithReasonAndParamsBySig(uint256,uint8,address,string,bytes,bytes)":"5b8d0e0d","clock()":"91ddadf4","eip712Domain()":"84b0196e","execute(address[],uint256[],bytes[],bytes32)":"2656227d","getVotes(address,uint256)":"eb9019d4","getVotesWithParams(address,uint256,bytes)":"9a802a6d","hasVoted(uint256,address)":"43859632","hashProposal(address[],uint256[],bytes[],bytes32)":"c59057e4","isAccessManagerIgnored(address,bytes4)":"82e49386","name()":"06fdde03","nonGovernanceFunction()":"417491db","nonces(address)":"7ecebe00","onERC1155BatchReceived(address,address,uint256[],uint256[],bytes)":"bc197c81","onERC1155Received(address,address,uint256,uint256,bytes)":"f23a6e61","onERC721Received(address,address,uint256,bytes)":"150b7a02","proposalDeadline(uint256)":"c01f9e37","proposalEta(uint256)":"ab58fb8e","proposalExecutionPlan(uint256)":"36369547","proposalNeedsQueuing(uint256)":"a9a95294","proposalProposer(uint256)":"143489d0","proposalSnapshot(uint256)":"2d63f693","proposalThreshold()":"b58131b0","proposalVotes(uint256)":"544ffc9c","propose(address[],uint256[],bytes[],string)":"7d5e81e2","queue(address[],uint256[],bytes[],bytes32)":"160cbed7","quorum(uint256)":"f8ce560a","quorumDenominator()":"97c3d334","quorumNumerator()":"a7713a70","quorumNumerator(uint256)":"60c4247f","relay(address,uint256,bytes)":"c28bc2fa","setAccessManagerIgnored(address,bytes4[],bool)":"cc3bac57","setBaseDelaySeconds(uint32)":"0a2a550d","setProposalThreshold(uint256)":"ece40cc1","setVotingDelay(uint48)":"79051887","setVotingPeriod(uint32)":"e540d01d","state(uint256)":"3e4f49e6","supportsInterface(bytes4)":"01ffc9a7","token()":"fc0c546a","updateQuorumNumerator(uint256)":"06f3f9e6","version()":"54fd4d50","votingDelay()":"3932abb1","votingPeriod()":"02a251a3"},"id":105}