{"abi":[{"type":"constructor","inputs":[],"stateMutability":"payable"},{"type":"receive","stateMutability":"payable"},{"type":"function","name":"BALLOT_TYPEHASH","inputs":[],"outputs":[{"name":"","type":"bytes32","internalType":"bytes32"}],"stateMutability":"view"},{"type":"function","name":"CLOCK_MODE","inputs":[],"outputs":[{"name":"","type":"string","internalType":"string"}],"stateMutability":"view"},{"type":"function","name":"COUNTING_MODE","inputs":[],"outputs":[{"name":"","type":"string","internalType":"string"}],"stateMutability":"pure"},{"type":"function","name":"EXTENDED_BALLOT_TYPEHASH","inputs":[],"outputs":[{"name":"","type":"bytes32","internalType":"bytes32"}],"stateMutability":"view"},{"type":"function","name":"cancel","inputs":[{"name":"targets","type":"address[]","internalType":"address[]"},{"name":"values","type":"uint256[]","internalType":"uint256[]"},{"name":"calldatas","type":"bytes[]","internalType":"bytes[]"},{"name":"descriptionHash","type":"bytes32","internalType":"bytes32"}],"outputs":[{"name":"","type":"uint256","internalType":"uint256"}],"stateMutability":"nonpayable"},{"type":"function","name":"castVote","inputs":[{"name":"proposalId","type":"uint256","internalType":"uint256"},{"name":"support","type":"uint8","internalType":"uint8"}],"outputs":[{"name":"","type":"uint256","internalType":"uint256"}],"stateMutability":"nonpayable"},{"type":"function","name":"castVoteBySig","inputs":[{"name":"proposalId","type":"uint256","internalType":"uint256"},{"name":"support","type":"uint8","internalType":"uint8"},{"name":"voter","type":"address","internalType":"address"},{"name":"signature","type":"bytes","internalType":"bytes"}],"outputs":[{"name":"","type":"uint256","internalType":"uint256"}],"stateMutability":"nonpayable"},{"type":"function","name":"castVoteWithReason","inputs":[{"name":"proposalId","type":"uint256","internalType":"uint256"},{"name":"support","type":"uint8","internalType":"uint8"},{"name":"reason","type":"string","internalType":"string"}],"outputs":[{"name":"","type":"uint256","internalType":"uint256"}],"stateMutability":"nonpayable"},{"type":"function","name":"castVoteWithReasonAndParams","inputs":[{"name":"proposalId","type":"uint256","internalType":"uint256"},{"name":"support","type":"uint8","internalType":"uint8"},{"name":"reason","type":"string","internalType":"string"},{"name":"params","type":"bytes","internalType":"bytes"}],"outputs":[{"name":"","type":"uint256","internalType":"uint256"}],"stateMutability":"nonpayable"},{"type":"function","name":"castVoteWithReasonAndParamsBySig","inputs":[{"name":"proposalId","type":"uint256","internalType":"uint256"},{"name":"support","type":"uint8","internalType":"uint8"},{"name":"voter","type":"address","internalType":"address"},{"name":"reason","type":"string","internalType":"string"},{"name":"params","type":"bytes","internalType":"bytes"},{"name":"signature","type":"bytes","internalType":"bytes"}],"outputs":[{"name":"","type":"uint256","internalType":"uint256"}],"stateMutability":"nonpayable"},{"type":"function","name":"clock","inputs":[],"outputs":[{"name":"","type":"uint48","internalType":"uint48"}],"stateMutability":"view"},{"type":"function","name":"eip712Domain","inputs":[],"outputs":[{"name":"fields","type":"bytes1","internalType":"bytes1"},{"name":"name","type":"string","internalType":"string"},{"name":"version","type":"string","internalType":"string"},{"name":"chainId","type":"uint256","internalType":"uint256"},{"name":"verifyingContract","type":"address","internalType":"address"},{"name":"salt","type":"bytes32","internalType":"bytes32"},{"name":"extensions","type":"uint256[]","internalType":"uint256[]"}],"stateMutability":"view"},{"type":"function","name":"execute","inputs":[{"name":"targets","type":"address[]","internalType":"address[]"},{"name":"values","type":"uint256[]","internalType":"uint256[]"},{"name":"calldatas","type":"bytes[]","internalType":"bytes[]"},{"name":"descriptionHash","type":"bytes32","internalType":"bytes32"}],"outputs":[{"name":"","type":"uint256","internalType":"uint256"}],"stateMutability":"payable"},{"type":"function","name":"getVotes","inputs":[{"name":"account","type":"address","internalType":"address"},{"name":"timepoint","type":"uint256","internalType":"uint256"}],"outputs":[{"name":"","type":"uint256","internalType":"uint256"}],"stateMutability":"view"},{"type":"function","name":"getVotesWithParams","inputs":[{"name":"account","type":"address","internalType":"address"},{"name":"timepoint","type":"uint256","internalType":"uint256"},{"name":"params","type":"bytes","internalType":"bytes"}],"outputs":[{"name":"","type":"uint256","internalType":"uint256"}],"stateMutability":"view"},{"type":"function","name":"hasVoted","inputs":[{"name":"proposalId","type":"uint256","internalType":"uint256"},{"name":"account","type":"address","internalType":"address"}],"outputs":[{"name":"","type":"bool","internalType":"bool"}],"stateMutability":"view"},{"type":"function","name":"hashProposal","inputs":[{"name":"targets","type":"address[]","internalType":"address[]"},{"name":"values","type":"uint256[]","internalType":"uint256[]"},{"name":"calldatas","type":"bytes[]","internalType":"bytes[]"},{"name":"descriptionHash","type":"bytes32","internalType":"bytes32"}],"outputs":[{"name":"","type":"uint256","internalType":"uint256"}],"stateMutability":"pure"},{"type":"function","name":"name","inputs":[],"outputs":[{"name":"","type":"string","internalType":"string"}],"stateMutability":"view"},{"type":"function","name":"nonces","inputs":[{"name":"owner","type":"address","internalType":"address"}],"outputs":[{"name":"","type":"uint256","internalType":"uint256"}],"stateMutability":"view"},{"type":"function","name":"onERC1155BatchReceived","inputs":[{"name":"","type":"address","internalType":"address"},{"name":"","type":"address","internalType":"address"},{"name":"","type":"uint256[]","internalType":"uint256[]"},{"name":"","type":"uint256[]","internalType":"uint256[]"},{"name":"","type":"bytes","internalType":"bytes"}],"outputs":[{"name":"","type":"bytes4","internalType":"bytes4"}],"stateMutability":"nonpayable"},{"type":"function","name":"onERC1155Received","inputs":[{"name":"","type":"address","internalType":"address"},{"name":"","type":"address","internalType":"address"},{"name":"","type":"uint256","internalType":"uint256"},{"name":"","type":"uint256","internalType":"uint256"},{"name":"","type":"bytes","internalType":"bytes"}],"outputs":[{"name":"","type":"bytes4","internalType":"bytes4"}],"stateMutability":"nonpayable"},{"type":"function","name":"onERC721Received","inputs":[{"name":"","type":"address","internalType":"address"},{"name":"","type":"address","internalType":"address"},{"name":"","type":"uint256","internalType":"uint256"},{"name":"","type":"bytes","internalType":"bytes"}],"outputs":[{"name":"","type":"bytes4","internalType":"bytes4"}],"stateMutability":"nonpayable"},{"type":"function","name":"proposalDeadline","inputs":[{"name":"proposalId","type":"uint256","internalType":"uint256"}],"outputs":[{"name":"","type":"uint256","internalType":"uint256"}],"stateMutability":"view"},{"type":"function","name":"proposalEta","inputs":[{"name":"proposalId","type":"uint256","internalType":"uint256"}],"outputs":[{"name":"","type":"uint256","internalType":"uint256"}],"stateMutability":"view"},{"type":"function","name":"proposalNeedsQueuing","inputs":[{"name":"","type":"uint256","internalType":"uint256"}],"outputs":[{"name":"","type":"bool","internalType":"bool"}],"stateMutability":"view"},{"type":"function","name":"proposalProposer","inputs":[{"name":"proposalId","type":"uint256","internalType":"uint256"}],"outputs":[{"name":"","type":"address","internalType":"address"}],"stateMutability":"view"},{"type":"function","name":"proposalSnapshot","inputs":[{"name":"proposalId","type":"uint256","internalType":"uint256"}],"outputs":[{"name":"","type":"uint256","internalType":"uint256"}],"stateMutability":"view"},{"type":"function","name":"proposalThreshold","inputs":[],"outputs":[{"name":"","type":"uint256","internalType":"uint256"}],"stateMutability":"view"},{"type":"function","name":"proposalVotes","inputs":[{"name":"proposalId","type":"uint256","internalType":"uint256"}],"outputs":[{"name":"againstVotes","type":"uint256","internalType":"uint256"},{"name":"forVotes","type":"uint256","internalType":"uint256"},{"name":"abstainVotes","type":"uint256","internalType":"uint256"}],"stateMutability":"view"},{"type":"function","name":"propose","inputs":[{"name":"targets","type":"address[]","internalType":"address[]"},{"name":"values","type":"uint256[]","internalType":"uint256[]"},{"name":"calldatas","type":"bytes[]","internalType":"bytes[]"},{"name":"description","type":"string","internalType":"string"}],"outputs":[{"name":"","type":"uint256","internalType":"uint256"}],"stateMutability":"nonpayable"},{"type":"function","name":"queue","inputs":[{"name":"targets","type":"address[]","internalType":"address[]"},{"name":"values","type":"uint256[]","internalType":"uint256[]"},{"name":"calldatas","type":"bytes[]","internalType":"bytes[]"},{"name":"descriptionHash","type":"bytes32","internalType":"bytes32"}],"outputs":[{"name":"","type":"uint256","internalType":"uint256"}],"stateMutability":"nonpayable"},{"type":"function","name":"quorum","inputs":[{"name":"","type":"uint256","internalType":"uint256"}],"outputs":[{"name":"","type":"uint256","internalType":"uint256"}],"stateMutability":"pure"},{"type":"function","name":"relay","inputs":[{"name":"target","type":"address","internalType":"address"},{"name":"value","type":"uint256","internalType":"uint256"},{"name":"data","type":"bytes","internalType":"bytes"}],"outputs":[],"stateMutability":"payable"},{"type":"function","name":"state","inputs":[{"name":"proposalId","type":"uint256","internalType":"uint256"}],"outputs":[{"name":"","type":"uint8","internalType":"enum IGovernor.ProposalState"}],"stateMutability":"view"},{"type":"function","name":"supportsInterface","inputs":[{"name":"interfaceId","type":"bytes4","internalType":"bytes4"}],"outputs":[{"name":"","type":"bool","internalType":"bool"}],"stateMutability":"view"},{"type":"function","name":"token","inputs":[],"outputs":[{"name":"","type":"address","internalType":"contract IERC5805"}],"stateMutability":"view"},{"type":"function","name":"version","inputs":[],"outputs":[{"name":"","type":"string","internalType":"string"}],"stateMutability":"view"},{"type":"function","name":"votingDelay","inputs":[],"outputs":[{"name":"","type":"uint256","internalType":"uint256"}],"stateMutability":"pure"},{"type":"function","name":"votingPeriod","inputs":[],"outputs":[{"name":"","type":"uint256","internalType":"uint256"}],"stateMutability":"pure"},{"type":"event","name":"EIP712DomainChanged","inputs":[],"anonymous":false},{"type":"event","name":"Initialized","inputs":[{"name":"version","type":"uint64","indexed":false,"internalType":"uint64"}],"anonymous":false},{"type":"event","name":"ProposalCanceled","inputs":[{"name":"proposalId","type":"uint256","indexed":false,"internalType":"uint256"}],"anonymous":false},{"type":"event","name":"ProposalCreated","inputs":[{"name":"proposalId","type":"uint256","indexed":false,"internalType":"uint256"},{"name":"proposer","type":"address","indexed":false,"internalType":"address"},{"name":"targets","type":"address[]","indexed":false,"internalType":"address[]"},{"name":"values","type":"uint256[]","indexed":false,"internalType":"uint256[]"},{"name":"signatures","type":"string[]","indexed":false,"internalType":"string[]"},{"name":"calldatas","type":"bytes[]","indexed":false,"internalType":"bytes[]"},{"name":"voteStart","type":"uint256","indexed":false,"internalType":"uint256"},{"name":"voteEnd","type":"uint256","indexed":false,"internalType":"uint256"},{"name":"description","type":"string","indexed":false,"internalType":"string"}],"anonymous":false},{"type":"event","name":"ProposalExecuted","inputs":[{"name":"proposalId","type":"uint256","indexed":false,"internalType":"uint256"}],"anonymous":false},{"type":"event","name":"ProposalQueued","inputs":[{"name":"proposalId","type":"uint256","indexed":false,"internalType":"uint256"},{"name":"etaSeconds","type":"uint256","indexed":false,"internalType":"uint256"}],"anonymous":false},{"type":"event","name":"VoteCast","inputs":[{"name":"voter","type":"address","indexed":true,"internalType":"address"},{"name":"proposalId","type":"uint256","indexed":false,"internalType":"uint256"},{"name":"support","type":"uint8","indexed":false,"internalType":"uint8"},{"name":"weight","type":"uint256","indexed":false,"internalType":"uint256"},{"name":"reason","type":"string","indexed":false,"internalType":"string"}],"anonymous":false},{"type":"event","name":"VoteCastWithParams","inputs":[{"name":"voter","type":"address","indexed":true,"internalType":"address"},{"name":"proposalId","type":"uint256","indexed":false,"internalType":"uint256"},{"name":"support","type":"uint8","indexed":false,"internalType":"uint8"},{"name":"weight","type":"uint256","indexed":false,"internalType":"uint256"},{"name":"reason","type":"string","indexed":false,"internalType":"string"},{"name":"params","type":"bytes","indexed":false,"internalType":"bytes"}],"anonymous":false},{"type":"error","name":"FailedInnerCall","inputs":[]},{"type":"error","name":"GovernorAlreadyCastVote","inputs":[{"name":"voter","type":"address","internalType":"address"}]},{"type":"error","name":"GovernorAlreadyQueuedProposal","inputs":[{"name":"proposalId","type":"uint256","internalType":"uint256"}]},{"type":"error","name":"GovernorDisabledDeposit","inputs":[]},{"type":"error","name":"GovernorInsufficientProposerVotes","inputs":[{"name":"proposer","type":"address","internalType":"address"},{"name":"votes","type":"uint256","internalType":"uint256"},{"name":"threshold","type":"uint256","internalType":"uint256"}]},{"type":"error","name":"GovernorInvalidProposalLength","inputs":[{"name":"targets","type":"uint256","internalType":"uint256"},{"name":"calldatas","type":"uint256","internalType":"uint256"},{"name":"values","type":"uint256","internalType":"uint256"}]},{"type":"error","name":"GovernorInvalidSignature","inputs":[{"name":"voter","type":"address","internalType":"address"}]},{"type":"error","name":"GovernorInvalidVoteType","inputs":[]},{"type":"error","name":"GovernorInvalidVotingPeriod","inputs":[{"name":"votingPeriod","type":"uint256","internalType":"uint256"}]},{"type":"error","name":"GovernorNonexistentProposal","inputs":[{"name":"proposalId","type":"uint256","internalType":"uint256"}]},{"type":"error","name":"GovernorNotQueuedProposal","inputs":[{"name":"proposalId","type":"uint256","internalType":"uint256"}]},{"type":"error","name":"GovernorOnlyExecutor","inputs":[{"name":"account","type":"address","internalType":"address"}]},{"type":"error","name":"GovernorOnlyProposer","inputs":[{"name":"account","type":"address","internalType":"address"}]},{"type":"error","name":"GovernorQueueNotImplemented","inputs":[]},{"type":"error","name":"GovernorRestrictedProposer","inputs":[{"name":"proposer","type":"address","internalType":"address"}]},{"type":"error","name":"GovernorUnexpectedProposalState","inputs":[{"name":"proposalId","type":"uint256","internalType":"uint256"},{"name":"current","type":"uint8","internalType":"enum IGovernor.ProposalState"},{"name":"expectedStates","type":"bytes32","internalType":"bytes32"}]},{"type":"error","name":"InvalidAccountNonce","inputs":[{"name":"account","type":"address","internalType":"address"},{"name":"currentNonce","type":"uint256","internalType":"uint256"}]},{"type":"error","name":"InvalidInitialization","inputs":[]},{"type":"error","name":"NotInitializing","inputs":[]},{"type":"error","name":"QueueEmpty","inputs":[]},{"type":"error","name":"QueueFull","inputs":[]},{"type":"error","name":"SafeCastOverflowedUintDowncast","inputs":[{"name":"bits","type":"uint8","internalType":"uint8"},{"name":"value","type":"uint256","internalType":"uint256"}]}],"bytecode":{"object":"0x608060408181527ff0c57e16840df040f15088dc2f81fe391c3923bec73e23a9662efc9c229c6a0080549192909180841c60ff1615916001600160401b0382168015908162000133575b600114908162000128575b1590816200011e575b506200010f57506001600160401b03198116600117835581620000f1575b5081549060ff82851c1615620000e057620000a0575b8251612ac690816200013d8239f35b68ff0000000000000000191690557fc7f505b2f371ae2175ee4913f4499e1f2633a7b5936321eed1cdaeb6115181d26020825160018152a15f8062000091565b8351631afcd79f60e31b8152600490fd5b6001600160481b031916680100000000000000011782555f6200007b565b63f92ee8a960e01b8152600490fd5b9050155f6200005d565b303b15915062000054565b8491506200004956fe6080604052600436101561001a575b3615610018575f80fd5b005b5f3560e01c806301ffc9a71461028457806302a251a31461027f57806306fdde031461027a578063143489d014610275578063150b7a0214610270578063160cbed71461026b5780632656227d146102665780632d63f693146102615780632fe3e2611461025c5780633932abb1146102575780633e4f49e614610252578063438596321461024d578063452115d6146102485780634bf5d7e914610243578063544ffc9c1461023e57806354fd4d501461023957806356781388146102345780635b8d0e0d1461022f5780635f398a141461022a5780637b3c71d3146102255780637d5e81e2146102205780637ecebe001461021b57806384b0196e146102165780638ff262e31461021157806391ddadf41461020c5780639a802a6d14610207578063a9a95294146101d0578063ab58fb8e14610202578063b58131b0146101fd578063bc197c81146101f8578063c01f9e37146101f3578063c28bc2fa146101ee578063c59057e4146101e9578063dd4e2ba5146101e4578063deaaa7cc146101df578063eb9019d4146101da578063f23a6e61146101d5578063f8ce560a146101d05763fc0c546a0361000e576115bf565b6112a4565b61156a565b6114e9565b6114af565b611452565b61143f565b6113c0565b6113a2565b61131a565b611300565b6112bf565b6111d4565b6111aa565b6110ab565b610fdb565b610ef2565b610e59565b610e04565b610d95565b610d11565b610c96565b610c45565b610bee565b610bbf565b610af2565b610a95565b610a68565b610a2c565b6109f2565b6109b1565b6108df565b610860565b610646565b6104b3565b61036b565b6102f6565b346102f25760203660031901126102f25760043563ffffffff60e01b81168091036102f2576020906332a2ad4360e11b81149081156102e1575b81156102d0575b506040519015158152f35b6301ffc9a760e01b1490505f6102c5565b630271189760e51b811491506102be565b5f80fd5b346102f2575f3660031901126102f257602060405160108152f35b5f5b8381106103225750505f910152565b8181015183820152602001610313565b9060209161034b81518092818552858086019101610311565b601f01601f1916010190565b906020610368928181520190610332565b90565b346102f2575f806003193601126104b05760405190807f7c712897014dbe49c045ef1299aa2d5f9e67e48eea4403efa21f1e0f3ac0cb00549060019180831c928082169283156104a6575b602092838610851461049257858852602088019490811561047157506001146103fa575b6103f6876103ea818903826105b9565b60405191829182610357565b0390f35b7f7c712897014dbe49c045ef1299aa2d5f9e67e48eea4403efa21f1e0f3ac0cb005f5294509192917fda13dda7583a39a3cd73e8830529c760837228fa4683752c823b17e10548aad55b83861061046057505050910190506103ea826103f65f806103da565b805485870152948201948101610444565b60ff191685525050505090151560051b0190506103ea826103f65f806103da565b634e487b7160e01b82526022600452602482fd5b93607f16936103b6565b80fd5b346102f25760203660031901126102f2576004355f525f80516020612a31833981519152602052602060018060a01b0360405f205416604051908152f35b600435906001600160a01b03821682036102f257565b602435906001600160a01b03821682036102f257565b604435906001600160a01b03821682036102f257565b634e487b7160e01b5f52604160045260245ffd5b604081019081106001600160401b0382111761056257604052565b610533565b602081019081106001600160401b0382111761056257604052565b60c081019081106001600160401b0382111761056257604052565b61010081019081106001600160401b0382111761056257604052565b90601f801991011681019081106001600160401b0382111761056257604052565b6001600160401b03811161056257601f01601f191660200190565b929192610601826105da565b9161060f60405193846105b9565b8294818452818301116102f2578281602093845f960137010152565b9080601f830112156102f257816020610368933591016105f5565b346102f25760803660031901126102f25761065f6104f1565b50610668610507565b506064356001600160401b0381116102f25761068890369060040161062b565b50604051630a85bd0160e11b8152602090f35b6001600160401b0381116105625760051b60200190565b81601f820112156102f2578035916106c98361069b565b926106d760405194856105b9565b808452602092838086019260051b8201019283116102f2578301905b828210610701575050505090565b81356001600160a01b03811681036102f25781529083019083016106f3565b81601f820112156102f2578035916107378361069b565b9261074560405194856105b9565b808452602092838086019260051b8201019283116102f2578301905b82821061076f575050505090565b81358152908301908301610761565b9080601f830112156102f2578135906107968261069b565b926107a460405194856105b9565b828452602092838086019160051b830101928084116102f257848301915b8483106107d25750505050505090565b82356001600160401b0381116102f25786916107f38484809489010161062b565b8152019201916107c2565b60806003198201126102f2576001600160401b03916004358381116102f2578261082a916004016106b2565b926024358181116102f2578361084291600401610720565b926044359182116102f2576108599160040161077e565b9060643590565b346102f25761087a610871366107fe565b929190916118ba565b61088381611938565b9060088210156108da576010600160ff84161b16156108ae57604051634844252360e11b8152600490fd5b6108d1606492604051926331b75e4d60e01b845260048401526024830190610a5b565b60106044820152fd5b610a47565b6108f76108eb366107fe565b818385969394956118ba565b9161090183611938565b9360088510156108da576030600160ff87161b161561098457916109489184936109436109306103f69761191e565b805460ff60f01b1916600160f01b179055565b611ebe565b6040518181527f712ae1383f79ac853f8d882153778e0260ef8f03b504e2866e0593e04d2b291f90602090a16040519081529081906020820190565b6040516331b75e4d60e01b8152600481018590526064906109a86024820188610a5b565b60306044820152fd5b346102f25760203660031901126102f2576004355f525f80516020612a31833981519152602052602065ffffffffffff60405f205460a01c16604051908152f35b346102f2575f3660031901126102f25760206040517f3e83946653575f9a39005e1545185629e92736b7528ab20ca3816f315424a8118152f35b346102f2575f3660031901126102f257602060405160048152f35b634e487b7160e01b5f52602160045260245ffd5b9060088210156108da5752565b346102f25760203660031901126102f2576020610a86600435611938565b610a936040518092610a5b565bf35b346102f25760403660031901126102f257602060ff610ae6610ab5610507565b6004355f525f80516020612a718339815191528452600360405f20019060018060a01b03165f5260205260405f2090565b54166040519015158152f35b346102f257610b00366107fe565b90610b0f8282858796976118ba565b610b1881611938565b60088110156108da5760018060ff83161b1615610b9257505f9081525f80516020612a3183398151915260205260409020546001600160a01b03163303610b76576103f693610b6693611f36565b6040519081529081906020820190565b60405163233d98e360e01b8152336004820152602490fd5b0390fd5b90610bb6606492604051926331b75e4d60e01b845260048401526024830190610a5b565b60016044820152fd5b346102f2575f3660031901126102f2576103f6610bda612579565b604051918291602083526020830190610332565b346102f25760203660031901126102f2576004355f525f80516020612a7183398151915260205260405f2080546103f660026001840154930154604051938493846040919493926060820195825260208201520152565b346102f2575f3660031901126102f2576103f6604051610c6481610547565b60018152603160f81b6020820152604051918291602083526020830190610332565b6024359060ff821682036102f257565b346102f25760403660031901126102f2576020610cdc610cb4610c86565b604051610cc081610567565b5f815260405191610cd083610567565b5f835233600435612131565b604051908152f35b9181601f840112156102f2578235916001600160401b0383116102f257602083818601950101116102f257565b346102f25760c03660031901126102f257610d2a610c86565b610d3261051d565b906001600160401b03906064358281116102f257610d54903690600401610ce4565b6084358481116102f257610d6c90369060040161062b565b9160a4359485116102f2576103f695610d8c610b6696369060040161062b565b94600435611fdc565b346102f25760803660031901126102f257610dae610c86565b6001600160401b03906044358281116102f257610dcf903690600401610ce4565b90916064359384116102f257610dfa610cdc93610df2602096369060040161062b565b9336916105f5565b9033600435612131565b346102f25760603660031901126102f257610e1d610c86565b6044356001600160401b0381116102f257602091610e4c610e45610cdc933690600401610ce4565b36916105f5565b60405191610cd083610567565b346102f25760803660031901126102f2576001600160401b036004358181116102f257610e8a9036906004016106b2565b906024358181116102f257610ea3903690600401610720565b916044358281116102f257610ebc90369060040161077e565b6064359283116102f257366023840112156102f2576103f693610eec610b669436906024816004013591016105f5565b92611aa4565b346102f25760203660031901126102f2576001600160a01b03610f136104f1565b165f527f5ab42ced628888259c08ac98db1eb0cf702fc1501344311d8b100cd1bfe4bb00602052602060405f2054604051908152f35b9081518082526020808093019301915f5b828110610f68575050505090565b835185529381019392810192600101610f5a565b91610fb190610fa361036897959693600f60f81b865260e0602087015260e0860190610332565b908482036040860152610332565b60608301949094526001600160a01b031660808201525f60a082015280830360c090910152610f49565b346102f2575f3660031901126102f2577fa16a46d94261c7517cc8ff89f61c0ce93598e3c849801011dee649a6a557d100541580611082575b15611045576110216115f3565b61102961171d565b906103f6611035612788565b6040519384933091469186610f7c565b60405162461bcd60e51b81526020600482015260156024820152741152540dcc4c8e88155b9a5b9a5d1a585b1a5e9959605a1b6044820152606490fd5b507fa16a46d94261c7517cc8ff89f61c0ce93598e3c849801011dee649a6a557d1015415611014565b346102f25760803660031901126102f2576004356110c7610c86565b906110d061051d565b916064356001600160401b0381116102f25761116a6110f661116e92369060040161062b565b611164611102876126c7565b60405160208101917ff2aad550cf55f045cb27e9c559f9889fdfb6e6cdaa032301d6ea397784ae51d7835288604083015260ff8816606083015260018060a01b038a16608083015260a082015260a0815261115c81610582565b519020612708565b86612876565b1590565b6111895790610b66916103f693611183611811565b926120b6565b6040516394ab6c0760e01b81526001600160a01b0384166004820152602490fd5b346102f2575f3660031901126102f25760206111c46124b5565b65ffffffffffff60405191168152f35b346102f25760603660031901126102f2576111ed6104f1565b6044356001600160401b0381116102f25761120c90369060040161062b565b505f80516020612a5183398151915254604051630748d63560e31b81526001600160a01b03928316600482015260248035908201529160209183916044918391165afa90811561129f575f91611268575b604051828152602090f35b6020813d8211611297575b81611280602093836105b9565b81010312611293575190506103f661125d565b5080fd5b3d9150611273565b6124aa565b346102f25760203660031901126102f25760206040515f8152f35b346102f25760203660031901126102f2576004355f525f80516020612a31833981519152602052602065ffffffffffff600160405f20015416604051908152f35b346102f2575f3660031901126102f25760206040515f8152f35b346102f25760a03660031901126102f2576113336104f1565b5061133c610507565b506001600160401b036044358181116102f25761135d903690600401610720565b506064358181116102f257611376903690600401610720565b506084359081116102f25761138f90369060040161062b565b5060405163bc197c8160e01b8152602090f35b346102f25760203660031901126102f2576020610cdc600435611a63565b60603660031901126102f2576113d46104f1565b6044356001600160401b0381116102f2576113f3903690600401610ce4565b90333003611427575f8383829361001895604051928392833781018481520391602435905af1611421611e8f565b9061284d565b6040516347096e4760e01b8152336004820152602490fd5b346102f2576020610cdc610871366107fe565b346102f2575f3660031901126102f2576103f660405161147181610547565b602081527f737570706f72743d627261766f2671756f72756d3d666f722c6162737461696e6020820152604051918291602083526020830190610332565b346102f2575f3660031901126102f25760206040517ff2aad550cf55f045cb27e9c559f9889fdfb6e6cdaa032301d6ea397784ae51d78152f35b346102f25760403660031901126102f2576115026104f1565b5f60405161150f81610567565b525f80516020612a5183398151915254604051630748d63560e31b81526001600160a01b03928316600482015260248035908201529160209183916044918391165afa90811561129f575f9161126857604051828152602090f35b346102f25760a03660031901126102f2576115836104f1565b5061158c610507565b506084356001600160401b0381116102f2576115ac90369060040161062b565b5060405163f23a6e6160e01b8152602090f35b346102f2575f3660031901126102f2575f80516020612a51833981519152546040516001600160a01b039091168152602090f35b604051905f7fa16a46d94261c7517cc8ff89f61c0ce93598e3c849801011dee649a6a557d1025490600182811c92818116918215611713575b60209182861084146116ff578588528794936020860193929181156116e05750600114611665575b505050611663925003836105b9565b565b7fa16a46d94261c7517cc8ff89f61c0ce93598e3c849801011dee649a6a557d1025f5290949092507f42ad5d3e1f2e6e70edcf6d991b8a3023d3fca8047a131592f9edb9fd9b89d57d945f935b8285106116ca575050506116639350015f8080611654565b86548585015295860195889550938101936116b2565b925050506116639491925060ff19168252151560051b015f8080611654565b634e487b7160e01b85526022600452602485fd5b93607f169361162c565b604051905f7fa16a46d94261c7517cc8ff89f61c0ce93598e3c849801011dee649a6a557d1035490600182811c92818116918215611807575b60209182861084146116ff578588528794936020860193929181156116e0575060011461178c57505050611663925003836105b9565b7fa16a46d94261c7517cc8ff89f61c0ce93598e3c849801011dee649a6a557d1035f5290949092507f5f9ce34815f8e11431c7bb75a8e6886a91478f7ffc1dbb0a98dc240fddd76b75945f935b8285106117f1575050506116639350015f8080611654565b86548585015295860195889550938101936117d9565b93607f1693611756565b6040519061181e82610567565b5f8252565b9081518082526020808093019301915f5b828110611842575050505090565b83516001600160a01b031685529381019392810192600101611834565b908082519081815260208091019281808460051b8301019501935f915b84831061188c5750505050505090565b90919293949584806118aa600193601f198682030187528a51610332565b980193019301919493929061187c565b929061190692611918926040519485926118f66118e3602086019960808b5260a0870190611823565b601f199687878303016040880152610f49565b908585830301606086015261185f565b906080830152039081018352826105b9565b51902090565b5f525f80516020612a3183398151915260205260405f2090565b6119418161191e565b5460ff8160f01c16611a485760f81c611a425761197d6119726119638361191e565b5460a01c65ffffffffffff1690565b65ffffffffffff1690565b8015611a295761198e6119726124b5565b80911015611a235761199f82611a63565b106119aa5750600190565b6119b661116a82612379565b80156119f4575b156119c85750600390565b61197260016119d96119e69361191e565b015465ffffffffffff1690565b6119ef57600490565b600590565b50611a1e61116a825f525f80516020612a7183398151915260205260405f20600181015490541090565b6119bd565b50505f90565b604051636ad0607560e01b815260048101839052602490fd5b50600290565b5050600790565b634e487b7160e01b5f52601160045260245ffd5b5f525f80516020612a3183398151915260205260405f205465ffffffffffff908163ffffffff8260d01c169160a01c1601818111611a9f571690565b611a4f565b91929092611ab2823361223e565b15611b635765ffffffffffff5f1981611ac96124b5565b160190808211611a9f576020905f604051611ae381610567565b525f80516020612a5183398151915254604051630748d63560e31b8152336004820152939091166024840152829060449082906001600160a01b03165afa801561129f57611b38575b50610368933393611cd9565b602090813d8111611b5c575b611b4e81836105b9565b810103126102f2575f611b2c565b503d611b44565b60405163d9b3955760e01b8152336004820152602490fd5b604090611b965f939594606083019683526020830190610a5b565b0152565b9060048201809211611a9f57565b9060108201809211611a9f57565b91908201809211611a9f57565b90611bcd8261069b565b611bda60405191826105b9565b8281528092611beb601f199161069b565b01905f5b828110611bfb57505050565b806060602080938501015201611bef565b9592611c3f90611c4d939b9a9899969592885260209b60018060a01b03168c8901526101208060408a0152880190611823565b908682036060880152610f49565b9784890360808601528251808a52818a019180808360051b8d01019501925f905b838210611cab57505050505061036896975090611c929184820360a086015261185f565b9360c083015260e0820152610100818403910152610332565b90919293958380611cca8f93600194601f199082030186528a51610332565b98019201920190939291611c6e565b9192949390611cf0865160208801208583866118ba565b958351825190818114801590611e49575b8015611e41575b611e1857505065ffffffffffff9182611d236119638a61191e565b16611df1577f7d84a6263ae0d98d3329bd7b46bb4e8d6f98cd35a7adb45c274c8b7fd5ebd5e095611d5f611dec94611d596124b5565b16611b9a565b90611dcb611d6c8b61191e565b80546001600160a01b0319166001600160a01b038916178155611db5611d91856129fe565b825465ffffffffffff60a01b191660a09190911b65ffffffffffff60a01b16178255565b805463ffffffff60d01b1916600160d41b179055565b611dd58751611bc3565b611dde83611ba8565b936040519889988d8a611c0c565b0390a1565b87611dfb81611938565b6040516331b75e4d60e01b8152918291610b8e9160048401611b7b565b8651604051630447b05d60e41b8152600481019290925260248201526044810191909152606490fd5b508015611d08565b508651811415611d01565b5f198114611a9f5760010190565b634e487b7160e01b5f52603260045260245ffd5b8051821015611e8a5760209160051b010190565b611e62565b3d15611eb9573d90611ea0826105da565b91611eae60405193846105b9565b82523d5f602084013e565b606090565b9291905f93845b8151811015611f1f57611f1a90611f1487806001600160a01b03611ee98588611e76565b5116611ef58589611e76565b5190611f01868b611e76565b5191602083519301915af1611421611e8f565b50611e54565b611ec5565b505050509050565b602719810191908211611a9f57565b90611f429392916118ba565b611f4b81611938565b60088110156108da57603b600160ff83161b1615611faf5750611f6d8161191e565b80546001600160f81b0316600160f81b1790556040518181527f789cf55be980739dad1d0699b93b58e806b51c9d96619bfa8fe0a28abaa7b30c90602090a190565b90611fd3606492604051926331b75e4d60e01b845260048401526024830190610a5b565b603b6044820152fd5b93909291969561116a61207a916120748a611ff6816126c7565b61200136888a6105f5565b602081519101208b5160208d0120906040519260208401947f3e83946653575f9a39005e1545185629e92736b7528ab20ca3816f315424a81186528d604086015260ff8d16606086015260018060a01b0316608085015260a084015260c083015260e082015260e0815261115c8161059d565b8a612876565b6120955761036895969161208f9136916105f5565b92612131565b6040516394ab6c0760e01b81526001600160a01b0388166004820152602490fd5b916103689391604051936120c985610567565b5f8552612131565b93909260ff6120fd9361036897958752166020860152604085015260a0606085015260a0840190610332565b916080818403910152610332565b909260ff6080936103689695845216602083015260408201528160608201520190610332565b92919061213d84611938565b60088110156108da576002600160ff83161b16156121ff575061216e6121686119726119638761191e565b82612647565b9461217b868484886123b7565b80516121c357506121bd7fb8e138887d0aa13bab447e82de9d5c1777041ecd21ca36ba824ff1e6c07ddda4938660405194859460018060a01b0316978561210b565b0390a290565b6121bd907fe2babfbac5889a709b63bb7f598b324e08bc5a4fb9ec647fb3cbc9ec07eb8712948760405195869560018060a01b031698866120d1565b6040516331b75e4d60e01b815260048101869052606491612224906024830190610a5b565b60026044820152fd5b908151811015611e8a570160200190565b8151603481106122f45760131981840101516001600160a01b0319166b1b91f1b211f2119351b859f160a31b016122f457915f9261227b81611f27565b915b818310612298575050506001600160a01b0391821691161490565b9091936122be6122b96122ab878561222d565b516001600160f81b03191690565b6122fc565b9190156122e95760041b6010600160a01b031660ff9190911617936122e290611e54565b919061227d565b505050505050600190565b505050600190565b60f81c9081602f108061236f575b1561231c57600191602f190160ff1690565b8160401080612365575b15612338576001916036190160ff1690565b816060108061235b575b15612354576001916056190160ff1690565b5f91508190565b5060678210612342565b5060478210612326565b50603a821061230a565b5f525f80516020612a7183398151915260205260405f205f80516020612a3183398151915260205260026001820154910154810110611a9f57600190565b6123d8909291925f525f80516020612a7183398151915260205260405f2090565b91600383016124016123fa83839060018060a01b03165f5260205260405f2090565b5460ff1690565b6124895761242560ff9392612432929060018060a01b03165f5260205260405f2090565b805460ff19166001179055565b1680612449575090612445908254611bb6565b9055565b60018103612461575060016124459101918254611bb6565b6002036124775760026124459101918254611bb6565b6040516303599be160e11b8152600490fd5b6040516371c6af4960e01b81526001600160a01b0383166004820152602490fd5b6040513d5f823e3d90fd5b5f80516020612a51833981519152546040516324776b7d60e21b815290602090829060049082906001600160a01b03165afa80915f91612500575b50906103685750610368436129fe565b6020813d8211612538575b81612518602093836105b9565b8101031261129357519065ffffffffffff821682036104b057505f6124f0565b3d915061250b565b6040519061254d82610547565b601d82527f6d6f64653d626c6f636b6e756d6265722666726f6d3d64656661756c740000006020830152565b5f80516020612a5183398151915254604051634bf5d7e960e01b8152905f908190839060049082906001600160a01b03165afa909182826125c4575b50506103685750610368612540565b909192503d8082843e6125d781846105b9565b820191602081840312611293578051906001600160401b038211612643570182601f820112156112935780519161260d836105da565b9361261b60405195866105b9565b838552602084840101116104b057509061263b9160208085019101610311565b905f806125b5565b8280fd5b5f80516020612a5183398151915254604051630748d63560e31b81526001600160a01b039283166004820152602481019390935260209183916044918391165afa90811561129f575f91612699575090565b906020823d82116126bf575b816126b2602093836105b9565b810103126104b057505190565b3d91506126a5565b6001600160a01b03165f9081527f5ab42ced628888259c08ac98db1eb0cf702fc1501344311d8b100cd1bfe4bb006020526040902080546001810190915590565b60429061271361279e565b61271b612808565b6040519060208201927f8b73c3c69bb8fe3d512ecc4cf759cc79239f7b179b0ffacaa9a75d522b39400f8452604083015260608201524660808201523060a082015260a0815261276a81610582565b519020906040519161190160f01b8352600283015260228201522090565b60405161279481610567565b5f8152905f368137565b6127a66115f3565b80519081156127b6576020012090565b50507fa16a46d94261c7517cc8ff89f61c0ce93598e3c849801011dee649a6a557d1005480156127e35790565b507fc5d2460186f7233c927e7db2dcc703c0e500b653ca82273b7bfad8045d85a47090565b61281061171d565b8051908115612820576020012090565b50507fa16a46d94261c7517cc8ff89f61c0ce93598e3c849801011dee649a6a557d1015480156127e35790565b909190611663575080511561286457805190602001fd5b604051630a12f52160e11b8152600490fd5b612880838361294c565b5060048195929510156108da57159384612936575b5083156128a3575b50505090565b5f9293509082916040516128e9816128db6020820194630b135d3f60e11b998a87526024840152604060448401526064830190610332565b03601f1981018352826105b9565b51915afa906128f6611e8f565b82612928575b8261290c575b50505f808061289d565b9091506020818051810103126102f25760200151145f80612902565b9150602082511015916128fc565b6001600160a01b0383811691161493505f612895565b815191906041830361297c576129759250602082015190606060408401519301515f1a90612986565b9192909190565b50505f9160029190565b91906fa2a8918ca85bafe22016d0b997e4df60600160ff1b0384116129f357926020929160ff6080956040519485521684840152604083015260608201525f92839182805260015afa1561129f5780516001600160a01b038116156129ea57918190565b50809160019190565b5050505f9160039190565b65ffffffffffff90818111612a11571690565b604490604051906306dfcc6560e41b8252603060048301526024820152fdfe7c712897014dbe49c045ef1299aa2d5f9e67e48eea4403efa21f1e0f3ac0cb013ba4977254e415696610a40ebf2258dbfa0ec6a2ff64e84bfe715ff16977cc00a1cefa0f43667ef127a258e673c94202a79b656e62899531c4376d87a7f39800a2646970667358221220fa3fcf04f325fa546fd73ce8eb2932621db4628f6191db6dead514b722be145864736f6c63430008140033","linkReferences":{}},"methodIdentifiers":{"BALLOT_TYPEHASH()":"deaaa7cc","CLOCK_MODE()":"4bf5d7e9","COUNTING_MODE()":"dd4e2ba5","EXTENDED_BALLOT_TYPEHASH()":"2fe3e261","cancel(address[],uint256[],bytes[],bytes32)":"452115d6","castVote(uint256,uint8)":"56781388","castVoteBySig(uint256,uint8,address,bytes)":"8ff262e3","castVoteWithReason(uint256,uint8,string)":"7b3c71d3","castVoteWithReasonAndParams(uint256,uint8,string,bytes)":"5f398a14","castVoteWithReasonAndParamsBySig(uint256,uint8,address,string,bytes,bytes)":"5b8d0e0d","clock()":"91ddadf4","eip712Domain()":"84b0196e","execute(address[],uint256[],bytes[],bytes32)":"2656227d","getVotes(address,uint256)":"eb9019d4","getVotesWithParams(address,uint256,bytes)":"9a802a6d","hasVoted(uint256,address)":"43859632","hashProposal(address[],uint256[],bytes[],bytes32)":"c59057e4","name()":"06fdde03","nonces(address)":"7ecebe00","onERC1155BatchReceived(address,address,uint256[],uint256[],bytes)":"bc197c81","onERC1155Received(address,address,uint256,uint256,bytes)":"f23a6e61","onERC721Received(address,address,uint256,bytes)":"150b7a02","proposalDeadline(uint256)":"c01f9e37","proposalEta(uint256)":"ab58fb8e","proposalNeedsQueuing(uint256)":"a9a95294","proposalProposer(uint256)":"143489d0","proposalSnapshot(uint256)":"2d63f693","proposalThreshold()":"b58131b0","proposalVotes(uint256)":"544ffc9c","propose(address[],uint256[],bytes[],string)":"7d5e81e2","queue(address[],uint256[],bytes[],bytes32)":"160cbed7","quorum(uint256)":"f8ce560a","relay(address,uint256,bytes)":"c28bc2fa","state(uint256)":"3e4f49e6","supportsInterface(bytes4)":"01ffc9a7","token()":"fc0c546a","version()":"54fd4d50","votingDelay()":"3932abb1","votingPeriod()":"02a251a3"},"id":105}