{"abi":[{"type":"constructor","inputs":[{"name":"name","type":"string","internalType":"string"},{"name":"symbol","type":"string","internalType":"string"},{"name":"offset","type":"uint96","internalType":"uint96"},{"name":"delegates","type":"address[]","internalType":"address[]"},{"name":"receivers","type":"address[]","internalType":"address[]"},{"name":"amounts","type":"uint96[]","internalType":"uint96[]"}],"stateMutability":"nonpayable"},{"type":"function","name":"CLOCK_MODE","inputs":[],"outputs":[{"name":"","type":"string","internalType":"string"}],"stateMutability":"view"},{"type":"function","name":"approve","inputs":[{"name":"to","type":"address","internalType":"address"},{"name":"tokenId","type":"uint256","internalType":"uint256"}],"outputs":[],"stateMutability":"nonpayable"},{"type":"function","name":"balanceOf","inputs":[{"name":"owner","type":"address","internalType":"address"}],"outputs":[{"name":"","type":"uint256","internalType":"uint256"}],"stateMutability":"view"},{"type":"function","name":"clock","inputs":[],"outputs":[{"name":"","type":"uint48","internalType":"uint48"}],"stateMutability":"view"},{"type":"function","name":"delegate","inputs":[{"name":"delegatee","type":"address","internalType":"address"}],"outputs":[],"stateMutability":"nonpayable"},{"type":"function","name":"delegateBySig","inputs":[{"name":"delegatee","type":"address","internalType":"address"},{"name":"nonce","type":"uint256","internalType":"uint256"},{"name":"expiry","type":"uint256","internalType":"uint256"},{"name":"v","type":"uint8","internalType":"uint8"},{"name":"r","type":"bytes32","internalType":"bytes32"},{"name":"s","type":"bytes32","internalType":"bytes32"}],"outputs":[],"stateMutability":"nonpayable"},{"type":"function","name":"delegates","inputs":[{"name":"account","type":"address","internalType":"address"}],"outputs":[{"name":"","type":"address","internalType":"address"}],"stateMutability":"view"},{"type":"function","name":"eip712Domain","inputs":[],"outputs":[{"name":"fields","type":"bytes1","internalType":"bytes1"},{"name":"name","type":"string","internalType":"string"},{"name":"version","type":"string","internalType":"string"},{"name":"chainId","type":"uint256","internalType":"uint256"},{"name":"verifyingContract","type":"address","internalType":"address"},{"name":"salt","type":"bytes32","internalType":"bytes32"},{"name":"extensions","type":"uint256[]","internalType":"uint256[]"}],"stateMutability":"view"},{"type":"function","name":"getApproved","inputs":[{"name":"tokenId","type":"uint256","internalType":"uint256"}],"outputs":[{"name":"","type":"address","internalType":"address"}],"stateMutability":"view"},{"type":"function","name":"getPastTotalSupply","inputs":[{"name":"timepoint","type":"uint256","internalType":"uint256"}],"outputs":[{"name":"","type":"uint256","internalType":"uint256"}],"stateMutability":"view"},{"type":"function","name":"getPastVotes","inputs":[{"name":"account","type":"address","internalType":"address"},{"name":"timepoint","type":"uint256","internalType":"uint256"}],"outputs":[{"name":"","type":"uint256","internalType":"uint256"}],"stateMutability":"view"},{"type":"function","name":"getVotes","inputs":[{"name":"account","type":"address","internalType":"address"}],"outputs":[{"name":"","type":"uint256","internalType":"uint256"}],"stateMutability":"view"},{"type":"function","name":"isApprovedForAll","inputs":[{"name":"owner","type":"address","internalType":"address"},{"name":"operator","type":"address","internalType":"address"}],"outputs":[{"name":"","type":"bool","internalType":"bool"}],"stateMutability":"view"},{"type":"function","name":"name","inputs":[],"outputs":[{"name":"","type":"string","internalType":"string"}],"stateMutability":"view"},{"type":"function","name":"nonces","inputs":[{"name":"owner","type":"address","internalType":"address"}],"outputs":[{"name":"","type":"uint256","internalType":"uint256"}],"stateMutability":"view"},{"type":"function","name":"ownerOf","inputs":[{"name":"tokenId","type":"uint256","internalType":"uint256"}],"outputs":[{"name":"","type":"address","internalType":"address"}],"stateMutability":"view"},{"type":"function","name":"paused","inputs":[],"outputs":[{"name":"","type":"bool","internalType":"bool"}],"stateMutability":"view"},{"type":"function","name":"safeTransferFrom","inputs":[{"name":"from","type":"address","internalType":"address"},{"name":"to","type":"address","internalType":"address"},{"name":"tokenId","type":"uint256","internalType":"uint256"}],"outputs":[],"stateMutability":"nonpayable"},{"type":"function","name":"safeTransferFrom","inputs":[{"name":"from","type":"address","internalType":"address"},{"name":"to","type":"address","internalType":"address"},{"name":"tokenId","type":"uint256","internalType":"uint256"},{"name":"data","type":"bytes","internalType":"bytes"}],"outputs":[],"stateMutability":"nonpayable"},{"type":"function","name":"setApprovalForAll","inputs":[{"name":"operator","type":"address","internalType":"address"},{"name":"approved","type":"bool","internalType":"bool"}],"outputs":[],"stateMutability":"nonpayable"},{"type":"function","name":"supportsInterface","inputs":[{"name":"interfaceId","type":"bytes4","internalType":"bytes4"}],"outputs":[{"name":"","type":"bool","internalType":"bool"}],"stateMutability":"view"},{"type":"function","name":"symbol","inputs":[],"outputs":[{"name":"","type":"string","internalType":"string"}],"stateMutability":"view"},{"type":"function","name":"tokenURI","inputs":[{"name":"tokenId","type":"uint256","internalType":"uint256"}],"outputs":[{"name":"","type":"string","internalType":"string"}],"stateMutability":"view"},{"type":"function","name":"transferFrom","inputs":[{"name":"from","type":"address","internalType":"address"},{"name":"to","type":"address","internalType":"address"},{"name":"tokenId","type":"uint256","internalType":"uint256"}],"outputs":[],"stateMutability":"nonpayable"},{"type":"event","name":"Approval","inputs":[{"name":"owner","type":"address","indexed":true,"internalType":"address"},{"name":"approved","type":"address","indexed":true,"internalType":"address"},{"name":"tokenId","type":"uint256","indexed":true,"internalType":"uint256"}],"anonymous":false},{"type":"event","name":"ApprovalForAll","inputs":[{"name":"owner","type":"address","indexed":true,"internalType":"address"},{"name":"operator","type":"address","indexed":true,"internalType":"address"},{"name":"approved","type":"bool","indexed":false,"internalType":"bool"}],"anonymous":false},{"type":"event","name":"ConsecutiveTransfer","inputs":[{"name":"fromTokenId","type":"uint256","indexed":true,"internalType":"uint256"},{"name":"toTokenId","type":"uint256","indexed":false,"internalType":"uint256"},{"name":"fromAddress","type":"address","indexed":true,"internalType":"address"},{"name":"toAddress","type":"address","indexed":true,"internalType":"address"}],"anonymous":false},{"type":"event","name":"DelegateChanged","inputs":[{"name":"delegator","type":"address","indexed":true,"internalType":"address"},{"name":"fromDelegate","type":"address","indexed":true,"internalType":"address"},{"name":"toDelegate","type":"address","indexed":true,"internalType":"address"}],"anonymous":false},{"type":"event","name":"DelegateVotesChanged","inputs":[{"name":"delegate","type":"address","indexed":true,"internalType":"address"},{"name":"previousVotes","type":"uint256","indexed":false,"internalType":"uint256"},{"name":"newVotes","type":"uint256","indexed":false,"internalType":"uint256"}],"anonymous":false},{"type":"event","name":"EIP712DomainChanged","inputs":[],"anonymous":false},{"type":"event","name":"Paused","inputs":[{"name":"account","type":"address","indexed":false,"internalType":"address"}],"anonymous":false},{"type":"event","name":"Transfer","inputs":[{"name":"from","type":"address","indexed":true,"internalType":"address"},{"name":"to","type":"address","indexed":true,"internalType":"address"},{"name":"tokenId","type":"uint256","indexed":true,"internalType":"uint256"}],"anonymous":false},{"type":"event","name":"Unpaused","inputs":[{"name":"account","type":"address","indexed":false,"internalType":"address"}],"anonymous":false},{"type":"error","name":"CheckpointUnorderedInsertion","inputs":[]},{"type":"error","name":"ECDSAInvalidSignature","inputs":[]},{"type":"error","name":"ECDSAInvalidSignatureLength","inputs":[{"name":"length","type":"uint256","internalType":"uint256"}]},{"type":"error","name":"ECDSAInvalidSignatureS","inputs":[{"name":"s","type":"bytes32","internalType":"bytes32"}]},{"type":"error","name":"ERC5805FutureLookup","inputs":[{"name":"timepoint","type":"uint256","internalType":"uint256"},{"name":"clock","type":"uint48","internalType":"uint48"}]},{"type":"error","name":"ERC6372InconsistentClock","inputs":[]},{"type":"error","name":"ERC721ExceededMaxBatchMint","inputs":[{"name":"batchSize","type":"uint256","internalType":"uint256"},{"name":"maxBatch","type":"uint256","internalType":"uint256"}]},{"type":"error","name":"ERC721ForbiddenBatchBurn","inputs":[]},{"type":"error","name":"ERC721ForbiddenBatchMint","inputs":[]},{"type":"error","name":"ERC721ForbiddenMint","inputs":[]},{"type":"error","name":"ERC721IncorrectOwner","inputs":[{"name":"sender","type":"address","internalType":"address"},{"name":"tokenId","type":"uint256","internalType":"uint256"},{"name":"owner","type":"address","internalType":"address"}]},{"type":"error","name":"ERC721InsufficientApproval","inputs":[{"name":"operator","type":"address","internalType":"address"},{"name":"tokenId","type":"uint256","internalType":"uint256"}]},{"type":"error","name":"ERC721InvalidApprover","inputs":[{"name":"approver","type":"address","internalType":"address"}]},{"type":"error","name":"ERC721InvalidOperator","inputs":[{"name":"operator","type":"address","internalType":"address"}]},{"type":"error","name":"ERC721InvalidOwner","inputs":[{"name":"owner","type":"address","internalType":"address"}]},{"type":"error","name":"ERC721InvalidReceiver","inputs":[{"name":"receiver","type":"address","internalType":"address"}]},{"type":"error","name":"ERC721InvalidSender","inputs":[{"name":"sender","type":"address","internalType":"address"}]},{"type":"error","name":"ERC721NonexistentToken","inputs":[{"name":"tokenId","type":"uint256","internalType":"uint256"}]},{"type":"error","name":"EnforcedPause","inputs":[]},{"type":"error","name":"ExpectedPause","inputs":[]},{"type":"error","name":"InvalidAccountNonce","inputs":[{"name":"account","type":"address","internalType":"address"},{"name":"currentNonce","type":"uint256","internalType":"uint256"}]},{"type":"error","name":"InvalidShortString","inputs":[]},{"type":"error","name":"SafeCastOverflowedUintDowncast","inputs":[{"name":"bits","type":"uint8","internalType":"uint8"},{"name":"value","type":"uint256","internalType":"uint256"}]},{"type":"error","name":"StringTooLong","inputs":[{"name":"str","type":"string","internalType":"string"}]},{"type":"error","name":"VotesExpiredSignature","inputs":[{"name":"expiry","type":"uint256","internalType":"uint256"}]}],"bytecode":{"object":"0x610180604052346200008257620000266200001962000283565b94939093929192620003a8565b6040516122889081620016808239608051816118ab015260a05181611966015260c05181611875015260e051816118fa015261010051816119200152610120518161076a01526101405181610793015261016051816115890152f35b5f80fd5b634e487b7160e01b5f52604160045260245ffd5b604081019081106001600160401b03821117620000b657604052565b62000086565b601f909101601f19168101906001600160401b03821190821017620000b657604052565b60405190620000ef826200009a565b565b5f5b838110620001035750505f910152565b8181015183820152602001620000f3565b81601f82011215620000825780516001600160401b038111620000b657604051926200014b601f8301601f191660200185620000bc565b8184526020828401011162000082576200016c9160208085019101620000f1565b90565b51906001600160601b03821682036200008257565b6001600160401b038111620000b65760051b60200190565b81601f820112156200008257805191620001b68362000184565b92620001c66040519485620000bc565b808452602092838086019260051b82010192831162000082578301905b828210620001f2575050505090565b81516001600160a01b038116810362000082578152908301908301620001e3565b81601f8201121562000082578051916200022d8362000184565b926200023d6040519485620000bc565b808452602092838086019260051b82010192831162000082578301905b82821062000269575050505090565b83809162000277846200016f565b8152019101906200025a565b6200396880380380604051926200029b8285620000bc565b8339810160c082820312620000825781516001600160401b0390818111620000825782620002cb91850162000114565b6020840151828111620000825783620002e691860162000114565b94620002f5604086016200016f565b946060810151848111620000825785620003119183016200019c565b9460808201518581116200008257816200032d9184016200019c565b9460a0830151908111620000825762000347920162000213565b91959493929190565b634e487b7160e01b5f52601160045260245ffd5b5f198114620003735760010190565b62000350565b634e487b7160e01b5f52603260045260245ffd5b8051821015620003a25760209160051b010190565b62000379565b9392909160405194620003bb866200009a565b60019586815260209182820192603160f81b845281519660018060401b038811620000b6575f97620003f981620003f38b5462000609565b62000644565b82601f8211600114620005715790806200043793928b9162000565575b505f19600383901b1c1916908c1b1789558a989796959493929190620007a6565b6200044760ff1960085416600855565b620004528262000de4565b61012052620004618362000eee565b61014052815191012060e052519020610100524660a0526200048262001066565b6080523060c0526101605281835b6200050e575b5050905b620004a6575b50505050565b8151811015620005085780620004fa620004d6620004c96200050194866200038d565b516001600160a01b031690565b620004f3620004e684896200038d565b516001600160601b031690565b9062000ba9565b5062000364565b826200049a565b620004a0565b81929391518110156200055b57806200054b62000534620004c96200055194876200038d565b62000544620004c984886200038d565b9062000892565b62000364565b8193929162000490565b8193925062000496565b90508501515f62000416565b5f8052601f19821692918c917f290decd9548b62a8d60345a988386fc84ba6bc95484008f6362f93160ef3e563908c5b87878210620005e957505082620004379610620005d0575b5050811b018955908a9897969594939291620007a6565b8701515f1960f88460031b161c191690555f80620005b9565b9194829194969793868b015181550194019201918e9391959492620005a1565b90600182811c9216801562000639575b60208310146200062557565b634e487b7160e01b5f52602260045260245ffd5b91607f169162000619565b601f811162000651575050565b5f9081805260208220906020601f850160051c8301941062000690575b601f0160051c01915b8281106200068457505050565b81815560010162000677565b90925082906200066e565b90601f8211620006a9575050565b6001915f9083825260208220906020601f850160051c83019410620006eb575b601f0160051c01915b828110620006e05750505050565b8181558301620006d2565b9092508290620006c9565b601f811162000703575050565b5f906009825260208220906020601f850160051c8301941062000743575b601f0160051c01915b8281106200073757505050565b8181556001016200072a565b909250829062000721565b601f81116200075b575050565b5f90600a825260208220906020601f850160051c830194106200079b575b601f0160051c01915b8281106200078f57505050565b81815560010162000782565b909250829062000779565b80519091906001600160401b038111620000b657600190620007d481620007ce845462000609565b6200069b565b602080601f8311600114620008105750819293945f9262000804575b50505f19600383901b1c191690821b179055565b015190505f80620007f0565b60015f52601f198316959091907fb10e2d527612073b26eecdfd717e6a320cf44b4afac2b0732d9fcbe2b7fa0cf6925f905b8882106200087a575050838596971062000861575b505050811b019055565b01515f1960f88460031b161c191690555f808062000857565b80878596829496860151815501950193019062000842565b6001600160a01b039081165f818152600c6020526040812080548585166001600160a01b031982168117909255919594919093169290919083827f3134e8a2e6d97e929a7e54011ea5485d7d196dd5f0ba4d4ef95803e8e3fc257f8880a48015620009105784604091620000ef959652600360205220549162000929565b6040516322718ad960e21b815260048101869052602490fd5b6001600160a01b0380831693929190811690818514158062000ab4575b62000953575b5050505050565b81620009cd575b5050826200096b575b80806200094c565b6001600160a01b03165f908152600d602052604090205f805160206200394883398151915291620009a991620009a29091620010d2565b9062000abe565b604080516001600160d01b039384168152919092166020820152a25f808062000963565b6001600160a01b03165f908152600d60205260409020620009ee84620010d2565b9065ffffffffffff9081431162000a955780545f8162000a585750509062000a359162000a2b5f8051602062003948833981519152945f6200164b565b9143169062001330565b604080516001600160d01b039384168152919092166020820152a25f806200095a565b5f939291931994848681011162000373575f80516020620039488339815191529562000a35956020848662000a2b96522001015460301c6200164b565b6040516306dfcc6560e41b815260306004820152436024820152604490fd5b5083151562000946565b65ffffffffffff9081431162000a955780545f8162000aed57505062000a2b62000ae9935f62001665565b9091565b90935f198581810111620003735762000ae9956020848662000a2b96522001015460301c62001665565b65ffffffffffff80431162000a9557600e545f8162000b4b57505062000b4262000ae9925f6200164b565b904316620011f0565b90925f198481810111620003735762000ae994602084600e62000b4296522001015460301c6200164b565b6001600160601b0391821690821601919082116200037357565b6001600160601b039081165f1901919082116200037357565b9062000bb462000cc8565b916001600160601b038281168062000bce575b5050505090565b303b62000cb6576001600160a01b03831693841562000c9e57611388821162000c73575f939262000c497fdeaa91b6123d068f5821d0fb0678463d1a8a6079fe8af5de3ce5e896dcf9133d9362000c3462000c2e62000c66958b62000b76565b62000b90565b9562000c41898862001519565b505062000d04565b6040516001600160601b0390941684528616929081906020820190565b0390a45f80808062000bc7565b6040516308f58e5760e41b81526001600160601b039190911660048201526113886024820152604490fd5b604051633250574960e11b81525f6004820152602490fd5b6040516329cfc83160e11b8152600490fd5b62000cd26200144e565b50901562000cf3576001600160601b03908116600101908111620003735790565b50610160516001600160601b031690565b6001600160a01b039081165f81815260036020526040812080546001600160801b039095169485019055929162000d3b83620010d2565b65ffffffffffff9081431162000a9557600e548062000daf57509462000d6d60409262000b42620000ef988462001665565b5050831562000d92575b808052600c6020528282822054169381522054169062000929565b62000da762000da186620010d2565b62000b17565b505062000d77565b9590915f19908782810111620003735762000b4260409462000d6d93620000ef9a600e87526020872001015460301c62001665565b90815160208082105f1462000e01575050906200016c9062000ff8565b6001600160401b038211620000b65762000e288262000e2260095462000609565b620006f6565b80601f831160011462000e6657508192935f9262000e5a575b50508160011b915f199060031b1c19161760095560ff90565b015190505f8062000e41565b60095f52601f198316949091907f6e1540171b6c0c960b71a7020d9f60077f6af931a8bbf590da0223dacf75c7af925f905b87821062000ed557505083600195961062000ebc575b505050811b0160095560ff90565b01515f1960f88460031b161c191690555f808062000eae565b8060018596829496860151815501950193019062000e98565b90815160208082105f1462000f0b575050906200016c9062000ff8565b6001600160401b038211620000b65762000f328262000f2c600a5462000609565b6200074e565b80601f831160011462000f7057508192935f9262000f64575b50508160011b915f199060031b1c191617600a5560ff90565b015190505f8062000f4b565b600a5f52601f198316949091907fc65a7bb8d6351c1cf70c95a316cc6a92839c986682d98bc35f958f4883f9d2a8925f905b87821062000fdf57505083600195961062000fc6575b505050811b01600a5560ff90565b01515f1960f88460031b161c191690555f808062000fb8565b8060018596829496860151815501950193019062000fa2565b601f8151116200102557602081519101516020821062001016571790565b5f198260200360031b1b161790565b6044604051809263305a27a960e01b825260206004830152620010588151809281602486015260208686019101620000f1565b601f01601f19168101030190fd5b60e051610100516040519060208201927f8b73c3c69bb8fe3d512ecc4cf759cc79239f7b179b0ffacaa9a75d522b39400f8452604083015260608201524660808201523060a082015260a0815260c0810181811060018060401b03821117620000b65760405251902090565b6001600160d01b0390818111620010e7571690565b604490604051906306dfcc6560e41b825260d060048301526024820152fd5b5f198101919082116200037357565b600e549068010000000000000000821015620000b6576001820180600e55821015620003a257600e5f5280516020919091015160301b65ffffffffffff191665ffffffffffff91909116175f805160206200390883398151915290910155565b90815468010000000000000000811015620000b65760018101808455811015620003a2575f9283526020928390208251929093015160301b65ffffffffffff191665ffffffffffff9290921691909117910155565b90604051620011d9816200009a565b915465ffffffffffff8116835260301c6020830152565b600e5491929190811562001302576200122e62001228620012118462001106565b600e5f525f80516020620039088339815191520190565b620011ca565b805165ffffffffffff8381169491168410620012f05785602093620012ae956200126d62001262865165ffffffffffff1690565b65ffffffffffff1690565b03620012b257506200128762001211620012a09362001106565b9065ffffffffffff82549181199060301b169116179055565b01516001600160d01b031690565b9190565b9050620012ea9150620012d6620012c8620000e0565b65ffffffffffff9092168252565b6001600160d01b0387168185015262001115565b620012a0565b604051632520601d60e01b8152600490fd5b6200132b915062001316620012c8620000e0565b6001600160d01b038416602082015262001115565b5f9190565b805492939291908215620013fe576200135c62001228620013518562001106565b835f5260205f200190565b906200136e825165ffffffffffff1690565b65ffffffffffff84811691168110620012f057620012ae946020948892620013a062001262875165ffffffffffff1690565b03620013c65750620012a092620013bb620012879262001106565b905f5260205f200190565b915050620012ea91620013ea620013dc620000e0565b65ffffffffffff9093168352565b6001600160d01b0388168286015262001175565b6200132b925062001412620013dc620000e0565b6001600160d01b038516602083015262001175565b9060405162001436816200009a565b91546001600160601b038116835260601c6020830152565b600654806200146057505f905f905f90565b5f198181810111620003735760065f52604051926020929091015f80516020620039288339815191520162001495846200009a565b546001600160601b03811680855260609190911c929093018290526001929190565b6006549068010000000000000000821015620000b6576001820180600655821015620003a25760065f5280516020919091015160601b6001600160601b0319166001600160601b0391909116175f805160206200392883398151915290910155565b600654919291908115620016225762001557620015516200153a8462001106565b60065f525f80516020620039288339815191520190565b62001427565b80516001600160601b038381169491168410620012f05785602093620012ae95620015986200158c865160018060601b031690565b6001600160601b031690565b03620015e35750620015b26200153a620015d59362001106565b80546001600160601b031660609290921b6001600160601b031916919091179055565b01516001600160a01b031690565b90506200161c915062001608620015f9620000e0565b6001600160601b039092168252565b6001600160a01b03871681850152620014b7565b620015d5565b6200132b915062001636620015f9620000e0565b6001600160a01b0384166020820152620014b7565b6001600160d01b0391821690821603908111620003735790565b6001600160d01b039182169082160190811162000373579056fe60806040526004361015610011575f80fd5b5f3560e01c806301ffc9a71461019457806306fdde031461018f578063081812fc1461018a578063095ea7b31461018557806323b872dd146101805780633a46b1a81461017b57806342842e0e146101765780634bf5d7e914610171578063587cde1e1461016c5780635c19a95c146101675780635c975abb146101625780636352211e1461015d57806370a08231146101585780637ecebe001461015357806384b0196e1461014e5780638e539e8c1461014957806391ddadf41461014457806395d89b411461013f5780639ab24eb01461013a578063a22cb46514610135578063b88d4fde14610130578063c3cda5201461012b578063c87b56dd146101265763e985e9c514610121575f80fd5b610d7f565b610d2e565b610c60565b610bd9565b610a4c565b610a05565b610981565b610956565b610847565b610750565b610718565b6106ed565b6106bd565b61069b565b610679565b610640565b6105af565b610588565b6104de565b6104c7565b610397565b61032f565b61026f565b6101af565b6001600160e01b03198116036101ab57565b5f80fd5b346101ab5760203660031901126101ab5760206004356101ce81610199565b63ffffffff60e01b166380ac58cd60e01b811490811561020c575b81156101fb575b506040519015158152f35b6301ffc9a760e01b1490505f6101f0565b635b5e139f60e01b811491506101e9565b91908251928382525f5b848110610247575050825f602080949584010152601f8019910116010190565b602081830181015184830182015201610227565b90602061026c92818152019061021d565b90565b346101ab575f8060031936011261032c5760405181805461028f816110fc565b8084529060019081811690811561030457506001146102c9575b6102c5846102b981880382610b8e565b6040519182918261025b565b0390f35b93508180526020938483205b8284106102f157505050816102c5936102b992820101936102a9565b80548585018701529285019281016102d5565b6102c596506102b99450602092508593915060ff191682840152151560051b820101936102a9565b80fd5b346101ab5760203660031901126101ab5760043561034c81611459565b505f526004602052602060018060a01b0360405f205416604051908152f35b600435906001600160a01b03821682036101ab57565b602435906001600160a01b03821682036101ab57565b346101ab5760403660031901126101ab576103b061036b565b602435906103bd82611459565b3315158061047f575b80610452575b61043a57610438926104199181906001600160a01b0385811691167f8c5be1e5ebec7d5bd14f71427d1e84f3dd0314c0f7b2291e5b200ac8c7c3b9255f80a45f52600460205260405f2090565b80546001600160a01b0319166001600160a01b03909216919091179055565b005b60405163a9fbf51f60e01b8152336004820152602490fd5b506001600160a01b0381165f90815260056020908152604080832033845290915290205460ff16156103cc565b506001600160a01b0381163314156103c6565b60609060031901126101ab576001600160a01b039060043582811681036101ab579160243590811681036101ab579060443590565b346101ab576104386104d836610492565b91611134565b346101ab5760403660031901126101ab576104f761036b565b60243561050343611b64565b9165ffffffffffff831682101561055d576001600160a01b03165f908152600d602052604090206102c592506001600160d01b039161054c919061054690611b64565b90611bb2565b604051911681529081906020820190565b50604051637669fc0f60e11b8152600481019190915265ffffffffffff919091166024820152604490fd5b346101ab5761043861059936610492565b90604051926105a784610b1d565b5f8452611335565b346101ab575f3660031901126101ab576105c843611b64565b65ffffffffffff806105d943611b64565b1691160361062e576102c56040516105f081610b3d565b601d81527f6d6f64653d626c6f636b6e756d6265722666726f6d3d64656661756c74000000602082015260405191829160208352602083019061021d565b6040516301bfc1c560e61b8152600490fd5b346101ab5760203660031901126101ab5760206001600160a01b038061066461036b565b165f52600c825260405f205416604051908152f35b346101ab5760203660031901126101ab5761043861069561036b565b33610ddb565b346101ab575f3660031901126101ab57602060ff600854166040519015158152f35b346101ab5760203660031901126101ab5760206106db600435611459565b6040516001600160a01b039091168152f35b346101ab5760203660031901126101ab57602061071061070b61036b565b6110c6565b604051908152f35b346101ab5760203660031901126101ab576001600160a01b0361073961036b565b165f52600b602052602060405f2054604051908152f35b346101ab575f8060031936011261032c576107f99061078e7f000000000000000000000000000000000000000000000000000000000000000061198c565b6107b77f0000000000000000000000000000000000000000000000000000000000000000611a7e565b91604051916107c583610b1d565b818352604051948594600f60f81b86526107eb60209360e08589015260e088019061021d565b90868203604088015261021d565b904660608601523060808601528260a086015284820360c08601528080855193848152019401925b82811061083057505050500390f35b835185528695509381019392810192600101610821565b346101ab5760203660031901126101ab5760043561086443611b64565b9065ffffffffffff9182811682101561092f575061088190611b64565b600e54905f9082600581116108d6575b5061089c9350612127565b5f816108ba57505060205f5b6040516001600160d01b039091168152f35b60206108c68193611b96565b91600e815220015460301c6108a8565b90926108e182611c84565b820391821161092a57600e83525f8051602061221383398151915282015461089c9590811690851610156109185750915b5f610891565b92915061092490611ba4565b90610912565b6110b2565b604051637669fc0f60e11b8152600481019290925265ffffffffffff166024820152604490fd5b346101ab575f3660031901126101ab57602061097143611b64565b65ffffffffffff60405191168152f35b346101ab575f8060031936011261032c576040518160018054906109a4826110fc565b8085529181811690811561030457506001146109ca576102c5846102b981880382610b8e565b80945082526020938483205b8284106109f257505050816102c5936102b992820101936102a9565b80548585018701529285019281016109d6565b346101ab5760203660031901126101ab576001600160a01b03610a2661036b565b165f52600d602052602060018060d01b03610a4360405f20611e0b565b16604051908152f35b346101ab5760403660031901126101ab57610a6561036b565b6024358015158082036101ab576001600160a01b038316928315610af057335f9081526005602090815260408083206001600160a01b039094168352929052209060ff801983541691161790557f17307eab39ab6107e8899845ad3d59bd9653f200f220920489ca2b5937696c3160405180610aeb339482919091602081019215159052565b0390a3005b604051630b61174360e31b815260048101859052602490fd5b634e487b7160e01b5f52604160045260245ffd5b602081019081106001600160401b03821117610b3857604052565b610b09565b604081019081106001600160401b03821117610b3857604052565b60a081019081106001600160401b03821117610b3857604052565b60c081019081106001600160401b03821117610b3857604052565b90601f801991011681019081106001600160401b03821117610b3857604052565b60405190610bbc82610b3d565b565b6001600160401b038111610b3857601f01601f191660200190565b346101ab5760803660031901126101ab57610bf261036b565b610bfa610381565b606435916001600160401b0383116101ab57366023840112156101ab57826004013591610c2683610bbe565b92610c346040519485610b8e565b80845236602482870101116101ab576020815f9260246104389801838801378501015260443591611335565b346101ab5760c03660031901126101ab57610c7961036b565b6044359060243560643560ff811681036101ab57834211610d1557610d0961043894610d10926040519060208201927fe48329057bfd03d55e49b547132e39cffd9c1820ad7b9d4c5307691425d15adf845260018060a01b0388166040840152866060840152608083015260808252610cf182610b58565b610d0460a435936084359351902061184c565b611705565b9182611677565b610ddb565b604051632341d78760e11b815260048101859052602490fd5b346101ab5760203660031901126101ab57610d4a600435611459565b505f604051610d5881610b1d565b526102c5604051610d6881610b1d565b5f815260405191829160208352602083019061021d565b346101ab5760403660031901126101ab57602060ff610dcf610d9f61036b565b610da7610381565b6001600160a01b039182165f9081526005865260408082209290931681526020919091522090565b54166040519015158152f35b6001600160a01b038181165f818152600c6020526040812080548685166001600160a01b0319821681179092559095931693610e40929091869186917f3134e8a2e6d97e929a7e54011ea5485d7d196dd5f0ba4d4ef95803e8e3fc257f9080a46110c6565b918381141580610f4d575b610e56575b50505050565b80610ec5575b5082610e69575b80610e50565b6001600160a01b03165f908152600d602052604090205f8051602061223383398151915291610ea291610e9c9091611b31565b90611080565b604080516001600160d01b039384168152919092166020820152a25f8080610e63565b6001600160a01b0381165f908152600d60205260409020610ee584611b31565b610eee43611b64565b6001600160d01b03918280610f0286611e0b565b16911690039282841161092a575f8051602061223383398151915293610f4492610f2b92612049565b6040805192851683529316602082015291829190820190565b0390a25f610e5c565b50821515610e4b565b6001600160a01b038083169291908116908184141580611044575b610f7b5750505050565b81610fe0575b505081610f90575b8080610e50565b6001600160a01b03165f908152600d602052604090205f8051602061223383398151915290610fbe9061104c565b604080516001600160d01b039384168152919092166020820152a25f80610f89565b6001600160a01b03165f908152600d60205260409020610fff43611b64565b6001600160d01b03905f198261101485611e0b565b16019282841161092a575f805160206122338339815191529361103a92610f2b92612049565b0390a25f80610f81565b506001610f71565b61105543611b64565b6001600160d01b039060018261106a85611e0b565b160191821161092a5761107c92612049565b9091565b9061108a43611b64565b6001600160d01b0391828061109e86611e0b565b169116019182116110b25761107c92612049565b634e487b7160e01b5f52601160045260245ffd5b6001600160a01b031680156110e4575f52600360205260405f205490565b6040516322718ad960e21b81525f6004820152602490fd5b90600182811c9216801561112a575b602083101461111657565b634e487b7160e01b5f52602260045260245ffd5b91607f169161110b565b906001600160a01b0380821690811561131d5760ff6008541661130b5761115a85611503565b9233151580611265575b508184169283158015611239575b6001600160a01b0383165f908152600360205260409020600181540190556111a6836104198a5f52600260205260405f2090565b8760405192867fddf252ad1be2c89b69c2b068fc378daa952ba7f163c4a11628f55a4df523b3ef5f80a480611230575b61122157506111e590846115c0565b8316036111f157505050565b6040516364283d7b60e01b81526001600160a01b0392831660048201526024810193909352166044820152606490fd5b6356c4a82960e11b8152600490fd5b50303b156111d6565b61124288611437565b6001600160a01b0386165f90815260036020526040902080545f19019055611172565b806112bc575b15611276575f611164565b5092505016155f1461129c57604051637e27328960e01b81526004810191909152602490fd5b60405163177e802f60e01b81523360048201526024810191909152604490fd5b508184163381149081156112e8575b508061126b5750855f526004602052338260405f2054161461126b565b5f90815260056020908152604080832033845290915281205460ff1691506112cb565b60405163d93c066560e01b8152600490fd5b604051633250574960e11b81525f6004820152602490fd5b91929092611344818585611134565b833b6113505750505050565b611375916020916040519384928392630a85bd0160e11b9788855233600486016114a3565b03815f6001600160a01b0388165af15f9181611407575b506113cb578261139a6114d4565b80519190826113c457604051633250574960e11b81526001600160a01b0383166004820152602490fd5b9050602001fd5b6001600160e01b031916036113e457505f808080610e50565b604051633250574960e11b81526001600160a01b03919091166004820152602490fd5b61142991925060203d8111611430575b6114218183610b8e565b81019061148e565b905f61138c565b503d611417565b611449905f52600460205260405f2090565b80546001600160a01b0319169055565b61146281611503565b906001600160a01b03821615611476575090565b60249060405190637e27328960e01b82526004820152fd5b908160209103126101ab575161026c81610199565b6001600160a01b03918216815291166020820152604081019190915260806060820181905261026c9291019061021d565b3d156114fe573d906114e582610bbe565b916114f36040519384610b8e565b82523d5f602084013e565b606090565b5f818152600260205260408120549091906001600160a01b031680158015906115b0575b801561157e575b6115785750600881901c825260076020526040822054600160ff83161b1615611555575090565b61026c91506001600160601b0361156c911661219b565b6001600160a01b031690565b91505090565b506001600160601b037f000000000000000000000000000000000000000000000000000000000000000016821061152e565b506001600160601b038211611527565b6001600160a01b03908116918190831561163c575b169081156115ff575b610bbc925f52600c6020528060405f205416915f5260405f20541690610f56565b61160843611b64565b6001600160d01b0393905f198561161d611dd4565b160194851161092a57610bbc9461163391611f24565b505092506115de565b905061164743611b64565b6001600160d01b03919060018361165c611dd4565b160192831161092a57839261167091611f24565b50506115d5565b6001600160a01b0381165f908152600b60205260409020805460018101909155918290036116a3575050565b6040516301d4b62360e61b81526001600160a01b039190911660048201526024810191909152604490fd5b604051906116db82610b3d565b60208083523683820137565b81156116f1570490565b634e487b7160e01b5f52601260045260245ffd5b9161026c93916117149361171d565b909291926117bf565b91906fa2a8918ca85bafe22016d0b997e4df60600160ff1b03841161179657926020929160ff6080956040519485521684840152604083015260608201525f92839182805260015afa1561178a5780516001600160a01b0381161561178157918190565b50809160019190565b604051903d90823e3d90fd5b5050505f9160039190565b600411156117ab57565b634e487b7160e01b5f52602160045260245ffd5b6117c8816117a1565b806117d1575050565b6117da816117a1565b600181036117f45760405163f645eedf60e01b8152600490fd5b6117fd816117a1565b6002810361181e5760405163fce698f760e01b815260048101839052602490fd5b8061182a6003926117a1565b146118325750565b6040516335e2f38360e21b81526004810191909152602490fd5b604290611857611872565b906040519161190160f01b8352600283015260228201522090565b307f00000000000000000000000000000000000000000000000000000000000000006001600160a01b03161480611963575b156118cd577f000000000000000000000000000000000000000000000000000000000000000090565b60405160208101907f8b73c3c69bb8fe3d512ecc4cf759cc79239f7b179b0ffacaa9a75d522b39400f82527f000000000000000000000000000000000000000000000000000000000000000060408201527f000000000000000000000000000000000000000000000000000000000000000060608201524660808201523060a082015260a0815261195d81610b73565b51902090565b507f000000000000000000000000000000000000000000000000000000000000000046146118a4565b60ff81146119c65760ff811690601f82116119b4576119a96116ce565b918252602082015290565b604051632cd44ac360e21b8152600490fd5b50604051600954815f6119d8836110fc565b808352600193808516908115611a5d57506001146119fe575b5061026c92500382610b8e565b60095f9081527f6e1540171b6c0c960b71a7020d9f60077f6af931a8bbf590da0223dacf75c7af94602093509091905b818310611a4557505061026c93508201015f6119f1565b85548784018501529485019486945091830191611a2e565b905061026c94506020925060ff191682840152151560051b8201015f6119f1565b60ff8114611a9b5760ff811690601f82116119b4576119a96116ce565b50604051600a54815f611aad836110fc565b808352600193808516908115611a5d5750600114611ad2575061026c92500382610b8e565b600a5f9081527fc65a7bb8d6351c1cf70c95a316cc6a92839c986682d98bc35f958f4883f9d2a894602093509091905b818310611b1957505061026c93508201015f6119f1565b85548784018501529485019486945091830191611b02565b6001600160d01b0390818111611b45571690565b604490604051906306dfcc6560e41b825260d060048301526024820152fd5b65ffffffffffff90818111611b77571690565b604490604051906306dfcc6560e41b8252603060048301526024820152fd5b5f1981019190821161092a57565b906001820180921161092a57565b908154905f8260058111611c3a575b50905b828210611bf45750505f81155f14611bdd575050505f90565b611be8602092611b96565b92815220015460301c90565b9091611c008184612186565b90845f5265ffffffffffff808360205f20015416908416105f14611c275750915b90611bc4565b92506001810180911115611c21576110b2565b9092611c4582611c84565b820391821161092a5784845265ffffffffffff808360208720015416908416105f14611c745750915b5f611bc1565b9250611c7f90611ba4565b611c6e565b8015611dbd5780611d56611d4f611d45611d3b611d31611d27611d1d611d13600161026c9a5f908b60801c80611db1575b508060401c80611da4575b508060201c80611d97575b508060101c80611d8a575b508060081c80611d7d575b508060041c80611d70575b508060021c80611d63575b50821c611d5c575b811c1b611d0c818b6116e7565b0160011c90565b611d0c818a6116e7565b611d0c81896116e7565b611d0c81886116e7565b611d0c81876116e7565b611d0c81866116e7565b611d0c81856116e7565b80926116e7565b90611dc2565b8101611cff565b600291509101905f611cf7565b600491509101905f611cec565b600891509101905f611ce1565b601091509101905f611cd6565b602091509101905f611ccb565b604091509101905f611cc0565b9150506080905f611cb5565b505f90565b9080821015611dcf575090565b905090565b600e545f9080611de45750505f90565b5f1991818381011161092a57600e9052015f80516020612213833981519152015460301c90565b80545f9181611e1b575050505f90565b5f1992828481011161092a5760209181522001015460301c90565b600e5490600160401b821015610b38576001820180600e55821015611e8e57600e5f5280516020919091015160301b65ffffffffffff191665ffffffffffff91909116175f8051602061221383398151915290910155565b634e487b7160e01b5f52603260045260245ffd5b908154600160401b811015610b385760018101808455811015611e8e575f9283526020928390208251929093015160301b65ffffffffffff191665ffffffffffff9290921691909117910155565b90604051604081018181106001600160401b03821117610b3857604052915465ffffffffffff8116835260301c6020830152565b600e5491929190811561202057611f5b611f56611f4084611b96565b600e5f525f805160206122138339815191520190565b611ef0565b805165ffffffffffff838116949116841061200e5785602093611fd295611f96611f8b865165ffffffffffff1690565b65ffffffffffff1690565b03611fd65750611fab611f40611fc493611b96565b9065ffffffffffff82549181199060301b169116179055565b01516001600160d01b031690565b9190565b90506120099150611ff6611fe8610baf565b65ffffffffffff9092168252565b6001600160d01b03871681850152611e36565b611fc4565b604051632520601d60e01b8152600490fd5b6120449150612030611fe8610baf565b6001600160d01b0384166020820152611e36565b5f9190565b80549293929190821561210357612070611f5661206585611b96565b835f5260205f200190565b90612081825165ffffffffffff1690565b65ffffffffffff8481169116811061200e57611fd29460209488926120af611f8b875165ffffffffffff1690565b036120d05750611fc4926120c5611fab92611b96565b905f5260205f200190565b915050612009916120f06120e2610baf565b65ffffffffffff9093168352565b6001600160d01b03881682860152611ea2565b61204492506121136120e2610baf565b6001600160d01b0385166020830152611ea2565b82821061213357505090565b909161213f8184612186565b600e5f525f8051602061221383398151915281015490919065ffffffffffff90811690841610156121735750915b90612127565b9250600181018091111561216d576110b2565b90808216911860011c810180911161092a5790565b600680545f9281935b8481106121cc5750505f9083145f146121be575050505f90565b602091815220015460601c90565b6121d68582612186565b9081855f526001600160601b03808260205f20015416908516115f1461220957505060018101809111156121a4576110b2565b955090506121a456febb7b4a454dc3493923482f07822329ed19e8244eff582cc204f8554c3620c3fddec2bacdd2f05b59de34da9b523dff8be42e5e38e818c82fdb0bae774387a724a26469706673582212201bd52ecb37f1828d9f9b2b6897be37839a994f6e6c457d792b877f1e107aedff64736f6c63430008140033bb7b4a454dc3493923482f07822329ed19e8244eff582cc204f8554c3620c3fdf652222313e28459528d920b65115c16c04f3efc82aaedc97be59f3f377c0d3fdec2bacdd2f05b59de34da9b523dff8be42e5e38e818c82fdb0bae774387a724","linkReferences":{}},"methodIdentifiers":{"CLOCK_MODE()":"4bf5d7e9","approve(address,uint256)":"095ea7b3","balanceOf(address)":"70a08231","clock()":"91ddadf4","delegate(address)":"5c19a95c","delegateBySig(address,uint256,uint256,uint8,bytes32,bytes32)":"c3cda520","delegates(address)":"587cde1e","eip712Domain()":"84b0196e","getApproved(uint256)":"081812fc","getPastTotalSupply(uint256)":"8e539e8c","getPastVotes(address,uint256)":"3a46b1a8","getVotes(address)":"9ab24eb0","isApprovedForAll(address,address)":"e985e9c5","name()":"06fdde03","nonces(address)":"7ecebe00","ownerOf(uint256)":"6352211e","paused()":"5c975abb","safeTransferFrom(address,address,uint256)":"42842e0e","safeTransferFrom(address,address,uint256,bytes)":"b88d4fde","setApprovalForAll(address,bool)":"a22cb465","supportsInterface(bytes4)":"01ffc9a7","symbol()":"95d89b41","tokenURI(uint256)":"c87b56dd","transferFrom(address,address,uint256)":"23b872dd"},"id":303}