{"abi":[{"type":"constructor","inputs":[{"name":"configFilePath","type":"string","internalType":"string"},{"name":"writeToFile","type":"bool","internalType":"bool"}],"stateMutability":"nonpayable"},{"type":"function","name":"get","inputs":[{"name":"key","type":"string","internalType":"string"}],"outputs":[{"name":"","type":"tuple","internalType":"struct Variable","components":[{"name":"ty","type":"tuple","internalType":"struct Type","components":[{"name":"kind","type":"uint8","internalType":"enum TypeKind"},{"name":"isArray","type":"bool","internalType":"bool"}]},{"name":"data","type":"bytes","internalType":"bytes"}]}],"stateMutability":"view"},{"type":"function","name":"get","inputs":[{"name":"chain_id","type":"uint256","internalType":"uint256"},{"name":"key","type":"string","internalType":"string"}],"outputs":[{"name":"","type":"tuple","internalType":"struct Variable","components":[{"name":"ty","type":"tuple","internalType":"struct Type","components":[{"name":"kind","type":"uint8","internalType":"enum TypeKind"},{"name":"isArray","type":"bool","internalType":"bool"}]},{"name":"data","type":"bytes","internalType":"bytes"}]}],"stateMutability":"view"},{"type":"function","name":"getChainIds","inputs":[],"outputs":[{"name":"","type":"uint256[]","internalType":"uint256[]"}],"stateMutability":"view"},{"type":"function","name":"getRpcUrl","inputs":[],"outputs":[{"name":"","type":"string","internalType":"string"}],"stateMutability":"view"},{"type":"function","name":"getRpcUrl","inputs":[{"name":"chainId","type":"uint256","internalType":"uint256"}],"outputs":[{"name":"","type":"string","internalType":"string"}],"stateMutability":"view"},{"type":"function","name":"resolveChainId","inputs":[{"name":"aliasOrId","type":"string","internalType":"string"}],"outputs":[{"name":"","type":"uint256","internalType":"uint256"}],"stateMutability":"view"},{"type":"function","name":"set","inputs":[{"name":"chainId","type":"uint256","internalType":"uint256"},{"name":"key","type":"string","internalType":"string"},{"name":"value","type":"int256","internalType":"int256"}],"outputs":[],"stateMutability":"nonpayable"},{"type":"function","name":"set","inputs":[{"name":"chainId","type":"uint256","internalType":"uint256"},{"name":"key","type":"string","internalType":"string"},{"name":"value","type":"bytes32[]","internalType":"bytes32[]"}],"outputs":[],"stateMutability":"nonpayable"},{"type":"function","name":"set","inputs":[{"name":"chainId","type":"uint256","internalType":"uint256"},{"name":"key","type":"string","internalType":"string"},{"name":"value","type":"uint256","internalType":"uint256"}],"outputs":[],"stateMutability":"nonpayable"},{"type":"function","name":"set","inputs":[{"name":"key","type":"string","internalType":"string"},{"name":"value","type":"bytes","internalType":"bytes"}],"outputs":[],"stateMutability":"nonpayable"},{"type":"function","name":"set","inputs":[{"name":"key","type":"string","internalType":"string"},{"name":"value","type":"bytes32","internalType":"bytes32"}],"outputs":[],"stateMutability":"nonpayable"},{"type":"function","name":"set","inputs":[{"name":"key","type":"string","internalType":"string"},{"name":"value","type":"int256","internalType":"int256"}],"outputs":[],"stateMutability":"nonpayable"},{"type":"function","name":"set","inputs":[{"name":"chainId","type":"uint256","internalType":"uint256"},{"name":"key","type":"string","internalType":"string"},{"name":"value","type":"bytes","internalType":"bytes"}],"outputs":[],"stateMutability":"nonpayable"},{"type":"function","name":"set","inputs":[{"name":"key","type":"string","internalType":"string"},{"name":"value","type":"string[]","internalType":"string[]"}],"outputs":[],"stateMutability":"nonpayable"},{"type":"function","name":"set","inputs":[{"name":"chainId","type":"uint256","internalType":"uint256"},{"name":"key","type":"string","internalType":"string"},{"name":"value","type":"address","internalType":"address"}],"outputs":[],"stateMutability":"nonpayable"},{"type":"function","name":"set","inputs":[{"name":"chainId","type":"uint256","internalType":"uint256"},{"name":"key","type":"string","internalType":"string"},{"name":"value","type":"address[]","internalType":"address[]"}],"outputs":[],"stateMutability":"nonpayable"},{"type":"function","name":"set","inputs":[{"name":"chainId","type":"uint256","internalType":"uint256"},{"name":"key","type":"string","internalType":"string"},{"name":"value","type":"string","internalType":"string"}],"outputs":[],"stateMutability":"nonpayable"},{"type":"function","name":"set","inputs":[{"name":"key","type":"string","internalType":"string"},{"name":"value","type":"uint256[]","internalType":"uint256[]"}],"outputs":[],"stateMutability":"nonpayable"},{"type":"function","name":"set","inputs":[{"name":"key","type":"string","internalType":"string"},{"name":"value","type":"address[]","internalType":"address[]"}],"outputs":[],"stateMutability":"nonpayable"},{"type":"function","name":"set","inputs":[{"name":"key","type":"string","internalType":"string"},{"name":"value","type":"uint256","internalType":"uint256"}],"outputs":[],"stateMutability":"nonpayable"},{"type":"function","name":"set","inputs":[{"name":"chainId","type":"uint256","internalType":"uint256"},{"name":"key","type":"string","internalType":"string"},{"name":"value","type":"int256[]","internalType":"int256[]"}],"outputs":[],"stateMutability":"nonpayable"},{"type":"function","name":"set","inputs":[{"name":"chainId","type":"uint256","internalType":"uint256"},{"name":"key","type":"string","internalType":"string"},{"name":"value","type":"bytes[]","internalType":"bytes[]"}],"outputs":[],"stateMutability":"nonpayable"},{"type":"function","name":"set","inputs":[{"name":"key","type":"string","internalType":"string"},{"name":"value","type":"address","internalType":"address"}],"outputs":[],"stateMutability":"nonpayable"},{"type":"function","name":"set","inputs":[{"name":"chainId","type":"uint256","internalType":"uint256"},{"name":"key","type":"string","internalType":"string"},{"name":"value","type":"bool","internalType":"bool"}],"outputs":[],"stateMutability":"nonpayable"},{"type":"function","name":"set","inputs":[{"name":"key","type":"string","internalType":"string"},{"name":"value","type":"bool","internalType":"bool"}],"outputs":[],"stateMutability":"nonpayable"},{"type":"function","name":"set","inputs":[{"name":"key","type":"string","internalType":"string"},{"name":"value","type":"bytes[]","internalType":"bytes[]"}],"outputs":[],"stateMutability":"nonpayable"},{"type":"function","name":"set","inputs":[{"name":"chainId","type":"uint256","internalType":"uint256"},{"name":"key","type":"string","internalType":"string"},{"name":"value","type":"bytes32","internalType":"bytes32"}],"outputs":[],"stateMutability":"nonpayable"},{"type":"function","name":"set","inputs":[{"name":"chainId","type":"uint256","internalType":"uint256"},{"name":"key","type":"string","internalType":"string"},{"name":"value","type":"string[]","internalType":"string[]"}],"outputs":[],"stateMutability":"nonpayable"},{"type":"function","name":"set","inputs":[{"name":"chainId","type":"uint256","internalType":"uint256"},{"name":"key","type":"string","internalType":"string"},{"name":"value","type":"uint256[]","internalType":"uint256[]"}],"outputs":[],"stateMutability":"nonpayable"},{"type":"function","name":"set","inputs":[{"name":"key","type":"string","internalType":"string"},{"name":"value","type":"int256[]","internalType":"int256[]"}],"outputs":[],"stateMutability":"nonpayable"},{"type":"function","name":"set","inputs":[{"name":"chainId","type":"uint256","internalType":"uint256"},{"name":"key","type":"string","internalType":"string"},{"name":"value","type":"bool[]","internalType":"bool[]"}],"outputs":[],"stateMutability":"nonpayable"},{"type":"function","name":"set","inputs":[{"name":"key","type":"string","internalType":"string"},{"name":"value","type":"bytes32[]","internalType":"bytes32[]"}],"outputs":[],"stateMutability":"nonpayable"},{"type":"function","name":"set","inputs":[{"name":"key","type":"string","internalType":"string"},{"name":"value","type":"string","internalType":"string"}],"outputs":[],"stateMutability":"nonpayable"},{"type":"function","name":"set","inputs":[{"name":"key","type":"string","internalType":"string"},{"name":"value","type":"bool[]","internalType":"bool[]"}],"outputs":[],"stateMutability":"nonpayable"},{"type":"function","name":"writeUpdatesBackToFile","inputs":[{"name":"enabled","type":"bool","internalType":"bool"}],"outputs":[],"stateMutability":"nonpayable"},{"type":"error","name":"AlreadyInitialized","inputs":[{"name":"key","type":"string","internalType":"string"}]},{"type":"error","name":"ChainNotInitialized","inputs":[{"name":"chainId","type":"uint256","internalType":"uint256"}]},{"type":"error","name":"InvalidChainKey","inputs":[{"name":"aliasOrId","type":"string","internalType":"string"}]},{"type":"error","name":"TypeMismatch","inputs":[{"name":"expected","type":"string","internalType":"string"},{"name":"actual","type":"string","internalType":"string"}]},{"type":"error","name":"UnableToParseVariable","inputs":[{"name":"key","type":"string","internalType":"string"}]},{"type":"error","name":"WriteToFileInForbiddenCtxt","inputs":[]}],"bytecode":{"object":"0x60808060405234620009735762007499803803809162000020828562002a1b565b8339810160408282031262000973578151906001600160401b0382116200097357620000556020916200005d93850162002a62565b920162002abd565b808062002977575b620029655781516001600160401b0381116200087f57620000875f5462002acb565b601f811162002910575b506020601f821160011462002897579181620000f894925f9485916200288b575b508160011b9185199060031b1c19161783555b60ff8019600554169115151617600555604051809381926360f9bb1160e01b835260206004840152602483019062002c54565b03815f80516020620074598339815191525afa9081156200274e5762000146915f91829162002759575b506040518093819263ddd2128d60e01b835260206004840152602483019062002c54565b0381835f80516020620074598339815191525af19081156200274e575f916200286d575b50604051634095225960e11b8152604060048201525f8160408162000193604482018762002c54565b60031982820301602483015260018152600960fa1b60208201520301815f80516020620074598339815191525afa9081156200274e575f916200284f575b505f905b80518210156200283f57620001eb828262002d44565b5190620002485f60405161121760f11b60208201526200022c60228287516200021b8184840160208c0162002a3f565b810103600281018452018262002a1b565b60405180938192634095225960e11b8352896004840162002d59565b03815f80516020620074598339815191525afa9081156200274e575f9162002821575b50511562002814576200027e8262002efd565b90600154680100000000000000008110156200087f576001810180600155811015620028005760015f52620002d79084907fb10e2d527612073b26eecdfd717e6a320cf44b4afac2b0732d9fcbe2b7fa0cf60162002b5e565b620003495f60405161121760f11b60208201526200032d602f82885162000306816022840160208d0162002a3f565b81016c0b995b991c1bda5b9d17dd5c9b609a1b602282015203600f81018452018262002a1b565b60405180938192638bb8dd4360e01b83528a6004840162002d59565b03815f80516020620074598339815191525afa5f9181620027e0575b5062002777575060405163975a6ce960e01b8152602060048201525f818062000392602482018862002c54565b03815f80516020620074598339815191525afa9081156200274e57620003df915f9182916200275957506040518093819263ddd2128d60e01b835260206004840152602483019062002c54565b0381835f80516020620074598339815191525af180156200274e576200041a915f9162002730575b50835f52600260205260405f2062002b5e565b60015b600760ff8216116200271957600860ff8216101580620007f2576200044560ff831662002d82565b90620004aa6023604051809461121760f11b6020830152895162000472818c602060228701910162002a3f565b601760f91b60228285010152620004958251809360208785880101910162002a3f565b82010181900360038101909152018362002a1b565b604051634095225960e11b8152915f8380620004cb848d6004840162002d59565b03815f80516020620074598339815191525afa5f9381620026f9575b506200051c575b50505060ff80821614620005085760ff166001016200041d565b634e487b7160e01b5f52601160045260245ffd5b935f989397919692985b8951811015620026e7576200053c818b62002d44565b51875f52600460205260ff60405f20602060405180928551620005638184868a0162002a3f565b82019081520301902054166008811015620007f257620026c05788604051620005cf6021828b6200059e815180926020808601910162002a3f565b8101601760f91b6020820152865190620005bf8285830160208b0162002a3f565b0103600181018452018262002a1b565b5f91620007f25760ff8c1660010362000b4857604051636986e76b60e11b81526020818062000603858d6004840162002d59565b03815f80516020620074598339815191525afa5f918162000b04575b506200097757505f62000648916040518093819263093e7f4d60e11b83528c6004840162002d59565b03815f80516020620074598339815191525afa5f9181620008b2575b50620006b0575b505b156200068557506200067f9062002d35565b62000526565b60405163ea00fa1360e01b815260206004820152908190620006ac90602483019062002c54565b0390fd5b90506040519081604081019160208083015280518093526020606083019101925f905b80821062000893575050620006f2925003601f19810183528262002a1b565b885f52600360205260405f20602060405180928551620007168184868a0162002a3f565b820190815203019020815190916001600160401b0382116200087f5781906200074c8262000745865462002acb565b8662002b06565b602090601f831160011462000812575f9262000806575b50508160011b915f199060031b1c19161790555b6040516200078581620029ff565b6001815260016020820152885f52600460205260405f20602060405180928551620007b48184868a0162002a3f565b820190815203019020908051906008821015620007f25760ff61ff0060208554930151151560081b1692169061ffff19161717905560015f6200066b565b634e487b7160e01b5f52602160045260245ffd5b015190505f8062000763565b9250835f5260205f20905f935b601f198416851062000863576001945083601f198116106200084a575b505050811b01905562000777565b01515f1960f88460031b161c191690555f80806200083c565b818101518355602094850194600190930192909101906200081f565b634e487b7160e01b5f52604160045260245ffd5b91600191935060208091865115158152019401920184929391620006d3565b9091503d90815f823e620008c7828262002a1b565b602081838101031262000973578051916001600160401b0383116200097357808201601f84840101121562000973578282015191620009068362002c7b565b9362000916604051958662002a1b565b8385526020850192820160208560051b8385010101116200097357602081830101925b60208560051b8385010101841062000958575050505050905f62000664565b60208091620009678662002abd565b81520193019262000939565b5f80fd5b9150506040519015156020820152602081526200099481620029ff565b885f52600360205260405f20602060405180928551620009b88184868a0162002a3f565b820190815203019020815190916001600160401b0382116200087f578190620009e78262000745865462002acb565b602090601f831160011462000a97575f9262000a8b575b50508160011b915f199060031b1c19161790555b60405162000a2081620029ff565b600181525f6020820152885f52600460205260405f2060206040518092855162000a4e8184868a0162002a3f565b820190815203019020908051906008821015620007f25760ff61ff0060208554930151151560081b1692169061ffff19161717905560016200066d565b015190505f80620009fe565b9250835f5260205f20905f935b601f198416851062000ae8576001945083601f1981161062000acf575b505050811b01905562000a12565b01515f1960f88460031b161c191690555f808062000ac1565b8181015183556020948501946001909301929091019062000aa4565b9091506020813d60201162000b3f575b8162000b236020938362002a1b565b81010312620009735762000b379062002abd565b905f6200061f565b3d915062000b14565b5f9a5060ff8c166002036200101d57604051631979f21160e21b81526020818062000b78858d6004840162002d59565b03815f80516020620074598339815191525afa5f918162000fd9575b5062000e8357505f62000bbd91604051809381926365c428e760e01b83528c6004840162002d59565b03815f80516020620074598339815191525afa5f918162000dc2575b5062000be7575b506200066d565b90506040519081604081019160208083015280518093526020606083019101925f905b80821062000d9b57505062000c29925003601f19810183528262002a1b565b885f52600360205260405f2060206040518092855162000c4d8184868a0162002a3f565b820190815203019020815190916001600160401b0382116200087f57819062000c7c8262000745865462002acb565b602090601f831160011462000d2e575f9262000d22575b50508160011b915f199060031b1c19161790555b60405162000cb581620029ff565b6002815260016020820152885f52600460205260405f2060206040518092855162000ce48184868a0162002a3f565b820190815203019020908051906008821015620007f25760ff61ff0060208554930151151560081b1692169061ffff19161717905560015f62000be0565b015190505f8062000c93565b9250835f5260205f20905f935b601f198416851062000d7f576001945083601f1981161062000d66575b505050811b01905562000ca7565b01515f1960f88460031b161c191690555f808062000d58565b8181015183556020948501946001909301929091019062000d3b565b84516001600160a01b03168352602094850194869450909201916001919091019062000c0a565b9091503d90815f823e62000dd7828262002a1b565b602081838101031262000973578051916001600160401b0383116200097357808201601f8484010112156200097357828201519162000e168362002c7b565b9362000e26604051958662002a1b565b8385526020850192820160208560051b8385010101116200097357602081830101925b60208560051b8385010101841062000e68575050505050905f62000bd9565b6020809162000e778662002ee8565b81520193019262000e49565b9150506040519060018060a01b031660208201526020815262000ea681620029ff565b885f52600360205260405f2060206040518092855162000eca8184868a0162002a3f565b820190815203019020815190916001600160401b0382116200087f57819062000ef98262000745865462002acb565b602090601f831160011462000f6c575f9262000f60575b50508160011b915f199060031b1c19161790555b60405162000f3281620029ff565b600281525f6020820152885f52600460205260405f2060206040518092855162000a4e8184868a0162002a3f565b015190505f8062000f10565b9250835f5260205f20905f935b601f198416851062000fbd576001945083601f1981161062000fa4575b505050811b01905562000f24565b01515f1960f88460031b161c191690555f808062000f96565b8181015183556020948501946001909301929091019062000f79565b9091506020813d60201162001014575b8162000ff86020938362002a1b565b8101031262000973576200100c9062002ee8565b905f62000b94565b3d915062000fe9565b5f9a5060ff8c166003036200148d576040516308e2148160e41b8152602081806200104d858d6004840162002d59565b03815f80516020620074598339815191525afa5f918162001453575b506200130557505f620010929160405180938192633e716f8160e01b83528c6004840162002d59565b03815f80516020620074598339815191525afa5f91816200124e575b50620010bb57506200066d565b90506040519081604081019160208083015280518093526020606083019101925f905b80821062001231575050620010fd925003601f19810183528262002a1b565b885f52600360205260405f20602060405180928551620011218184868a0162002a3f565b820190815203019020815190916001600160401b0382116200087f578190620011508262000745865462002acb565b602090601f8311600114620011c4575f92620011b8575b50508160011b915f199060031b1c19161790555b6040516200118981620029ff565b6003815260016020820152885f52600460205260405f2060206040518092855162000ce48184868a0162002a3f565b015190505f8062001167565b9250835f5260205f20905f935b601f198416851062001215576001945083601f19811610620011fc575b505050811b0190556200117b565b01515f1960f88460031b161c191690555f8080620011ee565b81810151835560209485019460019093019290910190620011d1565b9160019193506020809186518152019401920184929391620010de565b9091503d90815f823e62001263828262002a1b565b602081838101031262000973578051916001600160401b0383116200097357808201601f84840101121562000973578282015191620012a28362002c7b565b93620012b2604051958662002a1b565b8385526020850192820160208560051b8385010101116200097357602081830101925b60208560051b83850101018410620012f4575050505050905f620010ae565b8351815260209384019301620012d5565b915050604051906020820152602081526200132081620029ff565b885f52600360205260405f20602060405180928551620013448184868a0162002a3f565b820190815203019020815190916001600160401b0382116200087f578190620013738262000745865462002acb565b602090601f8311600114620013e6575f92620013da575b50508160011b915f199060031b1c19161790555b604051620013ac81620029ff565b600381525f6020820152885f52600460205260405f2060206040518092855162000a4e8184868a0162002a3f565b015190505f806200138a565b9250835f5260205f20905f935b601f198416851062001437576001945083601f198116106200141e575b505050811b0190556200139e565b01515f1960f88460031b161c191690555f808062001410565b81810151835560209485019460019093019290910190620013f3565b9091506020813d60201162001484575b81620014726020938362002a1b565b81010312620009735751905f62001069565b3d915062001463565b5f9a5060ff8c16600403620018fd5760405163cc7b048760e01b815260208180620014bd858d6004840162002d59565b03815f80516020620074598339815191525afa5f9181620018c3575b506200177557505f6200150291604051809381926316bbe4f960e31b83528c6004840162002d59565b03815f80516020620074598339815191525afa5f9181620016be575b506200152b57506200066d565b90506040519081604081019160208083015280518093526020606083019101925f905b808210620016a15750506200156d925003601f19810183528262002a1b565b885f52600360205260405f20602060405180928551620015918184868a0162002a3f565b820190815203019020815190916001600160401b0382116200087f578190620015c08262000745865462002acb565b602090601f831160011462001634575f9262001628575b50508160011b915f199060031b1c19161790555b604051620015f981620029ff565b6004815260016020820152885f52600460205260405f2060206040518092855162000ce48184868a0162002a3f565b015190505f80620015d7565b9250835f5260205f20905f935b601f198416851062001685576001945083601f198116106200166c575b505050811b019055620015eb565b01515f1960f88460031b161c191690555f80806200165e565b8181015183556020948501946001909301929091019062001641565b91600191935060208091865181520194019201849293916200154e565b9091503d90815f823e620016d3828262002a1b565b602081838101031262000973578051916001600160401b0383116200097357808201601f84840101121562000973578282015191620017128362002c7b565b9362001722604051958662002a1b565b8385526020850192820160208560051b8385010101116200097357602081830101925b60208560051b8385010101841062001764575050505050905f6200151e565b835181526020938401930162001745565b915050604051906020820152602081526200179081620029ff565b885f52600360205260405f20602060405180928551620017b48184868a0162002a3f565b820190815203019020815190916001600160401b0382116200087f578190620017e38262000745865462002acb565b602090601f831160011462001856575f926200184a575b50508160011b915f199060031b1c19161790555b6040516200181c81620029ff565b600481525f6020820152885f52600460205260405f2060206040518092855162000a4e8184868a0162002a3f565b015190505f80620017fa565b9250835f5260205f20905f935b601f1984168510620018a7576001945083601f198116106200188e575b505050811b0190556200180e565b01515f1960f88460031b161c191690555f808062001880565b8181015183556020948501946001909301929091019062001863565b9091506020813d602011620018f4575b81620018e26020938362002a1b565b81010312620009735751905f620014d9565b3d9150620018d3565b5f9a5060ff8c1660050362001d6d5760405163c135073960e01b8152602081806200192d858d6004840162002d59565b03815f80516020620074598339815191525afa5f918162001d33575b5062001be557505f6200197291604051809381926369a9157360e11b83528c6004840162002d59565b03815f80516020620074598339815191525afa5f918162001b2e575b506200199b57506200066d565b90506040519081604081019160208083015280518093526020606083019101925f905b80821062001b11575050620019dd925003601f19810183528262002a1b565b885f52600360205260405f2060206040518092855162001a018184868a0162002a3f565b820190815203019020815190916001600160401b0382116200087f57819062001a308262000745865462002acb565b602090601f831160011462001aa4575f9262001a98575b50508160011b915f199060031b1c19161790555b60405162001a6981620029ff565b6005815260016020820152885f52600460205260405f2060206040518092855162000ce48184868a0162002a3f565b015190505f8062001a47565b9250835f5260205f20905f935b601f198416851062001af5576001945083601f1981161062001adc575b505050811b01905562001a5b565b01515f1960f88460031b161c191690555f808062001ace565b8181015183556020948501946001909301929091019062001ab1565b9160019193506020809186518152019401920184929391620019be565b9091503d90815f823e62001b43828262002a1b565b602081838101031262000973578051916001600160401b0383116200097357808201601f8484010112156200097357828201519162001b828362002c7b565b9362001b92604051958662002a1b565b8385526020850192820160208560051b8385010101116200097357602081830101925b60208560051b8385010101841062001bd4575050505050905f6200198e565b835181526020938401930162001bb5565b9150506040519060208201526020815262001c0081620029ff565b885f52600360205260405f2060206040518092855162001c248184868a0162002a3f565b820190815203019020815190916001600160401b0382116200087f57819062001c538262000745865462002acb565b602090601f831160011462001cc6575f9262001cba575b50508160011b915f199060031b1c19161790555b60405162001c8c81620029ff565b600581525f6020820152885f52600460205260405f2060206040518092855162000a4e8184868a0162002a3f565b015190505f8062001c6a565b9250835f5260205f20905f935b601f198416851062001d17576001945083601f1981161062001cfe575b505050811b01905562001c7e565b01515f1960f88460031b161c191690555f808062001cf0565b8181015183556020948501946001909301929091019062001cd3565b9091506020813d60201162001d64575b8162001d526020938362002a1b565b81010312620009735751905f62001949565b3d915062001d43565b5f9a5060ff8c16600703620022465760405163d77bfdb960e01b81525f818062001d9c858d6004840162002d59565b03815f80516020620074598339815191525afa5f9181620021fc575b506200209757505f62001de1916040518093819263b197c24760e01b83528c6004840162002d59565b03815f80516020620074598339815191525afa5f918162001fba575b5062001e0a57506200066d565b905060405190816040810191602080830152805180935260606020818401918560051b8501019201935f905b80821062001f8a5750505062001e56925003601f19810183528262002a1b565b885f52600360205260405f2060206040518092855162001e7a8184868a0162002a3f565b820190815203019020815190916001600160401b0382116200087f57819062001ea98262000745865462002acb565b602090601f831160011462001f1d575f9262001f11575b50508160011b915f199060031b1c19161790555b60405162001ee281620029ff565b6007815260016020820152885f52600460205260405f2060206040518092855162000ce48184868a0162002a3f565b015190505f8062001ec0565b9250835f5260205f20905f935b601f198416851062001f6e576001945083601f1981161062001f55575b505050811b01905562001ed4565b01515f1960f88460031b161c191690555f808062001f47565b8181015183556020948501946001909301929091019062001f2a565b9193509160208062001fa9600193605f198a8203018852885162002c54565b960194019201859394929162001e36565b9091503d805f833e62001fce818362002a1b565b602082828101031262000973578151916001600160401b0383116200097357818101601f848301011215620009735782810151906200200d8262002c7b565b936200201d604051958662002a1b565b828552602085019084830160208560051b8386010101116200097357602081840101915b60208560051b838601010183106200206157505050505050905f62001dfd565b82516001600160401b03811162000973576020916200208b8392838a890191878a01010162002a62565b81520192019162002041565b620020ba9250620020c99150604051928391602080840152604083019062002c54565b03601f19810183528262002a1b565b885f52600360205260405f20602060405180928551620020ed8184868a0162002a3f565b820190815203019020815190916001600160401b0382116200087f5781906200211c8262000745865462002acb565b602090601f83116001146200218f575f9262002183575b50508160011b915f199060031b1c19161790555b6040516200215581620029ff565b600781525f6020820152885f52600460205260405f2060206040518092855162000a4e8184868a0162002a3f565b015190505f8062002133565b9250835f5260205f20905f935b601f1984168510620021e0576001945083601f19811610620021c7575b505050811b01905562002147565b01515f1960f88460031b161c191690555f8080620021b9565b818101518355602094850194600190930192909101906200219c565b9091503d90815f823e62002211828262002a1b565b6020818381010312620009735780516001600160401b03811162000973576200223e928201910162002a62565b905f62001db8565b5f9a5060ff8c166006146200225c57506200066d565b604051638bb8dd4360e01b81525f81806200227c858d6004840162002d59565b03815f80516020620074598339815191525afa5f918162002697575b506200250457505f620022c19160405180938192639f62928160e01b83528c6004840162002d59565b03815f80516020620074598339815191525afa5f9181620024db575b50620022ed575b505b5f62000be0565b905060405190816040810191602080830152805180935260606020818401918560051b8501019201935f905b808210620024ab5750505062002339925003601f19810183528262002a1b565b885f52600360205260405f206020604051809285516200235d8184868a0162002a3f565b820190815203019020815190916001600160401b0382116200087f5781906200238c8262000745865462002acb565b602090601f83116001146200243e575f9262002432575b50508160011b915f199060031b1c19161790555b604051620023c581620029ff565b6006815260016020820152885f52600460205260405f20602060405180928551620023f48184868a0162002a3f565b820190815203019020908051906008821015620007f25760ff61ff0060208554930151151560081b1692169061ffff19161717905560015f620022e4565b015190505f80620023a3565b9250835f5260205f20905f935b601f19841685106200248f576001945083601f1981161062002476575b505050811b019055620023b7565b01515f1960f88460031b161c191690555f808062002468565b818101518355602094850194600190930192909101906200244b565b91935091602080620024ca600193605f198a8203018852885162002c54565b960194019201859394929162002319565b620024fc9192503d805f833e620024f3818362002a1b565b81019062002c93565b905f620022dd565b620020ba9250620025279150604051928391602080840152604083019062002c54565b885f52600360205260405f206020604051809285516200254b8184868a0162002a3f565b820190815203019020815190916001600160401b0382116200087f5781906200257a8262000745865462002acb565b602090601f83116001146200262a575f926200261e575b50508160011b915f199060031b1c19161790555b604051620025b381620029ff565b600681525f6020820152885f52600460205260405f20602060405180928551620025e18184868a0162002a3f565b820190815203019020908051906008821015620007f25760ff61ff0060208554930151151560081b1692169061ffff1916171790556001620022e6565b015190505f8062002591565b9250835f5260205f20905f935b601f19841685106200267b576001945083601f1981161062002662575b505050811b019055620025a5565b01515f1960f88460031b161c191690555f808062002654565b8181015183556020948501946001909301929091019062002637565b620026b89192503d805f833e620026af818362002a1b565b81019062002c2b565b905f62002298565b60405163038a07f760e51b815260206004820152908190620006ac90602483019062002c54565b5093509591965093505f8080620004ee565b620027119194503d805f833e620024f3818362002a1b565b925f620004e7565b5092905062002729915062002d35565b90620001d5565b6200274791503d805f833e620026af818362002a1b565b5f62000407565b6040513d5f823e3d90fd5b6200277091503d8084833e620026af818362002a1b565b5f62000122565b5f620027a0916040518093819263ddd2128d60e01b835260206004840152602483019062002c54565b0381835f80516020620074598339815191525af180156200274e57620027da915f91620027305750835f52600260205260405f2062002b5e565b6200041a565b620027f89192503d805f833e620026af818362002a1b565b905f62000365565b634e487b7160e01b5f52603260045260245ffd5b9162002729915062002d35565b6200283891503d805f833e620024f3818362002a1b565b5f6200026b565b6040516143859081620030d48239f35b6200286691503d805f833e620024f3818362002a1b565b5f620001d1565b6200288491503d805f833e620026af818362002a1b565b5f6200016a565b90508301515f620000b2565b5f8080525f80516020620074798339815191529190601f198416905b818110620028f75750925f949260019282620000f8989610620028de575b5050811b018355620000c5565b850151861960f88460031b161c191690555f80620028d1565b9192602060018192868a015181550194019201620028b3565b5f80525f8051602062007479833981519152601f830160051c810191602084106200295a575b601f0160051c01905b8181106200294e575062000091565b5f81556001016200293f565b909150819062002936565b6040516305d79a4360e31b8152600490fd5b506040516364af255d60e01b81526004808201526020816024815f80516020620074598339815191525afa9081156200274e575f91620029ba575b501562000065565b906020823d602011620029f6575b81620029d76020938362002a1b565b81010312620029f35750620029ec9062002abd565b5f620029b2565b80fd5b3d9150620029c8565b604081019081106001600160401b038211176200087f57604052565b601f909101601f19168101906001600160401b038211908210176200087f57604052565b5f5b83811062002a515750505f910152565b818101518382015260200162002a41565b81601f82011215620009735780516001600160401b0381116200087f576040519262002a99601f8301601f19166020018562002a1b565b81845260208284010111620009735762002aba916020808501910162002a3f565b90565b519081151582036200097357565b90600182811c9216801562002afb575b602083101462002ae757565b634e487b7160e01b5f52602260045260245ffd5b91607f169162002adb565b90601f811162002b1557505050565b5f91825260208220906020601f850160051c8301941062002b53575b601f0160051c01915b82811062002b4757505050565b81815560010162002b3a565b909250829062002b31565b81519192916001600160401b0381116200087f5762002b8a8162002b83845462002acb565b8462002b06565b602080601f831160011462002bc75750819293945f9262002bbb575b50508160011b915f199060031b1c1916179055565b015190505f8062002ba6565b90601f19831695845f52825f20925f905b88821062002c125750508360019596971062002bf9575b505050811b019055565b01515f1960f88460031b161c191690555f808062002bef565b8060018596829496860151815501950193019062002bd8565b90602082820312620009735781516001600160401b038111620009735762002aba920162002a62565b9060209162002c6f8151809281855285808601910162002a3f565b601f01601f1916010190565b6001600160401b0381116200087f5760051b60200190565b906020908183820312620009735782516001600160401b039384821162000973570181601f820112156200097357805162002cce8162002c7b565b9462002cde604051968762002a1b565b818652848087019260051b840101938085116200097357858401925b85841062002d0c575050505050505090565b83518381116200097357879162002d29848480948a010162002a62565b81520193019262002cfa565b5f198114620005085760010190565b8051821015620028005760209160051b010190565b909162002d7362002aba9360408452604084019062002c54565b91602081840391015262002c54565b6008811015620007f2576001811462002ec5576002811462002e9f576003811462002e79576004811462002e56576005811462002e34576006811462002e0f5760071462002dec5760405162002dd881620029ff565b60048152636e6f6e6560e01b602082015290565b60405162002dfa81620029ff565b6005815264627974657360d81b602082015290565b5060405162002e1e81620029ff565b6006815265737472696e6760d01b602082015290565b5060405162002e4381620029ff565b60038152621a5b9d60ea1b602082015290565b5060405162002e6581620029ff565b60048152631d5a5b9d60e21b602082015290565b5060405162002e8881620029ff565b6007815266313cba32b9999960c91b602082015290565b5060405162002eae81620029ff565b60078152666164647265737360c81b602082015290565b5060405162002ed481620029ff565b6004815263189bdbdb60e21b602082015290565b51906001600160a01b03821682036200097357565b6040805163fa91454d60e01b81526020600482018190529293908062002f27602482018762002c54565b039084815f80516020620074598339815191529381855afa5f91816200309e575b506200309557505f83518092634cc1c2bb60e01b8252866004830152818062002f75602482018b62002c54565b03915afa80915f9162002fb8575b509062002faf575050620006ac90519283926397aa94df60e01b84526004840152602483019062002c54565b91509250015190565b3d8083833e62002fc9818362002a1b565b8101908681830312620030915780516001600160401b03918282116200308d5701608081840312620030895786519360808501858110848211176200307557885281518381116200307157846200302291840162002a62565b85528882015189860152878201518381116200307157846200304691840162002a62565b888601526060820151928311620029f357506200306592910162002a62565b60608201525f62002f83565b5080fd5b634e487b7160e01b82526041600452602482fd5b8380fd5b8480fd5b8280fd5b93505092505090565b90918682813d8311620030cb575b620030b8818362002a1b565b81010312620029f3575051905f62002f48565b503d620030ac56fe604060808152600480361015610013575f80fd5b5f91823560e01c806307d79d9a1461137957806308f7b4b2146113255780631d7763231461122757806322dc48fd146111e85780632b29c0fa146111335780632e3196a5146110925780632ef8ba7414610ff15780633f3a758814610fae57806343ec8b6a14610efc5780634d85ce8014610ea857806359b3952614610df35780635eba0df014610da457806361141c9714610d505780636556095014610cfc578063693ec85e14610c445780637b8fed8114610b8f5780637df3ef1214610b42578063805da4ad14610af057806388c63d4514610a3b5780638a42ebe9146109915780638be199241461093d57806393dbe6e0146108e9578063a815ff151461083a578063b3a64001146107f2578063ba0ff22c1461074a578063c91ca7ba14610695578063cf1cfa9914610656578063cf72a2f314610602578063d6698dc414610535578063db0075df146104e1578063de0fc9b31461042c578063e298d00b146103d4578063e60532501461031f578063e942b5161461026a5763fa3c074a1461019e575f80fd5b346102665780600319360112610266576001600160401b038235818111610262576101cc9036908501611423565b90602435908111610262576101e490369085016116a1565b916020815180956303408e4760e41b8252815f805160206143308339815191525afa90811561025957508490610222575b61021f9350613070565b80f35b506020833d8211610251575b8161023b602093836113e7565b8101031261024d5761021f9251610215565b8380fd5b3d915061022e565b513d86823e3d90fd5b8480fd5b8280fd5b50346102665780600319360112610266576001600160401b038235818111610262576102999036908501611423565b90602435908111610262576102b19036908501611423565b916020815180956303408e4760e41b8252815f805160206143308339815191525afa908115610259575084906102ec575b61021f9350612b98565b506020833d8211610317575b81610305602093836113e7565b8101031261024d5761021f92516102e2565b3d91506102f8565b50346102665780600319360112610266576001600160401b0382358181116102625761034e9036908501611423565b90602435908111610262576103669036908501611484565b916020815180956303408e4760e41b8252815f805160206143308339815191525afa908115610259575084906103a1575b61021f9350613604565b506020833d82116103cc575b816103ba602093836113e7565b8101031261024d5761021f9251610397565b3d91506103ad565b505034610428576060366003190112610428576001600160401b039060243582811161024d576104079036908301611423565b60443592831161024d5761042161021f93369084016116a1565b9135613070565b5080fd5b50346102665780600319360112610266576001600160401b0382358181116102625761045b9036908501611423565b90602435908111610262576104739036908501611484565b916020815180956303408e4760e41b8252815f805160206143308339815191525afa908115610259575084906104ae575b61021f9350613b44565b506020833d82116104d9575b816104c7602093836113e7565b8101031261024d5761021f92516104a4565b3d91506104ba565b505034610428576060366003190112610428576001600160401b039060243582811161024d576105149036908301611423565b60443592831161024d5761052e61021f9336908401611484565b9135613881565b50903461026657602036600319011261026657803591821515928381036102625780610580575b61057357505060ff80196005541691161760055580f35b516305d79a4360e31b8152fd5b5080516364af255d60e01b81528281018390526020816024815f805160206143308339815191525afa9081156105f85785916105be575b501561055c565b90506020813d82116105f0575b816105d8602093836113e7565b8101031261026257518015158103610262575f6105b7565b3d91506105cb565b82513d87823e3d90fd5b505034610428576060366003190112610428576001600160401b039060243582811161024d576106359036908301611423565b60443592831161024d5761064f61021f9336908401611562565b9135613dbd565b50503461042857606036600319011261042857602435906001600160401b0382116102665761068b61021f9236908301611423565b60443591356125f5565b50346102665780600319360112610266576001600160401b038235818111610262576106c49036908501611423565b90602435908111610262576106dc9036908501611562565b916020815180956303408e4760e41b8252815f805160206143308339815191525afa90811561025957508490610717575b61021f935061404f565b506020833d8211610742575b81610730602093836113e7565b8101031261024d5761021f925161070d565b3d9150610723565b503461026657806003193601126102665781356001600160401b03811161024d576107789036908401611423565b602435918215158303610262576020815180956303408e4760e41b8252815f805160206143308339815191525afa908115610259575084906107bf575b61021f9350611b17565b506020833d82116107ea575b816107d8602093836113e7565b8101031261024d5761021f92516107b5565b3d91506107cb565b505034610428576060366003190112610428576024356001600160401b038111610266576108239036908301611423565b60443590811515820361024d5761021f9235611b17565b503461026657806003193601126102665781356001600160401b03811161024d576108689036908401611423565b602435916001600160a01b0383168303610262576020815180956303408e4760e41b8252815f805160206143308339815191525afa908115610259575084906108b6575b61021f935061238a565b506020833d82116108e1575b816108cf602093836113e7565b8101031261024d5761021f92516108ac565b3d91506108c2565b505034610428576060366003190112610428576001600160401b039060243582811161024d5761091c9036908301611423565b60443592831161024d5761093661021f9336908401611562565b913561404f565b505034610428576060366003190112610428576001600160401b039060243582811161024d576109709036908301611423565b60443592831161024d5761098a61021f9336908401611484565b9135613b44565b503461026657806003193601126102665781356001600160401b03811161024d576109bf9036908401611423565b6020825180946303408e4760e41b8252815f805160206143308339815191525afa918215610a32575083916109fd575b61021f9250602435916127da565b90506020823d8211610a2a575b81610a17602093836113e7565b810103126102665761021f9151906109ef565b3d9150610a0a565b513d85823e3d90fd5b50346102665780600319360112610266576001600160401b03823581811161026257610a6a9036908501611423565b9060243590811161026257610a8290369085016115e2565b916020815180956303408e4760e41b8252815f805160206143308339815191525afa90811561025957508490610abd575b61021f935061334f565b506020833d8211610ae8575b81610ad6602093836113e7565b8101031261024d5761021f9251610ab3565b3d9150610ac9565b508234610b3f5781600319360112610b3f57602435906001600160401b038211610b3f5750610b3b92610b29610b309236908301611423565b9035611a18565b905191829182611650565b0390f35b80fd5b5090346102665760203660031901126102665790610b7d81610b3b94610b7694358152600260205220825193848092611987565b03836113e7565b5191829160208352602083019061153d565b50346102665780600319360112610266576001600160401b03823581811161026257610bbe9036908501611423565b9060243590811161026257610bd69036908501611484565b916020815180956303408e4760e41b8252815f805160206143308339815191525afa90811561025957508490610c11575b61021f9350613881565b506020833d8211610c3c575b81610c2a602093836113e7565b8101031261024d5761021f9251610c07565b3d9150610c1d565b508234610b3f576020366003190112610b3f5782356001600160401b03811161042857610c749036908501611423565b92610c7d6118f3565b506020835180926303408e4760e41b8252815f805160206143308339815191525afa918215610cf1578092610cbb575b610b3b84610b308786611a18565b9091506020823d8211610ce9575b81610cd6602093836113e7565b81010312610b3f57505182610b30610cad565b3d9150610cc9565b8351903d90823e3d90fd5b505034610428576060366003190112610428576001600160401b039060243582811161024d57610d2f9036908301611423565b60443592831161024d57610d4961021f9336908401611423565b9135612b98565b505034610428576060366003190112610428576001600160401b039060243582811161024d57610d839036908301611423565b60443592831161024d57610d9d61021f93369084016115e2565b913561334f565b505034610428576060366003190112610428576024356001600160401b03811161026657610dd59036908301611423565b604435906001600160a01b038216820361024d5761021f923561238a565b50346102665780600319360112610266576001600160401b03823581811161026257610e229036908501611423565b9060243590811161026257610e3a9036908501611562565b916020815180956303408e4760e41b8252815f805160206143308339815191525afa90811561025957508490610e75575b61021f9350613dbd565b506020833d8211610ea0575b81610e8e602093836113e7565b8101031261024d5761021f9251610e6b565b3d9150610e81565b505034610428576060366003190112610428576001600160401b039060243582811161024d57610edb9036908301611423565b60443592831161024d57610ef561021f9336908401611423565b9135612d7a565b503461026657826003193601126102665780516303408e4760e41b815260209283908290815f805160206143308339815191525afa908115610fa4578491610f75575b5090610f668185610b3b94610f5f97526002865220825195868092611987565b03856113e7565b5192828493845283019061153d565b90508281813d8311610f9d575b610f8c81836113e7565b8101031261024d5751610f66610f3f565b503d610f82565b82513d86823e3d90fd5b508234610b3f576020366003190112610b3f578235906001600160401b038211610b3f5750610fe5602093610fea92369101611423565b61174a565b9051908152f35b503461026657806003193601126102665781356001600160401b03811161024d5761101f9036908401611423565b6020825180946303408e4760e41b8252815f805160206143308339815191525afa918215610a325750839161105d575b61021f9250602435916129b9565b90506020823d821161108a575b81611077602093836113e7565b810103126102665761021f91519061104f565b3d915061106a565b503461026657806003193601126102665781356001600160401b03811161024d576110c09036908401611423565b6020825180946303408e4760e41b8252815f805160206143308339815191525afa918215610a32575083916110fe575b61021f9250602435916125f5565b90506020823d821161112b575b81611118602093836113e7565b810103126102665761021f9151906110f0565b3d915061110b565b50346102665780600319360112610266576001600160401b038235818111610262576111629036908501611423565b906024359081116102625761117a9036908501611423565b916020815180956303408e4760e41b8252815f805160206143308339815191525afa908115610259575084906111b5575b61021f9350612d7a565b506020833d82116111e0575b816111ce602093836113e7565b8101031261024d5761021f92516111ab565b3d91506111c1565b50503461042857606036600319011261042857602435906001600160401b0382116102665761121d61021f9236908301611423565b60443591356127da565b838234610428578160031936011261042857600190815491806112498461146d565b94611256845196876113e7565b8486526020948587018383528683208784925b8484106112f35750505050508551946112818661146d565b9561128e865197886113e7565b80875261129d601f199161146d565b01903690870137905b6112b8575b825180610b3b86826114e2565b84518110156112ee57806112d86112d26112e89388611aca565b5161174a565b6112e28287611aca565b52611aa8565b816112a6565b6112ab565b908692939495969189516113128161130b8189611987565b03826113e7565b8152019201920190918786959493611269565b505034610428576060366003190112610428576001600160401b039060243582811161024d576113589036908301611423565b60443592831161024d5761137261021f9336908401611484565b9135613604565b50503461042857606036600319011261042857602435906001600160401b038211610266576113ae61021f9236908301611423565b60443591356129b9565b604081019081106001600160401b038211176113d357604052565b634e487b7160e01b5f52604160045260245ffd5b90601f801991011681019081106001600160401b038211176113d357604052565b6001600160401b0381116113d357601f01601f191660200190565b81601f820112156114695780359061143a82611408565b9261144860405194856113e7565b8284526020838301011161146957815f926020809301838601378301015290565b5f80fd5b6001600160401b0381116113d35760051b60200190565b81601f820112156114695780359161149b8361146d565b926114a960405194856113e7565b808452602092838086019260051b820101928311611469578301905b8282106114d3575050505090565b813581529083019083016114c5565b602090816040818301928281528551809452019301915f5b828110611508575050505090565b8351855293810193928101926001016114fa565b5f5b83811061152d5750505f910152565b818101518382015260200161151e565b906020916115568151809281855285808601910161151c565b601f01601f1916010190565b9080601f830112156114695781359061157a8261146d565b9261158860405194856113e7565b828452602092838086019160051b8301019280841161146957848301915b8483106115b65750505050505090565b82356001600160401b0381116114695786916115d784848094890101611423565b8152019201916115a6565b81601f82011215611469578035916115f98361146d565b9261160760405194856113e7565b808452602092838086019260051b820101928311611469578301905b828210611631575050505090565b81356001600160a01b0381168103611469578152908301908301611623565b602081528151805190600882101561168d5761168a936020809260809482870152015115156040850152015191606080820152019061153d565b90565b634e487b7160e01b5f52602160045260245ffd5b81601f82011215611469578035916116b88361146d565b926116c660405194856113e7565b808452602092838086019260051b820101928311611469578301905b8282106116f0575050505090565b813580151581036114695781529083019083016116e2565b81601f8201121561146957805161171e81611408565b9261172c60405194856113e7565b818452602082840101116114695761168a916020808501910161151c565b6040805163fa91454d60e01b815260206004820181905292939080611772602482018761153d565b039084815f805160206143308339815191529381855afa5f91816118c4575b506118bb57505f83518092634cc1c2bb60e01b825286600483015281806117bb602482018b61153d565b03915afa80915f916117fe575b50906117f55750506117f190519283926397aa94df60e01b84526004840152602483019061153d565b0390fd5b91509250015190565b3d8083833e61180d81836113e7565b81019086818303126102665780516001600160401b0391828211610262570160808184031261024d5786519360808501858110848211176118a75788528151838111610428578461185f918401611708565b85528882015189860152878201518381116104285784611880918401611708565b888601526060820151928311610b3f575061189c929101611708565b60608201525f6117c8565b634e487b7160e01b82526041600452602482fd5b93505092505090565b90918682813d83116118ec575b6118db81836113e7565b81010312610b3f575051905f611791565b503d6118d1565b60405190611900826113b8565b6060602083604051611911816113b8565b5f81525f8382015281520152565b9060405161192c816113b8565b80925460ff8116600881101561168d5760209160ff91845260081c161515910152565b90600182811c9216801561197d575b602083101461196957565b634e487b7160e01b5f52602260045260245ffd5b91607f169161195e565b905f92918054916119978361194f565b9182825260019384811690815f146119f557506001146119b8575b50505050565b90919394505f52602092835f2092845f945b8386106119e157505050500101905f8080806119b2565b8054858701830152940193859082016119ca565b9294505050602093945060ff191683830152151560051b0101905f8080806119b2565b90610b7690611a256118f3565b50825f52611aa260209160048352611a7883604092835f20908451838183519482850195611a5481848961151c565b820190815203019020985f5260038352845f2090855194859384925192839161151c565b82019081520301902090611a96815196611a91886113b8565b61191f565b86525193848092611987565b82015290565b5f198114611ab65760010190565b634e487b7160e01b5f52601160045260245ffd5b8051821015611ade5760209160051b010190565b634e487b7160e01b5f52603260045260245ffd5b906020828203126114695781516001600160401b0381116114695761168a9201611708565b929190604091825194611b29866113b8565b6001958681525f9660208881840152611b43838786611ed2565b8651941515948582820152818152611b5a816113b8565b848a5260038252878a20828951809282611b7a8c8481519384920161151c565b820190815203019020928151916001600160401b038311611d4057611b9f855461194f565b601f8111611cf8575b5083908c601f8511600114611c97579394508492919083611c8c575b50501b915f199060031b1c19161790555b60ff60055416611be9575b50505050509050565b516008811015611c7857611bfc90611e1d565b918451906338ee73ed60e11b8252600482015286816024815f805160206143308339815191525afa948515611c6f575086611c3f969795611c4a575b5050612159565b805f80808080611be0565b611c679295503d8091833e611c5f81836113e7565b810190611af2565b925f80611c38565b513d88823e3d90fd5b634e487b7160e01b87526021600452602487fd5b015192505f80611bc4565b86815285812093958591601f198316915b88838310611cde5750505010611cc6575b505050811b019055611bd5565b01515f1960f88460031b161c191690555f8080611cb9565b858701518855909601959485019487935090810190611ca8565b858d52848d20601f850160051c810191868610611d36575b601f0160051c019083908e5b838210611d2b57505050611ba8565b81550183908e611d1c565b9091508190611d10565b634e487b7160e01b8c52604160045260248cfd5b60405190611d61826113b8565b6004825263189bdbdb60e21b6020830152565b60405190611d81826113b8565b60078252666164647265737360c81b6020830152565b60405190611da4826113b8565b6007825266313cba32b9999960c91b6020830152565b60405190611dc7826113b8565b6006825265737472696e6760d01b6020830152565b60405190611de9826113b8565b6005825264627974657360d81b6020830152565b60405190611e0a826113b8565b60048252636e6f6e6560e01b6020830152565b600881101561168d5760018114611ec95760028114611ec05760038114611eb75760048114611e965760058114611e765760068114611e6d57600714611e655761168a611dfd565b61168a611ddc565b5061168a611dba565b50604051611e83816113b8565b60038152621a5b9d60ea1b602082015290565b50604051611ea3816113b8565b60048152631d5a5b9d60e21b602082015290565b5061168a611d97565b5061168a611d74565b5061168a611d54565b90915f9282845260049260209184835260409081872092611f108351868185519782870198611f0281848c61151c565b82019081520301902061191f565b8051600881101561204057611f8a575091611f40939185938952878452818920915194859384925192839161151c565b820190815203019020938251936008851015611f7757505061ff0060ff918554930151151560081b1692169061ffff191617179055565b634e487b7160e01b825260219052602490fd5b959493505050948351600881101561202d57835191600883101561201a5750149081612005575b5015611fbd5750505050565b90611ff3611fd6611fd06117f194612053565b92612053565b91855195869563b02cf71d60e01b8752860152604485019061153d565b8381036003190160248501529061153d565b8091508301511515908201511515145f611fb1565b634e487b7160e01b815260218752602490fd5b634e487b7160e01b825260218652602482fd5b634e487b7160e01b8a526021895260248afd5b8051600881101561168d57612067906120ca565b906020810151159081156120b7575b501561207f5790565b61168a60226040518361209c82955180926020808601910161151c565b8101615b5d60f01b60208201520360028101845201826113e7565b905051600881101561168d57155f612076565b600881101561168d5760018114611ec95760028114611ec05760038114611eb7576004811461213557600581146121125760068114611e6d57600714611e655761168a611dfd565b5060405161211f816113b8565b600681526534b73a191a9b60d11b602082015290565b50604051612142816113b8565b60078152663ab4b73a191a9b60c91b602082015290565b602461216b6121dc929593949561230f565b9360405195869160209661121760f11b88850152612192815180928a60228801910161151c565b830190601760f91b918260228201526121b4825180938b60238501910161151c565b019060238201526121cd8251809389878501910161151c565b010360048101865201846113e7565b5f8051602061433083398151915291823b15611469576040516351ac6a3360e01b81526060600482015293849261221790606485019061153d565b9160031990818585030160248601525f938454906122348261194f565b808252916001908181169081156122d8575060011461229b575b505050508361226c8482945f989694848a960301604485015261153d565b03925af180156122905761227d5750565b6001600160401b0381116113d357604052565b6040513d5f823e3d90fd5b92939550905f8052835f20925f935b8285106122c2575050500101918361226c828261224e565b80548585018701528a98509385019381016122aa565b60ff191683860152505090151560051b010192508361226c828261224e565b600154811015611ade5760015f5260205f2001905f90565b6001545f5b81811061233457604051631ff94f8360e11b815260048101849052602490fd5b61233d816122f7565b508361235661130b610fe5604094855192838092611987565b1461236a575061236590611aa8565b612314565b9061130b935061168a925061237e906122f7565b50905192838092611987565b9092919260409384519461239d866113b8565b600286525f95602087818301526123b5828688611ed2565b82516001600160a01b03909416818501819052818552936123d5816113b8565b868952600382528389208285518092826123f58b8481519384920161151c565b820190815203019020918151916001600160401b03831161259e5790829161241d855461194f565b601f811161254e575b5081601f84116001146124e957508b926124de575b50508160011b915f199060031b1c19161790555b60ff600554166124625750505050509050565b516008811015611c785761247590611e1d565b91815190632b65311f60e11b8252600482015286816024815f805160206143308339815191525afa918215611c6f5750906124bd9187611c3f9798926124c3575b50506125b2565b92612159565b6124d792503d8091833e611c5f81836113e7565b5f806124b6565b015190505f8061243b565b858d52808d209350601f198516908d905b82821061253657505090846001959493921061251e575b505050811b01905561244f565b01515f1960f88460031b161c191690555f8080612511565b806001869782949787015181550196019401906124fa565b90919250848c52828c20601f850160051c810191848610612594575b90601f86959493920160051c01905b8181106125865750612426565b8d8155859450600101612579565b909150819061256a565b634e487b7160e01b8b52604160045260248bfd5b906125f360226040518094601160f91b908160208401526125dd81518092602060218701910161151c565b82019060218201520360028101855201836113e7565b565b90929192604093845194612608866113b8565b600386525f9560208781830152612620828688611ed2565b82518482820152818152612633816113b8565b868952600382528389208285518092826126538b8481519384920161151c565b820190815203019020918151916001600160401b03831161259e5790829161267b855461194f565b601f811161278a575b5081601f841160011461272557508b9261271a575b50508160011b915f199060031b1c19161790555b60ff600554166126c05750505050509050565b516008811015611c78576126d390611e1d565b91815190631623433d60e31b8252600482015286816024815f805160206143308339815191525afa918215611c6f5750906124bd9187611c3f9798926124c35750506125b2565b015190505f80612699565b858d52808d209350601f198516908d905b82821061277257505090846001959493921061275a575b505050811b0190556126ad565b01515f1960f88460031b161c191690555f808061274d565b80600186978294978701518155019601940190612736565b90919250848c52828c20601f850160051c8101918486106127d0575b90601f86959493920160051c01905b8181106127c25750612684565b8d81558594506001016127b5565b90915081906127a6565b9291906040918251946127ec866113b8565b600486525f9560208781830152612804828685611ed2565b85518482820152818152612817816113b8565b838952600382528689208288518092826128378b8481519384920161151c565b820190815203019020918151916001600160401b03831161259e5790829161285f855461194f565b601f8111612969575b5081601f841160011461290457508b926128f9575b50508160011b915f199060031b1c19161790555b60ff600554166128a45750505050509050565b516008811015611c78576128b790611e1d565b9184519063348051d760e11b8252600482015286816024815f805160206143308339815191525afa948515611c6f575086611c3f969795611c4a575050612159565b015190505f8061287d565b858d52808d209350601f198516908d905b828210612951575050908460019594939210612939575b505050811b019055612891565b01515f1960f88460031b161c191690555f808061292c565b80600186978294978701518155019601940190612915565b90919250848c52828c20601f850160051c8101918486106129af575b90601f86959493920160051c01905b8181106129a15750612868565b8d8155859450600101612994565b9091508190612985565b9291906040918251946129cb866113b8565b600586525f95602087818301526129e3828685611ed2565b855184828201528181526129f6816113b8565b83895260038252868920828851809282612a168b8481519384920161151c565b820190815203019020918151916001600160401b03831161259e57908291612a3e855461194f565b601f8111612b48575b5081601f8411600114612ae357508b92612ad8575b50508160011b915f199060031b1c19161790555b60ff60055416612a835750505050509050565b516008811015611c7857612a9690611e1d565b91845190635191620760e11b8252600482015286816024815f805160206143308339815191525afa948515611c6f575086611c3f969795611c4a575050612159565b015190505f80612a5c565b858d52808d209350601f198516908d905b828210612b30575050908460019594939210612b18575b505050811b019055612a70565b01515f1960f88460031b161c191690555f8080612b0b565b80600186978294978701518155019601940190612af4565b90919250848c52828c20601f850160051c810191848610612b8e575b90601f86959493920160051c01905b818110612b805750612a47565b8d8155859450600101612b73565b9091508190612b64565b9092919260405193612ba9856113b8565b600685525f9460208681830152612bc1828587611ed2565b60405190808083015281612bd8604082018661153d565b03612beb601f19918281018552846113e7565b868952600382526040892082604051809282612c0d8b8481519384920161151c565b820190815203019020928051926001600160401b03841161259e5790839291612c36865461194f565b601f8111612d28575b508092601f8511600114612cc85750508a92612cbd575b50508160011b915f199060031b1c19161790555b60ff60055416612c7d575b505050509050565b51946008861015612ca957506124bd612c99612c9f9596611e1d565b916125b2565b805f808080612c75565b634e487b7160e01b81526021600452602490fd5b015190505f80612c56565b868d52818d209416908c905b828210612d10575050908460019594939210612cf8575b505050811b019055612c6a565b01515f1960f88460031b161c191690555f8080612ceb565b80600186978294978701518155019601940190612cd4565b9091929350858c52818c20601f860160051c810191838710612d70575b90601f8796959493920160051c01905b818110612d625750612c3f565b8d8155869550600101612d55565b9091508190612d45565b909291926040805190612d8c826113b8565b600782525f956020928784820152612da5818688611ed2565b8251848082015280612db98582018561153d565b0390612dcd601f19928381018352826113e7565b878a5260038652848a20868651809282612ded8c8481519384920161151c565b820190815203019020918151916001600160401b038311611d4057908291612e15855461194f565b601f8111612f4f575b508891601f8411600114612ef257508c92612ee7575b50508160011b915f199060031b1c19161790555b60ff60055416612e5d575b5050505050509050565b516008811015612ed357612e9691612e758992611e1d565b94845193849283926371aad10d60e01b84526004840152602483019061153d565b03815f805160206143308339815191525afa918215611c6f5750906124bd9187612ec79798926124c35750506125b2565b805f8080808080612e53565b634e487b7160e01b88526021600452602488fd5b015190505f80612e34565b858e52898e2093168d5b8a828210612f39575050908460019594939210612f21575b505050811b019055612e48565b01515f1960f88460031b161c191690555f8080612f14565b6001859682939686015181550195019301612efc565b90919250848d52888d20601f850160051c8101918a8610612f98575b85949392918f91601f0160051c0191905b828210612f8a575050612e1e565b81558594506001018e612f7c565b9091508190612f6b565b60405190612faf826113b8565b60018252605b60f81b6020830152565b60206125f3919392936040519481612fe0879351809286808701910161151c565b8201612ff48251809386808501910161151c565b010380855201836113e7565b906125f360216040518461301e82965180926020808601910161151c565b8101600b60fa1b60208201520360018101855201836113e7565b906125f360216040518461305682965180926020808601910161151c565b8101605d60f81b60208201520360018101855201836113e7565b91906040805192613080846113b8565b60019081855260208281870152613098868689611ed2565b835180858101838083015284518091526060820190848601905f5b888783831061333857505050505003916130d5601f19938481018452836113e7565b885f5260038152855f208187518092826130f58c8481519384920161151c565b820190815203019020928251926001600160401b0384116113d357839261311c865461194f565b601f81116132e4575b508092601f85116001146132855750505f9261327a575b50505f19600383901b1c191690841b1790555b60ff60055416613162575b505050505050565b61316a612fa2565b925f835b6131a9575b5050505061318090613038565b915192600884101561168d5761319861319e94611e1d565b90612159565b5f808080808061315a565b8251811015613275576131bc8184611aca565b51151582516338ee73ed60e11b8152600491828201526024965f8289815f805160206143308339815191525afa91821561326b579061320392915f92613250575b50612fbf565b958451915f19830192831161323f575050811061322a575b61322490611aa8565b8361316e565b9361323761322491613000565b94905061321b565b601190634e487b7160e01b5f52525ffd5b61326491923d8091833e611c5f81836113e7565b905f6131fd565b85513d5f823e3d90fd5b613173565b015190505f8061313c565b88959392919316865f52835f20935f905b8282106132cb57505084116132b3575b505050811b01905561314f565b01515f1960f88460031b161c191690555f80806132a6565b8484015186558a97909501949384019390810190613296565b9091929350855f52815f20601f860160051c81019183871061332e575b869594939291601f8b920160051c01915b828110613320575050613125565b5f81558796508a9101613312565b9091508190613301565b8451151586528796509485019490930192016130b3565b9190604091825192613360846113b8565b60028452600160208181870152613378868689611ed2565b825180848101838083015286518091526060820190848801905f5b87878383106135e657505050505003916133b5601f19938481018452836113e7565b885f5260038152845f208186518092826133d58c8481519384920161151c565b820190815203019020928251926001600160401b0384116113d35783926133fc865461194f565b601f8111613592575b508092601f85116001146135335750505f92613528575b50505f19600383901b1c191690831b1790555b60ff6005541661344157505050505050565b613449612fa2565b925f825b61345e575050505061318090613038565b8151811015613275576001600160a01b036134798284611aca565b5116845195632b65311f60e11b8752600491828801526024965f8189815f805160206143308339815191525afa90811561351e576134c992916134c3915f91613505575b506125b2565b90612fbf565b958351915f19830192831161323f57505081106134f0575b6134ea90611aa8565b8261344d565b936134fd6134ea91613000565b9490506134e1565b613518913d8091833e611c5f81836113e7565b5f6134bd565b87513d5f823e3d90fd5b015190505f8061341c565b87959392919316865f52835f20935f905b8282106135795750508411613561575b505050811b01905561342f565b01515f1960f88460031b161c191690555f8080613554565b8484015186558997909501949384019390810190613544565b9091929350855f52815f20601f860160051c8101918387106135dc575b869594939291601f8a920160051c01915b8281106135ce575050613405565b5f81558796508991016135c0565b90915081906135af565b84516001600160a01b03168652879650948501949093019201613393565b9190604091825192613615846113b8565b6003845260016020818187015261362d868689611ed2565b825180848101838083015286518091526060820190848801905f5b878783831061386c575050505050039161366a601f19938481018452836113e7565b885f5260038152845f2081865180928261368a8c8481519384920161151c565b820190815203019020928251926001600160401b0384116113d35783926136b1865461194f565b601f8111613818575b508092601f85116001146137b95750505f926137ae575b50505f19600383901b1c191690831b1790555b60ff600554166136f657505050505050565b6136fe612fa2565b925f825b613713575050505061318090613038565b8151811015613275576137268183611aca565b51845195631623433d60e31b8752600491828801526024965f8189815f805160206143308339815191525afa90811561351e5761376e92916134c3915f9161350557506125b2565b8351909687925f19830192831161323f5750508210613798575b5061379290611aa8565b82613702565b6137929195506137a790613000565b9490613788565b015190505f806136d1565b87959392919316865f52835f20935f905b8282106137ff57505084116137e7575b505050811b0190556136e4565b01515f1960f88460031b161c191690555f80806137da565b84840151865589979095019493840193908101906137ca565b9091929350855f52815f20601f860160051c810191838710613862575b869594939291601f8a920160051c01915b8281106138545750506136ba565b5f8155879650899101613846565b9091508190613835565b84518652879650948501949093019201613648565b929190604093845192613893846113b8565b600495868552600160209281848801526138ae878787611ed2565b8251806138bd838783016114e2565b03946138d1601f19968781018452836113e7565b5f95878752600382526138f4828a888a20828a519483868095519384920161151c565b820190815203019020928051926001600160401b038411613b30579083929161391d865461194f565b601f8111613adc575b508092601f8511600114613a7d5750508892613a72575b50505f19600383901b1c191690841b1790555b60ff60055416613966575b505050505050509050565b61396e612fa2565b9284835b6139ad575b5050505061398490613038565b935190600882101561201a57506139a094955061319890611e1d565b805f80808080808061395b565b8251811015613a6d576139c08184611aca565b5182519063348051d760e11b82528c820152602495878288815f805160206143308339815191525afa918215613a635790613a0292918992613a4e5750612fbf565b835190955f198201918211613a3d57508110613a28575b613a2290611aa8565b83613972565b93613a35613a2291613000565b949050613a19565b634e487b7160e01b885260118d5287fd5b6132649192503d808b833e611c5f81836113e7565b84513d8a823e3d90fd5b613977565b015190505f8061393d565b88959392919316868b52838b20938b905b828210613ac35750508411613aab575b505050811b019055613950565b01515f1960f88460031b161c191690555f8080613a9e565b8484015186558a97909501949384019390810190613a8e565b9091929350858a52818a20601f860160051c810191838710613b26575b869594939291601f8b920160051c01915b828110613b18575050613926565b8c81558796508a9101613b0a565b9091508190613af9565b50634e487b7160e01b885260418d52602488fd5b91906040805192613b54846113b8565b6005845260019060208281870152613b6d868689611ed2565b835180858101838083015284518091526060820190848601905f5b8887838310613da85750505050500391613baa601f19938481018452836113e7565b885f5260038152855f20818751809282613bca8c8481519384920161151c565b820190815203019020928251926001600160401b0384116113d3578392613bf1865461194f565b601f8111613d54575b508092601f8511600114613cf55750505f92613cea575b50505f19600383901b1c191690841b1790555b60ff60055416613c3657505050505050565b613c3e612fa2565b925f835b613c53575050505061318090613038565b825181101561327557613c668184611aca565b518251635191620760e11b8152600491828201526024965f8289815f805160206143308339815191525afa91821561326b5790613caa92915f926132505750612fbf565b8451909687925f19830192831161323f5750508210613cd4575b50613cce90611aa8565b83613c42565b613cce919550613ce390613000565b9490613cc4565b015190505f80613c11565b88959392919316865f52835f20935f905b828210613d3b5750508411613d23575b505050811b019055613c24565b01515f1960f88460031b161c191690555f8080613d16565b8484015186558a97909501949384019390810190613d06565b9091929350855f52815f20601f860160051c810191838710613d9e575b869594939291601f8b920160051c01915b828110613d90575050613bfa565b5f81558796508a9101613d82565b9091508190613d71565b84518652879650948501949093019201613b88565b919060405191613dcc836113b8565b6006835260019060208281860152613de5858588611ed2565b6040518060408101838083015284518091526060820160608260051b84010191858701915f905b8988848410614022575050505050500391613e2f601f19938481018452836113e7565b875f526003815260405f2081604051809282613e518b8481519384920161151c565b820190815203019020928251926001600160401b0384116113d3578392613e78865461194f565b601f8111613fce575b508092601f8511600114613f6f5750505f92613f64575b50505f19600383901b1c191690841b1790555b60ff60055416613ebd575b5050505050565b613ec5612fa2565b90825f935b613efd575b5050613edb9150613038565b915192600884101561168d57613198613ef394611e1d565b5f80808080613eb6565b90918251841015613f5e57613f1f906134c3613f198686611aca565b516125b2565b928383515f198101908111611ab6578210613f48575b50613f3f90611aa8565b92919080613eca565b613f3f919450613f5790613000565b9390613f35565b91613ecf565b015190505f80613e98565b88959392919316865f52835f20935f905b828210613fb55750508411613f9d575b505050811b019055613eab565b01515f1960f88460031b161c191690555f8080613f90565b8484015186558a97909501949384019390810190613f80565b9091929350855f52815f20601f860160051c810191838710614018575b869594939291601f8b920160051c01915b82811061400a575050613e81565b5f81558796508a9101613ffc565b9091508190613feb565b91939582919395975061403f90605f198a8203018652885161153d565b9601920192018594939192613e0c565b9190604091825192614060846113b8565b6007845260016020928184870152614079868689611ed2565b825180848101868083015283518091526060820160608260051b84010191888601915f905b888b84841061430257505050505050036140c0601f19918281018452836113e7565b885f5260038652845f208686518092826140e08c8481519384920161151c565b820190815203019020918051916001600160401b0383116113d3578291614107855461194f565b601f81116142b0575b508891601f841160011461425457505f92614249575b50505f19600383901b1c191690841b1790555b60ff6005541661414d575b50505050505050565b614155612fa2565b935f835b614190575b505050505061416c90613038565b915192600884101561168d5761319861418494611e1d565b5f808080808080614144565b8251811015614244576141a38184611aca565b51958551906371aad10d60e01b825260049184838201525f81806141cc60249c8d83019061153d565b03815f805160206143308339815191525afa90811561423a576141fa92916134c3915f9161350557506125b2565b8451909788925f19830192831161323f5750508210614224575b5061421e90611aa8565b83614159565b61421e91965061423390613000565b9590614214565b88513d5f823e3d90fd5b61415e565b015190505f80614126565b87949291921691855f52895f20925f5b8b82821061429a5750508411614282575b505050811b019055614139565b01515f1960f88460031b161c191690555f8080614275565b8385015186558a97909501949384019301614264565b90919250845f52885f20601f850160051c8101918a86106142f8575b8594939291601f8a920160051c01915b8281106142ea575050614110565b5f81558695508991016142dc565b90915081906142cc565b91939582919395975061431f90605f198a8203018652885161153d565b960192019201859493919261409e56fe0000000000000000000000007109709ecfa91a80626ff3989d68f67f5b1dd12da26469706673582212200c7ef7adef1d8b17dac9635dc6fcbc38ead9391f320fa7812f931a6c39e82cf164736f6c634300081400330000000000000000000000007109709ecfa91a80626ff3989d68f67f5b1dd12d290decd9548b62a8d60345a988386fc84ba6bc95484008f6362f93160ef3e563","linkReferences":{}},"methodIdentifiers":{"get(string)":"693ec85e","get(uint256,string)":"805da4ad","getChainIds()":"1d776323","getRpcUrl()":"43ec8b6a","getRpcUrl(uint256)":"7df3ef12","resolveChainId(string)":"3f3a7588","set(string,address)":"a815ff15","set(string,address[])":"88c63d45","set(string,bool)":"ba0ff22c","set(string,bool[])":"fa3c074a","set(string,bytes)":"2b29c0fa","set(string,bytes32)":"2e3196a5","set(string,bytes32[])":"e6053250","set(string,bytes[])":"c91ca7ba","set(string,int256)":"2ef8ba74","set(string,int256[])":"de0fc9b3","set(string,string)":"e942b516","set(string,string[])":"59b39526","set(string,uint256)":"8a42ebe9","set(string,uint256[])":"7b8fed81","set(uint256,string,address)":"5eba0df0","set(uint256,string,address[])":"61141c97","set(uint256,string,bool)":"b3a64001","set(uint256,string,bool[])":"e298d00b","set(uint256,string,bytes)":"4d85ce80","set(uint256,string,bytes32)":"cf1cfa99","set(uint256,string,bytes32[])":"08f7b4b2","set(uint256,string,bytes[])":"93dbe6e0","set(uint256,string,int256)":"07d79d9a","set(uint256,string,int256[])":"8be19924","set(uint256,string,string)":"65560950","set(uint256,string,string[])":"cf72a2f3","set(uint256,string,uint256)":"22dc48fd","set(uint256,string,uint256[])":"db0075df","writeUpdatesBackToFile(bool)":"d6698dc4"},"id":10}