{"abi":[{"type":"function","name":"assertExists","inputs":[{"name":"self","type":"tuple","internalType":"struct Variable","components":[{"name":"ty","type":"tuple","internalType":"struct Type","components":[{"name":"kind","type":"TypeKind","internalType":"enum TypeKind"},{"name":"isArray","type":"bool","internalType":"bool"}]},{"name":"data","type":"bytes","internalType":"bytes"}]}],"outputs":[],"stateMutability":"pure"},{"type":"error","name":"NotInitialized","inputs":[]},{"type":"error","name":"TypeMismatch","inputs":[{"name":"expected","type":"string","internalType":"string"},{"name":"actual","type":"string","internalType":"string"}]},{"type":"error","name":"UnsafeCast","inputs":[{"name":"message","type":"string","internalType":"string"}]}],"bytecode":{"object":"0x6080806040523461001a576101d6908161001f823930815050f35b5f80fdfe6080604052600480361015610012575f80fd5b5f90813560e01c6315af8fee14610027575f80fd5b6003196020368201126101345781359067ffffffffffffffff908183116101685782360301906060821261016857604061005f61016c565b92126101685761006d61016c565b92808501356008811015610160578452602493848201358015158103610164576020820152835260448101359082821161016057013660238201121561015c578481013582811161014a5760405192601f8201601f19908116603f0116840190811184821017610138576040528083528691903682820187011161013457808660209301838601378301015260208201525151906008821015610123575015610114575080f35b6040516321c4e35760e21b8152fd5b634e487b7160e01b84526021835283fd5b8280fd5b634e487b7160e01b8852604187528588fd5b634e487b7160e01b8752604186528487fd5b8580fd5b8680fd5b8780fd5b8480fd5b604051906040820182811067ffffffffffffffff82111761018c57604052565b634e487b7160e01b5f52604160045260245ffdfea2646970667358221220cf9514a5740144d4d38470f3b2ee27a37321926608c7854f5f23d7de74afe8cd64736f6c63430008140033","linkReferences":{}},"methodIdentifiers":{"assertExists(Variable)":"15af8fee"},"id":6}