{"abi":[{"type":"constructor","inputs":[],"stateMutability":"nonpayable"},{"type":"function","name":"count","inputs":[],"outputs":[{"name":"","type":"uint256","internalType":"uint256"}],"stateMutability":"view"},{"type":"function","name":"drasticMeasure","inputs":[],"outputs":[],"stateMutability":"nonpayable"},{"type":"function","name":"drasticMeasureTaken","inputs":[],"outputs":[{"name":"","type":"bool","internalType":"bool"}],"stateMutability":"view"},{"type":"function","name":"normalProcess","inputs":[],"outputs":[],"stateMutability":"nonpayable"},{"type":"function","name":"pause","inputs":[],"outputs":[],"stateMutability":"nonpayable"},{"type":"function","name":"paused","inputs":[],"outputs":[{"name":"","type":"bool","internalType":"bool"}],"stateMutability":"view"},{"type":"function","name":"unpause","inputs":[],"outputs":[],"stateMutability":"nonpayable"},{"type":"event","name":"Paused","inputs":[{"name":"account","type":"address","indexed":false,"internalType":"address"}],"anonymous":false},{"type":"event","name":"Unpaused","inputs":[{"name":"account","type":"address","indexed":false,"internalType":"address"}],"anonymous":false},{"type":"error","name":"EnforcedPause","inputs":[]},{"type":"error","name":"ExpectedPause","inputs":[]}],"bytecode":{"object":"0x60808060405234610023575f805461ffff1916815560015561024e90816100288239f35b5f80fdfe6080806040526004361015610012575f80fd5b5f90813560e01c90816306661abd146101bd575080633f4ba83a1461016f5780635c975abb1461014d57806376657b8e146101285780638456cb59146100d75780639958f045146100ae5763e7651d7a1461006b575f80fd5b346100ab57806003193601126100ab576100836101dd565b6001545f1981146100975760010160015580f35b634e487b7160e01b82526011600452602482fd5b80fd5b50346100ab57806003193601126100ab576100c76101fa565b805461ff00191661010017815580f35b50346100ab57806003193601126100ab576100f06101dd565b600160ff198254161781557f62e78cea01bee320cd4e420270b5ea74000d11b0c9f74754ebdbfc544b05a2586020604051338152a180f35b50346100ab57806003193601126100ab5760ff6020915460081c166040519015158152f35b50346100ab57806003193601126100ab5760ff60209154166040519015158152f35b50346100ab57806003193601126100ab576101886101fa565b60ff1981541681557f5db9ee0a495bf2e6ff9c91a7834c1ba4fdd244a5e8aa4e537bd38aeae4b073aa6020604051338152a180f35b9050346101d957816003193601126101d9576020906001548152f35b5080fd5b60ff5f54166101e857565b60405163d93c066560e01b8152600490fd5b60ff5f54161561020657565b604051638dfc202b60e01b8152600490fdfea264697066735822122019bf81f4cfd6f1e2b99367c3b7f7b331455d3e1d4a94a3ff58f88d4302e9596b64736f6c63430008140033","linkReferences":{}},"methodIdentifiers":{"count()":"06661abd","drasticMeasure()":"9958f045","drasticMeasureTaken()":"76657b8e","normalProcess()":"e7651d7a","pause()":"8456cb59","paused()":"5c975abb","unpause()":"3f4ba83a"},"id":265}