{"abi":[{"type":"function","name":"initialize","inputs":[{"name":"value","type":"uint256","internalType":"uint256"}],"outputs":[],"stateMutability":"payable"},{"type":"function","name":"migrate","inputs":[{"name":"value","type":"uint256","internalType":"uint256"},{"name":"anotherValue","type":"uint256","internalType":"uint256"}],"outputs":[],"stateMutability":"payable"},{"type":"function","name":"migrate","inputs":[],"outputs":[],"stateMutability":"payable"},{"type":"function","name":"x","inputs":[],"outputs":[{"name":"","type":"uint256","internalType":"uint256"}],"stateMutability":"view"},{"type":"function","name":"y","inputs":[],"outputs":[{"name":"","type":"uint256","internalType":"uint256"}],"stateMutability":"view"},{"type":"event","name":"Initialized","inputs":[{"name":"version","type":"uint64","indexed":false,"internalType":"uint64"}],"anonymous":false},{"type":"error","name":"InvalidInitialization","inputs":[]},{"type":"error","name":"NotInitializing","inputs":[]}],"bytecode":{"object":"0x6080806040523461001657610235908161001b8239f35b5f80fdfe608060408181526004361015610013575f80fd5b5f91823560e01c9081630c55699c146101e5575080633e54bacb146101b65780638fd3ab8014610186578063a56dfe4a146101685763fe4b84df14610056575f80fd5b6020366003190112610164577ff0c57e16840df040f15088dc2f81fe391c3923bec73e23a9662efc9c229c6a00805460ff81841c16159067ffffffffffffffff81168015908161015c575b6001149081610152575b159081610149575b506101385767ffffffffffffffff198116600117835581610119575b5060043584556100dd578280f35b805460ff60401b1916905551600181527fc7f505b2f371ae2175ee4913f4499e1f2633a7b5936321eed1cdaeb6115181d290602090a15f808280f35b68ffffffffffffffffff1916680100000000000000011782555f6100cf565b835163f92ee8a960e01b8152600490fd5b9050155f6100b3565b303b1591506100ab565b8391506100a1565b5080fd5b50346101645781600319360112610164576020906002549051908152f35b82806003193601126101b35760035460ff81166101645781546002805484555560ff191660011760035580f35b80fd5b503660031901126101b35760015460ff811661016457600190600435835560243560025560ff19161760015580f35b839034610164578160031936011261016457602091548152f3fea2646970667358221220304fc0b21f2f1946dc9032cf1f207ebe010900728d86176739c527ae27f557f064736f6c63430008140033","linkReferences":{}},"methodIdentifiers":{"initialize(uint256)":"fe4b84df","migrate()":"8fd3ab80","migrate(uint256,uint256)":"3e54bacb","x()":"0c55699c","y()":"a56dfe4a"},"id":98}