{"abi":[{"type":"function","name":"msgData","inputs":[{"name":"integerValue","type":"uint256","internalType":"uint256"},{"name":"stringValue","type":"string","internalType":"string"}],"outputs":[],"stateMutability":"nonpayable"},{"type":"function","name":"msgDataShort","inputs":[],"outputs":[],"stateMutability":"nonpayable"},{"type":"function","name":"msgSender","inputs":[],"outputs":[],"stateMutability":"nonpayable"},{"type":"event","name":"Data","inputs":[{"name":"data","type":"bytes","indexed":false,"internalType":"bytes"},{"name":"integerValue","type":"uint256","indexed":false,"internalType":"uint256"},{"name":"stringValue","type":"string","indexed":false,"internalType":"string"}],"anonymous":false},{"type":"event","name":"DataShort","inputs":[{"name":"data","type":"bytes","indexed":false,"internalType":"bytes"}],"anonymous":false},{"type":"event","name":"Initialized","inputs":[{"name":"version","type":"uint64","indexed":false,"internalType":"uint64"}],"anonymous":false},{"type":"event","name":"Sender","inputs":[{"name":"sender","type":"address","indexed":false,"internalType":"address"}],"anonymous":false},{"type":"error","name":"InvalidInitialization","inputs":[]},{"type":"error","name":"NotInitializing","inputs":[]}],"bytecode":{"object":"0x6080806040523461001657610250908161001b8239f35b5f80fdfe608060408181526004361015610013575f80fd5b5f91823560e01c908163376bf262146100cc57508063d737d0c71461008f5763ff5f6b5914610040575f80fd5b3461008b578160031936011261008b577f6d7cec71eba467294d92341ddc4e8634eb4d742a90e16f408f06e4b70bc4cd669051602081528061008560208201366101fa565b0390a180f35b5080fd5b503461008b578160031936011261008b5760207fd6558c3ed910d959271054471fd1c326679d9fece99c5091b00ed89627cf2bfc9151338152a180f35b83833461008b578060031936011261008b5767ffffffffffffffff906024358281116101f657366023820112156101f65780600401358381116101e257601f1993601f82018516603f0185168701908111878210176101ce57835280865236602482840101116101ca5760249291818692602095869301838a0137870101528051926060845261015f60608501366101fa565b9160043584860152848303908501528551808352855b8181106101b757867faf235354a0a47c91ee171961326335cb2d1a8e55b8a89859b0e61eb049e50ea08787818888601f8988868286010152011601030190a180f35b8781018501518482018601528401610175565b8480fd5b634e487b7160e01b86526041600452602486fd5b634e487b7160e01b85526041600452602485fd5b8380fd5b90602091808252805f848401375f828201840152601f01601f191601019056fea264697066735822122047a9a5218ba342c0341ad76e02a85214a4388a815272609ccb062de7e55d736e64736f6c63430008140033","linkReferences":{}},"methodIdentifiers":{"msgData(uint256,string)":"376bf262","msgDataShort()":"ff5f6b59","msgSender()":"d737d0c7"},"id":80}