{"abi":[{"type":"constructor","inputs":[],"stateMutability":"nonpayable"},{"type":"function","name":"CLOCK_MODE","inputs":[],"outputs":[{"name":"","type":"string","internalType":"string"}],"stateMutability":"view"},{"type":"function","name":"DOMAIN_SEPARATOR","inputs":[],"outputs":[{"name":"","type":"bytes32","internalType":"bytes32"}],"stateMutability":"view"},{"type":"function","name":"allowance","inputs":[{"name":"owner","type":"address","internalType":"address"},{"name":"spender","type":"address","internalType":"address"}],"outputs":[{"name":"","type":"uint256","internalType":"uint256"}],"stateMutability":"view"},{"type":"function","name":"approve","inputs":[{"name":"spender","type":"address","internalType":"address"},{"name":"value","type":"uint256","internalType":"uint256"}],"outputs":[{"name":"","type":"bool","internalType":"bool"}],"stateMutability":"nonpayable"},{"type":"function","name":"balanceOf","inputs":[{"name":"account","type":"address","internalType":"address"}],"outputs":[{"name":"","type":"uint256","internalType":"uint256"}],"stateMutability":"view"},{"type":"function","name":"checkpoints","inputs":[{"name":"account","type":"address","internalType":"address"},{"name":"pos","type":"uint32","internalType":"uint32"}],"outputs":[{"name":"","type":"tuple","internalType":"struct Checkpoints.Checkpoint208","components":[{"name":"_key","type":"uint48","internalType":"uint48"},{"name":"_value","type":"uint208","internalType":"uint208"}]}],"stateMutability":"view"},{"type":"function","name":"clock","inputs":[],"outputs":[{"name":"","type":"uint48","internalType":"uint48"}],"stateMutability":"view"},{"type":"function","name":"decimals","inputs":[],"outputs":[{"name":"","type":"uint8","internalType":"uint8"}],"stateMutability":"view"},{"type":"function","name":"delegate","inputs":[{"name":"delegatee","type":"address","internalType":"address"}],"outputs":[],"stateMutability":"nonpayable"},{"type":"function","name":"delegateBySig","inputs":[{"name":"delegatee","type":"address","internalType":"address"},{"name":"nonce","type":"uint256","internalType":"uint256"},{"name":"expiry","type":"uint256","internalType":"uint256"},{"name":"v","type":"uint8","internalType":"uint8"},{"name":"r","type":"bytes32","internalType":"bytes32"},{"name":"s","type":"bytes32","internalType":"bytes32"}],"outputs":[],"stateMutability":"nonpayable"},{"type":"function","name":"delegates","inputs":[{"name":"account","type":"address","internalType":"address"}],"outputs":[{"name":"","type":"address","internalType":"address"}],"stateMutability":"view"},{"type":"function","name":"eip712Domain","inputs":[],"outputs":[{"name":"fields","type":"bytes1","internalType":"bytes1"},{"name":"name","type":"string","internalType":"string"},{"name":"version","type":"string","internalType":"string"},{"name":"chainId","type":"uint256","internalType":"uint256"},{"name":"verifyingContract","type":"address","internalType":"address"},{"name":"salt","type":"bytes32","internalType":"bytes32"},{"name":"extensions","type":"uint256[]","internalType":"uint256[]"}],"stateMutability":"view"},{"type":"function","name":"getPastTotalSupply","inputs":[{"name":"timepoint","type":"uint256","internalType":"uint256"}],"outputs":[{"name":"","type":"uint256","internalType":"uint256"}],"stateMutability":"view"},{"type":"function","name":"getPastVotes","inputs":[{"name":"account","type":"address","internalType":"address"},{"name":"timepoint","type":"uint256","internalType":"uint256"}],"outputs":[{"name":"","type":"uint256","internalType":"uint256"}],"stateMutability":"view"},{"type":"function","name":"getVotes","inputs":[{"name":"account","type":"address","internalType":"address"}],"outputs":[{"name":"","type":"uint256","internalType":"uint256"}],"stateMutability":"view"},{"type":"function","name":"name","inputs":[],"outputs":[{"name":"","type":"string","internalType":"string"}],"stateMutability":"view"},{"type":"function","name":"nonces","inputs":[{"name":"owner","type":"address","internalType":"address"}],"outputs":[{"name":"","type":"uint256","internalType":"uint256"}],"stateMutability":"view"},{"type":"function","name":"numCheckpoints","inputs":[{"name":"account","type":"address","internalType":"address"}],"outputs":[{"name":"","type":"uint32","internalType":"uint32"}],"stateMutability":"view"},{"type":"function","name":"permit","inputs":[{"name":"owner","type":"address","internalType":"address"},{"name":"spender","type":"address","internalType":"address"},{"name":"value","type":"uint256","internalType":"uint256"},{"name":"deadline","type":"uint256","internalType":"uint256"},{"name":"v","type":"uint8","internalType":"uint8"},{"name":"r","type":"bytes32","internalType":"bytes32"},{"name":"s","type":"bytes32","internalType":"bytes32"}],"outputs":[],"stateMutability":"nonpayable"},{"type":"function","name":"symbol","inputs":[],"outputs":[{"name":"","type":"string","internalType":"string"}],"stateMutability":"view"},{"type":"function","name":"totalSupply","inputs":[],"outputs":[{"name":"","type":"uint256","internalType":"uint256"}],"stateMutability":"view"},{"type":"function","name":"transfer","inputs":[{"name":"to","type":"address","internalType":"address"},{"name":"value","type":"uint256","internalType":"uint256"}],"outputs":[{"name":"","type":"bool","internalType":"bool"}],"stateMutability":"nonpayable"},{"type":"function","name":"transferFrom","inputs":[{"name":"from","type":"address","internalType":"address"},{"name":"to","type":"address","internalType":"address"},{"name":"value","type":"uint256","internalType":"uint256"}],"outputs":[{"name":"","type":"bool","internalType":"bool"}],"stateMutability":"nonpayable"},{"type":"event","name":"Approval","inputs":[{"name":"owner","type":"address","indexed":true,"internalType":"address"},{"name":"spender","type":"address","indexed":true,"internalType":"address"},{"name":"value","type":"uint256","indexed":false,"internalType":"uint256"}],"anonymous":false},{"type":"event","name":"DelegateChanged","inputs":[{"name":"delegator","type":"address","indexed":true,"internalType":"address"},{"name":"fromDelegate","type":"address","indexed":true,"internalType":"address"},{"name":"toDelegate","type":"address","indexed":true,"internalType":"address"}],"anonymous":false},{"type":"event","name":"DelegateVotesChanged","inputs":[{"name":"delegate","type":"address","indexed":true,"internalType":"address"},{"name":"previousVotes","type":"uint256","indexed":false,"internalType":"uint256"},{"name":"newVotes","type":"uint256","indexed":false,"internalType":"uint256"}],"anonymous":false},{"type":"event","name":"EIP712DomainChanged","inputs":[],"anonymous":false},{"type":"event","name":"Transfer","inputs":[{"name":"from","type":"address","indexed":true,"internalType":"address"},{"name":"to","type":"address","indexed":true,"internalType":"address"},{"name":"value","type":"uint256","indexed":false,"internalType":"uint256"}],"anonymous":false},{"type":"error","name":"CheckpointUnorderedInsertion","inputs":[]},{"type":"error","name":"ECDSAInvalidSignature","inputs":[]},{"type":"error","name":"ECDSAInvalidSignatureLength","inputs":[{"name":"length","type":"uint256","internalType":"uint256"}]},{"type":"error","name":"ECDSAInvalidSignatureS","inputs":[{"name":"s","type":"bytes32","internalType":"bytes32"}]},{"type":"error","name":"ERC20ExceededSafeSupply","inputs":[{"name":"increasedSupply","type":"uint256","internalType":"uint256"},{"name":"cap","type":"uint256","internalType":"uint256"}]},{"type":"error","name":"ERC20InsufficientAllowance","inputs":[{"name":"spender","type":"address","internalType":"address"},{"name":"allowance","type":"uint256","internalType":"uint256"},{"name":"needed","type":"uint256","internalType":"uint256"}]},{"type":"error","name":"ERC20InsufficientBalance","inputs":[{"name":"sender","type":"address","internalType":"address"},{"name":"balance","type":"uint256","internalType":"uint256"},{"name":"needed","type":"uint256","internalType":"uint256"}]},{"type":"error","name":"ERC20InvalidApprover","inputs":[{"name":"approver","type":"address","internalType":"address"}]},{"type":"error","name":"ERC20InvalidReceiver","inputs":[{"name":"receiver","type":"address","internalType":"address"}]},{"type":"error","name":"ERC20InvalidSender","inputs":[{"name":"sender","type":"address","internalType":"address"}]},{"type":"error","name":"ERC20InvalidSpender","inputs":[{"name":"spender","type":"address","internalType":"address"}]},{"type":"error","name":"ERC2612ExpiredSignature","inputs":[{"name":"deadline","type":"uint256","internalType":"uint256"}]},{"type":"error","name":"ERC2612InvalidSigner","inputs":[{"name":"signer","type":"address","internalType":"address"},{"name":"owner","type":"address","internalType":"address"}]},{"type":"error","name":"ERC5805FutureLookup","inputs":[{"name":"timepoint","type":"uint256","internalType":"uint256"},{"name":"clock","type":"uint48","internalType":"uint48"}]},{"type":"error","name":"ERC6372InconsistentClock","inputs":[]},{"type":"error","name":"InvalidAccountNonce","inputs":[{"name":"account","type":"address","internalType":"address"},{"name":"currentNonce","type":"uint256","internalType":"uint256"}]},{"type":"error","name":"InvalidShortString","inputs":[]},{"type":"error","name":"SafeCastOverflowedUintDowncast","inputs":[{"name":"bits","type":"uint8","internalType":"uint8"},{"name":"value","type":"uint256","internalType":"uint256"}]},{"type":"error","name":"StringTooLong","inputs":[{"name":"str","type":"string","internalType":"string"}]},{"type":"error","name":"VotesExpiredSignature","inputs":[{"name":"expiry","type":"uint256","internalType":"uint256"}]}],"bytecode":{"object":"0x610160604081815234620004065762000018826200040a565b600782526020918281016626bcaa37b5b2b760c91b8082528351906200003e826200040a565b600782528582015283519462000054866200040a565b600394858752624d544b60e81b8288015280519262000073846200040a565b6001808552603160f81b84860190815282516001600160401b0399919391908a811162000311578154928484811c94168015620003fb575b88851014620003e7578190601f9485811162000394575b50889085831160011462000331575f9262000325575b50505f1982841b1c191690841b1781555b8a51918a8311620003115760049b8c548581811c9116801562000306575b89821014620002f357828111620002ab575b508791841160011462000244579383949184925f9562000238575b50501b925f19911b1c19161788555b6200014e8662000426565b946101209586526200016085620005de565b96610140978852519020938460e05251902096610100978089524660a0528251938401947f8b73c3c69bb8fe3d512ecc4cf759cc79239f7b179b0ffacaa9a75d522b39400f86528385015260608401524660808401523060a084015260a0835260c0830196838810908811176200022557508590525190206080523060c052611e2993846200078c853960805184611498015260a05184611553015260c05184611462015260e051846114e70152518361150d015251826106a8015251816106d10152f35b604190634e487b7160e01b5f525260245ffd5b015193505f8062000134565b9190601f198416928d5f5284895f20945f5b8b8983831062000293575050501062000279575b50505050811b01885562000143565b01519060f8845f19921b161c191690555f8080806200026a565b86860151895590970196948501948893500162000256565b8d5f52885f208380870160051c8201928b8810620002e9575b0160051c019086905b828110620002dd57505062000119565b5f8155018690620002cd565b92508192620002c4565b60228e634e487b7160e01b5f525260245ffd5b90607f169062000107565b634e487b7160e01b5f52604160045260245ffd5b015190505f80620000d8565b90869350601f19831691855f528a5f20925f5b8c8282106200037d575050841162000365575b505050811b018155620000e9565b01515f1983861b60f8161c191690555f808062000357565b8385015186558a9790950194938401930162000344565b909150835f52885f208580850160051c8201928b8610620003dd575b918891869594930160051c01915b828110620003ce575050620000c2565b5f8155859450889101620003be565b92508192620003b0565b634e487b7160e01b5f52602260045260245ffd5b93607f1693620000ab565b5f80fd5b604081019081106001600160401b038211176200031157604052565b80516020919082811015620004c2575090601f8251116200046357808251920151908083106200045557501790565b825f19910360031b1b161790565b90604051809263305a27a960e01b82528060048301528251908160248401525f935b828510620004a8575050604492505f838284010152601f80199101168101030190fd5b848101820151868601604401529381019385935062000485565b6001600160401b03811162000311576005928354926001938481811c91168015620005d3575b83821014620003e757601f81116200059f575b5081601f84116001146200053957509282939183925f946200052d575b50501b915f199060031b1c191617905560ff90565b015192505f8062000518565b919083601f198116875f52845f20945f905b888383106200058457505050106200056b575b505050811b01905560ff90565b01515f1960f88460031b161c191690555f80806200055e565b8587015188559096019594850194879350908101906200054b565b855f5284601f845f209201871c820191601f8601881c015b828110620005c7575050620004fb565b5f8155018590620005b7565b90607f1690620004e8565b8051602090818110156200066a5750601f8251116200060b57808251920151908083106200045557501790565b90604051809263305a27a960e01b82528060048301528251908160248401525f935b82851062000650575050604492505f838284010152601f80199101168101030190fd5b84810182015186860160440152938101938593506200062d565b906001600160401b0382116200031157600654926001938481811c9116801562000780575b83821014620003e757601f811162000749575b5081601f8411600114620006e157509282939183925f94620006d5575b50501b915f199060031b1c19161760065560ff90565b015192505f80620006bf565b919083601f19811660065f52845f20945f905b888383106200072e575050501062000715575b505050811b0160065560ff90565b01515f1960f88460031b161c191690555f808062000707565b858701518855909601959485019487935090810190620006f4565b60065f5284601f845f20920160051c820191601f860160051c015b82811062000774575050620006a2565b5f815501859062000764565b90607f16906200068f56fe60806040526004361015610011575f80fd5b5f3560e01c806306fdde0314610184578063095ea7b31461017f57806318160ddd1461017a57806323b872dd14610175578063313ce567146101705780633644e5151461016b5780633a46b1a8146101665780634bf5d7e914610161578063587cde1e1461015c5780635c19a95c146101575780636fcfff451461015257806370a082311461014d5780637ecebe001461014857806384b0196e146101435780638e539e8c1461013e57806391ddadf41461013957806395d89b41146101345780639ab24eb01461012f578063a9059cbb1461012a578063c3cda52014610125578063d505accf14610120578063dd62ed3e1461011b5763f1127ed814610116575f80fd5b610c42565b610beb565b610ab8565b6109ef565b6109a9565b610962565b6108bf565b610894565b610785565b61068e565b610656565b61061e565b6105b8565b610594565b61055b565b6104ca565b610420565b6103fe565b6103e3565b610338565b61031b565b6102ea565b6101db565b91908251928382525f5b8481106101b3575050825f602080949584010152601f8019910116010190565b602081830181015184830182015201610193565b9060206101d8928181520190610189565b90565b346102ba575f806003193601126102b757604051816003546101fc81610fa7565b8084529060019081811690811561028f5750600114610236575b6102328461022681880382610d5f565b604051918291826101c7565b0390f35b60038352602094507fc2575a0e9e593c00f959f8c92f12db2869c3395a3b0502d05e2516446f71f85b5b82841061027c5750505081610232936102269282010193610216565b8054858501870152928501928101610260565b61023296506102269450602092508593915060ff191682840152151560051b82010193610216565b80fd5b5f80fd5b600435906001600160a01b03821682036102ba57565b602435906001600160a01b03821682036102ba57565b346102ba5760403660031901126102ba576103106103066102be565b60243590336110ea565b602060405160018152f35b346102ba575f3660031901126102ba576020600254604051908152f35b346102ba5760603660031901126102ba576103516102be565b6103596102d4565b6001600160a01b0382165f908152600160209081526040808320338452909152902060443591905492600184016103a1575b6103959350610fdf565b60405160018152602090f35b8284106103bd576103b88361039595033383611198565b61038b565b604051637dc7a0d960e11b81523360048201526024810185905260448101849052606490fd5b346102ba575f3660031901126102ba57602060405160128152f35b346102ba575f3660031901126102ba57602061041861145f565b604051908152f35b346102ba5760403660031901126102ba576104396102be565b60243561044543611780565b9165ffffffffffff831682101561049f576001600160a01b03165f90815260096020526040902061023292506001600160d01b039161048e919061048890611780565b906117c0565b604051911681529081906020820190565b50604051637669fc0f60e11b8152600481019190915265ffffffffffff919091166024820152604490fd5b346102ba575f3660031901126102ba576104e343611780565b65ffffffffffff806104f443611780565b169116036105495761023260405161050b81610cea565b601d81527f6d6f64653d626c6f636b6e756d6265722666726f6d3d64656661756c740000006020820152604051918291602083526020830190610189565b6040516301bfc1c560e61b8152600490fd5b346102ba5760203660031901126102ba5760206001600160a01b038061057f6102be565b165f526008825260405f205416604051908152f35b346102ba5760203660031901126102ba576105b66105b06102be565b33610d90565b005b346102ba5760203660031901126102ba576001600160a01b036105d96102be565b165f52600960205260405f205463ffffffff908181116105ff5760209160405191168152f35b604490604051906306dfcc6560e41b8252602060048301526024820152fd5b346102ba5760203660031901126102ba57602061041861063c6102be565b6001600160a01b03165f9081526020819052604090205490565b346102ba5760203660031901126102ba576001600160a01b036106776102be565b165f526007602052602060405f2054604051908152f35b346102ba575f806003193601126102b757610737906106cc7f000000000000000000000000000000000000000000000000000000000000000061159f565b6106f57f0000000000000000000000000000000000000000000000000000000000000000611695565b916040519161070383610d0b565b818352604051948594600f60f81b865261072960209360e08589015260e0880190610189565b908682036040880152610189565b904660608601523060808601528260a086015284820360c08601528080855193848152019401925b82811061076e57505050500390f35b83518552869550938101939281019260010161075f565b346102ba5760203660031901126102ba576004356107a243611780565b9065ffffffffffff9182811682101561086d57506107bf90611780565b600a54905f908260058111610814575b506107da9350611d6d565b5f816107f857505060205f5b6040516001600160d01b039091168152f35b602061080481936117b2565b91600a815220015460301c6107e6565b909261081f826118b8565b820391821161086857600a83525f80516020611dd48339815191528201546107da9590811690851610156108565750915b5f6107cf565b9291506108629061129d565b90610850565b610f93565b604051637669fc0f60e11b8152600481019290925265ffffffffffff166024820152604490fd5b346102ba575f3660031901126102ba5760206108af43611780565b65ffffffffffff60405191168152f35b346102ba575f806003193601126102b757604051816004546108e081610fa7565b8084529060019081811690811561028f5750600114610909576102328461022681880382610d5f565b60048352602094507f8a35acfbc15ff81a39ae7d344fd709f28e8600b4aa8c65c6b64bfe7fe36bd19b5b82841061094f5750505081610232936102269282010193610216565b8054858501870152928501928101610933565b346102ba5760203660031901126102ba576001600160a01b036109836102be565b165f526009602052602060018060d01b036109a060405f20611a3f565b16604051908152f35b346102ba5760403660031901126102ba576103106109c56102be565b6024359033610fdf565b6064359060ff821682036102ba57565b6084359060ff821682036102ba57565b346102ba5760c03660031901126102ba57610a086102be565b60443590602435610a176109cf565b834211610a9f57610a936105b694610a9a926040519060208201927fe48329057bfd03d55e49b547132e39cffd9c1820ad7b9d4c5307691425d15adf845260018060a01b0388166040840152866060840152608083015260808252610a7b82610d27565b610a8e60a4359360843593519020611579565b611318565b91826112c3565b610d90565b604051632341d78760e11b815260048101859052602490fd5b346102ba5760e03660031901126102ba57610ad16102be565b610ad96102d4565b60443590606435610ae86109df565b814211610bd2576001600160a01b038581165f8181526007602090815260409182902080546001810190915582517f6e71edae12b1b97f4d1f60370fef10105fa2faae0126114a169c64845d6126c99281019283529283019390935292861660608201526080810187905260a081019190915260c080820194909452928352610b8b929091610b7860e083610d5f565b610a8e60c4359360a43593519020611579565b6001600160a01b0384811690821603610ba857506105b6926110ea565b6040516325c0072360e11b81526001600160a01b0391821660048201529084166024820152604490fd5b60405163313c898160e11b815260048101839052602490fd5b346102ba5760403660031901126102ba576020610c39610c096102be565b610c116102d4565b6001600160a01b039182165f9081526001855260408082209290931681526020919091522090565b54604051908152f35b346102ba5760403660031901126102ba57610c5b6102be565b60243563ffffffff811681036102ba57610caa610cb091604093610c7d6112ab565b50610c866112ab565b506001600160a01b03165f9081526009602052849020610ca46112ab565b50611a6a565b50611a93565b8151815165ffffffffffff1681526020918201516001600160d01b031691810191909152f35b634e487b7160e01b5f52604160045260245ffd5b6040810190811067ffffffffffffffff821117610d0657604052565b610cd6565b6020810190811067ffffffffffffffff821117610d0657604052565b60a0810190811067ffffffffffffffff821117610d0657604052565b60c0810190811067ffffffffffffffff821117610d0657604052565b90601f8019910116810190811067ffffffffffffffff821117610d0657604052565b60405190610d8e82610cea565b565b6001600160a01b038181165f81815260086020526040812080548685166001600160a01b031982168117909255610d8e96941694610e0b9390928691907f3134e8a2e6d97e929a7e54011ea5485d7d196dd5f0ba4d4ef95803e8e3fc257f9080a46001600160a01b03165f9081526020819052604090205490565b915b6001600160a01b03808316939291908116908185141580610f54575b610e35575b5050505050565b81610eb9575b505082610e4a575b8080610e2e565b6001600160a01b03165f9081526009602052604090207fdec2bacdd2f05b59de34da9b523dff8be42e5e38e818c82fdb0bae774387a72491610e9691610e90909161174d565b90610f5d565b604080516001600160d01b039384168152919092166020820152a25f8080610e43565b6001600160a01b03165f908152600960205260409020610ed88461174d565b610ee143611780565b6001600160d01b03918280610ef586611a3f565b169116900392828411610868577fdec2bacdd2f05b59de34da9b523dff8be42e5e38e818c82fdb0bae774387a72493610f4a92610f3192611c8f565b6040805192851683529316602082015291829190820190565b0390a25f80610e3b565b50831515610e29565b90610f6743611780565b6001600160d01b03918280610f7b86611a3f565b16911601918211610f9357610f8f92611c8f565b9091565b634e487b7160e01b5f52601160045260245ffd5b90600182811c92168015610fd5575b6020831014610fc157565b634e487b7160e01b5f52602260045260245ffd5b91607f1691610fb6565b6001600160a01b03808216949392919085156110d257821680156110ba576001600160a01b0382165f908152602081905260409020549584871061108b5784610d8e96970361103d8460018060a01b03165f525f60205260405f2090565b556001600160a01b0384165f908152602081815260409182902080548801905590518681527fddf252ad1be2c89b69c2b068fc378daa952ba7f163c4a11628f55a4df523b3ef9190a36111d0565b60405163391434e360e21b81526001600160a01b03841660048201526024810188905260448101869052606490fd5b60405163ec442f0560e01b81525f6004820152602490fd5b604051634b637e8f60e11b81525f6004820152602490fd5b6001600160a01b038082169291908315611180578216938415611168578061115e7f8c5be1e5ebec7d5bd14f71427d1e84f3dd0314c0f7b2291e5b200ac8c7c3b9259461114960209560018060a01b03165f52600160205260405f2090565b9060018060a01b03165f5260205260405f2090565b55604051908152a3565b604051634a1406b160e11b81525f6004820152602490fd5b60405163e602df0560e01b81525f6004820152602490fd5b906001600160a01b038083161561118057811615611168576111496111cd9260018060a01b03165f52600160205260405f2090565b55565b6001600160a01b03908116929181908415611258575b16908115611210575b610d8e935f5260086020528060405f205416915f5260405f20541690610e0d565b6112198361174d565b9361122343611780565b6001600160d01b03958680611236611a08565b169116900395861161086857610d8e9561124f91611b6a565b505093506111ef565b90506112638361174d565b9061126d43611780565b6001600160d01b03928380611280611a08565b1691160192831161086857839261129691611b6a565b50506111e6565b906001820180921161086857565b604051906112b882610cea565b5f6020838281520152565b6001600160a01b0381165f90815260076020526040902080546001810190915590918190036112f0575050565b6040516301d4b62360e61b81526001600160a01b039092166004830152602482015260449150fd5b916101d8939161132793611330565b909291926113d2565b91906fa2a8918ca85bafe22016d0b997e4df60600160ff1b0384116113a957926020929160ff6080956040519485521684840152604083015260608201525f92839182805260015afa1561139d5780516001600160a01b0381161561139457918190565b50809160019190565b604051903d90823e3d90fd5b5050505f9160039190565b600411156113be57565b634e487b7160e01b5f52602160045260245ffd5b6113db816113b4565b806113e4575050565b6113ed816113b4565b600181036114075760405163f645eedf60e01b8152600490fd5b611410816113b4565b600281036114315760405163fce698f760e01b815260048101839052602490fd5b8061143d6003926113b4565b146114455750565b6040516335e2f38360e21b81526004810191909152602490fd5b307f00000000000000000000000000000000000000000000000000000000000000006001600160a01b03161480611550575b156114ba577f000000000000000000000000000000000000000000000000000000000000000090565b60405160208101907f8b73c3c69bb8fe3d512ecc4cf759cc79239f7b179b0ffacaa9a75d522b39400f82527f000000000000000000000000000000000000000000000000000000000000000060408201527f000000000000000000000000000000000000000000000000000000000000000060608201524660808201523060a082015260a0815261154a81610d43565b51902090565b507f00000000000000000000000000000000000000000000000000000000000000004614611491565b60429061158461145f565b906040519161190160f01b8352600283015260228201522090565b60ff81146115dd5760ff811690601f82116115cb57604051916115c183610cea565b8252602082015290565b604051632cd44ac360e21b8152600490fd5b50604051600554815f6115ef83610fa7565b8083526001938085169081156116745750600114611615575b506101d892500382610d5f565b60055f9081527f036b6384b5eca791c62761152d0c79bb0604c104a5fb6f4eb0703f3154bb3db094602093509091905b81831061165c5750506101d893508201015f611608565b85548784018501529485019486945091830191611645565b90506101d894506020925060ff191682840152151560051b8201015f611608565b60ff81146116b75760ff811690601f82116115cb57604051916115c183610cea565b50604051600654815f6116c983610fa7565b80835260019380851690811561167457506001146116ee57506101d892500382610d5f565b60065f9081527ff652222313e28459528d920b65115c16c04f3efc82aaedc97be59f3f377c0d3f94602093509091905b8183106117355750506101d893508201015f611608565b8554878401850152948501948694509183019161171e565b6001600160d01b0390818111611761571690565b604490604051906306dfcc6560e41b825260d060048301526024820152fd5b65ffffffffffff90818111611793571690565b604490604051906306dfcc6560e41b8252603060048301526024820152fd5b5f1981019190821161086857565b9081545f8160058111611850575b509190915b8281106118035750505f81155f146117ec575050505f90565b6117f76020926117b2565b92815220015460301c90565b90918082169080831860011c820180921161086857845f5265ffffffffffff808360205f20015416908516105f1461183e5750915b906117d3565b92915061184a9061129d565b90611838565b909161185b826118b8565b82039182116108685784835265ffffffffffff808360208620015416908516105f1461188a5750905b5f6117ce565b91506118959061129d565b611884565b81156118a4570490565b634e487b7160e01b5f52601260045260245ffd5b80156119f1578061198a61198361197961196f61196561195b61195161194760016101d89a5f908b60801c806119e5575b508060401c806119d8575b508060201c806119cb575b508060101c806119be575b508060081c806119b1575b508060041c806119a4575b508060021c80611997575b50821c611990575b811c1b611940818b61189a565b0160011c90565b611940818a61189a565b611940818961189a565b611940818861189a565b611940818761189a565b611940818661189a565b611940818561189a565b809261189a565b906119f6565b8101611933565b600291509101905f61192b565b600491509101905f611920565b600891509101905f611915565b601091509101905f61190a565b602091509101905f6118ff565b604091509101905f6118f4565b9150506080905f6118e9565b505f90565b9080821015611a03575090565b905090565b600a545f9080611a185750505f90565b5f1991818381011161086857600a9052015f80516020611dd4833981519152015460301c90565b80545f9181611a4f575050505f90565b5f199282848101116108685760209181522001015460301c90565b8054821015611a7f575f5260205f2001905f90565b634e487b7160e01b5f52603260045260245ffd5b90604051611aa081610cea565b915465ffffffffffff8116835260301c6020830152565b600a5490600160401b821015610d06576001820180600a55821015611a7f57600a5f5280516020919091015160301b65ffffffffffff191665ffffffffffff91909116175f80516020611dd483398151915290910155565b8054600160401b811015610d0657611b2c91600182018155611a6a565b611b5757815160209092015160301b65ffffffffffff191665ffffffffffff92909216919091179055565b634e487b7160e01b5f525f60045260245ffd5b600a54919291908115611c6657611ba1611b9c611b86846117b2565b600a5f525f80516020611dd48339815191520190565b611a93565b805165ffffffffffff8381169491168410611c545785602093611c1895611bdc611bd1865165ffffffffffff1690565b65ffffffffffff1690565b03611c1c5750611bf1611b86611c0a936117b2565b9065ffffffffffff82549181199060301b169116179055565b01516001600160d01b031690565b9190565b9050611c4f9150611c3c611c2e610d81565b65ffffffffffff9092168252565b6001600160d01b03871681850152611ab7565b611c0a565b604051632520601d60e01b8152600490fd5b611c8a9150611c76611c2e610d81565b6001600160d01b0384166020820152611ab7565b5f9190565b805492939291908215611d4957611cb6611b9c611cab856117b2565b835f5260205f200190565b90611cc7825165ffffffffffff1690565b65ffffffffffff84811691168110611c5457611c18946020948892611cf5611bd1875165ffffffffffff1690565b03611d165750611c0a92611d0b611bf1926117b2565b905f5260205f200190565b915050611c4f91611d36611d28610d81565b65ffffffffffff9093168352565b6001600160d01b03881682860152611b0f565b611c8a9250611d59611d28610d81565b6001600160d01b0385166020830152611b0f565b905b828110611d7b57505090565b90918082169080831860011c820180921161086857600a5f525f80516020611dd483398151915282015465ffffffffffff9081169085161015611dc15750915b90611d6f565b929150611dcd9061129d565b90611dbb56fec65a7bb8d6351c1cf70c95a316cc6a92839c986682d98bc35f958f4883f9d2a8a2646970667358221220adc1b9a469c42ecc64c14dd5d765a72bde842b7ecee9b2bcef1955f527d17cf364736f6c63430008140033","linkReferences":{}},"methodIdentifiers":{"CLOCK_MODE()":"4bf5d7e9","DOMAIN_SEPARATOR()":"3644e515","allowance(address,address)":"dd62ed3e","approve(address,uint256)":"095ea7b3","balanceOf(address)":"70a08231","checkpoints(address,uint32)":"f1127ed8","clock()":"91ddadf4","decimals()":"313ce567","delegate(address)":"5c19a95c","delegateBySig(address,uint256,uint256,uint8,bytes32,bytes32)":"c3cda520","delegates(address)":"587cde1e","eip712Domain()":"84b0196e","getPastTotalSupply(uint256)":"8e539e8c","getPastVotes(address,uint256)":"3a46b1a8","getVotes(address)":"9ab24eb0","name()":"06fdde03","nonces(address)":"7ecebe00","numCheckpoints(address)":"6fcfff45","permit(address,address,uint256,uint256,uint8,bytes32,bytes32)":"d505accf","symbol()":"95d89b41","totalSupply()":"18160ddd","transfer(address,uint256)":"a9059cbb","transferFrom(address,address,uint256)":"23b872dd"},"id":280}