{"abi":[{"type":"constructor","inputs":[{"name":"originalOwner","type":"address","internalType":"address"}],"stateMutability":"nonpayable"},{"type":"function","name":"isValidSignature","inputs":[{"name":"hash","type":"bytes32","internalType":"bytes32"},{"name":"signature","type":"bytes","internalType":"bytes"}],"outputs":[{"name":"magicValue","type":"bytes4","internalType":"bytes4"}],"stateMutability":"view"},{"type":"function","name":"owner","inputs":[],"outputs":[{"name":"","type":"address","internalType":"address"}],"stateMutability":"view"},{"type":"function","name":"renounceOwnership","inputs":[],"outputs":[],"stateMutability":"nonpayable"},{"type":"function","name":"transferOwnership","inputs":[{"name":"newOwner","type":"address","internalType":"address"}],"outputs":[],"stateMutability":"nonpayable"},{"type":"event","name":"OwnershipTransferred","inputs":[{"name":"previousOwner","type":"address","indexed":true,"internalType":"address"},{"name":"newOwner","type":"address","indexed":true,"internalType":"address"}],"anonymous":false},{"type":"error","name":"ECDSAInvalidSignature","inputs":[]},{"type":"error","name":"ECDSAInvalidSignatureLength","inputs":[{"name":"length","type":"uint256","internalType":"uint256"}]},{"type":"error","name":"ECDSAInvalidSignatureS","inputs":[{"name":"s","type":"bytes32","internalType":"bytes32"}]},{"type":"error","name":"OwnableInvalidOwner","inputs":[{"name":"owner","type":"address","internalType":"address"}]},{"type":"error","name":"OwnableUnauthorizedAccount","inputs":[{"name":"account","type":"address","internalType":"address"}]}],"bytecode":{"object":"0x6080346100b957601f6104bf38819003918201601f19168301916001600160401b038311848410176100bd578084926020946040528339810103126100b957516001600160a01b0390818116908190036100b95780156100a1575f80546001600160a01b03198116831782556040519316907f8be0079c531659141344cd1fd0a4f28419497f9722a3daafe3b4186f6b6457e09080a36103ed90816100d28239f35b604051631e4fbdf760e01b81525f6004820152602490fd5b5f80fd5b634e487b7160e01b5f52604160045260245ffdfe6080604081815260049081361015610015575f80fd5b5f92833560e01c9081631626ba7e1461016657508063715018a6146101095780638da5cb5b146100dd5763f2fde38b1461004d575f80fd5b346100d95760203660031901126100d9576001600160a01b038235818116939192908490036100d55761007e61024b565b83156100bf57505082546001600160a01b0319811683178455167f8be0079c531659141344cd1fd0a4f28419497f9722a3daafe3b4186f6b6457e08380a380f35b51631e4fbdf760e01b8152908101849052602490fd5b8480fd5b8280fd5b838234610105578160031936011261010557905490516001600160a01b039091168152602090f35b5080fd5b833461016357806003193601126101635761012261024b565b80546001600160a01b03198116825581906001600160a01b03167f8be0079c531659141344cd1fd0a4f28419497f9722a3daafe3b4186f6b6457e08280a380f35b80fd5b919290503461024757826003193601126102475767ffffffffffffffff602435818111610230573660238201121561023057808301359180831161023457601f8301601f19908116603f0116850190811185821017610234578552818452366024838301011161023057926101fa92866020846101f1956024839b9901838701378401015235610276565b90929192610334565b81546001600160a01b0391821691160361022a5750630b135d3f60e11b905b516001600160e01b03199091168152f35b90610219565b8580fd5b634e487b7160e01b875260418452602487fd5b8380fd5b5f546001600160a01b0316330361025e57565b60405163118cdaa760e01b8152336004820152602490fd5b81519190604183036102a65761029f9250602082015190606060408401519301515f1a906102b0565b9192909190565b50505f9160029190565b91906fa2a8918ca85bafe22016d0b997e4df60600160ff1b03841161032957926020929160ff6080956040519485521684840152604083015260608201525f92839182805260015afa1561031d5780516001600160a01b0381161561031457918190565b50809160019190565b604051903d90823e3d90fd5b5050505f9160039190565b60048110156103a35780610346575050565b600181036103605760405163f645eedf60e01b8152600490fd5b600281036103815760405163fce698f760e01b815260048101839052602490fd5b60031461038b5750565b602490604051906335e2f38360e21b82526004820152fd5b634e487b7160e01b5f52602160045260245ffdfea264697066735822122084819418874abec7e2e05075563badfd1b0583f6ddf0fb03a32831d0fb43b04364736f6c63430008140033","linkReferences":{}},"methodIdentifiers":{"isValidSignature(bytes32,bytes)":"1626ba7e","owner()":"8da5cb5b","renounceOwnership()":"715018a6","transferOwnership(address)":"f2fde38b"},"id":253}