{"abi":[{"type":"function","name":"disableReentrancy","inputs":[],"outputs":[],"stateMutability":"nonpayable"},{"type":"function","name":"enableRentrancy","inputs":[{"name":"target","type":"address","internalType":"address"},{"name":"data","type":"bytes","internalType":"bytes"}],"outputs":[],"stateMutability":"nonpayable"},{"type":"function","name":"reenter","inputs":[],"outputs":[],"stateMutability":"nonpayable"},{"type":"event","name":"Initialized","inputs":[{"name":"version","type":"uint64","indexed":false,"internalType":"uint64"}],"anonymous":false},{"type":"error","name":"AddressEmptyCode","inputs":[{"name":"target","type":"address","internalType":"address"}]},{"type":"error","name":"AddressInsufficientBalance","inputs":[{"name":"account","type":"address","internalType":"address"}]},{"type":"error","name":"FailedInnerCall","inputs":[]},{"type":"error","name":"InvalidInitialization","inputs":[]},{"type":"error","name":"NotInitializing","inputs":[]}],"bytecode":{"object":"0x6080806040523461001657610427908161001b8239f35b5f80fdfe60806040526004361015610011575f80fd5b5f803560e01c80633654421b146101a7578063a0fe97e31461005e5763cc23fb1c1461003b575f80fd5b3461005b578060031936011261005b57600160ff19600254161760025580f35b80fd5b503461005b578060031936011261005b5760025460ff81161561007f575080f35b9060018060ff198094161760025560018060a01b0382541692826040519181928454946100ab86610320565b90818352602096878085019583831692835f1461018a5750505060011461014a575b50506100dc8184950382610358565b519082875af13d1561013b573d9367ffffffffffffffff85116101275761012393946040519061011585601f19601f8401160183610358565b81528581943d92013e61038e565b5080f35b634e487b7160e01b84526041600452602484fd5b6101239293915060609161038e565b9086929395508185528285209185925b8284106101725750505082010192906100dc816100cd565b8054868501860152899650889490930192810161015a565b16865292151560051b840190920195506100dc91508290506100cd565b503461005b57604036600319011261005b576004356001600160a01b038116919082900361005b5760249182359067ffffffffffffffff9081831161031c573660238401121561031c57826004013591821161031c573685838501011161031c5783546001600160a01b0319161783556001805490929061022790610320565b601f81116102d4575b508390601f831160011461026e579084959183949593610261575b5050505f19600383901b1c191690821b17905580f35b01013590505f808061024b565b601f198316958486526020928387209387905b8982106102bb57505084869798106102a0575b50505050811b01905580f35b5f1960f88660031b161c19920101351690555f808080610294565b8088849786839596890101358155019601920190610281565b83855260208520601f840160051c81019160208510610312575b601f0160051c019084905b828110610307575050610230565b8681550184906102f9565b90915081906102ee565b8380fd5b90600182811c9216801561034e575b602083101461033a57565b634e487b7160e01b5f52602260045260245ffd5b91607f169161032f565b90601f8019910116810190811067ffffffffffffffff82111761037a57604052565b634e487b7160e01b5f52604160045260245ffd5b906103b557508051156103a357805190602001fd5b604051630a12f52160e11b8152600490fd5b815115806103e8575b6103c6575090565b604051639996b31560e01b81526001600160a01b039091166004820152602490fd5b50803b156103be56fea264697066735822122072750536596d8a35c1163c6ac14e469d8e2358b1d8662cfaa9f3b1912083af6864736f6c63430008140033","linkReferences":{}},"methodIdentifiers":{"disableReentrancy()":"cc23fb1c","enableRentrancy(address,bytes)":"3654421b","reenter()":"a0fe97e3"},"id":102}