{"abi":[{"type":"function","name":"decimals","inputs":[],"outputs":[{"name":"","type":"uint256","internalType":"uint256"}],"stateMutability":"pure"},{"type":"event","name":"Initialized","inputs":[{"name":"version","type":"uint64","indexed":false,"internalType":"uint64"}],"anonymous":false},{"type":"error","name":"InvalidInitialization","inputs":[]},{"type":"error","name":"NotInitializing","inputs":[]}],"bytecode":{"object":"0x60808060405234601457607690816100198239f35b5f80fdfe60808060405260043610156011575f80fd5b5f90813560e01c63313ce567146025575f80fd5b34603c5781600319360112603c575f198152602090f35b5080fdfea264697066735822122041defb92b38d1edd30a2df7f9f57c7b4622926795d1c2f372e5d4cd0cd175d9464736f6c63430008140033","linkReferences":{}},"methodIdentifiers":{"decimals()":"313ce567"},"id":127}