{"abi":[{"type":"receive","stateMutability":"payable"},{"type":"function","name":"duration","inputs":[],"outputs":[{"name":"","type":"uint256","internalType":"uint256"}],"stateMutability":"view"},{"type":"function","name":"end","inputs":[],"outputs":[{"name":"","type":"uint256","internalType":"uint256"}],"stateMutability":"view"},{"type":"function","name":"owner","inputs":[],"outputs":[{"name":"","type":"address","internalType":"address"}],"stateMutability":"view"},{"type":"function","name":"releasable","inputs":[{"name":"token","type":"address","internalType":"address"}],"outputs":[{"name":"","type":"uint256","internalType":"uint256"}],"stateMutability":"view"},{"type":"function","name":"releasable","inputs":[],"outputs":[{"name":"","type":"uint256","internalType":"uint256"}],"stateMutability":"view"},{"type":"function","name":"release","inputs":[{"name":"token","type":"address","internalType":"address"}],"outputs":[],"stateMutability":"nonpayable"},{"type":"function","name":"release","inputs":[],"outputs":[],"stateMutability":"nonpayable"},{"type":"function","name":"released","inputs":[],"outputs":[{"name":"","type":"uint256","internalType":"uint256"}],"stateMutability":"view"},{"type":"function","name":"released","inputs":[{"name":"token","type":"address","internalType":"address"}],"outputs":[{"name":"","type":"uint256","internalType":"uint256"}],"stateMutability":"view"},{"type":"function","name":"renounceOwnership","inputs":[],"outputs":[],"stateMutability":"nonpayable"},{"type":"function","name":"start","inputs":[],"outputs":[{"name":"","type":"uint256","internalType":"uint256"}],"stateMutability":"view"},{"type":"function","name":"transferOwnership","inputs":[{"name":"newOwner","type":"address","internalType":"address"}],"outputs":[],"stateMutability":"nonpayable"},{"type":"function","name":"vestedAmount","inputs":[{"name":"timestamp","type":"uint64","internalType":"uint64"}],"outputs":[{"name":"","type":"uint256","internalType":"uint256"}],"stateMutability":"view"},{"type":"function","name":"vestedAmount","inputs":[{"name":"token","type":"address","internalType":"address"},{"name":"timestamp","type":"uint64","internalType":"uint64"}],"outputs":[{"name":"","type":"uint256","internalType":"uint256"}],"stateMutability":"view"},{"type":"event","name":"ERC20Released","inputs":[{"name":"token","type":"address","indexed":true,"internalType":"address"},{"name":"amount","type":"uint256","indexed":false,"internalType":"uint256"}],"anonymous":false},{"type":"event","name":"EtherReleased","inputs":[{"name":"amount","type":"uint256","indexed":false,"internalType":"uint256"}],"anonymous":false},{"type":"event","name":"Initialized","inputs":[{"name":"version","type":"uint64","indexed":false,"internalType":"uint64"}],"anonymous":false},{"type":"event","name":"OwnershipTransferred","inputs":[{"name":"previousOwner","type":"address","indexed":true,"internalType":"address"},{"name":"newOwner","type":"address","indexed":true,"internalType":"address"}],"anonymous":false},{"type":"error","name":"AddressEmptyCode","inputs":[{"name":"target","type":"address","internalType":"address"}]},{"type":"error","name":"AddressInsufficientBalance","inputs":[{"name":"account","type":"address","internalType":"address"}]},{"type":"error","name":"FailedInnerCall","inputs":[]},{"type":"error","name":"InvalidInitialization","inputs":[]},{"type":"error","name":"NotInitializing","inputs":[]},{"type":"error","name":"OwnableInvalidOwner","inputs":[{"name":"owner","type":"address","internalType":"address"}]},{"type":"error","name":"OwnableUnauthorizedAccount","inputs":[{"name":"account","type":"address","internalType":"address"}]},{"type":"error","name":"SafeERC20FailedOperation","inputs":[{"name":"token","type":"address","internalType":"address"}]}],"bytecode":{"object":"0x608080604052346100165761096e908161001b8239f35b5f80fdfe6040608081526004908136101561001f575b5050361561001d575f80fd5b005b5f91823560e01c9081630a17b06b146105cb5781630fb5a6b4146105965781631916558714610448578163715018a6146103df578163810ec23b146103a157816386d1a69f146102d15781638da5cb5b1461029c57816396132521146102715781639852595c14610243578163a3f8eace146101ff578163be9a6555146101cb578163efbe1c1c146101ae578163f2fde38b14610114575063fbccedae036100115734610110578160031936011261011057602090610109476101045f805160206108f983398151915254916100ff836001600160401b03421692610662565b6107b4565b6106e5565b9051908152f35b5080fd5b9050346101aa5760203660031901126101aa5761012f610610565b9061013861062a565b6001600160a01b039182169283156101945750505f805160206108d983398151915280546001600160a01b031981168417909155167f8be0079c531659141344cd1fd0a4f28419497f9722a3daafe3b4186f6b6457e08380a380f35b51631e4fbdf760e01b8152908101849052602490fd5b8280fd5b505034610110578160031936011261011057602090610109610683565b5050346101105781600319360112610110576020906001600160401b035f8051602061091983398151915254169051908152f35b50503461011057602036600319011261011057602090610109610220610610565b61023c6102366001600160401b03421683610727565b916106ad565b54906106e5565b50503461011057602036600319011261011057602090610269610264610610565b6106ad565b549051908152f35b5050346101105781600319360112610110576020905f805160206108f9833981519152549051908152f35b5050346101105781600319360112610110575f805160206108d98339815191525490516001600160a01b039091168152602090f35b919050346101aa57826003193601126101aa575f805160206108f983398151915280549061031a61031383610104426001600160401b03166100ff8347610662565b8093610662565b90557fda9d4e5f101b8b9b1c5b76d0c5a9f7923571acfc02376aa076b75a8c080c956b60208351838152a15f805160206108d9833981519152546001600160a01b031647821161038b578480809381935af1610374610837565b501561037e578280f35b51630a12f52160e11b8152fd5b825163cd78605960e01b81523081860152602490fd5b5050346101105780600319360112610110576103bb610610565b602435926001600160401b03841684036103dc575060209261010991610727565b80fd5b83346103dc57806003193601126103dc576103f861062a565b5f805160206108d983398151915280546001600160a01b0319811690915581906001600160a01b03167f8be0079c531659141344cd1fd0a4f28419497f9722a3daafe3b4186f6b6457e08280a380f35b919050346101aa5760203660031901126101aa57610464610610565b906001600160401b0361048561047c82421685610727565b61023c856106ad565b61048e846106ad565b610499828254610662565b905560018060a01b0380941693847fc0e523490dd523c33b1878c9eb14ff46991e3f5b2cd33710918618f2a39cba1b60208651858152a25f805160206108d9833981519152541691835191602083019363a9059cbb60e01b855260248401526044830152604482526080820190828210908211176105835783525161052f918691829182875af1610528610837565b9084610875565b805190811515918261055b575b5050610546578380f35b51635274afe760e01b81529182015260249150fd5b819250906020918101031261057f576020015180159081150361057f575f8061053c565b8480fd5b634e487b7160e01b875260418652602487fd5b5050346101105781600319360112610110575f80516020610919833981519152548151911c6001600160401b03168152602090f35b9050346101aa5760203660031901126101aa5735916001600160401b03831683036103dc57506101096020926100ff475f805160206108f98339815191525490610662565b600435906001600160a01b038216820361062657565b5f80fd5b5f805160206108d9833981519152546001600160a01b0316330361064a57565b60405163118cdaa760e01b8152336004820152602490fd5b9190820180921161066f57565b634e487b7160e01b5f52601160045260245ffd5b6106aa5f80516020610919833981519152546001600160401b03808260401c169116610662565b90565b6001600160a01b03165f9081527fa1eac494560f7591e4da38ed031587f09556afdfc4399dd2e205b935fdfa39016020526040902090565b9190820391821161066f57565b90601f801991011681019081106001600160401b0382111761071357604052565b634e487b7160e01b5f52604160045260245ffd5b6040516370a0823160e01b8152306004820152906020826024816001600160a01b0385165afa9182156107a9575f92610774575b506106aa929161076d6100ff926106ad565b5490610662565b90916020823d82116107a1575b8161078e602093836106f2565b810103126103dc575051906100ff61075b565b3d9150610781565b6040513d5f823e3d90fd5b5f805160206109198339815191525490916001600160401b0391908216828216808210156107e55750505050505f90565b6107ed610683565b82106107fa575050505090565b610803916106e5565b9283810293818504149015171561066f5760401c16908115610823570490565b634e487b7160e01b5f52601260045260245ffd5b3d15610870573d906001600160401b0382116107135760405191610865601f8201601f1916602001846106f2565b82523d5f602084013e565b606090565b9061089c575080511561088a57805190602001fd5b604051630a12f52160e11b8152600490fd5b815115806108cf575b6108ad575090565b604051639996b31560e01b81526001600160a01b039091166004820152602490fd5b50803b156108a556fe9016d09d72d40fdae2fd8ceac6b6234c7706214fd39c1cd1e609a0528c199300a1eac494560f7591e4da38ed031587f09556afdfc4399dd2e205b935fdfa3900a1eac494560f7591e4da38ed031587f09556afdfc4399dd2e205b935fdfa3902a264697066735822122011f04bb8d497c11b6d1b131a7b71f38b9ed97a3937682e4f45c0ab7e5ea08b7864736f6c63430008140033","linkReferences":{}},"methodIdentifiers":{"duration()":"0fb5a6b4","end()":"efbe1c1c","owner()":"8da5cb5b","releasable()":"fbccedae","releasable(address)":"a3f8eace","release()":"86d1a69f","release(address)":"19165587","released()":"96132521","released(address)":"9852595c","renounceOwnership()":"715018a6","start()":"be9a6555","transferOwnership(address)":"f2fde38b","vestedAmount(address,uint64)":"810ec23b","vestedAmount(uint64)":"0a17b06b"},"id":61}