{"abi":[{"type":"function","name":"count","inputs":[],"outputs":[{"name":"","type":"uint256","internalType":"uint256"}],"stateMutability":"view"},{"type":"function","name":"drasticMeasure","inputs":[],"outputs":[],"stateMutability":"nonpayable"},{"type":"function","name":"drasticMeasureTaken","inputs":[],"outputs":[{"name":"","type":"bool","internalType":"bool"}],"stateMutability":"view"},{"type":"function","name":"normalProcess","inputs":[],"outputs":[],"stateMutability":"nonpayable"},{"type":"function","name":"pause","inputs":[],"outputs":[],"stateMutability":"nonpayable"},{"type":"function","name":"paused","inputs":[],"outputs":[{"name":"","type":"bool","internalType":"bool"}],"stateMutability":"view"},{"type":"function","name":"unpause","inputs":[],"outputs":[],"stateMutability":"nonpayable"},{"type":"event","name":"Initialized","inputs":[{"name":"version","type":"uint64","indexed":false,"internalType":"uint64"}],"anonymous":false},{"type":"event","name":"Paused","inputs":[{"name":"account","type":"address","indexed":false,"internalType":"address"}],"anonymous":false},{"type":"event","name":"Unpaused","inputs":[{"name":"account","type":"address","indexed":false,"internalType":"address"}],"anonymous":false},{"type":"error","name":"EnforcedPause","inputs":[]},{"type":"error","name":"ExpectedPause","inputs":[]},{"type":"error","name":"InvalidInitialization","inputs":[]},{"type":"error","name":"NotInitializing","inputs":[]}],"bytecode":{"object":"0x60808060405234610016576102ac908161001b8239f35b5f80fdfe6080806040526004361015610012575f80fd5b5f90813560e01c90816306661abd146101e1575080633f4ba83a146101855780635c975abb1461015657806376657b8e146101345780638456cb59146100d55780639958f045146100ae5763e7651d7a1461006b575f80fd5b346100ab57806003193601126100ab57610083610201565b6001545f1981146100975760010160015580f35b634e487b7160e01b82526011600452602482fd5b80fd5b50346100ab57806003193601126100ab576100c761022b565b805460ff1916600117815580f35b50346100ab57806003193601126100ab576100ee610201565b5f80516020610257833981519152600160ff198254161790557f62e78cea01bee320cd4e420270b5ea74000d11b0c9f74754ebdbfc544b05a2586020604051338152a180f35b50346100ab57806003193601126100ab5760ff60209154166040519015158152f35b50346100ab57806003193601126100ab57602060ff5f8051602061025783398151915254166040519015158152f35b50346100ab57806003193601126100ab5761019e61022b565b5f8051602061025783398151915260ff1981541690557f5db9ee0a495bf2e6ff9c91a7834c1ba4fdd244a5e8aa4e537bd38aeae4b073aa6020604051338152a180f35b9050346101fd57816003193601126101fd576020906001548152f35b5080fd5b60ff5f80516020610257833981519152541661021957565b60405163d93c066560e01b8152600490fd5b60ff5f8051602061025783398151915254161561024457565b604051638dfc202b60e01b8152600490fdfecd5ed15c6e187e77e9aee88184c21f4f2182ab5827cb3b7e07fbedcd63f03300a26469706673582212206161921bbe10cb5ad412a41636a2753dbb0510a4917f9a4dbb12024d2c4552db64736f6c63430008140033","linkReferences":{}},"methodIdentifiers":{"count()":"06661abd","drasticMeasure()":"9958f045","drasticMeasureTaken()":"76657b8e","normalProcess()":"e7651d7a","pause()":"8456cb59","paused()":"5c975abb","unpause()":"3f4ba83a"},"id":94}