{"abi":[{"type":"constructor","inputs":[],"stateMutability":"nonpayable"},{"type":"function","name":"UPGRADE_INTERFACE_VERSION","inputs":[],"outputs":[{"name":"","type":"string","internalType":"string"}],"stateMutability":"view"},{"type":"function","name":"areSequencersAuthorized","inputs":[{"name":"_addresses","type":"address[]","internalType":"address[]"}],"outputs":[{"name":"authorized","type":"bool[]","internalType":"bool[]"}],"stateMutability":"view"},{"type":"function","name":"authorizedSequencerCount","inputs":[],"outputs":[{"name":"","type":"uint256","internalType":"uint256"}],"stateMutability":"view"},{"type":"function","name":"authorizedSequencers","inputs":[{"name":"","type":"address","internalType":"address"}],"outputs":[{"name":"","type":"bool","internalType":"bool"}],"stateMutability":"view"},{"type":"function","name":"batchExists","inputs":[{"name":"_batchIds","type":"bytes32[]","internalType":"bytes32[]"}],"outputs":[{"name":"exists","type":"bool[]","internalType":"bool[]"}],"stateMutability":"view"},{"type":"function","name":"batchExists","inputs":[{"name":"_batchId","type":"bytes32","internalType":"bytes32"}],"outputs":[{"name":"exists","type":"bool","internalType":"bool"}],"stateMutability":"view"},{"type":"function","name":"batchSetSequencerAuthorization","inputs":[{"name":"_sequencers","type":"address[]","internalType":"address[]"},{"name":"_authorized","type":"bool","internalType":"bool"}],"outputs":[],"stateMutability":"nonpayable"},{"type":"function","name":"commitBatch","inputs":[{"name":"_batchId","type":"bytes32","internalType":"bytes32"},{"name":"_tenantId","type":"bytes32","internalType":"bytes32"},{"name":"_storeId","type":"bytes32","internalType":"bytes32"},{"name":"_eventsRoot","type":"bytes32","internalType":"bytes32"},{"name":"_prevStateRoot","type":"bytes32","internalType":"bytes32"},{"name":"_newStateRoot","type":"bytes32","internalType":"bytes32"},{"name":"_sequenceStart","type":"uint64","internalType":"uint64"},{"name":"_sequenceEnd","type":"uint64","internalType":"uint64"},{"name":"_eventCount","type":"uint32","internalType":"uint32"}],"outputs":[],"stateMutability":"nonpayable"},{"type":"function","name":"commitBatchWithStarkProof","inputs":[{"name":"_batchId","type":"bytes32","internalType":"bytes32"},{"name":"_tenantId","type":"bytes32","internalType":"bytes32"},{"name":"_storeId","type":"bytes32","internalType":"bytes32"},{"name":"_eventsRoot","type":"bytes32","internalType":"bytes32"},{"name":"_prevStateRoot","type":"bytes32","internalType":"bytes32"},{"name":"_newStateRoot","type":"bytes32","internalType":"bytes32"},{"name":"_sequenceStart","type":"uint64","internalType":"uint64"},{"name":"_sequenceEnd","type":"uint64","internalType":"uint64"},{"name":"_eventCount","type":"uint32","internalType":"uint32"},{"name":"_proofHash","type":"bytes32","internalType":"bytes32"},{"name":"_policyHash","type":"bytes32","internalType":"bytes32"},{"name":"_policyLimit","type":"uint64","internalType":"uint64"},{"name":"_allCompliant","type":"bool","internalType":"bool"},{"name":"_proofSize","type":"uint64","internalType":"uint64"},{"name":"_provingTimeMs","type":"uint64","internalType":"uint64"}],"outputs":[],"stateMutability":"nonpayable"},{"type":"function","name":"commitStarkProof","inputs":[{"name":"_batchId","type":"bytes32","internalType":"bytes32"},{"name":"_proofHash","type":"bytes32","internalType":"bytes32"},{"name":"_prevStateRoot","type":"bytes32","internalType":"bytes32"},{"name":"_newStateRoot","type":"bytes32","internalType":"bytes32"},{"name":"_policyHash","type":"bytes32","internalType":"bytes32"},{"name":"_policyLimit","type":"uint64","internalType":"uint64"},{"name":"_allCompliant","type":"bool","internalType":"bool"},{"name":"_proofSize","type":"uint64","internalType":"uint64"},{"name":"_provingTimeMs","type":"uint64","internalType":"uint64"}],"outputs":[],"stateMutability":"nonpayable"},{"type":"function","name":"commitments","inputs":[{"name":"","type":"bytes32","internalType":"bytes32"}],"outputs":[{"name":"eventsRoot","type":"bytes32","internalType":"bytes32"},{"name":"prevStateRoot","type":"bytes32","internalType":"bytes32"},{"name":"newStateRoot","type":"bytes32","internalType":"bytes32"},{"name":"sequenceStart","type":"uint64","internalType":"uint64"},{"name":"sequenceEnd","type":"uint64","internalType":"uint64"},{"name":"eventCount","type":"uint32","internalType":"uint32"},{"name":"timestamp","type":"uint64","internalType":"uint64"},{"name":"submitter","type":"address","internalType":"address"}],"stateMutability":"view"},{"type":"function","name":"getBatchCommitment","inputs":[{"name":"_batchId","type":"bytes32","internalType":"bytes32"}],"outputs":[{"name":"commitment","type":"tuple","internalType":"struct SetRegistry.BatchCommitment","components":[{"name":"eventsRoot","type":"bytes32","internalType":"bytes32"},{"name":"prevStateRoot","type":"bytes32","internalType":"bytes32"},{"name":"newStateRoot","type":"bytes32","internalType":"bytes32"},{"name":"sequenceStart","type":"uint64","internalType":"uint64"},{"name":"sequenceEnd","type":"uint64","internalType":"uint64"},{"name":"eventCount","type":"uint32","internalType":"uint32"},{"name":"timestamp","type":"uint64","internalType":"uint64"},{"name":"submitter","type":"address","internalType":"address"}]}],"stateMutability":"view"},{"type":"function","name":"getBatchCommitments","inputs":[{"name":"_batchIds","type":"bytes32[]","internalType":"bytes32[]"}],"outputs":[{"name":"commitmentList","type":"tuple[]","internalType":"struct SetRegistry.BatchCommitment[]","components":[{"name":"eventsRoot","type":"bytes32","internalType":"bytes32"},{"name":"prevStateRoot","type":"bytes32","internalType":"bytes32"},{"name":"newStateRoot","type":"bytes32","internalType":"bytes32"},{"name":"sequenceStart","type":"uint64","internalType":"uint64"},{"name":"sequenceEnd","type":"uint64","internalType":"uint64"},{"name":"eventCount","type":"uint32","internalType":"uint32"},{"name":"timestamp","type":"uint64","internalType":"uint64"},{"name":"submitter","type":"address","internalType":"address"}]}],"stateMutability":"view"},{"type":"function","name":"getBatchHeadSequences","inputs":[{"name":"_tenantIds","type":"bytes32[]","internalType":"bytes32[]"},{"name":"_storeIds","type":"bytes32[]","internalType":"bytes32[]"}],"outputs":[{"name":"sequences","type":"uint64[]","internalType":"uint64[]"}],"stateMutability":"view"},{"type":"function","name":"getBatchLatestStateRoots","inputs":[{"name":"_tenantIds","type":"bytes32[]","internalType":"bytes32[]"},{"name":"_storeIds","type":"bytes32[]","internalType":"bytes32[]"}],"outputs":[{"name":"stateRoots","type":"bytes32[]","internalType":"bytes32[]"}],"stateMutability":"view"},{"type":"function","name":"getBatchProofStatuses","inputs":[{"name":"_batchIds","type":"bytes32[]","internalType":"bytes32[]"}],"outputs":[{"name":"hasProofs","type":"bool[]","internalType":"bool[]"},{"name":"allCompliant","type":"bool[]","internalType":"bool[]"}],"stateMutability":"view"},{"type":"function","name":"getBatchRoot","inputs":[{"name":"_startSequence","type":"uint256","internalType":"uint256"},{"name":"_endSequence","type":"uint256","internalType":"uint256"}],"outputs":[{"name":"","type":"bytes32","internalType":"bytes32"}],"stateMutability":"view"},{"type":"function","name":"getBatchWithProofStatus","inputs":[{"name":"_batchId","type":"bytes32","internalType":"bytes32"}],"outputs":[{"name":"commitment","type":"tuple","internalType":"struct SetRegistry.BatchCommitment","components":[{"name":"eventsRoot","type":"bytes32","internalType":"bytes32"},{"name":"prevStateRoot","type":"bytes32","internalType":"bytes32"},{"name":"newStateRoot","type":"bytes32","internalType":"bytes32"},{"name":"sequenceStart","type":"uint64","internalType":"uint64"},{"name":"sequenceEnd","type":"uint64","internalType":"uint64"},{"name":"eventCount","type":"uint32","internalType":"uint32"},{"name":"timestamp","type":"uint64","internalType":"uint64"},{"name":"submitter","type":"address","internalType":"address"}]},{"name":"hasProof","type":"bool","internalType":"bool"},{"name":"proofCompliant","type":"bool","internalType":"bool"}],"stateMutability":"view"},{"type":"function","name":"getExtendedRegistryStatus","inputs":[],"outputs":[{"name":"totalBatches","type":"uint256","internalType":"uint256"},{"name":"totalProofs","type":"uint256","internalType":"uint256"},{"name":"sequencerCount","type":"uint256","internalType":"uint256"},{"name":"isPaused","type":"bool","internalType":"bool"},{"name":"isStrictMode","type":"bool","internalType":"bool"},{"name":"proofCoverage","type":"uint256","internalType":"uint256"}],"stateMutability":"view"},{"type":"function","name":"getHeadSequence","inputs":[{"name":"_tenantId","type":"bytes32","internalType":"bytes32"},{"name":"_storeId","type":"bytes32","internalType":"bytes32"}],"outputs":[{"name":"sequence","type":"uint64","internalType":"uint64"}],"stateMutability":"view"},{"type":"function","name":"getLatestBatchId","inputs":[{"name":"_tenantId","type":"bytes32","internalType":"bytes32"},{"name":"_storeId","type":"bytes32","internalType":"bytes32"}],"outputs":[{"name":"batchId","type":"bytes32","internalType":"bytes32"}],"stateMutability":"view"},{"type":"function","name":"getLatestStateRoot","inputs":[{"name":"_tenantId","type":"bytes32","internalType":"bytes32"},{"name":"_storeId","type":"bytes32","internalType":"bytes32"}],"outputs":[{"name":"stateRoot","type":"bytes32","internalType":"bytes32"}],"stateMutability":"view"},{"type":"function","name":"getRegistryStats","inputs":[],"outputs":[{"name":"commitmentCount","type":"uint256","internalType":"uint256"},{"name":"proofCount","type":"uint256","internalType":"uint256"},{"name":"isPaused","type":"bool","internalType":"bool"},{"name":"isStrictMode","type":"bool","internalType":"bool"}],"stateMutability":"view"},{"type":"function","name":"getStarkProofDetails","inputs":[{"name":"_batchId","type":"bytes32","internalType":"bytes32"}],"outputs":[{"name":"proofHash","type":"bytes32","internalType":"bytes32"},{"name":"policyHash","type":"bytes32","internalType":"bytes32"},{"name":"allCompliant","type":"bool","internalType":"bool"},{"name":"timestamp","type":"uint64","internalType":"uint64"}],"stateMutability":"view"},{"type":"function","name":"getTenantStoreSummary","inputs":[{"name":"_tenantId","type":"bytes32","internalType":"bytes32"},{"name":"_storeId","type":"bytes32","internalType":"bytes32"}],"outputs":[{"name":"latestBatchId","type":"bytes32","internalType":"bytes32"},{"name":"currentStateRoot","type":"bytes32","internalType":"bytes32"},{"name":"currentHeadSequence","type":"uint64","internalType":"uint64"},{"name":"hasLatestProof","type":"bool","internalType":"bool"}],"stateMutability":"view"},{"type":"function","name":"hasStarkProof","inputs":[{"name":"_batchId","type":"bytes32","internalType":"bytes32"}],"outputs":[{"name":"hasProof","type":"bool","internalType":"bool"}],"stateMutability":"view"},{"type":"function","name":"headSequence","inputs":[{"name":"","type":"bytes32","internalType":"bytes32"}],"outputs":[{"name":"","type":"uint64","internalType":"uint64"}],"stateMutability":"view"},{"type":"function","name":"initialize","inputs":[{"name":"_owner","type":"address","internalType":"address"},{"name":"_initialSequencer","type":"address","internalType":"address"}],"outputs":[],"stateMutability":"nonpayable"},{"type":"function","name":"latestCommitment","inputs":[{"name":"","type":"bytes32","internalType":"bytes32"}],"outputs":[{"name":"","type":"bytes32","internalType":"bytes32"}],"stateMutability":"view"},{"type":"function","name":"legacyFunctionsEnabled","inputs":[],"outputs":[{"name":"","type":"bool","internalType":"bool"}],"stateMutability":"view"},{"type":"function","name":"owner","inputs":[],"outputs":[{"name":"","type":"address","internalType":"address"}],"stateMutability":"view"},{"type":"function","name":"pause","inputs":[],"outputs":[],"stateMutability":"nonpayable"},{"type":"function","name":"paused","inputs":[],"outputs":[{"name":"","type":"bool","internalType":"bool"}],"stateMutability":"view"},{"type":"function","name":"proxiableUUID","inputs":[],"outputs":[{"name":"","type":"bytes32","internalType":"bytes32"}],"stateMutability":"view"},{"type":"function","name":"registerBatchRoot","inputs":[{"name":"_startSequence","type":"uint256","internalType":"uint256"},{"name":"_endSequence","type":"uint256","internalType":"uint256"},{"name":"_root","type":"bytes32","internalType":"bytes32"}],"outputs":[],"stateMutability":"nonpayable"},{"type":"function","name":"renounceOwnership","inputs":[],"outputs":[],"stateMutability":"nonpayable"},{"type":"function","name":"setLegacyFunctionsEnabled","inputs":[{"name":"_enabled","type":"bool","internalType":"bool"}],"outputs":[],"stateMutability":"nonpayable"},{"type":"function","name":"setSequencerAuthorization","inputs":[{"name":"_sequencer","type":"address","internalType":"address"},{"name":"_authorized","type":"bool","internalType":"bool"}],"outputs":[],"stateMutability":"nonpayable"},{"type":"function","name":"setStrictMode","inputs":[{"name":"_enabled","type":"bool","internalType":"bool"}],"outputs":[],"stateMutability":"nonpayable"},{"type":"function","name":"starkProofs","inputs":[{"name":"","type":"bytes32","internalType":"bytes32"}],"outputs":[{"name":"proofHash","type":"bytes32","internalType":"bytes32"},{"name":"policyHash","type":"bytes32","internalType":"bytes32"},{"name":"policyLimit","type":"uint64","internalType":"uint64"},{"name":"allCompliant","type":"bool","internalType":"bool"},{"name":"proofSize","type":"uint64","internalType":"uint64"},{"name":"provingTimeMs","type":"uint64","internalType":"uint64"},{"name":"timestamp","type":"uint64","internalType":"uint64"},{"name":"submitter","type":"address","internalType":"address"}],"stateMutability":"view"},{"type":"function","name":"strictModeEnabled","inputs":[],"outputs":[{"name":"","type":"bool","internalType":"bool"}],"stateMutability":"view"},{"type":"function","name":"totalCommitments","inputs":[],"outputs":[{"name":"","type":"uint256","internalType":"uint256"}],"stateMutability":"view"},{"type":"function","name":"totalStarkProofs","inputs":[],"outputs":[{"name":"","type":"uint256","internalType":"uint256"}],"stateMutability":"view"},{"type":"function","name":"transferOwnership","inputs":[{"name":"newOwner","type":"address","internalType":"address"}],"outputs":[],"stateMutability":"nonpayable"},{"type":"function","name":"unpause","inputs":[],"outputs":[],"stateMutability":"nonpayable"},{"type":"function","name":"upgradeToAndCall","inputs":[{"name":"newImplementation","type":"address","internalType":"address"},{"name":"data","type":"bytes","internalType":"bytes"}],"outputs":[],"stateMutability":"payable"},{"type":"function","name":"verifyInclusion","inputs":[{"name":"_batchId","type":"bytes32","internalType":"bytes32"},{"name":"_leaf","type":"bytes32","internalType":"bytes32"},{"name":"_proof","type":"bytes32[]","internalType":"bytes32[]"},{"name":"_index","type":"uint256","internalType":"uint256"}],"outputs":[{"name":"valid","type":"bool","internalType":"bool"}],"stateMutability":"view"},{"type":"function","name":"verifyMultipleInclusions","inputs":[{"name":"_batchId","type":"bytes32","internalType":"bytes32"},{"name":"_leaves","type":"bytes32[]","internalType":"bytes32[]"},{"name":"_proofs","type":"bytes32[][]","internalType":"bytes32[][]"},{"name":"_indices","type":"uint256[]","internalType":"uint256[]"}],"outputs":[{"name":"allValid","type":"bool","internalType":"bool"}],"stateMutability":"view"},{"type":"function","name":"verifyStarkProofHash","inputs":[{"name":"_batchId","type":"bytes32","internalType":"bytes32"},{"name":"_proofHash","type":"bytes32","internalType":"bytes32"}],"outputs":[{"name":"valid","type":"bool","internalType":"bool"}],"stateMutability":"view"},{"type":"event","name":"BatchCommitted","inputs":[{"name":"batchId","type":"bytes32","indexed":true,"internalType":"bytes32"},{"name":"tenantStoreKey","type":"bytes32","indexed":true,"internalType":"bytes32"},{"name":"eventsRoot","type":"bytes32","indexed":false,"internalType":"bytes32"},{"name":"newStateRoot","type":"bytes32","indexed":false,"internalType":"bytes32"},{"name":"sequenceStart","type":"uint64","indexed":false,"internalType":"uint64"},{"name":"sequenceEnd","type":"uint64","indexed":false,"internalType":"uint64"},{"name":"eventCount","type":"uint32","indexed":false,"internalType":"uint32"}],"anonymous":false},{"type":"event","name":"Initialized","inputs":[{"name":"version","type":"uint64","indexed":false,"internalType":"uint64"}],"anonymous":false},{"type":"event","name":"OwnershipTransferred","inputs":[{"name":"previousOwner","type":"address","indexed":true,"internalType":"address"},{"name":"newOwner","type":"address","indexed":true,"internalType":"address"}],"anonymous":false},{"type":"event","name":"Paused","inputs":[{"name":"account","type":"address","indexed":false,"internalType":"address"}],"anonymous":false},{"type":"event","name":"SequencerAuthorized","inputs":[{"name":"sequencer","type":"address","indexed":true,"internalType":"address"},{"name":"authorized","type":"bool","indexed":false,"internalType":"bool"}],"anonymous":false},{"type":"event","name":"StarkProofCommitted","inputs":[{"name":"batchId","type":"bytes32","indexed":true,"internalType":"bytes32"},{"name":"proofHash","type":"bytes32","indexed":false,"internalType":"bytes32"},{"name":"policyHash","type":"bytes32","indexed":false,"internalType":"bytes32"},{"name":"allCompliant","type":"bool","indexed":false,"internalType":"bool"},{"name":"proofSize","type":"uint64","indexed":false,"internalType":"uint64"}],"anonymous":false},{"type":"event","name":"StrictModeUpdated","inputs":[{"name":"enabled","type":"bool","indexed":false,"internalType":"bool"}],"anonymous":false},{"type":"event","name":"Unpaused","inputs":[{"name":"account","type":"address","indexed":false,"internalType":"address"}],"anonymous":false},{"type":"event","name":"Upgraded","inputs":[{"name":"implementation","type":"address","indexed":true,"internalType":"address"}],"anonymous":false},{"type":"error","name":"AddressEmptyCode","inputs":[{"name":"target","type":"address","internalType":"address"}]},{"type":"error","name":"ArrayLengthMismatch","inputs":[]},{"type":"error","name":"BatchAlreadyCommitted","inputs":[]},{"type":"error","name":"BatchNotCommitted","inputs":[]},{"type":"error","name":"ERC1967InvalidImplementation","inputs":[{"name":"implementation","type":"address","internalType":"address"}]},{"type":"error","name":"ERC1967NonPayable","inputs":[]},{"type":"error","name":"EmptyArray","inputs":[]},{"type":"error","name":"EmptyEventsRoot","inputs":[]},{"type":"error","name":"EnforcedPause","inputs":[]},{"type":"error","name":"ExpectedPause","inputs":[]},{"type":"error","name":"FailedInnerCall","inputs":[]},{"type":"error","name":"InvalidAddress","inputs":[]},{"type":"error","name":"InvalidEventCount","inputs":[{"name":"expected","type":"uint64","internalType":"uint64"},{"name":"provided","type":"uint32","internalType":"uint32"}]},{"type":"error","name":"InvalidInitialization","inputs":[]},{"type":"error","name":"InvalidProof","inputs":[]},{"type":"error","name":"InvalidSequenceRange","inputs":[]},{"type":"error","name":"LegacyFunctionsDisabled","inputs":[]},{"type":"error","name":"NotAuthorizedSequencer","inputs":[]},{"type":"error","name":"NotInitializing","inputs":[]},{"type":"error","name":"OwnableInvalidOwner","inputs":[{"name":"owner","type":"address","internalType":"address"}]},{"type":"error","name":"OwnableUnauthorizedAccount","inputs":[{"name":"account","type":"address","internalType":"address"}]},{"type":"error","name":"ReentrancyGuardReentrantCall","inputs":[]},{"type":"error","name":"SequenceGap","inputs":[{"name":"expected","type":"uint64","internalType":"uint64"},{"name":"provided","type":"uint64","internalType":"uint64"}]},{"type":"error","name":"StarkProofAlreadyCommitted","inputs":[]},{"type":"error","name":"StateRootMismatch","inputs":[{"name":"expected","type":"bytes32","internalType":"bytes32"},{"name":"provided","type":"bytes32","internalType":"bytes32"}]},{"type":"error","name":"StateRootMismatchInProof","inputs":[]},{"type":"error","name":"UUPSUnauthorizedCallContext","inputs":[]},{"type":"error","name":"UUPSUnsupportedProxiableUUID","inputs":[{"name":"slot","type":"bytes32","internalType":"bytes32"}]}],"bytecode":{"object":"0x60a080604052346100cd57306080527ff0c57e16840df040f15088dc2f81fe391c3923bec73e23a9662efc9c229c6a009081549060ff8260401c166100be57506001600160401b036002600160401b031982821601610079575b60405161305e9081620000d2823960805181818161193a0152611a470152f35b6001600160401b031990911681179091556040519081527fc7f505b2f371ae2175ee4913f4499e1f2633a7b5936321eed1cdaeb6115181d290602090a15f8080610059565b63f92ee8a960e01b8152600490fd5b5f80fdfe6080806040526004361015610012575f80fd5b5f3560e01c9081630348a6eb14612752575080630fcdd27d1461273957806315e7db0c1461263e57806320cb49f9146123f357806326320a211461208f5780633130b6911461205a5780633e145a08146120165780633f4ba83a14611fa1578063485cc95514611dcf57806348775bfd14611d0e57806348fddcc514611bf15780634f1ef286146119cd578063524a6d771461199157806352d1902d146119285780635c975abb146118fa5780635cd6b522146118dd5780635db7a7ec146118c45780635edb611614611805578063606fac57146117665780636600af35146116d75780636e0cfd23146115fc578063715018a6146115955780637271b18a146114eb57806376d3ad48146114a757806376fde43e146113ef57806378bb86d3146113d2578063839df9451461134357806383c35434146113215780638456cb59146112bc57806386ef40c01461125e5780638ca34629146110ee5780638da5cb5b146110ba578063923de5c71461106a578063983d6e4014610fe85780639de0963d14610f9c578063aa89ed9e14610f69578063ad3cb1cc14610ec7578063b45867c314610e8f578063b909f53214610e66578063bdde462f14610e3c578063c13b23c214610def578063d38f6b8b14610ad6578063da23403214610a37578063dd5572281461099f578063df788f5f14610427578063ecd144a7146103ec578063f28c39cc14610288578063f2fde38b1461025d5763f8492cfd14610237575f80fd5b34610259575f36600319011261025957602060ff600954166040519015158152f35b5f80fd5b3461025957602036600319011261025957610286610279612846565b610281612e33565b612dc2565b005b34610259576040366003190112610259576004356001600160401b038111610259576102b8903690600401612782565b6102c0612837565b906102c9612e33565b80156103da579080158015915f5b8481106102e057005b6001600160a01b0390816102fd6102f883898b6129b6565b6129da565b16156103c857855f8051602061300983398151915283610399946103256102f886868e6129b6565b165f52868a826103466102f8886020985f8a5260ff60405f205416956129b6565b165f525f85526103658860405f209060ff801983541691151516179055565b87806103c0575b1561039e5750506008600181540190555b61038b6102f8858b8d6129b6565b1691604051888152a26129a8565b6102d7565b816103b8575b501561037d57600880545f1901905561037d565b90508b6103a4565b50801561036c565b60405163e6c4247b60e01b8152600490fd5b60405163521299a960e01b8152600490fd5b34610259576020366003190112610259576004355f52600160205260206001600160401b03600360405f20015460a01c161515604051908152f35b34610259576101e036600319011261025957610441612812565b6104496127fc565b90610452612994565b9061016435916001600160401b0383168303610259576101843515156101843503610259576001600160401b036101a435166101a43503610259576101c435936001600160401b0385168503610259576104aa612ed6565b6104b2612eac565b335f525f60205260ff60405f2054161561098d576001600160401b0383166001600160401b0382161061097b576104f16104ec84836129ee565b612a07565b6001600160401b03811663ffffffff811190811561096a575b50610938575060643515610926576004355f5260016020526001600160401b03600360405f20015460a01c16610914576040516020810190602435825260443560408201526040815261055c816128ad565b5190209360ff60055416610851575b5f80516020612f8983398151915293949560405161058881612891565b6064358152608435602082015260a43560408201526001600160401b03871660608201526001600160401b038416608082015263ffffffff851660a0820152600460c082016001600160401b034216815260e083019233845282355f52600160205260405f20918151835560208201516001840155604082015160028401556001600160401b036060830151169060038401928354926001600160401b0360401b608083015160401b169160a063ffffffff60801b91015160801b16926001600160401b0360a01b905160a01b169363ffffffff60e01b16171717179055019060018060a01b0390511660018060a01b03198254161790556001600160401b036040519261069584612891565b6101243584526101443560208501521660408301526101843515156060830152608082016001600160401b036101a4351681526001600160401b0360a08401921682526001600160401b03600360c0850193824216855260e08601933385526004355f52600660205260405f20918751835560208801516001840155600283019161074f60608760408c0151169a88199b8c87541617865501511515849081549060ff60401b90151560401b169060ff60401b1916179055565b51908254908660881b905160881b16918660481b9060481b1690600160481b600160c81b0319161717905501925116825491600160401b600160e01b03905160401b169163ffffffff60e01b1617179055855f52600260205260043560405f2055600360205260405f20906001600160401b038316908254161790556001600454016004556001600754016007556107f66040519283926004359660a43560643586612a1f565b0390a36040517fadeeb4fee3729cba3af070d0032909f3238fdc25a3d4ae59f7ec41265b237380600435918061083b6101a4356101843561014435610124358561296b565b0390a260015f80516020612fe983398151915255005b845f52600260205260405f20548061086a575b5061056b565b5f52600160205260405f2060028101546084358082036108f657505060036001600160401b0391015460401c16956001600160401b0385166001600160401b036108b389612a07565b16036108bf5795610864565b846108c988612a07565b604051630104d00560e41b81526001600160401b03918216600482015291166024820152604490fd5b0390fd5b60449250604051916337f04d4160e01b835260048301526024820152fd5b60405163884923cf60e01b8152600490fd5b604051630c873b7160e11b8152600490fd5b604051634c84395760e01b81526001600160401b0391909116600482015263ffffffff92909216602483015250604490fd5b905063ffffffff841614158761050a565b604051633855112f60e01b8152600490fd5b604051630e269f8360e41b8152600490fd5b3461025957602080600319360112610259576001600160401b0390600435828111610259576109d2903690600401612782565b926109dc84612c87565b935f5b8181106109fd57604051858152806109f98188018961285c565b0390f35b80610a0c610a329284876129b6565b355f526001865283600360405f20015460a01c161515610a2c8289612c73565b526129a8565b6109df565b3461025957602080600319360112610259576004356001600160401b03811161025957610a68903690600401612782565b610a7481939293612c87565b925f5b828110610a95575050506109f960405192828493845283019061285c565b610ad1906001600160a01b03610aaf6102f88387876129b6565b165f525f855260ff60405f205416610ac78288612c73565b90151590526129a8565b610a77565b346102595761012036600319011261025957610af0612812565b610af86127fc565b90610b01612994565b610b09612ed6565b610b11612eac565b335f525f60205260ff60405f2054161561098d576001600160401b0382166001600160401b0384161061097b57610b4b6104ec83856129ee565b6001600160401b03811663ffffffff8111908115610dde575b50610dad575060643515610926576004355f5260016020526001600160401b03600360405f20015460a01c166109145760405160208101906024358252604435604082015260408152610bb6816128ad565b5190209260ff60055416610d3c575b905f80516020612f8983398151915291604051610be181612891565b6064358152608435602082015260a4356040820152600460608201916001600160401b038716835260808101926001600160401b038516845260a082019363ffffffff8716855260c083016001600160401b034216815260e084019533875285355f5260016020526040805f20958051875560208101516001880155015160028601556001600160401b03600386019451168454936001600160401b0360401b905160401b169163ffffffff60801b905160801b16926001600160401b0360a01b905160a01b169363ffffffff60e01b16171717179055019060018060a01b0390511660018060a01b0319825416179055845f52600260205260043560405f2055600360205260405f206001600160401b0382166001600160401b0319825416179055600160045401600455610d266040519283926004359660a43560643586612a1f565b0390a360015f80516020612fe983398151915255005b835f52600260205260405f205480610d55575b50610bc5565b5f52600160205260405f2060028101546084358082036108f657505060036001600160401b0391015460401c166001600160401b0384166001600160401b03610d9d83612a07565b1614610d4f576108c98491612a07565b604051634c84395760e01b81526001600160401b0391909116600482015263ffffffff919091166024820152604490fd5b905063ffffffff8316141585610b64565b3461025957610dfd3661276c565b6040519060208201928352604082015260408152610e1a816128ad565b5190205f52600360205260206001600160401b0360405f205416604051908152f35b34610259576020366003190112610259576004355f526002602052602060405f2054604051908152f35b34610259576040366003190112610259576020610e87602435600435612d44565b604051908152f35b34610259576020366003190112610259576004355f52600660205260206001600160401b03600360405f200154161515604051908152f35b34610259575f36600319011261025957604051604081018181106001600160401b03821117610f555760405260058152602090640352e302e360dc1b82820152604051828193825282519081818401525f935b828510610f3c575050604092505f838284010152601f80199101168101030190f35b8481018201518686016040015293810193859350610f1a565b634e487b7160e01b5f52604160045260245ffd5b34610259576020366003190112610259576004355f52600360205260206001600160401b0360405f205416604051908152f35b34610259575f36600319011261025957608060045460075460ff5f80516020612fc9833981519152541660ff600554169160405193845260208401521515604083015215156060820152f35b34610259576080366003190112610259576001600160401b0360243581811161025957611019903690600401612782565b60449291923582811161025957611034903690600401612782565b60649491943593841161025957602094611055611060953690600401612782565b949093600435612abe565b6040519015158152f35b34610259576020366003190112610259576004355f52600660205260405f2080546109f96001830154926001600160401b03600360ff600284015460401c1692015416906040519485948561296b565b34610259575f366003190112610259575f80516020612f69833981519152546040516001600160a01b039091168152602090f35b3461025957602080600319360112610259576001600160401b039060043582811161025957611121903690600401612782565b9261112b84612c5c565b9361113960405195866128c8565b808552601f1961114882612c5c565b01845f5b828110611248575050505f5b8181106111a95760408051868152875181880181905288880192820190885f5b8281106111855784840385f35b909192826101008261119a6001948a51612904565b01960191019492919094611178565b806111b86112439284876129b6565b355f52600180875260405f20604051916111d183612891565b81548352810154888301526002810154604083015285600382015481811660608501526080828260401c168186015263ffffffff8260a0921c16818601521c1660c0830152600460018060a01b039101541660e08201526112328289612c73565b5261123d8188612c73565b506129a8565b611158565b611250612c1f565b82828a01015201859061114c565b34610259576020366003190112610259577fe33f145d527913d1dc4c29a3b0690149220a71017a73efeabd140e356f2b3c49602061129a612828565b6112a2612e33565b151560ff196005541660ff821617600555604051908152a1005b34610259575f366003190112610259576112d4612e33565b6112dc612eac565b5f80516020612fc9833981519152600160ff198254161790557f62e78cea01bee320cd4e420270b5ea74000d11b0c9f74754ebdbfc544b05a2586020604051338152a1005b34610259575f36600319011261025957602060ff600554166040519015158152f35b34610259576020366003190112610259576004355f52600160205261010060405f208054906001810154906002810154600382015491600460018060a01b039101541692604051948552602085015260408401526001600160401b03908181166060850152818160401c16608085015263ffffffff8160801c1660a085015260a01c1660c083015260e0820152f35b34610259575f366003190112610259576020600454604051908152f35b34610259575f36600319011261025957600454600754906008549160ff5f80516020612fc9833981519152541660ff600554169083159485155f1461149a576127109586850296858804148515171561148657611472578460c09604935b60405195865260208601526040850152151560608401521515608083015260a0820152f35b634e487b7160e01b5f52601260045260245ffd5b634e487b7160e01b5f52601160045260245ffd5b60c095506127109361144d565b34610259576080366003190112610259576044356001600160401b038111610259576110606114dc6020923690600401612782565b60643591602435600435612a7e565b3461025957602036600319011261025957611504612c1f565b506004355f52600160205261010060405f206040519061152382612891565b80548252600181015460208301526002810154604083015260038101546001600160401b03908181166060850152818160401c16608085015263ffffffff8160801c1660a085015260a01c1660c0830152600460018060a01b039101541660e08201526115936040518092612904565bf35b34610259575f366003190112610259576115ad612e33565b5f80516020612f6983398151915280546001600160a01b031981169091555f906001600160a01b03167f8be0079c531659141344cd1fd0a4f28419497f9722a3daafe3b4186f6b6457e08280a3005b346102595760203660031901126102595761014060043561161b612c1f565b50805f52600160205260405f206040519161163583612891565b8154835260018201546020840152600282015460408401526003820154916001600160401b0383818095166060870152818160401c16608087015263ffffffff8160801c1660a087015260a01c1660c0850152600460018060a01b039101541660e08401525f52600660205260ff600260405f2092600384015416151592015460401c16906116c76040518094612904565b6101008301521515610120820152f35b34610259576020366003190112610259576004355f52600660205261010060405f20805490600181015490600360028201549101549160405193845260208401526001600160401b038181809316604086015260ff8160401c1615156060860152818160481c16608086015260881c1660a0840152811660c083015260018060a01b039060401c1660e0820152f35b346102595760806117763661276c565b905f915f91604051602092838201928352604082015260408152611799816128ad565b5190205f526002815260405f205492600382526001600160401b03918260405f20541692856117db575b50604051948552840152604083015215156060820152f35b91509250835f5260018352600260405f2001549060068452600360405f20015416151592866117c3565b346102595760403660031901126102595761181e612846565b611826612837565b9061182f612e33565b6001600160a01b03169081156103c85760205f8051602061300983398151915291835f525f825260405f206118758260ff835416929060ff801983541691151516179055565b81806118bc575b1561189757506001600854016008555b6040519015158152a2005b811590816118b4575b501561188c575f196008540160085561188c565b9050856118a0565b50801561187c565b34610259576020610e876118d73661276c565b90612bd5565b34610259575f366003190112610259576020600854604051908152f35b34610259575f36600319011261025957602060ff5f80516020612fc983398151915254166040519015158152f35b34610259575f366003190112610259577f00000000000000000000000000000000000000000000000000000000000000006001600160a01b0316300361197f5760206040515f80516020612fa98339815191528152f35b60405163703e46dd60e11b8152600490fd5b34610259576020366003190112610259576001600160a01b036119b2612846565b165f525f602052602060ff60405f2054166040519015158152f35b6040366003190112610259576119e1612846565b60249081356001600160401b0381116102595736602382011215610259578060040135611a0d816128e9565b92611a1b60405194856128c8565b818452602091828501933687838301011161025957815f92888693018737860101526001600160a01b037f00000000000000000000000000000000000000000000000000000000000000008116308114908115611bd6575b5061197f57611a80612e33565b8116936040516352d1902d60e01b81528381600481895afa5f9181611ba7575b50611abd57604051634c9c8ce360e01b8152600481018790528790fd5b8590875f80516020612fa983398151915291828103611b925750843b15611b7c575080546001600160a01b03191682179055604051907fbc7cd75a20ee27fd9adebab32041f755214dbc6bffa90cc0225b39da2e5c2d3b5f80a2815115611b6157505f6102869481925190845af4903d15611b58573d611b3c816128e9565b90611b4a60405192836128c8565b81525f81943d92013e612f05565b60609250612f05565b935050505034611b6d57005b63b398979f60e01b8152600490fd5b604051634c9c8ce360e01b815260048101849052fd5b60405190632a87526960e21b82526004820152fd5b9091508481813d8311611bcf575b611bbf81836128c8565b8101031261025957519088611aa0565b503d611bb5565b9050815f80516020612fa98339815191525416141587611a73565b3461025957611bff366127b2565b9192828403611cfc57611c1184612c5c565b91611c1f60405193846128c8565b848352611c2b85612c5c565b6020958487019591601f19013687375f5b818110611c855787868860405192839281840190828552518091526040840192915f5b828110611c6e57505050500390f35b835185528695509381019392810192600101611c5f565b80611c94611cd99284886129b6565b35611ca08286886129b6565b35604051908b8201928352604082015260408152611cbd816128ad565b5190205f526002808a5260405f205480611cde575b50506129a8565b611c3c565b5f5260018a5260405f200154611cf48289612c73565b528980611cd2565b60405163512509d360e11b8152600490fd5b3461025957602080600319360112610259576001600160401b0360043581811161025957611d40903690600401612782565b90611d4a82612c87565b92611d5483612c87565b925f5b818110611d8857611d7b866109f9898860405194859460408652604086019061285c565b918483039085015261285c565b80611d97611dca9284876129b6565b355f526006885260ff600260405f20866003820154161515611db9858c612c73565b52015460401c16610ac78288612c73565b611d57565b3461025957604036600319011261025957611de8612846565b6024356001600160a01b03811690819003610259577ff0c57e16840df040f15088dc2f81fe391c3923bec73e23a9662efc9c229c6a009081549260ff8460401c1615916001600160401b03851694851580611f9a575b60018097149081611f90575b159081611f87575b50611f755767ffffffffffffffff198116861785558592611e849185611f56575b50611e7c612e6b565b610281612e6b565b611e8c612e6b565b611e94612e6b565b815f80516020612fe983398151915255611eac612e6b565b611eb4612e6b565b60ff19905f80516020612fc9833981519152828154169055611ed4612e6b565b80611f22575b506005541617600555611ee957005b805460ff60401b191690556040519081527fc7f505b2f371ae2175ee4913f4499e1f2633a7b5936321eed1cdaeb6115181d290602090a1005b805f525f60205260405f208383825416179055826008555f805160206130098339815191526020604051858152a285611eda565b68ffffffffffffffffff19166801000000000000000117865587611e73565b60405163f92ee8a960e01b8152600490fd5b90501587611e52565b303b159150611e4a565b5083611e3e565b34610259575f36600319011261025957611fb9612e33565b5f80516020612fc9833981519152805460ff8116156120045760ff191690557f5db9ee0a495bf2e6ff9c91a7834c1ba4fdd244a5e8aa4e537bd38aeae4b073aa6020604051338152a1005b604051638dfc202b60e01b8152600490fd5b34610259576120243661276c565b6040519060208201928352604082015260408152612041816128ad565b5190205f526002602052602060405f2054604051908152f35b3461025957602036600319011261025957612073612828565b61207b612e33565b60ff80196009541691151516176009555f80f35b34610259576060366003190112610259576120a8612ed6565b60ff60095416156123e157335f525f60205260ff60405f2054161561098d576004356024351061097b5760443580156109265760405160208101600435815260243560408301524260608301523360601b60808301526074825260a08201918083106001600160401b03841117610f55578260405251902090815f5260016020526001600160401b03600360405f20015460a01c166123d2575060405160208101905f82525f604082015260408152612160816128ad565b5190209160ff60055416612344575b61217d600435602435612d37565b6001810181116114865763ffffffff60016040519261219b84612891565b8484525f60208501525f60408501526001600160401b036004351660608501526001600160401b03602435166080850152011660a0820152600460c08201916001600160401b034216835260e0810192338452855f52600160205260405f209180518355602081015160018401556040810151600284015560038301916001600160401b03606083015116918354926001600160401b0360401b608083015160401b169160a063ffffffff60801b91015160801b16926001600160401b0360a01b905160a01b169363ffffffff60e01b16171717179055019060018060a01b0390511660018060a01b0319825416179055825f5260026020528160405f2055600360205260405f206001600160401b03602435166001600160401b03198254161790556122c96004546129a8565b6004556122da600435602435612d37565b60018101809111611486575f80516020612f898339815191529163ffffffff60a0926040519283525f60208401526001600160401b036004351660408401526001600160401b03602435166060840152166080820152a360015f80516020612fe983398151915255005b825f52600260205260405f20548061235d575b5061216f565b5f5260016020526001600160401b03600360405f20015460401c166004356001600160401b0361238c83612a07565b16146123575761239e6108f291612a07565b604051630104d00560e41b81526001600160401b039182166004808301919091523590911660248201529081906044820190565b63884923cf60e01b8152600490fd5b604051631eacc8df60e31b8152600490fd5b3461025957610120366003190112610259576004356001600160401b0360843560243560a435838116908190036102595760c435801515908181036102595761243a6127fc565b916101043587811680910361025957612451612ed6565b612459612eac565b335f525f60205260ff60405f2054161561098d57885f52600160205260405f2088600382015460a01c161561262c57895f52600660205288600360405f2001541661261a5760443560018201541490811591612609575b506125f7577fadeeb4fee3729cba3af070d0032909f3238fdc25a3d4ae59f7ec41265b2373809760038a9261083b97604051916124ec83612891565b8a835260208301968c885260408401928352606084019081526125786080850191878c16835260a0860193845260c08601998842168b5260e0870199338b525f52600660205260405f209651875551600187015587600287019551166001600160401b0319865416178555511515849081549060ff60401b90151560401b169060ff60401b1916179055565b5182549151600160481b600160c81b031990921660489190911b67ffffffffffffffff60481b161760889190911b67ffffffffffffffff60881b1617905593519301805492516001600160e01b03199093169190931617604091821b600160401b600160e01b031617909155600780546001019055519485948561296b565b604051631b47f19f60e01b8152600490fd5b60020154606435141590508a6124b0565b6040516364b1345d60e11b8152600490fd5b60405163309a8ca560e21b8152600490fd5b346102595761264c366127b2565b9192828403611cfc5761265e84612c5c565b9161266c60405193846128c8565b84835261267885612c5c565b6020958487019591601f19013687375f5b8181106126db5787868860405192839281840190828552518091526040840192915f5b8281106126bb57505050500390f35b83516001600160401b0316855286955093810193928101926001016126ac565b806126ea6127349284886129b6565b356126f68286886129b6565b35604051908b8201928352604082015260408152612713816128ad565b5190205f52600389526001600160401b0360405f205416610a2c8289612c73565b612689565b3461025957602061106061274c3661276c565b90612a55565b34610259575f366003190112610259576020906007548152f35b6040906003190112610259576004359060243590565b9181601f84011215610259578235916001600160401b038311610259576020808501948460051b01011161025957565b6040600319820112610259576001600160401b039160043583811161025957826127de91600401612782565b93909392602435918211610259576127f891600401612782565b9091565b60e435906001600160401b038216820361025957565b60c435906001600160401b038216820361025957565b60043590811515820361025957565b60243590811515820361025957565b600435906001600160a01b038216820361025957565b9081518082526020808093019301915f5b82811061287b575050505090565b835115158552938101939281019260010161286d565b61010081019081106001600160401b03821117610f5557604052565b606081019081106001600160401b03821117610f5557604052565b90601f801991011681019081106001600160401b03821117610f5557604052565b6001600160401b038111610f5557601f01601f191660200190565b60e0908051835260208101516020840152604081015160408401526001600160401b0380606083015116606085015280608083015116608085015263ffffffff60a08301511660a085015260c08201511660c08401528160018060a01b0391015116910152565b92936001600160401b039195946060936080860197865260208601521515604085015216910152565b610104359063ffffffff8216820361025957565b5f1981146114865760010190565b91908110156129c65760051b0190565b634e487b7160e01b5f52603260045260245ffd5b356001600160a01b03811681036102595790565b6001600160401b03918216908216039190821161148657565b9060016001600160401b038093160191821161148657565b90815260208101919091526001600160401b0391821660408201529116606082015263ffffffff91909116608082015260a00190565b5f52600660205260405f206001600160401b0360038201541615612a7857541490565b50505f90565b9391939290925f52600160205260405f20936001600160401b03600386015460a01c1615612ab557612aaf93612cb9565b90541490565b50505050505f90565b949593929093838314801590612bcb575b612bc0575f9586526020966001885260408720976001600160401b03948560038b015460a01c1615612bb35798549698885b818110612b18575050505050505050505050600190565b612b2381838d6129b6565b3588821015612b9f57600582811b880135601e1989360301811215612b97578801908135918a8311612b9b5786839101911b36038113612b975791612b76918c93612b6f868b8b6129b6565b3592612cb9565b03612b8957612b84906129a8565b612b01565b505050505050505050905090565b8c80fd5b8d80fd5b634e487b7160e01b8b52603260045260248bfd5b5050505050505050905090565b505050505050505f90565b5080831415612acf565b906040519060208201928352604082015260408152612bf3816128ad565b5190205f52600260205260405f20548015612c1a575f526001602052600260405f20015490565b505f90565b60405190612c2c82612891565b8160e05f918281528260208201528260408201528260608201528260808201528260a08201528260c08201520152565b6001600160401b038111610f555760051b60200190565b80518210156129c65760209160051b010190565b90612c9182612c5c565b612c9e60405191826128c8565b8281528092612caf601f1991612c5c565b0190602036910137565b92915f905b808210612ccc575050505090565b90919293612cdb8383866129b6565b6001919035868316612d1257604080519160208301938452818301528152612d02816128ad565b519020945b811c93920190612cbe565b90604080519160208301938452818301528152612d2e816128ad565b51902094612d07565b9190820391821161148657565b6040805192602084015f948582528584820152838152612d63816128ad565b51902084526002602052818420548015612dbb57845260016020528184209260038401546001600160401b0391828216149384612dad575b50505050612da7575090565b90505490565b1c161490505f808080612d9b565b5050505090565b6001600160a01b03908116908115612e1b575f80516020612f6983398151915280546001600160a01b031981168417909155167f8be0079c531659141344cd1fd0a4f28419497f9722a3daafe3b4186f6b6457e05f80a3565b604051631e4fbdf760e01b81525f6004820152602490fd5b5f80516020612f69833981519152546001600160a01b03163303612e5357565b60405163118cdaa760e01b8152336004820152602490fd5b60ff7ff0c57e16840df040f15088dc2f81fe391c3923bec73e23a9662efc9c229c6a005460401c1615612e9a57565b604051631afcd79f60e31b8152600490fd5b60ff5f80516020612fc98339815191525416612ec457565b60405163d93c066560e01b8152600490fd5b5f80516020612fe98339815191526002815414612ef35760029055565b604051633ee5aeb560e01b8152600490fd5b90612f2c5750805115612f1a57805190602001fd5b604051630a12f52160e11b8152600490fd5b81511580612f5f575b612f3d575090565b604051639996b31560e01b81526001600160a01b039091166004820152602490fd5b50803b15612f3556fe9016d09d72d40fdae2fd8ceac6b6234c7706214fd39c1cd1e609a0528c1993001b2cc50ea54dce1d372450a8dc503a51775ab92dc7e68d579ce3fbb4af25cab3360894a13ba1a3210667c828492db98dca3e2076cc3735a920a3ca505d382bbccd5ed15c6e187e77e9aee88184c21f4f2182ab5827cb3b7e07fbedcd63f033009b779b17422d0df92223018b32b4d1fa46e071723d6817e2486d003becc55f00299a9abe1b3f791134e324f74110ff919d8db0842db3e4d32f2037bcd9968609a2646970667358221220dd65eaa1b0fd7d8885c6ad3da0e5546ee3f8bc6aa6563273943651ecdd22d75164736f6c63430008140033","linkReferences":{}},"methodIdentifiers":{"UPGRADE_INTERFACE_VERSION()":"ad3cb1cc","areSequencersAuthorized(address[])":"da234032","authorizedSequencerCount()":"5cd6b522","authorizedSequencers(address)":"524a6d77","batchExists(bytes32)":"ecd144a7","batchExists(bytes32[])":"dd557228","batchSetSequencerAuthorization(address[],bool)":"f28c39cc","commitBatch(bytes32,bytes32,bytes32,bytes32,bytes32,bytes32,uint64,uint64,uint32)":"d38f6b8b","commitBatchWithStarkProof(bytes32,bytes32,bytes32,bytes32,bytes32,bytes32,uint64,uint64,uint32,bytes32,bytes32,uint64,bool,uint64,uint64)":"df788f5f","commitStarkProof(bytes32,bytes32,bytes32,bytes32,bytes32,uint64,bool,uint64,uint64)":"20cb49f9","commitments(bytes32)":"839df945","getBatchCommitment(bytes32)":"7271b18a","getBatchCommitments(bytes32[])":"8ca34629","getBatchHeadSequences(bytes32[],bytes32[])":"15e7db0c","getBatchLatestStateRoots(bytes32[],bytes32[])":"48fddcc5","getBatchProofStatuses(bytes32[])":"48775bfd","getBatchRoot(uint256,uint256)":"b909f532","getBatchWithProofStatus(bytes32)":"6e0cfd23","getExtendedRegistryStatus()":"76fde43e","getHeadSequence(bytes32,bytes32)":"c13b23c2","getLatestBatchId(bytes32,bytes32)":"3e145a08","getLatestStateRoot(bytes32,bytes32)":"5db7a7ec","getRegistryStats()":"9de0963d","getStarkProofDetails(bytes32)":"923de5c7","getTenantStoreSummary(bytes32,bytes32)":"606fac57","hasStarkProof(bytes32)":"b45867c3","headSequence(bytes32)":"aa89ed9e","initialize(address,address)":"485cc955","latestCommitment(bytes32)":"bdde462f","legacyFunctionsEnabled()":"f8492cfd","owner()":"8da5cb5b","pause()":"8456cb59","paused()":"5c975abb","proxiableUUID()":"52d1902d","registerBatchRoot(uint256,uint256,bytes32)":"26320a21","renounceOwnership()":"715018a6","setLegacyFunctionsEnabled(bool)":"3130b691","setSequencerAuthorization(address,bool)":"5edb6116","setStrictMode(bool)":"86ef40c0","starkProofs(bytes32)":"6600af35","strictModeEnabled()":"83c35434","totalCommitments()":"78bb86d3","totalStarkProofs()":"0348a6eb","transferOwnership(address)":"f2fde38b","unpause()":"3f4ba83a","upgradeToAndCall(address,bytes)":"4f1ef286","verifyInclusion(bytes32,bytes32,bytes32[],uint256)":"76d3ad48","verifyMultipleInclusions(bytes32,bytes32[],bytes32[][],uint256[])":"983d6e40","verifyStarkProofHash(bytes32,bytes32)":"0fcdd27d"},"id":0}