{"abi":[{"type":"constructor","inputs":[],"stateMutability":"nonpayable"},{"type":"function","name":"initialize","inputs":[],"outputs":[],"stateMutability":"nonpayable"},{"type":"function","name":"initializeOnlyInitializing","inputs":[],"outputs":[],"stateMutability":"nonpayable"},{"type":"function","name":"initializerRan","inputs":[],"outputs":[{"name":"","type":"bool","internalType":"bool"}],"stateMutability":"view"},{"type":"function","name":"onlyInitializingRan","inputs":[],"outputs":[{"name":"","type":"bool","internalType":"bool"}],"stateMutability":"view"},{"type":"event","name":"Initialized","inputs":[{"name":"version","type":"uint64","indexed":false,"internalType":"uint64"}],"anonymous":false},{"type":"error","name":"InvalidInitialization","inputs":[]},{"type":"error","name":"NotInitializing","inputs":[]}],"bytecode":{"object":"0x6080604090808252346101e7577ff0c57e16840df040f15088dc2f81fe391c3923bec73e23a9662efc9c229c6a00805490916001600160401b03918281169181861c60ff161591908315806101e0575b600180951490816101d6575b1590816101cd575b506101be57506001600160401b03198181168417865590826101a1575b5084549060ff82881c16159482168481159182610199575b14908161018f575b159081610186575b506101755781168317855583610158575b505f549261012d575b83549260ff84871c161561011c5761ffff1916610101175f556100ee575b835161024590816101ec8239f35b5f805160206104318339815191529260209268ff0000000000000000191690558351908152a15f80806100e0565b8551631afcd79f60e31b8152600490fd5b68ff00000000000000001984541684555f8051602061043183398151915260208651848152a16100c2565b6001600160481b031916680100000000000000011784555f6100b9565b865163f92ee8a960e01b8152600490fd5b9050155f6100a8565b303b1591506100a0565b879250610098565b6001600160481b031916680100000000000000011785555f610080565b63f92ee8a960e01b8152600490fd5b9050155f610063565b303b15915061005b565b508261004f565b5f80fdfe608060408181526004361015610013575f80fd5b5f91823560e01c90816310065ed2146101ac575080637cffe97a146101885780638129fc1c1461006f5763c3b8ef2a1461004b575f80fd5b3461006b578160031936011261006b5760ff602092541690519015158152f35b5080fd5b503461006b578160031936011261006b577ff0c57e16840df040f15088dc2f81fe391c3923bec73e23a9662efc9c229c6a00805460ff81841c16159067ffffffffffffffff811680159081610180575b6001149081610176575b15908161016d575b5061015c5767ffffffffffffffff19811660011783558161013d575b50835460ff19166001178455610101578280f35b805460ff60401b1916905551600181527fc7f505b2f371ae2175ee4913f4499e1f2633a7b5936321eed1cdaeb6115181d290602090a15f808280f35b68ffffffffffffffffff1916680100000000000000011782555f6100ed565b835163f92ee8a960e01b8152600490fd5b9050155f6100d1565b303b1591506100c9565b8391506100bf565b503461006b578160031936011261006b5760ff6020925460081c1690519015158152f35b9190503461020b578260031936011261020b577ff0c57e16840df040f15088dc2f81fe391c3923bec73e23a9662efc9c229c6a0054901c60ff16156101fc5750805461ff00191661010017815580f35b631afcd79f60e31b8152600490fd5b8280fdfea26469706673582212202ca1a235687f2774bb95f1f01a3366072db5758e1e259dce3b31d136366d605464736f6c63430008140033c7f505b2f371ae2175ee4913f4499e1f2633a7b5936321eed1cdaeb6115181d2","linkReferences":{}},"methodIdentifiers":{"initialize()":"8129fc1c","initializeOnlyInitializing()":"10065ed2","initializerRan()":"c3b8ef2a","onlyInitializingRan()":"7cffe97a"},"id":91}