{"abi":[{"type":"function","name":"allowance","inputs":[{"name":"owner","type":"address","internalType":"address"},{"name":"spender","type":"address","internalType":"address"}],"outputs":[{"name":"","type":"uint256","internalType":"uint256"}],"stateMutability":"view"},{"type":"function","name":"approve","inputs":[{"name":"spender","type":"address","internalType":"address"},{"name":"value","type":"uint256","internalType":"uint256"}],"outputs":[{"name":"","type":"bool","internalType":"bool"}],"stateMutability":"nonpayable"},{"type":"function","name":"asset","inputs":[],"outputs":[{"name":"","type":"address","internalType":"address"}],"stateMutability":"view"},{"type":"function","name":"balanceOf","inputs":[{"name":"account","type":"address","internalType":"address"}],"outputs":[{"name":"","type":"uint256","internalType":"uint256"}],"stateMutability":"view"},{"type":"function","name":"burn","inputs":[{"name":"account","type":"address","internalType":"address"},{"name":"amount","type":"uint256","internalType":"uint256"}],"outputs":[],"stateMutability":"nonpayable"},{"type":"function","name":"convertToAssets","inputs":[{"name":"shares","type":"uint256","internalType":"uint256"}],"outputs":[{"name":"","type":"uint256","internalType":"uint256"}],"stateMutability":"view"},{"type":"function","name":"convertToShares","inputs":[{"name":"assets","type":"uint256","internalType":"uint256"}],"outputs":[{"name":"","type":"uint256","internalType":"uint256"}],"stateMutability":"view"},{"type":"function","name":"decimals","inputs":[],"outputs":[{"name":"","type":"uint8","internalType":"uint8"}],"stateMutability":"view"},{"type":"function","name":"deposit","inputs":[{"name":"assets","type":"uint256","internalType":"uint256"},{"name":"receiver","type":"address","internalType":"address"}],"outputs":[{"name":"","type":"uint256","internalType":"uint256"}],"stateMutability":"nonpayable"},{"type":"function","name":"maxDeposit","inputs":[{"name":"","type":"address","internalType":"address"}],"outputs":[{"name":"","type":"uint256","internalType":"uint256"}],"stateMutability":"view"},{"type":"function","name":"maxMint","inputs":[{"name":"","type":"address","internalType":"address"}],"outputs":[{"name":"","type":"uint256","internalType":"uint256"}],"stateMutability":"view"},{"type":"function","name":"maxRedeem","inputs":[{"name":"owner","type":"address","internalType":"address"}],"outputs":[{"name":"","type":"uint256","internalType":"uint256"}],"stateMutability":"view"},{"type":"function","name":"maxWithdraw","inputs":[{"name":"owner","type":"address","internalType":"address"}],"outputs":[{"name":"","type":"uint256","internalType":"uint256"}],"stateMutability":"view"},{"type":"function","name":"mint","inputs":[{"name":"account","type":"address","internalType":"address"},{"name":"amount","type":"uint256","internalType":"uint256"}],"outputs":[],"stateMutability":"nonpayable"},{"type":"function","name":"mint","inputs":[{"name":"shares","type":"uint256","internalType":"uint256"},{"name":"receiver","type":"address","internalType":"address"}],"outputs":[{"name":"","type":"uint256","internalType":"uint256"}],"stateMutability":"nonpayable"},{"type":"function","name":"name","inputs":[],"outputs":[{"name":"","type":"string","internalType":"string"}],"stateMutability":"view"},{"type":"function","name":"previewDeposit","inputs":[{"name":"assets","type":"uint256","internalType":"uint256"}],"outputs":[{"name":"","type":"uint256","internalType":"uint256"}],"stateMutability":"view"},{"type":"function","name":"previewMint","inputs":[{"name":"shares","type":"uint256","internalType":"uint256"}],"outputs":[{"name":"","type":"uint256","internalType":"uint256"}],"stateMutability":"view"},{"type":"function","name":"previewRedeem","inputs":[{"name":"shares","type":"uint256","internalType":"uint256"}],"outputs":[{"name":"","type":"uint256","internalType":"uint256"}],"stateMutability":"view"},{"type":"function","name":"previewWithdraw","inputs":[{"name":"assets","type":"uint256","internalType":"uint256"}],"outputs":[{"name":"","type":"uint256","internalType":"uint256"}],"stateMutability":"view"},{"type":"function","name":"redeem","inputs":[{"name":"shares","type":"uint256","internalType":"uint256"},{"name":"receiver","type":"address","internalType":"address"},{"name":"owner","type":"address","internalType":"address"}],"outputs":[{"name":"","type":"uint256","internalType":"uint256"}],"stateMutability":"nonpayable"},{"type":"function","name":"symbol","inputs":[],"outputs":[{"name":"","type":"string","internalType":"string"}],"stateMutability":"view"},{"type":"function","name":"totalAssets","inputs":[],"outputs":[{"name":"","type":"uint256","internalType":"uint256"}],"stateMutability":"view"},{"type":"function","name":"totalSupply","inputs":[],"outputs":[{"name":"","type":"uint256","internalType":"uint256"}],"stateMutability":"view"},{"type":"function","name":"transfer","inputs":[{"name":"to","type":"address","internalType":"address"},{"name":"value","type":"uint256","internalType":"uint256"}],"outputs":[{"name":"","type":"bool","internalType":"bool"}],"stateMutability":"nonpayable"},{"type":"function","name":"transferFrom","inputs":[{"name":"from","type":"address","internalType":"address"},{"name":"to","type":"address","internalType":"address"},{"name":"value","type":"uint256","internalType":"uint256"}],"outputs":[{"name":"","type":"bool","internalType":"bool"}],"stateMutability":"nonpayable"},{"type":"function","name":"withdraw","inputs":[{"name":"assets","type":"uint256","internalType":"uint256"},{"name":"receiver","type":"address","internalType":"address"},{"name":"owner","type":"address","internalType":"address"}],"outputs":[{"name":"","type":"uint256","internalType":"uint256"}],"stateMutability":"nonpayable"},{"type":"event","name":"Approval","inputs":[{"name":"owner","type":"address","indexed":true,"internalType":"address"},{"name":"spender","type":"address","indexed":true,"internalType":"address"},{"name":"value","type":"uint256","indexed":false,"internalType":"uint256"}],"anonymous":false},{"type":"event","name":"Deposit","inputs":[{"name":"sender","type":"address","indexed":true,"internalType":"address"},{"name":"owner","type":"address","indexed":true,"internalType":"address"},{"name":"assets","type":"uint256","indexed":false,"internalType":"uint256"},{"name":"shares","type":"uint256","indexed":false,"internalType":"uint256"}],"anonymous":false},{"type":"event","name":"Initialized","inputs":[{"name":"version","type":"uint64","indexed":false,"internalType":"uint64"}],"anonymous":false},{"type":"event","name":"Transfer","inputs":[{"name":"from","type":"address","indexed":true,"internalType":"address"},{"name":"to","type":"address","indexed":true,"internalType":"address"},{"name":"value","type":"uint256","indexed":false,"internalType":"uint256"}],"anonymous":false},{"type":"event","name":"Withdraw","inputs":[{"name":"sender","type":"address","indexed":true,"internalType":"address"},{"name":"receiver","type":"address","indexed":true,"internalType":"address"},{"name":"owner","type":"address","indexed":true,"internalType":"address"},{"name":"assets","type":"uint256","indexed":false,"internalType":"uint256"},{"name":"shares","type":"uint256","indexed":false,"internalType":"uint256"}],"anonymous":false},{"type":"error","name":"AddressEmptyCode","inputs":[{"name":"target","type":"address","internalType":"address"}]},{"type":"error","name":"AddressInsufficientBalance","inputs":[{"name":"account","type":"address","internalType":"address"}]},{"type":"error","name":"ERC20InsufficientAllowance","inputs":[{"name":"spender","type":"address","internalType":"address"},{"name":"allowance","type":"uint256","internalType":"uint256"},{"name":"needed","type":"uint256","internalType":"uint256"}]},{"type":"error","name":"ERC20InsufficientBalance","inputs":[{"name":"sender","type":"address","internalType":"address"},{"name":"balance","type":"uint256","internalType":"uint256"},{"name":"needed","type":"uint256","internalType":"uint256"}]},{"type":"error","name":"ERC20InvalidApprover","inputs":[{"name":"approver","type":"address","internalType":"address"}]},{"type":"error","name":"ERC20InvalidReceiver","inputs":[{"name":"receiver","type":"address","internalType":"address"}]},{"type":"error","name":"ERC20InvalidSender","inputs":[{"name":"sender","type":"address","internalType":"address"}]},{"type":"error","name":"ERC20InvalidSpender","inputs":[{"name":"spender","type":"address","internalType":"address"}]},{"type":"error","name":"ERC4626ExceededMaxDeposit","inputs":[{"name":"receiver","type":"address","internalType":"address"},{"name":"assets","type":"uint256","internalType":"uint256"},{"name":"max","type":"uint256","internalType":"uint256"}]},{"type":"error","name":"ERC4626ExceededMaxMint","inputs":[{"name":"receiver","type":"address","internalType":"address"},{"name":"shares","type":"uint256","internalType":"uint256"},{"name":"max","type":"uint256","internalType":"uint256"}]},{"type":"error","name":"ERC4626ExceededMaxRedeem","inputs":[{"name":"owner","type":"address","internalType":"address"},{"name":"shares","type":"uint256","internalType":"uint256"},{"name":"max","type":"uint256","internalType":"uint256"}]},{"type":"error","name":"ERC4626ExceededMaxWithdraw","inputs":[{"name":"owner","type":"address","internalType":"address"},{"name":"assets","type":"uint256","internalType":"uint256"},{"name":"max","type":"uint256","internalType":"uint256"}]},{"type":"error","name":"FailedInnerCall","inputs":[]},{"type":"error","name":"InvalidInitialization","inputs":[]},{"type":"error","name":"MathOverflowedMulDiv","inputs":[]},{"type":"error","name":"NotInitializing","inputs":[]},{"type":"error","name":"SafeERC20FailedOperation","inputs":[{"name":"token","type":"address","internalType":"address"}]}],"bytecode":{"object":"0x60808060405234610016576111a6908161001b8239f35b5f80fdfe60406080815260049081361015610014575f80fd5b5f90813560e01c92836301e1d114146107cd57836306fdde031461070e57836307a2d13a14610538578363095ea7b3146106675783630a28a4771461064857836318160ddd1461061e57836323b872dd146105e2578363313ce5671461059557836338d52e0f14610561578363402d267d1461022957836340c10f191461053d5783634cdad506146105385783636e553f651461050557836370a08231146104e557836394bf804d146104b257836395d89b41146103a95783639dc29fac14610382578363a9059cbb14610352578363b3d7f6b914610333578363b460af94146102b2578363ba0876521461022e57508263c63d75b614610229578263c6e6f5921461014b578263ce96cb77146101e5578263d905777e14610199578263dd62ed3e1461015057505063ef8b30f71461014b575f80fd5b6108e0565b346101955780600319360112610195578060209261016c61085a565b61017d610177610870565b91610934565b6001600160a01b039091168252845220549051908152f35b5080fd5b34610195576020366003190112610195576020906101de6101b861085a565b6001600160a01b03165f9081525f805160206110f1833981519152602052604090205490565b9051908152f35b34610195576020366003190112610195576020916101de9082906001600160a01b0361020f61085a565b1681525f805160206110f183398151915285522054610d46565b610886565b82346102af57829061023f366108ab565b6001600160a01b03811684525f805160206110f183398151915260205295909220549094939080861161028d575050836102879161027e602096610d46565b94859133610e28565b51908152f35b9251632e52afbb60e21b81529485946102ab94935090918501610a2f565b0390fd5b80fd5b829034610195576102f39183916102c8366108ab565b6001600160a01b03811685525f805160206110f1833981519152602052969093205490959490610d46565b808611610315575050610287908461030c602096610c9e565b94859233610e28565b9251633fa733bb60e21b81529485946102ab94935090918501610a2f565b91346102af5760203660031901126102af57506101de60209235610d0f565b503461019557806003193601126101955760209061037b61037161085a565b602435903361096c565b5160018152f35b5034610195573660031901126102af576103a661039d61085a565b60243590610ac7565b80f35b90346104ae57826003193601126104ae57805191837f52c63247e1f47db19d5ce0460030c497f067ca4cebf71ba98eeadabe20bace0480549160019183831c9383811680156104a4575b6020968787108214610491575085895290811561046d5750600114610432575b61042e8787610424828c03836108fe565b51918291826107e9565b0390f35b9080949750528583205b82841061045a575050508261042e9461042492820101948680610413565b805486850188015292860192810161043c565b60ff19168887015250505050151560051b83010192506104248261042e8680610413565b634e487b7160e01b855260229052602484fd5b94607f16946103f3565b8280fd5b346104ae57816003193601126104ae576020925035906102876104d3610870565b926104dd81610d0f565b809433610d7d565b5034610195576020366003190112610195576020906101de6101b861085a565b346104ae57816003193601126104ae57602092503590610287610526610870565b61052f84610cd8565b93849133610d7d565b610830565b5034610195573660031901126102af576103a661055861085a565b60243590610a4d565b50346101955781600319360112610195575f805160206111518339815191525490516001600160a01b039091168152602090f35b92503461019557816003193601126101955760ff5f805160206111518339815191525460a01c169160ff83116105cf576020838351908152f35b634e487b7160e01b815260118452602490fd5b50346101955760603660031901126101955760209061037b61060261085a565b61060a610870565b60443591610619833383610b5a565b61096c565b50346101955781600319360112610195576020905f80516020611111833981519152549051908152f35b91346102af5760203660031901126102af57506101de60209235610c9e565b346104ae57816003193601126104ae5761067f61085a565b6024359033156106f7576001600160a01b03169182156106e0575080836020956106a833610934565b8582528752205582519081527f8c5be1e5ebec7d5bd14f71427d1e84f3dd0314c0f7b2291e5b200ac8c7c3b925843392a35160018152f35b8351634a1406b160e11b8152908101859052602490fd5b835163e602df0560e01b8152808401869052602490fd5b90346104ae57826003193601126104ae57805191837f52c63247e1f47db19d5ce0460030c497f067ca4cebf71ba98eeadabe20bace0380549160019183831c9383811680156107c3575b6020968787108214610491575085895290811561046d57506001146107885761042e8787610424828c03836108fe565b9080949750528583205b8284106107b0575050508261042e9461042492820101948680610413565b8054868501880152928601928101610792565b94607f1694610758565b50346101955781600319360112610195576020906101de610c1c565b602080825282518183018190529093925f5b82811061081c57505060409293505f838284010152601f8019910116010190565b8181018601518482016040015285016107fb565b3461085657602036600319011261085657602061084e600435610d46565b604051908152f35b5f80fd5b600435906001600160a01b038216820361085657565b602435906001600160a01b038216820361085657565b346108565760203660031901126108565761089f61085a565b5060206040515f198152f35b606090600319011261085657600435906001600160a01b03906024358281168103610856579160443590811681036108565790565b3461085657602036600319011261085657602061084e600435610cd8565b90601f8019910116810190811067ffffffffffffffff82111761092057604052565b634e487b7160e01b5f52604160045260245ffd5b6001600160a01b03165f9081527f52c63247e1f47db19d5ce0460030c497f067ca4cebf71ba98eeadabe20bace016020526040902090565b916001600160a01b03808416928315610a1757169283156109ff575f908382525f805160206110f1833981519152806020526040832054918483106109e0575082845f80516020611131833981519152959360409388602097528652038282205586815220818154019055604051908152a3565b90506102ab8460405193849363391434e360e21b855260048501610a2f565b60405163ec442f0560e01b81525f6004820152602490fd5b604051634b637e8f60e11b81525f6004820152602490fd5b604091949392606082019560018060a01b0316825260208201520152565b6001600160a01b03169081156109ff575f80516020611111833981519152805490828201809211610ab3575f925f8051602061113183398151915292602092558484525f805160206110f1833981519152825260408420818154019055604051908152a3565b634e487b7160e01b5f52601160045260245ffd5b91906001600160a01b038316908115610a1757815f525f805160206110f18339815191528060205260405f205494828610610b3b5750815f80516020611131833981519152925f959660209386885284520360408620555f80516020611111833981519152818154039055604051908152a3565b85906102ab8460405193849363391434e360e21b855260048501610a2f565b9190610b6583610934565b9260018060a01b0390818316915f958387526020526040862054935f198503610b92575b50505050505050565b858510610bfd5750811615610be4578115610bcb5790610bb56040949392610934565b908552602052039120555f808080808080610b89565b604051634a1406b160e11b815260048101869052602490fd5b60405163e602df0560e01b815260048101869052602490fd5b84906102ab87604051938493637dc7a0d960e11b855260048501610a2f565b5f80516020611151833981519152546040516370a0823160e01b815230600482015290602090829060249082906001600160a01b03165afa908115610c93575f91610c65575090565b906020823d8211610c8b575b81610c7e602093836108fe565b810103126102af57505190565b3d9150610c71565b6040513d5f823e3d90fd5b5f805160206111118339815191525460018101809111610ab357610cc0610c1c565b9060018201809211610ab357610cd59261101f565b90565b5f805160206111118339815191525460018101809111610ab357610cfa610c1c565b9060018201809211610ab357610cd59261105d565b610d17610c1c565b60018101809111610ab3575f80516020611111833981519152549060018201809211610ab357610cd59261101f565b610d4e610c1c565b60018101809111610ab3575f80516020611111833981519152549060018201809211610ab357610cd59261105d565b5f80516020611151833981519152546040516323b872dd60e01b60208201526001600160a01b0392831660248201819052306044830152606480830187905282529495909391831692919060a0850167ffffffffffffffff811186821017610920577fdcbc1c05240f31ff3ad067ef1ee35ce4997762752e3a095284754544f4c709d795604095610e0f928752610ee9565b610e198183610a4d565b835196875260208701521693a3565b91939260018060a01b0390610e4f858388169784871696828a8903610ed8575b5050610ac7565b815f805160206111518339815191525416916040519363a9059cbb60e01b60208601521694856024850152816044850152604484526080840184811067ffffffffffffffff821117610920577ffbde797d201c681b91056529119e0b02407c7bb96a4a2c75c01fc9667232c8db94604094610ecb928652610ee9565b82519182526020820152a4565b610ee29183610b5a565b5f82610e48565b60018060a01b0316905f80826020829451910182865af13d15610fb0573d9067ffffffffffffffff8211610f9c5790610f449160405191610f346020601f19601f84011601846108fe565b82523d84602084013e5b84610fbc565b908151918215159283610f74575b505050610f5c5750565b60249060405190635274afe760e01b82526004820152fd5b8192935090602091810103126101955760200151908115918215036102af57505f8080610f52565b634e487b7160e01b83526041600452602483fd5b610f4490606090610f3e565b90610fe35750805115610fd157805190602001fd5b604051630a12f52160e11b8152600490fd5b81511580611016575b610ff4575090565b604051639996b31560e01b81526001600160a01b039091166004820152602490fd5b50803b15610fec565b919061102c82828561105d565b928215611049570961103b5790565b60018101809111610ab35790565b634e487b7160e01b5f52601260045260245ffd5b9091828202915f19848209938380861095039480860395146110e257848311156110d057829109815f038216809204600280826003021880830282030280830282030280830282030280830282030280830282030280920290030293600183805f03040190848311900302920304170290565b60405163227bc15360e01b8152600490fd5b50508092501561104957049056fe52c63247e1f47db19d5ce0460030c497f067ca4cebf71ba98eeadabe20bace0052c63247e1f47db19d5ce0460030c497f067ca4cebf71ba98eeadabe20bace02ddf252ad1be2c89b69c2b068fc378daa952ba7f163c4a11628f55a4df523b3ef0773e532dfede91f04b12a73d3d2acd361424f41f76b4fb79f090161e36b4e00a264697066735822122022da762e05e8eed51d1adf09e2b535f7d771f8c41e2af83ce44715e6c28a44f964736f6c63430008140033","linkReferences":{}},"methodIdentifiers":{"allowance(address,address)":"dd62ed3e","approve(address,uint256)":"095ea7b3","asset()":"38d52e0f","balanceOf(address)":"70a08231","burn(address,uint256)":"9dc29fac","convertToAssets(uint256)":"07a2d13a","convertToShares(uint256)":"c6e6f592","decimals()":"313ce567","deposit(uint256,address)":"6e553f65","maxDeposit(address)":"402d267d","maxMint(address)":"c63d75b6","maxRedeem(address)":"d905777e","maxWithdraw(address)":"ce96cb77","mint(address,uint256)":"40c10f19","mint(uint256,address)":"94bf804d","name()":"06fdde03","previewDeposit(uint256)":"ef8b30f7","previewMint(uint256)":"b3d7f6b9","previewRedeem(uint256)":"4cdad506","previewWithdraw(uint256)":"0a28a477","redeem(uint256,address,address)":"ba087652","symbol()":"95d89b41","totalAssets()":"01e1d114","totalSupply()":"18160ddd","transfer(address,uint256)":"a9059cbb","transferFrom(address,address,uint256)":"23b872dd","withdraw(uint256,address,address)":"b460af94"},"id":138}