{"abi":[{"type":"constructor","inputs":[],"stateMutability":"nonpayable"},{"type":"function","name":"UPGRADE_INTERFACE_VERSION","inputs":[],"outputs":[{"name":"","type":"string","internalType":"string"}],"stateMutability":"view"},{"type":"function","name":"authorizedSequencers","inputs":[{"name":"","type":"address","internalType":"address"}],"outputs":[{"name":"","type":"bool","internalType":"bool"}],"stateMutability":"view"},{"type":"function","name":"batchVerify","inputs":[{"name":"_blockHash","type":"bytes32","internalType":"bytes32"},{"name":"_txHashes","type":"bytes32[]","internalType":"bytes32[]"},{"name":"_positions","type":"uint256[]","internalType":"uint256[]"},{"name":"_proofs","type":"bytes32[]","internalType":"bytes32[]"},{"name":"_proofLength","type":"uint256","internalType":"uint256"}],"outputs":[{"name":"results","type":"bool[]","internalType":"bool[]"}],"stateMutability":"view"},{"type":"function","name":"blockNumberToHash","inputs":[{"name":"","type":"uint256","internalType":"uint256"}],"outputs":[{"name":"","type":"bytes32","internalType":"bytes32"}],"stateMutability":"view"},{"type":"function","name":"commitOrdering","inputs":[{"name":"_blockHash","type":"bytes32","internalType":"bytes32"},{"name":"_blockNumber","type":"uint64","internalType":"uint64"},{"name":"_txOrderingRoot","type":"bytes32","internalType":"bytes32"},{"name":"_txCount","type":"uint32","internalType":"uint32"},{"name":"_signature","type":"bytes","internalType":"bytes"}],"outputs":[],"stateMutability":"nonpayable"},{"type":"function","name":"commitments","inputs":[{"name":"","type":"bytes32","internalType":"bytes32"}],"outputs":[{"name":"blockHash","type":"bytes32","internalType":"bytes32"},{"name":"txOrderingRoot","type":"bytes32","internalType":"bytes32"},{"name":"blockNumber","type":"uint64","internalType":"uint64"},{"name":"timestamp","type":"uint64","internalType":"uint64"},{"name":"txCount","type":"uint32","internalType":"uint32"},{"name":"sequencer","type":"address","internalType":"address"}],"stateMutability":"view"},{"type":"function","name":"domainSeparator","inputs":[],"outputs":[{"name":"","type":"bytes32","internalType":"bytes32"}],"stateMutability":"view"},{"type":"function","name":"getCommitmentByBlockNumber","inputs":[{"name":"_blockNumber","type":"uint256","internalType":"uint256"}],"outputs":[{"name":"commitment","type":"tuple","internalType":"struct SequencerAttestation.OrderingCommitment","components":[{"name":"blockHash","type":"bytes32","internalType":"bytes32"},{"name":"txOrderingRoot","type":"bytes32","internalType":"bytes32"},{"name":"blockNumber","type":"uint64","internalType":"uint64"},{"name":"timestamp","type":"uint64","internalType":"uint64"},{"name":"txCount","type":"uint32","internalType":"uint32"},{"name":"sequencer","type":"address","internalType":"address"}]}],"stateMutability":"view"},{"type":"function","name":"getStats","inputs":[],"outputs":[{"name":"stats_","type":"tuple","internalType":"struct SequencerAttestation.Stats","components":[{"name":"totalCommitments","type":"uint256","internalType":"uint256"},{"name":"totalVerifications","type":"uint256","internalType":"uint256"},{"name":"failedVerifications","type":"uint256","internalType":"uint256"},{"name":"lastCommitmentTime","type":"uint64","internalType":"uint64"}]}],"stateMutability":"view"},{"type":"function","name":"hasCommitment","inputs":[{"name":"_blockHash","type":"bytes32","internalType":"bytes32"}],"outputs":[{"name":"exists","type":"bool","internalType":"bool"}],"stateMutability":"view"},{"type":"function","name":"initialize","inputs":[{"name":"_owner","type":"address","internalType":"address"},{"name":"_initialSequencer","type":"address","internalType":"address"}],"outputs":[],"stateMutability":"nonpayable"},{"type":"function","name":"owner","inputs":[],"outputs":[{"name":"","type":"address","internalType":"address"}],"stateMutability":"view"},{"type":"function","name":"proxiableUUID","inputs":[],"outputs":[{"name":"","type":"bytes32","internalType":"bytes32"}],"stateMutability":"view"},{"type":"function","name":"renounceOwnership","inputs":[],"outputs":[],"stateMutability":"nonpayable"},{"type":"function","name":"setSequencerAuthorization","inputs":[{"name":"_sequencer","type":"address","internalType":"address"},{"name":"_authorized","type":"bool","internalType":"bool"}],"outputs":[],"stateMutability":"nonpayable"},{"type":"function","name":"stats","inputs":[],"outputs":[{"name":"totalCommitments","type":"uint256","internalType":"uint256"},{"name":"totalVerifications","type":"uint256","internalType":"uint256"},{"name":"failedVerifications","type":"uint256","internalType":"uint256"},{"name":"lastCommitmentTime","type":"uint64","internalType":"uint64"}],"stateMutability":"view"},{"type":"function","name":"transferOwnership","inputs":[{"name":"newOwner","type":"address","internalType":"address"}],"outputs":[],"stateMutability":"nonpayable"},{"type":"function","name":"upgradeToAndCall","inputs":[{"name":"newImplementation","type":"address","internalType":"address"},{"name":"data","type":"bytes","internalType":"bytes"}],"outputs":[],"stateMutability":"payable"},{"type":"function","name":"verifyTxPosition","inputs":[{"name":"_blockHash","type":"bytes32","internalType":"bytes32"},{"name":"_txHash","type":"bytes32","internalType":"bytes32"},{"name":"_position","type":"uint256","internalType":"uint256"},{"name":"_proof","type":"bytes32[]","internalType":"bytes32[]"}],"outputs":[{"name":"valid","type":"bool","internalType":"bool"}],"stateMutability":"nonpayable"},{"type":"function","name":"verifyTxPositionView","inputs":[{"name":"_blockHash","type":"bytes32","internalType":"bytes32"},{"name":"_txHash","type":"bytes32","internalType":"bytes32"},{"name":"_position","type":"uint256","internalType":"uint256"},{"name":"_proof","type":"bytes32[]","internalType":"bytes32[]"}],"outputs":[{"name":"valid","type":"bool","internalType":"bool"}],"stateMutability":"view"},{"type":"event","name":"Initialized","inputs":[{"name":"version","type":"uint64","indexed":false,"internalType":"uint64"}],"anonymous":false},{"type":"event","name":"OrderingCommitted","inputs":[{"name":"blockHash","type":"bytes32","indexed":true,"internalType":"bytes32"},{"name":"blockNumber","type":"uint64","indexed":true,"internalType":"uint64"},{"name":"txOrderingRoot","type":"bytes32","indexed":false,"internalType":"bytes32"},{"name":"txCount","type":"uint32","indexed":false,"internalType":"uint32"},{"name":"sequencer","type":"address","indexed":false,"internalType":"address"}],"anonymous":false},{"type":"event","name":"OrderingVerified","inputs":[{"name":"blockHash","type":"bytes32","indexed":true,"internalType":"bytes32"},{"name":"txHash","type":"bytes32","indexed":true,"internalType":"bytes32"},{"name":"position","type":"uint256","indexed":false,"internalType":"uint256"},{"name":"valid","type":"bool","indexed":false,"internalType":"bool"}],"anonymous":false},{"type":"event","name":"OwnershipTransferred","inputs":[{"name":"previousOwner","type":"address","indexed":true,"internalType":"address"},{"name":"newOwner","type":"address","indexed":true,"internalType":"address"}],"anonymous":false},{"type":"event","name":"SequencerAuthorized","inputs":[{"name":"sequencer","type":"address","indexed":true,"internalType":"address"},{"name":"authorized","type":"bool","indexed":false,"internalType":"bool"}],"anonymous":false},{"type":"event","name":"Upgraded","inputs":[{"name":"implementation","type":"address","indexed":true,"internalType":"address"}],"anonymous":false},{"type":"error","name":"AddressEmptyCode","inputs":[{"name":"target","type":"address","internalType":"address"}]},{"type":"error","name":"BlockNumberMismatch","inputs":[]},{"type":"error","name":"CommitmentAlreadyExists","inputs":[]},{"type":"error","name":"CommitmentNotFound","inputs":[]},{"type":"error","name":"ECDSAInvalidSignature","inputs":[]},{"type":"error","name":"ECDSAInvalidSignatureLength","inputs":[{"name":"length","type":"uint256","internalType":"uint256"}]},{"type":"error","name":"ECDSAInvalidSignatureS","inputs":[{"name":"s","type":"bytes32","internalType":"bytes32"}]},{"type":"error","name":"ERC1967InvalidImplementation","inputs":[{"name":"implementation","type":"address","internalType":"address"}]},{"type":"error","name":"ERC1967NonPayable","inputs":[]},{"type":"error","name":"FailedInnerCall","inputs":[]},{"type":"error","name":"InvalidInitialization","inputs":[]},{"type":"error","name":"InvalidProof","inputs":[]},{"type":"error","name":"InvalidSignature","inputs":[]},{"type":"error","name":"NotAuthorizedSequencer","inputs":[]},{"type":"error","name":"NotInitializing","inputs":[]},{"type":"error","name":"OwnableInvalidOwner","inputs":[{"name":"owner","type":"address","internalType":"address"}]},{"type":"error","name":"OwnableUnauthorizedAccount","inputs":[{"name":"account","type":"address","internalType":"address"}]},{"type":"error","name":"UUPSUnauthorizedCallContext","inputs":[]},{"type":"error","name":"UUPSUnsupportedProxiableUUID","inputs":[{"name":"slot","type":"bytes32","internalType":"bytes32"}]}],"bytecode":{"object":"0x60a080604052346100cc57306080527ff0c57e16840df040f15088dc2f81fe391c3923bec73e23a9662efc9c229c6a009081549060ff8260401c166100bd57506001600160401b036002600160401b031982821601610078575b60405161171890816100d182396080518181816107f801526108d60152f35b6001600160401b031990911681179091556040519081527fc7f505b2f371ae2175ee4913f4499e1f2633a7b5936321eed1cdaeb6115181d290602090a15f8080610059565b63f92ee8a960e01b8152600490fd5b5f80fdfe60406080815260049081361015610014575f80fd5b5f91823560e01c9081631a06d51014610e8e5781631ffb87d414610dba5781632602632914610d01578163485cc95514610ad957816348eda45d14610aa15781634f1ef28614610886578163524a6d771461084957816352d1902d146107e35781635c6ac971146105595781635edb6116146104dc578163715018a6146104735781637e3b9b4b1461044b578163839df945146103d55781638da5cb5b146103a0578163ad3cb1cc14610305578163c59d484714610280578163d227da1614610193578163d80528ae1461014d57508063f2fde38b1461011d5763f698da25146100fc575f80fd5b346101195781600319360112610119576020906007549051908152f35b5080fd5b823461014a57602036600319011261014a5761014761013a610f25565b610142611012565b61104a565b80f35b80fd5b9190503461018f578260031936011261018f5760809250600354915490600554906001600160401b036006541692815194855260208501528301526060820152f35b8280fd5b9190503461018f576020918260031936011261027c5790808460039360c09660a084516101bf81610f3b565b828152828982015282868201528260608201528260808201520152358152600285528181205481526001855220908051916101f983610f3b565b8054948584526001820154818501908152600283015493808601926001600160401b03938491828816825260608901948389861c16865260a060808b019863ffffffff809b60801c168a52600180831b039c8d910154169a01998a5284519b8c5251908b01525116908801525116606086015251166080840152511660a0820152f35b8380fd5b9190503461018f578260031936011261018f57608092606082516102a381610f6a565b8281528260208201528284820152015280516102be81610f6a565b600354928382525491602082019283526005548183019081526001600160401b03936060856006541694019384528251958652516020860152519084015251166060820152f35b90503461018f578260031936011261018f57815190828201908282106001600160401b0383111761038d5750825260058152602090640352e302e360dc1b8282015282519382859384528251928382860152825b84811061037757505050828201840152601f01601f19168101030190f35b8181018301518882018801528795508201610359565b634e487b7160e01b855260419052602484fd5b5050346101195781600319360112610119575f805160206116a38339815191525490516001600160a01b039091168152602090f35b90503461018f57602036600319011261018f5760c09282913581526001602052209063ffffffff825492600181015492600282015491600360018060a01b03910154169381519586526020860152816001600160401b0391828216818801521c16606085015260801c16608083015260a0820152f35b90503461018f57602036600319011261018f5760209282913581526002845220549051908152f35b833461014a578060031936011261014a5761048c611012565b5f805160206116a383398151915280546001600160a01b0319811690915581906001600160a01b03167f8be0079c531659141344cd1fd0a4f28419497f9722a3daafe3b4186f6b6457e08280a380f35b5050346101195780600319360112610119576104f6610f25565b6024359081151580920361027c577f299a9abe1b3f791134e324f74110ff919d8db0842db3e4d32f2037bcd996860991602091610531611012565b6001600160a01b0316808652858352848620805460ff191660ff84161790559351908152a280f35b9190503461018f5760a036600319011261018f57813590602435926001600160401b0391828516948581036107df5786604435946064359263ffffffff84169384810361027c57608435908382116107db57366023830112156107db5781880135928484116107d75736602485850101116107d7578a86528460028960209860018a52200154891c166107c757600754918851918783019384528c8a8401526001600160401b0360c01b9060c01b1660608301528a606883015263ffffffff60e01b9060e01b166088820152606c815260a08101818110868211176107b45788525190207f19457468657265756d205369676e6564204d6573736167653a0a3332000000008c52601c52603c8b2061068c926106839261067d913691602401610fdc565b90611181565b9092919261123f565b6001600160a01b03908116808b528a8452858b205490969060ff16156107a65750918186897fcf0dde9cefe0c6f15016a1d04d5c7265533ad9234e5df1b0d41351b4402d86d799979560038e8e8a60609d9b994216978d8c8051956106f087610f3b565b8987528c870192835281870195865260608701998c8b526080880195865260a088019b8c52815260018d52209451855551600185015560028401925116908254966001600160401b0360401b90518d1b169063ffffffff60801b905160801b169160018060a01b031980981617171790550192511690825416179055898b526002825288848c205561078360035461115f565b6003556001600160401b031960065416176006558251948552840152820152a380f35b8551630e269f8360e41b8152fd5b634e487b7160e01b8e5260418a5260248efd5b875163145718a760e01b81528990fd5b8580fd5b8480fd5b8680fd5b82843461014a578060031936011261014a57507f00000000000000000000000000000000000000000000000000000000000000006001600160a01b0316300361083c57602090515f805160206116c38339815191528152f35b5163703e46dd60e11b8152fd5b5050346101195760203660031901126101195760209160ff9082906001600160a01b03610874610f25565b16815280855220541690519015158152f35b9180915060031936011261018f5761089c610f25565b906024356001600160401b0381116107db57366023820112156107db576108cc9036906024818701359101610fdc565b6001600160a01b037f00000000000000000000000000000000000000000000000000000000000000008116308114908115610a86575b50610a765761090f611012565b82516352d1902d60e01b81529084169360209182818881895afa889181610a43575b5061094d578451634c9c8ce360e01b8152808801879052602490fd5b5f805160206116c383398151915296929591939690818103610a2d5750833b15610a165780546001600160a01b0319168217905583518792917fbc7cd75a20ee27fd9adebab32041f755214dbc6bffa90cc0225b39da2e5c2d3b8480a28651156109f95750508085856109eb97519101845af4913d156109ef573d6109dd6109d482610fc1565b92519283610fa0565b81528581943d92013e6110bb565b5080f35b50606092506110bb565b9450945050505034610a0a57505080f35b63b398979f60e01b8152fd5b8451634c9c8ce360e01b8152808401839052602490fd5b83602491875191632a87526960e21b8352820152fd5b9091508381813d8311610a6f575b610a5b8183610fa0565b81010312610a6b5751905f610931565b8880fd5b503d610a51565b825163703e46dd60e11b81528590fd5b9050815f805160206116c3833981519152541614155f610902565b90503461018f57602036600319011261018f576002826020946001600160401b039335815260018652200154821c1615159051908152f35b90503461018f578160031936011261018f57610af3610f25565b906024356001600160a01b038116908190036107db577ff0c57e16840df040f15088dc2f81fe391c3923bec73e23a9662efc9c229c6a0092835460ff81871c1615936001600160401b03821680159081610cf9575b6001149081610cef575b159081610ce6575b50610cd8575067ffffffffffffffff1981166001178555610b8d919084610cb9575b50610b8561111e565b61014261111e565b610b9561111e565b835160208101907f8b73c3c69bb8fe3d512ecc4cf759cc79239f7b179b0ffacaa9a75d522b39400f82527fce54068f9a6223c61dcf7f2a5de2198e3e46c890dab56452bed1d73d2bc64ad4868201527fc89efdaa54c0f20c7adf612882df0950f5a951637e0307cdcb4c672f298b8bc660608201524660808201523060a082015260a08152610c2381610f3b565b51902060075580610c74575b50610c38578280f35b805460ff60401b1916905551600181527fc7f505b2f371ae2175ee4913f4499e1f2633a7b5936321eed1cdaeb6115181d290602090a15f808280f35b80855284602052838520600160ff198254161790557f299a9abe1b3f791134e324f74110ff919d8db0842db3e4d32f2037bcd99686096020855160018152a25f610c2f565b68ffffffffffffffffff1916680100000000000000011785555f610b7c565b865163f92ee8a960e01b8152fd5b9050155f610b5a565b303b159150610b52565b869150610b48565b90503461018f5760a036600319011261018f576001600160401b03906024358281116107db57610d349036908301610eb6565b906044358481116107df57610d4c9036908501610eb6565b90606435958611610db657610d67610d749636908701610eb6565b94909360843596356113ac565b815192839260208080860192818752855180945286019401925b828110610d9d57505050500390f35b8351151585528695509381019392810192600101610d8e565b8780fd5b8383346101195780610dcb36610eea565b9294909196848152600160205220916001600160401b036002840154871c1615610e7e5796610e43877f39de6dbef93fd0d403e4821cd0b6e30983bd05dd0c6fccd16268b71f2e8426b594889460209b600187518e8101908682528c8a820152898152610e3781610f85565b51902093015491611620565b90610e4e815461115f565b90551595861596610e6b575b81519081528688820152a351908152f35b610e7660055461115f565b600555610e5a565b8551635b34156960e11b81528890fd5b50503461011957602090610ead610ea436610eea565b939290926112c2565b90519015158152f35b9181601f84011215610ee6578235916001600160401b038311610ee6576020808501948460051b010111610ee657565b5f80fd5b906080600319830112610ee657600435916024359160443591606435906001600160401b038211610ee657610f2191600401610eb6565b9091565b600435906001600160a01b0382168203610ee657565b60c081019081106001600160401b03821117610f5657604052565b634e487b7160e01b5f52604160045260245ffd5b608081019081106001600160401b03821117610f5657604052565b606081019081106001600160401b03821117610f5657604052565b90601f801991011681019081106001600160401b03821117610f5657604052565b6001600160401b038111610f5657601f01601f191660200190565b929192610fe882610fc1565b91610ff66040519384610fa0565b829481845281830111610ee6578281602093845f960137010152565b5f805160206116a3833981519152546001600160a01b0316330361103257565b60405163118cdaa760e01b8152336004820152602490fd5b6001600160a01b039081169081156110a3575f805160206116a383398151915280546001600160a01b031981168417909155167f8be0079c531659141344cd1fd0a4f28419497f9722a3daafe3b4186f6b6457e05f80a3565b604051631e4fbdf760e01b81525f6004820152602490fd5b906110e257508051156110d057805190602001fd5b604051630a12f52160e11b8152600490fd5b81511580611115575b6110f3575090565b604051639996b31560e01b81526001600160a01b039091166004820152602490fd5b50803b156110eb565b60ff7ff0c57e16840df040f15088dc2f81fe391c3923bec73e23a9662efc9c229c6a005460401c161561114d57565b604051631afcd79f60e31b8152600490fd5b5f19811461116d5760010190565b634e487b7160e01b5f52601160045260245ffd5b81519190604183036111b1576111aa9250602082015190606060408401519301515f1a906111bb565b9192909190565b50505f9160029190565b91906fa2a8918ca85bafe22016d0b997e4df60600160ff1b03841161123457926020929160ff6080956040519485521684840152604083015260608201525f92839182805260015afa156112285780516001600160a01b0381161561121f57918190565b50809160019190565b604051903d90823e3d90fd5b5050505f9160039190565b60048110156112ae5780611251575050565b6001810361126b5760405163f645eedf60e01b8152600490fd5b6002810361128c5760405163fce698f760e01b815260048101839052602490fd5b6003146112965750565b602490604051906335e2f38360e21b82526004820152fd5b634e487b7160e01b5f52602160045260245ffd5b93919290935f52600160205260405f20916001600160401b03600284015460401c161561130f57600161130c956040516020810191878352604082015260408152610e3781610f85565b90565b50505050505f90565b8181029291811591840414171561116d57565b6001600160401b038111610f565760051b60200190565b9061134c8261132b565b6113596040519182610fa0565b828152809261136a601f199161132b565b0190602036910137565b91908110156113845760051b0190565b634e487b7160e01b5f52603260045260245ffd5b80518210156113845760209160051b010190565b96939194959290968286036115e9576113c58587611318565b84036115ac575f52600160205260405f20926001600160401b03600285015460401c161561159b579496919590936113fc88611342565b9760015f950154975b8186106114185750505050505050505090565b93969992919061142c8686899c9899611374565b3561143888838b611374565b35604051906020820192835260408201526040815261145681610f85565b519020946114638361132b565b9a6114716040519c8d610fa0565b838c52601f196114808561132b565b013660208e01375f5b848110611556575061149c898383611374565b35969c5f9a5b8d518c1015611524576114f18e9f8f9e9f8e6114bd91611398565b5160018c166114fd5760405190602082019283526040820152604081526114e381610f85565b519020995b60011c9c61115f565b9b989e509c9b9c6114a2565b90604051906020820192835260408201526040815261151b81610f85565b519020996114e8565b9499929750949a9950949b61154892979b508914611542828d611398565b5261115f565b949093979295919697611405565b9a9b9c611566858b9c999c611318565b8c8101811161116d578c8f611542819f6115868161158d9601878d611374565b3592611398565b909d509b9a9b999699611489565b5050505050905061130c9150611342565b60405162461bcd60e51b8152602060048201526015602482015274092dcecc2d8d2c840e0e4dedecce640d8cadccee8d605b1b6044820152606490fd5b60405162461bcd60e51b815260206004820152600f60248201526e098cadccee8d040dad2e6dac2e8c6d608b1b6044820152606490fd5b9193905f915b81831061163557505050501490565b61167790611644848487611374565b600196903582881661167d5760408051916020830193845281830152815261166b81610f85565b519020955b1c9261115f565b91611626565b9060408051916020830193845281830152815261169981610f85565b5190209561167056fe9016d09d72d40fdae2fd8ceac6b6234c7706214fd39c1cd1e609a0528c199300360894a13ba1a3210667c828492db98dca3e2076cc3735a920a3ca505d382bbca264697066735822122039168e0f4479b677acedb765cb2530ca873403bcad00bd7c9e93c53d706ea41464736f6c63430008140033","linkReferences":{}},"methodIdentifiers":{"UPGRADE_INTERFACE_VERSION()":"ad3cb1cc","authorizedSequencers(address)":"524a6d77","batchVerify(bytes32,bytes32[],uint256[],bytes32[],uint256)":"26026329","blockNumberToHash(uint256)":"7e3b9b4b","commitOrdering(bytes32,uint64,bytes32,uint32,bytes)":"5c6ac971","commitments(bytes32)":"839df945","domainSeparator()":"f698da25","getCommitmentByBlockNumber(uint256)":"d227da16","getStats()":"c59d4847","hasCommitment(bytes32)":"48eda45d","initialize(address,address)":"485cc955","owner()":"8da5cb5b","proxiableUUID()":"52d1902d","renounceOwnership()":"715018a6","setSequencerAuthorization(address,bool)":"5edb6116","stats()":"d80528ae","transferOwnership(address)":"f2fde38b","upgradeToAndCall(address,bytes)":"4f1ef286","verifyTxPosition(bytes32,bytes32,uint256,bytes32[])":"1ffb87d4","verifyTxPositionView(bytes32,bytes32,uint256,bytes32[])":"1a06d510"},"id":387}