{"abi":[{"type":"constructor","inputs":[{"name":"beneficiary","type":"address","internalType":"address"},{"name":"startTimestamp","type":"uint64","internalType":"uint64"},{"name":"durationSeconds","type":"uint64","internalType":"uint64"}],"stateMutability":"payable"},{"type":"receive","stateMutability":"payable"},{"type":"function","name":"duration","inputs":[],"outputs":[{"name":"","type":"uint256","internalType":"uint256"}],"stateMutability":"view"},{"type":"function","name":"end","inputs":[],"outputs":[{"name":"","type":"uint256","internalType":"uint256"}],"stateMutability":"view"},{"type":"function","name":"owner","inputs":[],"outputs":[{"name":"","type":"address","internalType":"address"}],"stateMutability":"view"},{"type":"function","name":"releasable","inputs":[{"name":"token","type":"address","internalType":"address"}],"outputs":[{"name":"","type":"uint256","internalType":"uint256"}],"stateMutability":"view"},{"type":"function","name":"releasable","inputs":[],"outputs":[{"name":"","type":"uint256","internalType":"uint256"}],"stateMutability":"view"},{"type":"function","name":"release","inputs":[{"name":"token","type":"address","internalType":"address"}],"outputs":[],"stateMutability":"nonpayable"},{"type":"function","name":"release","inputs":[],"outputs":[],"stateMutability":"nonpayable"},{"type":"function","name":"released","inputs":[],"outputs":[{"name":"","type":"uint256","internalType":"uint256"}],"stateMutability":"view"},{"type":"function","name":"released","inputs":[{"name":"token","type":"address","internalType":"address"}],"outputs":[{"name":"","type":"uint256","internalType":"uint256"}],"stateMutability":"view"},{"type":"function","name":"renounceOwnership","inputs":[],"outputs":[],"stateMutability":"nonpayable"},{"type":"function","name":"start","inputs":[],"outputs":[{"name":"","type":"uint256","internalType":"uint256"}],"stateMutability":"view"},{"type":"function","name":"transferOwnership","inputs":[{"name":"newOwner","type":"address","internalType":"address"}],"outputs":[],"stateMutability":"nonpayable"},{"type":"function","name":"vestedAmount","inputs":[{"name":"timestamp","type":"uint64","internalType":"uint64"}],"outputs":[{"name":"","type":"uint256","internalType":"uint256"}],"stateMutability":"view"},{"type":"function","name":"vestedAmount","inputs":[{"name":"token","type":"address","internalType":"address"},{"name":"timestamp","type":"uint64","internalType":"uint64"}],"outputs":[{"name":"","type":"uint256","internalType":"uint256"}],"stateMutability":"view"},{"type":"event","name":"ERC20Released","inputs":[{"name":"token","type":"address","indexed":true,"internalType":"address"},{"name":"amount","type":"uint256","indexed":false,"internalType":"uint256"}],"anonymous":false},{"type":"event","name":"EtherReleased","inputs":[{"name":"amount","type":"uint256","indexed":false,"internalType":"uint256"}],"anonymous":false},{"type":"event","name":"OwnershipTransferred","inputs":[{"name":"previousOwner","type":"address","indexed":true,"internalType":"address"},{"name":"newOwner","type":"address","indexed":true,"internalType":"address"}],"anonymous":false},{"type":"error","name":"AddressEmptyCode","inputs":[{"name":"target","type":"address","internalType":"address"}]},{"type":"error","name":"AddressInsufficientBalance","inputs":[{"name":"account","type":"address","internalType":"address"}]},{"type":"error","name":"FailedInnerCall","inputs":[]},{"type":"error","name":"OwnableInvalidOwner","inputs":[{"name":"owner","type":"address","internalType":"address"}]},{"type":"error","name":"OwnableUnauthorizedAccount","inputs":[{"name":"account","type":"address","internalType":"address"}]},{"type":"error","name":"SafeERC20FailedOperation","inputs":[{"name":"token","type":"address","internalType":"address"}]}],"bytecode":{"object":"0x60c0601f610a1438819003918201601f19168301916001600160401b03831184841017610106578084926060946040528339810103126101025780516001600160a01b0391828216918290036101025761006760406100606020840161011a565b920161011a565b9180156100ea575f80546001600160a01b03198116831782556040519516907f8be0079c531659141344cd1fd0a4f28419497f9722a3daafe3b4186f6b6457e09080a360805260a0526108e5908161012f82396080518181816101d90152818161021e0152610769015260a0518181816101b60152818161058d015261079d0152f35b604051631e4fbdf760e01b81525f6004820152602490fd5b5f80fd5b634e487b7160e01b5f52604160045260245ffd5b51906001600160401b03821682036101025756fe6040608081526004908136101561001f575b5050361561001d575f80fd5b005b5f91823560e01c9081630a17b06b146105b15781630fb5a6b41461056d5781631916558714610435578163715018a6146103db578163810ec23b1461039d57816386d1a69f146102e75781638da5cb5b146102bf57816396132521146102a05781639852595c14610268578163a3f8eace14610242578163be9a6555146101fe578163efbe1c1c14610193578163f2fde38b14610108575063fbccedae0361001157346101045781600319360112610104576020906100fd476100f8600154916100f3836001600160401b0342169261062f565b61075b565b610650565b9051908152f35b5080fd5b90503461018f57602036600319011261018f576101236105ea565b9061012c610604565b6001600160a01b0391821692831561017957505082546001600160a01b0319811683178455167f8be0079c531659141344cd1fd0a4f28419497f9722a3daafe3b4186f6b6457e08380a380f35b51631e4fbdf760e01b8152908101849052602490fd5b8280fd5b5050346101045781600319360112610104576020906100fd6001600160401b03807f000000000000000000000000000000000000000000000000000000000000000016907f00000000000000000000000000000000000000000000000000000000000000001661062f565b505034610104578160031936011261010457602090516001600160401b037f0000000000000000000000000000000000000000000000000000000000000000168152f35b505034610104576020366003190112610104576020906100fd6102636105ea565b61065d565b5050346101045760203660031901126101045760209181906001600160a01b036102906105ea565b1681526002845220549051908152f35b5050346101045781600319360112610104576020906001549051908152f35b505034610104578160031936011261010457905490516001600160a01b039091168152602090f35b9190503461018f578260031936011261018f5760015461032261031b826100f8426001600160401b03166100f3834761062f565b809261062f565b6001557fda9d4e5f101b8b9b1c5b76d0c5a9f7923571acfc02376aa076b75a8c080c956b60208351838152a183546001600160a01b0316478211610387578480809381935af161037061080e565b501561037a578280f35b51630a12f52160e11b8152fd5b825163cd78605960e01b81523081860152602490fd5b5050346101045780600319360112610104576103b76105ea565b602435926001600160401b03841684036103d857506020926100fd916106cb565b80fd5b83346103d857806003193601126103d8576103f4610604565b80546001600160a01b03198116825581906001600160a01b03167f8be0079c531659141344cd1fd0a4f28419497f9722a3daafe3b4186f6b6457e08280a380f35b9190503461018f5760209081600319360112610569576104536105ea565b9161045d8361065d565b60018060a01b03809416938487526002835283872061047d83825461062f565b9055847fc0e523490dd523c33b1878c9eb14ff46991e3f5b2cd33710918618f2a39cba1b848651858152a2865416908351908382019263a9059cbb60e01b84526024830152604482015260448152608081018181106001600160401b03821117610556578452516104ff918791829182885af16104f861080e565b908561084c565b805191821515918261052d575b50509050610518578380f35b51635274afe760e01b81529182015260249150fd5b80925081938101031261055257015180159081150361054e57805f8061050c565b8480fd5b8580fd5b634e487b7160e01b885260418752602488fd5b8380fd5b505034610104578160031936011261010457602090516001600160401b037f0000000000000000000000000000000000000000000000000000000000000000168152f35b90503461018f57602036600319011261018f5735916001600160401b03831683036103d857506100fd6020926100f3476001549061062f565b600435906001600160a01b038216820361060057565b5f80fd5b5f546001600160a01b0316330361061757565b60405163118cdaa760e01b8152336004820152602490fd5b9190820180921161063c57565b634e487b7160e01b5f52601160045260245ffd5b9190820391821161063c57565b610693906106746001600160401b034216826106cb565b6001600160a01b039091165f9081526002602052604090205490610650565b90565b90601f801991011681019081106001600160401b038211176106b757604052565b634e487b7160e01b5f52604160045260245ffd5b6040516370a0823160e01b8152306004820152906001600160a01b0316602082602481845afa918215610750575f9261071b575b5061069392916100f3915f52600260205260405f20549061062f565b90916020823d8211610748575b8161073560209383610696565b810103126103d8575051906100f36106ff565b3d9150610728565b6040513d5f823e3d90fd5b6001600160401b03918216917f00000000000000000000000000000000000000000000000000000000000000008116908184101561079b57505050505f90565b7f000000000000000000000000000000000000000000000000000000000000000016926107c8848361062f565b81106107d5575050905090565b906107df91610650565b9081810291818304149015171561063c5781156107fa570490565b634e487b7160e01b5f52601260045260245ffd5b3d15610847573d906001600160401b0382116106b7576040519161083c601f8201601f191660200184610696565b82523d5f602084013e565b606090565b90610873575080511561086157805190602001fd5b604051630a12f52160e11b8152600490fd5b815115806108a6575b610884575090565b604051639996b31560e01b81526001600160a01b039091166004820152602490fd5b50803b1561087c56fea26469706673582212202347bea27c256e73b1fc22e8484e56a114003267451afe69d12d7a929263f2bc64736f6c63430008140033","linkReferences":{}},"methodIdentifiers":{"duration()":"0fb5a6b4","end()":"efbe1c1c","owner()":"8da5cb5b","releasable()":"fbccedae","releasable(address)":"a3f8eace","release()":"86d1a69f","release(address)":"19165587","released()":"96132521","released(address)":"9852595c","renounceOwnership()":"715018a6","start()":"be9a6555","transferOwnership(address)":"f2fde38b","vestedAmount(address,uint64)":"810ec23b","vestedAmount(uint64)":"0a17b06b"},"id":195}