{"abi":[{"type":"constructor","inputs":[{"name":"array","type":"address[]","internalType":"address[]"}],"stateMutability":"nonpayable"},{"type":"function","name":"unsafeAccess","inputs":[{"name":"pos","type":"uint256","internalType":"uint256"}],"outputs":[{"name":"","type":"address","internalType":"address"}],"stateMutability":"view"}],"bytecode":{"object":"0x60806040523461013e576101f18038038061001981610142565b9283398101906020808284031261013e5781516001600160401b039283821161013e57019280601f8501121561013e5783519083821161010b578160051b9483610064818801610142565b80948152019084829782010192831161013e578401905b82821061011f575050505191821161010b5768010000000000000000821161010b575f9283548385558084106100e6575b5090838052808420935b8381106100cb57604051608990816101688239f35b82516001600160a01b031685820155918101916001016100b6565b8480528383862091820191015b81811061010057506100ac565b8581556001016100f3565b634e487b7160e01b5f52604160045260245ffd5b81516001600160a01b038116810361013e57815290840190840161007b565b5f80fd5b6040519190601f01601f191682016001600160401b0381118382101761010b5760405256fe60808060405260043610156011575f80fd5b5f90813560e01c6340aa934d146025575f80fd5b34604f576020366003190112604f5781805260209182902060043501546001600160a01b03168152f35b5080fdfea264697066735822122032b45ad6f4b3e184a16b7737dfb337a5fd06253e8222da12bc66be7b1951997264736f6c63430008140033","linkReferences":{}},"methodIdentifiers":{"unsafeAccess(uint256)":"40aa934d"},"id":247}