{"abi":[{"type":"constructor","inputs":[{"name":"array","type":"bytes32[]","internalType":"bytes32[]"}],"stateMutability":"nonpayable"},{"type":"function","name":"unsafeAccess","inputs":[{"name":"pos","type":"uint256","internalType":"uint256"}],"outputs":[{"name":"","type":"bytes32","internalType":"bytes32"}],"stateMutability":"view"}],"bytecode":{"object":"0x608060405234610129576101d3803803806100198161012d565b928339810190602080828403126101295781516001600160401b039283821161012957019280601f8501121561012957835190838211610105578160051b948361006481880161012d565b8094815201908482978201019283116101295784809101915b83831061011957505050505191821161010557680100000000000000008211610105575f9283548385558084106100e0575b5090838052808420935b8381106100ce57604051608090816101538239f35b825185820155918101916001016100b9565b8480528383862091820191015b8181106100fa57506100af565b8581556001016100ed565b634e487b7160e01b5f52604160045260245ffd5b825181529181019185910161007d565b5f80fd5b6040519190601f01601f191682016001600160401b038111838210176101055760405256fe60808060405260043610156011575f80fd5b5f90813560e01c6340aa934d146025575f80fd5b34604657602036600319011260465781806020935282600435912001548152f35b5080fdfea2646970667358221220681f5cb94a1fa85c5ba9d8484cf5eb0dfd2a3318cf9ebc21c06efa28734bcb4564736f6c63430008140033","linkReferences":{}},"methodIdentifiers":{"unsafeAccess(uint256)":"40aa934d"},"id":247}