{"abi":[{"type":"constructor","inputs":[{"name":"wrappedToken","type":"address","internalType":"contract IERC20"}],"stateMutability":"nonpayable"},{"type":"function","name":"CLOCK_MODE","inputs":[],"outputs":[{"name":"","type":"string","internalType":"string"}],"stateMutability":"view"},{"type":"function","name":"DOMAIN_SEPARATOR","inputs":[],"outputs":[{"name":"","type":"bytes32","internalType":"bytes32"}],"stateMutability":"view"},{"type":"function","name":"allowance","inputs":[{"name":"owner","type":"address","internalType":"address"},{"name":"spender","type":"address","internalType":"address"}],"outputs":[{"name":"","type":"uint256","internalType":"uint256"}],"stateMutability":"view"},{"type":"function","name":"approve","inputs":[{"name":"spender","type":"address","internalType":"address"},{"name":"value","type":"uint256","internalType":"uint256"}],"outputs":[{"name":"","type":"bool","internalType":"bool"}],"stateMutability":"nonpayable"},{"type":"function","name":"balanceOf","inputs":[{"name":"account","type":"address","internalType":"address"}],"outputs":[{"name":"","type":"uint256","internalType":"uint256"}],"stateMutability":"view"},{"type":"function","name":"checkpoints","inputs":[{"name":"account","type":"address","internalType":"address"},{"name":"pos","type":"uint32","internalType":"uint32"}],"outputs":[{"name":"","type":"tuple","internalType":"struct Checkpoints.Checkpoint208","components":[{"name":"_key","type":"uint48","internalType":"uint48"},{"name":"_value","type":"uint208","internalType":"uint208"}]}],"stateMutability":"view"},{"type":"function","name":"clock","inputs":[],"outputs":[{"name":"","type":"uint48","internalType":"uint48"}],"stateMutability":"view"},{"type":"function","name":"decimals","inputs":[],"outputs":[{"name":"","type":"uint8","internalType":"uint8"}],"stateMutability":"view"},{"type":"function","name":"delegate","inputs":[{"name":"delegatee","type":"address","internalType":"address"}],"outputs":[],"stateMutability":"nonpayable"},{"type":"function","name":"delegateBySig","inputs":[{"name":"delegatee","type":"address","internalType":"address"},{"name":"nonce","type":"uint256","internalType":"uint256"},{"name":"expiry","type":"uint256","internalType":"uint256"},{"name":"v","type":"uint8","internalType":"uint8"},{"name":"r","type":"bytes32","internalType":"bytes32"},{"name":"s","type":"bytes32","internalType":"bytes32"}],"outputs":[],"stateMutability":"nonpayable"},{"type":"function","name":"delegates","inputs":[{"name":"account","type":"address","internalType":"address"}],"outputs":[{"name":"","type":"address","internalType":"address"}],"stateMutability":"view"},{"type":"function","name":"depositFor","inputs":[{"name":"account","type":"address","internalType":"address"},{"name":"value","type":"uint256","internalType":"uint256"}],"outputs":[{"name":"","type":"bool","internalType":"bool"}],"stateMutability":"nonpayable"},{"type":"function","name":"eip712Domain","inputs":[],"outputs":[{"name":"fields","type":"bytes1","internalType":"bytes1"},{"name":"name","type":"string","internalType":"string"},{"name":"version","type":"string","internalType":"string"},{"name":"chainId","type":"uint256","internalType":"uint256"},{"name":"verifyingContract","type":"address","internalType":"address"},{"name":"salt","type":"bytes32","internalType":"bytes32"},{"name":"extensions","type":"uint256[]","internalType":"uint256[]"}],"stateMutability":"view"},{"type":"function","name":"getPastTotalSupply","inputs":[{"name":"timepoint","type":"uint256","internalType":"uint256"}],"outputs":[{"name":"","type":"uint256","internalType":"uint256"}],"stateMutability":"view"},{"type":"function","name":"getPastVotes","inputs":[{"name":"account","type":"address","internalType":"address"},{"name":"timepoint","type":"uint256","internalType":"uint256"}],"outputs":[{"name":"","type":"uint256","internalType":"uint256"}],"stateMutability":"view"},{"type":"function","name":"getVotes","inputs":[{"name":"account","type":"address","internalType":"address"}],"outputs":[{"name":"","type":"uint256","internalType":"uint256"}],"stateMutability":"view"},{"type":"function","name":"name","inputs":[],"outputs":[{"name":"","type":"string","internalType":"string"}],"stateMutability":"view"},{"type":"function","name":"nonces","inputs":[{"name":"owner","type":"address","internalType":"address"}],"outputs":[{"name":"","type":"uint256","internalType":"uint256"}],"stateMutability":"view"},{"type":"function","name":"numCheckpoints","inputs":[{"name":"account","type":"address","internalType":"address"}],"outputs":[{"name":"","type":"uint32","internalType":"uint32"}],"stateMutability":"view"},{"type":"function","name":"permit","inputs":[{"name":"owner","type":"address","internalType":"address"},{"name":"spender","type":"address","internalType":"address"},{"name":"value","type":"uint256","internalType":"uint256"},{"name":"deadline","type":"uint256","internalType":"uint256"},{"name":"v","type":"uint8","internalType":"uint8"},{"name":"r","type":"bytes32","internalType":"bytes32"},{"name":"s","type":"bytes32","internalType":"bytes32"}],"outputs":[],"stateMutability":"nonpayable"},{"type":"function","name":"symbol","inputs":[],"outputs":[{"name":"","type":"string","internalType":"string"}],"stateMutability":"view"},{"type":"function","name":"totalSupply","inputs":[],"outputs":[{"name":"","type":"uint256","internalType":"uint256"}],"stateMutability":"view"},{"type":"function","name":"transfer","inputs":[{"name":"to","type":"address","internalType":"address"},{"name":"value","type":"uint256","internalType":"uint256"}],"outputs":[{"name":"","type":"bool","internalType":"bool"}],"stateMutability":"nonpayable"},{"type":"function","name":"transferFrom","inputs":[{"name":"from","type":"address","internalType":"address"},{"name":"to","type":"address","internalType":"address"},{"name":"value","type":"uint256","internalType":"uint256"}],"outputs":[{"name":"","type":"bool","internalType":"bool"}],"stateMutability":"nonpayable"},{"type":"function","name":"underlying","inputs":[],"outputs":[{"name":"","type":"address","internalType":"contract IERC20"}],"stateMutability":"view"},{"type":"function","name":"withdrawTo","inputs":[{"name":"account","type":"address","internalType":"address"},{"name":"value","type":"uint256","internalType":"uint256"}],"outputs":[{"name":"","type":"bool","internalType":"bool"}],"stateMutability":"nonpayable"},{"type":"event","name":"Approval","inputs":[{"name":"owner","type":"address","indexed":true,"internalType":"address"},{"name":"spender","type":"address","indexed":true,"internalType":"address"},{"name":"value","type":"uint256","indexed":false,"internalType":"uint256"}],"anonymous":false},{"type":"event","name":"DelegateChanged","inputs":[{"name":"delegator","type":"address","indexed":true,"internalType":"address"},{"name":"fromDelegate","type":"address","indexed":true,"internalType":"address"},{"name":"toDelegate","type":"address","indexed":true,"internalType":"address"}],"anonymous":false},{"type":"event","name":"DelegateVotesChanged","inputs":[{"name":"delegate","type":"address","indexed":true,"internalType":"address"},{"name":"previousVotes","type":"uint256","indexed":false,"internalType":"uint256"},{"name":"newVotes","type":"uint256","indexed":false,"internalType":"uint256"}],"anonymous":false},{"type":"event","name":"EIP712DomainChanged","inputs":[],"anonymous":false},{"type":"event","name":"Transfer","inputs":[{"name":"from","type":"address","indexed":true,"internalType":"address"},{"name":"to","type":"address","indexed":true,"internalType":"address"},{"name":"value","type":"uint256","indexed":false,"internalType":"uint256"}],"anonymous":false},{"type":"error","name":"AddressEmptyCode","inputs":[{"name":"target","type":"address","internalType":"address"}]},{"type":"error","name":"AddressInsufficientBalance","inputs":[{"name":"account","type":"address","internalType":"address"}]},{"type":"error","name":"CheckpointUnorderedInsertion","inputs":[]},{"type":"error","name":"ECDSAInvalidSignature","inputs":[]},{"type":"error","name":"ECDSAInvalidSignatureLength","inputs":[{"name":"length","type":"uint256","internalType":"uint256"}]},{"type":"error","name":"ECDSAInvalidSignatureS","inputs":[{"name":"s","type":"bytes32","internalType":"bytes32"}]},{"type":"error","name":"ERC20ExceededSafeSupply","inputs":[{"name":"increasedSupply","type":"uint256","internalType":"uint256"},{"name":"cap","type":"uint256","internalType":"uint256"}]},{"type":"error","name":"ERC20InsufficientAllowance","inputs":[{"name":"spender","type":"address","internalType":"address"},{"name":"allowance","type":"uint256","internalType":"uint256"},{"name":"needed","type":"uint256","internalType":"uint256"}]},{"type":"error","name":"ERC20InsufficientBalance","inputs":[{"name":"sender","type":"address","internalType":"address"},{"name":"balance","type":"uint256","internalType":"uint256"},{"name":"needed","type":"uint256","internalType":"uint256"}]},{"type":"error","name":"ERC20InvalidApprover","inputs":[{"name":"approver","type":"address","internalType":"address"}]},{"type":"error","name":"ERC20InvalidReceiver","inputs":[{"name":"receiver","type":"address","internalType":"address"}]},{"type":"error","name":"ERC20InvalidSender","inputs":[{"name":"sender","type":"address","internalType":"address"}]},{"type":"error","name":"ERC20InvalidSpender","inputs":[{"name":"spender","type":"address","internalType":"address"}]},{"type":"error","name":"ERC20InvalidUnderlying","inputs":[{"name":"token","type":"address","internalType":"address"}]},{"type":"error","name":"ERC2612ExpiredSignature","inputs":[{"name":"deadline","type":"uint256","internalType":"uint256"}]},{"type":"error","name":"ERC2612InvalidSigner","inputs":[{"name":"signer","type":"address","internalType":"address"},{"name":"owner","type":"address","internalType":"address"}]},{"type":"error","name":"ERC5805FutureLookup","inputs":[{"name":"timepoint","type":"uint256","internalType":"uint256"},{"name":"clock","type":"uint48","internalType":"uint48"}]},{"type":"error","name":"ERC6372InconsistentClock","inputs":[]},{"type":"error","name":"FailedInnerCall","inputs":[]},{"type":"error","name":"InvalidAccountNonce","inputs":[{"name":"account","type":"address","internalType":"address"},{"name":"currentNonce","type":"uint256","internalType":"uint256"}]},{"type":"error","name":"InvalidShortString","inputs":[]},{"type":"error","name":"SafeCastOverflowedUintDowncast","inputs":[{"name":"bits","type":"uint8","internalType":"uint8"},{"name":"value","type":"uint256","internalType":"uint256"}]},{"type":"error","name":"SafeERC20FailedOperation","inputs":[{"name":"token","type":"address","internalType":"address"}]},{"type":"error","name":"StringTooLong","inputs":[{"name":"str","type":"string","internalType":"string"}]},{"type":"error","name":"VotesExpiredSignature","inputs":[{"name":"expiry","type":"uint256","internalType":"uint256"}]}],"bytecode":{"object":"0x610180346200050b57601f62002cd938819003918201601f19168301916001600160401b03831184841017620002ec578084926020946040528339810103126200050b57516001600160a01b03811681036200050b5760405162000063816200050f565b600e81526d135e551bdad95b95dc985c1c195960921b90816020820152604051916200008f836200050f565b600e8352602083015260405192620000a7846200050f565b60038452624d544b60e81b602085015260405192620000c6846200050f565b60018452603160f81b60208501528051906001600160401b038211620002ec5760035490600182811c9216801562000500575b6020831014620003d95781601f8493116200048d575b50602090601f831160011462000404575f92620003f8575b50508160011b915f199060031b1c1916176003555b83516001600160401b038111620002ec57600454600181811c91168015620003ed575b6020821014620003d957601f811162000375575b50602094601f82116001146200030c579481929394955f9262000300575b50508160011b915f199060031b1c1916176004555b620001b1826200052b565b91610120928352620001c384620006e3565b9061014091825260208151910120938460e0526020815191012093610100948086524660a0526040519060208201927f8b73c3c69bb8fe3d512ecc4cf759cc79239f7b179b0ffacaa9a75d522b39400f8452604083015260608201524660808201523060a082015260a0815260c081019181831060018060401b03841117620002ec576040839052815190206080523060c08190526001600160a01b03851614620002d657505061016091825260405192612448948562000891863960805185611a97015260a05185611b52015260c05185611a61015260e05185611ae601525184611b0c015251836108e80152518261091101525181818161040b0152818161057b015281816107c9015261160a0152f35b6024925063438d6fe360e01b825260c430910152fd5b634e487b7160e01b5f52604160045260245ffd5b015190505f8062000191565b601f1982169560045f5260205f20915f5b8881106200035c5750836001959697981062000343575b505050811b01600455620001a6565b01515f1960f88460031b161c191690555f808062000334565b919260206001819286850151815501940192016200031d565b60045f527f8a35acfbc15ff81a39ae7d344fd709f28e8600b4aa8c65c6b64bfe7fe36bd19b601f830160051c810160208410620003d1575b601f830160051c82018110620003c557505062000173565b5f8155600101620003ad565b5080620003ad565b634e487b7160e01b5f52602260045260245ffd5b90607f16906200015f565b015190505f8062000127565b60035f9081527fc2575a0e9e593c00f959f8c92f12db2869c3395a3b0502d05e2516446f71f85b9350601f198516905b8181106200047457509084600195949392106200045b575b505050811b016003556200013c565b01515f1960f88460031b161c191690555f80806200044c565b9293602060018192878601518155019501930162000434565b60035f529091507fc2575a0e9e593c00f959f8c92f12db2869c3395a3b0502d05e2516446f71f85b601f840160051c81019160208510620004f5575b90601f859493920160051c01905b818110620004e657506200010f565b5f8155849350600101620004d7565b9091508190620004c9565b91607f1691620000f9565b5f80fd5b604081019081106001600160401b03821117620002ec57604052565b80516020919082811015620005c7575090601f8251116200056857808251920151908083106200055a57501790565b825f19910360031b1b161790565b90604051809263305a27a960e01b82528060048301528251908160248401525f935b828510620005ad575050604492505f838284010152601f80199101168101030190fd5b84810182015186860160440152938101938593506200058a565b6001600160401b038111620002ec576005928354926001938481811c91168015620006d8575b83821014620003d957601f8111620006a4575b5081601f84116001146200063e57509282939183925f9462000632575b50501b915f199060031b1c191617905560ff90565b015192505f806200061d565b919083601f198116875f52845f20945f905b8883831062000689575050501062000670575b505050811b01905560ff90565b01515f1960f88460031b161c191690555f808062000663565b85870151885590960195948501948793509081019062000650565b855f5284601f845f209201871c820191601f8601881c015b828110620006cc57505062000600565b5f8155018590620006bc565b90607f1690620005ed565b8051602090818110156200076f5750601f8251116200071057808251920151908083106200055a57501790565b90604051809263305a27a960e01b82528060048301528251908160248401525f935b82851062000755575050604492505f838284010152601f80199101168101030190fd5b848101820151868601604401529381019385935062000732565b906001600160401b038211620002ec57600654926001938481811c9116801562000885575b83821014620003d957601f81116200084e575b5081601f8411600114620007e657509282939183925f94620007da575b50501b915f199060031b1c19161760065560ff90565b015192505f80620007c4565b919083601f19811660065f52845f20945f905b888383106200083357505050106200081a575b505050811b0160065560ff90565b01515f1960f88460031b161c191690555f80806200080c565b858701518855909601959485019487935090810190620007f9565b60065f5284601f845f20920160051c820191601f860160051c015b82811062000879575050620007a7565b5f815501859062000869565b90607f16906200079456fe60806040526004361015610011575f80fd5b5f3560e01c806306fdde03146101b4578063095ea7b3146101af57806318160ddd146101aa578063205c2878146101a557806323b872dd146101a05780632f4f21e21461019b578063313ce567146101965780633644e515146101915780633a46b1a81461018c5780634bf5d7e914610187578063587cde1e146101825780635c19a95c1461017d5780636f307dc3146101785780636fcfff451461017357806370a082311461016e5780637ecebe001461016957806384b0196e146101645780638e539e8c1461015f57806391ddadf41461015a57806395d89b41146101555780639ab24eb014610150578063a9059cbb1461014b578063c3cda52014610146578063d505accf14610141578063dd62ed3e1461013c5763f1127ed814610137575f80fd5b610e7d565b610e26565b610ce7565b610c1a565b610be9565b610ba2565b610aff565b610ad4565b6109c5565b6108ce565b610896565b61085e565b6107f8565b6107b4565b610790565b610757565b6106c6565b61061c565b6105fa565b6105d5565b610539565b61048e565b610368565b61034b565b61031a565b61020b565b91908251928382525f5b8481106101e3575050825f602080949584010152601f8019910116010190565b6020818301810151848301820152016101c3565b9060206102089281815201906101b9565b90565b346102ea575f806003193601126102e7576040518160035461022c81611261565b808452906001908181169081156102bf5750600114610266575b6102628461025681880382610f9a565b604051918291826101f7565b0390f35b60038352602094507fc2575a0e9e593c00f959f8c92f12db2869c3395a3b0502d05e2516446f71f85b5b8284106102ac5750505081610262936102569282010193610246565b8054858501870152928501928101610290565b61026296506102569450602092508593915060ff191682840152151560051b82010193610246565b80fd5b5f80fd5b600435906001600160a01b03821682036102ea57565b602435906001600160a01b03821682036102ea57565b346102ea5760403660031901126102ea576103406103366102ee565b6024359033611391565b602060405160018152f35b346102ea575f3660031901126102ea576020600254604051908152f35b346102ea576040806003193601126102ea576103826102ee565b906024356001600160a01b0383163081146104775750331561046057335f9081526020819052604090205492818410610439578161042f9394036103d53360018060a01b03165f525f60205260405f2090565b556103e38260025403600255565b83518281525f9033905f805160206123f383398151915290602090a36104098233611477565b7f000000000000000000000000000000000000000000000000000000000000000061171b565b5160018152602090f35b50815163391434e360e21b8152336004820152602481018490526044810191909152606490fd5b8151634b637e8f60e11b81525f6004820152602490fd5b60249083519063ec442f0560e01b82526004820152fd5b346102ea5760603660031901126102ea576104a76102ee565b6104af610304565b6001600160a01b0382165f908152600160209081526040808320338452909152902060443591905492600184016104f7575b6104eb9350611299565b60405160018152602090f35b8284106105135761050e836104eb9503338361143f565b6104e1565b604051637dc7a0d960e11b81523360048201526024810185905260448101849052606490fd5b346102ea5760403660031901126102ea576105526102ee565b6024353033146105bd576001600160a01b038216913083146105a4576104eb925061059f8230337f0000000000000000000000000000000000000000000000000000000000000000611759565b611683565b60405163ec442f0560e01b815260048101849052602490fd5b604051634b637e8f60e11b8152306004820152602490fd5b346102ea575f3660031901126102ea5760206105ef6115f5565b60ff60405191168152f35b346102ea575f3660031901126102ea576020610614611a5e565b604051908152f35b346102ea5760403660031901126102ea576106356102ee565b60243561064143611d7f565b9165ffffffffffff831682101561069b576001600160a01b03165f90815260096020526040902061026292506001600160d01b039161068a919061068490611d7f565b90611dbf565b604051911681529081906020820190565b50604051637669fc0f60e11b8152600481019190915265ffffffffffff919091166024820152604490fd5b346102ea575f3660031901126102ea576106df43611d7f565b65ffffffffffff806106f043611d7f565b169116036107455761026260405161070781610f25565b601d81527f6d6f64653d626c6f636b6e756d6265722666726f6d3d64656661756c7400000060208201526040519182916020835260208301906101b9565b6040516301bfc1c560e61b8152600490fd5b346102ea5760203660031901126102ea5760206001600160a01b038061077b6102ee565b165f526008825260405f205416604051908152f35b346102ea5760203660031901126102ea576107b26107ac6102ee565b33610fe7565b005b346102ea575f3660031901126102ea576040517f00000000000000000000000000000000000000000000000000000000000000006001600160a01b03168152602090f35b346102ea5760203660031901126102ea576001600160a01b036108196102ee565b165f52600960205260405f205463ffffffff9081811161083f5760209160405191168152f35b604490604051906306dfcc6560e41b8252602060048301526024820152fd5b346102ea5760203660031901126102ea57602061061461087c6102ee565b6001600160a01b03165f9081526020819052604090205490565b346102ea5760203660031901126102ea576001600160a01b036108b76102ee565b165f526007602052602060405f2054604051908152f35b346102ea575f806003193601126102e7576109779061090c7f0000000000000000000000000000000000000000000000000000000000000000611b9e565b6109357f0000000000000000000000000000000000000000000000000000000000000000611c94565b916040519161094383610f46565b818352604051948594600f60f81b865261096960209360e08589015260e08801906101b9565b9086820360408801526101b9565b904660608601523060808601528260a086015284820360c08601528080855193848152019401925b8281106109ae57505050500390f35b83518552869550938101939281019260010161099f565b346102ea5760203660031901126102ea576004356109e243611d7f565b9065ffffffffffff91828116821015610aad57506109ff90611d7f565b600a54905f908260058111610a54575b50610a1a935061236c565b5f81610a3857505060205f5b6040516001600160d01b039091168152f35b6020610a448193611db1565b91600a815220015460301c610a26565b9092610a5f82611eb7565b8203918211610aa857600a83525f805160206123d3833981519152820154610a1a959081169085161015610a965750915b5f610a0f565b929150610aa2906115cf565b90610a90565b61124d565b604051637669fc0f60e11b8152600481019290925265ffffffffffff166024820152604490fd5b346102ea575f3660031901126102ea576020610aef43611d7f565b65ffffffffffff60405191168152f35b346102ea575f806003193601126102e75760405181600454610b2081611261565b808452906001908181169081156102bf5750600114610b49576102628461025681880382610f9a565b60048352602094507f8a35acfbc15ff81a39ae7d344fd709f28e8600b4aa8c65c6b64bfe7fe36bd19b5b828410610b8f5750505081610262936102569282010193610246565b8054858501870152928501928101610b73565b346102ea5760203660031901126102ea576001600160a01b03610bc36102ee565b165f526009602052602060018060d01b03610be060405f2061203e565b16604051908152f35b346102ea5760403660031901126102ea57610340610c056102ee565b6024359033611299565b60ff8116036102ea57565b346102ea5760c03660031901126102ea57610c336102ee565b60443590602435606435610c4681610c0f565b834211610cce57610cc26107b294610cc9926040519060208201927fe48329057bfd03d55e49b547132e39cffd9c1820ad7b9d4c5307691425d15adf845260018060a01b0388166040840152866060840152608083015260808252610caa82610f62565b610cbd60a4359360843593519020611b78565b611917565b91826118c1565b610fe7565b604051632341d78760e11b815260048101859052602490fd5b346102ea5760e03660031901126102ea57610d006102ee565b610d08610304565b60443590606435608435610d1b81610c0f565b814211610e0d576001600160a01b038581165f8181526007602090815260409182902080546001810190915582517f6e71edae12b1b97f4d1f60370fef10105fa2faae0126114a169c64845d6126c99281019283529283019390935292861660608201526080810187905260a081019190915260c0810193909352610dc6929091610db38260e081015b03601f198101845283610f9a565b610cbd60c4359360a43593519020611b78565b6001600160a01b0384811690821603610de357506107b292611391565b6040516325c0072360e11b81526001600160a01b0391821660048201529084166024820152604490fd5b60405163313c898160e11b815260048101839052602490fd5b346102ea5760403660031901126102ea576020610e74610e446102ee565b610e4c610304565b6001600160a01b039182165f9081526001855260408082209290931681526020919091522090565b54604051908152f35b346102ea5760403660031901126102ea57610e966102ee565b60243563ffffffff811681036102ea57610ee5610eeb91604093610eb86115dd565b50610ec16115dd565b506001600160a01b03165f9081526009602052849020610edf6115dd565b50612069565b50612092565b8151815165ffffffffffff1681526020918201516001600160d01b031691810191909152f35b634e487b7160e01b5f52604160045260245ffd5b6040810190811067ffffffffffffffff821117610f4157604052565b610f11565b6020810190811067ffffffffffffffff821117610f4157604052565b60a0810190811067ffffffffffffffff821117610f4157604052565b60c0810190811067ffffffffffffffff821117610f4157604052565b90601f8019910116810190811067ffffffffffffffff821117610f4157604052565b60405190610fc982610f25565b565b67ffffffffffffffff8111610f4157601f01601f191660200190565b6001600160a01b038181165f81815260086020526040812080548685166001600160a01b031982168117909255610fc9969416946110629390928691907f3134e8a2e6d97e929a7e54011ea5485d7d196dd5f0ba4d4ef95803e8e3fc257f9080a46001600160a01b03165f9081526020819052604090205490565b915b6001600160a01b038083169392919081169081851415806111ab575b61108c575b5050505050565b81611110575b5050826110a1575b8080611085565b6001600160a01b03165f9081526009602052604090207fdec2bacdd2f05b59de34da9b523dff8be42e5e38e818c82fdb0bae774387a724916110ed916110e79091611d4c565b906111b4565b604080516001600160d01b039384168152919092166020820152a25f808061109a565b6001600160a01b03165f90815260096020526040902061112f84611d4c565b61113843611d7f565b6001600160d01b0391828061114c8661203e565b169116900392828411610aa8577fdec2bacdd2f05b59de34da9b523dff8be42e5e38e818c82fdb0bae774387a724936111a1926111889261228e565b6040805192851683529316602082015291829190820190565b0390a25f80611092565b50831515611080565b906111be43611d7f565b6001600160d01b039182806111d28661203e565b16911601918211610aa8576111e69261228e565b9091565b6111f343611d7f565b906001600160d01b03908180611207612007565b16911601908111610aa8576111e691612169565b61122443611d7f565b906001600160d01b03908180611238612007565b169116900390811161124d576111e691612169565b634e487b7160e01b5f52601160045260245ffd5b90600182811c9216801561128f575b602083101461127b57565b634e487b7160e01b5f52602260045260245ffd5b91607f1691611270565b6001600160a01b03808216949392919085156113795782168015611361576001600160a01b0382165f90815260208190526040902054958487106113325784610fc99697036112f78460018060a01b03165f525f60205260405f2090565b556001600160a01b0384165f908152602081815260409182902080548801905590518681525f805160206123f38339815191529190a3611568565b60405163391434e360e21b81526001600160a01b03841660048201526024810188905260448101869052606490fd5b60405163ec442f0560e01b81525f6004820152602490fd5b604051634b637e8f60e11b81525f6004820152602490fd5b6001600160a01b03808216929190831561142757821693841561140f57806114057f8c5be1e5ebec7d5bd14f71427d1e84f3dd0314c0f7b2291e5b200ac8c7c3b925946113f060209560018060a01b03165f52600160205260405f2090565b9060018060a01b03165f5260205260405f2090565b55604051908152a3565b604051634a1406b160e11b81525f6004820152602490fd5b60405163e602df0560e01b81525f6004820152602490fd5b906001600160a01b03808316156114275781161561140f576113f06114749260018060a01b03165f52600160205260405f2090565b55565b610fc991906001600160a01b0390811680156114dd575b61149f61149a84611d4c565b61121b565b50505f908152600860205260408120549080527f5eff886ea0ce6ca488a3d6e336d6c0f75f46d19b42c06ce5ee98e42c96d256c75482169116611064565b6114ee6114e984611d4c565b6111ea565b505061148e565b90610fc9916115066114e983611d4c565b50506001600160a01b03908116908115611555575b60086020527f5eff886ea0ce6ca488a3d6e336d6c0f75f46d19b42c06ce5ee98e42c96d256c7545f92835260409092205481169116611064565b61156161149a84611d4c565b505061151b565b610fc992916001600160a01b039182169190819083156115bc575b169182156115a9575b5f5260086020528060405f205416915f5260405f20541690611064565b6115b561149a85611d4c565b505061158c565b6115c86114e986611d4c565b5050611583565b9060018201809211610aa857565b604051906115ea82610f25565b5f6020838281520152565b60405163313ce56760e01b81526020816004817f00000000000000000000000000000000000000000000000000000000000000006001600160a01b03165afa5f9181611647575b506102085750601290565b90916020823d821161167b575b8161166160209383610f9a565b810103126102e757505161167481610c0f565b905f61163c565b3d9150611654565b91906001600160a01b038316801561136157600254828101809111610aa8576002556001600160a01b0384165f90815260208181526040808320805486019055518481525f805160206123f38339815191529190a3600254926001600160d01b0384116116f557610fc99293506114f5565b604051630e58ae9360e11b8152600481018590526001600160d01b036024820152604490fd5b60405163a9059cbb60e01b60208201526001600160a01b0390921660248301526044820192909252610fc9916117548260648101610da5565b6117b3565b6040516323b872dd60e01b60208201526001600160a01b039283166024820152929091166044830152606480830193909352918152610fc99161175482610f62565b908160209103126102ea575180151581036102ea5790565b5f806117fb9260018060a01b03169360208151910182865af13d15611856573d906117dd82610fcb565b916117eb6040519384610f9a565b82523d5f602084013e5b8361185e565b8051908115159182611834575b50506118115750565b604051635274afe760e01b81526001600160a01b03919091166004820152602490fd5b61184f92509060208061184b93830101910161179b565b1590565b5f80611808565b6060906117f5565b90611885575080511561187357805190602001fd5b604051630a12f52160e11b8152600490fd5b815115806118b8575b611896575090565b604051639996b31560e01b81526001600160a01b039091166004820152602490fd5b50803b1561188e565b6001600160a01b0381165f9081526007602052604090208054600181019091558092036118ec575050565b6040516301d4b62360e61b81526001600160a01b039190911660048201526024810191909152604490fd5b9161020893916119269361192f565b909291926119d1565b91906fa2a8918ca85bafe22016d0b997e4df60600160ff1b0384116119a857926020929160ff6080956040519485521684840152604083015260608201525f92839182805260015afa1561199c5780516001600160a01b0381161561199357918190565b50809160019190565b604051903d90823e3d90fd5b5050505f9160039190565b600411156119bd57565b634e487b7160e01b5f52602160045260245ffd5b6119da816119b3565b806119e3575050565b6119ec816119b3565b60018103611a065760405163f645eedf60e01b8152600490fd5b611a0f816119b3565b60028103611a305760405163fce698f760e01b815260048101839052602490fd5b80611a3c6003926119b3565b14611a445750565b6040516335e2f38360e21b81526004810191909152602490fd5b307f00000000000000000000000000000000000000000000000000000000000000006001600160a01b03161480611b4f575b15611ab9577f000000000000000000000000000000000000000000000000000000000000000090565b60405160208101907f8b73c3c69bb8fe3d512ecc4cf759cc79239f7b179b0ffacaa9a75d522b39400f82527f000000000000000000000000000000000000000000000000000000000000000060408201527f000000000000000000000000000000000000000000000000000000000000000060608201524660808201523060a082015260a08152611b4981610f7e565b51902090565b507f00000000000000000000000000000000000000000000000000000000000000004614611a90565b604290611b83611a5e565b906040519161190160f01b8352600283015260228201522090565b60ff8114611bdc5760ff811690601f8211611bca5760405191611bc083610f25565b8252602082015290565b604051632cd44ac360e21b8152600490fd5b50604051600554815f611bee83611261565b808352600193808516908115611c735750600114611c14575b5061020892500382610f9a565b60055f9081527f036b6384b5eca791c62761152d0c79bb0604c104a5fb6f4eb0703f3154bb3db094602093509091905b818310611c5b57505061020893508201015f611c07565b85548784018501529485019486945091830191611c44565b905061020894506020925060ff191682840152151560051b8201015f611c07565b60ff8114611cb65760ff811690601f8211611bca5760405191611bc083610f25565b50604051600654815f611cc883611261565b808352600193808516908115611c735750600114611ced575061020892500382610f9a565b60065f9081527ff652222313e28459528d920b65115c16c04f3efc82aaedc97be59f3f377c0d3f94602093509091905b818310611d3457505061020893508201015f611c07565b85548784018501529485019486945091830191611d1d565b6001600160d01b0390818111611d60571690565b604490604051906306dfcc6560e41b825260d060048301526024820152fd5b65ffffffffffff90818111611d92571690565b604490604051906306dfcc6560e41b8252603060048301526024820152fd5b5f19810191908211610aa857565b9081545f8160058111611e4f575b509190915b828110611e025750505f81155f14611deb575050505f90565b611df6602092611db1565b92815220015460301c90565b90918082169080831860011c8201809211610aa857845f5265ffffffffffff808360205f20015416908516105f14611e3d5750915b90611dd2565b929150611e49906115cf565b90611e37565b9091611e5a82611eb7565b8203918211610aa85784835265ffffffffffff808360208620015416908516105f14611e895750905b5f611dcd565b9150611e94906115cf565b611e83565b8115611ea3570490565b634e487b7160e01b5f52601260045260245ffd5b8015611ff05780611f89611f82611f78611f6e611f64611f5a611f50611f4660016102089a5f908b60801c80611fe4575b508060401c80611fd7575b508060201c80611fca575b508060101c80611fbd575b508060081c80611fb0575b508060041c80611fa3575b508060021c80611f96575b50821c611f8f575b811c1b611f3f818b611e99565b0160011c90565b611f3f818a611e99565b611f3f8189611e99565b611f3f8188611e99565b611f3f8187611e99565b611f3f8186611e99565b611f3f8185611e99565b8092611e99565b90611ff5565b8101611f32565b600291509101905f611f2a565b600491509101905f611f1f565b600891509101905f611f14565b601091509101905f611f09565b602091509101905f611efe565b604091509101905f611ef3565b9150506080905f611ee8565b505f90565b9080821015612002575090565b905090565b600a545f90806120175750505f90565b5f19918183810111610aa857600a9052015f805160206123d3833981519152015460301c90565b80545f918161204e575050505f90565b5f19928284810111610aa85760209181522001015460301c90565b805482101561207e575f5260205f2001905f90565b634e487b7160e01b5f52603260045260245ffd5b9060405161209f81610f25565b915465ffffffffffff8116835260301c6020830152565b600a5490600160401b821015610f41576001820180600a5582101561207e57600a5f5280516020919091015160301b65ffffffffffff191665ffffffffffff91909116175f805160206123d383398151915290910155565b8054600160401b811015610f415761212b91600182018155612069565b61215657815160209092015160301b65ffffffffffff191665ffffffffffff92909216919091179055565b634e487b7160e01b5f525f60045260245ffd5b600a54919291908115612265576121a061219b61218584611db1565b600a5f525f805160206123d38339815191520190565b612092565b805165ffffffffffff83811694911684106122535785602093612217956121db6121d0865165ffffffffffff1690565b65ffffffffffff1690565b0361221b57506121f061218561220993611db1565b9065ffffffffffff82549181199060301b169116179055565b01516001600160d01b031690565b9190565b905061224e915061223b61222d610fbc565b65ffffffffffff9092168252565b6001600160d01b038716818501526120b6565b612209565b604051632520601d60e01b8152600490fd5b612289915061227561222d610fbc565b6001600160d01b03841660208201526120b6565b5f9190565b805492939291908215612348576122b561219b6122aa85611db1565b835f5260205f200190565b906122c6825165ffffffffffff1690565b65ffffffffffff84811691168110612253576122179460209488926122f46121d0875165ffffffffffff1690565b0361231557506122099261230a6121f092611db1565b905f5260205f200190565b91505061224e91612335612327610fbc565b65ffffffffffff9093168352565b6001600160d01b0388168286015261210e565b6122899250612358612327610fbc565b6001600160d01b038516602083015261210e565b905b82811061237a57505090565b90918082169080831860011c8201809211610aa857600a5f525f805160206123d383398151915282015465ffffffffffff90811690851610156123c05750915b9061236e565b9291506123cc906115cf565b906123ba56fec65a7bb8d6351c1cf70c95a316cc6a92839c986682d98bc35f958f4883f9d2a8ddf252ad1be2c89b69c2b068fc378daa952ba7f163c4a11628f55a4df523b3efa2646970667358221220e807e843c46e00bd5cbdd31c1e7dc729d33550ac146c1cef6533bd7d87a7507364736f6c63430008140033","linkReferences":{}},"methodIdentifiers":{"CLOCK_MODE()":"4bf5d7e9","DOMAIN_SEPARATOR()":"3644e515","allowance(address,address)":"dd62ed3e","approve(address,uint256)":"095ea7b3","balanceOf(address)":"70a08231","checkpoints(address,uint32)":"f1127ed8","clock()":"91ddadf4","decimals()":"313ce567","delegate(address)":"5c19a95c","delegateBySig(address,uint256,uint256,uint8,bytes32,bytes32)":"c3cda520","delegates(address)":"587cde1e","depositFor(address,uint256)":"2f4f21e2","eip712Domain()":"84b0196e","getPastTotalSupply(uint256)":"8e539e8c","getPastVotes(address,uint256)":"3a46b1a8","getVotes(address)":"9ab24eb0","name()":"06fdde03","nonces(address)":"7ecebe00","numCheckpoints(address)":"6fcfff45","permit(address,address,uint256,uint256,uint8,bytes32,bytes32)":"d505accf","symbol()":"95d89b41","totalSupply()":"18160ddd","transfer(address,uint256)":"a9059cbb","transferFrom(address,address,uint256)":"23b872dd","underlying()":"6f307dc3","withdrawTo(address,uint256)":"205c2878"},"id":282}