{"abi":[{"type":"constructor","inputs":[{"name":"array","type":"uint256[]","internalType":"uint256[]"}],"stateMutability":"nonpayable"},{"type":"function","name":"findUpperBound","inputs":[{"name":"element","type":"uint256","internalType":"uint256"}],"outputs":[{"name":"","type":"uint256","internalType":"uint256"}],"stateMutability":"view"},{"type":"function","name":"unsafeAccess","inputs":[{"name":"pos","type":"uint256","internalType":"uint256"}],"outputs":[{"name":"","type":"uint256","internalType":"uint256"}],"stateMutability":"view"}],"bytecode":{"object":"0x60806040523461012a576102d2803803806100198161012e565b9283398101906020808284031261012a5781516001600160401b039283821161012a57019280601f8501121561012a57835190838211610106578160051b948361006481880161012e565b80948152019084829782010192831161012a5784809101915b83831061011a57505050505191821161010657680100000000000000008211610106575f9283548385558084106100e1575b5090838052808420935b8381106100cf5760405161017e90816101548239f35b825185820155918101916001016100b9565b8480528383862091820191015b8181106100fb57506100af565b8581556001016100ee565b634e487b7160e01b5f52604160045260245ffd5b825181529181019185910161007d565b5f80fd5b6040519190601f01601f191682016001600160401b038111838210176101065760405256fe60806040526004361015610011575f80fd5b5f803560e01c806333e3a58a1461005a576340aa934d14610030575f80fd5b34610057576020366003190112610057578080602092528160043591200154604051908152f35b80fd5b5034610057576020366003190112610057576020610079600435610081565b604051908152f35b5f9081548015610143575b8083106100e8575081151590816100c9575b50156100c6575f1981019081116100b25790565b634e487b7160e01b5f52601160045260245ffd5b90565b90505f1982818101116100b2575f80528260205f20010154145f61009e565b808316906001818518811c83018093116100b2575f80527f290decd9548b62a8d60345a988386fc84ba6bc95484008f6362f93160ef3e56383015484101561013157505061008c565b90935081018091116100b2579161008c565b50509056fea264697066735822122063b7a1e10d438eb20f2c027a83be16aa533893243b9f40084c64bb4e9526c17864736f6c63430008140033","linkReferences":{}},"methodIdentifiers":{"findUpperBound(uint256)":"33e3a58a","unsafeAccess(uint256)":"40aa934d"},"id":239}