{"abi":[{"type":"function","name":"CLOCK_MODE","inputs":[],"outputs":[{"name":"","type":"string","internalType":"string"}],"stateMutability":"view"},{"type":"function","name":"DOMAIN_SEPARATOR","inputs":[],"outputs":[{"name":"","type":"bytes32","internalType":"bytes32"}],"stateMutability":"view"},{"type":"function","name":"allowance","inputs":[{"name":"owner","type":"address","internalType":"address"},{"name":"spender","type":"address","internalType":"address"}],"outputs":[{"name":"","type":"uint256","internalType":"uint256"}],"stateMutability":"view"},{"type":"function","name":"approve","inputs":[{"name":"spender","type":"address","internalType":"address"},{"name":"value","type":"uint256","internalType":"uint256"}],"outputs":[{"name":"","type":"bool","internalType":"bool"}],"stateMutability":"nonpayable"},{"type":"function","name":"balanceOf","inputs":[{"name":"account","type":"address","internalType":"address"}],"outputs":[{"name":"","type":"uint256","internalType":"uint256"}],"stateMutability":"view"},{"type":"function","name":"checkpoints","inputs":[{"name":"account","type":"address","internalType":"address"},{"name":"pos","type":"uint32","internalType":"uint32"}],"outputs":[{"name":"","type":"tuple","internalType":"struct Checkpoints.Checkpoint208","components":[{"name":"_key","type":"uint48","internalType":"uint48"},{"name":"_value","type":"uint208","internalType":"uint208"}]}],"stateMutability":"view"},{"type":"function","name":"clock","inputs":[],"outputs":[{"name":"","type":"uint48","internalType":"uint48"}],"stateMutability":"view"},{"type":"function","name":"decimals","inputs":[],"outputs":[{"name":"","type":"uint8","internalType":"uint8"}],"stateMutability":"view"},{"type":"function","name":"delegate","inputs":[{"name":"delegatee","type":"address","internalType":"address"}],"outputs":[],"stateMutability":"nonpayable"},{"type":"function","name":"delegateBySig","inputs":[{"name":"delegatee","type":"address","internalType":"address"},{"name":"nonce","type":"uint256","internalType":"uint256"},{"name":"expiry","type":"uint256","internalType":"uint256"},{"name":"v","type":"uint8","internalType":"uint8"},{"name":"r","type":"bytes32","internalType":"bytes32"},{"name":"s","type":"bytes32","internalType":"bytes32"}],"outputs":[],"stateMutability":"nonpayable"},{"type":"function","name":"delegates","inputs":[{"name":"account","type":"address","internalType":"address"}],"outputs":[{"name":"","type":"address","internalType":"address"}],"stateMutability":"view"},{"type":"function","name":"eip712Domain","inputs":[],"outputs":[{"name":"fields","type":"bytes1","internalType":"bytes1"},{"name":"name","type":"string","internalType":"string"},{"name":"version","type":"string","internalType":"string"},{"name":"chainId","type":"uint256","internalType":"uint256"},{"name":"verifyingContract","type":"address","internalType":"address"},{"name":"salt","type":"bytes32","internalType":"bytes32"},{"name":"extensions","type":"uint256[]","internalType":"uint256[]"}],"stateMutability":"view"},{"type":"function","name":"getPastTotalSupply","inputs":[{"name":"timepoint","type":"uint256","internalType":"uint256"}],"outputs":[{"name":"","type":"uint256","internalType":"uint256"}],"stateMutability":"view"},{"type":"function","name":"getPastVotes","inputs":[{"name":"account","type":"address","internalType":"address"},{"name":"timepoint","type":"uint256","internalType":"uint256"}],"outputs":[{"name":"","type":"uint256","internalType":"uint256"}],"stateMutability":"view"},{"type":"function","name":"getVotes","inputs":[{"name":"account","type":"address","internalType":"address"}],"outputs":[{"name":"","type":"uint256","internalType":"uint256"}],"stateMutability":"view"},{"type":"function","name":"name","inputs":[],"outputs":[{"name":"","type":"string","internalType":"string"}],"stateMutability":"view"},{"type":"function","name":"nonces","inputs":[{"name":"owner","type":"address","internalType":"address"}],"outputs":[{"name":"","type":"uint256","internalType":"uint256"}],"stateMutability":"view"},{"type":"function","name":"numCheckpoints","inputs":[{"name":"account","type":"address","internalType":"address"}],"outputs":[{"name":"","type":"uint32","internalType":"uint32"}],"stateMutability":"view"},{"type":"function","name":"permit","inputs":[{"name":"owner","type":"address","internalType":"address"},{"name":"spender","type":"address","internalType":"address"},{"name":"value","type":"uint256","internalType":"uint256"},{"name":"deadline","type":"uint256","internalType":"uint256"},{"name":"v","type":"uint8","internalType":"uint8"},{"name":"r","type":"bytes32","internalType":"bytes32"},{"name":"s","type":"bytes32","internalType":"bytes32"}],"outputs":[],"stateMutability":"nonpayable"},{"type":"function","name":"symbol","inputs":[],"outputs":[{"name":"","type":"string","internalType":"string"}],"stateMutability":"view"},{"type":"function","name":"totalSupply","inputs":[],"outputs":[{"name":"","type":"uint256","internalType":"uint256"}],"stateMutability":"view"},{"type":"function","name":"transfer","inputs":[{"name":"to","type":"address","internalType":"address"},{"name":"value","type":"uint256","internalType":"uint256"}],"outputs":[{"name":"","type":"bool","internalType":"bool"}],"stateMutability":"nonpayable"},{"type":"function","name":"transferFrom","inputs":[{"name":"from","type":"address","internalType":"address"},{"name":"to","type":"address","internalType":"address"},{"name":"value","type":"uint256","internalType":"uint256"}],"outputs":[{"name":"","type":"bool","internalType":"bool"}],"stateMutability":"nonpayable"},{"type":"event","name":"Approval","inputs":[{"name":"owner","type":"address","indexed":true,"internalType":"address"},{"name":"spender","type":"address","indexed":true,"internalType":"address"},{"name":"value","type":"uint256","indexed":false,"internalType":"uint256"}],"anonymous":false},{"type":"event","name":"DelegateChanged","inputs":[{"name":"delegator","type":"address","indexed":true,"internalType":"address"},{"name":"fromDelegate","type":"address","indexed":true,"internalType":"address"},{"name":"toDelegate","type":"address","indexed":true,"internalType":"address"}],"anonymous":false},{"type":"event","name":"DelegateVotesChanged","inputs":[{"name":"delegate","type":"address","indexed":true,"internalType":"address"},{"name":"previousVotes","type":"uint256","indexed":false,"internalType":"uint256"},{"name":"newVotes","type":"uint256","indexed":false,"internalType":"uint256"}],"anonymous":false},{"type":"event","name":"EIP712DomainChanged","inputs":[],"anonymous":false},{"type":"event","name":"Initialized","inputs":[{"name":"version","type":"uint64","indexed":false,"internalType":"uint64"}],"anonymous":false},{"type":"event","name":"Transfer","inputs":[{"name":"from","type":"address","indexed":true,"internalType":"address"},{"name":"to","type":"address","indexed":true,"internalType":"address"},{"name":"value","type":"uint256","indexed":false,"internalType":"uint256"}],"anonymous":false},{"type":"error","name":"CheckpointUnorderedInsertion","inputs":[]},{"type":"error","name":"ECDSAInvalidSignature","inputs":[]},{"type":"error","name":"ECDSAInvalidSignatureLength","inputs":[{"name":"length","type":"uint256","internalType":"uint256"}]},{"type":"error","name":"ECDSAInvalidSignatureS","inputs":[{"name":"s","type":"bytes32","internalType":"bytes32"}]},{"type":"error","name":"ERC20ExceededSafeSupply","inputs":[{"name":"increasedSupply","type":"uint256","internalType":"uint256"},{"name":"cap","type":"uint256","internalType":"uint256"}]},{"type":"error","name":"ERC20InsufficientAllowance","inputs":[{"name":"spender","type":"address","internalType":"address"},{"name":"allowance","type":"uint256","internalType":"uint256"},{"name":"needed","type":"uint256","internalType":"uint256"}]},{"type":"error","name":"ERC20InsufficientBalance","inputs":[{"name":"sender","type":"address","internalType":"address"},{"name":"balance","type":"uint256","internalType":"uint256"},{"name":"needed","type":"uint256","internalType":"uint256"}]},{"type":"error","name":"ERC20InvalidApprover","inputs":[{"name":"approver","type":"address","internalType":"address"}]},{"type":"error","name":"ERC20InvalidReceiver","inputs":[{"name":"receiver","type":"address","internalType":"address"}]},{"type":"error","name":"ERC20InvalidSender","inputs":[{"name":"sender","type":"address","internalType":"address"}]},{"type":"error","name":"ERC20InvalidSpender","inputs":[{"name":"spender","type":"address","internalType":"address"}]},{"type":"error","name":"ERC2612ExpiredSignature","inputs":[{"name":"deadline","type":"uint256","internalType":"uint256"}]},{"type":"error","name":"ERC2612InvalidSigner","inputs":[{"name":"signer","type":"address","internalType":"address"},{"name":"owner","type":"address","internalType":"address"}]},{"type":"error","name":"ERC5805FutureLookup","inputs":[{"name":"timepoint","type":"uint256","internalType":"uint256"},{"name":"clock","type":"uint48","internalType":"uint48"}]},{"type":"error","name":"ERC6372InconsistentClock","inputs":[]},{"type":"error","name":"InvalidAccountNonce","inputs":[{"name":"account","type":"address","internalType":"address"},{"name":"currentNonce","type":"uint256","internalType":"uint256"}]},{"type":"error","name":"InvalidInitialization","inputs":[]},{"type":"error","name":"NotInitializing","inputs":[]},{"type":"error","name":"SafeCastOverflowedUintDowncast","inputs":[{"name":"bits","type":"uint8","internalType":"uint8"},{"name":"value","type":"uint256","internalType":"uint256"}]},{"type":"error","name":"VotesExpiredSignature","inputs":[{"name":"expiry","type":"uint256","internalType":"uint256"}]}],"bytecode":{"object":"0x608080604052346100165761203f908161001b8239f35b5f80fdfe60806040526004361015610011575f80fd5b5f3560e01c806306fdde0314610184578063095ea7b31461017f57806318160ddd1461017a57806323b872dd14610175578063313ce567146101705780633644e5151461016b5780633a46b1a8146101665780634bf5d7e914610161578063587cde1e1461015c5780635c19a95c146101575780636fcfff451461015257806370a082311461014d5780637ecebe001461014857806384b0196e146101435780638e539e8c1461013e57806391ddadf41461013957806395d89b41146101345780639ab24eb01461012f578063a9059cbb1461012a578063c3cda52014610125578063d505accf14610120578063dd62ed3e1461011b5763f1127ed814610116575f80fd5b610e22565b610dea565b610cb7565b610bee565b610ba8565b610b71565b610a72565b610a47565b610937565b610867565b61078c565b610769565b61070f565b6106eb565b6106a6565b610615565b6104f0565b6104ce565b6104b3565b6103c0565b610384565b610353565b6101db565b91908251928382525f5b8481106101b3575050825f602080949584010152601f8019910116010190565b602081830181015184830182015201610193565b9060206101d8928181520190610189565b90565b34610323575f806003193601126103205760405190807f52c63247e1f47db19d5ce0460030c497f067ca4cebf71ba98eeadabe20bace03549060019180831c92808216928315610316575b60209283861085146103025785885260208801949081156102e1575060011461026a575b6102668761025a81890382610efa565b604051918291826101c7565b0390f35b7f52c63247e1f47db19d5ce0460030c497f067ca4cebf71ba98eeadabe20bace035f5294509192917f2ae08a8e29253f69ac5d979a101956ab8f8d9d7ded63fa7a83b16fc47648eab05b8386106102d0575050509101905061025a826102665f8061024a565b8054858701529482019481016102b4565b60ff191685525050505090151560051b01905061025a826102665f8061024a565b634e487b7160e01b82526022600452602482fd5b93607f1693610226565b80fd5b5f80fd5b600435906001600160a01b038216820361032357565b602435906001600160a01b038216820361032357565b346103235760403660031901126103235761037961036f610327565b60243590336114fa565b602060405160018152f35b34610323575f3660031901126103235760207f52c63247e1f47db19d5ce0460030c497f067ca4cebf71ba98eeadabe20bace0254604051908152f35b34610323576060366003190112610323576103d9610327565b6103e161033d565b60443590610407336103f285610f2b565b9060018060a01b03165f5260205260405f2090565b549260018401610428575b61041c935061141a565b60405160018152602090f35b82841061048d576001600160a01b0381161561047557331561045d578261041c9403610457336103f284610f2b565b55610412565b604051634a1406b160e11b81525f6004820152602490fd5b60405163e602df0560e01b81525f6004820152602490fd5b604051637dc7a0d960e11b81523360048201526024810185905260448101849052606490fd5b34610323575f36600319011261032357602060405160128152f35b34610323575f3660031901126103235760206104e86116cf565b604051908152f35b3461032357604036600319011261032357610509610327565b60243590610516436119bb565b9065ffffffffffff918281168410156105ec575061053661053c91610f63565b926119bb565b8254905f90826005811161059e575b50610557935084611f69565b5f919080610581575050506102665f5b6040516001600160d01b0390911681529081906020820190565b610266926105906020926119ed565b92815220015460301c610567565b90926105a982611a19565b82039182116105e75761055794868452808360208620015416908516105f146105d55750915b5f61054b565b9291506105e19061162b565b906105cf565b6111b1565b604051637669fc0f60e11b81526004810185905265ffffffffffff919091166024820152604490fd5b34610323575f3660031901126103235761062e436119bb565b65ffffffffffff8061063f436119bb565b169116036106945761026660405161065681610ebd565b601d81527f6d6f64653d626c6f636b6e756d6265722666726f6d3d64656661756c740000006020820152604051918291602083526020830190610189565b6040516301bfc1c560e61b8152600490fd5b346103235760203660031901126103235760206001600160a01b03806106ca610327565b165f525f80516020611fca833981519152825260405f205416604051908152f35b346103235760203660031901126103235761070d610707610327565b33610fd3565b005b346103235760203660031901126103235761073061072b610327565b610f63565b5463ffffffff9081811161074a5760209160405191168152f35b604490604051906306dfcc6560e41b8252602060048301526024820152fd5b346103235760203660031901126103235760206104e8610787610327565b6113e1565b34610323576020366003190112610323576001600160a01b036107ad610327565b165f527f5ab42ced628888259c08ac98db1eb0cf702fc1501344311d8b100cd1bfe4bb00602052602060405f2054604051908152f35b9161081690949194600f60f81b845261080860209660e08887015260e0860190610189565b908482036040860152610189565b92606083015260018060a01b031660808201525f60a082015260c08183039101528180845192838152019301915f5b828110610853575050505090565b835185529381019392810192600101610845565b34610323575f366003190112610323577fa16a46d94261c7517cc8ff89f61c0ce93598e3c849801011dee649a6a557d10054158061090e575b156108d1576108ad6111c5565b6108b56112ed565b906102666108c161176b565b60405193849330914691866107e3565b60405162461bcd60e51b81526020600482015260156024820152741152540dcc4c8e88155b9a5b9a5d1a585b1a5e9959605a1b6044820152606490fd5b507fa16a46d94261c7517cc8ff89f61c0ce93598e3c849801011dee649a6a557d10154156108a0565b3461032357602036600319011261032357600435610954436119bb565b9065ffffffffffff91828116821015610a205750610971906119bb565b905f80516020611fea833981519152918254905f9082600581116109d7575b5061099b9350611ee4565b5f9190806109bc5750505060205f5b6040516001600160d01b039091168152f35b6020926109c984926119ed565b92815220015460301c6109aa565b90926109e282611a19565b82039182116105e75761099b94868452808360208620015416908516105f14610a0e5750915b5f610990565b929150610a1a9061162b565b90610a08565b604051637669fc0f60e11b8152600481019290925265ffffffffffff166024820152604490fd5b34610323575f366003190112610323576020610a62436119bb565b65ffffffffffff60405191168152f35b34610323575f806003193601126103205760405190807f52c63247e1f47db19d5ce0460030c497f067ca4cebf71ba98eeadabe20bace04549060019180831c92808216928315610b67575b60209283861085146103025785885260208801949081156102e15750600114610af0576102668761025a81890382610efa565b7f52c63247e1f47db19d5ce0460030c497f067ca4cebf71ba98eeadabe20bace045f5294509192917f46a2803e59a4de4e7a4c574b1243f25977ac4c77d5a1a4a609b5394cebb4a2aa5b838610610b56575050509101905061025a826102665f8061024a565b805485870152948201948101610b3a565b93607f1693610abd565b346103235760203660031901126103235760206001600160d01b03610b9f610b9a61072b610327565b611ba2565b16604051908152f35b3461032357604036600319011261032357610379610bc4610327565b602435903361141a565b6064359060ff8216820361032357565b6084359060ff8216820361032357565b346103235760c036600319011261032357610c07610327565b60443590602435610c16610bce565b834211610c9e57610c9261070d94610c99926040519060208201927fe48329057bfd03d55e49b547132e39cffd9c1820ad7b9d4c5307691425d15adf845260018060a01b0388166040840152866060840152608083015260808252610c7a82610ede565b610c8d60a4359360843593519020611745565b611841565b9182611692565b610fd3565b604051632341d78760e11b815260048101859052602490fd5b346103235760e036600319011261032357610cd0610327565b610cd861033d565b60443590606435610ce7610bde565b814211610dd15790610d69610d8a92610d77610d0288611651565b604080517f6e71edae12b1b97f4d1f60370fef10105fa2faae0126114a169c64845d6126c9602082019081526001600160a01b03808d16938301939093529189166060820152608081018a905260a081019290925260c082019590955292839060e0820190565b03601f198101845283610efa565b610c8d60c4359360a43593519020611745565b6001600160a01b0384811690821603610da7575061070d926114fa565b6040516325c0072360e11b81526001600160a01b0391821660048201529084166024820152604490fd5b60405163313c898160e11b815260048101839052602490fd5b34610323576040366003190112610323576020610e19610e08610327565b6103f2610e1361033d565b91610f2b565b54604051908152f35b3461032357604036600319011261032357610e3b610327565b60243563ffffffff8116810361032357610e7d610e8391610e6f604094610e60611639565b50610e69611639565b50610f63565b610e77611639565b50611bb2565b50611bdb565b8151815165ffffffffffff1681526020918201516001600160d01b031691810191909152f35b634e487b7160e01b5f52604160045260245ffd5b6040810190811067ffffffffffffffff821117610ed957604052565b610ea9565b60a0810190811067ffffffffffffffff821117610ed957604052565b90601f8019910116810190811067ffffffffffffffff821117610ed957604052565b60405190610f2982610ebd565b565b6001600160a01b03165f9081527f52c63247e1f47db19d5ce0460030c497f067ca4cebf71ba98eeadabe20bace016020526040902090565b6001600160a01b03165f9081527fe8b26c30fad74198956032a3533d903385d56dd795af560196f9c78d4af40d016020526040902090565b6001600160a01b03165f9081527f52c63247e1f47db19d5ce0460030c497f067ca4cebf71ba98eeadabe20bace006020526040902090565b6001600160a01b038181165f8181525f80516020611fca8339815191526020526040812080548685166001600160a01b031982168117909255610f29969416946110459390928691907f3134e8a2e6d97e929a7e54011ea5485d7d196dd5f0ba4d4ef95803e8e3fc257f9080a46113e1565b915b6001600160a01b03808316939291908116908185141580611172575b61106f575b5050505050565b816110e4575b505082611084575b8080611068565b7fdec2bacdd2f05b59de34da9b523dff8be42e5e38e818c82fdb0bae774387a724916110bb6110b56110c193610f63565b91611988565b9061117b565b604080516001600160d01b039384168152919092166020820152a25f808061107d565b6110ed90610f63565b6110f684611988565b6110ff436119bb565b6001600160d01b0391828061111386611ba2565b1691169003928284116105e7577fdec2bacdd2f05b59de34da9b523dff8be42e5e38e818c82fdb0bae774387a724936111689261114f92611e06565b6040805192851683529316602082015291829190820190565b0390a25f80611075565b50831515611063565b90611185436119bb565b6001600160d01b0391828061119986611ba2565b169116019182116111b1576111ad92611e06565b9091565b634e487b7160e01b5f52601160045260245ffd5b604051905f7fa16a46d94261c7517cc8ff89f61c0ce93598e3c849801011dee649a6a557d1025490600182811c928181169182156112e3575b60209182861084146112cf578588528794936020860193929181156112b05750600114611235575b505050610f2992500383610efa565b7fa16a46d94261c7517cc8ff89f61c0ce93598e3c849801011dee649a6a557d1025f5290949092507f42ad5d3e1f2e6e70edcf6d991b8a3023d3fca8047a131592f9edb9fd9b89d57d945f935b82851061129a57505050610f299350015f8080611226565b8654858501529586019588955093810193611282565b92505050610f299491925060ff19168252151560051b015f8080611226565b634e487b7160e01b85526022600452602485fd5b93607f16936111fe565b604051905f7fa16a46d94261c7517cc8ff89f61c0ce93598e3c849801011dee649a6a557d1035490600182811c928181169182156113d7575b60209182861084146112cf578588528794936020860193929181156112b0575060011461135c57505050610f2992500383610efa565b7fa16a46d94261c7517cc8ff89f61c0ce93598e3c849801011dee649a6a557d1035f5290949092507f5f9ce34815f8e11431c7bb75a8e6886a91478f7ffc1dbb0a98dc240fddd76b75945f935b8285106113c157505050610f299350015f8080611226565b86548585015295860195889550938101936113a9565b93607f1693611326565b6001600160a01b03165f9081527f52c63247e1f47db19d5ce0460030c497f067ca4cebf71ba98eeadabe20bace00602052604090205490565b6001600160a01b03808216949392919085156114e257821680156114ca5761144182610f9b565b549584871061149b5784610f2996970361145a84610f9b565b5561146484610f9b565b8054860190556040518581527fddf252ad1be2c89b69c2b068fc378daa952ba7f163c4a11628f55a4df523b3ef90602090a3611552565b60405163391434e360e21b81526001600160a01b03841660048201526024810188905260448101869052606490fd5b60405163ec442f0560e01b81525f6004820152602490fd5b604051634b637e8f60e11b81525f6004820152602490fd5b6001600160a01b03808216929190831561047557821693841561045d57806115487f8c5be1e5ebec7d5bd14f71427d1e84f3dd0314c0f7b2291e5b200ac8c7c3b925946103f2602095610f2b565b55604051908152a3565b6001600160a01b039081169291819084156115e6575b1690811561159e575b610f29935f525f80516020611fca8339815191526020528060405f205416915f5260405f20541690611047565b6115a783611988565b936115b1436119bb565b6001600160d01b039586806115c4611b69565b16911690039586116105e757610f29956115dd91611cb6565b50509350611571565b90506115f183611988565b906115fb436119bb565b6001600160d01b0392838061160e611b69565b169116019283116105e757839261162491611cb6565b5050611568565b90600182018092116105e757565b6040519061164682610ebd565b5f6020838281520152565b6001600160a01b03165f9081527f5ab42ced628888259c08ac98db1eb0cf702fc1501344311d8b100cd1bfe4bb006020526040902080546001810190915590565b9061169c82611651565b8091036116a7575050565b6040516301d4b62360e61b81526001600160a01b039092166004830152602482015260449150fd5b6116d7611792565b6116df6117fc565b6040519060208201927f8b73c3c69bb8fe3d512ecc4cf759cc79239f7b179b0ffacaa9a75d522b39400f8452604083015260608201524660808201523060a082015260a0815260c0810181811067ffffffffffffffff821117610ed95760405251902090565b6042906117506116cf565b906040519161190160f01b8352600283015260228201522090565b6040516020810181811067ffffffffffffffff821117610ed9576040525f8152905f368137565b61179a6111c5565b80519081156117aa576020012090565b50507fa16a46d94261c7517cc8ff89f61c0ce93598e3c849801011dee649a6a557d1005480156117d75790565b507fc5d2460186f7233c927e7db2dcc703c0e500b653ca82273b7bfad8045d85a47090565b6118046112ed565b8051908115611814576020012090565b50507fa16a46d94261c7517cc8ff89f61c0ce93598e3c849801011dee649a6a557d1015480156117d75790565b916101d8939161185093611859565b909291926118fb565b91906fa2a8918ca85bafe22016d0b997e4df60600160ff1b0384116118d257926020929160ff6080956040519485521684840152604083015260608201525f92839182805260015afa156118c65780516001600160a01b038116156118bd57918190565b50809160019190565b604051903d90823e3d90fd5b5050505f9160039190565b600411156118e757565b634e487b7160e01b5f52602160045260245ffd5b611904816118dd565b8061190d575050565b611916816118dd565b600181036119305760405163f645eedf60e01b8152600490fd5b611939816118dd565b6002810361195a5760405163fce698f760e01b815260048101839052602490fd5b806119666003926118dd565b1461196e5750565b6040516335e2f38360e21b81526004810191909152602490fd5b6001600160d01b039081811161199c571690565b604490604051906306dfcc6560e41b825260d060048301526024820152fd5b65ffffffffffff908181116119ce571690565b604490604051906306dfcc6560e41b8252603060048301526024820152fd5b5f198101919082116105e757565b8115611a05570490565b634e487b7160e01b5f52601260045260245ffd5b8015611b525780611aeb611ae4611ada611ad0611ac6611abc611ab2611aa860016101d89a5f908b60801c80611b46575b508060401c80611b39575b508060201c80611b2c575b508060101c80611b1f575b508060081c80611b12575b508060041c80611b05575b508060021c80611af8575b50821c611af1575b811c1b611aa1818b6119fb565b0160011c90565b611aa1818a6119fb565b611aa181896119fb565b611aa181886119fb565b611aa181876119fb565b611aa181866119fb565b611aa181856119fb565b80926119fb565b90611b57565b8101611a94565b600291509101905f611a8c565b600491509101905f611a81565b600891509101905f611a76565b601091509101905f611a6b565b602091509101905f611a60565b604091509101905f611a55565b9150506080905f611a4a565b505f90565b9080821015611b64575090565b905090565b5f80516020611fea83398151915280545f9181611b87575050505f90565b5f199282848101116105e75760209181522001015460301c90565b80545f9181611b87575050505f90565b8054821015611bc7575f5260205f2001905f90565b634e487b7160e01b5f52603260045260245ffd5b90604051611be881610ebd565b915465ffffffffffff8116835260301c6020830152565b5f80516020611fea833981519152908154600160401b811015610ed95760018101808455811015611bc7575f9283526020928390208251929093015160301b65ffffffffffff191665ffffffffffff9290921691909117910155565b8054600160401b811015610ed957611c7891600182018155611bb2565b611ca357815160209092015160301b65ffffffffffff191665ffffffffffff92909216919091179055565b634e487b7160e01b5f525f60045260245ffd5b5f80516020611fea83398151915254919291908115611ddd57611d18611d13611cde846119ed565b5f80516020611fea8339815191525f527f88c46c62109817164d0ae1873830d4299a82e5daf552a3d8e989b27638fcf7480190565b611bdb565b805165ffffffffffff8381169491168410611dcb5785602093611d8f95611d53611d48865165ffffffffffff1690565b65ffffffffffff1690565b03611d935750611d68611cde611d81936119ed565b9065ffffffffffff82549181199060301b169116179055565b01516001600160d01b031690565b9190565b9050611dc69150611db3611da5610f1c565b65ffffffffffff9092168252565b6001600160d01b03871681850152611bff565b611d81565b604051632520601d60e01b8152600490fd5b611e019150611ded611da5610f1c565b6001600160d01b0384166020820152611bff565b5f9190565b805492939291908215611ec057611e2d611d13611e22856119ed565b835f5260205f200190565b90611e3e825165ffffffffffff1690565b65ffffffffffff84811691168110611dcb57611d8f946020948892611e6c611d48875165ffffffffffff1690565b03611e8d5750611d8192611e82611d68926119ed565b905f5260205f200190565b915050611dc691611ead611e9f610f1c565b65ffffffffffff9093168352565b6001600160d01b03881682860152611c5b565b611e019250611ed0611e9f610f1c565b6001600160d01b0385166020830152611c5b565b905b828110611ef257505090565b90918082169080831860011c82018092116105e7575f80516020611fea8339815191525f527f88c46c62109817164d0ae1873830d4299a82e5daf552a3d8e989b27638fcf74882015465ffffffffffff9081169085161015611f575750915b90611ee6565b929150611f639061162b565b90611f51565b91905b838210611f795750505090565b9091928083169080841860011c82018092116105e7575f8581526020902082015465ffffffffffff9081169084161015611fb75750925b9190611f6c565b939250611fc39061162b565b91611fb056fee8b26c30fad74198956032a3533d903385d56dd795af560196f9c78d4af40d00e8b26c30fad74198956032a3533d903385d56dd795af560196f9c78d4af40d02a26469706673582212206d4838565f73389b44d4180ed43e6632866dd26f1230c2ef7ef6ef716d680ed464736f6c63430008140033","linkReferences":{}},"methodIdentifiers":{"CLOCK_MODE()":"4bf5d7e9","DOMAIN_SEPARATOR()":"3644e515","allowance(address,address)":"dd62ed3e","approve(address,uint256)":"095ea7b3","balanceOf(address)":"70a08231","checkpoints(address,uint32)":"f1127ed8","clock()":"91ddadf4","decimals()":"313ce567","delegate(address)":"5c19a95c","delegateBySig(address,uint256,uint256,uint8,bytes32,bytes32)":"c3cda520","delegates(address)":"587cde1e","eip712Domain()":"84b0196e","getPastTotalSupply(uint256)":"8e539e8c","getPastVotes(address,uint256)":"3a46b1a8","getVotes(address)":"9ab24eb0","name()":"06fdde03","nonces(address)":"7ecebe00","numCheckpoints(address)":"6fcfff45","permit(address,address,uint256,uint256,uint8,bytes32,bytes32)":"d505accf","symbol()":"95d89b41","totalSupply()":"18160ddd","transfer(address,uint256)":"a9059cbb","transferFrom(address,address,uint256)":"23b872dd"},"id":111}