{"abi":[{"type":"constructor","inputs":[{"name":"trustedForwarder_","type":"address","internalType":"address"}],"stateMutability":"nonpayable"},{"type":"function","name":"isTrustedForwarder","inputs":[{"name":"forwarder","type":"address","internalType":"address"}],"outputs":[{"name":"","type":"bool","internalType":"bool"}],"stateMutability":"view"},{"type":"function","name":"mockFunction","inputs":[],"outputs":[{"name":"","type":"string","internalType":"string"}],"stateMutability":"payable"},{"type":"function","name":"mockFunctionEmptyReturn","inputs":[],"outputs":[],"stateMutability":"payable"},{"type":"function","name":"mockFunctionNonPayable","inputs":[],"outputs":[{"name":"","type":"string","internalType":"string"}],"stateMutability":"nonpayable"},{"type":"function","name":"mockFunctionOutOfGas","inputs":[],"outputs":[],"stateMutability":"payable"},{"type":"function","name":"mockFunctionRevertsNoReason","inputs":[],"outputs":[],"stateMutability":"payable"},{"type":"function","name":"mockFunctionRevertsReason","inputs":[],"outputs":[],"stateMutability":"payable"},{"type":"function","name":"mockFunctionThrows","inputs":[],"outputs":[],"stateMutability":"payable"},{"type":"function","name":"mockFunctionWithArgs","inputs":[{"name":"a","type":"uint256","internalType":"uint256"},{"name":"b","type":"uint256","internalType":"uint256"}],"outputs":[{"name":"","type":"string","internalType":"string"}],"stateMutability":"payable"},{"type":"function","name":"mockFunctionWritesStorage","inputs":[{"name":"slot","type":"bytes32","internalType":"bytes32"},{"name":"value","type":"bytes32","internalType":"bytes32"}],"outputs":[{"name":"","type":"string","internalType":"string"}],"stateMutability":"nonpayable"},{"type":"function","name":"mockStaticFunction","inputs":[],"outputs":[{"name":"","type":"string","internalType":"string"}],"stateMutability":"pure"},{"type":"event","name":"MockFunctionCalled","inputs":[],"anonymous":false},{"type":"event","name":"MockFunctionCalledWithArgs","inputs":[{"name":"a","type":"uint256","indexed":false,"internalType":"uint256"},{"name":"b","type":"uint256","indexed":false,"internalType":"uint256"}],"anonymous":false}],"bytecode":{"object":"0x60803461007457601f61046038819003918201601f19168301916001600160401b038311848410176100785780849260209460405283398101031261007457516001600160a01b0381169081900361007457600180546001600160a01b0319169190911790556040516103d3908161008d8239f35b5f80fd5b634e487b7160e01b5f52604160045260245ffdfe6080604081815260049182361015610015575f80fd5b5f90813560e01c9081630c034968146102a0575080630f63e42c146102725780632c81d638146102635780633bcfaa14146102435780633e6fec041461021a578063425397a2146101f5578063572b6c05146101b6578063a793ab4714610137578063c292d81c14610117578063c8fc7696146100f55763fdb273251461009a575f80fd5b816003193601126100f257507f2b42b3c9af4187c86225f201736204c7597312c830cb5c2537dff6ef24b946ae816100ee938151903581526024356020820152a16100e3610336565b9051918291826102ef565b0390f35b80fd5b5090346101135781600319360112610113576100ee906100e3610336565b5080fd5b50806003193601126100f2575f8051602061037e8339815191528180a180f35b8382806003193601126100f257805b8154600160401b8110156101a357600181018084558110156101905782805260208320018190555f19811461017d57600101610146565b506011602492634e487b7160e01b835252fd5b634e487b7160e01b835260328452602483fd5b634e487b7160e01b835260418452602483fd5b5091346101f15760203660031901126101f157356001600160a01b03818116918290036101ed576020935060015416149051908152f35b8380fd5b8280fd5b5091346101f157816003193601126101f1576100ee92506024359035556100e3610336565b509081600319360112610113575f8051602061037e833981519152826100ee93a16100e3610336565b50828160031936011261011357634e487b7160e01b825260019052602490fd5b50806003193601126100f25780fd5b5090346101135781600319360112610113575f8051602061037e833981519152826100ee93a16100e3610336565b925050806003193601126100f25750602060649262461bcd60e51b8352820152601b60248201527f43616c6c52656365697665724d6f636b3a20726576657274696e6700000000006044820152fd5b602080825282518183018190529093925f5b82811061032257505060409293505f838284010152601f8019910116010190565b818101860151848201604001528501610301565b604051906040820182811067ffffffffffffffff8211176103695760405260068252650c1e0c4c8ccd60d21b6020830152565b634e487b7160e01b5f52604160045260245ffdfe52c66ed6ec9ca819cba26fe2b2650059270d8981b295af300187a964f54a8c23a2646970667358221220d09afcc0a7e465b4480f7dff5299f7d04b4fd869264a475af2b81a6aaa11b78364736f6c63430008140033","linkReferences":{}},"methodIdentifiers":{"isTrustedForwarder(address)":"572b6c05","mockFunction()":"3e6fec04","mockFunctionEmptyReturn()":"c292d81c","mockFunctionNonPayable()":"0f63e42c","mockFunctionOutOfGas()":"a793ab47","mockFunctionRevertsNoReason()":"2c81d638","mockFunctionRevertsReason()":"0c034968","mockFunctionThrows()":"3bcfaa14","mockFunctionWithArgs(uint256,uint256)":"fdb27325","mockFunctionWritesStorage(bytes32,bytes32)":"425397a2","mockStaticFunction()":"c8fc7696"},"id":249}