{"abi":[{"type":"function","name":"findUpperBound","inputs":[{"name":"element","type":"uint256","internalType":"uint256"}],"outputs":[{"name":"","type":"uint256","internalType":"uint256"}],"stateMutability":"view"},{"type":"function","name":"unsafeAccess","inputs":[{"name":"pos","type":"uint256","internalType":"uint256"}],"outputs":[{"name":"","type":"uint256","internalType":"uint256"}],"stateMutability":"view"},{"type":"event","name":"Initialized","inputs":[{"name":"version","type":"uint64","indexed":false,"internalType":"uint64"}],"anonymous":false},{"type":"error","name":"InvalidInitialization","inputs":[]},{"type":"error","name":"NotInitializing","inputs":[]}],"bytecode":{"object":"0x608080604052346100165761017e908161001b8239f35b5f80fdfe60806040526004361015610011575f80fd5b5f803560e01c806333e3a58a1461005a576340aa934d14610030575f80fd5b34610057576020366003190112610057578080602092528160043591200154604051908152f35b80fd5b5034610057576020366003190112610057576020610079600435610081565b604051908152f35b5f9081548015610143575b8083106100e8575081151590816100c9575b50156100c6575f1981019081116100b25790565b634e487b7160e01b5f52601160045260245ffd5b90565b90505f1982818101116100b2575f80528260205f20010154145f61009e565b808316906001818518811c83018093116100b2575f80527f290decd9548b62a8d60345a988386fc84ba6bc95484008f6362f93160ef3e56383015484101561013157505061008c565b90935081018091116100b2579161008c565b50509056fea26469706673582212204d5281ce99a4f7e00fc9eab270a746b4aa44f310d9e719f2292a97aebadbe7ae64736f6c63430008140033","linkReferences":{}},"methodIdentifiers":{"findUpperBound(uint256)":"33e3a58a","unsafeAccess(uint256)":"40aa934d"},"id":77}