{"abi":[{"type":"function","name":"get","inputs":[],"outputs":[{"name":"","type":"bool","internalType":"bool"}],"stateMutability":"pure"},{"type":"function","name":"initialize","inputs":[{"name":"_value","type":"uint256","internalType":"uint256"},{"name":"_text","type":"string","internalType":"string"},{"name":"_values","type":"uint256[]","internalType":"uint256[]"}],"outputs":[],"stateMutability":"nonpayable"},{"type":"function","name":"initializeNonPayable","inputs":[],"outputs":[],"stateMutability":"nonpayable"},{"type":"function","name":"initializeNonPayableWithValue","inputs":[{"name":"_value","type":"uint256","internalType":"uint256"}],"outputs":[],"stateMutability":"nonpayable"},{"type":"function","name":"initializePayable","inputs":[],"outputs":[],"stateMutability":"payable"},{"type":"function","name":"initializePayableWithValue","inputs":[{"name":"_value","type":"uint256","internalType":"uint256"}],"outputs":[],"stateMutability":"payable"},{"type":"function","name":"reverts","inputs":[],"outputs":[],"stateMutability":"pure"},{"type":"function","name":"text","inputs":[],"outputs":[{"name":"","type":"string","internalType":"string"}],"stateMutability":"view"},{"type":"function","name":"unsafeOverrideAdmin","inputs":[{"name":"newAdmin","type":"address","internalType":"address"}],"outputs":[],"stateMutability":"nonpayable"},{"type":"function","name":"value","inputs":[],"outputs":[{"name":"","type":"uint256","internalType":"uint256"}],"stateMutability":"view"},{"type":"function","name":"values","inputs":[{"name":"","type":"uint256","internalType":"uint256"}],"outputs":[{"name":"","type":"uint256","internalType":"uint256"}],"stateMutability":"view"},{"type":"function","name":"version","inputs":[],"outputs":[{"name":"","type":"string","internalType":"string"}],"stateMutability":"pure"}],"bytecode":{"object":"0x60808060405234610016576106ad908161001b8239f35b5f80fdfe608060409080825260049081361015610016575f80fd5b5f92833560e01c91826319af86e7146105505782631f1bd6921461049957508163227367d5146104815781633bccbbc91461042c5781633fa4f2451461040f57816354fd4d50146103aa5781635e383d21146103795781636d4ce63c1461035d578163763e2831146103445781639fba1f9a1461032e578163d31f8b6b146100bd575063e79f5bee146100a7575f80fd5b60203660031901126100b95735815580f35b5080fd5b9050346103265760603660031901126103265760249081359067ffffffffffffffff9283831161032a573660238401121561032a57828501359484861161024c5782519587602095601f199261011a8885601f840116018b6105e4565b808a5236868284010111610326578086899301838c0137890101526044359086821161032257366023830112156103225781830135918783116102fc578260051b95519261016a888801856105e4565b83528683018581978301019136831161031e5786899101915b83831061030e5750505050823589558751908782116102fc5781906001998a8c8a6101ae83546105ac565b91601f83116102c3575b92505050508891601f841160011461026857508b9261025d575b50505f19600383901b1c191690881b1787555b5194851161024c57600160401b851161024c57505060025483600255808410610231575b50906002855280852090855b848110610220578680f35b835183820155928101928501610215565b60028652828620610246918101908501610661565b5f610209565b634e487b7160e01b87526041905285fd5b015190505f806101d2565b8b8d52898d208c9590939291168d5b8b8282106102ad5750508411610295575b505050811b0187556101e5565b01515f1960f88460031b161c191690555f8080610288565b8385015186558e97909501949384019301610277565b6102e993815220601f860160051c8101918c87106102f2575b601f0160051c0190610661565b8a5f8a8e6101b8565b90915081906102dc565b634e487b7160e01b8a5260418452848afd5b8235815291810191899101610183565b8b80fd5b8880fd5b8280fd5b8580fd5b8380600319360112610341576064815580f35b80fd5b5050346100b95760203660031901126100b95735815580f35b8390346100b957816003193601126100b9576020905160018152f35b9190503461032657602036600319011261032657356002548110156103265760208360028295522001549051908152f35b839150346100b957816003193601126100b9578051918183019083821067ffffffffffffffff8311176103fc57506103f8935081526002825261563160f01b6020830152519182918261061a565b0390f35b634e487b7160e01b815260418552602490fd5b8390346100b957816003193601126100b957602091549051908152f35b828434610341578060031936011261034157506020606492519162461bcd60e51b8352820152601c60248201527f44756d6d79496d706c656d656e746174696f6e207265766572746564000000006044820152fd5b8334610341578060031936011261034157600a815580f35b8491346103265782600319360112610326578260018054906104ba826105ac565b8086529181811690811561052857506001146104ed575b5050506104e3826103f89403836105e4565b519182918261061a565b80955082526020948583205b82841061051557505050826103f8946104e392820101946104d1565b80548685018801529286019281016104f9565b6103f897506104e39450602092508693915060ff191682840152151560051b820101946104d1565b505050346100b95760203660031901126100b957356001600160a01b038116908190036100b9577fb53127684a568b3173ae13b9f8a6016e243e63b6e8ee1178d6a717850b5d610380546001600160a01b031916909117905580f35b90600182811c921680156105da575b60208310146105c657565b634e487b7160e01b5f52602260045260245ffd5b91607f16916105bb565b90601f8019910116810190811067ffffffffffffffff82111761060657604052565b634e487b7160e01b5f52604160045260245ffd5b602080825282518183018190529093925f5b82811061064d57505060409293505f838284010152601f8019910116010190565b81810186015184820160400152850161062c565b81811061066c575050565b5f815560010161066156fea26469706673582212203226b2ad17cf575c1ba9f6bce0e0db63461b876852867f83c6e71be62fc1bc1b64736f6c63430008140033","linkReferences":{}},"methodIdentifiers":{"get()":"6d4ce63c","initialize(uint256,string,uint256[])":"d31f8b6b","initializeNonPayable()":"227367d5","initializeNonPayableWithValue(uint256)":"763e2831","initializePayable()":"9fba1f9a","initializePayableWithValue(uint256)":"e79f5bee","reverts()":"3bccbbc9","text()":"1f1bd692","unsafeOverrideAdmin(address)":"19af86e7","value()":"3fa4f245","values(uint256)":"5e383d21","version()":"54fd4d50"},"id":251}