{"abi":[{"type":"receive","stateMutability":"payable"},{"type":"function","name":"setAcceptEther","inputs":[{"name":"acceptEther","type":"bool","internalType":"bool"}],"outputs":[],"stateMutability":"nonpayable"},{"type":"event","name":"Initialized","inputs":[{"name":"version","type":"uint64","indexed":false,"internalType":"uint64"}],"anonymous":false},{"type":"error","name":"InvalidInitialization","inputs":[]},{"type":"error","name":"NotInitializing","inputs":[]}],"bytecode":{"object":"0x60808060405234601457609b90816100198239f35b5f80fdfe60043610156020575b36156011575f80fd5b60ff5f541615601c57005b5f80fd5b5f803560e01c634fea120c14603457506008565b346062576020366003190112606257600435801515809103605e5760ff8019835416911617815580f35b5080fd5b80fdfea26469706673582212203831a80b2f7bd89d5aca70b5c1661a0cc4851f05fa4726beec278dfd58da2ab464736f6c63430008140033","linkReferences":{}},"methodIdentifiers":{"setAcceptEther(bool)":"4fea120c"},"id":91}