{"abi":[{"type":"fallback","stateMutability":"nonpayable"},{"type":"function","name":"getValue","inputs":[],"outputs":[{"name":"","type":"uint256","internalType":"uint256"}],"stateMutability":"view"},{"type":"function","name":"initialize","inputs":[],"outputs":[],"stateMutability":"nonpayable"},{"type":"function","name":"setValue","inputs":[{"name":"_number","type":"uint256","internalType":"uint256"}],"outputs":[],"stateMutability":"nonpayable"},{"type":"event","name":"Initialized","inputs":[{"name":"version","type":"uint64","indexed":false,"internalType":"uint64"}],"anonymous":false},{"type":"error","name":"InvalidInitialization","inputs":[]},{"type":"error","name":"NotInitializing","inputs":[]}],"bytecode":{"object":"0x60808060405234610016576101c7908161001b8239f35b5f80fdfe608080604052600436101561001f575b503461001b5760015f55005b5f80fd5b5f90813560e01c908163209652551461017357508063552410771461015957638129fc1c0361000f57346101565780600319360112610156577ff0c57e16840df040f15088dc2f81fe391c3923bec73e23a9662efc9c229c6a00805460ff8160401c16159067ffffffffffffffff81168015908161014e575b6001149081610144575b15908161013b575b506101295767ffffffffffffffff19811660011783558161010a575b506100cf575080f35b805460ff60401b19169055604051600181527fc7f505b2f371ae2175ee4913f4499e1f2633a7b5936321eed1cdaeb6115181d290602090a180f35b68ffffffffffffffffff1916680100000000000000011782555f6100c6565b60405163f92ee8a960e01b8152600490fd5b9050155f6100aa565b303b1591506100a2565b839150610098565b80fd5b503461015657602036600319011261015657600435815580f35b90503461018d578160031936011261018d57602091548152f35b5080fdfea2646970667358221220197cb91305db24b8dec94c54914e6413a8b4453d51a30637368a003c48e1873564736f6c63430008140033","linkReferences":{}},"methodIdentifiers":{"getValue()":"20965255","initialize()":"8129fc1c","setValue(uint256)":"55241077"},"id":97}