{"abi":[{"type":"function","name":"get","inputs":[],"outputs":[{"name":"","type":"bool","internalType":"bool"}],"stateMutability":"pure"},{"type":"function","name":"initialize","inputs":[{"name":"_value","type":"uint256","internalType":"uint256"},{"name":"_text","type":"string","internalType":"string"},{"name":"_values","type":"uint256[]","internalType":"uint256[]"}],"outputs":[],"stateMutability":"nonpayable"},{"type":"function","name":"initializeNonPayable","inputs":[],"outputs":[],"stateMutability":"nonpayable"},{"type":"function","name":"initializeNonPayableWithValue","inputs":[{"name":"_value","type":"uint256","internalType":"uint256"}],"outputs":[],"stateMutability":"nonpayable"},{"type":"function","name":"initializePayable","inputs":[],"outputs":[],"stateMutability":"payable"},{"type":"function","name":"initializePayableWithValue","inputs":[{"name":"_value","type":"uint256","internalType":"uint256"}],"outputs":[],"stateMutability":"payable"},{"type":"function","name":"migrate","inputs":[{"name":"newVal","type":"uint256","internalType":"uint256"}],"outputs":[],"stateMutability":"payable"},{"type":"function","name":"reverts","inputs":[],"outputs":[],"stateMutability":"pure"},{"type":"function","name":"text","inputs":[],"outputs":[{"name":"","type":"string","internalType":"string"}],"stateMutability":"view"},{"type":"function","name":"unsafeOverrideAdmin","inputs":[{"name":"newAdmin","type":"address","internalType":"address"}],"outputs":[],"stateMutability":"nonpayable"},{"type":"function","name":"value","inputs":[],"outputs":[{"name":"","type":"uint256","internalType":"uint256"}],"stateMutability":"view"},{"type":"function","name":"values","inputs":[{"name":"","type":"uint256","internalType":"uint256"}],"outputs":[{"name":"","type":"uint256","internalType":"uint256"}],"stateMutability":"view"},{"type":"function","name":"version","inputs":[],"outputs":[{"name":"","type":"string","internalType":"string"}],"stateMutability":"pure"},{"type":"event","name":"Initialized","inputs":[{"name":"version","type":"uint64","indexed":false,"internalType":"uint64"}],"anonymous":false},{"type":"error","name":"InvalidInitialization","inputs":[]},{"type":"error","name":"NotInitializing","inputs":[]}],"bytecode":{"object":"0x60808060405234610016576106ba908161001b8239f35b5f80fdfe60806040818152600480361015610014575f80fd5b5f91823560e01c93846319af86e7146105475784631f1bd6921461049057508363227367d5146104785783633bccbbc9146104245783633fa4f24514610407578363454b0608146100b257836354fd4d50146103a35783635e383d21146103745783636d4ce63c14610358578363763e28311461033c5783639fba1f9a14610326578363d31f8b6b146100b75750505063e79f5bee146100b2575f80fd5b610657565b3461031e57606036600319011261031e5760249081359067ffffffffffffffff9283831161032257366023840112156103225782850135948486116102445782519587602095601f19926101128885601f840116018b6105da565b808a523686828401011161031e578086899301838c0137890101526044359086821161031a573660238301121561031a5781830135918783116102f4578260051b955192610162888801856105da565b8352868301858197830101913683116103165786899101915b8383106103065750505050823589558751908782116102f45781906001998a8c8a6101a683546105a2565b91601f83116102bb575b92505050508891601f841160011461026057508b92610255575b50505f19600383901b1c191690881b1787555b5194851161024457600160401b851161024457505060025483600255808410610229575b50906002855280852090855b848110610218578680f35b83518382015592810192850161020d565b6002865282862061023e91810190850161066e565b85610201565b634e487b7160e01b87526041905285fd5b015190508a806101ca565b8b8d52898d208c9590939291168d5b8b8282106102a5575050841161028d575b505050811b0187556101dd565b01515f1960f88460031b161c191690558a8080610280565b8385015186558e9790950194938401930161026f565b6102e193815220601f860160051c8101918c87106102ea575b601f0160051c019061066e565b8a8d8a8e6101b0565b90915081906102d4565b634e487b7160e01b8a5260418452848afd5b823581529181019189910161017b565b8b80fd5b8880fd5b8280fd5b8580fd5b8280600319360112610339576064815580f35b80fd5b50346103545760203660031901126103545735815580f35b5080fd5b9050346103545781600319360112610354576020905160018152f35b903461031e57602036600319011261031e573560025481101561031e5760208360028295522001549051908152f35b8290346103545781600319360112610354578051918183019083821067ffffffffffffffff8311176103f457506103f09350815260028252612b1960f11b60208301525191829182610610565b0390f35b634e487b7160e01b815260418552602490fd5b905034610354578160031936011261035457602091549051908152f35b9134610339578060031936011261033957506020606492519162461bcd60e51b8352820152601c60248201527f44756d6d79496d706c656d656e746174696f6e207265766572746564000000006044820152fd5b8234610339578060031936011261033957600a815580f35b91503461031e578260031936011261031e578260018054906104b1826105a2565b8086529181811690811561051f57506001146104e4575b5050506104da826103f09403836105da565b5191829182610610565b80955082526020948583205b82841061050c57505050826103f0946104da92820101946104c8565b80548685018801529286019281016104f0565b6103f097506104da9450602092508693915060ff191682840152151560051b820101946104c8565b50503461035457602036600319011261035457356001600160a01b03811690819003610354577fb53127684a568b3173ae13b9f8a6016e243e63b6e8ee1178d6a717850b5d610380546001600160a01b031916909117905580f35b90600182811c921680156105d0575b60208310146105bc57565b634e487b7160e01b5f52602260045260245ffd5b91607f16916105b1565b90601f8019910116810190811067ffffffffffffffff8211176105fc57604052565b634e487b7160e01b5f52604160045260245ffd5b602080825282518183018190529093925f5b82811061064357505060409293505f838284010152601f8019910116010190565b818101860151848201604001528501610622565b602036600319011261066a576004355f55005b5f80fd5b818110610679575050565b5f815560010161066e56fea26469706673582212201c9e0be50de2f1b702d23c003d569149023068a88845245586afe7384dad76ef64736f6c63430008140033","linkReferences":{}},"methodIdentifiers":{"get()":"6d4ce63c","initialize(uint256,string,uint256[])":"d31f8b6b","initializeNonPayable()":"227367d5","initializeNonPayableWithValue(uint256)":"763e2831","initializePayable()":"9fba1f9a","initializePayableWithValue(uint256)":"e79f5bee","migrate(uint256)":"454b0608","reverts()":"3bccbbc9","text()":"1f1bd692","unsafeOverrideAdmin(address)":"19af86e7","value()":"3fa4f245","values(uint256)":"5e383d21","version()":"54fd4d50"},"id":80}