{"abi":[{"type":"constructor","inputs":[],"stateMutability":"payable"},{"type":"receive","stateMutability":"payable"},{"type":"function","name":"BALLOT_TYPEHASH","inputs":[],"outputs":[{"name":"","type":"bytes32","internalType":"bytes32"}],"stateMutability":"view"},{"type":"function","name":"CLOCK_MODE","inputs":[],"outputs":[{"name":"","type":"string","internalType":"string"}],"stateMutability":"view"},{"type":"function","name":"COUNTING_MODE","inputs":[],"outputs":[{"name":"","type":"string","internalType":"string"}],"stateMutability":"pure"},{"type":"function","name":"EXTENDED_BALLOT_TYPEHASH","inputs":[],"outputs":[{"name":"","type":"bytes32","internalType":"bytes32"}],"stateMutability":"view"},{"type":"function","name":"__acceptAdmin","inputs":[],"outputs":[],"stateMutability":"nonpayable"},{"type":"function","name":"cancel","inputs":[{"name":"targets","type":"address[]","internalType":"address[]"},{"name":"values","type":"uint256[]","internalType":"uint256[]"},{"name":"calldatas","type":"bytes[]","internalType":"bytes[]"},{"name":"descriptionHash","type":"bytes32","internalType":"bytes32"}],"outputs":[{"name":"","type":"uint256","internalType":"uint256"}],"stateMutability":"nonpayable"},{"type":"function","name":"castVote","inputs":[{"name":"proposalId","type":"uint256","internalType":"uint256"},{"name":"support","type":"uint8","internalType":"uint8"}],"outputs":[{"name":"","type":"uint256","internalType":"uint256"}],"stateMutability":"nonpayable"},{"type":"function","name":"castVoteBySig","inputs":[{"name":"proposalId","type":"uint256","internalType":"uint256"},{"name":"support","type":"uint8","internalType":"uint8"},{"name":"voter","type":"address","internalType":"address"},{"name":"signature","type":"bytes","internalType":"bytes"}],"outputs":[{"name":"","type":"uint256","internalType":"uint256"}],"stateMutability":"nonpayable"},{"type":"function","name":"castVoteWithReason","inputs":[{"name":"proposalId","type":"uint256","internalType":"uint256"},{"name":"support","type":"uint8","internalType":"uint8"},{"name":"reason","type":"string","internalType":"string"}],"outputs":[{"name":"","type":"uint256","internalType":"uint256"}],"stateMutability":"nonpayable"},{"type":"function","name":"castVoteWithReasonAndParams","inputs":[{"name":"proposalId","type":"uint256","internalType":"uint256"},{"name":"support","type":"uint8","internalType":"uint8"},{"name":"reason","type":"string","internalType":"string"},{"name":"params","type":"bytes","internalType":"bytes"}],"outputs":[{"name":"","type":"uint256","internalType":"uint256"}],"stateMutability":"nonpayable"},{"type":"function","name":"castVoteWithReasonAndParamsBySig","inputs":[{"name":"proposalId","type":"uint256","internalType":"uint256"},{"name":"support","type":"uint8","internalType":"uint8"},{"name":"voter","type":"address","internalType":"address"},{"name":"reason","type":"string","internalType":"string"},{"name":"params","type":"bytes","internalType":"bytes"},{"name":"signature","type":"bytes","internalType":"bytes"}],"outputs":[{"name":"","type":"uint256","internalType":"uint256"}],"stateMutability":"nonpayable"},{"type":"function","name":"clock","inputs":[],"outputs":[{"name":"","type":"uint48","internalType":"uint48"}],"stateMutability":"view"},{"type":"function","name":"eip712Domain","inputs":[],"outputs":[{"name":"fields","type":"bytes1","internalType":"bytes1"},{"name":"name","type":"string","internalType":"string"},{"name":"version","type":"string","internalType":"string"},{"name":"chainId","type":"uint256","internalType":"uint256"},{"name":"verifyingContract","type":"address","internalType":"address"},{"name":"salt","type":"bytes32","internalType":"bytes32"},{"name":"extensions","type":"uint256[]","internalType":"uint256[]"}],"stateMutability":"view"},{"type":"function","name":"execute","inputs":[{"name":"targets","type":"address[]","internalType":"address[]"},{"name":"values","type":"uint256[]","internalType":"uint256[]"},{"name":"calldatas","type":"bytes[]","internalType":"bytes[]"},{"name":"descriptionHash","type":"bytes32","internalType":"bytes32"}],"outputs":[{"name":"","type":"uint256","internalType":"uint256"}],"stateMutability":"payable"},{"type":"function","name":"getVotes","inputs":[{"name":"account","type":"address","internalType":"address"},{"name":"timepoint","type":"uint256","internalType":"uint256"}],"outputs":[{"name":"","type":"uint256","internalType":"uint256"}],"stateMutability":"view"},{"type":"function","name":"getVotesWithParams","inputs":[{"name":"account","type":"address","internalType":"address"},{"name":"timepoint","type":"uint256","internalType":"uint256"},{"name":"params","type":"bytes","internalType":"bytes"}],"outputs":[{"name":"","type":"uint256","internalType":"uint256"}],"stateMutability":"view"},{"type":"function","name":"hasVoted","inputs":[{"name":"proposalId","type":"uint256","internalType":"uint256"},{"name":"account","type":"address","internalType":"address"}],"outputs":[{"name":"","type":"bool","internalType":"bool"}],"stateMutability":"view"},{"type":"function","name":"hashProposal","inputs":[{"name":"targets","type":"address[]","internalType":"address[]"},{"name":"values","type":"uint256[]","internalType":"uint256[]"},{"name":"calldatas","type":"bytes[]","internalType":"bytes[]"},{"name":"descriptionHash","type":"bytes32","internalType":"bytes32"}],"outputs":[{"name":"","type":"uint256","internalType":"uint256"}],"stateMutability":"pure"},{"type":"function","name":"name","inputs":[],"outputs":[{"name":"","type":"string","internalType":"string"}],"stateMutability":"view"},{"type":"function","name":"nonces","inputs":[{"name":"owner","type":"address","internalType":"address"}],"outputs":[{"name":"","type":"uint256","internalType":"uint256"}],"stateMutability":"view"},{"type":"function","name":"onERC1155BatchReceived","inputs":[{"name":"","type":"address","internalType":"address"},{"name":"","type":"address","internalType":"address"},{"name":"","type":"uint256[]","internalType":"uint256[]"},{"name":"","type":"uint256[]","internalType":"uint256[]"},{"name":"","type":"bytes","internalType":"bytes"}],"outputs":[{"name":"","type":"bytes4","internalType":"bytes4"}],"stateMutability":"nonpayable"},{"type":"function","name":"onERC1155Received","inputs":[{"name":"","type":"address","internalType":"address"},{"name":"","type":"address","internalType":"address"},{"name":"","type":"uint256","internalType":"uint256"},{"name":"","type":"uint256","internalType":"uint256"},{"name":"","type":"bytes","internalType":"bytes"}],"outputs":[{"name":"","type":"bytes4","internalType":"bytes4"}],"stateMutability":"nonpayable"},{"type":"function","name":"onERC721Received","inputs":[{"name":"","type":"address","internalType":"address"},{"name":"","type":"address","internalType":"address"},{"name":"","type":"uint256","internalType":"uint256"},{"name":"","type":"bytes","internalType":"bytes"}],"outputs":[{"name":"","type":"bytes4","internalType":"bytes4"}],"stateMutability":"nonpayable"},{"type":"function","name":"proposalDeadline","inputs":[{"name":"proposalId","type":"uint256","internalType":"uint256"}],"outputs":[{"name":"","type":"uint256","internalType":"uint256"}],"stateMutability":"view"},{"type":"function","name":"proposalEta","inputs":[{"name":"proposalId","type":"uint256","internalType":"uint256"}],"outputs":[{"name":"","type":"uint256","internalType":"uint256"}],"stateMutability":"view"},{"type":"function","name":"proposalNeedsQueuing","inputs":[{"name":"proposalId","type":"uint256","internalType":"uint256"}],"outputs":[{"name":"","type":"bool","internalType":"bool"}],"stateMutability":"view"},{"type":"function","name":"proposalProposer","inputs":[{"name":"proposalId","type":"uint256","internalType":"uint256"}],"outputs":[{"name":"","type":"address","internalType":"address"}],"stateMutability":"view"},{"type":"function","name":"proposalSnapshot","inputs":[{"name":"proposalId","type":"uint256","internalType":"uint256"}],"outputs":[{"name":"","type":"uint256","internalType":"uint256"}],"stateMutability":"view"},{"type":"function","name":"proposalThreshold","inputs":[],"outputs":[{"name":"","type":"uint256","internalType":"uint256"}],"stateMutability":"view"},{"type":"function","name":"proposalVotes","inputs":[{"name":"proposalId","type":"uint256","internalType":"uint256"}],"outputs":[{"name":"againstVotes","type":"uint256","internalType":"uint256"},{"name":"forVotes","type":"uint256","internalType":"uint256"},{"name":"abstainVotes","type":"uint256","internalType":"uint256"}],"stateMutability":"view"},{"type":"function","name":"propose","inputs":[{"name":"targets","type":"address[]","internalType":"address[]"},{"name":"values","type":"uint256[]","internalType":"uint256[]"},{"name":"calldatas","type":"bytes[]","internalType":"bytes[]"},{"name":"description","type":"string","internalType":"string"}],"outputs":[{"name":"","type":"uint256","internalType":"uint256"}],"stateMutability":"nonpayable"},{"type":"function","name":"queue","inputs":[{"name":"targets","type":"address[]","internalType":"address[]"},{"name":"values","type":"uint256[]","internalType":"uint256[]"},{"name":"calldatas","type":"bytes[]","internalType":"bytes[]"},{"name":"descriptionHash","type":"bytes32","internalType":"bytes32"}],"outputs":[{"name":"","type":"uint256","internalType":"uint256"}],"stateMutability":"nonpayable"},{"type":"function","name":"quorum","inputs":[{"name":"blockNumber","type":"uint256","internalType":"uint256"}],"outputs":[{"name":"","type":"uint256","internalType":"uint256"}],"stateMutability":"view"},{"type":"function","name":"quorumDenominator","inputs":[],"outputs":[{"name":"","type":"uint256","internalType":"uint256"}],"stateMutability":"view"},{"type":"function","name":"quorumNumerator","inputs":[{"name":"timepoint","type":"uint256","internalType":"uint256"}],"outputs":[{"name":"","type":"uint256","internalType":"uint256"}],"stateMutability":"view"},{"type":"function","name":"quorumNumerator","inputs":[],"outputs":[{"name":"","type":"uint256","internalType":"uint256"}],"stateMutability":"view"},{"type":"function","name":"relay","inputs":[{"name":"target","type":"address","internalType":"address"},{"name":"value","type":"uint256","internalType":"uint256"},{"name":"data","type":"bytes","internalType":"bytes"}],"outputs":[],"stateMutability":"payable"},{"type":"function","name":"setProposalThreshold","inputs":[{"name":"newProposalThreshold","type":"uint256","internalType":"uint256"}],"outputs":[],"stateMutability":"nonpayable"},{"type":"function","name":"setVotingDelay","inputs":[{"name":"newVotingDelay","type":"uint48","internalType":"uint48"}],"outputs":[],"stateMutability":"nonpayable"},{"type":"function","name":"setVotingPeriod","inputs":[{"name":"newVotingPeriod","type":"uint32","internalType":"uint32"}],"outputs":[],"stateMutability":"nonpayable"},{"type":"function","name":"state","inputs":[{"name":"proposalId","type":"uint256","internalType":"uint256"}],"outputs":[{"name":"","type":"uint8","internalType":"enum IGovernor.ProposalState"}],"stateMutability":"view"},{"type":"function","name":"supportsInterface","inputs":[{"name":"interfaceId","type":"bytes4","internalType":"bytes4"}],"outputs":[{"name":"","type":"bool","internalType":"bool"}],"stateMutability":"view"},{"type":"function","name":"timelock","inputs":[],"outputs":[{"name":"","type":"address","internalType":"address"}],"stateMutability":"view"},{"type":"function","name":"token","inputs":[],"outputs":[{"name":"","type":"address","internalType":"contract IERC5805"}],"stateMutability":"view"},{"type":"function","name":"updateQuorumNumerator","inputs":[{"name":"newQuorumNumerator","type":"uint256","internalType":"uint256"}],"outputs":[],"stateMutability":"nonpayable"},{"type":"function","name":"updateTimelock","inputs":[{"name":"newTimelock","type":"address","internalType":"contract ICompoundTimelock"}],"outputs":[],"stateMutability":"nonpayable"},{"type":"function","name":"version","inputs":[],"outputs":[{"name":"","type":"string","internalType":"string"}],"stateMutability":"view"},{"type":"function","name":"votingDelay","inputs":[],"outputs":[{"name":"","type":"uint256","internalType":"uint256"}],"stateMutability":"view"},{"type":"function","name":"votingPeriod","inputs":[],"outputs":[{"name":"","type":"uint256","internalType":"uint256"}],"stateMutability":"view"},{"type":"event","name":"EIP712DomainChanged","inputs":[],"anonymous":false},{"type":"event","name":"Initialized","inputs":[{"name":"version","type":"uint64","indexed":false,"internalType":"uint64"}],"anonymous":false},{"type":"event","name":"ProposalCanceled","inputs":[{"name":"proposalId","type":"uint256","indexed":false,"internalType":"uint256"}],"anonymous":false},{"type":"event","name":"ProposalCreated","inputs":[{"name":"proposalId","type":"uint256","indexed":false,"internalType":"uint256"},{"name":"proposer","type":"address","indexed":false,"internalType":"address"},{"name":"targets","type":"address[]","indexed":false,"internalType":"address[]"},{"name":"values","type":"uint256[]","indexed":false,"internalType":"uint256[]"},{"name":"signatures","type":"string[]","indexed":false,"internalType":"string[]"},{"name":"calldatas","type":"bytes[]","indexed":false,"internalType":"bytes[]"},{"name":"voteStart","type":"uint256","indexed":false,"internalType":"uint256"},{"name":"voteEnd","type":"uint256","indexed":false,"internalType":"uint256"},{"name":"description","type":"string","indexed":false,"internalType":"string"}],"anonymous":false},{"type":"event","name":"ProposalExecuted","inputs":[{"name":"proposalId","type":"uint256","indexed":false,"internalType":"uint256"}],"anonymous":false},{"type":"event","name":"ProposalQueued","inputs":[{"name":"proposalId","type":"uint256","indexed":false,"internalType":"uint256"},{"name":"etaSeconds","type":"uint256","indexed":false,"internalType":"uint256"}],"anonymous":false},{"type":"event","name":"ProposalThresholdSet","inputs":[{"name":"oldProposalThreshold","type":"uint256","indexed":false,"internalType":"uint256"},{"name":"newProposalThreshold","type":"uint256","indexed":false,"internalType":"uint256"}],"anonymous":false},{"type":"event","name":"QuorumNumeratorUpdated","inputs":[{"name":"oldQuorumNumerator","type":"uint256","indexed":false,"internalType":"uint256"},{"name":"newQuorumNumerator","type":"uint256","indexed":false,"internalType":"uint256"}],"anonymous":false},{"type":"event","name":"TimelockChange","inputs":[{"name":"oldTimelock","type":"address","indexed":false,"internalType":"address"},{"name":"newTimelock","type":"address","indexed":false,"internalType":"address"}],"anonymous":false},{"type":"event","name":"VoteCast","inputs":[{"name":"voter","type":"address","indexed":true,"internalType":"address"},{"name":"proposalId","type":"uint256","indexed":false,"internalType":"uint256"},{"name":"support","type":"uint8","indexed":false,"internalType":"uint8"},{"name":"weight","type":"uint256","indexed":false,"internalType":"uint256"},{"name":"reason","type":"string","indexed":false,"internalType":"string"}],"anonymous":false},{"type":"event","name":"VoteCastWithParams","inputs":[{"name":"voter","type":"address","indexed":true,"internalType":"address"},{"name":"proposalId","type":"uint256","indexed":false,"internalType":"uint256"},{"name":"support","type":"uint8","indexed":false,"internalType":"uint8"},{"name":"weight","type":"uint256","indexed":false,"internalType":"uint256"},{"name":"reason","type":"string","indexed":false,"internalType":"string"},{"name":"params","type":"bytes","indexed":false,"internalType":"bytes"}],"anonymous":false},{"type":"event","name":"VotingDelaySet","inputs":[{"name":"oldVotingDelay","type":"uint256","indexed":false,"internalType":"uint256"},{"name":"newVotingDelay","type":"uint256","indexed":false,"internalType":"uint256"}],"anonymous":false},{"type":"event","name":"VotingPeriodSet","inputs":[{"name":"oldVotingPeriod","type":"uint256","indexed":false,"internalType":"uint256"},{"name":"newVotingPeriod","type":"uint256","indexed":false,"internalType":"uint256"}],"anonymous":false},{"type":"error","name":"AddressInsufficientBalance","inputs":[{"name":"account","type":"address","internalType":"address"}]},{"type":"error","name":"CheckpointUnorderedInsertion","inputs":[]},{"type":"error","name":"FailedInnerCall","inputs":[]},{"type":"error","name":"GovernorAlreadyCastVote","inputs":[{"name":"voter","type":"address","internalType":"address"}]},{"type":"error","name":"GovernorAlreadyQueuedProposal","inputs":[{"name":"proposalId","type":"uint256","internalType":"uint256"}]},{"type":"error","name":"GovernorDisabledDeposit","inputs":[]},{"type":"error","name":"GovernorInsufficientProposerVotes","inputs":[{"name":"proposer","type":"address","internalType":"address"},{"name":"votes","type":"uint256","internalType":"uint256"},{"name":"threshold","type":"uint256","internalType":"uint256"}]},{"type":"error","name":"GovernorInvalidProposalLength","inputs":[{"name":"targets","type":"uint256","internalType":"uint256"},{"name":"calldatas","type":"uint256","internalType":"uint256"},{"name":"values","type":"uint256","internalType":"uint256"}]},{"type":"error","name":"GovernorInvalidQuorumFraction","inputs":[{"name":"quorumNumerator","type":"uint256","internalType":"uint256"},{"name":"quorumDenominator","type":"uint256","internalType":"uint256"}]},{"type":"error","name":"GovernorInvalidSignature","inputs":[{"name":"voter","type":"address","internalType":"address"}]},{"type":"error","name":"GovernorInvalidVoteType","inputs":[]},{"type":"error","name":"GovernorInvalidVotingPeriod","inputs":[{"name":"votingPeriod","type":"uint256","internalType":"uint256"}]},{"type":"error","name":"GovernorNonexistentProposal","inputs":[{"name":"proposalId","type":"uint256","internalType":"uint256"}]},{"type":"error","name":"GovernorNotQueuedProposal","inputs":[{"name":"proposalId","type":"uint256","internalType":"uint256"}]},{"type":"error","name":"GovernorOnlyExecutor","inputs":[{"name":"account","type":"address","internalType":"address"}]},{"type":"error","name":"GovernorOnlyProposer","inputs":[{"name":"account","type":"address","internalType":"address"}]},{"type":"error","name":"GovernorQueueNotImplemented","inputs":[]},{"type":"error","name":"GovernorRestrictedProposer","inputs":[{"name":"proposer","type":"address","internalType":"address"}]},{"type":"error","name":"GovernorUnexpectedProposalState","inputs":[{"name":"proposalId","type":"uint256","internalType":"uint256"},{"name":"current","type":"uint8","internalType":"enum IGovernor.ProposalState"},{"name":"expectedStates","type":"bytes32","internalType":"bytes32"}]},{"type":"error","name":"InvalidAccountNonce","inputs":[{"name":"account","type":"address","internalType":"address"},{"name":"currentNonce","type":"uint256","internalType":"uint256"}]},{"type":"error","name":"InvalidInitialization","inputs":[]},{"type":"error","name":"NotInitializing","inputs":[]},{"type":"error","name":"QueueEmpty","inputs":[]},{"type":"error","name":"QueueFull","inputs":[]},{"type":"error","name":"SafeCastOverflowedUintDowncast","inputs":[{"name":"bits","type":"uint8","internalType":"uint8"},{"name":"value","type":"uint256","internalType":"uint256"}]}],"bytecode":{"object":"0x608060408181527ff0c57e16840df040f15088dc2f81fe391c3923bec73e23a9662efc9c229c6a0080549192909180841c60ff1615916001600160401b0382168015908162000133575b600114908162000128575b1590816200011e575b506200010f57506001600160401b03198116600117835581620000f1575b5081549060ff82851c1615620000e057620000a0575b825161407c90816200013d8239f35b68ff0000000000000000191690557fc7f505b2f371ae2175ee4913f4499e1f2633a7b5936321eed1cdaeb6115181d26020825160018152a15f8062000091565b8351631afcd79f60e31b8152600490fd5b6001600160481b031916680100000000000000011782555f6200007b565b63f92ee8a960e01b8152600490fd5b9050155f6200005d565b303b15915062000054565b8491506200004956fe60806040526004361015610022575b3615610018575f80fd5b610020611eee565b005b5f3560e01c806301ffc9a71461033157806302a251a31461032c57806306f3f9e61461032757806306fdde0314610322578063143489d01461031d578063150b7a0214610318578063160cbed7146103135780632656227d1461030e5780632d63f693146103095780632fe3e261146103045780633932abb1146102ff5780633e4f49e6146102fa57806343859632146102f5578063452115d6146102f05780634bf5d7e9146102eb578063544ffc9c146102e657806354fd4d50146102e157806356781388146102dc5780635b8d0e0d146102d75780635f398a14146102d257806360c4247f146102cd57806379051887146102c85780637b3c71d3146102c35780637d5e81e2146102be5780637ecebe00146102b957806384b0196e146102b45780638ff262e3146102af57806391ddadf4146102aa57806397c3d334146102a55780639a802a6d146102a0578063a7713a701461029b578063a890c91014610296578063a9a9529414610291578063ab58fb8e1461028c578063b58131b014610287578063b9a6196114610282578063bc197c811461027d578063c01f9e3714610278578063c28bc2fa14610273578063c59057e41461026e578063d33219b414610269578063dd4e2ba514610264578063deaaa7cc1461025f578063e540d01d1461025a578063eb9019d414610255578063ece40cc114610250578063f23a6e611461024b578063f8ce560a146102465763fc0c546a0361000e57611eba565b611e11565b611d9a565b611d3a565b611cac565b611bfe565b611bc4565b611b67565b611b33565b611b17565b611aac565b611a8e565b6119ee565b611988565b61195f565b61191e565b611902565b61187d565b611852565b611793565b611778565b61174e565b61164f565b61157f565b611493565b6113fa565b6113a5565b611325565b6112f7565b611288565b611200565b611185565b611134565b6110dd565b6110ae565b610fe5565b610f84565b610f57565b610ef6565b610ebc565b610e7b565b610d05565b610a15565b6107cd565b610649565b610501565b6103df565b6103ad565b3461039f57602036600319011261039f5760043563ffffffff60e01b811680910361039f576020906332a2ad4360e11b811490811561038e575b811561037d575b506040519015158152f35b6301ffc9a760e01b1490505f610372565b630271189760e51b8114915061036b565b5f80fd5b5f91031261039f57565b3461039f575f36600319011261039f57602063ffffffff5f80516020613f678339815191525460301c16604051908152f35b3461039f57602036600319011261039f576004356103fb61297e565b60648111610488576001600160d01b039081610415613bc2565b1661041e612e53565b92808311610468577f0553476bf02ef2726e8ce5ced78d63e26e602e4a2257b1f559418e24b46339979361045491841690613caf565b5050604080519182526020820192909252a1005b6040516306dfcc6560e41b815260d0600482015260248101849052604490fd5b6044906040519063243e544560e01b8252600482015260646024820152fd5b5f5b8381106104b85750505f910152565b81810151838201526020016104a9565b906020916104e1815180928185528580860191016104a7565b601f01601f1916010190565b9060206104fe9281815201906104c8565b90565b3461039f575f806003193601126106465760405190807f7c712897014dbe49c045ef1299aa2d5f9e67e48eea4403efa21f1e0f3ac0cb00549060019180831c9280821692831561063c575b60209283861085146106285785885260208801949081156106075750600114610590575b61058c8761058081890382610731565b604051918291826104ed565b0390f35b7f7c712897014dbe49c045ef1299aa2d5f9e67e48eea4403efa21f1e0f3ac0cb005f5294509192917fda13dda7583a39a3cd73e8830529c760837228fa4683752c823b17e10548aad55b8386106105f657505050910190506105808261058c5f80610570565b8054858701529482019481016105da565b60ff191685525050505090151560051b0190506105808261058c5f80610570565b634e487b7160e01b82526022600452602482fd5b93607f169361054c565b80fd5b3461039f57602036600319011261039f576004355f525f80516020613f47833981519152602052602060018060a01b0360405f205416604051908152f35b6001600160a01b0381160361039f57565b634e487b7160e01b5f52604160045260245ffd5b6001600160401b0381116106bf57604052565b610698565b604081019081106001600160401b038211176106bf57604052565b602081019081106001600160401b038211176106bf57604052565b60c081019081106001600160401b038211176106bf57604052565b61010081019081106001600160401b038211176106bf57604052565b90601f801991011681019081106001600160401b038211176106bf57604052565b6040519061075f826106c4565b565b6001600160401b0381116106bf57601f01601f191660200190565b92919261078882610761565b916107966040519384610731565b82948184528183011161039f578281602093845f960137010152565b9080601f8301121561039f578160206104fe9335910161077c565b3461039f57608036600319011261039f576107e9600435610687565b6107f4602435610687565b6064356001600160401b03811161039f576108139036906004016107b2565b505f80516020614027833981519152546001600160a01b0316300361084457604051630a85bd0160e11b8152602090f35b604051637485328f60e11b8152600490fd5b6001600160401b0381116106bf5760051b60200190565b81601f8201121561039f5780359161088483610856565b926108926040519485610731565b808452602092838086019260051b82010192831161039f578301905b8282106108bc575050505090565b83809183356108ca81610687565b8152019101906108ae565b81601f8201121561039f578035916108ec83610856565b926108fa6040519485610731565b808452602092838086019260051b82010192831161039f578301905b828210610924575050505090565b81358152908301908301610916565b9080601f8301121561039f5781359061094b82610856565b926109596040519485610731565b828452602092838086019160051b8301019280841161039f57848301915b8483106109875750505050505090565b82356001600160401b03811161039f5786916109a8848480948901016107b2565b815201920191610977565b608060031982011261039f576001600160401b039160043583811161039f57826109df9160040161086d565b9260243581811161039f57836109f7916004016108d5565b9260443591821161039f57610a0e91600401610933565b9060643590565b3461039f57610a32610a26366109b3565b818385969394956121cc565b610a3b81612a25565b505f805160206140278339815191528054909290610a69906001600160a01b03165b6001600160a01b031690565b916040948551808095630d48571f60e31b8252602096879160049485915afa908115610bf757610aaa91610aa5915f91610ce8575b50426123d9565b613a10565b975f5b898251821015610c4857610b4888868c610b288b610b1a8f97610b0a8a610b0381610afd8f9d82610aea610a5d610af0935460018060a01b031690565b9f6126da565b516001600160a01b031690565b996126da565b51946126da565b5194519485938885019788613311565b03601f198101835282610731565b5190208c518093819263f2b0653760e01b83528983019190602083019252565b0381855afa908115610bf7575f91610c1b575b50610bfc579087878b93875f8f610bab8a91610b9089610b8981610b838f82610af0916126da565b986126da565b51986126da565b519951633a66f90160e01b8152998a97889687958601613311565b03925af1918215610bf757610bc592610bca575b506126b8565b610aad565b610be990893d8b11610bf0575b610be18183610731565b810190612fef565b505f610bbf565b503d610bd7565b612d25565b895163f20e7d3760e01b815280850187815281906020010390fd5b0390fd5b610c3b9150893d8b11610c41575b610c338183610731565b810190613358565b5f610b5b565b503d610c29565b858a8565ffffffffffff841615610cda57507f9a2e42fd6722813d69113e7d0079d3d940171428df7373df9c7f7617cfda2892610cc984610cab61058c966001610c9188612230565b019065ffffffffffff1665ffffffffffff19825416179055565b835185815265ffffffffffff90911660208201529081906040820190565b0390a1519081529081906020820190565b9051634844252360e11b8152fd5b610cff9150883d8a11610bf057610be18183610731565b5f610a9e565b610d1e610d11366109b3565b81838594959693966121cc565b91610d2883612a77565b50610d48610d3584612230565b805460ff60f01b1916600160f01b179055565b5f80516020614027833981519152805490926001600160a01b03929183163003610e1f575b61058c95610d919392610d8092876133e2565b91543092166001600160a01b031690565b141580610df4575b610dda575b6040518181527f712ae1383f79ac853f8d882153778e0260ef8f03b504e2866e0593e04d2b291f90602090a16040519081529081906020820190565b610def5f5f8051602061400783398151915255565b610d9e565b505f80516020614007833981519152546001600160801b03811660809190911c1415610d99565b1590565b929093915f5b8451811015610e7157610e4d9030610e43610a5d610af0848a6126da565b14610e52576126b8565b610e25565b610e6c610e5f828a6126da565b5160208151910120613e44565b6126b8565b5091939092610d6d565b3461039f57602036600319011261039f576004355f525f80516020613f47833981519152602052602065ffffffffffff60405f205460a01c16604051908152f35b3461039f575f36600319011261039f5760206040517f3e83946653575f9a39005e1545185629e92736b7528ab20ca3816f315424a8118152f35b3461039f575f36600319011261039f57602065ffffffffffff5f80516020613f678339815191525416604051908152f35b634e487b7160e01b5f52602160045260245ffd5b60081115610f4557565b610f27565b906008821015610f455752565b3461039f57602036600319011261039f576020610f75600435613086565b610f826040518092610f4a565bf35b3461039f57604036600319011261039f57602060ff610fd9602435610fa881610687565b6004355f525f80516020613fe78339815191528452600360405f20019060018060a01b03165f5260205260405f2090565b54166040519015158152f35b3461039f57610ff3366109b3565b906110028282858796976121cc565b61100b81613086565b6008811015610f455760018060ff83161b161561108157505f9081525f80516020613f4783398151915260205260409020546001600160a01b031633036110695761058c9361105993613505565b6040519081529081906020820190565b60405163233d98e360e01b8152336004820152602490fd5b906110a5606492604051926331b75e4d60e01b845260048401526024830190610f4a565b60016044820152fd5b3461039f575f36600319011261039f5761058c6110c9612f46565b6040519182916020835260208301906104c8565b3461039f57602036600319011261039f576004355f525f80516020613fe783398151915260205260405f20805461058c60026001840154930154604051938493846040919493926060820195825260208201520152565b3461039f575f36600319011261039f5761058c604051611153816106c4565b60018152603160f81b60208201526040519182916020835260208301906104c8565b6024359060ff8216820361039f57565b3461039f57604036600319011261039f5760206111cb6111a3611175565b6040516111af816106df565b5f8152604051916111bf836106df565b5f835233600435612848565b604051908152f35b9181601f8401121561039f578235916001600160401b03831161039f576020838186019501011161039f57565b3461039f5760c036600319011261039f57611219611175565b6044359061122682610687565b6001600160401b039060643582811161039f576112479036906004016111d3565b60843584811161039f5761125f9036906004016107b2565b9160a43594851161039f5761058c9561127f6110599636906004016107b2565b946004356126f3565b3461039f57608036600319011261039f576112a1611175565b6001600160401b039060443582811161039f576112c29036906004016111d3565b909160643593841161039f576112ed6111cb936112e560209636906004016107b2565b93369161077c565b9033600435612848565b3461039f57602036600319011261039f5760206111cb600435612d30565b65ffffffffffff81160361039f57565b3461039f57602036600319011261039f5760043561134281611315565b61134a61297e565b5f80516020613f678339815191529081547fc565b045403dc03c2eea82b81a0465edad9e2e7fc4d97e11421c209da93d7a93604080519365ffffffffffff9081851686521693846020820152a165ffffffffffff1916179055005b3461039f57606036600319011261039f576113be611175565b6044356001600160401b03811161039f576020916113ed6113e66111cb9336906004016111d3565b369161077c565b604051916111bf836106df565b3461039f57608036600319011261039f576001600160401b0360043581811161039f5761142b90369060040161086d565b9060243581811161039f576114449036906004016108d5565b9160443582811161039f5761145d903690600401610933565b60643592831161039f573660238401121561039f5761058c9361148d61105994369060248160040135910161077c565b9261229a565b3461039f57602036600319011261039f576004356114b081610687565b60018060a01b03165f527f5ab42ced628888259c08ac98db1eb0cf702fc1501344311d8b100cd1bfe4bb00602052602060405f2054604051908152f35b9081518082526020808093019301915f5b82811061150c575050505090565b8351855293810193928101926001016114fe565b91611555906115476104fe97959693600f60f81b865260e0602087015260e08601906104c8565b9084820360408601526104c8565b60608301949094526001600160a01b031660808201525f60a082015280830360c0909101526114ed565b3461039f575f36600319011261039f577fa16a46d94261c7517cc8ff89f61c0ce93598e3c849801011dee649a6a557d100541580611626575b156115e9576115c5611f0e565b6115cd612036565b9061058c6115d9613765565b6040519384933091469186611520565b60405162461bcd60e51b81526020600482015260156024820152741152540dcc4c8e88155b9a5b9a5d1a585b1a5e9959605a1b6044820152606490fd5b507fa16a46d94261c7517cc8ff89f61c0ce93598e3c849801011dee649a6a557d10154156115b8565b3461039f57608036600319011261039f5760043561166b611175565b906044359161167983610687565b6064356001600160401b03811161039f57610e1b61169e6117129236906004016107b2565b61170c6116aa876136a4565b60405160208101917ff2aad550cf55f045cb27e9c559f9889fdfb6e6cdaa032301d6ea397784ae51d7835288604083015260ff8816606083015260018060a01b038a16608083015260a082015260a08152611704816106fa565b5190206136e5565b86613895565b61172d57906110599161058c9361172761212a565b926127cd565b6040516394ab6c0760e01b81526001600160a01b0384166004820152602490fd5b3461039f575f36600319011261039f576020611768612e53565b65ffffffffffff60405191168152f35b3461039f575f36600319011261039f57602060405160648152f35b3461039f57606036600319011261039f576004356117b081610687565b6044356001600160401b03811161039f576117cf9036906004016107b2565b505f80516020613fa783398151915254604051630748d63560e31b81526001600160a01b03928316600482015260248035908201529160209183916044918391165afa8015610bf75761058c915f91611834575b506040519081529081906020820190565b61184c915060203d8111610bf057610be18183610731565b5f611823565b3461039f575f36600319011261039f5760206001600160d01b03611874613bc2565b16604051908152f35b3461039f57602036600319011261039f5760043561189a81610687565b6118a261297e565b5f805160206140278339815191528054604080516001600160a01b0380841682529094166020850181905292937f08f74ea46ef7894f65eabfb5e6e695de773a000b47c529ab559178069b2264019190a16001600160a01b031916179055005b3461039f57602036600319011261039f57602060405160018152f35b3461039f57602036600319011261039f576004355f525f80516020613f47833981519152602052602065ffffffffffff600160405f20015416604051908152f35b3461039f575f36600319011261039f5760205f80516020613fc783398151915254604051908152f35b3461039f575f80600319360112610646575f805160206140278339815191525481906001600160a01b0316803b156119eb578190600460405180948193630e18b68160e01b83525af18015610bf7576119df575080f35b6119e8906106ac565b80f35b50fd5b3461039f5760a036600319011261039f57611a0a600435610687565b611a15602435610687565b6001600160401b0360443581811161039f57611a359036906004016108d5565b5060643581811161039f57611a4e9036906004016108d5565b5060843590811161039f57611a679036906004016107b2565b5061058c611a736129fc565b6040516001600160e01b031990911681529081906020820190565b3461039f57602036600319011261039f5760206111cb60043561225e565b606036600319011261039f57600435611ac481610687565b604435906001600160401b03821161039f575f8091611aea6100209436906004016111d3565b90611af361297e565b81604051928392833781018481520391602435905af1611b1161294f565b9061387e565b3461039f5760206111cb611b2a366109b3565b929190916121cc565b3461039f575f36600319011261039f575f80516020614027833981519152546040516001600160a01b039091168152602090f35b3461039f575f36600319011261039f5761058c604051611b86816106c4565b602081527f737570706f72743d627261766f2671756f72756d3d666f722c6162737461696e60208201526040519182916020835260208301906104c8565b3461039f575f36600319011261039f5760206040517ff2aad550cf55f045cb27e9c559f9889fdfb6e6cdaa032301d6ea397784ae51d78152f35b3461039f57602036600319011261039f5763ffffffff6004358181169081810361039f57611c2a61297e565b8115611c945763ffffffff60301b907f7e3f7f0708a84de9203036abaa450dccc85ad5ff52f78c170f3edb55cf5e882860405f80516020613f67833981519152958654958251918760301c1682526020820152a160301b169063ffffffff60301b19161790555f80f35b60405163f1cfbf0560e01b81525f6004820152602490fd5b3461039f57604036600319011261039f57600435611cc981610687565b5f604051611cd6816106df565b525f80516020613fa783398151915254604051630748d63560e31b81526001600160a01b03928316600482015260248035908201529160209183916044918391165afa8015610bf75761058c915f9161183457506040519081529081906020820190565b3461039f57602036600319011261039f57600435611d5661297e565b5f80516020613fc7833981519152805460408051918252602082018490527fccb45da8d5717e6c4544694297c4ba5cf151d455c9bb0ed4fc7a38411bc0546191a155005b3461039f5760a036600319011261039f57611db6600435610687565b611dc1602435610687565b6084356001600160401b03811161039f57611de09036906004016107b2565b505f80516020614027833981519152546001600160a01b031630036108445760405163f23a6e6160e01b8152602090f35b3461039f57602036600319011261039f576024600435602060018060a01b035f80516020613fa7833981519152541660405193848092632394e7a360e21b82528560048301525afa918215610bf7575f92611e96575b50611e7190612d30565b90818102918183041490151715611e915760405160649091048152602090f35b61224a565b611e71919250611eb39060203d8111610bf057610be18183610731565b9190611e67565b3461039f575f36600319011261039f575f80516020613fa7833981519152546040516001600160a01b039091168152602090f35b5f80516020614027833981519152546001600160a01b0316300361084457565b604051905f7fa16a46d94261c7517cc8ff89f61c0ce93598e3c849801011dee649a6a557d1025490600182811c9281811691821561202c575b602091828610841461201857858852879493602086019392918115611ff95750600114611f7e575b50505061075f92500383610731565b7fa16a46d94261c7517cc8ff89f61c0ce93598e3c849801011dee649a6a557d1025f5290949092507f42ad5d3e1f2e6e70edcf6d991b8a3023d3fca8047a131592f9edb9fd9b89d57d945f935b828510611fe35750505061075f9350015f8080611f6f565b8654858501529586019588955093810193611fcb565b9250505061075f9491925060ff19168252151560051b015f8080611f6f565b634e487b7160e01b85526022600452602485fd5b93607f1693611f47565b604051905f7fa16a46d94261c7517cc8ff89f61c0ce93598e3c849801011dee649a6a557d1035490600182811c92818116918215612120575b602091828610841461201857858852879493602086019392918115611ff957506001146120a55750505061075f92500383610731565b7fa16a46d94261c7517cc8ff89f61c0ce93598e3c849801011dee649a6a557d1035f5290949092507f5f9ce34815f8e11431c7bb75a8e6886a91478f7ffc1dbb0a98dc240fddd76b75945f935b82851061210a5750505061075f9350015f8080611f6f565b86548585015295860195889550938101936120f2565b93607f169361206f565b60405190612137826106df565b5f8252565b9081518082526020808093019301915f5b82811061215b575050505090565b83516001600160a01b03168552938101939281019260010161214d565b90815180825260208092019182818360051b82019501935f915b8483106121a25750505050505090565b90919293949584806121bc83856001950387528a516104c8565b9801930193019194939290612192565b92906122189261222a926040519485926122086121f5602086019960808b5260a087019061213c565b601f1996878783030160408801526114ed565b9085858303016060860152612178565b90608083015203908101835282610731565b51902090565b5f525f80516020613f4783398151915260205260405f2090565b634e487b7160e01b5f52601160045260245ffd5b5f525f80516020613f4783398151915260205260405f205465ffffffffffff908163ffffffff8260d01c169160a01c1601818111611e91571690565b91939290936122a98233612af7565b156123945765ffffffffffff945f19866122c1612e53565b160195808711611e91576020905f6040516122db816106df565b525f80516020613fa783398151915254604051630748d63560e31b8152336004820152989091166024890152879060449082906001600160a01b03165afa958615610bf7575f96612374575b505f80516020613fc7833981519152549586811061234d57506104fe94955033936124fc565b604051636121770b60e11b8152336004820152602481019190915260448101879052606490fd5b61238d91965060203d8111610bf057610be18183610731565b945f612327565b60405163d9b3955760e01b8152336004820152602490fd5b6040906123c75f939594606083019683526020830190610f4a565b0152565b9060018201809211611e9157565b91908201809211611e9157565b906123f082610856565b6123fd6040519182610731565b828152809261240e601f1991610856565b01905f5b82811061241e57505050565b806060602080938501015201612412565b959261246290612470939b9a9899969592885260209b60018060a01b03168c8901526101208060408a015288019061213c565b9086820360608801526114ed565b9784890360808601528251808a52818a019180808360051b8d01019501925f905b8382106124ce5750505050506104fe969750906124b59184820360a0860152612178565b9360c083015260e08201526101008184039101526104c8565b909192939583806124ed8f93600194601f199082030186528a516104c8565b98019201920190939291612491565b919493909294612514865160208801208286866121cc565b9583518551908181148015906126ad575b80156126a5575b61267c57505065ffffffffffff94856125566125478a612230565b5460a01c65ffffffffffff1690565b16612655577f7d84a6263ae0d98d3329bd7b46bb4e8d6f98cd35a7adb45c274c8b7fd5ebd5e0956126509363ffffffff6125ab612591612e53565b5f80516020613f67833981519152549480861691166123d9565b9260301c1661262e6125bc8c612230565b80546001600160a01b0319166001600160a01b038a161781556126056125e186613a10565b825465ffffffffffff60a01b191660a09190911b65ffffffffffff60a01b16178255565b61260e83613a42565b815463ffffffff60d01b191660d09190911b63ffffffff60d01b16179055565b61264261263b89516123e6565b91846123d9565b936040519889988d8a61242f565b0390a1565b8761265f81613086565b6040516331b75e4d60e01b8152918291610c1791600484016123ac565b8351604051630447b05d60e41b8152600481019290925260248201526044810191909152606490fd5b50801561252c565b508351811415612525565b5f198114611e915760010190565b634e487b7160e01b5f52603260045260245ffd5b80518210156126ee5760209160051b010190565b6126c6565b939092919695610e1b6127919161278b8a61270d816136a4565b61271836888a61077c565b602081519101208b5160208d0120906040519260208401947f3e83946653575f9a39005e1545185629e92736b7528ab20ca3816f315424a81186528d604086015260ff8d16606086015260018060a01b0316608085015260a084015260c083015260e082015260e0815261170481610715565b8a613895565b6127ac576104fe9596916127a691369161077c565b92612848565b6040516394ab6c0760e01b81526001600160a01b0388166004820152602490fd5b916104fe9391604051936127e0856106df565b5f8552612848565b93909260ff612814936104fe97958752166020860152604085015260a0606085015260a08401906104c8565b9160808184039101526104c8565b909260ff6080936104fe96958452166020830152604082015281606082015201906104c8565b92919061285484613086565b6008811015610f45576002600160ff83161b1615612921575061289061288a61287f61254787612230565b65ffffffffffff1690565b82612ffe565b9461289d86848488612c32565b80516128e557506128df7fb8e138887d0aa13bab447e82de9d5c1777041ecd21ca36ba824ff1e6c07ddda4938660405194859460018060a01b03169785612822565b0390a290565b6128df907fe2babfbac5889a709b63bb7f598b324e08bc5a4fb9ec647fb3cbc9ec07eb8712948760405195869560018060a01b031698866127e8565b6040516331b75e4d60e01b815260048101869052606491612946906024830190610f4a565b60026044820152fd5b3d15612979573d9061296082610761565b9161296e6040519384610731565b82523d5f602084013e565b606090565b5f80516020614027833981519152546001600160a01b03163381036129e45730036129a557565b6129ae36610761565b6129bb6040519182610731565b3681526020810190365f83375f602036830101525190205b806129dc613ec8565b036129d35750565b6040516347096e4760e01b8152336004820152602490fd5b5f80516020614027833981519152546001600160a01b031630036108445763bc197c8160e01b90565b612a2e81613086565b906008821015610f45576010600160ff84161b1615612a4b575090565b612a6e606492604051926331b75e4d60e01b845260048401526024830190610f4a565b60106044820152fd5b612a8081613086565b906008821015610f45576030600160ff84161b1615612a9d575090565b612ac0606492604051926331b75e4d60e01b845260048401526024830190610f4a565b60306044820152fd5b602719810191908211611e9157565b5f19810191908211611e9157565b9081518110156126ee570160200190565b815160348110612bad5760131981840101516001600160a01b0319166b1b91f1b211f2119351b859f160a31b01612bad57915f92612b3481612ac9565b915b818310612b51575050506001600160a01b0391821691161490565b909193612b77612b72612b648785612ae6565b516001600160f81b03191690565b612bb5565b919015612ba25760041b6010600160a01b031660ff919091161793612b9b906126b8565b9190612b36565b505050505050600190565b505050600190565b60f81c9081602f1080612c28575b15612bd557600191602f190160ff1690565b8160401080612c1e575b15612bf1576001916036190160ff1690565b8160601080612c14575b15612c0d576001916056190160ff1690565b5f91508190565b5060678210612bfb565b5060478210612bdf565b50603a8210612bc3565b612c53909291925f525f80516020613fe783398151915260205260405f2090565b9160038301612c7c612c7583839060018060a01b03165f5260205260405f2090565b5460ff1690565b612d0457612ca060ff9392612cad929060018060a01b03165f5260205260405f2090565b805460ff19166001179055565b1680612cc4575090612cc09082546123d9565b9055565b60018103612cdc57506001612cc091019182546123d9565b600203612cf2576002612cc091019182546123d9565b6040516303599be160e11b8152600490fd5b6040516371c6af4960e01b81526001600160a01b0383166004820152602490fd5b6040513d5f823e3d90fd5b5f80516020613f8783398151915280545f199290838101818111611e91578111156126ee575f9383855281602086200101549165ffffffffffff92818482161115612e475750612d7f90613a10565b8491809360058211612dfd575b5050612d989350613dbf565b80612dab57505b6001600160d01b031690565b612df89150612dbc612df191612ad8565b5f80516020613f878339815191525f527f293b0181c8ec34cd3252e741689bdc21b70ee7a0ec76216439035a5c3718909b0190565b5460301c90565b612d9f565b612e0982939592613a72565b8303928311611e9157612d98958752808360208920015416908516105f14612e355750915b5f80612d8c565b929150612e41906123cb565b90612e2e565b94505050505060301c90565b5f80516020613fa7833981519152546040516324776b7d60e21b815290602090829060049082906001600160a01b03165afa5f9181612e9c575b506104fe57506104fe43613a10565b90916020823d8211612ed0575b81612eb660209383610731565b81010312610646575051612ec981611315565b905f612e8d565b3d9150612ea9565b90929192612ee581610761565b91612ef36040519384610731565b82948284528282011161039f57602061075f9301906104a7565b60405190612f1a826106c4565b601d82527f6d6f64653d626c6f636b6e756d6265722666726f6d3d64656661756c740000006020830152565b5f80516020613fa783398151915254604051634bf5d7e960e01b8152905f908190839060049082906001600160a01b03165afa90918282612f91575b50506104fe57506104fe612f0d565b909192503d8082843e612fa48184610731565b820191602081840312612feb578051906001600160401b038211612fe757019082601f8301121561064657508051612fdf9291602001612ed8565b905f80612f82565b8280fd5b5080fd5b9081602091031261039f575190565b5f80516020613fa783398151915254604051630748d63560e31b81526001600160a01b039283166004820152602481019390935260209183916044918391165afa908115610bf7575f91613050575090565b6104fe915060203d8111610bf057610be18183610731565b8115613072570490565b634e487b7160e01b5f52601260045260245ffd5b61308f8161314b565b9061309982610f3b565b6005821490816130b0575b50156104fe5750600690565b6004915061287f60016130c56130d293612230565b015465ffffffffffff1690565b5f80516020614027833981519152546020906130f6906001600160a01b0316610a5d565b6040516360d143f160e11b815293849182905afa908115610bf757613122925f9261312b575b506123d9565b4210155f6130a4565b61314491925060203d8111610bf057610be18183610731565b905f61311c565b61315481612230565b5460ff8160f01c166132345760f81c61322e5761317661287f61254783612230565b80156132155761318761287f612e53565b8091101561320f576131988261225e565b106131a35750600190565b6131af610e1b8261323b565b80156131e0575b156131c15750600390565b61287f60016130c56131d293612230565b6131db57600490565b600590565b5061320a610e1b825f525f80516020613fe783398151915260205260405f20600181015490541090565b6131b6565b50505f90565b604051636ad0607560e01b815260048101839052602490fd5b50600290565b5050600790565b5f525f80516020613fe7833981519152602052602460405f205f80516020613f4783398151915260205265ffffffffffff60405f205460a01c16602060018060a01b035f80516020613fa7833981519152541660405194858092632394e7a360e21b82528560048301525afa928315610bf7575f936132ed575b506132bf90612d30565b91828102928184041490151715611e91576132e681600260016064940154910154906123d9565b9104111590565b6132bf91935061330a9060203d8111610bf057610be18183610731565b92906132b5565b926133519060809365ffffffffffff9397969760018060a01b03168652602086015260a060408601525f60a086015260c0606086015260c08501906104c8565b9416910152565b9081602091031261039f5751801515810361039f5790565b60208183031261039f578051906001600160401b03821161039f57019080601f8301121561039f5781516104fe92602001612ed8565b9493926080926133dd9260018060a01b03168752602087015260a060408701525f60a087015260c0606087015260c08601906104c8565b930152565b9290916001926133f861287f856130c588612230565b9485156134eb57505f80516020614027833981519152805490939061343090613429906001600160a01b0316610a5d565b349061382a565b5f9384865b613444575b5050505050505050565b83518110156134e65781548891908790613466906001600160a01b0316610a5d565b613473610af084896126da565b9061347e848a6126da565b518361348a868a6126da565b51936134ac60405198899687958694630825f38f60e01b8652600486016133a6565b03925af1918215610bf7576134c5926134cb57506126b8565b86613435565b610be9903d808a833e6134de8183610731565b810190613370565b61343a565b60405163d5ddb82560e01b81526004810191909152602490fd5b919092613514908285856135fe565b9260019161352861287f846130c588612230565b9384613537575b505050505090565b5f845b613545575b5061352f565b81518110156135f9575f805160206140278339815191525461356f906001600160a01b0316610a5d565b9061357d610af082856126da565b61358782876126da565b519261359383876126da565b5190803b1561039f5789945f80946135c160405198899687958694632c8fe6ff60e11b8652600486016133a6565b03925af1918215610bf7576135da926135e057506126b8565b8461353a565b806135ed6135f3926106ac565b806103a3565b5f610bbf565b61353f565b9061360a9392916121cc565b61361381613086565b6008811015610f4557603b600160ff83161b1615613677575061363581612230565b80546001600160f81b0316600160f81b1790556040518181527f789cf55be980739dad1d0699b93b58e806b51c9d96619bfa8fe0a28abaa7b30c90602090a190565b9061369b606492604051926331b75e4d60e01b845260048401526024830190610f4a565b603b6044820152fd5b6001600160a01b03165f9081527f5ab42ced628888259c08ac98db1eb0cf702fc1501344311d8b100cd1bfe4bb006020526040902080546001810190915590565b6042906136f061377b565b6136f86137e5565b6040519060208201927f8b73c3c69bb8fe3d512ecc4cf759cc79239f7b179b0ffacaa9a75d522b39400f8452604083015260608201524660808201523060a082015260a08152613747816106fa565b519020906040519161190160f01b8352600283015260228201522090565b604051613771816106df565b5f8152905f368137565b613783611f0e565b8051908115613793576020012090565b50507fa16a46d94261c7517cc8ff89f61c0ce93598e3c849801011dee649a6a557d1005480156137c05790565b507fc5d2460186f7233c927e7db2dcc703c0e500b653ca82273b7bfad8045d85a47090565b6137ed612036565b80519081156137fd576020012090565b50507fa16a46d94261c7517cc8ff89f61c0ce93598e3c849801011dee649a6a557d1015480156137c05790565b814710613866575f918291829182916001600160a01b03165af161384c61294f565b501561385457565b604051630a12f52160e11b8152600490fd5b60405163cd78605960e01b8152306004820152602490fd5b90919061075f575080511561385457805190602001fd5b61389f838361395e565b506004819592951015610f4557159384613948575b5083156138c2575b50505090565b5f9293509082916040516138fa81610b1a6020820194630b135d3f60e11b998a875260248401526040604484015260648301906104c8565b51915afa9061390761294f565b8261393a575b8261391d575b50505f80806138bc565b61393291925060208082518301019101612fef565b145f80613913565b91506020825110159161390d565b6001600160a01b0383811691161493505f6138b4565b815191906041830361398e576139879250602082015190606060408401519301515f1a90613998565b9192909190565b50505f9160029190565b91906fa2a8918ca85bafe22016d0b997e4df60600160ff1b038411613a0557926020929160ff6080956040519485521684840152604083015260608201525f92839182805260015afa15610bf75780516001600160a01b038116156139fc57918190565b50809160019190565b5050505f9160039190565b65ffffffffffff90818111613a23571690565b604490604051906306dfcc6560e41b8252603060048301526024820152fd5b63ffffffff90818111613a53571690565b604490604051906306dfcc6560e41b8252602060048301526024820152fd5b8015613bab5780613b44613b3d613b33613b29613b1f613b15613b0b613b0160016104fe9a5f908b60801c80613b9f575b508060401c80613b92575b508060201c80613b85575b508060101c80613b78575b508060081c80613b6b575b508060041c80613b5e575b508060021c80613b51575b50821c613b4a575b811c1b613afa818b613068565b0160011c90565b613afa818a613068565b613afa8189613068565b613afa8188613068565b613afa8187613068565b613afa8186613068565b613afa8185613068565b8092613068565b90613bb0565b8101613aed565b600291509101905f613ae5565b600491509101905f613ada565b600891509101905f613acf565b601091509101905f613ac4565b602091509101905f613ab9565b604091509101905f613aae565b9150506080905f613aa3565b505f90565b9080821015613bbd575090565b905090565b5f80516020613f8783398151915280545f9181613be0575050505f90565b5f19928284810111611e915760209181522001015460301c90565b5f80516020613f87833981519152908154600160401b8110156106bf57600181018084558110156126ee5761075f925f5260205f200190613c5965ffffffffffff825116839065ffffffffffff1665ffffffffffff19825416179055565b60200151815465ffffffffffff1660309190911b65ffffffffffff1916179055565b90604051604081018181106001600160401b038211176106bf57604052915465ffffffffffff8116835260301c6020830152565b5f80516020613f8783398151915254919291908115613d9657613cdc613cd7612dbc84612ad8565b613c7b565b805165ffffffffffff8381169491168410613d845785602093613d4895613d0c61287f865165ffffffffffff1690565b03613d4c5750613d21612dbc613d3a93612ad8565b9065ffffffffffff82549181199060301b169116179055565b01516001600160d01b031690565b9190565b9050613d7f9150613d6c613d5e610752565b65ffffffffffff9092168252565b6001600160d01b03871681850152613bfb565b613d3a565b604051632520601d60e01b8152600490fd5b613dba9150613da6613d5e610752565b6001600160d01b0384166020820152613bfb565b5f9190565b905b828110613dcd57505090565b90918082169080831860011c8201809211611e91575f80516020613f878339815191525f527f293b0181c8ec34cd3252e741689bdc21b70ee7a0ec76216439035a5c3718909b82015465ffffffffffff9081169085161015613e325750915b90613dc1565b929150613e3e906123cb565b90613e2c565b5f805160206140078339815191529081548060801c91600183019260018060801b0380931683851614613eb6575f9081527f7c712897014dbe49c045ef1299aa2d5f9e67e48eea4403efa21f1e0f3ac0cb03602052604090205582541660809190911b6001600160801b031916179055565b604051638acb5f2760e01b8152600490fd5b5f8051602061400783398151915280546001600160801b0380821693929160801c8414613f3457835f527f7c712897014dbe49c045ef1299aa2d5f9e67e48eea4403efa21f1e0f3ac0cb03602052600160405f20945f86549655011660018060801b0319825416179055565b6040516375e52f4f60e01b8152600490fdfe7c712897014dbe49c045ef1299aa2d5f9e67e48eea4403efa21f1e0f3ac0cb0100d7616c8fe29c6c2fbe1d0c5bc8f2faa4c35b43746e70b24b4d532752affd01e770710421fd2cad75ad828c61aa98f2d77d423a440b67872d0f65554148e0003ba4977254e415696610a40ebf2258dbfa0ec6a2ff64e84bfe715ff16977cc0000d7616c8fe29c6c2fbe1d0c5bc8f2faa4c35b43746e70b24b4d532752affd00a1cefa0f43667ef127a258e673c94202a79b656e62899531c4376d87a7f398007c712897014dbe49c045ef1299aa2d5f9e67e48eea4403efa21f1e0f3ac0cb027d1501d734d0ca30b8d26751a7fae89646767b24afe11265192d56e5fe515b00a2646970667358221220d2ceb07023c9460b527b93b5154913ffbdc99b472b5a842ddf7a8ac8e3d124a264736f6c63430008140033","linkReferences":{}},"methodIdentifiers":{"BALLOT_TYPEHASH()":"deaaa7cc","CLOCK_MODE()":"4bf5d7e9","COUNTING_MODE()":"dd4e2ba5","EXTENDED_BALLOT_TYPEHASH()":"2fe3e261","__acceptAdmin()":"b9a61961","cancel(address[],uint256[],bytes[],bytes32)":"452115d6","castVote(uint256,uint8)":"56781388","castVoteBySig(uint256,uint8,address,bytes)":"8ff262e3","castVoteWithReason(uint256,uint8,string)":"7b3c71d3","castVoteWithReasonAndParams(uint256,uint8,string,bytes)":"5f398a14","castVoteWithReasonAndParamsBySig(uint256,uint8,address,string,bytes,bytes)":"5b8d0e0d","clock()":"91ddadf4","eip712Domain()":"84b0196e","execute(address[],uint256[],bytes[],bytes32)":"2656227d","getVotes(address,uint256)":"eb9019d4","getVotesWithParams(address,uint256,bytes)":"9a802a6d","hasVoted(uint256,address)":"43859632","hashProposal(address[],uint256[],bytes[],bytes32)":"c59057e4","name()":"06fdde03","nonces(address)":"7ecebe00","onERC1155BatchReceived(address,address,uint256[],uint256[],bytes)":"bc197c81","onERC1155Received(address,address,uint256,uint256,bytes)":"f23a6e61","onERC721Received(address,address,uint256,bytes)":"150b7a02","proposalDeadline(uint256)":"c01f9e37","proposalEta(uint256)":"ab58fb8e","proposalNeedsQueuing(uint256)":"a9a95294","proposalProposer(uint256)":"143489d0","proposalSnapshot(uint256)":"2d63f693","proposalThreshold()":"b58131b0","proposalVotes(uint256)":"544ffc9c","propose(address[],uint256[],bytes[],string)":"7d5e81e2","queue(address[],uint256[],bytes[],bytes32)":"160cbed7","quorum(uint256)":"f8ce560a","quorumDenominator()":"97c3d334","quorumNumerator()":"a7713a70","quorumNumerator(uint256)":"60c4247f","relay(address,uint256,bytes)":"c28bc2fa","setProposalThreshold(uint256)":"ece40cc1","setVotingDelay(uint48)":"79051887","setVotingPeriod(uint32)":"e540d01d","state(uint256)":"3e4f49e6","supportsInterface(bytes4)":"01ffc9a7","timelock()":"d33219b4","token()":"fc0c546a","updateQuorumNumerator(uint256)":"06f3f9e6","updateTimelock(address)":"a890c910","version()":"54fd4d50","votingDelay()":"3932abb1","votingPeriod()":"02a251a3"},"id":104}