{"abi":[{"type":"constructor","inputs":[{"name":"_token","type":"address","internalType":"contract IVotes"},{"name":"_timelock","type":"address","internalType":"contract TimelockControllerUpgradeable"}],"stateMutability":"payable"},{"type":"receive","stateMutability":"payable"},{"type":"function","name":"BALLOT_TYPEHASH","inputs":[],"outputs":[{"name":"","type":"bytes32","internalType":"bytes32"}],"stateMutability":"view"},{"type":"function","name":"CLOCK_MODE","inputs":[],"outputs":[{"name":"","type":"string","internalType":"string"}],"stateMutability":"view"},{"type":"function","name":"COUNTING_MODE","inputs":[],"outputs":[{"name":"","type":"string","internalType":"string"}],"stateMutability":"pure"},{"type":"function","name":"EXTENDED_BALLOT_TYPEHASH","inputs":[],"outputs":[{"name":"","type":"bytes32","internalType":"bytes32"}],"stateMutability":"view"},{"type":"function","name":"cancel","inputs":[{"name":"targets","type":"address[]","internalType":"address[]"},{"name":"values","type":"uint256[]","internalType":"uint256[]"},{"name":"calldatas","type":"bytes[]","internalType":"bytes[]"},{"name":"descriptionHash","type":"bytes32","internalType":"bytes32"}],"outputs":[{"name":"","type":"uint256","internalType":"uint256"}],"stateMutability":"nonpayable"},{"type":"function","name":"castVote","inputs":[{"name":"proposalId","type":"uint256","internalType":"uint256"},{"name":"support","type":"uint8","internalType":"uint8"}],"outputs":[{"name":"","type":"uint256","internalType":"uint256"}],"stateMutability":"nonpayable"},{"type":"function","name":"castVoteBySig","inputs":[{"name":"proposalId","type":"uint256","internalType":"uint256"},{"name":"support","type":"uint8","internalType":"uint8"},{"name":"voter","type":"address","internalType":"address"},{"name":"signature","type":"bytes","internalType":"bytes"}],"outputs":[{"name":"","type":"uint256","internalType":"uint256"}],"stateMutability":"nonpayable"},{"type":"function","name":"castVoteWithReason","inputs":[{"name":"proposalId","type":"uint256","internalType":"uint256"},{"name":"support","type":"uint8","internalType":"uint8"},{"name":"reason","type":"string","internalType":"string"}],"outputs":[{"name":"","type":"uint256","internalType":"uint256"}],"stateMutability":"nonpayable"},{"type":"function","name":"castVoteWithReasonAndParams","inputs":[{"name":"proposalId","type":"uint256","internalType":"uint256"},{"name":"support","type":"uint8","internalType":"uint8"},{"name":"reason","type":"string","internalType":"string"},{"name":"params","type":"bytes","internalType":"bytes"}],"outputs":[{"name":"","type":"uint256","internalType":"uint256"}],"stateMutability":"nonpayable"},{"type":"function","name":"castVoteWithReasonAndParamsBySig","inputs":[{"name":"proposalId","type":"uint256","internalType":"uint256"},{"name":"support","type":"uint8","internalType":"uint8"},{"name":"voter","type":"address","internalType":"address"},{"name":"reason","type":"string","internalType":"string"},{"name":"params","type":"bytes","internalType":"bytes"},{"name":"signature","type":"bytes","internalType":"bytes"}],"outputs":[{"name":"","type":"uint256","internalType":"uint256"}],"stateMutability":"nonpayable"},{"type":"function","name":"clock","inputs":[],"outputs":[{"name":"","type":"uint48","internalType":"uint48"}],"stateMutability":"view"},{"type":"function","name":"eip712Domain","inputs":[],"outputs":[{"name":"fields","type":"bytes1","internalType":"bytes1"},{"name":"name","type":"string","internalType":"string"},{"name":"version","type":"string","internalType":"string"},{"name":"chainId","type":"uint256","internalType":"uint256"},{"name":"verifyingContract","type":"address","internalType":"address"},{"name":"salt","type":"bytes32","internalType":"bytes32"},{"name":"extensions","type":"uint256[]","internalType":"uint256[]"}],"stateMutability":"view"},{"type":"function","name":"execute","inputs":[{"name":"targets","type":"address[]","internalType":"address[]"},{"name":"values","type":"uint256[]","internalType":"uint256[]"},{"name":"calldatas","type":"bytes[]","internalType":"bytes[]"},{"name":"descriptionHash","type":"bytes32","internalType":"bytes32"}],"outputs":[{"name":"","type":"uint256","internalType":"uint256"}],"stateMutability":"payable"},{"type":"function","name":"getVotes","inputs":[{"name":"account","type":"address","internalType":"address"},{"name":"timepoint","type":"uint256","internalType":"uint256"}],"outputs":[{"name":"","type":"uint256","internalType":"uint256"}],"stateMutability":"view"},{"type":"function","name":"getVotesWithParams","inputs":[{"name":"account","type":"address","internalType":"address"},{"name":"timepoint","type":"uint256","internalType":"uint256"},{"name":"params","type":"bytes","internalType":"bytes"}],"outputs":[{"name":"","type":"uint256","internalType":"uint256"}],"stateMutability":"view"},{"type":"function","name":"hasVoted","inputs":[{"name":"proposalId","type":"uint256","internalType":"uint256"},{"name":"account","type":"address","internalType":"address"}],"outputs":[{"name":"","type":"bool","internalType":"bool"}],"stateMutability":"view"},{"type":"function","name":"hashProposal","inputs":[{"name":"targets","type":"address[]","internalType":"address[]"},{"name":"values","type":"uint256[]","internalType":"uint256[]"},{"name":"calldatas","type":"bytes[]","internalType":"bytes[]"},{"name":"descriptionHash","type":"bytes32","internalType":"bytes32"}],"outputs":[{"name":"","type":"uint256","internalType":"uint256"}],"stateMutability":"pure"},{"type":"function","name":"name","inputs":[],"outputs":[{"name":"","type":"string","internalType":"string"}],"stateMutability":"view"},{"type":"function","name":"nonces","inputs":[{"name":"owner","type":"address","internalType":"address"}],"outputs":[{"name":"","type":"uint256","internalType":"uint256"}],"stateMutability":"view"},{"type":"function","name":"onERC1155BatchReceived","inputs":[{"name":"","type":"address","internalType":"address"},{"name":"","type":"address","internalType":"address"},{"name":"","type":"uint256[]","internalType":"uint256[]"},{"name":"","type":"uint256[]","internalType":"uint256[]"},{"name":"","type":"bytes","internalType":"bytes"}],"outputs":[{"name":"","type":"bytes4","internalType":"bytes4"}],"stateMutability":"nonpayable"},{"type":"function","name":"onERC1155Received","inputs":[{"name":"","type":"address","internalType":"address"},{"name":"","type":"address","internalType":"address"},{"name":"","type":"uint256","internalType":"uint256"},{"name":"","type":"uint256","internalType":"uint256"},{"name":"","type":"bytes","internalType":"bytes"}],"outputs":[{"name":"","type":"bytes4","internalType":"bytes4"}],"stateMutability":"nonpayable"},{"type":"function","name":"onERC721Received","inputs":[{"name":"","type":"address","internalType":"address"},{"name":"","type":"address","internalType":"address"},{"name":"","type":"uint256","internalType":"uint256"},{"name":"","type":"bytes","internalType":"bytes"}],"outputs":[{"name":"","type":"bytes4","internalType":"bytes4"}],"stateMutability":"nonpayable"},{"type":"function","name":"proposalDeadline","inputs":[{"name":"proposalId","type":"uint256","internalType":"uint256"}],"outputs":[{"name":"","type":"uint256","internalType":"uint256"}],"stateMutability":"view"},{"type":"function","name":"proposalEta","inputs":[{"name":"proposalId","type":"uint256","internalType":"uint256"}],"outputs":[{"name":"","type":"uint256","internalType":"uint256"}],"stateMutability":"view"},{"type":"function","name":"proposalNeedsQueuing","inputs":[{"name":"proposalId","type":"uint256","internalType":"uint256"}],"outputs":[{"name":"","type":"bool","internalType":"bool"}],"stateMutability":"view"},{"type":"function","name":"proposalProposer","inputs":[{"name":"proposalId","type":"uint256","internalType":"uint256"}],"outputs":[{"name":"","type":"address","internalType":"address"}],"stateMutability":"view"},{"type":"function","name":"proposalSnapshot","inputs":[{"name":"proposalId","type":"uint256","internalType":"uint256"}],"outputs":[{"name":"","type":"uint256","internalType":"uint256"}],"stateMutability":"view"},{"type":"function","name":"proposalThreshold","inputs":[],"outputs":[{"name":"","type":"uint256","internalType":"uint256"}],"stateMutability":"pure"},{"type":"function","name":"proposalVotes","inputs":[{"name":"proposalId","type":"uint256","internalType":"uint256"}],"outputs":[{"name":"againstVotes","type":"uint256","internalType":"uint256"},{"name":"forVotes","type":"uint256","internalType":"uint256"},{"name":"abstainVotes","type":"uint256","internalType":"uint256"}],"stateMutability":"view"},{"type":"function","name":"propose","inputs":[{"name":"targets","type":"address[]","internalType":"address[]"},{"name":"values","type":"uint256[]","internalType":"uint256[]"},{"name":"calldatas","type":"bytes[]","internalType":"bytes[]"},{"name":"description","type":"string","internalType":"string"}],"outputs":[{"name":"","type":"uint256","internalType":"uint256"}],"stateMutability":"nonpayable"},{"type":"function","name":"queue","inputs":[{"name":"targets","type":"address[]","internalType":"address[]"},{"name":"values","type":"uint256[]","internalType":"uint256[]"},{"name":"calldatas","type":"bytes[]","internalType":"bytes[]"},{"name":"descriptionHash","type":"bytes32","internalType":"bytes32"}],"outputs":[{"name":"","type":"uint256","internalType":"uint256"}],"stateMutability":"nonpayable"},{"type":"function","name":"quorum","inputs":[{"name":"timepoint","type":"uint256","internalType":"uint256"}],"outputs":[{"name":"","type":"uint256","internalType":"uint256"}],"stateMutability":"view"},{"type":"function","name":"quorumDenominator","inputs":[],"outputs":[{"name":"","type":"uint256","internalType":"uint256"}],"stateMutability":"view"},{"type":"function","name":"quorumNumerator","inputs":[{"name":"timepoint","type":"uint256","internalType":"uint256"}],"outputs":[{"name":"","type":"uint256","internalType":"uint256"}],"stateMutability":"view"},{"type":"function","name":"quorumNumerator","inputs":[],"outputs":[{"name":"","type":"uint256","internalType":"uint256"}],"stateMutability":"view"},{"type":"function","name":"relay","inputs":[{"name":"target","type":"address","internalType":"address"},{"name":"value","type":"uint256","internalType":"uint256"},{"name":"data","type":"bytes","internalType":"bytes"}],"outputs":[],"stateMutability":"payable"},{"type":"function","name":"state","inputs":[{"name":"proposalId","type":"uint256","internalType":"uint256"}],"outputs":[{"name":"","type":"uint8","internalType":"enum IGovernor.ProposalState"}],"stateMutability":"view"},{"type":"function","name":"supportsInterface","inputs":[{"name":"interfaceId","type":"bytes4","internalType":"bytes4"}],"outputs":[{"name":"","type":"bool","internalType":"bool"}],"stateMutability":"view"},{"type":"function","name":"timelock","inputs":[],"outputs":[{"name":"","type":"address","internalType":"address"}],"stateMutability":"view"},{"type":"function","name":"token","inputs":[],"outputs":[{"name":"","type":"address","internalType":"contract IERC5805"}],"stateMutability":"view"},{"type":"function","name":"updateQuorumNumerator","inputs":[{"name":"newQuorumNumerator","type":"uint256","internalType":"uint256"}],"outputs":[],"stateMutability":"nonpayable"},{"type":"function","name":"updateTimelock","inputs":[{"name":"newTimelock","type":"address","internalType":"contract TimelockControllerUpgradeable"}],"outputs":[],"stateMutability":"nonpayable"},{"type":"function","name":"version","inputs":[],"outputs":[{"name":"","type":"string","internalType":"string"}],"stateMutability":"view"},{"type":"function","name":"votingDelay","inputs":[],"outputs":[{"name":"","type":"uint256","internalType":"uint256"}],"stateMutability":"pure"},{"type":"function","name":"votingPeriod","inputs":[],"outputs":[{"name":"","type":"uint256","internalType":"uint256"}],"stateMutability":"pure"},{"type":"event","name":"EIP712DomainChanged","inputs":[],"anonymous":false},{"type":"event","name":"Initialized","inputs":[{"name":"version","type":"uint64","indexed":false,"internalType":"uint64"}],"anonymous":false},{"type":"event","name":"ProposalCanceled","inputs":[{"name":"proposalId","type":"uint256","indexed":false,"internalType":"uint256"}],"anonymous":false},{"type":"event","name":"ProposalCreated","inputs":[{"name":"proposalId","type":"uint256","indexed":false,"internalType":"uint256"},{"name":"proposer","type":"address","indexed":false,"internalType":"address"},{"name":"targets","type":"address[]","indexed":false,"internalType":"address[]"},{"name":"values","type":"uint256[]","indexed":false,"internalType":"uint256[]"},{"name":"signatures","type":"string[]","indexed":false,"internalType":"string[]"},{"name":"calldatas","type":"bytes[]","indexed":false,"internalType":"bytes[]"},{"name":"voteStart","type":"uint256","indexed":false,"internalType":"uint256"},{"name":"voteEnd","type":"uint256","indexed":false,"internalType":"uint256"},{"name":"description","type":"string","indexed":false,"internalType":"string"}],"anonymous":false},{"type":"event","name":"ProposalExecuted","inputs":[{"name":"proposalId","type":"uint256","indexed":false,"internalType":"uint256"}],"anonymous":false},{"type":"event","name":"ProposalQueued","inputs":[{"name":"proposalId","type":"uint256","indexed":false,"internalType":"uint256"},{"name":"etaSeconds","type":"uint256","indexed":false,"internalType":"uint256"}],"anonymous":false},{"type":"event","name":"QuorumNumeratorUpdated","inputs":[{"name":"oldQuorumNumerator","type":"uint256","indexed":false,"internalType":"uint256"},{"name":"newQuorumNumerator","type":"uint256","indexed":false,"internalType":"uint256"}],"anonymous":false},{"type":"event","name":"TimelockChange","inputs":[{"name":"oldTimelock","type":"address","indexed":false,"internalType":"address"},{"name":"newTimelock","type":"address","indexed":false,"internalType":"address"}],"anonymous":false},{"type":"event","name":"VoteCast","inputs":[{"name":"voter","type":"address","indexed":true,"internalType":"address"},{"name":"proposalId","type":"uint256","indexed":false,"internalType":"uint256"},{"name":"support","type":"uint8","indexed":false,"internalType":"uint8"},{"name":"weight","type":"uint256","indexed":false,"internalType":"uint256"},{"name":"reason","type":"string","indexed":false,"internalType":"string"}],"anonymous":false},{"type":"event","name":"VoteCastWithParams","inputs":[{"name":"voter","type":"address","indexed":true,"internalType":"address"},{"name":"proposalId","type":"uint256","indexed":false,"internalType":"uint256"},{"name":"support","type":"uint8","indexed":false,"internalType":"uint8"},{"name":"weight","type":"uint256","indexed":false,"internalType":"uint256"},{"name":"reason","type":"string","indexed":false,"internalType":"string"},{"name":"params","type":"bytes","indexed":false,"internalType":"bytes"}],"anonymous":false},{"type":"error","name":"CheckpointUnorderedInsertion","inputs":[]},{"type":"error","name":"FailedInnerCall","inputs":[]},{"type":"error","name":"GovernorAlreadyCastVote","inputs":[{"name":"voter","type":"address","internalType":"address"}]},{"type":"error","name":"GovernorAlreadyQueuedProposal","inputs":[{"name":"proposalId","type":"uint256","internalType":"uint256"}]},{"type":"error","name":"GovernorDisabledDeposit","inputs":[]},{"type":"error","name":"GovernorInsufficientProposerVotes","inputs":[{"name":"proposer","type":"address","internalType":"address"},{"name":"votes","type":"uint256","internalType":"uint256"},{"name":"threshold","type":"uint256","internalType":"uint256"}]},{"type":"error","name":"GovernorInvalidProposalLength","inputs":[{"name":"targets","type":"uint256","internalType":"uint256"},{"name":"calldatas","type":"uint256","internalType":"uint256"},{"name":"values","type":"uint256","internalType":"uint256"}]},{"type":"error","name":"GovernorInvalidQuorumFraction","inputs":[{"name":"quorumNumerator","type":"uint256","internalType":"uint256"},{"name":"quorumDenominator","type":"uint256","internalType":"uint256"}]},{"type":"error","name":"GovernorInvalidSignature","inputs":[{"name":"voter","type":"address","internalType":"address"}]},{"type":"error","name":"GovernorInvalidVoteType","inputs":[]},{"type":"error","name":"GovernorInvalidVotingPeriod","inputs":[{"name":"votingPeriod","type":"uint256","internalType":"uint256"}]},{"type":"error","name":"GovernorNonexistentProposal","inputs":[{"name":"proposalId","type":"uint256","internalType":"uint256"}]},{"type":"error","name":"GovernorNotQueuedProposal","inputs":[{"name":"proposalId","type":"uint256","internalType":"uint256"}]},{"type":"error","name":"GovernorOnlyExecutor","inputs":[{"name":"account","type":"address","internalType":"address"}]},{"type":"error","name":"GovernorOnlyProposer","inputs":[{"name":"account","type":"address","internalType":"address"}]},{"type":"error","name":"GovernorQueueNotImplemented","inputs":[]},{"type":"error","name":"GovernorRestrictedProposer","inputs":[{"name":"proposer","type":"address","internalType":"address"}]},{"type":"error","name":"GovernorUnexpectedProposalState","inputs":[{"name":"proposalId","type":"uint256","internalType":"uint256"},{"name":"current","type":"uint8","internalType":"enum IGovernor.ProposalState"},{"name":"expectedStates","type":"bytes32","internalType":"bytes32"}]},{"type":"error","name":"InvalidAccountNonce","inputs":[{"name":"account","type":"address","internalType":"address"},{"name":"currentNonce","type":"uint256","internalType":"uint256"}]},{"type":"error","name":"InvalidInitialization","inputs":[]},{"type":"error","name":"NotInitializing","inputs":[]},{"type":"error","name":"QueueEmpty","inputs":[]},{"type":"error","name":"QueueFull","inputs":[]},{"type":"error","name":"SafeCastOverflowedUintDowncast","inputs":[{"name":"bits","type":"uint8","internalType":"uint8"},{"name":"value","type":"uint256","internalType":"uint256"}]}],"bytecode":{"object":"0x604060808152806200486080380380916200001a8262000189565b608039126200017157608051620000318162000207565b60a0516200003f8162000207565b5f80516020620048408339815191525480841c60ff161592906001600160401b03168015908162000168575b60011490816200015d575b15908162000153575b5062000142575f805160206200484083398151915280546001600160401b0319166001179055620000b7919083620001175762000219565b620000cb575b51613b61908162000c3f8239f35b5f8051602062004840833981519152805460ff60401b191690558051600181527fc7f505b2f371ae2175ee4913f4499e1f2633a7b5936321eed1cdaeb6115181d290602090a1620000bd565b5f8051602062004840833981519152805460ff60401b19166801000000000000000017905562000219565b835163f92ee8a960e01b8152600490fd5b9050155f6200007f565b303b15915062000076565b8491506200006b565b5f80fd5b634e487b7160e01b5f52604160045260245ffd5b6080601f91909101601f19168101906001600160401b03821190821017620001b057604052565b62000175565b604081019081106001600160401b03821117620001b057604052565b601f909101601f19168101906001600160401b03821190821017620001b057604052565b604051906200020582620001b6565b565b6001600160a01b038116036200017157565b62000223620009ba565b6200022d620003f7565b6020603160f81b81830152620002426200040c565b906200024d620009ba565b8151906001600160401b038211620001b0575f80516020620047c083398151915292620002868362000280865462000546565b62000581565b81601f84116001146200035157509282620002c993620003359693620002059998965f9262000345575b50508160011b915f199060031b1c1916179055620006b0565b620002f25f7fa16a46d94261c7517cc8ff89f61c0ce93598e3c849801011dee649a6a557d10055565b6200031b5f7fa16a46d94261c7517cc8ff89f61c0ce93598e3c849801011dee649a6a557d10155565b6200032f620003296200040c565b62000434565b620008bd565b6200033f62000810565b62000793565b015190505f80620002b0565b5f80516020620047c08339815191525f529190601f1984167f42ad5d3e1f2e6e70edcf6d991b8a3023d3fca8047a131592f9edb9fd9b89d57d935f905b828210620003de57505093620003359693620002059998969360019383620002c99810620003c5575b505050811b019055620006b0565b01515f1960f88460031b161c191690555f8080620003b7565b806001869782949787015181550196019401906200038e565b604051906200040682620001b6565b60018252565b604051906200041b82620001b6565b600a82526926bca3b7bb32b93737b960b11b6020830152565b906200043f620009ba565b81516001600160401b038111620001b0575f805160206200482083398151915290620004778162000471845462000546565b620005e6565b602080601f8311600114620004b45750819293945f92620004a8575b50508160011b915f199060031b1c1916179055565b015190505f8062000493565b5f80516020620048208339815191525f52601f198316959091907fda13dda7583a39a3cd73e8830529c760837228fa4683752c823b17e10548aad5925f905b8882106200052d5750508360019596971062000514575b505050811b019055565b01515f1960f88460031b161c191690555f80806200050a565b80600185968294968601518155019501930190620004f3565b90600182811c9216801562000576575b60208310146200056257565b634e487b7160e01b5f52602260045260245ffd5b91607f169162000556565b601f81116200058e575050565b5f905f80516020620047c0833981519152825260208220906020601f850160051c83019410620005db575b601f0160051c01915b828110620005cf57505050565b818155600101620005c2565b9092508290620005b9565b601f8111620005f3575050565b5f905f8051602062004820833981519152825260208220906020601f850160051c8301941062000640575b601f0160051c01915b8281106200063457505050565b81815560010162000627565b90925082906200061e565b601f811162000658575050565b5f905f80516020620047e0833981519152825260208220906020601f850160051c83019410620006a5575b601f0160051c01915b8281106200069957505050565b8181556001016200068c565b909250829062000683565b80519091906001600160401b038111620001b0575f80516020620047e083398151915290620006eb81620006e5845462000546565b6200064b565b602080601f83116001146200071b5750819293945f92620004a85750508160011b915f199060031b1c1916179055565b5f80516020620047e08339815191525f52601f198316959091907f5f9ce34815f8e11431c7bb75a8e6886a91478f7ffc1dbb0a98dc240fddd76b75925f905b8882106200077a575050836001959697106200051457505050811b019055565b806001859682949686015181550195019301906200075a565b6200079d620009ba565b7f0d5829787b8befdbc6044ef7457d8a95c2a04bc99235349f1a212c063e59d4008054604080516001600160a01b0380841682529094166020850181905292937f08f74ea46ef7894f65eabfb5e6e695de773a000b47c529ab559178069b2264019190a16001600160a01b031916179055565b6200081a620009ba565b5f80516020620047a083398151915280545f8162000877575050505f805160206200480083398151915260405f5b6200085c6200085662000907565b62000ab4565b505081516001600160d01b03909116815260046020820152a1565b5f19928284810111620008a9578152602090200101545f80516020620048008339815191529060409060301c62000848565b634e487b7160e01b82526011600452602482fd5b620008c7620009ba565b7f3ba4977254e415696610a40ebf2258dbfa0ec6a2ff64e84bfe715ff16977cc0080546001600160a01b0319166001600160a01b03909216919091179055565b7f3ba4977254e415696610a40ebf2258dbfa0ec6a2ff64e84bfe715ff16977cc00546040516324776b7d60e21b815290602090829060049082906001600160a01b03165afa80915f916200096c575b5090620009695750620009694362000c0b565b90565b6020813d8211620009b1575b816200098760209383620001d2565b81010312620009ad57519065ffffffffffff82168203620009aa57505f62000956565b80fd5b5080fd5b3d915062000978565b60ff5f80516020620048408339815191525460401c1615620009d857565b604051631afcd79f60e31b8152600490fd5b5f19810191908211620009f957565b634e487b7160e01b5f52601160045260245ffd5b5f80516020620047a083398151915280549068010000000000000000821015620001b0576001820180825582101562000a69575f5260205f20019065ffffffffffff81511690602065ffffffffffff1991015160301b16179055565b634e487b7160e01b5f52603260045260245ffd5b604080519192919081016001600160401b03811182821017620001b057604052915465ffffffffffff8116835260301c6020830152565b5f80516020620047a083398151915254801562000be35762000b1a62000b1462000ade83620009ea565b5f80516020620047a08339815191525f527f293b0181c8ec34cd3252e741689bdc21b70ee7a0ec76216439035a5c3718909b0190565b62000a7d565b805165ffffffffffff848116939116831062000bd15762000b979360209362000b5862000b4d855165ffffffffffff1690565b65ffffffffffff1690565b0362000b9d575062000b7262000ade62000b8992620009ea565b660400000000000065ffffffffffff825416179055565b01516001600160d01b031690565b90600490565b62000bcb915062000bbf62000bb1620001f6565b65ffffffffffff9092168252565b60048185015262000a0d565b62000b89565b604051632520601d60e01b8152600490fd5b5062000c049062000bf762000bb1620001f6565b6004602082015262000a0d565b5f90600490565b65ffffffffffff9081811162000c1f571690565b604490604051906306dfcc6560e41b8252603060048301526024820152fdfe60806040526004361015610022575b3615610018575f80fd5b610020611b61565b005b5f3560e01c806301ffc9a7146102f157806302a251a3146102ec57806306f3f9e6146102e757806306fdde03146102e2578063143489d0146102dd578063150b7a02146102d8578063160cbed7146102d35780632656227d146102ce5780632d63f693146102c95780632fe3e261146102c45780633932abb1146102bf5780633e4f49e6146102ba57806343859632146102b5578063452115d6146102b05780634bf5d7e9146102ab578063544ffc9c146102a657806354fd4d50146102a1578063567813881461029c5780635b8d0e0d146102975780635f398a141461029257806360c4247f1461028d5780637b3c71d3146102885780637d5e81e2146102835780637ecebe001461027e57806384b0196e146102795780638ff262e31461027457806391ddadf41461026f57806397c3d3341461026a5780639a802a6d14610265578063a7713a7014610260578063a890c9101461025b578063a9a9529414610256578063ab58fb8e14610251578063b58131b01461024c578063bc197c8114610247578063c01f9e3714610242578063c28bc2fa1461023d578063c59057e414610238578063d33219b414610233578063dd4e2ba51461022e578063deaaa7cc14610229578063eb9019d414610224578063f23a6e611461021f578063f8ce560a1461021a5763fc0c546a0361000e57611b2d565b611b0f565b611a98565b611a0a565b6119d0565b611973565b61193f565b611923565b6118b8565b61189a565b6117fa565b6117e0565b61179f565b611783565b6116fe565b6116d3565b611614565b6115f9565b6115cf565b6114d0565b611400565b611314565b61127b565b611226565b611208565b611199565b611111565b611096565b611045565b610fee565b610fbf565b610ef2565b610e91565b610e64565b610e18565b610dde565b610d9d565b610c12565b6109bf565b610777565b6105f3565b6104ab565b610389565b61036d565b3461035f57602036600319011261035f5760043563ffffffff60e01b811680910361035f576020906332a2ad4360e11b811490811561034e575b811561033d575b506040519015158152f35b6301ffc9a760e01b1490505f610332565b630271189760e51b8114915061032b565b5f80fd5b5f91031261035f57565b3461035f575f36600319011261035f57602060405161c4e08152f35b3461035f57602036600319011261035f576004356103a56125d1565b60648111610432576001600160d01b0390816103bf6136e7565b166103c8612b61565b92808311610412577f0553476bf02ef2726e8ce5ced78d63e26e602e4a2257b1f559418e24b4633997936103fe918416906137d4565b5050604080519182526020820192909252a1005b6040516306dfcc6560e41b815260d0600482015260248101849052604490fd5b6044906040519063243e544560e01b8252600482015260646024820152fd5b5f5b8381106104625750505f910152565b8181015183820152602001610453565b9060209161048b81518092818552858086019101610451565b601f01601f1916010190565b9060206104a8928181520190610472565b90565b3461035f575f806003193601126105f05760405190807f7c712897014dbe49c045ef1299aa2d5f9e67e48eea4403efa21f1e0f3ac0cb00549060019180831c928082169283156105e6575b60209283861085146105d25785885260208801949081156105b1575060011461053a575b6105368761052a818903826106db565b60405191829182610497565b0390f35b7f7c712897014dbe49c045ef1299aa2d5f9e67e48eea4403efa21f1e0f3ac0cb005f5294509192917fda13dda7583a39a3cd73e8830529c760837228fa4683752c823b17e10548aad55b8386106105a0575050509101905061052a826105365f8061051a565b805485870152948201948101610584565b60ff191685525050505090151560051b01905061052a826105365f8061051a565b634e487b7160e01b82526022600452602482fd5b93607f16936104f6565b80fd5b3461035f57602036600319011261035f576004355f525f80516020613a6c833981519152602052602060018060a01b0360405f205416604051908152f35b6001600160a01b0381160361035f57565b634e487b7160e01b5f52604160045260245ffd5b6001600160401b03811161066957604052565b610642565b604081019081106001600160401b0382111761066957604052565b602081019081106001600160401b0382111761066957604052565b60c081019081106001600160401b0382111761066957604052565b61010081019081106001600160401b0382111761066957604052565b90601f801991011681019081106001600160401b0382111761066957604052565b604051906107098261066e565b565b6001600160401b03811161066957601f01601f191660200190565b9291926107328261070b565b9161074060405193846106db565b82948184528183011161035f578281602093845f960137010152565b9080601f8301121561035f578160206104a893359101610726565b3461035f57608036600319011261035f57610793600435610631565b61079e602435610631565b6064356001600160401b03811161035f576107bd90369060040161075c565b505f80516020613b0c833981519152546001600160a01b031630036107ee57604051630a85bd0160e11b8152602090f35b604051637485328f60e11b8152600490fd5b6001600160401b0381116106695760051b60200190565b81601f8201121561035f5780359161082e83610800565b9261083c60405194856106db565b808452602092838086019260051b82010192831161035f578301905b828210610866575050505090565b838091833561087481610631565b815201910190610858565b81601f8201121561035f5780359161089683610800565b926108a460405194856106db565b808452602092838086019260051b82010192831161035f578301905b8282106108ce575050505090565b813581529083019083016108c0565b9080601f8301121561035f578135906108f582610800565b9261090360405194856106db565b828452602092838086019160051b8301019280841161035f57848301915b8483106109315750505050505090565b82356001600160401b03811161035f5786916109528484809489010161075c565b815201920191610921565b608060031982011261035f576001600160401b039160043583811161035f578261098991600401610817565b9260243581811161035f57836109a19160040161087f565b9260443591821161035f576109b8916004016108dd565b9060643590565b3461035f576109cd3661095d565b9092916109dc82858386611e46565b926109e684612678565b505f80516020613b0c8339815191528054909590610a14906001600160a01b03165b6001600160a01b031690565b9260409687519063793d064960e11b825260209081836004818a5afa968715610bb757610a7d988b945f99610be9575b50935163b1c5f42760e01b81523060601b6bffffffffffffffffffffffff19169094189883918591829081908d8b8b8e60048601612fdf565b03915afa8015610bb757610aaf93610a08935f92610bbc575b5050610aa18a611eaa565b55546001600160a01b031690565b90813b1561035f575f8094610ada878b51998a97889687956308f2a0bb60e41b875260048701613024565b03925af1908115610bb757610afe92610af992610b9e575b504261205d565b613565565b65ffffffffffff811615610b8d57917f9a2e42fd6722813d69113e7d0079d3d940171428df7373df9c7f7617cfda2892610b7c84610b5e610536966001610b4488611ed7565b019065ffffffffffff1665ffffffffffff19825416179055565b835185815265ffffffffffff90911660208201529081906040820190565b0390a1519081529081906020820190565b8251634844252360e11b8152600490fd5b80610bab610bb192610656565b80610363565b5f610af2565b612aaa565b610bdb9250803d10610be2575b610bd381836106db565b810190612a9b565b5f80610a96565b503d610bc9565b87919950918689610c078795863d8811610be257610bd381836106db565b9b9350505091610a44565b610c1b3661095d565b610c2a81838587959697611e46565b92610c34846126ca565b50610c54610c4185611ed7565b805460ff60f01b1916600160f01b179055565b5f80516020613b0c83398151915280546001600160a01b039691949087163003610d2c575b926105369692610c8d92610c9e9588613071565b91543092166001600160a01b031690565b141580610d01575b610ce7575b6040518181527f712ae1383f79ac853f8d882153778e0260ef8f03b504e2866e0593e04d2b291f90602090a16040519081529081906020820190565b610cfc5f5f80516020613aec83398151915255565b610cab565b505f80516020613aec833981519152546001600160801b03811660809190911c1415610ca6565b1590565b9391959094925f5b8551811015610d8d57610d699030610d5f610a08610d52848b61232d565b516001600160a01b031690565b14610d6e5761230b565b610d34565b610d88610d7b828b61232d565b5160208151910120613969565b61230b565b5090959294919390929190610c79565b3461035f57602036600319011261035f576004355f525f80516020613a6c833981519152602052602065ffffffffffff60405f205460a01c16604051908152f35b3461035f575f36600319011261035f5760206040517f3e83946653575f9a39005e1545185629e92736b7528ab20ca3816f315424a8118152f35b3461035f575f36600319011261035f576020604051611c208152f35b634e487b7160e01b5f52602160045260245ffd5b60081115610e5257565b610e34565b906008821015610e525752565b3461035f57602036600319011261035f576020610e82600435612d79565b610e8f6040518092610e57565bf35b3461035f57604036600319011261035f57602060ff610ee6602435610eb581610631565b6004355f525f80516020613acc8339815191528452600360405f20019060018060a01b03165f5260205260405f2090565b54166040519015158152f35b3461035f57610f003661095d565b90610f0f828285879697611e46565b610f1881612d79565b6008811015610e525760018060ff83161b1615610f9257505f9081525f80516020613a6c83398151915260205260409020546001600160a01b03163303610f765761053693610f66936130fb565b6040519081529081906020820190565b60405163233d98e360e01b8152336004820152602490fd5b0390fd5b90610fb6606492604051926331b75e4d60e01b845260048401526024830190610e57565b60016044820152fd5b3461035f575f36600319011261035f57610536610fda612c29565b604051918291602083526020830190610472565b3461035f57602036600319011261035f576004355f525f80516020613acc83398151915260205260405f20805461053660026001840154930154604051938493846040919493926060820195825260208201520152565b3461035f575f36600319011261035f576105366040516110648161066e565b60018152603160f81b6020820152604051918291602083526020830190610472565b6024359060ff8216820361035f57565b3461035f57604036600319011261035f5760206110dc6110b4611086565b6040516110c081610689565b5f8152604051916110d083610689565b5f83523360043561249b565b604051908152f35b9181601f8401121561035f578235916001600160401b03831161035f576020838186019501011161035f57565b3461035f5760c036600319011261035f5761112a611086565b6044359061113782610631565b6001600160401b039060643582811161035f576111589036906004016110e4565b60843584811161035f5761117090369060040161075c565b9160a43594851161035f5761053695611190610f6696369060040161075c565b94600435612346565b3461035f57608036600319011261035f576111b2611086565b6001600160401b039060443582811161035f576111d39036906004016110e4565b909160643593841161035f576111fe6110dc936111f6602096369060040161075c565b933691610726565b903360043561249b565b3461035f57602036600319011261035f5760206110dc600435612978565b3461035f57606036600319011261035f5761123f611086565b6044356001600160401b03811161035f5760209161126e6112676110dc9336906004016110e4565b3691610726565b604051916110d083610689565b3461035f57608036600319011261035f576001600160401b0360043581811161035f576112ac903690600401610817565b9060243581811161035f576112c590369060040161087f565b9160443582811161035f576112de9036906004016108dd565b60643592831161035f573660238401121561035f576105369361130e610f66943690602481600401359101610726565b92611f46565b3461035f57602036600319011261035f5760043561133181610631565b60018060a01b03165f527f5ab42ced628888259c08ac98db1eb0cf702fc1501344311d8b100cd1bfe4bb00602052602060405f2054604051908152f35b9081518082526020808093019301915f5b82811061138d575050505090565b83518552938101939281019260010161137f565b916113d6906113c86104a897959693600f60f81b865260e0602087015260e0860190610472565b908482036040860152610472565b60608301949094526001600160a01b031660808201525f60a082015280830360c09091015261136e565b3461035f575f36600319011261035f577fa16a46d94261c7517cc8ff89f61c0ce93598e3c849801011dee649a6a557d1005415806114a7575b1561146a57611446611b81565b61144e611ca9565b9061053661145a6132ee565b60405193849330914691866113a1565b60405162461bcd60e51b81526020600482015260156024820152741152540dcc4c8e88155b9a5b9a5d1a585b1a5e9959605a1b6044820152606490fd5b507fa16a46d94261c7517cc8ff89f61c0ce93598e3c849801011dee649a6a557d1015415611439565b3461035f57608036600319011261035f576004356114ec611086565b90604435916114fa83610631565b6064356001600160401b03811161035f57610d2861151f61159392369060040161075c565b61158d61152b8761322d565b60405160208101917ff2aad550cf55f045cb27e9c559f9889fdfb6e6cdaa032301d6ea397784ae51d7835288604083015260ff8816606083015260018060a01b038a16608083015260a082015260a08152611585816106a4565b51902061326e565b866133dc565b6115ae5790610f6691610536936115a8611d9d565b92612420565b6040516394ab6c0760e01b81526001600160a01b0384166004820152602490fd5b3461035f575f36600319011261035f5760206115e9612b61565b65ffffffffffff60405191168152f35b3461035f575f36600319011261035f57602060405160648152f35b3461035f57606036600319011261035f5760043561163181610631565b6044356001600160401b03811161035f5761165090369060040161075c565b505f80516020613aac83398151915254604051630748d63560e31b81526001600160a01b03928316600482015260248035908201529160209183916044918391165afa8015610bb757610536915f916116b5575b506040519081529081906020820190565b6116cd915060203d8111610be257610bd381836106db565b5f6116a4565b3461035f575f36600319011261035f5760206001600160d01b036116f56136e7565b16604051908152f35b3461035f57602036600319011261035f5760043561171b81610631565b6117236125d1565b5f80516020613b0c8339815191528054604080516001600160a01b0380841682529094166020850181905292937f08f74ea46ef7894f65eabfb5e6e695de773a000b47c529ab559178069b2264019190a16001600160a01b031916179055005b3461035f57602036600319011261035f57602060405160018152f35b3461035f57602036600319011261035f576004355f525f80516020613a6c833981519152602052602065ffffffffffff600160405f20015416604051908152f35b3461035f575f36600319011261035f5760206040515f8152f35b3461035f5760a036600319011261035f57611816600435610631565b611821602435610631565b6001600160401b0360443581811161035f5761184190369060040161087f565b5060643581811161035f5761185a90369060040161087f565b5060843590811161035f5761187390369060040161075c565b5061053661187f61264f565b6040516001600160e01b031990911681529081906020820190565b3461035f57602036600319011261035f5760206110dc600435611f05565b606036600319011261035f576004356118d081610631565b604435906001600160401b03821161035f575f80916118f66100209436906004016110e4565b906118ff6125d1565b81604051928392833781018481520391602435905af161191d6125a2565b906133b3565b3461035f5760206110dc6119363661095d565b92919091611e46565b3461035f575f36600319011261035f575f80516020613b0c833981519152546040516001600160a01b039091168152602090f35b3461035f575f36600319011261035f576105366040516119928161066e565b602081527f737570706f72743d627261766f2671756f72756d3d666f722c6162737461696e6020820152604051918291602083526020830190610472565b3461035f575f36600319011261035f5760206040517ff2aad550cf55f045cb27e9c559f9889fdfb6e6cdaa032301d6ea397784ae51d78152f35b3461035f57604036600319011261035f57600435611a2781610631565b5f604051611a3481610689565b525f80516020613aac83398151915254604051630748d63560e31b81526001600160a01b03928316600482015260248035908201529160209183916044918391165afa8015610bb757610536915f916116b557506040519081529081906020820190565b3461035f5760a036600319011261035f57611ab4600435610631565b611abf602435610631565b6084356001600160401b03811161035f57611ade90369060040161075c565b505f80516020613b0c833981519152546001600160a01b031630036107ee5760405163f23a6e6160e01b8152602090f35b3461035f57602036600319011261035f5760206110dc600435612ad3565b3461035f575f36600319011261035f575f80516020613aac833981519152546040516001600160a01b039091168152602090f35b5f80516020613b0c833981519152546001600160a01b031630036107ee57565b604051905f7fa16a46d94261c7517cc8ff89f61c0ce93598e3c849801011dee649a6a557d1025490600182811c92818116918215611c9f575b6020918286108414611c8b57858852879493602086019392918115611c6c5750600114611bf1575b505050610709925003836106db565b7fa16a46d94261c7517cc8ff89f61c0ce93598e3c849801011dee649a6a557d1025f5290949092507f42ad5d3e1f2e6e70edcf6d991b8a3023d3fca8047a131592f9edb9fd9b89d57d945f935b828510611c56575050506107099350015f8080611be2565b8654858501529586019588955093810193611c3e565b925050506107099491925060ff19168252151560051b015f8080611be2565b634e487b7160e01b85526022600452602485fd5b93607f1693611bba565b604051905f7fa16a46d94261c7517cc8ff89f61c0ce93598e3c849801011dee649a6a557d1035490600182811c92818116918215611d93575b6020918286108414611c8b57858852879493602086019392918115611c6c5750600114611d1857505050610709925003836106db565b7fa16a46d94261c7517cc8ff89f61c0ce93598e3c849801011dee649a6a557d1035f5290949092507f5f9ce34815f8e11431c7bb75a8e6886a91478f7ffc1dbb0a98dc240fddd76b75945f935b828510611d7d575050506107099350015f8080611be2565b8654858501529586019588955093810193611d65565b93607f1693611ce2565b60405190611daa82610689565b5f8252565b9081518082526020808093019301915f5b828110611dce575050505090565b83516001600160a01b031685529381019392810192600101611dc0565b908082519081815260208091019281808460051b8301019501935f915b848310611e185750505050505090565b9091929394958480611e36600193601f198682030187528a51610472565b9801930193019194939290611e08565b9290611e9292611ea492604051948592611e82611e6f602086019960808b5260a0870190611daf565b601f19968787830301604088015261136e565b9085858303016060860152611deb565b906080830152039081018352826106db565b51902090565b5f527f0d5829787b8befdbc6044ef7457d8a95c2a04bc99235349f1a212c063e59d40160205260405f2090565b5f525f80516020613a6c83398151915260205260405f2090565b634e487b7160e01b5f52601160045260245ffd5b5f525f80516020613a6c83398151915260205260405f205465ffffffffffff908163ffffffff8260d01c169160a01c1601818111611f41571690565b611ef1565b91929092611f54823361274a565b15611ffa5765ffffffffffff935f1985611f6c612b61565b160194808611611f41576020905f604051611f8681610689565b525f80516020613aac83398151915254604051630748d63560e31b8152336004820152979091166024880152869060449082906001600160a01b03165afa948515610bb7576104a895611fdc575b503393612180565b611ff39060203d8111610be257610bd381836106db565b505f611fd4565b60405163d9b3955760e01b8152336004820152602490fd5b60409061202d5f939594606083019683526020830190610e57565b0152565b90611c208201809211611f4157565b9061c4e08201809211611f4157565b9060018201809211611f4157565b91908201809211611f4157565b9061207482610800565b61208160405191826106db565b8281528092612092601f1991610800565b01905f5b8281106120a257505050565b806060602080938501015201612096565b95926120e6906120f4939b9a9899969592885260209b60018060a01b03168c8901526101208060408a0152880190611daf565b90868203606088015261136e565b9784890360808601528251808a52818a019180808360051b8d01019501925f905b8382106121525750505050506104a8969750906121399184820360a0860152611deb565b9360c083015260e0820152610100818403910152610472565b909192939583806121718f93600194601f199082030186528a51610472565b98019201920190939291612115565b919294939061219786516020880120858386611e46565b958351825190818114801590612300575b80156122f8575b6122cf57505065ffffffffffff91826121d96121ca8a611ed7565b5460a01c65ffffffffffff1690565b166122a8577f7d84a6263ae0d98d3329bd7b46bb4e8d6f98cd35a7adb45c274c8b7fd5ebd5e0956122156122a39461220f612b61565b16612031565b906122826122228b611ed7565b80546001600160a01b0319166001600160a01b03891617815561226b61224785613565565b825465ffffffffffff60a01b191660a09190911b65ffffffffffff60a01b16178255565b805463ffffffff60d01b191661062760d51b179055565b61228c875161206a565b61229583612040565b936040519889988d8a6120b3565b0390a1565b876122b281612d79565b6040516331b75e4d60e01b8152918291610f8e9160048401612012565b8651604051630447b05d60e41b8152600481019290925260248201526044810191909152606490fd5b5080156121af565b5086518114156121a8565b5f198114611f415760010190565b634e487b7160e01b5f52603260045260245ffd5b80518210156123415760209160051b010190565b612319565b939092919695610d286123e4916123de8a6123608161322d565b61236b36888a610726565b602081519101208b5160208d0120906040519260208401947f3e83946653575f9a39005e1545185629e92736b7528ab20ca3816f315424a81186528d604086015260ff8d16606086015260018060a01b0316608085015260a084015260c083015260e082015260e08152611585816106bf565b8a6133dc565b6123ff576104a89596916123f9913691610726565b9261249b565b6040516394ab6c0760e01b81526001600160a01b0388166004820152602490fd5b916104a893916040519361243385610689565b5f855261249b565b93909260ff612467936104a897958752166020860152604085015260a0606085015260a0840190610472565b916080818403910152610472565b909260ff6080936104a89695845216602083015260408201528160608201520190610472565b9291906124a784612d79565b6008811015610e52576002600160ff83161b161561257457506124e36124dd6124d26121ca87611ed7565b65ffffffffffff1690565b82612cf7565b946124f086848488612885565b805161253857506125327fb8e138887d0aa13bab447e82de9d5c1777041ecd21ca36ba824ff1e6c07ddda4938660405194859460018060a01b03169785612475565b0390a290565b612532907fe2babfbac5889a709b63bb7f598b324e08bc5a4fb9ec647fb3cbc9ec07eb8712948760405195869560018060a01b0316988661243b565b6040516331b75e4d60e01b815260048101869052606491612599906024830190610e57565b60026044820152fd5b3d156125cc573d906125b38261070b565b916125c160405193846106db565b82523d5f602084013e565b606090565b5f80516020613b0c833981519152546001600160a01b03163381036126375730036125f857565b6126013661070b565b61260e60405191826106db565b3681526020810190365f83375f602036830101525190205b8061262f6139ed565b036126265750565b6040516347096e4760e01b8152336004820152602490fd5b5f80516020613b0c833981519152546001600160a01b031630036107ee5763bc197c8160e01b90565b61268181612d79565b906008821015610e52576010600160ff84161b161561269e575090565b6126c1606492604051926331b75e4d60e01b845260048401526024830190610e57565b60106044820152fd5b6126d381612d79565b906008821015610e52576030600160ff84161b16156126f0575090565b612713606492604051926331b75e4d60e01b845260048401526024830190610e57565b60306044820152fd5b602719810191908211611f4157565b5f19810191908211611f4157565b908151811015612341570160200190565b8151603481106128005760131981840101516001600160a01b0319166b1b91f1b211f2119351b859f160a31b0161280057915f926127878161271c565b915b8183106127a4575050506001600160a01b0391821691161490565b9091936127ca6127c56127b78785612739565b516001600160f81b03191690565b612808565b9190156127f55760041b6010600160a01b031660ff9190911617936127ee9061230b565b9190612789565b505050505050600190565b505050600190565b60f81c9081602f108061287b575b1561282857600191602f190160ff1690565b8160401080612871575b15612844576001916036190160ff1690565b8160601080612867575b15612860576001916056190160ff1690565b5f91508190565b506067821061284e565b5060478210612832565b50603a8210612816565b6128a6909291925f525f80516020613acc83398151915260205260405f2090565b91600383016128cf6128c883839060018060a01b03165f5260205260405f2090565b5460ff1690565b612957576128f360ff9392612900929060018060a01b03165f5260205260405f2090565b805460ff19166001179055565b168061291757509061291390825461205d565b9055565b6001810361292f57506001612913910191825461205d565b600203612945576002612913910191825461205d565b6040516303599be160e11b8152600490fd5b6040516371c6af4960e01b81526001600160a01b0383166004820152602490fd5b5f80516020613a8c83398151915280545f199290838101818111611f4157811115612341575f9383855281602086200101549165ffffffffffff92818482161115612a8f57506129c790613565565b8491809360058211612a45575b50506129e093506138e4565b806129f357505b6001600160d01b031690565b612a409150612a04612a399161272b565b5f80516020613a8c8339815191525f527f293b0181c8ec34cd3252e741689bdc21b70ee7a0ec76216439035a5c3718909b0190565b5460301c90565b6129e7565b612a5182939592613597565b8303928311611f41576129e0958752808360208920015416908516105f14612a7d5750915b5f806129d4565b929150612a899061204f565b90612a76565b94505050505060301c90565b9081602091031261035f575190565b6040513d5f823e3d90fd5b8115612abf570490565b634e487b7160e01b5f52601260045260245ffd5b5f80516020613aac83398151915254604051632394e7a360e21b8152600481018390529190602090839060249082906001600160a01b03165afa918215610bb7575f92612b3d575b50612b2590612978565b90818102918183041490151715611f41576064900490565b612b25919250612b5a9060203d8111610be257610bd381836106db565b9190612b1b565b5f80516020613aac833981519152546040516324776b7d60e21b815290602090829060049082906001600160a01b03165afa80915f91612bac575b50906104a857506104a843613565565b6020813d8211612be8575b81612bc4602093836106db565b81010312612be457519065ffffffffffff821682036105f057505f612b9c565b5080fd5b3d9150612bb7565b60405190612bfd8261066e565b601d82527f6d6f64653d626c6f636b6e756d6265722666726f6d3d64656661756c740000006020830152565b5f80516020613aac83398151915254604051634bf5d7e960e01b8152905f908190839060049082906001600160a01b03165afa90918282612c74575b50506104a857506104a8612bf0565b909192503d8082843e612c8781846106db565b820191602081840312612be4578051906001600160401b038211612cf3570182601f82011215612be457805191612cbd8361070b565b93612ccb60405195866106db565b838552602084840101116105f0575090612ceb9160208085019101610451565b905f80612c65565b8280fd5b5f80516020613aac83398151915254604051630748d63560e31b81526001600160a01b039283166004820152602481019390935260209183916044918391165afa908115610bb7575f91612d49575090565b6104a8915060203d8111610be257610bd381836106db565b9081602091031261035f5751801515810361035f5790565b612d8281612e8a565b90612d8c82610e48565b60058203612e8657612d9e9150611eaa565b545f80516020613b0c83398151915254612dc0906001600160a01b0316610a08565b604051632c258a9f60e11b81526004810183905260209291908381602481855afa908115610bb7575f91612e69575b5015612dfd57505050600590565b604051632ab0f52960e01b815260048101929092528290829060249082905afa918215610bb7575f92612e3c575b505015612e3757600790565b600290565b612e5b9250803d10612e62575b612e5381836106db565b810190612d61565b5f80612e2b565b503d612e49565b612e809150843d8611612e6257612e5381836106db565b5f612def565b5090565b612e9381611ed7565b5460ff8160f01c16612f805760f81c612f7a57612eb56124d26121ca83611ed7565b8015612f6157612ec66124d2612b61565b80911015612f5b57612ed782611f05565b10612ee25750600190565b612eee610d2882612f87565b8015612f2c575b15612f005750600390565b6124d26001612f11612f1e93611ed7565b015465ffffffffffff1690565b612f2757600490565b600590565b50612f56610d28825f525f80516020613acc83398151915260205260405f20600181015490541090565b612ef5565b50505f90565b604051636ad0607560e01b815260048101839052602490fd5b50600290565b5050600790565b5f525f80516020613acc83398151915260205260405f205f80516020613a6c833981519152602052612fc765ffffffffffff60405f205460a01c16612ad3565b600260018301549201548201809211611f4157111590565b94939261300b608093612ffd6130199460a08a5260a08a0190611daf565b9088820360208a015261136e565b908682036040880152611deb565b935f60608201520152565b919261305360a094613045613061949998979960c0875260c0870190611daf565b90858203602087015261136e565b908382036040850152611deb565b945f606083015260808201520152565b9290939160018060a01b035f80516020613b0c833981519152541690813b1561035f575f936130cb6040519788958694859463e38335e560e01b86526bffffffffffffffffffffffff193060601b16189260048601612fdf565b039134905af1908115610bb7575f926130e9926130ec575b50611eaa565b55565b6130f590610656565b5f6130e3565b90613107939291611e46565b61311081612d79565b6008811015610e5257603b600160ff83161b1615613200575061314a61313582611ed7565b80546001600160f81b0316600160f81b179055565b6040518181527f789cf55be980739dad1d0699b93b58e806b51c9d96619bfa8fe0a28abaa7b30c90602090a161317f81611eaa565b5480613189575090565b5f80516020613b0c833981519152546131aa906001600160a01b0316610a08565b803b1561035f5760405163c4d252f560e01b815260048101929092525f908290602490829084905af18015610bb7576131ed575b505f6131e982611eaa565b5590565b80610bab6131fa92610656565b5f6131de565b90613224606492604051926331b75e4d60e01b845260048401526024830190610e57565b603b6044820152fd5b6001600160a01b03165f9081527f5ab42ced628888259c08ac98db1eb0cf702fc1501344311d8b100cd1bfe4bb006020526040902080546001810190915590565b604290613279613304565b61328161336e565b6040519060208201927f8b73c3c69bb8fe3d512ecc4cf759cc79239f7b179b0ffacaa9a75d522b39400f8452604083015260608201524660808201523060a082015260a081526132d0816106a4565b519020906040519161190160f01b8352600283015260228201522090565b6040516132fa81610689565b5f8152905f368137565b61330c611b81565b805190811561331c576020012090565b50507fa16a46d94261c7517cc8ff89f61c0ce93598e3c849801011dee649a6a557d1005480156133495790565b507fc5d2460186f7233c927e7db2dcc703c0e500b653ca82273b7bfad8045d85a47090565b613376611ca9565b8051908115613386576020012090565b50507fa16a46d94261c7517cc8ff89f61c0ce93598e3c849801011dee649a6a557d1015480156133495790565b90919061070957508051156133ca57805190602001fd5b604051630a12f52160e11b8152600490fd5b6133e683836134b3565b506004819592951015610e525715938461349d575b508315613409575b50505090565b5f92935090829160405161344f816134416020820194630b135d3f60e11b998a87526024840152604060448401526064830190610472565b03601f1981018352826106db565b51915afa9061345c6125a2565b8261348f575b82613472575b50505f8080613403565b61348791925060208082518301019101612a9b565b145f80613468565b915060208251101591613462565b6001600160a01b0383811691161493505f6133fb565b81519190604183036134e3576134dc9250602082015190606060408401519301515f1a906134ed565b9192909190565b50505f9160029190565b91906fa2a8918ca85bafe22016d0b997e4df60600160ff1b03841161355a57926020929160ff6080956040519485521684840152604083015260608201525f92839182805260015afa15610bb75780516001600160a01b0381161561355157918190565b50809160019190565b5050505f9160039190565b65ffffffffffff90818111613578571690565b604490604051906306dfcc6560e41b8252603060048301526024820152fd5b80156136d0578061366961366261365861364e61364461363a61363061362660016104a89a5f908b60801c806136c4575b508060401c806136b7575b508060201c806136aa575b508060101c8061369d575b508060081c80613690575b508060041c80613683575b508060021c80613676575b50821c61366f575b811c1b61361f818b612ab5565b0160011c90565b61361f818a612ab5565b61361f8189612ab5565b61361f8188612ab5565b61361f8187612ab5565b61361f8186612ab5565b61361f8185612ab5565b8092612ab5565b906136d5565b8101613612565b600291509101905f61360a565b600491509101905f6135ff565b600891509101905f6135f4565b601091509101905f6135e9565b602091509101905f6135de565b604091509101905f6135d3565b9150506080905f6135c8565b505f90565b90808210156136e2575090565b905090565b5f80516020613a8c83398151915280545f9181613705575050505f90565b5f19928284810111611f415760209181522001015460301c90565b5f80516020613a8c833981519152908154600160401b811015610669576001810180845581101561234157610709925f5260205f20019061377e65ffffffffffff825116839065ffffffffffff1665ffffffffffff19825416179055565b60200151815465ffffffffffff1660309190911b65ffffffffffff1916179055565b90604051604081018181106001600160401b0382111761066957604052915465ffffffffffff8116835260301c6020830152565b5f80516020613a8c833981519152549192919081156138bb576138016137fc612a048461272b565b6137a0565b805165ffffffffffff83811694911684106138a9578560209361386d956138316124d2865165ffffffffffff1690565b036138715750613846612a0461385f9361272b565b9065ffffffffffff82549181199060301b169116179055565b01516001600160d01b031690565b9190565b90506138a491506138916138836106fc565b65ffffffffffff9092168252565b6001600160d01b03871681850152613720565b61385f565b604051632520601d60e01b8152600490fd5b6138df91506138cb6138836106fc565b6001600160d01b0384166020820152613720565b5f9190565b905b8281106138f257505090565b90918082169080831860011c8201809211611f41575f80516020613a8c8339815191525f527f293b0181c8ec34cd3252e741689bdc21b70ee7a0ec76216439035a5c3718909b82015465ffffffffffff90811690851610156139575750915b906138e6565b9291506139639061204f565b90613951565b5f80516020613aec8339815191529081548060801c91600183019260018060801b03809316838516146139db575f9081527f7c712897014dbe49c045ef1299aa2d5f9e67e48eea4403efa21f1e0f3ac0cb03602052604090205582541660809190911b6001600160801b031916179055565b604051638acb5f2760e01b8152600490fd5b5f80516020613aec83398151915280546001600160801b0380821693929160801c8414613a5957835f527f7c712897014dbe49c045ef1299aa2d5f9e67e48eea4403efa21f1e0f3ac0cb03602052600160405f20945f86549655011660018060801b0319825416179055565b6040516375e52f4f60e01b8152600490fdfe7c712897014dbe49c045ef1299aa2d5f9e67e48eea4403efa21f1e0f3ac0cb01e770710421fd2cad75ad828c61aa98f2d77d423a440b67872d0f65554148e0003ba4977254e415696610a40ebf2258dbfa0ec6a2ff64e84bfe715ff16977cc00a1cefa0f43667ef127a258e673c94202a79b656e62899531c4376d87a7f398007c712897014dbe49c045ef1299aa2d5f9e67e48eea4403efa21f1e0f3ac0cb020d5829787b8befdbc6044ef7457d8a95c2a04bc99235349f1a212c063e59d400a264697066735822122090ab1cc262b42d921af214db1e189b50d902e6eb37341a48138188a4f2ce53d264736f6c63430008140033e770710421fd2cad75ad828c61aa98f2d77d423a440b67872d0f65554148e000a16a46d94261c7517cc8ff89f61c0ce93598e3c849801011dee649a6a557d102a16a46d94261c7517cc8ff89f61c0ce93598e3c849801011dee649a6a557d1030553476bf02ef2726e8ce5ced78d63e26e602e4a2257b1f559418e24b46339977c712897014dbe49c045ef1299aa2d5f9e67e48eea4403efa21f1e0f3ac0cb00f0c57e16840df040f15088dc2f81fe391c3923bec73e23a9662efc9c229c6a00","linkReferences":{}},"methodIdentifiers":{"BALLOT_TYPEHASH()":"deaaa7cc","CLOCK_MODE()":"4bf5d7e9","COUNTING_MODE()":"dd4e2ba5","EXTENDED_BALLOT_TYPEHASH()":"2fe3e261","cancel(address[],uint256[],bytes[],bytes32)":"452115d6","castVote(uint256,uint8)":"56781388","castVoteBySig(uint256,uint8,address,bytes)":"8ff262e3","castVoteWithReason(uint256,uint8,string)":"7b3c71d3","castVoteWithReasonAndParams(uint256,uint8,string,bytes)":"5f398a14","castVoteWithReasonAndParamsBySig(uint256,uint8,address,string,bytes,bytes)":"5b8d0e0d","clock()":"91ddadf4","eip712Domain()":"84b0196e","execute(address[],uint256[],bytes[],bytes32)":"2656227d","getVotes(address,uint256)":"eb9019d4","getVotesWithParams(address,uint256,bytes)":"9a802a6d","hasVoted(uint256,address)":"43859632","hashProposal(address[],uint256[],bytes[],bytes32)":"c59057e4","name()":"06fdde03","nonces(address)":"7ecebe00","onERC1155BatchReceived(address,address,uint256[],uint256[],bytes)":"bc197c81","onERC1155Received(address,address,uint256,uint256,bytes)":"f23a6e61","onERC721Received(address,address,uint256,bytes)":"150b7a02","proposalDeadline(uint256)":"c01f9e37","proposalEta(uint256)":"ab58fb8e","proposalNeedsQueuing(uint256)":"a9a95294","proposalProposer(uint256)":"143489d0","proposalSnapshot(uint256)":"2d63f693","proposalThreshold()":"b58131b0","proposalVotes(uint256)":"544ffc9c","propose(address[],uint256[],bytes[],string)":"7d5e81e2","queue(address[],uint256[],bytes[],bytes32)":"160cbed7","quorum(uint256)":"f8ce560a","quorumDenominator()":"97c3d334","quorumNumerator()":"a7713a70","quorumNumerator(uint256)":"60c4247f","relay(address,uint256,bytes)":"c28bc2fa","state(uint256)":"3e4f49e6","supportsInterface(bytes4)":"01ffc9a7","timelock()":"d33219b4","token()":"fc0c546a","updateQuorumNumerator(uint256)":"06f3f9e6","updateTimelock(address)":"a890c910","version()":"54fd4d50","votingDelay()":"3932abb1","votingPeriod()":"02a251a3"},"id":104}