{"abi":[{"type":"constructor","inputs":[{"name":"wrappedToken","type":"address","internalType":"contract IERC20"}],"stateMutability":"payable"},{"type":"function","name":"CLOCK_MODE","inputs":[],"outputs":[{"name":"","type":"string","internalType":"string"}],"stateMutability":"view"},{"type":"function","name":"DOMAIN_SEPARATOR","inputs":[],"outputs":[{"name":"","type":"bytes32","internalType":"bytes32"}],"stateMutability":"view"},{"type":"function","name":"allowance","inputs":[{"name":"owner","type":"address","internalType":"address"},{"name":"spender","type":"address","internalType":"address"}],"outputs":[{"name":"","type":"uint256","internalType":"uint256"}],"stateMutability":"view"},{"type":"function","name":"approve","inputs":[{"name":"spender","type":"address","internalType":"address"},{"name":"value","type":"uint256","internalType":"uint256"}],"outputs":[{"name":"","type":"bool","internalType":"bool"}],"stateMutability":"nonpayable"},{"type":"function","name":"balanceOf","inputs":[{"name":"account","type":"address","internalType":"address"}],"outputs":[{"name":"","type":"uint256","internalType":"uint256"}],"stateMutability":"view"},{"type":"function","name":"checkpoints","inputs":[{"name":"account","type":"address","internalType":"address"},{"name":"pos","type":"uint32","internalType":"uint32"}],"outputs":[{"name":"","type":"tuple","internalType":"struct Checkpoints.Checkpoint208","components":[{"name":"_key","type":"uint48","internalType":"uint48"},{"name":"_value","type":"uint208","internalType":"uint208"}]}],"stateMutability":"view"},{"type":"function","name":"clock","inputs":[],"outputs":[{"name":"","type":"uint48","internalType":"uint48"}],"stateMutability":"view"},{"type":"function","name":"decimals","inputs":[],"outputs":[{"name":"","type":"uint8","internalType":"uint8"}],"stateMutability":"view"},{"type":"function","name":"delegate","inputs":[{"name":"delegatee","type":"address","internalType":"address"}],"outputs":[],"stateMutability":"nonpayable"},{"type":"function","name":"delegateBySig","inputs":[{"name":"delegatee","type":"address","internalType":"address"},{"name":"nonce","type":"uint256","internalType":"uint256"},{"name":"expiry","type":"uint256","internalType":"uint256"},{"name":"v","type":"uint8","internalType":"uint8"},{"name":"r","type":"bytes32","internalType":"bytes32"},{"name":"s","type":"bytes32","internalType":"bytes32"}],"outputs":[],"stateMutability":"nonpayable"},{"type":"function","name":"delegates","inputs":[{"name":"account","type":"address","internalType":"address"}],"outputs":[{"name":"","type":"address","internalType":"address"}],"stateMutability":"view"},{"type":"function","name":"depositFor","inputs":[{"name":"account","type":"address","internalType":"address"},{"name":"value","type":"uint256","internalType":"uint256"}],"outputs":[{"name":"","type":"bool","internalType":"bool"}],"stateMutability":"nonpayable"},{"type":"function","name":"eip712Domain","inputs":[],"outputs":[{"name":"fields","type":"bytes1","internalType":"bytes1"},{"name":"name","type":"string","internalType":"string"},{"name":"version","type":"string","internalType":"string"},{"name":"chainId","type":"uint256","internalType":"uint256"},{"name":"verifyingContract","type":"address","internalType":"address"},{"name":"salt","type":"bytes32","internalType":"bytes32"},{"name":"extensions","type":"uint256[]","internalType":"uint256[]"}],"stateMutability":"view"},{"type":"function","name":"getPastTotalSupply","inputs":[{"name":"timepoint","type":"uint256","internalType":"uint256"}],"outputs":[{"name":"","type":"uint256","internalType":"uint256"}],"stateMutability":"view"},{"type":"function","name":"getPastVotes","inputs":[{"name":"account","type":"address","internalType":"address"},{"name":"timepoint","type":"uint256","internalType":"uint256"}],"outputs":[{"name":"","type":"uint256","internalType":"uint256"}],"stateMutability":"view"},{"type":"function","name":"getVotes","inputs":[{"name":"account","type":"address","internalType":"address"}],"outputs":[{"name":"","type":"uint256","internalType":"uint256"}],"stateMutability":"view"},{"type":"function","name":"name","inputs":[],"outputs":[{"name":"","type":"string","internalType":"string"}],"stateMutability":"view"},{"type":"function","name":"nonces","inputs":[{"name":"owner","type":"address","internalType":"address"}],"outputs":[{"name":"","type":"uint256","internalType":"uint256"}],"stateMutability":"view"},{"type":"function","name":"numCheckpoints","inputs":[{"name":"account","type":"address","internalType":"address"}],"outputs":[{"name":"","type":"uint32","internalType":"uint32"}],"stateMutability":"view"},{"type":"function","name":"permit","inputs":[{"name":"owner","type":"address","internalType":"address"},{"name":"spender","type":"address","internalType":"address"},{"name":"value","type":"uint256","internalType":"uint256"},{"name":"deadline","type":"uint256","internalType":"uint256"},{"name":"v","type":"uint8","internalType":"uint8"},{"name":"r","type":"bytes32","internalType":"bytes32"},{"name":"s","type":"bytes32","internalType":"bytes32"}],"outputs":[],"stateMutability":"nonpayable"},{"type":"function","name":"symbol","inputs":[],"outputs":[{"name":"","type":"string","internalType":"string"}],"stateMutability":"view"},{"type":"function","name":"totalSupply","inputs":[],"outputs":[{"name":"","type":"uint256","internalType":"uint256"}],"stateMutability":"view"},{"type":"function","name":"transfer","inputs":[{"name":"to","type":"address","internalType":"address"},{"name":"value","type":"uint256","internalType":"uint256"}],"outputs":[{"name":"","type":"bool","internalType":"bool"}],"stateMutability":"nonpayable"},{"type":"function","name":"transferFrom","inputs":[{"name":"from","type":"address","internalType":"address"},{"name":"to","type":"address","internalType":"address"},{"name":"value","type":"uint256","internalType":"uint256"}],"outputs":[{"name":"","type":"bool","internalType":"bool"}],"stateMutability":"nonpayable"},{"type":"function","name":"underlying","inputs":[],"outputs":[{"name":"","type":"address","internalType":"contract IERC20"}],"stateMutability":"view"},{"type":"function","name":"withdrawTo","inputs":[{"name":"account","type":"address","internalType":"address"},{"name":"value","type":"uint256","internalType":"uint256"}],"outputs":[{"name":"","type":"bool","internalType":"bool"}],"stateMutability":"nonpayable"},{"type":"event","name":"Approval","inputs":[{"name":"owner","type":"address","indexed":true,"internalType":"address"},{"name":"spender","type":"address","indexed":true,"internalType":"address"},{"name":"value","type":"uint256","indexed":false,"internalType":"uint256"}],"anonymous":false},{"type":"event","name":"DelegateChanged","inputs":[{"name":"delegator","type":"address","indexed":true,"internalType":"address"},{"name":"fromDelegate","type":"address","indexed":true,"internalType":"address"},{"name":"toDelegate","type":"address","indexed":true,"internalType":"address"}],"anonymous":false},{"type":"event","name":"DelegateVotesChanged","inputs":[{"name":"delegate","type":"address","indexed":true,"internalType":"address"},{"name":"previousVotes","type":"uint256","indexed":false,"internalType":"uint256"},{"name":"newVotes","type":"uint256","indexed":false,"internalType":"uint256"}],"anonymous":false},{"type":"event","name":"EIP712DomainChanged","inputs":[],"anonymous":false},{"type":"event","name":"Initialized","inputs":[{"name":"version","type":"uint64","indexed":false,"internalType":"uint64"}],"anonymous":false},{"type":"event","name":"Transfer","inputs":[{"name":"from","type":"address","indexed":true,"internalType":"address"},{"name":"to","type":"address","indexed":true,"internalType":"address"},{"name":"value","type":"uint256","indexed":false,"internalType":"uint256"}],"anonymous":false},{"type":"error","name":"AddressEmptyCode","inputs":[{"name":"target","type":"address","internalType":"address"}]},{"type":"error","name":"AddressInsufficientBalance","inputs":[{"name":"account","type":"address","internalType":"address"}]},{"type":"error","name":"CheckpointUnorderedInsertion","inputs":[]},{"type":"error","name":"ECDSAInvalidSignature","inputs":[]},{"type":"error","name":"ECDSAInvalidSignatureLength","inputs":[{"name":"length","type":"uint256","internalType":"uint256"}]},{"type":"error","name":"ECDSAInvalidSignatureS","inputs":[{"name":"s","type":"bytes32","internalType":"bytes32"}]},{"type":"error","name":"ERC20ExceededSafeSupply","inputs":[{"name":"increasedSupply","type":"uint256","internalType":"uint256"},{"name":"cap","type":"uint256","internalType":"uint256"}]},{"type":"error","name":"ERC20InsufficientAllowance","inputs":[{"name":"spender","type":"address","internalType":"address"},{"name":"allowance","type":"uint256","internalType":"uint256"},{"name":"needed","type":"uint256","internalType":"uint256"}]},{"type":"error","name":"ERC20InsufficientBalance","inputs":[{"name":"sender","type":"address","internalType":"address"},{"name":"balance","type":"uint256","internalType":"uint256"},{"name":"needed","type":"uint256","internalType":"uint256"}]},{"type":"error","name":"ERC20InvalidApprover","inputs":[{"name":"approver","type":"address","internalType":"address"}]},{"type":"error","name":"ERC20InvalidReceiver","inputs":[{"name":"receiver","type":"address","internalType":"address"}]},{"type":"error","name":"ERC20InvalidSender","inputs":[{"name":"sender","type":"address","internalType":"address"}]},{"type":"error","name":"ERC20InvalidSpender","inputs":[{"name":"spender","type":"address","internalType":"address"}]},{"type":"error","name":"ERC20InvalidUnderlying","inputs":[{"name":"token","type":"address","internalType":"address"}]},{"type":"error","name":"ERC2612ExpiredSignature","inputs":[{"name":"deadline","type":"uint256","internalType":"uint256"}]},{"type":"error","name":"ERC2612InvalidSigner","inputs":[{"name":"signer","type":"address","internalType":"address"},{"name":"owner","type":"address","internalType":"address"}]},{"type":"error","name":"ERC5805FutureLookup","inputs":[{"name":"timepoint","type":"uint256","internalType":"uint256"},{"name":"clock","type":"uint48","internalType":"uint48"}]},{"type":"error","name":"ERC6372InconsistentClock","inputs":[]},{"type":"error","name":"FailedInnerCall","inputs":[]},{"type":"error","name":"InvalidAccountNonce","inputs":[{"name":"account","type":"address","internalType":"address"},{"name":"currentNonce","type":"uint256","internalType":"uint256"}]},{"type":"error","name":"InvalidInitialization","inputs":[]},{"type":"error","name":"NotInitializing","inputs":[]},{"type":"error","name":"SafeCastOverflowedUintDowncast","inputs":[{"name":"bits","type":"uint8","internalType":"uint8"},{"name":"value","type":"uint256","internalType":"uint256"}]},{"type":"error","name":"SafeERC20FailedOperation","inputs":[{"name":"token","type":"address","internalType":"address"}]},{"type":"error","name":"VotesExpiredSignature","inputs":[{"name":"expiry","type":"uint256","internalType":"uint256"}]}],"bytecode":{"object":"0x601f6200307438819003918201601f191660809081019290916001600160401b038411838510176200059a5781602092849260409687528339810103126200090a57516001600160a01b03811681036200090a577ff0c57e16840df040f15088dc2f81fe391c3923bec73e23a9662efc9c229c6a00805490916001600160401b03821680159081620008fb575b6001149081620008f0575b159081620008e6575b50620008d5576001600160401b03198216600117835581841c60ff1615620008b7575b620000cd6200092e565b620000d76200090e565b600e81526d135e551bdad95b95dc985c1c195960921b6020820152620000fc6200090e565b9060038252624d544b60e81b6020830152620001176200092e565b8051906001600160401b0382116200059a575f80516020620030148339815191525490600182811c92168015620008ac575b60208310146200057b5781601f8493116200083e575b50602090601f8311600114620007a9575f926200079d575b50508160011b915f199060031b1c1916175f8051602062003014833981519152555b80516001600160401b0381116200059a577f52c63247e1f47db19d5ce0460030c497f067ca4cebf71ba98eeadabe20bace0491825490600182811c9216801562000792575b60208310146200057b5781601f8493116200073d575b50602090601f8311600114620006d4575f92620006c8575b50508160011b915f199060031b1c19161790555b6200022a6200090e565b600e81526d135e551bdad95b95dc985c1c195960921b60208201526200024f6200090e565b9060018252603160f81b6020830152620002686200092e565b8051906001600160401b0382116200059a575f80516020620030348339815191525490600182811c92168015620006bd575b60208310146200057b5781601f8493116200064f575b50602090601f8311600114620005ba575f92620005ae575b50508160011b915f199060031b1c1916175f8051602062003034833981519152555b80516001600160401b0381116200059a577fa16a46d94261c7517cc8ff89f61c0ce93598e3c849801011dee649a6a557d10391825490600182811c921680156200058f575b60208310146200057b5781601f84931162000526575b50602090601f8311600114620004bd575f92620004b1575b50508160011b915f199060031b1c19161790555b5f7fa16a46d94261c7517cc8ff89f61c0ce93598e3c849801011dee649a6a557d100555f7fa16a46d94261c7517cc8ff89f61c0ce93598e3c849801011dee649a6a557d101556d135e551bdad95b95dc985c1c195960921b6020620003d56200090e565b600e81520152620003e56200092e565b620003ef6200092e565b6001600160a01b03811630146200049a577f3b5a617e0d4c238430871a64fe18212794b0c8d05a4eac064a8c9039fb5e070080546001600160a01b0319166001600160a01b03909216919091179055821c60ff161562000459575b50516126839081620009718239f35b68ff00000000000000001981541690557fc7f505b2f371ae2175ee4913f4499e1f2633a7b5936321eed1cdaeb6115181d26020825160018152a15f6200044a565b835163438d6fe360e01b8152306004820152602490fd5b015190505f806200035d565b5f858152602081209350601f198516905b8181106200050d5750908460019594939210620004f4575b505050811b01905562000371565b01515f1960f88460031b161c191690555f8080620004e6565b92936020600181928786015181550195019301620004ce565b909150835f5260205f20601f840160051c8101916020851062000570575b90601f859493920160051c01905b81811062000561575062000345565b5f815584935060010162000552565b909150819062000544565b634e487b7160e01b5f52602260045260245ffd5b91607f16916200032f565b634e487b7160e01b5f52604160045260245ffd5b015190505f80620002c8565b5f80516020620030348339815191525f90815293505f805160206200305483398151915291905b601f198416851062000633576001945083601f198116106200061a575b505050811b015f805160206200303483398151915255620002ea565b01515f1960f88460031b161c191690555f8080620005fe565b81810151835560209485019460019093019290910190620005e1565b5f80516020620030348339815191525f529091505f8051602062003054833981519152601f840160051c81019160208510620006b2575b90601f859493920160051c01905b818110620006a35750620002b0565b5f815584935060010162000694565b909150819062000686565b91607f16916200029a565b015190505f806200020c565b5f858152602081209350601f198516905b8181106200072457509084600195949392106200070b575b505050811b01905562000220565b01515f1960f88460031b161c191690555f8080620006fd565b92936020600181928786015181550195019301620006e5565b909150835f5260205f20601f840160051c8101916020851062000787575b90601f859493920160051c01905b818110620007785750620001f4565b5f815584935060010162000769565b90915081906200075b565b91607f1691620001de565b015190505f8062000177565b5f80516020620030148339815191525f90815293505f8051602062002ff483398151915291905b601f198416851062000822576001945083601f1981161062000809575b505050811b015f80516020620030148339815191525562000199565b01515f1960f88460031b161c191690555f8080620007ed565b81810151835560209485019460019093019290910190620007d0565b5f80516020620030148339815191525f529091505f8051602062002ff4833981519152601f840160051c81019160208510620008a1575b90601f859493920160051c01905b8181106200089257506200015f565b5f815584935060010162000883565b909150819062000875565b91607f169162000149565b6001600160481b0319821668010000000000000001178355620000c3565b835163f92ee8a960e01b8152600490fd5b9050155f620000a0565b303b15915062000097565b83861c60ff161591506200008c565b5f80fd5b60408051919082016001600160401b038111838210176200059a57604052565b60ff7ff0c57e16840df040f15088dc2f81fe391c3923bec73e23a9662efc9c229c6a005460401c16156200095e57565b604051631afcd79f60e31b8152600490fdfe60806040526004361015610011575f80fd5b5f3560e01c806306fdde03146101b4578063095ea7b3146101af57806318160ddd146101aa578063205c2878146101a557806323b872dd146101a05780632f4f21e21461019b578063313ce567146101965780633644e515146101915780633a46b1a81461018c5780634bf5d7e914610187578063587cde1e146101825780635c19a95c1461017d5780636f307dc3146101785780636fcfff451461017357806370a082311461016e5780637ecebe001461016957806384b0196e146101645780638e539e8c1461015f57806391ddadf41461015a57806395d89b41146101555780639ab24eb014610150578063a9059cbb1461014b578063c3cda52014610146578063d505accf14610141578063dd62ed3e1461013c5763f1127ed814610137575f80fd5b611027565b610fef565b610eb8565b610deb565b610dba565b610d83565b610c84565b610c59565b610b49565b610a79565b61099e565b61097b565b610921565b6108ed565b6108c9565b610884565b6107f3565b6106ce565b6106ac565b610687565b6105f0565b6104fd565b6103dd565b6103b4565b610383565b61020b565b91908251928382525f5b8481106101e3575050825f602080949584010152601f8019910116010190565b6020818301810151848301820152016101c3565b9060206102089281815201906101b9565b90565b34610353575f806003193601126103505760405190807f52c63247e1f47db19d5ce0460030c497f067ca4cebf71ba98eeadabe20bace03549060019180831c92808216928315610346575b6020928386108514610332578588526020880194908115610311575060011461029a575b6102968761028a818903826110ff565b604051918291826101f7565b0390f35b7f52c63247e1f47db19d5ce0460030c497f067ca4cebf71ba98eeadabe20bace035f5294509192917f2ae08a8e29253f69ac5d979a101956ab8f8d9d7ded63fa7a83b16fc47648eab05b838610610300575050509101905061028a826102965f8061027a565b8054858701529482019481016102e4565b60ff191685525050505090151560051b01905061028a826102965f8061027a565b634e487b7160e01b82526022600452602482fd5b93607f1693610256565b80fd5b5f80fd5b600435906001600160a01b038216820361035357565b602435906001600160a01b038216820361035357565b34610353576040366003190112610353576103a961039f610357565b602435903361176b565b602060405160018152f35b34610353575f3660031901126103535760205f805160206125ce83398151915254604051908152f35b3461035357604080600319360112610353576103f7610357565b906024356001600160a01b0383163081146104e6575033156104cf5761041c3361114c565b54928184106104a8578161049e9394036104353361114c565b5561045b825f805160206125ce83398151915254035f805160206125ce83398151915255565b83518281525f9033905f8051602061262e83398151915290602090a361048182336117c3565b5f805160206125ee833981519152546001600160a01b0316611c7f565b5160018152602090f35b50815163391434e360e21b8152336004820152602481018490526044810191909152606490fd5b8151634b637e8f60e11b81525f6004820152602490fd5b60249083519063ec442f0560e01b82526004820152fd5b3461035357606036600319011261035357610516610357565b61051e61036d565b604435906105443361052f85611184565b9060018060a01b03165f5260205260405f2090565b549260018401610565575b610559935061169e565b60405160018152602090f35b8284106105ca576001600160a01b038116156105b257331561059a578261055994036105943361052f84611184565b5561054f565b604051634a1406b160e11b81525f6004820152602490fd5b60405163e602df0560e01b81525f6004820152602490fd5b604051637dc7a0d960e11b81523360048201526024810185905260448101849052606490fd5b3461035357604036600319011261035357610609610357565b60243530331461066f576001600160a01b03821691308314610656575f805160206125ee833981519152546105599350610651908390309033906001600160a01b0316611cbd565b6119e6565b60405163ec442f0560e01b815260048101849052602490fd5b604051634b637e8f60e11b8152306004820152602490fd5b34610353575f3660031901126103535760206106a1611965565b60ff60405191168152f35b34610353575f3660031901126103535760206106c6611b0d565b604051908152f35b34610353576040366003190112610353576106e7610357565b602435906106f443611f9f565b9065ffffffffffff918281168410156107ca575061071461071a916111bc565b92611f9f565b8254905f90826005811161077c575b5061073593508461254d565b5f91908061075f575050506102965f5b6040516001600160d01b0390911681529081906020820190565b6102969261076e602092611fd1565b92815220015460301c610745565b909261078782611ffd565b82039182116107c55761073594868452808360208620015416908516105f146107b35750915b5f610729565b9291506107bf9061193f565b906107ad565b611435565b604051637669fc0f60e11b81526004810185905265ffffffffffff919091166024820152604490fd5b34610353575f3660031901126103535761080c43611f9f565b65ffffffffffff8061081d43611f9f565b1691160361087257610296604051610834816110c2565b601d81527f6d6f64653d626c6f636b6e756d6265722666726f6d3d64656661756c7400000060208201526040519182916020835260208301906101b9565b6040516301bfc1c560e61b8152600490fd5b346103535760203660031901126103535760206001600160a01b03806108a8610357565b165f525f805160206125ae833981519152825260405f205416604051908152f35b34610353576020366003190112610353576108eb6108e5610357565b336111f4565b005b34610353575f366003190112610353575f805160206125ee833981519152546040516001600160a01b039091168152602090f35b346103535760203660031901126103535761094261093d610357565b6111bc565b5463ffffffff9081811161095c5760209160405191168152f35b604490604051906306dfcc6560e41b8252602060048301526024820152fd5b346103535760203660031901126103535760206106c6610999610357565b611665565b34610353576020366003190112610353576001600160a01b036109bf610357565b165f527f5ab42ced628888259c08ac98db1eb0cf702fc1501344311d8b100cd1bfe4bb00602052602060405f2054604051908152f35b91610a2890949194600f60f81b8452610a1a60209660e08887015260e08601906101b9565b9084820360408601526101b9565b92606083015260018060a01b031660808201525f60a082015260c08183039101528180845192838152019301915f5b828110610a65575050505090565b835185529381019392810192600101610a57565b34610353575f366003190112610353577fa16a46d94261c7517cc8ff89f61c0ce93598e3c849801011dee649a6a557d100541580610b20575b15610ae357610abf611449565b610ac7611571565b90610296610ad3611ba9565b60405193849330914691866109f5565b60405162461bcd60e51b81526020600482015260156024820152741152540dcc4c8e88155b9a5b9a5d1a585b1a5e9959605a1b6044820152606490fd5b507fa16a46d94261c7517cc8ff89f61c0ce93598e3c849801011dee649a6a557d1015415610ab2565b3461035357602036600319011261035357600435610b6643611f9f565b9065ffffffffffff91828116821015610c325750610b8390611f9f565b905f8051602061260e833981519152918254905f908260058111610be9575b50610bad93506124c8565b5f919080610bce5750505060205f5b6040516001600160d01b039091168152f35b602092610bdb8492611fd1565b92815220015460301c610bbc565b9092610bf482611ffd565b82039182116107c557610bad94868452808360208620015416908516105f14610c205750915b5f610ba2565b929150610c2c9061193f565b90610c1a565b604051637669fc0f60e11b8152600481019290925265ffffffffffff166024820152604490fd5b34610353575f366003190112610353576020610c7443611f9f565b65ffffffffffff60405191168152f35b34610353575f806003193601126103505760405190807f52c63247e1f47db19d5ce0460030c497f067ca4cebf71ba98eeadabe20bace04549060019180831c92808216928315610d79575b60209283861085146103325785885260208801949081156103115750600114610d02576102968761028a818903826110ff565b7f52c63247e1f47db19d5ce0460030c497f067ca4cebf71ba98eeadabe20bace045f5294509192917f46a2803e59a4de4e7a4c574b1243f25977ac4c77d5a1a4a609b5394cebb4a2aa5b838610610d68575050509101905061028a826102965f8061027a565b805485870152948201948101610d4c565b93607f1693610ccf565b346103535760203660031901126103535760206001600160d01b03610db1610dac61093d610357565b612186565b16604051908152f35b34610353576040366003190112610353576103a9610dd6610357565b602435903361169e565b60ff81160361035357565b346103535760c036600319011261035357610e04610357565b60443590602435606435610e1781610de0565b834211610e9f57610e936108eb94610e9a926040519060208201927fe48329057bfd03d55e49b547132e39cffd9c1820ad7b9d4c5307691425d15adf845260018060a01b0388166040840152866060840152608083015260808252610e7b826110e3565b610e8e60a4359360843593519020611b83565b611e25565b9182611ace565b6111f4565b604051632341d78760e11b815260048101859052602490fd5b346103535760e036600319011261035357610ed1610357565b610ed961036d565b60443590606435608435610eec81610de0565b814211610fd65790610f6e610f8f92610f7c610f0788611a8d565b604080517f6e71edae12b1b97f4d1f60370fef10105fa2faae0126114a169c64845d6126c9602082019081526001600160a01b03808d16938301939093529189166060820152608081018a905260a081019290925260c082019590955292839060e0820190565b03601f1981018452836110ff565b610e8e60c4359360a43593519020611b83565b6001600160a01b0384811690821603610fac57506108eb9261176b565b6040516325c0072360e11b81526001600160a01b0391821660048201529084166024820152604490fd5b60405163313c898160e11b815260048101839052602490fd5b3461035357604036600319011261035357602061101e61100d610357565b61052f61101861036d565b91611184565b54604051908152f35b3461035357604036600319011261035357611040610357565b60243563ffffffff81168103610353576110826110889161107460409461106561194d565b5061106e61194d565b506111bc565b61107c61194d565b50612196565b506121bf565b8151815165ffffffffffff1681526020918201516001600160d01b031691810191909152f35b634e487b7160e01b5f52604160045260245ffd5b6040810190811067ffffffffffffffff8211176110de57604052565b6110ae565b60a0810190811067ffffffffffffffff8211176110de57604052565b90601f8019910116810190811067ffffffffffffffff8211176110de57604052565b6040519061112e826110c2565b565b67ffffffffffffffff81116110de57601f01601f191660200190565b6001600160a01b03165f9081527f52c63247e1f47db19d5ce0460030c497f067ca4cebf71ba98eeadabe20bace006020526040902090565b6001600160a01b03165f9081527f52c63247e1f47db19d5ce0460030c497f067ca4cebf71ba98eeadabe20bace016020526040902090565b6001600160a01b03165f9081527fe8b26c30fad74198956032a3533d903385d56dd795af560196f9c78d4af40d016020526040902090565b6001600160a01b038181165f8181525f805160206125ae8339815191526020526040812080548685166001600160a01b03198216811790925561112e969416946112669390928691907f3134e8a2e6d97e929a7e54011ea5485d7d196dd5f0ba4d4ef95803e8e3fc257f9080a4611665565b915b6001600160a01b03808316939291908116908185141580611393575b611290575b5050505050565b81611305575b5050826112a5575b8080611289565b7fdec2bacdd2f05b59de34da9b523dff8be42e5e38e818c82fdb0bae774387a724916112dc6112d66112e2936111bc565b91611f6c565b9061139c565b604080516001600160d01b039384168152919092166020820152a25f808061129e565b61130e906111bc565b61131784611f6c565b61132043611f9f565b6001600160d01b0391828061133486612186565b1691169003928284116107c5577fdec2bacdd2f05b59de34da9b523dff8be42e5e38e818c82fdb0bae774387a7249361138992611370926123ea565b6040805192851683529316602082015291829190820190565b0390a25f80611296565b50831515611284565b906113a643611f9f565b6001600160d01b039182806113ba86612186565b169116019182116107c5576113ce926123ea565b9091565b6113db43611f9f565b906001600160d01b039081806113ef61214d565b169116019081116107c5576113ce9161229a565b61140c43611f9f565b906001600160d01b0390818061142061214d565b1691169003908111611435576113ce9161229a565b634e487b7160e01b5f52601160045260245ffd5b604051905f7fa16a46d94261c7517cc8ff89f61c0ce93598e3c849801011dee649a6a557d1025490600182811c92818116918215611567575b60209182861084146115535785885287949360208601939291811561153457506001146114b9575b50505061112e925003836110ff565b7fa16a46d94261c7517cc8ff89f61c0ce93598e3c849801011dee649a6a557d1025f5290949092507f42ad5d3e1f2e6e70edcf6d991b8a3023d3fca8047a131592f9edb9fd9b89d57d945f935b82851061151e5750505061112e9350015f80806114aa565b8654858501529586019588955093810193611506565b9250505061112e9491925060ff19168252151560051b015f80806114aa565b634e487b7160e01b85526022600452602485fd5b93607f1693611482565b604051905f7fa16a46d94261c7517cc8ff89f61c0ce93598e3c849801011dee649a6a557d1035490600182811c9281811691821561165b575b60209182861084146115535785885287949360208601939291811561153457506001146115e05750505061112e925003836110ff565b7fa16a46d94261c7517cc8ff89f61c0ce93598e3c849801011dee649a6a557d1035f5290949092507f5f9ce34815f8e11431c7bb75a8e6886a91478f7ffc1dbb0a98dc240fddd76b75945f935b8285106116455750505061112e9350015f80806114aa565b865485850152958601958895509381019361162d565b93607f16936115aa565b6001600160a01b03165f9081527f52c63247e1f47db19d5ce0460030c497f067ca4cebf71ba98eeadabe20bace00602052604090205490565b6001600160a01b0380821694939291908515611753578216801561173b576116c58261114c565b549584871061170c578461112e9697036116de8461114c565b556116e88461114c565b8054860190556040518581525f8051602061262e83398151915290602090a36118cc565b60405163391434e360e21b81526001600160a01b03841660048201526024810188905260448101869052606490fd5b60405163ec442f0560e01b81525f6004820152602490fd5b604051634b637e8f60e11b81525f6004820152602490fd5b6001600160a01b0380821692919083156105b257821693841561059a57806117b97f8c5be1e5ebec7d5bd14f71427d1e84f3dd0314c0f7b2291e5b200ac8c7c3b9259461052f602095611184565b55604051908152a3565b61112e91906001600160a01b039081168015611835575b6117eb6117e684611f6c565b611403565b50505f9081525f805160206125ae83398151915260205260408120549080527fd4fb29e10204005f1a39963c6862b79a755e22f0177c53f05cdc3786c702f9745482169116611268565b61184661184184611f6c565b6113d2565b50506117da565b9061112e9161185e61184183611f6c565b50506001600160a01b039081169081156118b9575b5f805160206125ae8339815191526020527fd4fb29e10204005f1a39963c6862b79a755e22f0177c53f05cdc3786c702f974545f92835260409092205481169116611268565b6118c56117e684611f6c565b5050611873565b61112e92916001600160a01b0391821691908190831561192c575b16918215611919575b5f525f805160206125ae8339815191526020528060405f205416915f5260405f20541690611268565b6119256117e685611f6c565b50506118f0565b61193861184186611f6c565b50506118e7565b90600182018092116107c557565b6040519061195a826110c2565b5f6020838281520152565b5f805160206125ee8339815191525460405163313ce56760e01b815290602090829060049082906001600160a01b03165afa5f91816119aa575b506102085750601290565b90916020823d82116119de575b816119c4602093836110ff565b810103126103505750516119d781610de0565b905f61199f565b3d91506119b7565b91906001600160a01b038316801561173b575f805160206125ce8339815191529081548381018091116107c5575f805160206125ce83398151915255611a2b8561114c565b8054840190556040518381525f905f8051602061262e83398151915290602090a354926001600160d01b038411611a675761112e92935061184d565b604051630e58ae9360e11b8152600481018590526001600160d01b036024820152604490fd5b6001600160a01b03165f9081527f5ab42ced628888259c08ac98db1eb0cf702fc1501344311d8b100cd1bfe4bb006020526040902080546001810190915590565b611ad781611a8d565b809203611ae2575050565b6040516301d4b62360e61b81526001600160a01b039190911660048201526024810191909152604490fd5b611b15611bd0565b611b1d611c3a565b6040519060208201927f8b73c3c69bb8fe3d512ecc4cf759cc79239f7b179b0ffacaa9a75d522b39400f8452604083015260608201524660808201523060a082015260a0815260c0810181811067ffffffffffffffff8211176110de5760405251902090565b604290611b8e611b0d565b906040519161190160f01b8352600283015260228201522090565b6040516020810181811067ffffffffffffffff8211176110de576040525f8152905f368137565b611bd8611449565b8051908115611be8576020012090565b50507fa16a46d94261c7517cc8ff89f61c0ce93598e3c849801011dee649a6a557d100548015611c155790565b507fc5d2460186f7233c927e7db2dcc703c0e500b653ca82273b7bfad8045d85a47090565b611c42611571565b8051908115611c52576020012090565b50507fa16a46d94261c7517cc8ff89f61c0ce93598e3c849801011dee649a6a557d101548015611c155790565b60405163a9059cbb60e01b60208201526001600160a01b039092166024830152604482019290925261112e91611cb88260648101610f6e565b611d17565b6040516323b872dd60e01b60208201526001600160a01b03928316602482015292909116604483015260648083019390935291815261112e91611cb8826110e3565b90816020910312610353575180151581036103535790565b5f80611d5f9260018060a01b03169360208151910182865af13d15611dba573d90611d4182611130565b91611d4f60405193846110ff565b82523d5f602084013e5b83611dc2565b8051908115159182611d98575b5050611d755750565b604051635274afe760e01b81526001600160a01b03919091166004820152602490fd5b611db3925090602080611daf938301019101611cff565b1590565b5f80611d6c565b606090611d59565b90611de95750805115611dd757805190602001fd5b604051630a12f52160e11b8152600490fd5b81511580611e1c575b611dfa575090565b604051639996b31560e01b81526001600160a01b039091166004820152602490fd5b50803b15611df2565b916102089391611e3493611e3d565b90929192611edf565b91906fa2a8918ca85bafe22016d0b997e4df60600160ff1b038411611eb657926020929160ff6080956040519485521684840152604083015260608201525f92839182805260015afa15611eaa5780516001600160a01b03811615611ea157918190565b50809160019190565b604051903d90823e3d90fd5b5050505f9160039190565b60041115611ecb57565b634e487b7160e01b5f52602160045260245ffd5b611ee881611ec1565b80611ef1575050565b611efa81611ec1565b60018103611f145760405163f645eedf60e01b8152600490fd5b611f1d81611ec1565b60028103611f3e5760405163fce698f760e01b815260048101839052602490fd5b80611f4a600392611ec1565b14611f525750565b6040516335e2f38360e21b81526004810191909152602490fd5b6001600160d01b0390818111611f80571690565b604490604051906306dfcc6560e41b825260d060048301526024820152fd5b65ffffffffffff90818111611fb2571690565b604490604051906306dfcc6560e41b8252603060048301526024820152fd5b5f198101919082116107c557565b8115611fe9570490565b634e487b7160e01b5f52601260045260245ffd5b801561213657806120cf6120c86120be6120b46120aa6120a061209661208c60016102089a5f908b60801c8061212a575b508060401c8061211d575b508060201c80612110575b508060101c80612103575b508060081c806120f6575b508060041c806120e9575b508060021c806120dc575b50821c6120d5575b811c1b612085818b611fdf565b0160011c90565b612085818a611fdf565b6120858189611fdf565b6120858188611fdf565b6120858187611fdf565b6120858186611fdf565b6120858185611fdf565b8092611fdf565b9061213b565b8101612078565b600291509101905f612070565b600491509101905f612065565b600891509101905f61205a565b601091509101905f61204f565b602091509101905f612044565b604091509101905f612039565b9150506080905f61202e565b505f90565b9080821015612148575090565b905090565b5f8051602061260e83398151915280545f918161216b575050505f90565b5f199282848101116107c55760209181522001015460301c90565b80545f918161216b575050505f90565b80548210156121ab575f5260205f2001905f90565b634e487b7160e01b5f52603260045260245ffd5b906040516121cc816110c2565b915465ffffffffffff8116835260301c6020830152565b5f8051602061260e833981519152908154600160401b8110156110de57600181018084558110156121ab575f9283526020928390208251929093015160301b65ffffffffffff191665ffffffffffff9290921691909117910155565b8054600160401b8110156110de5761225c91600182018155612196565b61228757815160209092015160301b65ffffffffffff191665ffffffffffff92909216919091179055565b634e487b7160e01b5f525f60045260245ffd5b5f8051602061260e833981519152549192919081156123c1576122fc6122f76122c284611fd1565b5f8051602061260e8339815191525f527f88c46c62109817164d0ae1873830d4299a82e5daf552a3d8e989b27638fcf7480190565b6121bf565b805165ffffffffffff83811694911684106123af57856020936123739561233761232c865165ffffffffffff1690565b65ffffffffffff1690565b03612377575061234c6122c261236593611fd1565b9065ffffffffffff82549181199060301b169116179055565b01516001600160d01b031690565b9190565b90506123aa9150612397612389611121565b65ffffffffffff9092168252565b6001600160d01b038716818501526121e3565b612365565b604051632520601d60e01b8152600490fd5b6123e591506123d1612389611121565b6001600160d01b03841660208201526121e3565b5f9190565b8054929392919082156124a4576124116122f761240685611fd1565b835f5260205f200190565b90612422825165ffffffffffff1690565b65ffffffffffff848116911681106123af5761237394602094889261245061232c875165ffffffffffff1690565b0361247157506123659261246661234c92611fd1565b905f5260205f200190565b9150506123aa91612491612483611121565b65ffffffffffff9093168352565b6001600160d01b0388168286015261223f565b6123e592506124b4612483611121565b6001600160d01b038516602083015261223f565b905b8281106124d657505090565b90918082169080831860011c82018092116107c5575f8051602061260e8339815191525f527f88c46c62109817164d0ae1873830d4299a82e5daf552a3d8e989b27638fcf74882015465ffffffffffff908116908516101561253b5750915b906124ca565b9291506125479061193f565b90612535565b91905b83821061255d5750505090565b9091928083169080841860011c82018092116107c5575f8581526020902082015465ffffffffffff908116908416101561259b5750925b9190612550565b9392506125a79061193f565b9161259456fee8b26c30fad74198956032a3533d903385d56dd795af560196f9c78d4af40d0052c63247e1f47db19d5ce0460030c497f067ca4cebf71ba98eeadabe20bace023b5a617e0d4c238430871a64fe18212794b0c8d05a4eac064a8c9039fb5e0700e8b26c30fad74198956032a3533d903385d56dd795af560196f9c78d4af40d02ddf252ad1be2c89b69c2b068fc378daa952ba7f163c4a11628f55a4df523b3efa2646970667358221220bdd7c2e46a501b5caf23c13f90d34446156db57bad1f46f84650ce1d061ae65b64736f6c634300081400332ae08a8e29253f69ac5d979a101956ab8f8d9d7ded63fa7a83b16fc47648eab052c63247e1f47db19d5ce0460030c497f067ca4cebf71ba98eeadabe20bace03a16a46d94261c7517cc8ff89f61c0ce93598e3c849801011dee649a6a557d10242ad5d3e1f2e6e70edcf6d991b8a3023d3fca8047a131592f9edb9fd9b89d57d","linkReferences":{}},"methodIdentifiers":{"CLOCK_MODE()":"4bf5d7e9","DOMAIN_SEPARATOR()":"3644e515","allowance(address,address)":"dd62ed3e","approve(address,uint256)":"095ea7b3","balanceOf(address)":"70a08231","checkpoints(address,uint32)":"f1127ed8","clock()":"91ddadf4","decimals()":"313ce567","delegate(address)":"5c19a95c","delegateBySig(address,uint256,uint256,uint8,bytes32,bytes32)":"c3cda520","delegates(address)":"587cde1e","depositFor(address,uint256)":"2f4f21e2","eip712Domain()":"84b0196e","getPastTotalSupply(uint256)":"8e539e8c","getPastVotes(address,uint256)":"3a46b1a8","getVotes(address)":"9ab24eb0","name()":"06fdde03","nonces(address)":"7ecebe00","numCheckpoints(address)":"6fcfff45","permit(address,address,uint256,uint256,uint8,bytes32,bytes32)":"d505accf","symbol()":"95d89b41","totalSupply()":"18160ddd","transfer(address,uint256)":"a9059cbb","transferFrom(address,address,uint256)":"23b872dd","underlying()":"6f307dc3","withdrawTo(address,uint256)":"205c2878"},"id":104}