{"abi":[{"type":"constructor","inputs":[],"stateMutability":"payable"},{"type":"function","name":"CLOCK_MODE","inputs":[],"outputs":[{"name":"","type":"string","internalType":"string"}],"stateMutability":"view"},{"type":"function","name":"clock","inputs":[],"outputs":[{"name":"","type":"uint48","internalType":"uint48"}],"stateMutability":"view"},{"type":"function","name":"delegate","inputs":[{"name":"delegatee","type":"address","internalType":"address"}],"outputs":[],"stateMutability":"nonpayable"},{"type":"function","name":"delegate","inputs":[{"name":"account","type":"address","internalType":"address"},{"name":"newDelegation","type":"address","internalType":"address"}],"outputs":[],"stateMutability":"nonpayable"},{"type":"function","name":"delegateBySig","inputs":[{"name":"delegatee","type":"address","internalType":"address"},{"name":"nonce","type":"uint256","internalType":"uint256"},{"name":"expiry","type":"uint256","internalType":"uint256"},{"name":"v","type":"uint8","internalType":"uint8"},{"name":"r","type":"bytes32","internalType":"bytes32"},{"name":"s","type":"bytes32","internalType":"bytes32"}],"outputs":[],"stateMutability":"nonpayable"},{"type":"function","name":"delegates","inputs":[{"name":"account","type":"address","internalType":"address"}],"outputs":[{"name":"","type":"address","internalType":"address"}],"stateMutability":"view"},{"type":"function","name":"eip712Domain","inputs":[],"outputs":[{"name":"fields","type":"bytes1","internalType":"bytes1"},{"name":"name","type":"string","internalType":"string"},{"name":"version","type":"string","internalType":"string"},{"name":"chainId","type":"uint256","internalType":"uint256"},{"name":"verifyingContract","type":"address","internalType":"address"},{"name":"salt","type":"bytes32","internalType":"bytes32"},{"name":"extensions","type":"uint256[]","internalType":"uint256[]"}],"stateMutability":"view"},{"type":"function","name":"getPastTotalSupply","inputs":[{"name":"timepoint","type":"uint256","internalType":"uint256"}],"outputs":[{"name":"","type":"uint256","internalType":"uint256"}],"stateMutability":"view"},{"type":"function","name":"getPastVotes","inputs":[{"name":"account","type":"address","internalType":"address"},{"name":"timepoint","type":"uint256","internalType":"uint256"}],"outputs":[{"name":"","type":"uint256","internalType":"uint256"}],"stateMutability":"view"},{"type":"function","name":"getTotalSupply","inputs":[],"outputs":[{"name":"","type":"uint256","internalType":"uint256"}],"stateMutability":"view"},{"type":"function","name":"getVotes","inputs":[{"name":"account","type":"address","internalType":"address"}],"outputs":[{"name":"","type":"uint256","internalType":"uint256"}],"stateMutability":"view"},{"type":"function","name":"nonces","inputs":[{"name":"owner","type":"address","internalType":"address"}],"outputs":[{"name":"","type":"uint256","internalType":"uint256"}],"stateMutability":"view"},{"type":"event","name":"DelegateChanged","inputs":[{"name":"delegator","type":"address","indexed":true,"internalType":"address"},{"name":"fromDelegate","type":"address","indexed":true,"internalType":"address"},{"name":"toDelegate","type":"address","indexed":true,"internalType":"address"}],"anonymous":false},{"type":"event","name":"DelegateVotesChanged","inputs":[{"name":"delegate","type":"address","indexed":true,"internalType":"address"},{"name":"previousVotes","type":"uint256","indexed":false,"internalType":"uint256"},{"name":"newVotes","type":"uint256","indexed":false,"internalType":"uint256"}],"anonymous":false},{"type":"event","name":"EIP712DomainChanged","inputs":[],"anonymous":false},{"type":"event","name":"Initialized","inputs":[{"name":"version","type":"uint64","indexed":false,"internalType":"uint64"}],"anonymous":false},{"type":"error","name":"CheckpointUnorderedInsertion","inputs":[]},{"type":"error","name":"ECDSAInvalidSignature","inputs":[]},{"type":"error","name":"ECDSAInvalidSignatureLength","inputs":[{"name":"length","type":"uint256","internalType":"uint256"}]},{"type":"error","name":"ECDSAInvalidSignatureS","inputs":[{"name":"s","type":"bytes32","internalType":"bytes32"}]},{"type":"error","name":"ERC5805FutureLookup","inputs":[{"name":"timepoint","type":"uint256","internalType":"uint256"},{"name":"clock","type":"uint48","internalType":"uint48"}]},{"type":"error","name":"ERC6372InconsistentClock","inputs":[]},{"type":"error","name":"InvalidAccountNonce","inputs":[{"name":"account","type":"address","internalType":"address"},{"name":"currentNonce","type":"uint256","internalType":"uint256"}]},{"type":"error","name":"InvalidInitialization","inputs":[]},{"type":"error","name":"NotInitializing","inputs":[]},{"type":"error","name":"SafeCastOverflowedUintDowncast","inputs":[{"name":"bits","type":"uint8","internalType":"uint8"},{"name":"value","type":"uint256","internalType":"uint256"}]},{"type":"error","name":"VotesExpiredSignature","inputs":[{"name":"expiry","type":"uint256","internalType":"uint256"}]}],"bytecode":{"object":"0x608060408181527ff0c57e16840df040f15088dc2f81fe391c3923bec73e23a9662efc9c229c6a0080549192909180841c60ff1615916001600160401b0382168015908162000133575b600114908162000128575b1590816200011e575b506200010f57506001600160401b03198116600117835581620000f1575b5081549060ff82851c1615620000e057620000a0575b825161147890816200013d8239f35b68ff0000000000000000191690557fc7f505b2f371ae2175ee4913f4499e1f2633a7b5936321eed1cdaeb6115181d26020825160018152a15f8062000091565b8351631afcd79f60e31b8152600490fd5b6001600160481b031916680100000000000000011782555f6200007b565b63f92ee8a960e01b8152600490fd5b9050155f6200005d565b303b15915062000054565b8491506200004956fe60806040526004361015610011575f80fd5b5f3560e01c80633a46b1a8146100d45780634bf5d7e9146100cf578063587cde1e146100ca5780635c19a95c146100c55780637ecebe00146100c057806384b0196e146100bb5780638ab65686146100b65780638e539e8c146100b157806391ddadf4146100ac5780639ab24eb0146100a7578063c3cda520146100a25763c4e41b221461009d575f80fd5b61072d565b61065f565b610623565b610601565b6104fb565b6104c6565b6103f6565b61031b565b6102f7565b61029f565b610251565b6100f3565b600435906001600160a01b03821682036100ef57565b5f80fd5b346100ef5760403660031901126100ef5761010c6100d9565b6024359065ffffffffffff90814216808410156101ea57506101306101369161078c565b92610f9b565b8254905f90826005811161019c575b506101519350846113c2565b5f91908061017f5750505061017b5f5b6040516001600160d01b0390911681529081906020820190565b0390f35b61017b9261018e602092610fcd565b92815220015460301c610161565b90926101a782611007565b82039182116101e55761015194868452808360208620015416908516105f146101d35750915b5f610145565b9291506101df90610fdb565b906101cd565b610a10565b604051637669fc0f60e11b81526004810185905265ffffffffffff919091166024820152604490fd5b91908251928382525f5b84811061023d575050825f602080949584010152601f8019910116010190565b60208183018101518483018201520161021d565b346100ef575f3660031901126100ef5761017b604051610270816107d8565b600e81526d06d6f64653d74696d657374616d760941b6020820152604051918291602083526020830190610213565b346100ef5760203660031901126100ef5760206001600160a01b03806102c36100d9565b165f527fe8b26c30fad74198956032a3533d903385d56dd795af560196f9c78d4af40d00825260405f205416604051908152f35b346100ef5760203660031901126100ef576103196103136100d9565b33610837565b005b346100ef5760203660031901126100ef576001600160a01b0361033c6100d9565b165f527f5ab42ced628888259c08ac98db1eb0cf702fc1501344311d8b100cd1bfe4bb00602052602060405f2054604051908152f35b916103a590949194600f60f81b845261039760209660e08887015260e0860190610213565b908482036040860152610213565b92606083015260018060a01b031660808201525f60a082015260c08183039101528180845192838152019301915f5b8281106103e2575050505090565b8351855293810193928101926001016103d4565b346100ef575f3660031901126100ef577fa16a46d94261c7517cc8ff89f61c0ce93598e3c849801011dee649a6a557d10054158061049d575b156104605761043c610b53565b610444610c7b565b9061017b610450610b2c565b6040519384933091469186610372565b60405162461bcd60e51b81526020600482015260156024820152741152540dcc4c8e88155b9a5b9a5d1a585b1a5e9959605a1b6044820152606490fd5b507fa16a46d94261c7517cc8ff89f61c0ce93598e3c849801011dee649a6a557d101541561042f565b346100ef5760403660031901126100ef576104df6100d9565b6024356001600160a01b03811681036100ef5761031991610837565b346100ef5760203660031901126100ef5765ffffffffffff600435428216808210156105da575061052b90610f9b565b905f80516020611423833981519152918254905f908260058111610591575b50610555935061133d565b5f9190806105765750505060205f5b6040516001600160d01b039091168152f35b6020926105838492610fcd565b92815220015460301c610564565b909261059c82611007565b82039182116101e55761055594868452808360208620015416908516105f146105c85750915b5f61054a565b9291506105d490610fdb565b906105c2565b604051637669fc0f60e11b8152600481019290925265ffffffffffff166024820152604490fd5b346100ef575f3660031901126100ef57602060405165ffffffffffff42168152f35b346100ef5760203660031901126100ef5760206001600160d01b0361065661065161064c6100d9565b61078c565b611157565b16604051908152f35b346100ef5760c03660031901126100ef576106786100d9565b6044359060243560643560ff811681036100ef57834211610714576107086103199461070f926040519060208201927fe48329057bfd03d55e49b547132e39cffd9c1820ad7b9d4c5307691425d15adf845260018060a01b03881660408401528660608401526080830152608082526106f0826107f9565b61070360a4359360843593519020610a9c565b610e1e565b9182610a33565b610837565b604051632341d78760e11b815260048101859052602490fd5b346100ef575f80600319360112610789575f8051602061142383398151915280548061076a5750506020906040516001600160d01b039091168152f35b5f199181838101116101e557835260209283902001015460301c610564565b80fd5b6001600160a01b03165f9081527fe8b26c30fad74198956032a3533d903385d56dd795af560196f9c78d4af40d016020526040902090565b634e487b7160e01b5f52604160045260245ffd5b6040810190811067ffffffffffffffff8211176107f457604052565b6107c4565b60a0810190811067ffffffffffffffff8211176107f457604052565b90601f8019910116810190811067ffffffffffffffff8211176107f457604052565b6001600160a01b039081165f8181527fe8b26c30fad74198956032a3533d903385d56dd795af560196f9c78d4af40d00602052604080822080548686166001600160a01b031982168117909255909594169392909190859085907f3134e8a2e6d97e929a7e54011ea5485d7d196dd5f0ba4d4ef95803e8e3fc257f8480a48060205220549183811415806109d0575b6108d1575b50505050565b80610944575b50826108e4575b806108cb565b7fdec2bacdd2f05b59de34da9b523dff8be42e5e38e818c82fdb0bae774387a7249161091b6109156109219361078c565b91610f68565b906109d9565b604080516001600160d01b039384168152919092166020820152a25f80806108de565b61094d8161078c565b61095684610f68565b6001600160d01b0390818061096a85611157565b16911690038181116101e5576109ae6109c7917fdec2bacdd2f05b59de34da9b523dff8be42e5e38e818c82fdb0bae774387a7249465ffffffffffff421690611208565b6040805192851683529316602082015291829190820190565b0390a25f6108d7565b508215156108c6565b906001600160d01b039081806109ee85611157565b16911601908111610a1057610a0c9165ffffffffffff421690611208565b9091565b634e487b7160e01b5f52601160045260245ffd5b60405190610a31826107d8565b565b6001600160a01b03165f8181527f5ab42ced628888259c08ac98db1eb0cf702fc1501344311d8b100cd1bfe4bb00602052604090208054600181019091559091819003610a7e575050565b60449250604051916301d4b62360e61b835260048301526024820152fd5b610aa4610d6f565b610aac610dd9565b916040519260208401927f8b73c3c69bb8fe3d512ecc4cf759cc79239f7b179b0ffacaa9a75d522b39400f8452604085015260608401524660808401523060a084015260a0835260c083019183831067ffffffffffffffff8411176107f45760429360e291846040528151902061190160f01b855260c282015201522090565b6040516020810181811067ffffffffffffffff8211176107f4576040525f8152905f368137565b604051905f7fa16a46d94261c7517cc8ff89f61c0ce93598e3c849801011dee649a6a557d1025490600182811c92818116918215610c71575b6020918286108414610c5d57858852879493602086019392918115610c3e5750600114610bc3575b505050610a3192500383610815565b7fa16a46d94261c7517cc8ff89f61c0ce93598e3c849801011dee649a6a557d1025f5290949092507f42ad5d3e1f2e6e70edcf6d991b8a3023d3fca8047a131592f9edb9fd9b89d57d945f935b828510610c2857505050610a319350015f8080610bb4565b8654858501529586019588955093810193610c10565b92505050610a319491925060ff19168252151560051b015f8080610bb4565b634e487b7160e01b85526022600452602485fd5b93607f1693610b8c565b604051905f7fa16a46d94261c7517cc8ff89f61c0ce93598e3c849801011dee649a6a557d1035490600182811c92818116918215610d65575b6020918286108414610c5d57858852879493602086019392918115610c3e5750600114610cea57505050610a3192500383610815565b7fa16a46d94261c7517cc8ff89f61c0ce93598e3c849801011dee649a6a557d1035f5290949092507f5f9ce34815f8e11431c7bb75a8e6886a91478f7ffc1dbb0a98dc240fddd76b75945f935b828510610d4f57505050610a319350015f8080610bb4565b8654858501529586019588955093810193610d37565b93607f1693610cb4565b610d77610b53565b8051908115610d87576020012090565b50507fa16a46d94261c7517cc8ff89f61c0ce93598e3c849801011dee649a6a557d100548015610db45790565b507fc5d2460186f7233c927e7db2dcc703c0e500b653ca82273b7bfad8045d85a47090565b610de1610c7b565b8051908115610df1576020012090565b50507fa16a46d94261c7517cc8ff89f61c0ce93598e3c849801011dee649a6a557d101548015610db45790565b91610e369391610e2d93610e39565b90929192610edb565b90565b91906fa2a8918ca85bafe22016d0b997e4df60600160ff1b038411610eb257926020929160ff6080956040519485521684840152604083015260608201525f92839182805260015afa15610ea65780516001600160a01b03811615610e9d57918190565b50809160019190565b604051903d90823e3d90fd5b5050505f9160039190565b60041115610ec757565b634e487b7160e01b5f52602160045260245ffd5b610ee481610ebd565b80610eed575050565b610ef681610ebd565b60018103610f105760405163f645eedf60e01b8152600490fd5b610f1981610ebd565b60028103610f3a5760405163fce698f760e01b815260048101839052602490fd5b80610f46600392610ebd565b14610f4e5750565b6040516335e2f38360e21b81526004810191909152602490fd5b6001600160d01b0390818111610f7c571690565b604490604051906306dfcc6560e41b825260d060048301526024820152fd5b65ffffffffffff90818111610fae571690565b604490604051906306dfcc6560e41b8252603060048301526024820152fd5b5f198101919082116101e557565b90600182018092116101e557565b8115610ff3570490565b634e487b7160e01b5f52601260045260245ffd5b801561114057806110d96110d26110c86110be6110b46110aa6110a06110966001610e369a5f908b60801c80611134575b508060401c80611127575b508060201c8061111a575b508060101c8061110d575b508060081c80611100575b508060041c806110f3575b508060021c806110e6575b50821c6110df575b811c1b61108f818b610fe9565b0160011c90565b61108f818a610fe9565b61108f8189610fe9565b61108f8188610fe9565b61108f8187610fe9565b61108f8186610fe9565b61108f8185610fe9565b8092610fe9565b90611145565b8101611082565b600291509101905f61107a565b600491509101905f61106f565b600891509101905f611064565b601091509101905f611059565b602091509101905f61104e565b604091509101905f611043565b9150506080905f611038565b505f90565b9080821015611152575090565b905090565b80545f9181611167575050505f90565b5f199282848101116101e55760209181522001015460301c90565b908154600160401b8110156107f457600181018084558110156111d0575f9283526020928390208251929093015160301b65ffffffffffff191665ffffffffffff9290921691909117910155565b634e487b7160e01b5f52603260045260245ffd5b906040516111f1816107d8565b915465ffffffffffff8116835260301c6020830152565b8054929392919082156113145761123461122f61122485610fcd565b835f5260205f200190565b6111e4565b90611245825165ffffffffffff1690565b65ffffffffffff84811691168110611302576112c694602094889261127e611273875165ffffffffffff1690565b65ffffffffffff1690565b036112ca57506112b89261129461129f92610fcd565b905f5260205f200190565b9065ffffffffffff82549181199060301b169116179055565b01516001600160d01b031690565b9190565b9150506112fd916112ea6112dc610a24565b65ffffffffffff9093168352565b6001600160d01b03881682860152611182565b6112b8565b604051632520601d60e01b8152600490fd5b61133892506113246112dc610a24565b6001600160d01b0385166020830152611182565b5f9190565b905b82811061134b57505090565b90918082169080831860011c82018092116101e5575f805160206114238339815191525f527f88c46c62109817164d0ae1873830d4299a82e5daf552a3d8e989b27638fcf74882015465ffffffffffff90811690851610156113b05750915b9061133f565b9291506113bc90610fdb565b906113aa565b91905b8382106113d25750505090565b9091928083169080841860011c82018092116101e5575f8581526020902082015465ffffffffffff90811690841610156114105750925b91906113c5565b93925061141c90610fdb565b9161140956fee8b26c30fad74198956032a3533d903385d56dd795af560196f9c78d4af40d02a2646970667358221220dd1822083e18371188a98f4772cab7a7f91c930457e5334d3cc9e44e7968885864736f6c63430008140033","linkReferences":{}},"methodIdentifiers":{"CLOCK_MODE()":"4bf5d7e9","clock()":"91ddadf4","delegate(address)":"5c19a95c","delegate(address,address)":"8ab65686","delegateBySig(address,uint256,uint256,uint8,bytes32,bytes32)":"c3cda520","delegates(address)":"587cde1e","eip712Domain()":"84b0196e","getPastTotalSupply(uint256)":"8e539e8c","getPastVotes(address,uint256)":"3a46b1a8","getTotalSupply()":"c4e41b22","getVotes(address)":"9ab24eb0","nonces(address)":"7ecebe00"},"id":104}