{"abi":[{"type":"function","name":"normalThing","inputs":[],"outputs":[],"stateMutability":"nonpayable"},{"type":"function","name":"owner","inputs":[],"outputs":[{"name":"","type":"address","internalType":"address"}],"stateMutability":"view"},{"type":"function","name":"renounceOwnership","inputs":[],"outputs":[],"stateMutability":"nonpayable"},{"type":"function","name":"specialThing","inputs":[],"outputs":[],"stateMutability":"nonpayable"},{"type":"function","name":"transferOwnership","inputs":[{"name":"newOwner","type":"address","internalType":"address"}],"outputs":[],"stateMutability":"nonpayable"},{"type":"event","name":"Initialized","inputs":[{"name":"version","type":"uint64","indexed":false,"internalType":"uint64"}],"anonymous":false},{"type":"event","name":"OwnershipTransferred","inputs":[{"name":"previousOwner","type":"address","indexed":true,"internalType":"address"},{"name":"newOwner","type":"address","indexed":true,"internalType":"address"}],"anonymous":false},{"type":"error","name":"InvalidInitialization","inputs":[]},{"type":"error","name":"NotInitializing","inputs":[]},{"type":"error","name":"OwnableInvalidOwner","inputs":[{"name":"owner","type":"address","internalType":"address"}]},{"type":"error","name":"OwnableUnauthorizedAccount","inputs":[{"name":"account","type":"address","internalType":"address"}]}],"bytecode":{"object":"0x608080604052346100165761024a908161001b8239f35b5f80fdfe60806040526004361015610011575f80fd5b5f803560e01c8063163e1d93146101a857806335fea8c91461018c578063715018a6146101235780638da5cb5b146100ee5763f2fde38b14610051575f80fd5b346100eb5760203660031901126100eb576004356001600160a01b03818116918290036100e7576100806101bc565b81156100ce575f805160206101f583398151915280546001600160a01b031981168417909155167f8be0079c531659141344cd1fd0a4f28419497f9722a3daafe3b4186f6b6457e08380a380f35b604051631e4fbdf760e01b815260048101849052602490fd5b8280fd5b80fd5b50346100eb57806003193601126100eb575f805160206101f5833981519152546040516001600160a01b039091168152602090f35b50346100eb57806003193601126100eb5761013c6101bc565b5f805160206101f583398151915280546001600160a01b0319811690915581906001600160a01b03167f8be0079c531659141344cd1fd0a4f28419497f9722a3daafe3b4186f6b6457e08280a380f35b50346100eb57806003193601126100eb576101a56101bc565b80f35b50346100eb57806003193601126100eb5780f35b5f805160206101f5833981519152546001600160a01b031633036101dc57565b60405163118cdaa760e01b8152336004820152602490fdfe9016d09d72d40fdae2fd8ceac6b6234c7706214fd39c1cd1e609a0528c199300a26469706673582212200d41da4c7eb6f774cb7dbed783bb739cee6837a7a2590c19436c17226d7e6cde64736f6c63430008140033","linkReferences":{}},"methodIdentifiers":{"normalThing()":"163e1d93","owner()":"8da5cb5b","renounceOwnership()":"715018a6","specialThing()":"35fea8c9","transferOwnership(address)":"f2fde38b"},"id":108}