{"abi":[{"type":"constructor","inputs":[{"name":"minDelay","type":"uint256","internalType":"uint256"},{"name":"proposers","type":"address[]","internalType":"address[]"},{"name":"executors","type":"address[]","internalType":"address[]"},{"name":"admin","type":"address","internalType":"address"}],"stateMutability":"nonpayable"},{"type":"receive","stateMutability":"payable"},{"type":"function","name":"CANCELLER_ROLE","inputs":[],"outputs":[{"name":"","type":"bytes32","internalType":"bytes32"}],"stateMutability":"view"},{"type":"function","name":"DEFAULT_ADMIN_ROLE","inputs":[],"outputs":[{"name":"","type":"bytes32","internalType":"bytes32"}],"stateMutability":"view"},{"type":"function","name":"DEVNET_MIN_DELAY","inputs":[],"outputs":[{"name":"","type":"uint256","internalType":"uint256"}],"stateMutability":"view"},{"type":"function","name":"EXECUTOR_ROLE","inputs":[],"outputs":[{"name":"","type":"bytes32","internalType":"bytes32"}],"stateMutability":"view"},{"type":"function","name":"MAINNET_MIN_DELAY","inputs":[],"outputs":[{"name":"","type":"uint256","internalType":"uint256"}],"stateMutability":"view"},{"type":"function","name":"MAX_DELAY","inputs":[],"outputs":[{"name":"","type":"uint256","internalType":"uint256"}],"stateMutability":"view"},{"type":"function","name":"PROPOSER_ROLE","inputs":[],"outputs":[{"name":"","type":"bytes32","internalType":"bytes32"}],"stateMutability":"view"},{"type":"function","name":"TESTNET_MIN_DELAY","inputs":[],"outputs":[{"name":"","type":"uint256","internalType":"uint256"}],"stateMutability":"view"},{"type":"function","name":"batchCanExecute","inputs":[{"name":"accounts","type":"address[]","internalType":"address[]"}],"outputs":[{"name":"canExecute_","type":"bool[]","internalType":"bool[]"}],"stateMutability":"view"},{"type":"function","name":"batchCanPropose","inputs":[{"name":"accounts","type":"address[]","internalType":"address[]"}],"outputs":[{"name":"canPropose_","type":"bool[]","internalType":"bool[]"}],"stateMutability":"view"},{"type":"function","name":"batchGetOperationStatus","inputs":[{"name":"ids","type":"bytes32[]","internalType":"bytes32[]"}],"outputs":[{"name":"isPending_","type":"bool[]","internalType":"bool[]"},{"name":"isReady_","type":"bool[]","internalType":"bool[]"},{"name":"isDone_","type":"bool[]","internalType":"bool[]"},{"name":"timestamps_","type":"uint256[]","internalType":"uint256[]"}],"stateMutability":"view"},{"type":"function","name":"batchGetRoles","inputs":[{"name":"accounts","type":"address[]","internalType":"address[]"}],"outputs":[{"name":"isProposer_","type":"bool[]","internalType":"bool[]"},{"name":"isExecutor_","type":"bool[]","internalType":"bool[]"},{"name":"isCanceller_","type":"bool[]","internalType":"bool[]"},{"name":"isAdmin_","type":"bool[]","internalType":"bool[]"}],"stateMutability":"view"},{"type":"function","name":"batchGetTimeRemaining","inputs":[{"name":"ids","type":"bytes32[]","internalType":"bytes32[]"}],"outputs":[{"name":"remaining","type":"uint256[]","internalType":"uint256[]"}],"stateMutability":"view"},{"type":"function","name":"canExecute","inputs":[{"name":"account","type":"address","internalType":"address"}],"outputs":[{"name":"","type":"bool","internalType":"bool"}],"stateMutability":"view"},{"type":"function","name":"canPropose","inputs":[{"name":"account","type":"address","internalType":"address"}],"outputs":[{"name":"","type":"bool","internalType":"bool"}],"stateMutability":"view"},{"type":"function","name":"cancel","inputs":[{"name":"id","type":"bytes32","internalType":"bytes32"}],"outputs":[],"stateMutability":"nonpayable"},{"type":"function","name":"computeBatchOperationId","inputs":[{"name":"targets","type":"address[]","internalType":"address[]"},{"name":"values","type":"uint256[]","internalType":"uint256[]"},{"name":"payloads","type":"bytes[]","internalType":"bytes[]"},{"name":"predecessor","type":"bytes32","internalType":"bytes32"},{"name":"salt","type":"bytes32","internalType":"bytes32"}],"outputs":[{"name":"id","type":"bytes32","internalType":"bytes32"}],"stateMutability":"pure"},{"type":"function","name":"computeOperationId","inputs":[{"name":"target","type":"address","internalType":"address"},{"name":"value","type":"uint256","internalType":"uint256"},{"name":"data","type":"bytes","internalType":"bytes"},{"name":"predecessor","type":"bytes32","internalType":"bytes32"},{"name":"salt","type":"bytes32","internalType":"bytes32"}],"outputs":[{"name":"id","type":"bytes32","internalType":"bytes32"}],"stateMutability":"pure"},{"type":"function","name":"execute","inputs":[{"name":"target","type":"address","internalType":"address"},{"name":"value","type":"uint256","internalType":"uint256"},{"name":"payload","type":"bytes","internalType":"bytes"},{"name":"predecessor","type":"bytes32","internalType":"bytes32"},{"name":"salt","type":"bytes32","internalType":"bytes32"}],"outputs":[],"stateMutability":"payable"},{"type":"function","name":"executeBatch","inputs":[{"name":"targets","type":"address[]","internalType":"address[]"},{"name":"values","type":"uint256[]","internalType":"uint256[]"},{"name":"payloads","type":"bytes[]","internalType":"bytes[]"},{"name":"predecessor","type":"bytes32","internalType":"bytes32"},{"name":"salt","type":"bytes32","internalType":"bytes32"}],"outputs":[],"stateMutability":"payable"},{"type":"function","name":"getExecutionTimeline","inputs":[],"outputs":[{"name":"executeableAt","type":"uint256","internalType":"uint256"},{"name":"currentTime","type":"uint256","internalType":"uint256"},{"name":"delaySeconds","type":"uint256","internalType":"uint256"}],"stateMutability":"view"},{"type":"function","name":"getExtendedConfig","inputs":[],"outputs":[{"name":"minDelay_","type":"uint256","internalType":"uint256"},{"name":"maxDelay_","type":"uint256","internalType":"uint256"},{"name":"mainnetDelay_","type":"uint256","internalType":"uint256"},{"name":"testnetDelay_","type":"uint256","internalType":"uint256"},{"name":"devnetDelay_","type":"uint256","internalType":"uint256"},{"name":"currentEnvironment_","type":"uint8","internalType":"uint8"}],"stateMutability":"view"},{"type":"function","name":"getMinDelay","inputs":[],"outputs":[{"name":"","type":"uint256","internalType":"uint256"}],"stateMutability":"view"},{"type":"function","name":"getOperationActionability","inputs":[{"name":"id","type":"bytes32","internalType":"bytes32"}],"outputs":[{"name":"exists","type":"bool","internalType":"bool"},{"name":"actionable","type":"bool","internalType":"bool"},{"name":"secondsToActionable","type":"uint256","internalType":"uint256"},{"name":"executed","type":"bool","internalType":"bool"}],"stateMutability":"view"},{"type":"function","name":"getOperationState","inputs":[{"name":"id","type":"bytes32","internalType":"bytes32"}],"outputs":[{"name":"","type":"uint8","internalType":"enum TimelockController.OperationState"}],"stateMutability":"view"},{"type":"function","name":"getOperationStatus","inputs":[{"name":"id","type":"bytes32","internalType":"bytes32"}],"outputs":[{"name":"isPending","type":"bool","internalType":"bool"},{"name":"isReady","type":"bool","internalType":"bool"},{"name":"isDone","type":"bool","internalType":"bool"},{"name":"timestamp","type":"uint256","internalType":"uint256"}],"stateMutability":"view"},{"type":"function","name":"getRecommendedDelay","inputs":[{"name":"environment","type":"uint8","internalType":"uint8"}],"outputs":[{"name":"recommendedDelay","type":"uint256","internalType":"uint256"}],"stateMutability":"pure"},{"type":"function","name":"getRoleAdmin","inputs":[{"name":"role","type":"bytes32","internalType":"bytes32"}],"outputs":[{"name":"","type":"bytes32","internalType":"bytes32"}],"stateMutability":"view"},{"type":"function","name":"getRoles","inputs":[{"name":"account","type":"address","internalType":"address"}],"outputs":[{"name":"isProposer","type":"bool","internalType":"bool"},{"name":"isExecutor","type":"bool","internalType":"bool"},{"name":"isCanceller","type":"bool","internalType":"bool"},{"name":"isAdmin","type":"bool","internalType":"bool"}],"stateMutability":"view"},{"type":"function","name":"getTimeRemaining","inputs":[{"name":"id","type":"bytes32","internalType":"bytes32"}],"outputs":[{"name":"remaining","type":"uint256","internalType":"uint256"}],"stateMutability":"view"},{"type":"function","name":"getTimelockStatus","inputs":[],"outputs":[{"name":"delay","type":"uint256","internalType":"uint256"},{"name":"maxDelay","type":"uint256","internalType":"uint256"},{"name":"isMainnetDelay","type":"bool","internalType":"bool"},{"name":"isTestnetDelay","type":"bool","internalType":"bool"},{"name":"isDevnetDelay","type":"bool","internalType":"bool"}],"stateMutability":"view"},{"type":"function","name":"getTimestamp","inputs":[{"name":"id","type":"bytes32","internalType":"bytes32"}],"outputs":[{"name":"","type":"uint256","internalType":"uint256"}],"stateMutability":"view"},{"type":"function","name":"grantRole","inputs":[{"name":"role","type":"bytes32","internalType":"bytes32"},{"name":"account","type":"address","internalType":"address"}],"outputs":[],"stateMutability":"nonpayable"},{"type":"function","name":"hasAdminRole","inputs":[{"name":"account","type":"address","internalType":"address"}],"outputs":[{"name":"","type":"bool","internalType":"bool"}],"stateMutability":"view"},{"type":"function","name":"hasRole","inputs":[{"name":"role","type":"bytes32","internalType":"bytes32"},{"name":"account","type":"address","internalType":"address"}],"outputs":[{"name":"","type":"bool","internalType":"bool"}],"stateMutability":"view"},{"type":"function","name":"hashOperation","inputs":[{"name":"target","type":"address","internalType":"address"},{"name":"value","type":"uint256","internalType":"uint256"},{"name":"data","type":"bytes","internalType":"bytes"},{"name":"predecessor","type":"bytes32","internalType":"bytes32"},{"name":"salt","type":"bytes32","internalType":"bytes32"}],"outputs":[{"name":"","type":"bytes32","internalType":"bytes32"}],"stateMutability":"pure"},{"type":"function","name":"hashOperationBatch","inputs":[{"name":"targets","type":"address[]","internalType":"address[]"},{"name":"values","type":"uint256[]","internalType":"uint256[]"},{"name":"payloads","type":"bytes[]","internalType":"bytes[]"},{"name":"predecessor","type":"bytes32","internalType":"bytes32"},{"name":"salt","type":"bytes32","internalType":"bytes32"}],"outputs":[{"name":"","type":"bytes32","internalType":"bytes32"}],"stateMutability":"pure"},{"type":"function","name":"isOperation","inputs":[{"name":"id","type":"bytes32","internalType":"bytes32"}],"outputs":[{"name":"","type":"bool","internalType":"bool"}],"stateMutability":"view"},{"type":"function","name":"isOperationDone","inputs":[{"name":"id","type":"bytes32","internalType":"bytes32"}],"outputs":[{"name":"","type":"bool","internalType":"bool"}],"stateMutability":"view"},{"type":"function","name":"isOperationPending","inputs":[{"name":"id","type":"bytes32","internalType":"bytes32"}],"outputs":[{"name":"","type":"bool","internalType":"bool"}],"stateMutability":"view"},{"type":"function","name":"isOperationReady","inputs":[{"name":"id","type":"bytes32","internalType":"bytes32"}],"outputs":[{"name":"","type":"bool","internalType":"bool"}],"stateMutability":"view"},{"type":"function","name":"onERC1155BatchReceived","inputs":[{"name":"","type":"address","internalType":"address"},{"name":"","type":"address","internalType":"address"},{"name":"","type":"uint256[]","internalType":"uint256[]"},{"name":"","type":"uint256[]","internalType":"uint256[]"},{"name":"","type":"bytes","internalType":"bytes"}],"outputs":[{"name":"","type":"bytes4","internalType":"bytes4"}],"stateMutability":"nonpayable"},{"type":"function","name":"onERC1155Received","inputs":[{"name":"","type":"address","internalType":"address"},{"name":"","type":"address","internalType":"address"},{"name":"","type":"uint256","internalType":"uint256"},{"name":"","type":"uint256","internalType":"uint256"},{"name":"","type":"bytes","internalType":"bytes"}],"outputs":[{"name":"","type":"bytes4","internalType":"bytes4"}],"stateMutability":"nonpayable"},{"type":"function","name":"onERC721Received","inputs":[{"name":"","type":"address","internalType":"address"},{"name":"","type":"address","internalType":"address"},{"name":"","type":"uint256","internalType":"uint256"},{"name":"","type":"bytes","internalType":"bytes"}],"outputs":[{"name":"","type":"bytes4","internalType":"bytes4"}],"stateMutability":"nonpayable"},{"type":"function","name":"renounceRole","inputs":[{"name":"role","type":"bytes32","internalType":"bytes32"},{"name":"callerConfirmation","type":"address","internalType":"address"}],"outputs":[],"stateMutability":"nonpayable"},{"type":"function","name":"revokeRole","inputs":[{"name":"role","type":"bytes32","internalType":"bytes32"},{"name":"account","type":"address","internalType":"address"}],"outputs":[],"stateMutability":"nonpayable"},{"type":"function","name":"schedule","inputs":[{"name":"target","type":"address","internalType":"address"},{"name":"value","type":"uint256","internalType":"uint256"},{"name":"data","type":"bytes","internalType":"bytes"},{"name":"predecessor","type":"bytes32","internalType":"bytes32"},{"name":"salt","type":"bytes32","internalType":"bytes32"},{"name":"delay","type":"uint256","internalType":"uint256"}],"outputs":[],"stateMutability":"nonpayable"},{"type":"function","name":"scheduleBatch","inputs":[{"name":"targets","type":"address[]","internalType":"address[]"},{"name":"values","type":"uint256[]","internalType":"uint256[]"},{"name":"payloads","type":"bytes[]","internalType":"bytes[]"},{"name":"predecessor","type":"bytes32","internalType":"bytes32"},{"name":"salt","type":"bytes32","internalType":"bytes32"},{"name":"delay","type":"uint256","internalType":"uint256"}],"outputs":[],"stateMutability":"nonpayable"},{"type":"function","name":"supportsInterface","inputs":[{"name":"interfaceId","type":"bytes4","internalType":"bytes4"}],"outputs":[{"name":"","type":"bool","internalType":"bool"}],"stateMutability":"view"},{"type":"function","name":"updateDelay","inputs":[{"name":"newDelay","type":"uint256","internalType":"uint256"}],"outputs":[],"stateMutability":"nonpayable"},{"type":"function","name":"verifyRolesForOperation","inputs":[{"name":"proposer","type":"address","internalType":"address"},{"name":"executor","type":"address","internalType":"address"}],"outputs":[{"name":"canSchedule","type":"bool","internalType":"bool"},{"name":"canRun","type":"bool","internalType":"bool"},{"name":"delay","type":"uint256","internalType":"uint256"}],"stateMutability":"view"},{"type":"event","name":"CallExecuted","inputs":[{"name":"id","type":"bytes32","indexed":true,"internalType":"bytes32"},{"name":"index","type":"uint256","indexed":true,"internalType":"uint256"},{"name":"target","type":"address","indexed":false,"internalType":"address"},{"name":"value","type":"uint256","indexed":false,"internalType":"uint256"},{"name":"data","type":"bytes","indexed":false,"internalType":"bytes"}],"anonymous":false},{"type":"event","name":"CallSalt","inputs":[{"name":"id","type":"bytes32","indexed":true,"internalType":"bytes32"},{"name":"salt","type":"bytes32","indexed":false,"internalType":"bytes32"}],"anonymous":false},{"type":"event","name":"CallScheduled","inputs":[{"name":"id","type":"bytes32","indexed":true,"internalType":"bytes32"},{"name":"index","type":"uint256","indexed":true,"internalType":"uint256"},{"name":"target","type":"address","indexed":false,"internalType":"address"},{"name":"value","type":"uint256","indexed":false,"internalType":"uint256"},{"name":"data","type":"bytes","indexed":false,"internalType":"bytes"},{"name":"predecessor","type":"bytes32","indexed":false,"internalType":"bytes32"},{"name":"delay","type":"uint256","indexed":false,"internalType":"uint256"}],"anonymous":false},{"type":"event","name":"Cancelled","inputs":[{"name":"id","type":"bytes32","indexed":true,"internalType":"bytes32"}],"anonymous":false},{"type":"event","name":"MinDelayChange","inputs":[{"name":"oldDuration","type":"uint256","indexed":false,"internalType":"uint256"},{"name":"newDuration","type":"uint256","indexed":false,"internalType":"uint256"}],"anonymous":false},{"type":"event","name":"RoleAdminChanged","inputs":[{"name":"role","type":"bytes32","indexed":true,"internalType":"bytes32"},{"name":"previousAdminRole","type":"bytes32","indexed":true,"internalType":"bytes32"},{"name":"newAdminRole","type":"bytes32","indexed":true,"internalType":"bytes32"}],"anonymous":false},{"type":"event","name":"RoleGranted","inputs":[{"name":"role","type":"bytes32","indexed":true,"internalType":"bytes32"},{"name":"account","type":"address","indexed":true,"internalType":"address"},{"name":"sender","type":"address","indexed":true,"internalType":"address"}],"anonymous":false},{"type":"event","name":"RoleRevoked","inputs":[{"name":"role","type":"bytes32","indexed":true,"internalType":"bytes32"},{"name":"account","type":"address","indexed":true,"internalType":"address"},{"name":"sender","type":"address","indexed":true,"internalType":"address"}],"anonymous":false},{"type":"event","name":"TimelockDeployed","inputs":[{"name":"minDelay","type":"uint256","indexed":false,"internalType":"uint256"},{"name":"proposerCount","type":"uint256","indexed":false,"internalType":"uint256"},{"name":"executorCount","type":"uint256","indexed":false,"internalType":"uint256"},{"name":"admin","type":"address","indexed":true,"internalType":"address"}],"anonymous":false},{"type":"error","name":"AccessControlBadConfirmation","inputs":[]},{"type":"error","name":"AccessControlUnauthorizedAccount","inputs":[{"name":"account","type":"address","internalType":"address"},{"name":"neededRole","type":"bytes32","internalType":"bytes32"}]},{"type":"error","name":"ArrayLengthMismatch","inputs":[]},{"type":"error","name":"DelayTooLong","inputs":[]},{"type":"error","name":"EmptyArray","inputs":[]},{"type":"error","name":"FailedInnerCall","inputs":[]},{"type":"error","name":"NoExecutorsProvided","inputs":[]},{"type":"error","name":"NoProposersProvided","inputs":[]},{"type":"error","name":"TimelockInsufficientDelay","inputs":[{"name":"delay","type":"uint256","internalType":"uint256"},{"name":"minDelay","type":"uint256","internalType":"uint256"}]},{"type":"error","name":"TimelockInvalidOperationLength","inputs":[{"name":"targets","type":"uint256","internalType":"uint256"},{"name":"payloads","type":"uint256","internalType":"uint256"},{"name":"values","type":"uint256","internalType":"uint256"}]},{"type":"error","name":"TimelockUnauthorizedCaller","inputs":[{"name":"caller","type":"address","internalType":"address"}]},{"type":"error","name":"TimelockUnexecutedPredecessor","inputs":[{"name":"predecessorId","type":"bytes32","internalType":"bytes32"}]},{"type":"error","name":"TimelockUnexpectedOperationState","inputs":[{"name":"operationId","type":"bytes32","internalType":"bytes32"},{"name":"expectedStates","type":"bytes32","internalType":"bytes32"}]},{"type":"error","name":"ZeroAddressExecutor","inputs":[]},{"type":"error","name":"ZeroAddressProposer","inputs":[]}],"bytecode":{"object":"0x604060808152346200029457620027d890813803806200001f8162000298565b9384398201916080818403126200029457805160208201519091906001600160401b039081811162000294578562000059918401620002e7565b948483015191821162000294576200007a60609162000082938501620002e7565b9201620002d2565b6200008d30620003a5565b506001600160a01b0392818416918262000281575b505f5b8651811015620000f45780620000cd86620000c5620000ee948b6200037c565b511662000423565b50620000e786620000df838b6200037c565b5116620004c3565b5062000359565b620000a5565b50839085875f5b8651811015620001295780620000e7866200011b62000123948b6200037c565b51166200055e565b620000fb565b5091949093856002557f11c24f4ead16507c69ac467fbd5e4eed5fb5c699626d2cc6d66421df253886d58580515f8152886020820152a182511562000270578151156200025f5762278d0086116200024e575f5b8351811015620001be57846200019482866200037c565b511615620001ad57620001a79062000359565b6200017d565b8551631d978ba360e21b8152600490fd5b509091945f5b8351811015620002055784620001db82866200037c565b511615620001f457620001ee9062000359565b620001c4565b855163fd1d590160e01b8152600490fd5b5060607fe90fb4d877796ebcc2715d0f6637723941e9ee9d964a3938a4ba8298cf89dcd891869488519051908651928352602083015285820152a2516121be9081620005fa8239f35b8451632b11ea0760e21b8152600490fd5b845163140bcc8760e11b8152600490fd5b84516341a9097b60e01b8152600490fd5b6200028c90620003a5565b505f620000a2565b5f80fd5b6040519190601f01601f191682016001600160401b03811183821017620002be57604052565b634e487b7160e01b5f52604160045260245ffd5b51906001600160a01b03821682036200029457565b81601f8201121562000294578051916001600160401b038311620002be578260051b60209283806200031b81850162000298565b80978152019282010192831162000294578301905b8282106200033f575050505090565b8380916200034d84620002d2565b81520191019062000330565b5f198114620003685760010190565b634e487b7160e01b5f52601160045260245ffd5b8051821015620003915760209160051b010190565b634e487b7160e01b5f52603260045260245ffd5b6001600160a01b03165f8181527fad3228b676f7d3cd4284a5443f17f1962b36e491b30a40b2405849e597ba5fb5602052604081205490919060ff166200041f57818052816020526040822081835260205260408220600160ff1982541617905533915f80516020620027b88339815191528180a4600190565b5090565b6001600160a01b03165f8181527f3412d5605ac6cd444957cedb533e5dacad6378b4bc819ebe3652188a665066d560205260408120549091907fb09aa5aeb3702cfd50b6b62bc4532604938f21248a27a1d5ca736082b6819cc19060ff16620004be57808352826020526040832082845260205260408320600160ff198254161790555f80516020620027b8833981519152339380a4600190565b505090565b6001600160a01b03165f8181527fc3ad33e20b0c56a223ad5104fff154aa010f8715b9c981fd38fdc60a4d1a52fb60205260408120549091907ffd643c72710c63c0180259aba6b2d05451e3591a24e58b62239378085726f7839060ff16620004be57808352826020526040832082845260205260408320600160ff198254161790555f80516020620027b8833981519152339380a4600190565b6001600160a01b03165f8181527fdae2aa361dfd1ca020a396615627d436107c35eff9fe7738a3512819782d706960205260408120549091907fd8aa0f3194971a2a116679f7c2090f6939c8d4e01a2a8d7e41d55e5351469e639060ff16620004be57808352826020526040832082845260205260408320600160ff198254161790555f80516020620027b8833981519152339380a460019056fe6040608081526004908136101561001f575b5050361561001d575f80fd5b005b5f91823560e01c90816301d5062a146115df57816301ffc9a71461156c57816307bd0265146115445781630b0ef7d41461140357838263134008d31461135a5750816313bc9f201461133a578163150b7a02146112e55781631faeb8c414610801578163248a9ca3146112bb5781632744e9cc146110f15781632ab0f529146110d15781632f2ff15d146110a757816331d507501461108757816332be9ebc1461106757816336568abe146110215781633d9680bf14610f8d5781634125ff9014610f6f57816342b4632e14610f1d5781634761c69114610eae578163584b153e14610e8557816364d6235314610e19578163727c6c5a14610dbc5781637958004c14610d795781637a0e3bac14610d5b5781637a26050b14610d3e5781638065657f1461056157816382f924dd14610d0c5781638482db5b14610cb657816385c99e2b14610c645781638af8f80b14610bb55781638f2a0bb014610a1c5781638f61f4f5146109f45781639088eb1a1461091f57816391d14854146108d95781639a33280114610849578163a217fddf1461082e578163b08e51c014610806578163b1c5f42714610801578163b3fb621d146107c0578163b6fcd8fc146106ed578163bc197c8114610667578163c395fcb314610622578163c4d252f514610566578163c9edc9c114610561578163ce6ccfaf1461049e578163d45c443514610476578163d547741f14610431578163e38335e5146102ef578163f23a6e611461029757508063f27a0c92146102795763fbfad3ec0361001157346102755781600319360112610275576020905161012c8152f35b5080fd5b50346102755781600319360112610275576020906002549051908152f35b8284346102ec5760a03660031901126102ec576102b26116bd565b506102bb6116d7565b50608435906001600160401b0382116102ec57506020926102de91369101611850565b505163f23a6e6160e01b8152f35b80fd5b90506102fa36611896565b9098949591939296975f805160206121498339815191528b528a602052858b208b805260205260ff868c20541615610423575b838314801590610419575b6103eb5750610350610357918a868a878b888f611ddd565b9889612079565b885b81811061036d578961036a8a6120df565b80f35b80808a7fc2617efa69bab66782fa219543714338489c4e9e178271560a91b82c3f612b588a8a6103de6103c68f988c6103bf828e6103b98f6103e69f6103b4918591611a78565b611a9c565b97611a78565b3595611f51565b906103d382828787612026565b8d5194859485612002565b0390a3611a6a565b610359565b85516001624fcdef60e01b031981529081019283526020830185905260408301849052918291506060010390fd5b5084831415610338565b61042c33611b40565b61032d565b9190503461047257806003193601126104725761046e913561046960016104566116d7565b9383875286602052862001543390611b91565b611c39565b5080f35b8280fd5b9050346104725760203660031901126104725760209282913581526001845220549051908152f35b505034610275576020908160031936011261047257916080926104bf6116bd565b5f8051602061212983398151915283528284528183209060018060a01b031690818452845260ff8284205416935f805160206121498339815191528452838152828420828552815260ff83818187205416955f8051602061216983398151915281528084528181208582528452828282205416948180528185528282209082528452205416938351951515865215159085015215159083015215156060820152f35b611921565b91905034610472576020366003190112610472578135915f805160206121698339815191528085528460205282852033865260205260ff83862054161561060757506105b183611cd7565b156105eb5750829082825260016020528120557fbaa1eb22f2a492ba1a5fea61b8df4d27c6c8b5f3971e63bb58fa14ff72eedb708280a280f35b826044925191635ead8eb560e01b835282015260066024820152fd5b604492519163e2517d3f60e01b835233908301526024820152fd5b5050346102755760203660031901126102755760ff816020936106436116bd565b8180528186528282206001600160a01b039091168252855220549151911615158152f35b8284346102ec5760a03660031901126102ec576106826116bd565b5061068b6116d7565b506001600160401b0390604435828111610275576106ac9036908601611957565b50606435828111610275576106c49036908601611957565b506084359182116102ec57506020926106df91369101611850565b505163bc197c8160e01b8152f35b9190503461047257602091826003193601126107bc5780356001600160401b0381116107b857610720903690830161171a565b94909185156107aa575061073385611a38565b94815b8181106107535784518681528061074f8189018a61174a565b0390f35b806107656103b46107a5938588611a78565b5f8051602061212983398151915285528488528685206001600160a01b03909116855287528584205460ff1661079b828a611ab0565b9015159052611a6a565b610736565b835163521299a960e01b8152fd5b8480fd5b8380fd5b8284346102ec57806003193601126102ec57506002549061074f6107e48342611ac4565b915191825242602083015260408201929092529081906060820190565b6118f7565b505034610275578160031936011261027557602090515f805160206121698339815191528152f35b50503461027557816003193601126102755751908152602090f35b505034610275578060031936011261027557908160ff60609361086a6116bd565b936108736116d7565b5f8051602061212983398151915282528160205282822060018060a01b038097168352602052838383205416955f805160206121498339815191528352826020528383209116825260205220541690600254918151931515845215156020840152820152f35b9050346104725781600319360112610472578160209360ff926108fa6116d7565b903582528186528282206001600160a01b039091168252855220549151911615158152f35b9190503461047257602091826003193601126107bc5780356001600160401b0381116107b857610952903690830161171a565b94909185156107aa575061096585611a38565b94815b8181106109815784518681528061074f8189018a61177f565b806109906109c6928487611a78565b3584526001808852868520549081159081156109ea575b5080156109e0575b156109cb5750836109c0828a611ab0565b52611a6a565b610968565b6109d69042906119b5565b6109c0828a611ab0565b50804210156109af565b905081145f6109a7565b505034610275578160031936011261027557602090515f805160206121298339815191528152f35b919050346104725760c0366003190112610472576001600160401b039082358281116107b857610a4f903690850161171a565b93602435848111610bb157610a67903690830161171a565b94604435908111610bad57610a7f903690840161171a565b606493919335906084359760a43593610a9733611ad1565b818b14801590610ba3575b610b755750610ab889848489858f8b908e611ddd565b99610ac3858c611f92565b8a8c5b8a838210610b0c578e838e8381610adb578380f35b7f20fda5fd27a1ea7bf5b9567f143ac5470bb059374a27e8f67cb44f946f6d03879160209151908152a28180808380f35b610b6e927f4cf4410cc57040e44862ef0f45f3dd5a5e02db8eb8add648d4b0e236f1d07dca8b8b6103de8f8c88978f92898f8f8f610b5c91610b566103b4868094610b6399611a78565b9a611a78565b3598611f51565b915196879687611f19565b8b90610ac6565b88516001624fcdef60e01b031981529081018b81526020810184905260408101929092529081906060010390fd5b50828b1415610aa2565b8780fd5b8680fd5b9190503461047257602091826003193601126107bc5780356001600160401b0381116107b857610be8903690830161171a565b94909185156107aa5750610bfb85611a38565b94815b818110610c175784518681528061074f8189018a61174a565b80610c296103b4610c5f938588611a78565b5f8051602061214983398151915285528488528685206001600160a01b03909116855287528584205460ff1661079b828a611ab0565b610bfe565b5050346102755760203660031901126102755760ff81602093610c856116bd565b5f8051602061214983398151915282528186528282206001600160a01b039091168252855220549151911615158152f35b50503461027557816003193601126102755760025460a091610e1082109081159062015180841082610d04575b815194855262278d0060208601521590840152151560608301526080820152f35b915081610ce3565b90503461047257602036600319011261047257359160ff831683036102ec5750610d37602092611a14565b9051908152f35b50503461027557816003193601126102755760209051610e108152f35b50503461027557816003193601126102755760209051620151808152f35b83833461027557602036600319011261027557610d968335611d30565b90519183821015610da957602083838152f35b634e487b7160e01b815260218452602490fd5b90503461047257602036600319011261047257916080923591610dde83611cd7565b9281610de982611d00565b93610df383611d18565b928152600160205220549282519415158552151560208501521515908301526060820152f35b9190503461047257602036600319011261047257813591303303610e6f57507f11c24f4ead16507c69ac467fbd5e4eed5fb5c699626d2cc6d66421df253886d5906002548151908152836020820152a160025580f35b602491519063e2850c5960e01b82523390820152fd5b8284346102ec5760203660031901126102ec5750610ea560209235611cd7565b90519015158152f35b50503461027557816003193601126102755760025460c092909160ff916201518090818510610f0557506002915b805194855262278d006020860152840152610e10606084015261012c60808401521660a0820152f35b610e108510610f175750600191610edc565b91610edc565b5050346102755760203660031901126102755760ff81602093610f3e6116bd565b5f8051602061212983398151915282528186528282206001600160a01b039091168252855220549151911615158152f35b5050346102755781600319360112610275576020905162278d008152f35b905034610472576020366003190112610472579160809235908181526001602052828120549283159182159485610fc76001831496611d00565b949061101a575b8015611013575b15610ff35750915b8151948552151560208501528301526060820152f35b4281111561100d57611007915042906119b5565b91610fdd565b50611007565b5083610fd5565b5084610fce565b83833461027557806003193601126102755761103b6116d7565b90336001600160a01b03831603611058575061046e919235611c39565b5163334bd91960e11b81528390fd5b8284346102ec5760203660031901126102ec5750610d37602092356119d6565b8284346102ec5760203660031901126102ec5750610ea560209235611cac565b9190503461047257806003193601126104725761046e91356110cc60016104566116d7565b611bbd565b8284346102ec5760203660031901126102ec5750610ea560209235611d18565b8284346102ec57602091826003193601126102755783356001600160401b03811161047257611123903690860161171a565b92909483156112ad575061113683611a38565b9361114084611a38565b9561114a85611a38565b9261115486611a38565b95815b8181106111ac576111848961074f8a61119e8b8f6111918c8e928451998a9960808b5260808b019061174a565b91898303908a015261174a565b918683039087015261174a565b90838203606085015261174a565b806111be6103b46112a8938588611a78565b5f8051602061212983398151915285528487528885206001600160a01b03918216865287528885205460ff919082166111f7848e611ab0565b901515905261120a6103b484878a611a78565b5f8051602061214983398151915287528689528a872090821687528852898620548216611237848f611ab0565b901515905261124a6103b484878a611a78565b5f805160206121698339815191528752868952818b8820911687528852818a87205416611277848b611ab0565b901515905261128a6103b484878a611a78565b8680528689528a8720911686528752888520541661079b828b611ab0565b611157565b825163521299a960e01b8152fd5b90503461047257602036600319011261047257816020936001923581528085522001549051908152f35b8284346102ec5760803660031901126102ec576113006116bd565b506113096116d7565b50606435906001600160401b0382116102ec575060209261132c91369101611850565b5051630a85bd0160e11b8152f35b8284346102ec5760203660031901126102ec5750610ea560209235611d00565b61036a6113d7826113ed7fc2617efa69bab66782fa219543714338489c4e9e178271560a91b82c3f612b586113ce89611392366117b2565b5f805160206121498339815191528b9a9697939598929a528a602052828b208b805260205260ff838c205416156113f5575b8985858a8a611d88565b998a9889612079565b6113e383838888612026565b5194859485612002565b0390a36120df565b6113fe33611b40565b6113c4565b905082346102ec57602090816003193601126102ec5782356001600160401b03811161027557611436903690850161171a565b9290938315611536575061144983611a38565b9361145384611a38565b9061145d85611a38565b9361146786611a38565b95815b8181106114a4576111848961074f8a6114968e8c6111918d8d8451998a9960808b5260808b019061174a565b90838203606085015261177f565b806114bc6114b6611531938588611a78565b35611cd7565b6114c6828c611ab0565b90151590526114df6114d9828588611a78565b35611d00565b6114e98288611ab0565b90151590526115026114fc828588611a78565b35611d18565b61150c828a611ab0565b901515905261151c818487611a78565b358452600187528a8420546109c0828b611ab0565b61146a565b855163521299a960e01b8152fd5b505034610275578160031936011261027557602090515f805160206121498339815191528152f35b90503461047257602036600319011261047257359063ffffffff60e01b82168092036104725760209250630271189760e51b82149182156115b1575b50519015158152f35b909150637965db0b60e01b81149081156115ce575b50905f6115a8565b6301ffc9a760e01b1490505f6115c6565b919050346104725760c0366003190112610472576115fb6116bd565b90836024356044356001600160401b038111610472577f4cf4410cc57040e44862ef0f45f3dd5a5e02db8eb8add648d4b0e236f1d07dca9561163f913691016116ed565b959091606435956116806084359760a4359061165a33611ad1565b6116688a828d8a8989611d88565b9a8b97611675848a611f92565b8a5196879687611f19565b0390a38161168c578380f35b7f20fda5fd27a1ea7bf5b9567f143ac5470bb059374a27e8f67cb44f946f6d03879160209151908152a25f80808380f35b600435906001600160a01b03821682036116d357565b5f80fd5b602435906001600160a01b03821682036116d357565b9181601f840112156116d3578235916001600160401b0383116116d357602083818601950101116116d357565b9181601f840112156116d3578235916001600160401b0383116116d3576020808501948460051b0101116116d357565b9081518082526020808093019301915f5b828110611769575050505090565b835115158552938101939281019260010161175b565b9081518082526020808093019301915f5b82811061179e575050505090565b835185529381019392810192600101611790565b60a06003198201126116d3576004356001600160a01b03811681036116d3579160243591604435906001600160401b0382116116d3576117f4916004016116ed565b90916064359060843590565b90601f801991011681019081106001600160401b0382111761182157604052565b634e487b7160e01b5f52604160045260245ffd5b6001600160401b03811161182157601f01601f191660200190565b81601f820112156116d35780359061186782611835565b926118756040519485611800565b828452602083830101116116d357815f926020809301838601378301015290565b9060a06003198301126116d3576001600160401b036004358181116116d357836118c29160040161171a565b939093926024358381116116d357826118dd9160040161171a565b939093926044359182116116d3576117f49160040161171a565b346116d357602061191961190a36611896565b96959095949194939293611ddd565b604051908152f35b346116d3576020611919611934366117b2565b94939093929192611d88565b6001600160401b0381116118215760051b60200190565b81601f820112156116d35780359161196e83611940565b9261197c6040519485611800565b808452602092838086019260051b8201019283116116d3578301905b8282106119a6575050505090565b81358152908301908301611998565b919082039182116119c257565b634e487b7160e01b5f52601160045260245ffd5b5f52600160205260405f205480158015611a0a575b611a055780421015611a0557611a029042906119b5565b90565b505f90565b50600181146119eb565b60ff168015611a3157600114611a2b576201518090565b610e1090565b5061012c90565b90611a4282611940565b611a4f6040519182611800565b8281528092611a60601f1991611940565b0190602036910137565b5f1981146119c25760010190565b9190811015611a885760051b0190565b634e487b7160e01b5f52603260045260245ffd5b356001600160a01b03811681036116d35790565b8051821015611a885760209160051b010190565b919082018092116119c257565b6001600160a01b03165f8181527f3412d5605ac6cd444957cedb533e5dacad6378b4bc819ebe3652188a665066d560205260409020545f805160206121298339815191529060ff1615611b22575050565b604492506040519163e2517d3f60e01b835260048301526024820152fd5b6001600160a01b03165f8181527fdae2aa361dfd1ca020a396615627d436107c35eff9fe7738a3512819782d706960205260409020545f805160206121498339815191529060ff1615611b22575050565b805f525f60205260405f209160018060a01b031691825f5260205260ff60405f20541615611b22575050565b905f9180835282602052604083209160018060a01b03169182845260205260ff604084205416155f14611c3457808352826020526040832082845260205260408320600160ff198254161790557f2f8788117e7eff1d82e926ec794901d17c78024a50270940304540a733656f0d339380a4600190565b505090565b905f9180835282602052604083209160018060a01b03169182845260205260ff6040842054165f14611c345780835282602052604083208284526020526040832060ff1981541690557ff6391f5c32d9c69d2a47ea670b442974b53935d1edc7fd64eb21e047a839171b339380a4600190565b611cb590611d30565b6004811015611cc357151590565b634e487b7160e01b5f52602160045260245ffd5b611ce090611d30565b6004811015611cc35760018114908115611cf8575090565b600291501490565b611d0990611d30565b6004811015611cc35760021490565b611d2190611d30565b6004811015611cc35760031490565b5f52600160205260405f205480155f14611d4957505f90565b60018103611d575750600390565b421015611d6357600190565b600290565b908060209392818452848401375f828201840152601f01601f1916010190565b94611dbe611dd794959293604051968795602087019960018060a01b03168a52604087015260a0606087015260c0860191611d68565b91608084015260a083015203601f198101835282611800565b51902090565b969294909695919560405196602091828901998060c08b0160a08d525260e08a0191905f5b818110611ef157505050601f19898203810160408b0152888252976001600160fb1b0381116116d3579089969495939897929160051b80928a830137019380888601878703606089015252604085019460408260051b82010195835f925b848410611e8857505050505050611dd79550608084015260a083015203908101835282611800565b9193969850919398999496603f198282030184528935601e19843603018112156116d35783018681019190356001600160401b0381116116d35780360383136116d357611eda88928392600195611d68565b9b0194019401918b98969394919a9997959a611e60565b90919283359060018060a01b0382168092036116d35790815285019285019190600101611e02565b929093611f47926080959897969860018060a01b03168552602085015260a0604085015260a0840191611d68565b9460608201520152565b9190811015611a885760051b81013590601e19813603018212156116d35701908135916001600160401b0383116116d35760200182360381136116d3579190565b90611f9c82611cac565b611fe257600254808210611fc45750611fb59042611ac4565b905f52600160205260405f2055565b6044925060405191635433660960e01b835260048301526024820152fd5b604051635ead8eb560e01b81526004810183905260016024820152604490fd5b611a02949260609260018060a01b0316825260208201528160408201520191611d68565b61206e935f93928493826040519384928337810185815203925af13d15612071573d9061205282611835565b916120606040519384611800565b82523d5f602084013e6120fd565b50565b6060906120fd565b61208281611d00565b156120c05750801515806120b0575b6120985750565b6024906040519063121534c360e31b82526004820152fd5b506120ba81611d18565b15612091565b60449060405190635ead8eb560e01b8252600482015260046024820152fd5b6120e881611d00565b156120c0575f526001602052600160405f2055565b909190612126575080511561211457805190602001fd5b604051630a12f52160e11b8152600490fd5b56feb09aa5aeb3702cfd50b6b62bc4532604938f21248a27a1d5ca736082b6819cc1d8aa0f3194971a2a116679f7c2090f6939c8d4e01a2a8d7e41d55e5351469e63fd643c72710c63c0180259aba6b2d05451e3591a24e58b62239378085726f783a2646970667358221220f7a4bc8ecb8d323717a03b3a577f7aee33d5aae0e3d34d5beaf3faa5e3551c2264736f6c634300081400332f8788117e7eff1d82e926ec794901d17c78024a50270940304540a733656f0d","linkReferences":{}},"methodIdentifiers":{"CANCELLER_ROLE()":"b08e51c0","DEFAULT_ADMIN_ROLE()":"a217fddf","DEVNET_MIN_DELAY()":"fbfad3ec","EXECUTOR_ROLE()":"07bd0265","MAINNET_MIN_DELAY()":"7a0e3bac","MAX_DELAY()":"4125ff90","PROPOSER_ROLE()":"8f61f4f5","TESTNET_MIN_DELAY()":"7a26050b","batchCanExecute(address[])":"8af8f80b","batchCanPropose(address[])":"b6fcd8fc","batchGetOperationStatus(bytes32[])":"0b0ef7d4","batchGetRoles(address[])":"2744e9cc","batchGetTimeRemaining(bytes32[])":"9088eb1a","canExecute(address)":"85c99e2b","canPropose(address)":"42b4632e","cancel(bytes32)":"c4d252f5","computeBatchOperationId(address[],uint256[],bytes[],bytes32,bytes32)":"1faeb8c4","computeOperationId(address,uint256,bytes,bytes32,bytes32)":"c9edc9c1","execute(address,uint256,bytes,bytes32,bytes32)":"134008d3","executeBatch(address[],uint256[],bytes[],bytes32,bytes32)":"e38335e5","getExecutionTimeline()":"b3fb621d","getExtendedConfig()":"4761c691","getMinDelay()":"f27a0c92","getOperationActionability(bytes32)":"3d9680bf","getOperationState(bytes32)":"7958004c","getOperationStatus(bytes32)":"727c6c5a","getRecommendedDelay(uint8)":"82f924dd","getRoleAdmin(bytes32)":"248a9ca3","getRoles(address)":"ce6ccfaf","getTimeRemaining(bytes32)":"32be9ebc","getTimelockStatus()":"8482db5b","getTimestamp(bytes32)":"d45c4435","grantRole(bytes32,address)":"2f2ff15d","hasAdminRole(address)":"c395fcb3","hasRole(bytes32,address)":"91d14854","hashOperation(address,uint256,bytes,bytes32,bytes32)":"8065657f","hashOperationBatch(address[],uint256[],bytes[],bytes32,bytes32)":"b1c5f427","isOperation(bytes32)":"31d50750","isOperationDone(bytes32)":"2ab0f529","isOperationPending(bytes32)":"584b153e","isOperationReady(bytes32)":"13bc9f20","onERC1155BatchReceived(address,address,uint256[],uint256[],bytes)":"bc197c81","onERC1155Received(address,address,uint256,uint256,bytes)":"f23a6e61","onERC721Received(address,address,uint256,bytes)":"150b7a02","renounceRole(bytes32,address)":"36568abe","revokeRole(bytes32,address)":"d547741f","schedule(address,uint256,bytes,bytes32,bytes32,uint256)":"01d5062a","scheduleBatch(address[],uint256[],bytes[],bytes32,bytes32,uint256)":"8f2a0bb0","supportsInterface(bytes4)":"01ffc9a7","updateDelay(uint256)":"64d62353","verifyRolesForOperation(address,address)":"9a332801"},"id":3}