{"abi":[{"type":"function","name":"fail","inputs":[],"outputs":[],"stateMutability":"pure"},{"type":"function","name":"initialize","inputs":[],"outputs":[],"stateMutability":"nonpayable"},{"type":"function","name":"initializeOnlyInitializing","inputs":[],"outputs":[],"stateMutability":"nonpayable"},{"type":"function","name":"initializeWithX","inputs":[{"name":"_x","type":"uint256","internalType":"uint256"}],"outputs":[],"stateMutability":"payable"},{"type":"function","name":"initializerNested","inputs":[],"outputs":[],"stateMutability":"nonpayable"},{"type":"function","name":"initializerRan","inputs":[],"outputs":[{"name":"","type":"bool","internalType":"bool"}],"stateMutability":"view"},{"type":"function","name":"isInitializing","inputs":[],"outputs":[{"name":"","type":"bool","internalType":"bool"}],"stateMutability":"view"},{"type":"function","name":"nonInitializable","inputs":[{"name":"_x","type":"uint256","internalType":"uint256"}],"outputs":[],"stateMutability":"payable"},{"type":"function","name":"onlyInitializingNested","inputs":[],"outputs":[],"stateMutability":"nonpayable"},{"type":"function","name":"onlyInitializingRan","inputs":[],"outputs":[{"name":"","type":"bool","internalType":"bool"}],"stateMutability":"view"},{"type":"function","name":"x","inputs":[],"outputs":[{"name":"","type":"uint256","internalType":"uint256"}],"stateMutability":"view"},{"type":"event","name":"Initialized","inputs":[{"name":"version","type":"uint64","indexed":false,"internalType":"uint64"}],"anonymous":false},{"type":"error","name":"InvalidInitialization","inputs":[]},{"type":"error","name":"NotInitializing","inputs":[]}],"bytecode":{"object":"0x60808060405234610016576106c4908161001b8239f35b5f80fdfe608060409080825260049081361015610016575f80fd5b5f92833560e01c91826218eaa81461058d575081630c55699c1461056e57816310065ed2146105255781633ec91f05146104f457816368449d1b146103e657816376268ae8146102455781637cffe97a146102205781638129fc1c1461012c578163a9cc4718146100d4578163c3b8ef2a146100b2575063e955c9ec1461009b575f80fd5b60203660031901126100ae573560015580f35b5080fd5b8390346100ae57816003193601126100ae5760ff602092541690519015158152f35b828434610129578060031936011261012957506020606492519162461bcd60e51b8352820152602060248201527f496e697469616c697a61626c654d6f636b20666f72636564206661696c7572656044820152fd5b80fd5b9190503461021c578260031936011261021c575f8051602061066f83398151915290815460ff81851c16159167ffffffffffffffff821680159081610214575b600114908161020a575b159081610201575b506101f3575067ffffffffffffffff1981166001178355816101d8575b50835460ff191660011784556101af578280f35b805460ff60401b1916905551600181525f8051602061064f83398151915290602090a15f808280f35b6001600160481b0319166001600160401b011782555f61019b565b845163f92ee8a960e01b8152fd5b9050155f61017e565b303b159150610176565b84915061016c565b8280fd5b8390346100ae57816003193601126100ae5760ff6020925460081c1690519015158152f35b9190503461021c578260031936011261021c575f8051602061066f8339815191529081549060ff82851c16159067ffffffffffffffff90818416938415806103df575b600180961490816103d5575b1590816103cc575b506103bd5767ffffffffffffffff198181168617875590846103a2575b5085549160ff83891c1615938316868115918261039a575b149081610390575b159081610387575b5061037957508116841785558161035e575b50855460ff191683178655610336575b61030b578380f35b815460ff60401b191690915590519081525f8051602061064f83398151915290602090a15f80808380f35b825460ff60401b1916835583518281525f8051602061064f83398151915290602090a1610303565b6001600160481b0319166001600160401b011784555f6102f3565b875163f92ee8a960e01b8152fd5b9050155f6102e1565b303b1591506102d9565b8692506102d1565b6001600160481b0319166001600160401b011786555f6102b9565b50855163f92ee8a960e01b8152fd5b9050155f61029c565b303b159150610294565b5083610288565b9190503461021c578260031936011261021c575f8051602061066f83398151915291825460ff81831c16159067ffffffffffffffff8116801590816104ec575b60011490816104e2575b1590816104d9575b506104ca5767ffffffffffffffff1981166001178555816104af575b5083549260ff84841c16156104a15750845461ff001916610100178555610479578380f35b5f8051602061064f8339815191529260209260ff60401b191690555160018152a15f80808380f35b8251631afcd79f60e31b8152fd5b6001600160481b0319166001600160401b011784555f610454565b50505163f92ee8a960e01b8152fd5b9050155f610438565b303b159150610430565b839150610426565b8390346100ae57816003193601126100ae575f8051602061066f833981519152548151911c60ff1615158152602090f35b90503461021c578260031936011261021c5760ff5f8051602061066f83398151915254821c161561056157825461ff0019166101001783558280f35b51631afcd79f60e31b8152fd5b8390346100ae57816003193601126100ae576020906001549051908152f35b90929150602036600319011261064a575f8051602061066f83398151915291825460ff81861c16159267ffffffffffffffff821680159081610642575b6001149081610638575b15908161062f575b50610621575067ffffffffffffffff198116600117845582610606575b50356001556101af578280f35b6001600160481b0319166001600160401b011783555f6105f9565b63f92ee8a960e01b81529050fd5b9050155f6105dc565b303b1591506105d4565b8591506105ca565b8380fdfec7f505b2f371ae2175ee4913f4499e1f2633a7b5936321eed1cdaeb6115181d2f0c57e16840df040f15088dc2f81fe391c3923bec73e23a9662efc9c229c6a00a26469706673582212203278d01e62a5f307efd5fa46d01bf3b9c78dc223d85a406a6f82a78d5d6a357e64736f6c63430008140033","linkReferences":{}},"methodIdentifiers":{"fail()":"a9cc4718","initialize()":"8129fc1c","initializeOnlyInitializing()":"10065ed2","initializeWithX(uint256)":"0018eaa8","initializerNested()":"76268ae8","initializerRan()":"c3b8ef2a","isInitializing()":"3ec91f05","nonInitializable(uint256)":"e955c9ec","onlyInitializingNested()":"68449d1b","onlyInitializingRan()":"7cffe97a","x()":"0c55699c"},"id":254}