{"abi":[{"type":"constructor","inputs":[{"name":"underlying","type":"address","internalType":"address"}],"stateMutability":"nonpayable"},{"type":"function","name":"allowance","inputs":[{"name":"owner","type":"address","internalType":"address"},{"name":"spender","type":"address","internalType":"address"}],"outputs":[{"name":"","type":"uint256","internalType":"uint256"}],"stateMutability":"view"},{"type":"function","name":"approve","inputs":[{"name":"spender","type":"address","internalType":"address"},{"name":"value","type":"uint256","internalType":"uint256"}],"outputs":[{"name":"","type":"bool","internalType":"bool"}],"stateMutability":"nonpayable"},{"type":"function","name":"asset","inputs":[],"outputs":[{"name":"","type":"address","internalType":"address"}],"stateMutability":"view"},{"type":"function","name":"balanceOf","inputs":[{"name":"account","type":"address","internalType":"address"}],"outputs":[{"name":"","type":"uint256","internalType":"uint256"}],"stateMutability":"view"},{"type":"function","name":"burn","inputs":[{"name":"account","type":"address","internalType":"address"},{"name":"amount","type":"uint256","internalType":"uint256"}],"outputs":[],"stateMutability":"nonpayable"},{"type":"function","name":"convertToAssets","inputs":[{"name":"shares","type":"uint256","internalType":"uint256"}],"outputs":[{"name":"","type":"uint256","internalType":"uint256"}],"stateMutability":"view"},{"type":"function","name":"convertToShares","inputs":[{"name":"assets","type":"uint256","internalType":"uint256"}],"outputs":[{"name":"","type":"uint256","internalType":"uint256"}],"stateMutability":"view"},{"type":"function","name":"decimals","inputs":[],"outputs":[{"name":"","type":"uint8","internalType":"uint8"}],"stateMutability":"view"},{"type":"function","name":"deposit","inputs":[{"name":"assets","type":"uint256","internalType":"uint256"},{"name":"receiver","type":"address","internalType":"address"}],"outputs":[{"name":"","type":"uint256","internalType":"uint256"}],"stateMutability":"nonpayable"},{"type":"function","name":"maxDeposit","inputs":[{"name":"","type":"address","internalType":"address"}],"outputs":[{"name":"","type":"uint256","internalType":"uint256"}],"stateMutability":"view"},{"type":"function","name":"maxMint","inputs":[{"name":"","type":"address","internalType":"address"}],"outputs":[{"name":"","type":"uint256","internalType":"uint256"}],"stateMutability":"view"},{"type":"function","name":"maxRedeem","inputs":[{"name":"owner","type":"address","internalType":"address"}],"outputs":[{"name":"","type":"uint256","internalType":"uint256"}],"stateMutability":"view"},{"type":"function","name":"maxWithdraw","inputs":[{"name":"owner","type":"address","internalType":"address"}],"outputs":[{"name":"","type":"uint256","internalType":"uint256"}],"stateMutability":"view"},{"type":"function","name":"mint","inputs":[{"name":"account","type":"address","internalType":"address"},{"name":"amount","type":"uint256","internalType":"uint256"}],"outputs":[],"stateMutability":"nonpayable"},{"type":"function","name":"mint","inputs":[{"name":"shares","type":"uint256","internalType":"uint256"},{"name":"receiver","type":"address","internalType":"address"}],"outputs":[{"name":"","type":"uint256","internalType":"uint256"}],"stateMutability":"nonpayable"},{"type":"function","name":"name","inputs":[],"outputs":[{"name":"","type":"string","internalType":"string"}],"stateMutability":"view"},{"type":"function","name":"previewDeposit","inputs":[{"name":"assets","type":"uint256","internalType":"uint256"}],"outputs":[{"name":"","type":"uint256","internalType":"uint256"}],"stateMutability":"view"},{"type":"function","name":"previewMint","inputs":[{"name":"shares","type":"uint256","internalType":"uint256"}],"outputs":[{"name":"","type":"uint256","internalType":"uint256"}],"stateMutability":"view"},{"type":"function","name":"previewRedeem","inputs":[{"name":"shares","type":"uint256","internalType":"uint256"}],"outputs":[{"name":"","type":"uint256","internalType":"uint256"}],"stateMutability":"view"},{"type":"function","name":"previewWithdraw","inputs":[{"name":"assets","type":"uint256","internalType":"uint256"}],"outputs":[{"name":"","type":"uint256","internalType":"uint256"}],"stateMutability":"view"},{"type":"function","name":"redeem","inputs":[{"name":"shares","type":"uint256","internalType":"uint256"},{"name":"receiver","type":"address","internalType":"address"},{"name":"owner","type":"address","internalType":"address"}],"outputs":[{"name":"","type":"uint256","internalType":"uint256"}],"stateMutability":"nonpayable"},{"type":"function","name":"symbol","inputs":[],"outputs":[{"name":"","type":"string","internalType":"string"}],"stateMutability":"view"},{"type":"function","name":"totalAssets","inputs":[],"outputs":[{"name":"","type":"uint256","internalType":"uint256"}],"stateMutability":"view"},{"type":"function","name":"totalSupply","inputs":[],"outputs":[{"name":"","type":"uint256","internalType":"uint256"}],"stateMutability":"view"},{"type":"function","name":"transfer","inputs":[{"name":"to","type":"address","internalType":"address"},{"name":"value","type":"uint256","internalType":"uint256"}],"outputs":[{"name":"","type":"bool","internalType":"bool"}],"stateMutability":"nonpayable"},{"type":"function","name":"transferFrom","inputs":[{"name":"from","type":"address","internalType":"address"},{"name":"to","type":"address","internalType":"address"},{"name":"value","type":"uint256","internalType":"uint256"}],"outputs":[{"name":"","type":"bool","internalType":"bool"}],"stateMutability":"nonpayable"},{"type":"function","name":"withdraw","inputs":[{"name":"assets","type":"uint256","internalType":"uint256"},{"name":"receiver","type":"address","internalType":"address"},{"name":"owner","type":"address","internalType":"address"}],"outputs":[{"name":"","type":"uint256","internalType":"uint256"}],"stateMutability":"nonpayable"},{"type":"event","name":"Approval","inputs":[{"name":"owner","type":"address","indexed":true,"internalType":"address"},{"name":"spender","type":"address","indexed":true,"internalType":"address"},{"name":"value","type":"uint256","indexed":false,"internalType":"uint256"}],"anonymous":false},{"type":"event","name":"Deposit","inputs":[{"name":"sender","type":"address","indexed":true,"internalType":"address"},{"name":"owner","type":"address","indexed":true,"internalType":"address"},{"name":"assets","type":"uint256","indexed":false,"internalType":"uint256"},{"name":"shares","type":"uint256","indexed":false,"internalType":"uint256"}],"anonymous":false},{"type":"event","name":"Transfer","inputs":[{"name":"from","type":"address","indexed":true,"internalType":"address"},{"name":"to","type":"address","indexed":true,"internalType":"address"},{"name":"value","type":"uint256","indexed":false,"internalType":"uint256"}],"anonymous":false},{"type":"event","name":"Withdraw","inputs":[{"name":"sender","type":"address","indexed":true,"internalType":"address"},{"name":"receiver","type":"address","indexed":true,"internalType":"address"},{"name":"owner","type":"address","indexed":true,"internalType":"address"},{"name":"assets","type":"uint256","indexed":false,"internalType":"uint256"},{"name":"shares","type":"uint256","indexed":false,"internalType":"uint256"}],"anonymous":false},{"type":"error","name":"AddressEmptyCode","inputs":[{"name":"target","type":"address","internalType":"address"}]},{"type":"error","name":"AddressInsufficientBalance","inputs":[{"name":"account","type":"address","internalType":"address"}]},{"type":"error","name":"ERC20InsufficientAllowance","inputs":[{"name":"spender","type":"address","internalType":"address"},{"name":"allowance","type":"uint256","internalType":"uint256"},{"name":"needed","type":"uint256","internalType":"uint256"}]},{"type":"error","name":"ERC20InsufficientBalance","inputs":[{"name":"sender","type":"address","internalType":"address"},{"name":"balance","type":"uint256","internalType":"uint256"},{"name":"needed","type":"uint256","internalType":"uint256"}]},{"type":"error","name":"ERC20InvalidApprover","inputs":[{"name":"approver","type":"address","internalType":"address"}]},{"type":"error","name":"ERC20InvalidReceiver","inputs":[{"name":"receiver","type":"address","internalType":"address"}]},{"type":"error","name":"ERC20InvalidSender","inputs":[{"name":"sender","type":"address","internalType":"address"}]},{"type":"error","name":"ERC20InvalidSpender","inputs":[{"name":"spender","type":"address","internalType":"address"}]},{"type":"error","name":"ERC4626ExceededMaxDeposit","inputs":[{"name":"receiver","type":"address","internalType":"address"},{"name":"assets","type":"uint256","internalType":"uint256"},{"name":"max","type":"uint256","internalType":"uint256"}]},{"type":"error","name":"ERC4626ExceededMaxMint","inputs":[{"name":"receiver","type":"address","internalType":"address"},{"name":"shares","type":"uint256","internalType":"uint256"},{"name":"max","type":"uint256","internalType":"uint256"}]},{"type":"error","name":"ERC4626ExceededMaxRedeem","inputs":[{"name":"owner","type":"address","internalType":"address"},{"name":"shares","type":"uint256","internalType":"uint256"},{"name":"max","type":"uint256","internalType":"uint256"}]},{"type":"error","name":"ERC4626ExceededMaxWithdraw","inputs":[{"name":"owner","type":"address","internalType":"address"},{"name":"assets","type":"uint256","internalType":"uint256"},{"name":"max","type":"uint256","internalType":"uint256"}]},{"type":"error","name":"FailedInnerCall","inputs":[]},{"type":"error","name":"MathOverflowedMulDiv","inputs":[]},{"type":"error","name":"SafeERC20FailedOperation","inputs":[{"name":"token","type":"address","internalType":"address"}]}],"bytecode":{"object":"0x60c0806040523462000378578062001534803803809162000021828562000398565b83396020928391810103126200037857516001600160a01b0381169190829003620003785760405162000054816200037c565b600b81526a455243343632364d6f636b60a81b8282015260405162000079816200037c565b600681526545343632364d60d01b8382015281516001600160401b03919082811162000283576003918254916001958684811c941680156200036d575b8885101462000359578190601f9485811162000306575b508890858311600114620002a3575f9262000297575b50505f1982861b1c191690861b1783555b8051938411620002835760049586548681811c9116801562000278575b8282101462000265578381116200021d575b5080928511600114620001b357509383949184925f95620001a7575b50501b925f19911b1c19161790555b6200015981620003bc565b90156200019e575b60a05260805260405161109c908162000498823960805181818161052701528181610b9101528181610d300152610dfd015260a0518161056c0152f35b50601262000161565b015193505f806200013f565b92919084601f198116885f52855f20955f905b89838310620002025750505010620001e8575b50505050811b0190556200014e565b01519060f8845f19921b161c191690555f808080620001d9565b858701518955909701969485019488935090810190620001c6565b875f52815f208480880160051c8201928489106200025b575b0160051c019087905b8281106200024f57505062000123565b5f81550187906200023f565b9250819262000236565b602288634e487b7160e01b5f525260245ffd5b90607f169062000111565b634e487b7160e01b5f52604160045260245ffd5b015190505f80620000e3565b90889350601f19831691875f528a5f20925f5b8c828210620002ef5750508411620002d7575b505050811b018355620000f4565b01515f1983881b60f8161c191690555f8080620002c9565b8385015186558c97909501949384019301620002b6565b909150855f52885f208580850160051c8201928b86106200034f575b918a91869594930160051c01915b82811062000340575050620000cd565b5f81558594508a910162000330565b9250819262000322565b634e487b7160e01b5f52602260045260245ffd5b93607f1693620000b6565b5f80fd5b604081019081106001600160401b038211176200028357604052565b601f909101601f19168101906001600160401b038211908210176200028357604052565b906040516020908181019063313ce56760e01b825260048152620003e0816200037c565b515f9485928392916001600160a01b03165afa3d156200048e573d906001600160401b0382116200047a576040519162000424601f8201601f191685018462000398565b82523d858484013e5b806200046e575b62000440575b50508190565b81818051810103126200046a57015160ff8111156200046057806200043a565b6001925060ff1690565b8380fd5b50818151101562000434565b634e487b7160e01b85526041600452602485fd5b6060906200042d56fe60406080815260049081361015610014575f80fd5b5f90813560e01c92836301e1d114146107a857836306fdde03146106d357836307a2d13a146104ea578363095ea7b31461062b5783630a28a4771461060c57836318160ddd146105ee57836323b872dd146105b2578363313ce5671461055657836338d52e0f14610513578363402d267d1461021257836340c10f19146104ef5783634cdad506146104ea5783636e553f65146104b757836370a082311461049757836394bf804d1461046057836395d89b411461037a5783639dc29fac14610353578363a9059cbb14610323578363b3d7f6b914610304578363b460af941461028f578363ba0876521461021757508263c63d75b614610212578263c6e6f5921461014b578263ce96cb77146101db578263d905777e1461019b578263dd62ed3e1461015057505063ef8b30f71461014b575f80fd5b6108bb565b346101975780600319360112610197578060209261016c610835565b61017461084b565b6001600160a01b0391821683526001865283832091168252845220549051908152f35b5080fd5b34610197576020366003190112610197576020906101d46101ba610835565b6001600160a01b03165f9081526020819052604090205490565b9051908152f35b34610197576020366003190112610197576020916101d49082906001600160a01b03610205610835565b1681528085522054610c89565b610861565b823461028c57829061022836610886565b6001600160a01b0381168452602084905295909220549094939080861161026a575050836102649161025b602096610c89565b94859133610d6d565b51908152f35b9251632e52afbb60e21b8152948594610288949350909185016109c2565b0390fd5b80fd5b829034610197576102c49183916102a536610886565b6001600160a01b03811685526020859052969093205490959490610c89565b8086116102e657505061026490846102dd602096610c05565b94859233610d6d565b9251633fa733bb60e21b8152948594610288949350909185016109c2565b913461028c57602036600319011261028c57506101d460209235610c5e565b503461019757806003193601126101975760209061034c610342610835565b602435903361090f565b5160018152f35b50346101975736600319011261028c5761037761036e610835565b60243590610a41565b80f35b925034610197578160031936011261019757805191809380549160019083821c92828516948515610456575b60209586861081146104435785895290811561041f57506001146103e4575b6103e087876103d6828c03836108d9565b51918291826107c4565b0390f35b9080949750528583205b82841061040c57505050826103e0946103d692820101945f806103c5565b80548685018801529286019281016103ee565b60ff19168887015250505050151560051b83010192506103d6826103e05f806103c5565b634e487b7160e01b845260228352602484fd5b93607f16936103a6565b3461049357816003193601126104935760209250359061026461048161084b565b9261048b81610c5e565b809433610cb4565b8280fd5b5034610197576020366003190112610197576020906101d46101ba610835565b346104935781600319360112610493576020925035906102646104d861084b565b6104e184610c33565b93849133610cb4565b61080b565b50346101975736600319011261028c5761037761050a610835565b602435906109e0565b5034610197578160031936011261019757517f00000000000000000000000000000000000000000000000000000000000000006001600160a01b03168152602090f35b92503461019757816003193601126101975760ff7f0000000000000000000000000000000000000000000000000000000000000000169160ff831161059f576020838351908152f35b634e487b7160e01b815260118452602490fd5b50346101975760603660031901126101975760209061034c6105d2610835565b6105da61084b565b604435916105e9833383610ab7565b61090f565b50346101975781600319360112610197576020906002549051908152f35b913461028c57602036600319011261028c57506101d460209235610c05565b34610493578160031936011261049357610643610835565b6024359033156106bc576001600160a01b03169182156106a557508083602095338152600187528181208582528752205582519081527f8c5be1e5ebec7d5bd14f71427d1e84f3dd0314c0f7b2291e5b200ac8c7c3b925843392a35160018152f35b8351634a1406b160e11b8152908101859052602490fd5b835163e602df0560e01b8152808401869052602490fd5b9034610493578260031936011261049357805191836003549060019082821c92828116801561079e575b602095868610821461078b5750848852908115610769575060011461072e575b6103e086866103d6828b03836108d9565b929550600383528583205b82841061075657505050826103e0946103d692820101948661071d565b8054868501880152928601928101610739565b60ff191687860152505050151560051b83010192506103d6826103e08661071d565b634e487b7160e01b845260229052602483fd5b93607f16936106fd565b50346101975781600319360112610197576020906101d4610b76565b602080825282518183018190529093925f5b8281106107f757505060409293505f838284010152601f8019910116010190565b8181018601518482016040015285016107d6565b34610831576020366003190112610831576020610829600435610c89565b604051908152f35b5f80fd5b600435906001600160a01b038216820361083157565b602435906001600160a01b038216820361083157565b346108315760203660031901126108315761087a610835565b5060206040515f198152f35b606090600319011261083157600435906001600160a01b03906024358281168103610831579160443590811681036108315790565b34610831576020366003190112610831576020610829600435610c33565b90601f8019910116810190811067ffffffffffffffff8211176108fb57604052565b634e487b7160e01b5f52604160045260245ffd5b916001600160a01b038084169283156109aa5716928315610992575f9083825281602052604082205490838210610975575091604082825f80516020611047833981519152958760209652828652038282205586815220818154019055604051908152a3565b6102888460405193849363391434e360e21b8552600485016109c2565b60405163ec442f0560e01b81525f6004820152602490fd5b604051634b637e8f60e11b81525f6004820152602490fd5b604091949392606082019560018060a01b0316825260208201520152565b6001600160a01b03169081156109925760025490808201809211610a2d5760205f80516020611047833981519152915f9360025584845283825260408420818154019055604051908152a3565b634e487b7160e01b5f52601160045260245ffd5b906001600160a01b0382169081156109aa575f9282845283602052604084205490828210610a9a5750815f80516020611047833981519152926020928587528684520360408620558060025403600255604051908152a3565b6102888360405193849363391434e360e21b8552600485016109c2565b9160018060a01b03809316915f9383855260016020526040938486209183169182875260205284862054925f198403610af4575b50505050505050565b848410610b5857508015610b40578115610b285785526001602052838520908552602052039120555f808080808080610aeb565b8451634a1406b160e11b815260048101879052602490fd5b845163e602df0560e01b815260048101879052602490fd5b8390610288868851938493637dc7a0d960e11b8552600485016109c2565b6040516370a0823160e01b81523060048201526020816024817f00000000000000000000000000000000000000000000000000000000000000006001600160a01b03165afa908115610bfa575f91610bcc575090565b906020823d8211610bf2575b81610be5602093836108d9565b8101031261028c57505190565b3d9150610bd8565b6040513d5f823e3d90fd5b60025460018101809111610a2d57610c1b610b76565b9060018201809211610a2d57610c3092610f75565b90565b60025460018101809111610a2d57610c49610b76565b9060018201809211610a2d57610c3092610fb3565b610c66610b76565b60018101809111610a2d576002549060018201809211610a2d57610c3092610f75565b610c91610b76565b60018101809111610a2d576002549060018201809211610a2d57610c3092610fb3565b6040516323b872dd60e01b60208201526001600160a01b039182166024820181905230604483015260648083018690528252939460a08201939192919067ffffffffffffffff8511848610176108fb57610d546040947fdcbc1c05240f31ff3ad067ef1ee35ce4997762752e3a095284754544f4c709d79686527f0000000000000000000000000000000000000000000000000000000000000000610e3f565b610d5e81836109e0565b835196875260208701521693a3565b6001600160a01b038084169581831694909392610d96918591828a8903610e2e575b5050610a41565b6040519163a9059cbb60e01b6020840152169384602483015280604483015260448252608082019282841067ffffffffffffffff8511176108fb57610e216040937ffbde797d201c681b91056529119e0b02407c7bb96a4a2c75c01fc9667232c8db9585527f0000000000000000000000000000000000000000000000000000000000000000610e3f565b82519182526020820152a4565b610e389183610ab7565b5f82610d8f565b60018060a01b0316905f80826020829451910182865af13d15610f06573d9067ffffffffffffffff8211610ef25790610e9a9160405191610e8a6020601f19601f84011601846108d9565b82523d84602084013e5b84610f12565b908151918215159283610eca575b505050610eb25750565b60249060405190635274afe760e01b82526004820152fd5b81929350906020918101031261019757602001519081159182150361028c57505f8080610ea8565b634e487b7160e01b83526041600452602483fd5b610e9a90606090610e94565b90610f395750805115610f2757805190602001fd5b604051630a12f52160e11b8152600490fd5b81511580610f6c575b610f4a575090565b604051639996b31560e01b81526001600160a01b039091166004820152602490fd5b50803b15610f42565b9190610f82828285610fb3565b928215610f9f5709610f915790565b60018101809111610a2d5790565b634e487b7160e01b5f52601260045260245ffd5b9091828202915f1984820993838086109503948086039514611038578483111561102657829109815f038216809204600280826003021880830282030280830282030280830282030280830282030280830282030280920290030293600183805f03040190848311900302920304170290565b60405163227bc15360e01b8152600490fd5b505080925015610f9f57049056feddf252ad1be2c89b69c2b068fc378daa952ba7f163c4a11628f55a4df523b3efa2646970667358221220369339f54168e5048ab9d690fc993dfea4c7c3f3a4272a8e146a82f58b297a5964736f6c63430008140033","linkReferences":{}},"methodIdentifiers":{"allowance(address,address)":"dd62ed3e","approve(address,uint256)":"095ea7b3","asset()":"38d52e0f","balanceOf(address)":"70a08231","burn(address,uint256)":"9dc29fac","convertToAssets(uint256)":"07a2d13a","convertToShares(uint256)":"c6e6f592","decimals()":"313ce567","deposit(uint256,address)":"6e553f65","maxDeposit(address)":"402d267d","maxMint(address)":"c63d75b6","maxRedeem(address)":"d905777e","maxWithdraw(address)":"ce96cb77","mint(address,uint256)":"40c10f19","mint(uint256,address)":"94bf804d","name()":"06fdde03","previewDeposit(uint256)":"ef8b30f7","previewMint(uint256)":"b3d7f6b9","previewRedeem(uint256)":"4cdad506","previewWithdraw(uint256)":"0a28a477","redeem(uint256,address,address)":"ba087652","symbol()":"95d89b41","totalAssets()":"01e1d114","totalSupply()":"18160ddd","transfer(address,uint256)":"a9059cbb","transferFrom(address,address,uint256)":"23b872dd","withdraw(uint256,address,address)":"b460af94"},"id":299}