{"abi":[{"type":"function","name":"child","inputs":[],"outputs":[{"name":"","type":"uint256","internalType":"uint256"}],"stateMutability":"view"},{"type":"function","name":"father","inputs":[],"outputs":[{"name":"","type":"uint256","internalType":"uint256"}],"stateMutability":"view"},{"type":"function","name":"gramps","inputs":[],"outputs":[{"name":"","type":"string","internalType":"string"}],"stateMutability":"view"},{"type":"function","name":"initialize","inputs":[{"name":"_mother","type":"uint256","internalType":"uint256"},{"name":"_gramps","type":"string","internalType":"string"},{"name":"_father","type":"uint256","internalType":"uint256"},{"name":"_child","type":"uint256","internalType":"uint256"}],"outputs":[],"stateMutability":"nonpayable"},{"type":"function","name":"initialize","inputs":[],"outputs":[],"stateMutability":"nonpayable"},{"type":"function","name":"initialize","inputs":[{"name":"_gramps","type":"string","internalType":"string"},{"name":"_father","type":"uint256","internalType":"uint256"}],"outputs":[],"stateMutability":"nonpayable"},{"type":"function","name":"initialize","inputs":[{"name":"value","type":"string","internalType":"string"}],"outputs":[],"stateMutability":"nonpayable"},{"type":"function","name":"initialize","inputs":[{"name":"value","type":"uint256","internalType":"uint256"}],"outputs":[],"stateMutability":"nonpayable"},{"type":"function","name":"isHuman","inputs":[],"outputs":[{"name":"","type":"bool","internalType":"bool"}],"stateMutability":"view"},{"type":"function","name":"mother","inputs":[],"outputs":[{"name":"","type":"uint256","internalType":"uint256"}],"stateMutability":"view"},{"type":"event","name":"Initialized","inputs":[{"name":"version","type":"uint64","indexed":false,"internalType":"uint64"}],"anonymous":false},{"type":"error","name":"InvalidInitialization","inputs":[]},{"type":"error","name":"NotInitializing","inputs":[]}],"bytecode":{"object":"0x6080806040523461001657610c9f908161001b8239f35b5f80fdfe60806040818152600480361015610014575f80fd5b5f92833560e01c9081631c8aca3b14610af957508063237b5e9614610adc5780634a6c9db614610aba5780636f2edbd2146108495780638129fc1c146107755780638beaf7d71461050e578063ed7dfee3146104ef578063f62d1888146102a6578063fa39851f146101a45763fe4b84df1461008e575f80fd5b346101a05760203660031901126101a0575f80516020610c4a8339815191529081549060ff82851c1615916001600160401b03811680159081610198575b600114908161018e575b159081610185575b506101765767ffffffffffffffff19811660011784558261015b575b50610103610bdb565b61010b610bdb565b610113610bdb565b845460ff19166001178555610126610bdb565b35600155610132578280f35b805460ff60401b1916905551600181525f80516020610c2a83398151915290602090a15f808280f35b6001600160481b0319166001600160401b011783555f6100fa565b50835163f92ee8a960e01b8152fd5b9050155f6100de565b303b1591506100d6565b8491506100cc565b8280fd5b5050346102a257816003193601126102a257805160025481846101c683610ba3565b8083526001938085169081156102815750600114610237575b506101ef92509492940384610b15565b815192839160208084528251928382860152825b84811061022157505050828201840152601f01601f19168101030190f35b8181018301518882018801528795508201610203565b600287525f80516020610c0a83398151915293602092508791905b8183106102695750506101ef93508201015f6101df565b85548784018501529485019486945091830191610252565b90506101ef94506020925060ff191682840152151560051b8201015f6101df565b5080fd5b50346101a057602090816003193601126104eb576001600160401b039281358481116104e7576102d99036908401610b4a565b915f80516020610c4a8339815191529485549360ff85851c161592828616958615806104e0575b600180981490816104d6575b1590816104cd575b506104be5767ffffffffffffffff19811687178955846104a3575b50610338610bdb565b610340610bdb565b610348610bdb565b885460ff19168617895561035a610bdb565b815192831161049057508190610371600254610ba3565b601f811161043f575b508690601f83116001146103df5789926103d4575b50505f19600383901b1c191690841b176002555b6103ab578480f35b835460ff60401b191690935591519182525f80516020610c2a83398151915291a15f8080808480f35b015190505f8061038f565b60028a52878a208794509190601f1984168b5b8a8282106104295750508411610411575b505050811b016002556103a3565b01515f1960f88460031b161c191690555f8080610403565b8385015186558a979095019493840193016103f2565b90915060028952868920601f840160051c810191888510610486575b84939291601f89920160051c01915b82811061047857505061037a565b8b815585945088910161046a565b909150819061045b565b634e487b7160e01b895260419052602488fd5b6001600160481b0319166001600160401b011788555f61032f565b50845163f92ee8a960e01b8152fd5b9050155f610314565b303b15915061030c565b5084610300565b8580fd5b8380fd5b5050346102a257816003193601126102a2576020906001549051908152f35b50346101a057816003193601126101a0576001600160401b039080358281116107715761053e9036908301610b4a565b905f80516020610c4a8339815191529283549260ff84871c1615928285169485158061076a575b60018097149081610760575b159081610757575b506107485767ffffffffffffffff198116861787558461072d575b5061059d610bdb565b6105a5610bdb565b6105ad610bdb565b6105b5610bdb565b875460ff1916851788556105c7610bdb565b815192831161071a575081906105de600254610ba3565b601f81116106bd575b50602090601f831160011461065d578892610652575b50505f19600383901b1c191690831b176002555b610619610bdb565b602435600355610627578380f35b815460ff60401b191690915590519081525f80516020610c2a83398151915290602090a15f80808380f35b015190505f806105fd565b600289528189208694509190601f1984168a5b8181106106a55750841161068d575b505050811b01600255610611565b01515f1960f88460031b161c191690555f808061067f565b82840151855588969094019360209384019301610670565b600289529091505f80516020610c0a833981519152601f840160051c81019160208510610710575b84939291601f88920160051c01915b8281106107025750506105e7565b8a81558594508791016106f4565b90915081906106e5565b634e487b7160e01b885260419052602487fd5b6001600160481b0319166001600160401b011786555f610594565b50865163f92ee8a960e01b8152fd5b9050155f610579565b303b159150610571565b5084610565565b8480fd5b50346101a057826003193601126101a0575f80516020610c4a83398151915290815460ff81851c1615916001600160401b03821680159081610841575b6001149081610837575b15908161082e575b50610820575067ffffffffffffffff198116600117835581610805575b506107ea610bdb565b6107f2610bdb565b835460ff19166001178455610132578280f35b6001600160481b0319166001600160401b011782555f6107e1565b845163f92ee8a960e01b8152fd5b9050155f6107c4565b303b1591506107bc565b8491506107b2565b50346101a05760803660031901126101a0576001600160401b036024358181116107715761087a9036908401610b4a565b5f80516020610c4a8339815191529283549260ff84871c16159281851694851580610ab3575b60018097149081610aa9575b159081610aa0575b50610a905767ffffffffffffffff1981168617875584610a75575b506108d8610bdb565b6108e0610bdb565b6108e8610bdb565b6108f0610bdb565b875460ff191685178855610902610bdb565b8235855561090e610bdb565b610916610bdb565b61091e610bdb565b610926610bdb565b61092e610bdb565b8051918211610a62578190610944600254610ba3565b601f8111610a05575b50602090601f83116001146109a557899261099a575b50505f19600383901b1c191690841b176002555b61097f610bdb565b60443560035561098d610bdb565b6064359055610627578380f35b015190505f80610963565b60028a52818a208794509190601f1984168b5b8181106109ed575084116109d5575b505050811b01600255610977565b01515f1960f88460031b161c191690555f80806109c7565b828401518555899690940193602093840193016109b8565b60028a529091505f80516020610c0a833981519152601f840160051c81019160208510610a58575b84939291601f89920160051c01915b828110610a4a57505061094d565b8b8155859450889101610a3c565b9091508190610a2d565b634e487b7160e01b885260418352602488fd5b6001600160481b0319166001600160401b011786555f6108cf565b875163f92ee8a960e01b81528490fd5b9050155f6108b4565b303b1591506108ac565b50846108a0565b5050346102a257816003193601126102a25760ff602092541690519015158152f35b50346101a057826003193601126101a05760209250549051908152f35b8490346102a257816003193601126102a2576020906003548152f35b90601f801991011681019081106001600160401b03821117610b3657604052565b634e487b7160e01b5f52604160045260245ffd5b81601f82011215610b9f578035906001600160401b038211610b365760405192610b7e601f8401601f191660200185610b15565b82845260208383010111610b9f57815f926020809301838601378301015290565b5f80fd5b90600182811c92168015610bd1575b6020831014610bbd57565b634e487b7160e01b5f52602260045260245ffd5b91607f1691610bb2565b60ff5f80516020610c4a8339815191525460401c1615610bf757565b604051631afcd79f60e31b8152600490fdfe405787fa12a823e0f2b7631cc41b3ba8828b3321ca811111fa75cd3aa3bb5acec7f505b2f371ae2175ee4913f4499e1f2633a7b5936321eed1cdaeb6115181d2f0c57e16840df040f15088dc2f81fe391c3923bec73e23a9662efc9c229c6a00a2646970667358221220534b94eee003e643b3c5a5b898678a7df369c5c26c9e3da2b67f59a1ae83b66664736f6c63430008140033","linkReferences":{}},"methodIdentifiers":{"child()":"237b5e96","father()":"1c8aca3b","gramps()":"fa39851f","initialize()":"8129fc1c","initialize(string)":"f62d1888","initialize(string,uint256)":"8beaf7d7","initialize(uint256)":"fe4b84df","initialize(uint256,string,uint256,uint256)":"6f2edbd2","isHuman()":"4a6c9db6","mother()":"ed7dfee3"},"id":264}