{"abi":[{"type":"function","name":"chainReinitialize","inputs":[{"name":"i","type":"uint64","internalType":"uint64"},{"name":"j","type":"uint64","internalType":"uint64"}],"outputs":[],"stateMutability":"nonpayable"},{"type":"function","name":"counter","inputs":[],"outputs":[{"name":"","type":"uint256","internalType":"uint256"}],"stateMutability":"view"},{"type":"function","name":"disableInitializers","inputs":[],"outputs":[],"stateMutability":"nonpayable"},{"type":"function","name":"doStuff","inputs":[],"outputs":[],"stateMutability":"nonpayable"},{"type":"function","name":"getInitializedVersion","inputs":[],"outputs":[{"name":"","type":"uint64","internalType":"uint64"}],"stateMutability":"view"},{"type":"function","name":"initialize","inputs":[],"outputs":[],"stateMutability":"nonpayable"},{"type":"function","name":"nestedReinitialize","inputs":[{"name":"i","type":"uint64","internalType":"uint64"},{"name":"j","type":"uint64","internalType":"uint64"}],"outputs":[],"stateMutability":"nonpayable"},{"type":"function","name":"reinitialize","inputs":[{"name":"i","type":"uint64","internalType":"uint64"}],"outputs":[],"stateMutability":"nonpayable"},{"type":"event","name":"Initialized","inputs":[{"name":"version","type":"uint64","indexed":false,"internalType":"uint64"}],"anonymous":false},{"type":"error","name":"InvalidInitialization","inputs":[]},{"type":"error","name":"NotInitializing","inputs":[]}],"bytecode":{"object":"0x60808060405234610016576106cc908161001b8239f35b5f80fdfe608060409080825260049182361015610016575f80fd5b5f91823560e01c90816331f44900146105a15750806361bc221a146105855780638129fc1c1461045d578063874f33a1146103fe5780639a1b97df1461032f578063b3c65015146102fc578063b5f214c0146101b25763ff57ab741461007a575f80fd5b346101ae57806003193601126101ae57610092610626565b9061009b610640565b915f805160206106778339815191529081549060ff82851c168015610198575b610188576001600160401b03908116946001600160481b031992600160401b92908416871783179182871c60ff16801561017a575b61016a57169283911617179060ff82851c161561015a5785545f19811461014757916020959391600187969401885583519081525f80516020610657833981519152968791a160ff60401b1916905551908152a180f35b634e487b7160e01b875260118852602487fd5b8351631afcd79f60e31b81528790fd5b865163f92ee8a960e01b81528a90fd5b5081811682841610156100f0565b835163f92ee8a960e01b81528790fd5b506001600160401b0380821690831610156100bb565b5080fd5b509190346102f957826003193601126102f9576101cd610626565b6101d5610640565b935f80516020610677833981519152805460ff81841c1680156102e3575b6102d3576001600160401b0393841690600160401b6001600160481b0319918216831781179160ff83871c16156102c3578754925f19948585146102b0576020999a9b899189519081525f805160206106578339815191529b8c91a1168098821610156102a057168617179182851c60ff161561029057600182011461014757600201865560ff60401b191690555190815291925090602090a180f35b8451631afcd79f60e31b81528990fd5b865163f92ee8a960e01b81528b90fd5b634e487b7160e01b8a5260118b5260248afd5b8551631afcd79f60e31b81528990fd5b825163f92ee8a960e01b81528690fd5b506001600160401b0380851690821610156101f3565b80fd5b50346101ae57816003193601126101ae576020906001600160401b035f8051602061067783398151915254169051908152f35b50346101ae5760203660031901126101ae57610349610626565b905f8051602061067783398151915280549260ff84841c1680156103e8575b6102d3576001600160401b0316926001600160481b0319168317600160401b1780831c60ff16156103d85784545f1981146103c557600101855560ff60401b19169055519081525f8051602061065783398151915290602090a180f35b634e487b7160e01b865260118752602486fd5b8251631afcd79f60e31b81528690fd5b506001600160401b038082169085161015610368565b50346101ae57816003193601126101ae5760ff5f8051602061067783398151915254821c161561044e575080545f19811461043b57600101815580f35b506011602492634e487b7160e01b835252fd5b51631afcd79f60e31b81529050fd5b5082346105815782600319360112610581575f8051602061067783398151915291825460ff81831c1615906001600160401b03811680159081610579575b600114908161056f575b159081610566575b506105575767ffffffffffffffff19811660011785558161053a575b5083549260ff84841c161561052c578554905f198214610519575060010185556104f1578380f35b5f805160206106578339815191529260209260ff60401b191690555160018152a18180808380f35b634e487b7160e01b875260119052602486fd5b8251631afcd79f60e31b8152fd5b6001600160481b03191668010000000000000001178455856104c9565b50505163f92ee8a960e01b8152fd5b905015876104ad565b303b1591506104a5565b83915061049b565b8280fd5b50346101ae57816003193601126101ae57602091549051908152f35b90508391346106225783600319360112610622575f805160206106778339815191529283549260ff84841c166106165750506001600160401b039081808416036105e9578480f35b5f8051602061065783398151915293826020946001600160401b03191617905551908152a1818080808480f35b63f92ee8a960e01b8152fd5b8380fd5b600435906001600160401b038216820361063c57565b5f80fd5b602435906001600160401b038216820361063c5756fec7f505b2f371ae2175ee4913f4499e1f2633a7b5936321eed1cdaeb6115181d2f0c57e16840df040f15088dc2f81fe391c3923bec73e23a9662efc9c229c6a00a264697066735822122094c40055e1e7a67d57fde6aea472c25869726193bdf65cab9113c7d45308eac664736f6c63430008140033","linkReferences":{}},"methodIdentifiers":{"chainReinitialize(uint64,uint64)":"b5f214c0","counter()":"61bc221a","disableInitializers()":"31f44900","doStuff()":"874f33a1","getInitializedVersion()":"b3c65015","initialize()":"8129fc1c","nestedReinitialize(uint64,uint64)":"ff57ab74","reinitialize(uint64)":"9a1b97df"},"id":92}