{"abi":[{"type":"constructor","inputs":[],"stateMutability":"nonpayable"},{"type":"function","name":"UPGRADE_INTERFACE_VERSION","inputs":[],"outputs":[{"name":"","type":"string","internalType":"string"}],"stateMutability":"view"},{"type":"function","name":"getAllTokens","inputs":[],"outputs":[{"name":"","type":"address[]","internalType":"address[]"}],"stateMutability":"view"},{"type":"function","name":"getCollateralTokens","inputs":[],"outputs":[{"name":"","type":"address[]","internalType":"address[]"}],"stateMutability":"view"},{"type":"function","name":"getTokenInfo","inputs":[{"name":"token","type":"address","internalType":"address"}],"outputs":[{"name":"","type":"tuple","internalType":"struct ITokenRegistry.TokenInfo","components":[{"name":"tokenAddress","type":"address","internalType":"address"},{"name":"name","type":"string","internalType":"string"},{"name":"symbol","type":"string","internalType":"string"},{"name":"decimals","type":"uint8","internalType":"uint8"},{"name":"logoURI","type":"string","internalType":"string"},{"name":"category","type":"uint8","internalType":"enum ITokenRegistry.TokenCategory"},{"name":"trustLevel","type":"uint8","internalType":"enum ITokenRegistry.TrustLevel"},{"name":"isCollateral","type":"bool","internalType":"bool"},{"name":"addedAt","type":"uint256","internalType":"uint256"},{"name":"updatedAt","type":"uint256","internalType":"uint256"}]}],"stateMutability":"view"},{"type":"function","name":"getTokensByCategory","inputs":[{"name":"category","type":"uint8","internalType":"enum ITokenRegistry.TokenCategory"}],"outputs":[{"name":"","type":"address[]","internalType":"address[]"}],"stateMutability":"view"},{"type":"function","name":"initialize","inputs":[{"name":"owner_","type":"address","internalType":"address"}],"outputs":[],"stateMutability":"nonpayable"},{"type":"function","name":"isApprovedCollateral","inputs":[{"name":"token","type":"address","internalType":"address"}],"outputs":[{"name":"","type":"bool","internalType":"bool"}],"stateMutability":"view"},{"type":"function","name":"isRegistered","inputs":[{"name":"token","type":"address","internalType":"address"}],"outputs":[{"name":"","type":"bool","internalType":"bool"}],"stateMutability":"view"},{"type":"function","name":"owner","inputs":[],"outputs":[{"name":"","type":"address","internalType":"address"}],"stateMutability":"view"},{"type":"function","name":"proxiableUUID","inputs":[],"outputs":[{"name":"","type":"bytes32","internalType":"bytes32"}],"stateMutability":"view"},{"type":"function","name":"registerToken","inputs":[{"name":"token","type":"address","internalType":"address"},{"name":"name","type":"string","internalType":"string"},{"name":"symbol","type":"string","internalType":"string"},{"name":"decimals","type":"uint8","internalType":"uint8"},{"name":"category","type":"uint8","internalType":"enum ITokenRegistry.TokenCategory"},{"name":"trustLevel","type":"uint8","internalType":"enum ITokenRegistry.TrustLevel"},{"name":"isCollateral_","type":"bool","internalType":"bool"},{"name":"logoURI","type":"string","internalType":"string"}],"outputs":[],"stateMutability":"nonpayable"},{"type":"function","name":"removeToken","inputs":[{"name":"token","type":"address","internalType":"address"}],"outputs":[],"stateMutability":"nonpayable"},{"type":"function","name":"renounceOwnership","inputs":[],"outputs":[],"stateMutability":"nonpayable"},{"type":"function","name":"setCollateralStatus","inputs":[{"name":"token","type":"address","internalType":"address"},{"name":"status","type":"bool","internalType":"bool"}],"outputs":[],"stateMutability":"nonpayable"},{"type":"function","name":"setTokenCategory","inputs":[{"name":"token","type":"address","internalType":"address"},{"name":"category","type":"uint8","internalType":"enum ITokenRegistry.TokenCategory"}],"outputs":[],"stateMutability":"nonpayable"},{"type":"function","name":"setTrustLevel","inputs":[{"name":"token","type":"address","internalType":"address"},{"name":"level","type":"uint8","internalType":"enum ITokenRegistry.TrustLevel"}],"outputs":[],"stateMutability":"nonpayable"},{"type":"function","name":"tokenCount","inputs":[],"outputs":[{"name":"","type":"uint256","internalType":"uint256"}],"stateMutability":"view"},{"type":"function","name":"transferOwnership","inputs":[{"name":"newOwner","type":"address","internalType":"address"}],"outputs":[],"stateMutability":"nonpayable"},{"type":"function","name":"updateTokenMetadata","inputs":[{"name":"token","type":"address","internalType":"address"},{"name":"name","type":"string","internalType":"string"},{"name":"symbol","type":"string","internalType":"string"},{"name":"logoURI","type":"string","internalType":"string"}],"outputs":[],"stateMutability":"nonpayable"},{"type":"function","name":"upgradeToAndCall","inputs":[{"name":"newImplementation","type":"address","internalType":"address"},{"name":"data","type":"bytes","internalType":"bytes"}],"outputs":[],"stateMutability":"payable"},{"type":"event","name":"CollateralStatusChanged","inputs":[{"name":"token","type":"address","indexed":true,"internalType":"address"},{"name":"isCollateral","type":"bool","indexed":false,"internalType":"bool"}],"anonymous":false},{"type":"event","name":"Initialized","inputs":[{"name":"version","type":"uint64","indexed":false,"internalType":"uint64"}],"anonymous":false},{"type":"event","name":"OwnershipTransferred","inputs":[{"name":"previousOwner","type":"address","indexed":true,"internalType":"address"},{"name":"newOwner","type":"address","indexed":true,"internalType":"address"}],"anonymous":false},{"type":"event","name":"TokenRegistered","inputs":[{"name":"token","type":"address","indexed":true,"internalType":"address"},{"name":"name","type":"string","indexed":false,"internalType":"string"},{"name":"symbol","type":"string","indexed":false,"internalType":"string"},{"name":"category","type":"uint8","indexed":false,"internalType":"enum ITokenRegistry.TokenCategory"},{"name":"trustLevel","type":"uint8","indexed":false,"internalType":"enum ITokenRegistry.TrustLevel"}],"anonymous":false},{"type":"event","name":"TokenRemoved","inputs":[{"name":"token","type":"address","indexed":true,"internalType":"address"}],"anonymous":false},{"type":"event","name":"TokenUpdated","inputs":[{"name":"token","type":"address","indexed":true,"internalType":"address"},{"name":"field","type":"string","indexed":false,"internalType":"string"}],"anonymous":false},{"type":"event","name":"Upgraded","inputs":[{"name":"implementation","type":"address","indexed":true,"internalType":"address"}],"anonymous":false},{"type":"error","name":"AddressEmptyCode","inputs":[{"name":"target","type":"address","internalType":"address"}]},{"type":"error","name":"ERC1967InvalidImplementation","inputs":[{"name":"implementation","type":"address","internalType":"address"}]},{"type":"error","name":"ERC1967NonPayable","inputs":[]},{"type":"error","name":"FailedInnerCall","inputs":[]},{"type":"error","name":"InvalidDecimals","inputs":[]},{"type":"error","name":"InvalidInitialization","inputs":[]},{"type":"error","name":"InvalidTokenAddress","inputs":[]},{"type":"error","name":"NotInitializing","inputs":[]},{"type":"error","name":"OwnableInvalidOwner","inputs":[{"name":"owner","type":"address","internalType":"address"}]},{"type":"error","name":"OwnableUnauthorizedAccount","inputs":[{"name":"account","type":"address","internalType":"address"}]},{"type":"error","name":"TokenAlreadyRegistered","inputs":[]},{"type":"error","name":"TokenNotRegistered","inputs":[]},{"type":"error","name":"UUPSUnauthorizedCallContext","inputs":[]},{"type":"error","name":"UUPSUnsupportedProxiableUUID","inputs":[{"name":"slot","type":"bytes32","internalType":"bytes32"}]}],"bytecode":{"object":"0x60a080604052346100cc57306080527ff0c57e16840df040f15088dc2f81fe391c3923bec73e23a9662efc9c229c6a009081549060ff8260401c166100bd57506001600160401b036002600160401b031982821601610078575b604051611d9f90816100d182396080518181816111d101526112770152f35b6001600160401b031990911681179091556040519081527fc7f505b2f371ae2175ee4913f4499e1f2633a7b5936321eed1cdaeb6115181d290602090a15f8080610059565b63f92ee8a960e01b8152600490fd5b5f80fdfe6080806040526004361015610012575f80fd5b5f3560e01c9081631f69565f146115e8575080631fc0cd0d146114b85780632a5c792a1461142c5780634f1ef2861461122857806352d1902d146111bf5780635fa7b58414611037578063618e1d8214610f8e57806366dad8f414610f51578063715018a614610eea5780638765138114610be65780638da5cb5b14610bb25780639f181b5e14610b95578063a4e5ca9414610aea578063ad3cb1cc14610a93578063b58eb63f1461098d578063c3c5a54714610950578063c4d66de814610820578063df852d8d14610747578063ec2215f2146101275763f2fde38b146100f8575f80fd5b34610123576020366003190112610123576101216101146117d0565b61011c61193c565b611974565b005b5f80fd5b3461012357610100366003190112610123576101416117d0565b6024356001600160401b0381116101235761016090369060040161190f565b906044356001600160401b0381116101235761018090369060040161190f565b929060643560ff81168103610123576005608435101561012357600360a43510156101235760c435151560c435036101235760e4356001600160401b038111610123576101d190369060040161190f565b906101da61193c565b6001600160a01b03881615610735576001600160a01b0388165f9081526001602052604090205460ff1661072357601260ff8416116107115761025f9160ff6040519461022686611881565b6001600160a01b038b16865261023d36898b6118d9565b602087015261024d368b896118d9565b604087015216606085015236916118d9565b608082015261027360843560a08301611a89565b61028260a43560c08301611a95565b60c435151560e08201524261010082018190526101208201526001600160a01b038681165f90815260208181526040909120835181546001600160a01b03191693169290921782558201518051919291906001600160401b03821161057e5781906102fd826102f46001880154611aa1565b60018801611aef565b602090601f83116001146106a3575f92610698575b50508160011b915f199060031b1c19161760018301555b60408101518051906001600160401b03821161057e57819061035b826103526002880154611aa1565b60028801611aef565b602090601f831160011461062a575f9261061f575b50508160011b915f199060031b1c19161760028301555b60ff60608201511660ff1960038401541617600383015560808101518051906001600160401b03821161057e5781906103d0826103c76004880154611aa1565b60048801611aef565b602090601f83116001146105b1575f926105a6575b50508160011b915f199060031b1c19161760048301555b60a08101516005811015610592576104179060058401611b34565b60c08101516003811015610592576007916104386101209260058601611b4c565b60e081015160058501805462ff0000191691151560101b62ff0000169190911790556101008101516006850155015191015560018060a01b0385165f52600160205260405f20600160ff198254161790556002549060046020528160405f2055600160401b82101561057e577f23b4eedc857a247746d77a07ef0881825e65c344915e4cc936a03beda56fdd0c946104fc876104dd8560016105299701600255611b6b565b90919082549060031b9160018060a01b03809116831b921b1916179055565b60c435610557575b61051b604051958695608087526080870191611b97565b918483036020860152611b97565b9361053960408301608435611824565b6105486060830160a435611831565b6001600160a01b0316930390a2005b6001600160a01b0387165f908152600360205260409020805460ff19166001179055610504565b634e487b7160e01b5f52604160045260245ffd5b634e487b7160e01b5f52602160045260245ffd5b0151905089806103e5565b9250600485015f5260205f20905f935b601f1984168510610604576001945083601f198116106105ec575b505050811b0160048301556103fc565b01515f1960f88460031b161c191690558980806105dc565b818101518355602094850194600190930192909101906105c1565b015190508980610370565b9250600285015f5260205f20905f935b601f198416851061067d576001945083601f19811610610665575b505050811b016002830155610387565b01515f1960f88460031b161c19169055898080610655565b8181015183556020948501946001909301929091019061063a565b015190508980610312565b9250600185015f5260205f20905f935b601f19841685106106f6576001945083601f198116106106de575b505050811b016001830155610329565b01515f1960f88460031b161c191690558980806106ce565b818101518355602094850194600190930192909101906106b3565b604051630692acc560e51b8152600490fd5b604051633ea7ffd960e11b8152600490fd5b604051630f58058360e11b8152600490fd5b34610123576040366003190112610123576107606117d0565b60243590811515908183036101235761077761193c565b6001600160a01b03165f8181526001602052604090205490929060ff161561080e577f4f66a58837da3e5a77c3d14203271a95ceaff9802cc2c05cb32a4018f34407c591602091845f525f83526107ea60405f2091600583019062ff0000825491151560101b169062ff00001916179055565b6007429101556003825260405f2060ff1981541660ff8316179055604051908152a2005b60405163259ba1ad60e01b8152600490fd5b34610123576020366003190112610123576108396117d0565b7ff0c57e16840df040f15088dc2f81fe391c3923bec73e23a9662efc9c229c6a0090815460ff8160401c1615916001600160401b03821680159081610948575b600114908161093e575b159081610935575b506109235767ffffffffffffffff19821660011784556108bc9183610904575b506108b4611a48565b61011c611a48565b6108c4611a48565b6108ca57005b805460ff60401b19169055604051600181527fc7f505b2f371ae2175ee4913f4499e1f2633a7b5936321eed1cdaeb6115181d290602090a1005b68ffffffffffffffffff191668010000000000000001178455846108ab565b60405163f92ee8a960e01b8152600490fd5b9050158561088b565b303b159150610883565b849150610879565b34610123576020366003190112610123576001600160a01b036109716117d0565b165f526001602052602060ff60405f2054166040519015158152f35b34610123575f366003190112610123576002545f805b828110610a3f57506109b490611cc3565b905f805b8281106109d157604051806109cd868261183e565b0390f35b6109da81611b6b565b60018060a01b03809254600392831b1c165f528060205260ff60405f205416610a0e575b5050610a0990611c9e565b6109b8565b92610a37918394610a21610a0995611b6b565b9054911b1c16610a318288611cf5565b52611c9e565b9190856109fe565b610a4881611b6b565b9054600391821b1c6001600160a01b03165f908152602091909152604090205460ff16610a7e575b610a7990611c9e565b6109a3565b90610a8b610a7991611c9e565b919050610a70565b34610123575f3660031901126101235760405160408101908082106001600160401b0383111761057e576109cd9160405260058152640352e302e360dc1b60208201526040519182916020835260208301906117e6565b3461012357604036600319011261012357610b036117d0565b60243590600382101561012357610b1861193c565b6001600160a01b03165f8181526001602052604090205490919060ff161561080e57610b5190825f525f602052600560405f2001611b4c565b805f525f60205242600760405f2001555f80516020611d4a833981519152606060405160208152600a6020820152691d1c9d5cdd13195d995b60b21b6040820152a2005b34610123575f366003190112610123576020600254604051908152f35b34610123575f366003190112610123575f80516020611d0a833981519152546040516001600160a01b039091168152602090f35b3461012357608036600319011261012357610bff6117d0565b6001600160401b0360243581811161012357610c1f90369060040161190f565b909160443581811161012357610c3990369060040161190f565b60649591953583811161012357610c5490369060040161190f565b92610c5d61193c565b60018060a01b031696875f5260019260209784895260ff60405f2054161561080e57895f525f895260405f209787811161057e5780868a0192610caa82610ca48654611aa1565b86611aef565b5f90601f8311600114610e86575f92610e7b575b50505f19600383901b1c191690861b1790555b600287019186821161057e578190610ced82610ca48654611aa1565b5f90601f8311600114610e1c575f92610e11575b50505f19600383901b1c191690841b1790555b6004850193831161057e57610d2d83610ca48654611aa1565b5f90601f8411600114610d9c5792805f80516020611d4a8339815191529795938193606098965f94610d91575b50501b915f199060031b1c19161790555b600742910155600860405191808352820152676d6574616461746160c01b6040820152a2005b013592508a80610d5a565b601f93929319831691855f52875f20925f5b818110610dfc575091606097959391855f80516020611d4a8339815191529a98969410610de3575b505050811b019055610d6b565b01355f19600384901b60f8161c19169055888080610dd6565b83830135855593860193918901918901610dae565b013590508a80610d01565b869350601f19831691855f528b5f20925f5b8d828210610e655750508411610e4c575b505050811b019055610d14565b01355f19600384901b60f8161c191690558a8080610e3f565b8385013586558a97909501949283019201610e2e565b013590508c80610cbe565b889350845f528c5f20918d5f905b601f1986168210610ed357505083601f19811610610eba575b505050811b019055610cd1565b01355f19600384901b60f8161c191690558c8080610ead565b8284013585558b969094019391820191018e610e94565b34610123575f36600319011261012357610f0261193c565b5f80516020611d0a83398151915280546001600160a01b031981169091555f906001600160a01b03167f8be0079c531659141344cd1fd0a4f28419497f9722a3daafe3b4186f6b6457e08280a3005b34610123576020366003190112610123576001600160a01b03610f726117d0565b165f526003602052602060ff60405f2054166040519015158152f35b3461012357604036600319011261012357610fa76117d0565b60243590600582101561012357610fbc61193c565b6001600160a01b03165f8181526001602052604090205490919060ff161561080e57610ff590825f525f602052600560405f2001611b34565b805f525f60205242600760405f2001555f80516020611d4a833981519152606060405160208152600860208201526763617465676f727960c01b6040820152a2005b3461012357602080600319360112610123576110516117d0565b9061105a61193c565b6001600160a01b039182165f81815260018352604090205490929060ff161561080e57825f526004825260405f2054600254905f19918281019081116111ab57808491830361117a575b50505060025480156111665701906110bb82611b6b565b909182549160031b1b19169055600255815f52600481525f60408120555f81525f6007604082208281556110f160018201611bb7565b6110fd60028201611bb7565b82600382015561110f60048201611bb7565b8260058201558260068201550155815f5260018152600360405f209160ff19928381541690555260405f209081541690557f4c910b69fe65a61f7531b9c5042b2329ca7179c77290aa7e2eb3afa3c8511fd35f80a2005b634e487b7160e01b5f52603160045260245ffd5b61118390611b6b565b90549060031b1c16611198816104dd84611b6b565b5f526004845260405f20558482816110a4565b634e487b7160e01b5f52601160045260245ffd5b34610123575f366003190112610123577f00000000000000000000000000000000000000000000000000000000000000006001600160a01b031630036112165760206040515f80516020611d2a8339815191528152f35b60405163703e46dd60e11b8152600490fd5b60403660031901126101235761123c6117d0565b6024356001600160401b03811161012357366023820112156101235761126c9036906024816004013591016118d9565b906001600160a01b037f00000000000000000000000000000000000000000000000000000000000000008116308114908115611411575b50611216576112b061193c565b6040516352d1902d60e01b8152908216916020918281600481875afa5f91816113e2575b506112f257604051634c9c8ce360e01b815260048101859052602490fd5b9284935f80516020611d2a833981519152908181036113ca5750823b156113b15780546001600160a01b03191682179055604051907fbc7cd75a20ee27fd9adebab32041f755214dbc6bffa90cc0225b39da2e5c2d3b5f80a283511561139757505f80848461012196519101845af4903d1561138e573d611372816118be565b90611380604051928361189d565b81525f81943d92013e6119e5565b606092506119e5565b92505050346113a257005b63b398979f60e01b8152600490fd5b604051634c9c8ce360e01b815260048101839052602490fd5b60249060405190632a87526960e21b82526004820152fd5b9091508381813d831161140a575b6113fa818361189d565b81010312610123575190866112d4565b503d6113f0565b9050815f80516020611d2a83398151915254161415846112a3565b34610123575f36600319011261012357604051600280548083525f918252602080840193927f405787fa12a823e0f2b7631cc41b3ba8828b3321ca811111fa75cd3aa3bb5ace92915b828210611498576109cd8561148c8189038261189d565b6040519182918261183e565b83546001600160a01b031686529485019460019384019390910190611475565b34610123576020806003193601126101235760043560059182821015928361012357600254915f805b84811061158557506114f290611cc3565b935f925f5b85811061150c57604051806109cd898261183e565b61151581611b6b565b60018060a01b03809254600392831b1c165f525f86528960ff8560405f2001541690610592578481101561059257851461155a575b505061155590611c9e565b6114f7565b9561157d91839761156d61155595611b6b565b9054911b1c16610a31828b611cf5565b94908961154a565b61158e81611b6b565b905460039190911b1c6001600160a01b03165f9081528084526040902084015460ff168761059257848110156105925786146115d3575b6115ce90611c9e565b6114e1565b906115e06115ce91611c9e565b9190506115c5565b34610123576020366003190112610123575f6101206116056117d0565b9261160f81611881565b8281526060602082015260606040820152826060820152606060808201528260a08201528260c08201528260e082015282610100820152015260018060a01b0316805f52600160205260ff60405f2054161561080e575f525f60205260405f2060076040519161167e83611881565b80546001600160a01b0316835261169760018201611bff565b60208401526116a860028201611bff565b604084015260ff60038201541660608401526116c660048201611bff565b608084015260ff60058201546116e182821660a08701611a89565b6116f3828260081c1660c08701611a95565b60101c16151560e08401526006810154610100840152015461012082015260405180916020825260018060a01b038151166020830152602081015161012061178a61174c610140938460408801526101608701906117e6565b611768604086015191601f1992838983030160608a01526117e6565b9060ff60608701511660808801526080860151908783030160a08801526117e6565b9261179d60a082015160c0870190611824565b6117af60c082015160e0870190611831565b60e08101511515610100860152610100810151828601520151908301520390f35b600435906001600160a01b038216820361012357565b91908251928382525f5b848110611810575050825f602080949584010152601f8019910116010190565b6020818301810151848301820152016117f0565b9060058210156105925752565b9060038210156105925752565b602090816040818301928281528551809452019301915f5b828110611864575050505090565b83516001600160a01b031685529381019392810192600101611856565b61014081019081106001600160401b0382111761057e57604052565b90601f801991011681019081106001600160401b0382111761057e57604052565b6001600160401b03811161057e57601f01601f191660200190565b9291926118e5826118be565b916118f3604051938461189d565b829481845281830111610123578281602093845f960137010152565b9181601f84011215610123578235916001600160401b038311610123576020838186019501011161012357565b5f80516020611d0a833981519152546001600160a01b0316330361195c57565b60405163118cdaa760e01b8152336004820152602490fd5b6001600160a01b039081169081156119cd575f80516020611d0a83398151915280546001600160a01b031981168417909155167f8be0079c531659141344cd1fd0a4f28419497f9722a3daafe3b4186f6b6457e05f80a3565b604051631e4fbdf760e01b81525f6004820152602490fd5b90611a0c57508051156119fa57805190602001fd5b604051630a12f52160e11b8152600490fd5b81511580611a3f575b611a1d575090565b604051639996b31560e01b81526001600160a01b039091166004820152602490fd5b50803b15611a15565b60ff7ff0c57e16840df040f15088dc2f81fe391c3923bec73e23a9662efc9c229c6a005460401c1615611a7757565b604051631afcd79f60e31b8152600490fd5b60058210156105925752565b60038210156105925752565b90600182811c92168015611acf575b6020831014611abb57565b634e487b7160e01b5f52602260045260245ffd5b91607f1691611ab0565b818110611ae4575050565b5f8155600101611ad9565b9190601f8111611afe57505050565b611b28925f5260205f20906020601f840160051c83019310611b2a575b601f0160051c0190611ad9565b565b9091508190611b1b565b9060058110156105925760ff80198354169116179055565b9060038110156105925761ff0082549160081b169061ff001916179055565b600254811015611b835760025f5260205f2001905f90565b634e487b7160e01b5f52603260045260245ffd5b908060209392818452848401375f828201840152601f01601f1916010190565b611bc18154611aa1565b9081611bcb575050565b81601f5f9311600114611bdc575055565b908083918252611bfb601f60208420940160051c840160018501611ad9565b5555565b9060405191825f825492611c1284611aa1565b9081845260019485811690815f14611c7b5750600114611c3b575b5050611b289250038361189d565b909391505f52602090815f20935f915b818310611c63575050611b2893508201015f80611c2d565b85548884018501529485019487945091830191611c4b565b915050611b2894506020925060ff191682840152151560051b8201015f80611c2d565b5f1981146111ab5760010190565b6001600160401b03811161057e5760051b60200190565b90611ccd82611cac565b611cda604051918261189d565b8281528092611ceb601f1991611cac565b0190602036910137565b8051821015611b835760209160051b01019056fe9016d09d72d40fdae2fd8ceac6b6234c7706214fd39c1cd1e609a0528c199300360894a13ba1a3210667c828492db98dca3e2076cc3735a920a3ca505d382bbc7dfa4f44638df9ca9c035c37f4954edb0383135db7751b81208a86345775a159a2646970667358221220e4e1def1fa0242ff77db47bfbe35ae700a2264a46a6e8414147851a3d7c9b39d64736f6c63430008140033","linkReferences":{}},"methodIdentifiers":{"UPGRADE_INTERFACE_VERSION()":"ad3cb1cc","getAllTokens()":"2a5c792a","getCollateralTokens()":"b58eb63f","getTokenInfo(address)":"1f69565f","getTokensByCategory(uint8)":"1fc0cd0d","initialize(address)":"c4d66de8","isApprovedCollateral(address)":"66dad8f4","isRegistered(address)":"c3c5a547","owner()":"8da5cb5b","proxiableUUID()":"52d1902d","registerToken(address,string,string,uint8,uint8,uint8,bool,string)":"ec2215f2","removeToken(address)":"5fa7b584","renounceOwnership()":"715018a6","setCollateralStatus(address,bool)":"df852d8d","setTokenCategory(address,uint8)":"618e1d82","setTrustLevel(address,uint8)":"a4e5ca94","tokenCount()":"9f181b5e","transferOwnership(address)":"f2fde38b","updateTokenMetadata(address,string,string,string)":"87651381","upgradeToAndCall(address,bytes)":"4f1ef286"},"id":393}