{"abi":[{"type":"constructor","inputs":[],"stateMutability":"nonpayable"},{"type":"receive","stateMutability":"payable"},{"type":"function","name":"DECRYPTION_TIMEOUT","inputs":[],"outputs":[{"name":"","type":"uint256","internalType":"uint256"}],"stateMutability":"view"},{"type":"function","name":"MAX_GAS_LIMIT","inputs":[],"outputs":[{"name":"","type":"uint256","internalType":"uint256"}],"stateMutability":"view"},{"type":"function","name":"MAX_PAYLOAD_SIZE","inputs":[],"outputs":[{"name":"","type":"uint256","internalType":"uint256"}],"stateMutability":"view"},{"type":"function","name":"MIN_GAS_LIMIT","inputs":[],"outputs":[{"name":"","type":"uint256","internalType":"uint256"}],"stateMutability":"view"},{"type":"function","name":"UPGRADE_INTERFACE_VERSION","inputs":[],"outputs":[{"name":"","type":"string","internalType":"string"}],"stateMutability":"view"},{"type":"function","name":"canUserSubmit","inputs":[{"name":"_user","type":"address","internalType":"address"}],"outputs":[{"name":"canSubmit","type":"bool","internalType":"bool"},{"name":"remainingSubmissions","type":"uint256","internalType":"uint256"}],"stateMutability":"view"},{"type":"function","name":"cancelEncryptedTx","inputs":[{"name":"_txId","type":"bytes32","internalType":"bytes32"}],"outputs":[],"stateMutability":"nonpayable"},{"type":"function","name":"commitOrdering","inputs":[{"name":"_batchId","type":"bytes32","internalType":"bytes32"},{"name":"_txIds","type":"bytes32[]","internalType":"bytes32[]"},{"name":"_orderingRoot","type":"bytes32","internalType":"bytes32"},{"name":"_signature","type":"bytes","internalType":"bytes"}],"outputs":[],"stateMutability":"nonpayable"},{"type":"function","name":"decryptedTxs","inputs":[{"name":"","type":"bytes32","internalType":"bytes32"}],"outputs":[{"name":"encryptedId","type":"bytes32","internalType":"bytes32"},{"name":"to","type":"address","internalType":"address"},{"name":"data","type":"bytes","internalType":"bytes"},{"name":"value","type":"uint256","internalType":"uint256"},{"name":"decryptedAt","type":"uint256","internalType":"uint256"},{"name":"executed","type":"bool","internalType":"bool"},{"name":"success","type":"bool","internalType":"bool"}],"stateMutability":"view"},{"type":"function","name":"encryptedTxs","inputs":[{"name":"","type":"bytes32","internalType":"bytes32"}],"outputs":[{"name":"id","type":"bytes32","internalType":"bytes32"},{"name":"sender","type":"address","internalType":"address"},{"name":"encryptedPayload","type":"bytes","internalType":"bytes"},{"name":"payloadHash","type":"bytes32","internalType":"bytes32"},{"name":"epoch","type":"uint256","internalType":"uint256"},{"name":"gasLimit","type":"uint256","internalType":"uint256"},{"name":"maxFeePerGas","type":"uint256","internalType":"uint256"},{"name":"valueDeposit","type":"uint256","internalType":"uint256"},{"name":"submittedAt","type":"uint256","internalType":"uint256"},{"name":"orderPosition","type":"uint256","internalType":"uint256"},{"name":"status","type":"uint8","internalType":"enum EncryptedMempool.EncryptedTxStatus"}],"stateMutability":"view"},{"type":"function","name":"executeDecryptedTx","inputs":[{"name":"_txId","type":"bytes32","internalType":"bytes32"}],"outputs":[],"stateMutability":"nonpayable"},{"type":"function","name":"getBatchTxStatuses","inputs":[{"name":"_txIds","type":"bytes32[]","internalType":"bytes32[]"}],"outputs":[{"name":"statuses","type":"uint8[]","internalType":"enum EncryptedMempool.EncryptedTxStatus[]"}],"stateMutability":"view"},{"type":"function","name":"getBatchUserPendingCounts","inputs":[{"name":"_users","type":"address[]","internalType":"address[]"}],"outputs":[{"name":"counts","type":"uint256[]","internalType":"uint256[]"}],"stateMutability":"view"},{"type":"function","name":"getDecryptedTx","inputs":[{"name":"_txId","type":"bytes32","internalType":"bytes32"}],"outputs":[{"name":"dtx","type":"tuple","internalType":"struct EncryptedMempool.DecryptedTx","components":[{"name":"encryptedId","type":"bytes32","internalType":"bytes32"},{"name":"to","type":"address","internalType":"address"},{"name":"data","type":"bytes","internalType":"bytes"},{"name":"value","type":"uint256","internalType":"uint256"},{"name":"decryptedAt","type":"uint256","internalType":"uint256"},{"name":"executed","type":"bool","internalType":"bool"},{"name":"success","type":"bool","internalType":"bool"}]}],"stateMutability":"view"},{"type":"function","name":"getEncryptedTx","inputs":[{"name":"_txId","type":"bytes32","internalType":"bytes32"}],"outputs":[{"name":"etx","type":"tuple","internalType":"struct EncryptedMempool.EncryptedTx","components":[{"name":"id","type":"bytes32","internalType":"bytes32"},{"name":"sender","type":"address","internalType":"address"},{"name":"encryptedPayload","type":"bytes","internalType":"bytes"},{"name":"payloadHash","type":"bytes32","internalType":"bytes32"},{"name":"epoch","type":"uint256","internalType":"uint256"},{"name":"gasLimit","type":"uint256","internalType":"uint256"},{"name":"maxFeePerGas","type":"uint256","internalType":"uint256"},{"name":"valueDeposit","type":"uint256","internalType":"uint256"},{"name":"submittedAt","type":"uint256","internalType":"uint256"},{"name":"orderPosition","type":"uint256","internalType":"uint256"},{"name":"status","type":"uint8","internalType":"enum EncryptedMempool.EncryptedTxStatus"}]}],"stateMutability":"view"},{"type":"function","name":"getMempoolStatus","inputs":[],"outputs":[{"name":"pendingCount","type":"uint256","internalType":"uint256"},{"name":"queueCapacity","type":"uint256","internalType":"uint256"},{"name":"submitted","type":"uint256","internalType":"uint256"},{"name":"executed","type":"uint256","internalType":"uint256"},{"name":"failed","type":"uint256","internalType":"uint256"},{"name":"expired","type":"uint256","internalType":"uint256"},{"name":"isPaused","type":"bool","internalType":"bool"},{"name":"currentMaxQueueSize","type":"uint256","internalType":"uint256"}],"stateMutability":"view"},{"type":"function","name":"getPendingQueueLength","inputs":[],"outputs":[{"name":"length","type":"uint256","internalType":"uint256"}],"stateMutability":"view"},{"type":"function","name":"getStats","inputs":[],"outputs":[{"name":"submitted","type":"uint256","internalType":"uint256"},{"name":"executed","type":"uint256","internalType":"uint256"},{"name":"failed","type":"uint256","internalType":"uint256"},{"name":"expired","type":"uint256","internalType":"uint256"}],"stateMutability":"view"},{"type":"function","name":"getSuccessRate","inputs":[],"outputs":[{"name":"rate","type":"uint256","internalType":"uint256"}],"stateMutability":"view"},{"type":"function","name":"getTxStatus","inputs":[{"name":"_txId","type":"bytes32","internalType":"bytes32"}],"outputs":[{"name":"status","type":"uint8","internalType":"enum EncryptedMempool.EncryptedTxStatus"},{"name":"statusName","type":"string","internalType":"string"},{"name":"blocksUntilExpiry","type":"uint256","internalType":"uint256"},{"name":"canExecute","type":"bool","internalType":"bool"}],"stateMutability":"view"},{"type":"function","name":"getUserPendingTxs","inputs":[{"name":"_user","type":"address","internalType":"address"}],"outputs":[{"name":"txIds","type":"bytes32[]","internalType":"bytes32[]"}],"stateMutability":"view"},{"type":"function","name":"initialize","inputs":[{"name":"_owner","type":"address","internalType":"address"},{"name":"_keyRegistry","type":"address","internalType":"address"},{"name":"_sequencer","type":"address","internalType":"address"}],"outputs":[],"stateMutability":"nonpayable"},{"type":"function","name":"keyRegistry","inputs":[],"outputs":[{"name":"","type":"address","internalType":"contract ThresholdKeyRegistry"}],"stateMutability":"view"},{"type":"function","name":"markExpired","inputs":[{"name":"_txIds","type":"bytes32[]","internalType":"bytes32[]"}],"outputs":[],"stateMutability":"nonpayable"},{"type":"function","name":"maxQueueSize","inputs":[],"outputs":[{"name":"","type":"uint256","internalType":"uint256"}],"stateMutability":"view"},{"type":"function","name":"maxSubmissionsPerUserPerBlock","inputs":[],"outputs":[{"name":"","type":"uint256","internalType":"uint256"}],"stateMutability":"view"},{"type":"function","name":"nextQueuePosition","inputs":[],"outputs":[{"name":"","type":"uint256","internalType":"uint256"}],"stateMutability":"view"},{"type":"function","name":"orderingCommitments","inputs":[{"name":"","type":"bytes32","internalType":"bytes32"}],"outputs":[{"name":"batchId","type":"bytes32","internalType":"bytes32"},{"name":"orderingRoot","type":"bytes32","internalType":"bytes32"},{"name":"txCount","type":"uint256","internalType":"uint256"},{"name":"committedAt","type":"uint256","internalType":"uint256"},{"name":"sequencerSignature","type":"bytes","internalType":"bytes"}],"stateMutability":"view"},{"type":"function","name":"owner","inputs":[],"outputs":[{"name":"","type":"address","internalType":"address"}],"stateMutability":"view"},{"type":"function","name":"pause","inputs":[],"outputs":[],"stateMutability":"nonpayable"},{"type":"function","name":"paused","inputs":[],"outputs":[{"name":"","type":"bool","internalType":"bool"}],"stateMutability":"view"},{"type":"function","name":"pendingQueue","inputs":[{"name":"","type":"uint256","internalType":"uint256"}],"outputs":[{"name":"","type":"bytes32","internalType":"bytes32"}],"stateMutability":"view"},{"type":"function","name":"proxiableUUID","inputs":[],"outputs":[{"name":"","type":"bytes32","internalType":"bytes32"}],"stateMutability":"view"},{"type":"function","name":"renounceOwnership","inputs":[],"outputs":[],"stateMutability":"nonpayable"},{"type":"function","name":"sequencer","inputs":[],"outputs":[{"name":"","type":"address","internalType":"address"}],"stateMutability":"view"},{"type":"function","name":"setKeyRegistry","inputs":[{"name":"_keyRegistry","type":"address","internalType":"address"}],"outputs":[],"stateMutability":"nonpayable"},{"type":"function","name":"setMaxQueueSize","inputs":[{"name":"_maxQueueSize","type":"uint256","internalType":"uint256"}],"outputs":[],"stateMutability":"nonpayable"},{"type":"function","name":"setMaxSubmissionsPerUserPerBlock","inputs":[{"name":"_maxSubmissions","type":"uint256","internalType":"uint256"}],"outputs":[],"stateMutability":"nonpayable"},{"type":"function","name":"setSequencer","inputs":[{"name":"_newSequencer","type":"address","internalType":"address"}],"outputs":[],"stateMutability":"nonpayable"},{"type":"function","name":"submitDecryption","inputs":[{"name":"_txId","type":"bytes32","internalType":"bytes32"},{"name":"_to","type":"address","internalType":"address"},{"name":"_data","type":"bytes","internalType":"bytes"},{"name":"_value","type":"uint256","internalType":"uint256"},{"name":"_decryptionProof","type":"bytes","internalType":"bytes"}],"outputs":[],"stateMutability":"nonpayable"},{"type":"function","name":"submitEncryptedTx","inputs":[{"name":"_encryptedPayload","type":"bytes","internalType":"bytes"},{"name":"_epoch","type":"uint256","internalType":"uint256"},{"name":"_gasLimit","type":"uint256","internalType":"uint256"},{"name":"_maxFeePerGas","type":"uint256","internalType":"uint256"}],"outputs":[{"name":"txId","type":"bytes32","internalType":"bytes32"}],"stateMutability":"payable"},{"type":"function","name":"totalExecuted","inputs":[],"outputs":[{"name":"","type":"uint256","internalType":"uint256"}],"stateMutability":"view"},{"type":"function","name":"totalExpired","inputs":[],"outputs":[{"name":"","type":"uint256","internalType":"uint256"}],"stateMutability":"view"},{"type":"function","name":"totalFailed","inputs":[],"outputs":[{"name":"","type":"uint256","internalType":"uint256"}],"stateMutability":"view"},{"type":"function","name":"totalSubmitted","inputs":[],"outputs":[{"name":"","type":"uint256","internalType":"uint256"}],"stateMutability":"view"},{"type":"function","name":"transferOwnership","inputs":[{"name":"newOwner","type":"address","internalType":"address"}],"outputs":[],"stateMutability":"nonpayable"},{"type":"function","name":"unpause","inputs":[],"outputs":[],"stateMutability":"nonpayable"},{"type":"function","name":"upgradeToAndCall","inputs":[{"name":"newImplementation","type":"address","internalType":"address"},{"name":"data","type":"bytes","internalType":"bytes"}],"outputs":[],"stateMutability":"payable"},{"type":"function","name":"userBlockSubmissions","inputs":[{"name":"","type":"address","internalType":"address"},{"name":"","type":"uint256","internalType":"uint256"}],"outputs":[{"name":"","type":"uint256","internalType":"uint256"}],"stateMutability":"view"},{"type":"function","name":"userPendingTxs","inputs":[{"name":"","type":"address","internalType":"address"},{"name":"","type":"uint256","internalType":"uint256"}],"outputs":[{"name":"","type":"bytes32","internalType":"bytes32"}],"stateMutability":"view"},{"type":"event","name":"EncryptedTxSubmitted","inputs":[{"name":"txId","type":"bytes32","indexed":true,"internalType":"bytes32"},{"name":"sender","type":"address","indexed":true,"internalType":"address"},{"name":"payloadHash","type":"bytes32","indexed":false,"internalType":"bytes32"},{"name":"epoch","type":"uint256","indexed":false,"internalType":"uint256"},{"name":"gasLimit","type":"uint256","indexed":false,"internalType":"uint256"}],"anonymous":false},{"type":"event","name":"Initialized","inputs":[{"name":"version","type":"uint64","indexed":false,"internalType":"uint64"}],"anonymous":false},{"type":"event","name":"OrderingCommitted","inputs":[{"name":"batchId","type":"bytes32","indexed":true,"internalType":"bytes32"},{"name":"orderingRoot","type":"bytes32","indexed":false,"internalType":"bytes32"},{"name":"txCount","type":"uint256","indexed":false,"internalType":"uint256"}],"anonymous":false},{"type":"event","name":"OwnershipTransferred","inputs":[{"name":"previousOwner","type":"address","indexed":true,"internalType":"address"},{"name":"newOwner","type":"address","indexed":true,"internalType":"address"}],"anonymous":false},{"type":"event","name":"Paused","inputs":[{"name":"account","type":"address","indexed":false,"internalType":"address"}],"anonymous":false},{"type":"event","name":"SequencerUpdated","inputs":[{"name":"oldSequencer","type":"address","indexed":false,"internalType":"address"},{"name":"newSequencer","type":"address","indexed":false,"internalType":"address"}],"anonymous":false},{"type":"event","name":"TxDecrypted","inputs":[{"name":"txId","type":"bytes32","indexed":true,"internalType":"bytes32"},{"name":"to","type":"address","indexed":false,"internalType":"address"},{"name":"value","type":"uint256","indexed":false,"internalType":"uint256"}],"anonymous":false},{"type":"event","name":"TxExecuted","inputs":[{"name":"txId","type":"bytes32","indexed":true,"internalType":"bytes32"},{"name":"success","type":"bool","indexed":false,"internalType":"bool"},{"name":"returnData","type":"bytes","indexed":false,"internalType":"bytes"}],"anonymous":false},{"type":"event","name":"TxExpired","inputs":[{"name":"txId","type":"bytes32","indexed":true,"internalType":"bytes32"}],"anonymous":false},{"type":"event","name":"TxOrdered","inputs":[{"name":"txId","type":"bytes32","indexed":true,"internalType":"bytes32"},{"name":"batchId","type":"bytes32","indexed":true,"internalType":"bytes32"},{"name":"position","type":"uint256","indexed":false,"internalType":"uint256"}],"anonymous":false},{"type":"event","name":"Unpaused","inputs":[{"name":"account","type":"address","indexed":false,"internalType":"address"}],"anonymous":false},{"type":"event","name":"Upgraded","inputs":[{"name":"implementation","type":"address","indexed":true,"internalType":"address"}],"anonymous":false},{"type":"error","name":"AddressEmptyCode","inputs":[{"name":"target","type":"address","internalType":"address"}]},{"type":"error","name":"DecryptionFailed","inputs":[]},{"type":"error","name":"ECDSAInvalidSignature","inputs":[]},{"type":"error","name":"ECDSAInvalidSignatureLength","inputs":[{"name":"length","type":"uint256","internalType":"uint256"}]},{"type":"error","name":"ECDSAInvalidSignatureS","inputs":[{"name":"s","type":"bytes32","internalType":"bytes32"}]},{"type":"error","name":"ERC1967InvalidImplementation","inputs":[{"name":"implementation","type":"address","internalType":"address"}]},{"type":"error","name":"ERC1967NonPayable","inputs":[]},{"type":"error","name":"EnforcedPause","inputs":[]},{"type":"error","name":"ExecutionFailed","inputs":[]},{"type":"error","name":"ExpectedPause","inputs":[]},{"type":"error","name":"FailedInnerCall","inputs":[]},{"type":"error","name":"InsufficientFee","inputs":[]},{"type":"error","name":"InvalidAddress","inputs":[]},{"type":"error","name":"InvalidEpoch","inputs":[]},{"type":"error","name":"InvalidGasLimit","inputs":[]},{"type":"error","name":"InvalidInitialization","inputs":[]},{"type":"error","name":"InvalidSignature","inputs":[]},{"type":"error","name":"NotInitializing","inputs":[]},{"type":"error","name":"NotSequencer","inputs":[]},{"type":"error","name":"OwnableInvalidOwner","inputs":[{"name":"owner","type":"address","internalType":"address"}]},{"type":"error","name":"OwnableUnauthorizedAccount","inputs":[{"name":"account","type":"address","internalType":"address"}]},{"type":"error","name":"PayloadTooLarge","inputs":[]},{"type":"error","name":"QueueFull","inputs":[]},{"type":"error","name":"RateLimitExceeded","inputs":[]},{"type":"error","name":"ReentrancyGuardReentrantCall","inputs":[]},{"type":"error","name":"TxAlreadyExecuted","inputs":[]},{"type":"error","name":"TxAlreadyExists","inputs":[]},{"type":"error","name":"TxExpiredError","inputs":[]},{"type":"error","name":"TxNotDecrypted","inputs":[]},{"type":"error","name":"TxNotFound","inputs":[]},{"type":"error","name":"TxNotOrdered","inputs":[]},{"type":"error","name":"UUPSUnauthorizedCallContext","inputs":[]},{"type":"error","name":"UUPSUnsupportedProxiableUUID","inputs":[{"name":"slot","type":"bytes32","internalType":"bytes32"}]},{"type":"error","name":"ValueExceedsDeposit","inputs":[]}],"bytecode":{"object":"0x60a08060405234620000d157306080527ff0c57e16840df040f15088dc2f81fe391c3923bec73e23a9662efc9c229c6a009081549060ff8260401c16620000c257506001600160401b036002600160401b0319828216016200007c575b6040516135059081620000d6823960805181818161161801526116ad0152f35b6001600160401b031990911681179091556040519081527fc7f505b2f371ae2175ee4913f4499e1f2633a7b5936321eed1cdaeb6115181d290602090a15f80806200005c565b63f92ee8a960e01b8152600490fd5b5f80fdfe6080604052600436101561001a575b3615610018575f80fd5b005b5f3560e01c806304f22a971461229f57806305785ad414612285578063064e2cd314611f4e578063086b519814611f275780631a6656cc14611e375780632547fa3e14611dc657806325b585c814611cb357806326ca1a6d14611c9257806331cd3a6d14611c755780633f4ba83a14611c0057806343a92dc614611b075780634562bfb114611aea578063464e59371461195257806349d479c91461183b5780634f1ef2861461166f57806352d1902d146116065780635c1bba38146115de5780635c975abb146115b05780635de19f75146110455780636814759014610d545780636e30bc9e14610d39578063715018a614610cd2578063777aef9d14610c8d5780637ce1ffeb14610c7157806380c85dfa14610c485780638456cb5914610be35780638da5cb5b14610baf57806392ea2c2014610b7e57806397e174aa14610b3a57806397f5365a14610ae35780639e08ac2514610ac25780639eab4c7b14610a2c578063a2ba193414610a0f578063ad3cb1cc146109ca578063ba3871c21461091c578063c0c53b8b14610739578063c59d484714610703578063c81fc75f14610642578063c8effe8014610625578063ce5e936514610608578063d3d0012014610490578063dc9dc9d6146103f8578063e3f5aa51146103db578063e6b3b0b114610386578063e6fb8a7114610318578063f2fde38b146102ef578063f7d9cc1e146102d2578063fc9df5d514610282578063fcebcd28146102655763fedbdf300361000e5734610261575f366003190112610261576020600854604051908152f35b5f80fd5b34610261575f366003190112610261576020600a54604051908152f35b34610261576020366003190112610261576004356006548110156102615760065f527ff652222313e28459528d920b65115c16c04f3efc82aaedc97be59f3f377c0d3f0154604051908152602090f35b34610261575f366003190112610261576020600c54604051908152f35b346102615760203660031901126102615761001861030b612543565b6103136127d9565b612811565b34610261576020366003190112610261576004355f52600460205260405f208054610382600183015492600281015490610359600460038301549201612738565b91604051958695865260208601526040850152606084015260a0608084015260a08301906125d7565b0390f35b34610261576020366003190112610261576103b96103ca6103a8600435612a2a565b9160409491939451958680966125fc565b6080602086015260808501906125d7565b916040840152151560608301520390f35b34610261575f366003190112610261576020604051629896808152f35b34610261575f3660031901126102615761010061041a60065460075490612955565b600c5480156104895781811115610483576104358282612955565b600854600954600a5490600b549260ff5f80516020613490833981519152541694604051978852602088015260408701526060860152608085015260a0840152151560c083015260e0820152f35b5f610435565b5f19610435565b3461026157602080600319360112610261576004356001600160401b038111610261576104c1903690600401612586565b5f9291925b8181106104cf57005b6104da818386612a1a565b355f526002835260405f2090600a820191825460ff8116600790818110156105f45780159081156105e9575b5061051e575b5050506105199150612962565b6104c6565b600883015494603286018096116105d557610519954311610540575b5061050c565b5f93610581859493610577869586956006809260ff1916179055600b6105668154612962565b90556005850154908501549061297d565b9083015490612a0d565b6001909101546001600160a01b03165af15061059b612882565b506105a7818487612a1a565b357fdfac8d2148e1d746254852ccd4517e13029562a75ae40ffcefed8f9a4d06e12a5f80a28580808061053a565b634e487b7160e01b5f52601160045260245ffd5b600191501489610506565b634e487b7160e01b5f52602160045260245ffd5b34610261575f366003190112610261576020600b54604051908152f35b34610261575f366003190112610261576020600d54604051908152f35b34610261576020366003190112610261576004355f52600260205260405f20805460018060a01b036001830154169161038261068060028301612738565b6003830154926004810154600582015460068301546007840154916008850154936106d260ff600a600989015498015416976040519c8d9c8d5260208d015260408c61016091829101528c01906125d7565b9860608b015260808a015260a089015260c088015260e08701526101008601526101208501526101408401906125fc565b34610261575f366003190112610261576080600854600954600a54600b5491604051938452602084015260408301526060820152f35b3461026157606036600319011261026157610752612543565b61075a61252d565b6001600160a01b03919060443583811690819003610261577ff0c57e16840df040f15088dc2f81fe391c3923bec73e23a9662efc9c229c6a009283549460ff8660401c1615936001600160401b03871696871580610915575b6001809914908161090b575b159081610902575b506108f05767ffffffffffffffff19811688178755856108d1575b50818316156108bf57169081156108bf5782156108bf5761080d90610805612914565b610313612914565b610815612914565b61081d612914565b845f805160206134b083398151915255610835612914565b61083d612914565b5f80516020613490833981519152805460ff1916905561085b612914565b5f80546001600160a01b03199081169092179055845416178355612710600c556005600d5561088657005b805460ff60401b191690556040519081527fc7f505b2f371ae2175ee4913f4499e1f2633a7b5936321eed1cdaeb6115181d290602090a1005b60405163e6c4247b60e01b8152600490fd5b68ffffffffffffffffff191668010000000000000001178655876107e2565b60405163f92ee8a960e01b8152600490fd5b905015896107c7565b303b1591506107bf565b50856107b3565b3461026157602080600319360112610261576001600160a01b0361093e612543565b165f526005815260405f20604051908183825491828152019081925f52845f20905f5b868282106109b65786866109778288038361265b565b60405192839281840190828552518091526040840192915f5b82811061099f57505050500390f35b835185528695509381019392810192600101610990565b835485529093019260019283019201610961565b34610261575f366003190112610261576103826040516109e981612640565b60058152640352e302e360dc1b60208201526040519182916020835260208301906125d7565b34610261575f366003190112610261576020604051620100008152f35b34610261576020366003190112610261576004355f908152600360205260409020805460018201546001600160a01b03169160ff610a6c60028301612738565b600383015492610a9e60056004830154920154926040519788978852602088015260e0604088015260e08701906125d7565b9360608601526080850152818116151560a085015260081c16151560c08301520390f35b3461026157602036600319011261026157610adb6127d9565b600435600c55005b3461026157604036600319011261026157610afc612543565b6001600160a01b03165f9081526005602052604090208054602435919082101561026157602091610b2c916126eb565b90546040519160031b1c8152f35b34610261576040366003190112610261576001600160a01b03610b5b612543565b165f52600e60205260405f206024355f52602052602060405f2054604051908152f35b34610261576020366003190112610261576040610ba1610b9c612543565b612c96565b825191151582526020820152f35b34610261575f366003190112610261575f80516020613450833981519152546040516001600160a01b039091168152602090f35b34610261575f36600319011261026157610bfb6127d9565b610c036129b4565b5f80516020613490833981519152600160ff198254161790557f62e78cea01bee320cd4e420270b5ea74000d11b0c9f74754ebdbfc544b05a2586020604051338152a1005b34610261575f366003190112610261576020610c6960065460075490612955565b604051908152f35b34610261575f3660031901126102615760206040516152088152f35b3461026157602036600319011261026157610ca6612543565b610cae6127d9565b6001600160a01b031680156108bf575f80546001600160a01b031916919091179055005b34610261575f36600319011261026157610cea6127d9565b5f8051602061345083398151915280546001600160a01b031981169091555f906001600160a01b03167f8be0079c531659141344cd1fd0a4f28419497f9722a3daafe3b4186f6b6457e08280a3005b34610261575f36600319011261026157602060405160328152f35b34610261576080366003190112610261576024356001600160401b03811161026157610d84903690600401612586565b604435916064356001600160401b03811161026157610da7903690600401612559565b6001546001600160a01b03163303611033576040519160a08301918383106001600160401b0384111761101f57610df99260405260043584528660208501528560408501524360608501523691612697565b608082019081526004355f526004602052600460405f208351815560208401516001820155606060408501519460029586840155015160038201550190518051906001600160401b03821161101f578190610e548454612700565b601f8111610fcf575b50602090601f8311600114610f6b575f92610f60575b50508160011b915f199060031b1c19161790555b5f5b838110610ec85750505060405191825260208201527fcdcde0fcb188b84fd602a1812bba76650ef7295701cb48c9f1e370994a78017e604060043592a2005b610ed3818585612a1a565b355f528160205260405f2090600a820191825460ff81169160078310156105f457610f0994849315610f0e575b50505050612962565b610e89565b600160099360ff19161790550155610f27818686612a1a565b35604051908282527fcfaf7bca797db7767e9b29107830a9619089846b825e133872c729b991b15389602060043593a380878080610f00565b015190508780610e73565b5f858152602081209350601f198516905b818110610fb75750908460019594939210610f9f575b505050811b019055610e87565b01515f1960f88460031b161c19169055878080610f92565b92936020600181928786015181550195019301610f7c565b909150835f5260205f20601f840160051c81019160208510611015575b90601f859493920160051c01905b8181106110075750610e5d565b5f8155849350600101610ffa565b9091508190610fec565b634e487b7160e01b5f52604160045260245ffd5b6040516314f8a09f60e21b8152600490fd5b6080366003190112610261576004356001600160401b03811161026157611070903690600401612559565b906110796129de565b6110816129b4565b61109060065460075490612955565b600c5480151591826115a5575b505061159357600d548061153c575b5062010000821161152a5761520860443510801561151c575b61150a575f546040516379a543dd60e11b81526024803560048301529091602091839182906001600160a01b03165afa9081156114ff575f916114c5575b50156114b35761111760643560443561297d565b8034106114a2576111289034612955565b91611134368284612697565b6020815191012092604051923360601b6020850152846034850152436054850152426074850152607484528360a08101106001600160401b0360a08601111761101f5760a084016040528351602085012093845f52600260205260018060a01b03600160405f2001541661148e57506111c490604051936111b485612624565b8585523360208601523691612697565b6040830152836060830152602435608083015260443560a083015260643560c083015260e0820152436101008201525f6101208201525f610140820152815f52600260205260405f2090805182556001820160018060a01b0360208301511660018060a01b031982541617905560408101518051906001600160401b03821161101f576112546002850154612700565b601f811161144a575b50602090601f83116001146113da576101409392915f91836113cf575b50508160011b915f199060031b1c19161760028401555b606081015160038401556080810151600484015560a0810151600584015560c0810151600684015560e0810151600784015561010081015160088401556101208101516009840155015160078110156105f457600a6112f0920161299c565b335f52600560205260405f2091825492600160401b938481101561101f5761131d916001820181556126eb565b81549060031b9084821b915f19901b19161790556006549283101561101f5760018301806006558310156113bb578160209360065f52845f200155611363600854612962565b600855604051908152602435838201526044356040820152817f3a22bdacfb06926930a680468a942646c7520a103c7351babcd45c6a367e143460603393a360015f805160206134b083398151915255604051908152f35b634e487b7160e01b5f52603260045260245ffd5b01519050878061127a565b90600285015f5260205f20915f5b601f198516811061143257509183916001936101409695601f1981161061141a575b505050811b016002840155611291565b01515f1960f88460031b161c1916905587808061140a565b919260206001819286850151815501940192016113e8565b600285015f5260205f20601f840160051c810160208510611487575b601f830160051c8201811061147c57505061125d565b5f8155600101611466565b5080611466565b60a060049163b9cb093160e01b8282015201fd5b60405162976f7560e21b8152600490fd5b60405163d5b25b6360e01b8152600490fd5b90506020813d6020116114f7575b816114e06020938361265b565b81010312610261576114f190612970565b83611103565b3d91506114d3565b6040513d5f823e3d90fd5b6040516304c5ed9760e51b8152600490fd5b5062989680604435116110c5565b60405163492f620d60e01b8152600490fd5b335f52600e60205260405f20435f5260205260405f2054101561158157335f52600e60205260405f20435f5260205260405f206115798154612962565b9055826110ac565b60405163a74c1c5f60e01b8152600490fd5b604051638acb5f2760e01b8152600490fd5b10159050838061109d565b34610261575f36600319011261026157602060ff5f8051602061349083398151915254166040519015158152f35b34610261575f366003190112610261576001546040516001600160a01b039091168152602090f35b34610261575f366003190112610261577f00000000000000000000000000000000000000000000000000000000000000006001600160a01b0316300361165d5760206040515f805160206134708339815191528152f35b60405163703e46dd60e11b8152600490fd5b604036600319011261026157611683612543565b6024356001600160401b038111610261576116a29036906004016126cd565b906001600160a01b037f00000000000000000000000000000000000000000000000000000000000000008116308114908115611820575b5061165d576116e66127d9565b8116906040516352d1902d60e01b8152602081600481865afa5f91816117ed575b5061172557604051634c9c8ce360e01b815260048101849052602490fd5b5f80516020613470833981519152929192908181036117d55750823b156117bc5780546001600160a01b03191682179055604051907fbc7cd75a20ee27fd9adebab32041f755214dbc6bffa90cc0225b39da2e5c2d3b5f80a28251156117a357505f8083602061001895519101845af461179d612882565b916128b1565b915050346117ad57005b63b398979f60e01b8152600490fd5b604051634c9c8ce360e01b815260048101839052602490fd5b60249060405190632a87526960e21b82526004820152fd5b9091506020813d8211611818575b816118086020938361265b565b8101031261026157519085611707565b3d91506117fb565b9050815f8051602061347083398151915254161415846116d9565b34610261576020366003190112610261576004356118576129de565b5f81815260026020526040902060018101546001600160a01b0316330361194057600a81019081549060ff821660078110156105f457611940575f80806118c381948760068a9860ff191617905560076118ba600583015460068401549061297d565b91015490612a0d565b335af16118ce612882565b501561190b577fdfac8d2148e1d746254852ccd4517e13029562a75ae40ffcefed8f9a4d06e12a5f80a260015f805160206134b083398151915255005b60405162461bcd60e51b815260206004820152600d60248201526c1499599d5b990819985a5b1959609a1b6044820152606490fd5b6040516371a2de7360e11b8152600490fd5b34610261576020366003190112610261575f61014060405161197381612624565b828152826020820152606060408201528260608201528260808201528260a08201528260c08201528260e0820152826101008201528261012082015201526004355f52600260205260405f20611a5060ff600a604051936119d385612624565b8054855260018101546001600160a01b031660208601526119f660028201612738565b60408601526003810154606086015260048101546080860152600581015460a0860152600681015460c0860152600781015460e0860152600881015461010086015260098101546101208601520154166101408301612990565b6040518091602082528051602083015260018060a01b0360208201511660408301526103826040820151610140611a95610160928360608801526101808701906125d7565b9360608101516080870152608081015160a087015260a081015160c087015260c081015160e087015260e0810151610100870152610100810151610120870152610120810151828701520151908401906125fc565b34610261575f366003190112610261576020600954604051908152f35b3461026157602080600319360112610261576004356001600160401b03811161026157611b38903690600401612586565b90611b4282612c6b565b90611b50604051928361265b565b828252611b5c83612c6b565b8285019390601f19013685375f5b818110611bc3575050509060405192839281840190828552518091526040840192915f5b828110611b9d57505050500390f35b9193839550908082611bb36001948397516125fc565b0195019101918594939192611b8e565b80611bd2611bfb928486612a1a565b355f5260028752611bf660ff600a60405f20015416611bf18388612c82565b612990565b612962565b611b6a565b34610261575f36600319011261026157611c186127d9565b5f80516020613490833981519152805460ff811615611c635760ff191690557f5db9ee0a495bf2e6ff9c91a7834c1ba4fdd244a5e8aa4e537bd38aeae4b073aa6020604051338152a1005b604051638dfc202b60e01b8152600490fd5b34610261575f366003190112610261576020600754604051908152f35b3461026157602036600319011261026157611cab6127d9565b600435600d55005b3461026157602080600319360112610261575f60c0604051611cd481612609565b8281528284820152606060408201528260608201528260808201528260a082015201526004355f526003815260405f2060405190611d1182612609565b8054825260018101546001600160a01b03908116848401908152611d3760028401612738565b9260408501938452611da56003820154946060870195865260056004840154936080890194855201549460a088019460ff87161515865260ff60c08a019760081c1615158752604051998a99818b5251908a0152511660408801525160e060608801526101008701906125d7565b935160808601525160a085015251151560c084015251151560e08301520390f35b34610261576020366003190112610261577fcd58b762453bd126b48db83f2cecd464f5281dd7e5e6824b528c09d0482984d66040611e02612543565b611e0a6127d9565b600180546001600160a01b039283166001600160a01b0319821681179092558351921682526020820152a1005b3461026157602080600319360112610261576004356001600160401b03811161026157611e68903690600401612586565b90611e7282612c6b565b90611e80604051928361265b565b828252611e8c83612c6b565b8285019390601f19013685375f5b818110611ee4575050509060405192839281840190828552518091526040840192915f5b828110611ecd57505050500390f35b835185528695509381019392810192600101611ebe565b611eef818385612a1a565b356001600160a01b038116919082900361026157611f22915f526005875260405f2054611f1c8287612c82565b52612962565b611e9a565b34610261575f366003190112610261575f546040516001600160a01b039091168152602090f35b346102615760a036600319011261026157611f6761252d565b6044356001600160401b03811161026157611f86903690600401612559565b91906084356001600160401b03811161026157611fa7903690600401612559565b6001549192916001600160a01b03163303611033576004355f52600260205260405f209260018060a01b036001850154161561194057600a84019182549460ff861660078110156105f4576001036122735760070154606435116122615761201791606435888689600435612d1f565b1561224f5760036120519360ff19161790556040519361203685612609565b60043585526001600160a01b03841660208601523691612697565b604083015260643560608301524360808301525f60a08301525f60c08301526004355f52600360205260405f2091805183556001830160018060a01b0360208301511660018060a01b031982541617905560408101519283516001600160401b03811161101f576120c56002830154612700565b601f811161220b575b506020601f821160011461219757918160059260c09461214997985f9261218c575b50508160011b915f199060031b1c19161760028201555b606084015160038201556080840151600482015560a084015191018054929093015161ffff1990921660ff911515919091161790151560081b61ff0016179055565b604080516001600160a01b0390921682526064356020830152600435917fd4225e9015d160551c66e6768cbad58b0918fa7650a57e31b1cd1d234e5ca30c9190a2005b0151905088806120f0565b600283015f5260205f20955f5b601f19841681106121f3575082612149969760c09593600193600596601f198116106121db575b505050811b016002820155612107565b01515f1960f88460031b161c191690558880806121cb565b828201518855600190970196602092830192016121a4565b600283015f5260205f20601f830160051c810160208410612248575b601f830160051c8201811061223d5750506120ce565b5f8155600101612227565b5080612227565b60405163fdf70a8160e01b8152600490fd5b604051630da8d38960e31b8152600490fd5b60405163575c41e560e01b8152600490fd5b34610261575f366003190112610261576020610c69612ce9565b34610261576020366003190112610261576122b86129de565b6004355f52600260205260405f20600360205260405f2060018060a01b036001830154161561194057600581015460ff811661251b5760ff600a8401541660078110156105f4576003036125095760ff191660011760058201555a9060018060a01b0360018201541692600382015493600582015494604051915f600286015461234181612700565b90600181169081156124f457506001146124c0575b5096835f938493612427967f91809a03243f536a1083644e4f5422a0c5bd31c7e38a781f92c17e04ba01c3f99a9b0393f1926124066123fb6123a1612399612882565b985a90612955565b60058601548082116124b8575b5060058401805461ff00191688151560081b61ff001617905586156124ae576123dc60045b600a880161299c565b861561249b576123ed600954612962565b6009555b6005860154612955565b60068501549061297d565b90841561248f57612421906003600786015491015490612955565b90612a0d565b9081612467575b5050604051901515815260406020820152806124516004359460408301906125d7565b0390a260015f805160206134b083398151915255005b600101545f918291829182916001600160a01b03165af150612487612882565b50838061242e565b50600783015490612a0d565b6124a6600a54612962565b600a556123f1565b6123dc60056123d3565b9050896123ae565b9050600286015f5260205f205f905b8282106124e0575050830183612356565b6001816020925484890152019101906124cf565b60ff1916865250801515028401905083612356565b604051633cae415d60e11b8152600490fd5b604051632ea945cf60e01b8152600490fd5b602435906001600160a01b038216820361026157565b600435906001600160a01b038216820361026157565b9181601f84011215610261578235916001600160401b038311610261576020838186019501011161026157565b9181601f84011215610261578235916001600160401b038311610261576020808501948460051b01011161026157565b5f5b8381106125c75750505f910152565b81810151838201526020016125b8565b906020916125f0815180928185528580860191016125b6565b601f01601f1916010190565b9060078210156105f45752565b60e081019081106001600160401b0382111761101f57604052565b61016081019081106001600160401b0382111761101f57604052565b604081019081106001600160401b0382111761101f57604052565b90601f801991011681019081106001600160401b0382111761101f57604052565b6001600160401b03811161101f57601f01601f191660200190565b9291926126a38261267c565b916126b1604051938461265b565b829481845281830111610261578281602093845f960137010152565b9080601f83011215610261578160206126e893359101612697565b90565b80548210156113bb575f5260205f2001905f90565b90600182811c9216801561272e575b602083101461271a57565b634e487b7160e01b5f52602260045260245ffd5b91607f169161270f565b9060405191825f82549261274b84612700565b9081845260019485811690815f146127b65750600114612776575b50506127749250038361265b565b565b909391505f52602090815f20935f915b81831061279e57505061277493508201015f80612766565b85548884018501529485019487945091830191612786565b91505061277494506020925060ff191682840152151560051b8201015f80612766565b5f80516020613450833981519152546001600160a01b031633036127f957565b60405163118cdaa760e01b8152336004820152602490fd5b6001600160a01b0390811690811561286a575f8051602061345083398151915280546001600160a01b031981168417909155167f8be0079c531659141344cd1fd0a4f28419497f9722a3daafe3b4186f6b6457e05f80a3565b604051631e4fbdf760e01b81525f6004820152602490fd5b3d156128ac573d906128938261267c565b916128a1604051938461265b565b82523d5f602084013e565b606090565b906128d857508051156128c657805190602001fd5b604051630a12f52160e11b8152600490fd5b8151158061290b575b6128e9575090565b604051639996b31560e01b81526001600160a01b039091166004820152602490fd5b50803b156128e1565b60ff7ff0c57e16840df040f15088dc2f81fe391c3923bec73e23a9662efc9c229c6a005460401c161561294357565b604051631afcd79f60e31b8152600490fd5b919082039182116105d557565b5f1981146105d55760010190565b5190811515820361026157565b818102929181159184041417156105d557565b60078210156105f45752565b9060078110156105f45760ff80198354169116179055565b60ff5f8051602061349083398151915254166129cc57565b60405163d93c066560e01b8152600490fd5b5f805160206134b083398151915260028154146129fb5760029055565b604051633ee5aeb560e01b8152600490fd5b919082018092116105d557565b91908110156113bb5760051b0190565b5f8181526002602090815260408083206001810154909592949391906001600160a01b031615612c415760ff600a870154169160078310159586612ada5783612b135760088351612a7a81612640565b600781526650656e64696e6760c81b83820152985b015460328101809111612aff57438111612aee575081965b612ada57600384149586612ac0575b5050505093929190565b825260039052206005015460ff161592505f808080612ab6565b634e487b7160e01b82526021600452602482fd5b612af9904390612955565b96612aa7565b634e487b7160e01b83526011600452602483fd5b95508095600184145f14612b475760088351612b2e81612640565b600781526613dc99195c995960ca1b8382015298612a8f565b95508095600284145f14612b7e5760088351612b6281612640565b600a81526944656372797074696e6760b01b8382015298612a8f565b95508095600384145f14612bb45760088351612b9981612640565b6009815268111958dc9e5c1d195960ba1b8382015298612a8f565b95508095600484145f14612be85760088351612bcf81612640565b81815267115e1958dd5d195960c21b8382015298612a8f565b95508095600584145f14612c1b5760088351612c0381612640565b600681526511985a5b195960d21b8382015298612a8f565b60088351612c2881612640565b6007815266115e1c1a5c995960ca1b8382015298612a8f565b945091509167139bdd119bdd5b9960c21b82945191612c5f83612640565b60088352820152918190565b6001600160401b03811161101f5760051b60200190565b80518210156113bb5760209160051b010190565b90600d548015612cdf575f9260018060a01b03168352600e6020526040832043845260205260408320549080821015612cd957612cd4929350612955565b600191565b50508190565b50600191505f1990565b600954612cf8600a5482612a0d565b908115612d1757612710908181029181830414901517156105d5570490565b505061271090565b959492909391946101408110612f2057830193608084860312610261576001600160401b039184358381116102615786612d5a9187016126cd565b96602080870135956040958689013598606081013591821161026157019880601f8b011215610261578935612d8e81612c6b565b9a612d9b89519c8d61265b565b818c5284808d019260051b820101928311610261578401905b828210612f0157505050895115612ef2575f9a8b5260028252858b2060018101549094906001600160a01b0390811615612ee35789600487015403612ee3578c5416838a60248a51809481936379a543dd60e11b835260048301525afa908115612ed9578d91612ea0575b5015612e9257806074946003612e6e97015498805198899687019a8b526bffffffffffffffffffffffff199060601b16908601526054850137820190605482015203605481018452018261265b565b5190208103612e8b57612e8093612f3c565b156126e85750600190565b5050505090565b505050505050505050505090565b90508381813d8311612ed2575b612eb7818361265b565b81010312612ece57612ec890612970565b5f612e1f565b8c80fd5b503d612ead565b88513d8f823e3d90fd5b50505050505050505050505090565b50505050505050505050505f90565b81356001600160a01b0381168103610261578152908401908401612db4565b505050505050505f90565b9081518110156113bb570160200190565b5f805460408051637bcf6e2360e01b81526004808201979097529496602496939590946001600160a01b03949385169187818a81865afa90811561331857889161320e575b508651906060928382015183106131e35780519283158015613202575b6131f2576041809404036131e3577f19457468657265756d205369676e6564204d6573736167653a0a3332000000008a528b601c52603c8a20918a5b8a518110156131be578751608081018181106001600160401b038211176131ad57908b838f938f908d528984526020948b36878701375b8a811061314d5750829161303a9161302c613035968c613322565b909791976133e0565b612c82565b511691169081036130d057818f8c908c5193849263729c364760e11b8452830152818c5afa918215613141578e9261310b575b5050156130fa5760018082018083116130e857815b613097575b505061309290612962565b612fda565b8c518110156130e3578c8c6130b983826130b18886612c82565b511693612c82565b5116146130d0576130ca8291612962565b90613082565b5050505050505050505050505091505090565b613087565b634e487b7160e01b8e5260118b528e8efd5b505050505050505050505091505090565b90809250813d831161313a575b613122818361265b565b81010312612ece5761313390612970565b5f8061306d565b503d613118565b8e8b51903d90823e3d90fd5b925050880284810489148515171561319a57908f6131919261317d6131778460ff60f81b93612a0d565b8a612f2b565b5116901a61318b8285612f2b565b53612962565b838e8e92613011565b50634e487b7160e01b8f5260118c528f8ffd5b634e487b7160e01b8e52868b528e8efd5b50999b9850505050505094505050156131de570151156126e85750600190565b505090565b50505050505050505091505090565b5050505050505050505091505090565b50604184061515612f9e565b90503d8089833e61321f818361265b565b810160209081838203126133145782516001600160401b03938482116132fe5701916101009384848403126132fe5787519485018581108282111761330257885283518552818401519081116132fe57830182601f820112156132fe578051906132888261267c565b936132958a51958661265b565b828552838383010111612ece57916132ba84926132f39694838060e0980191016125b6565b8501528681015187850152606081015160608501526080810151608085015260a081015160a085015260c081015160c085015201612970565b60e08201525f612f81565b8b80fd5b634e487b7160e01b8d5260418a528d8dfd5b8980fd5b84513d8a823e3d90fd5b81519190604183036133525761334b9250602082015190606060408401519301515f1a9061335c565b9192909190565b50505f9160029190565b91906fa2a8918ca85bafe22016d0b997e4df60600160ff1b0384116133d557926020929160ff6080956040519485521684840152604083015260608201525f92839182805260015afa156133c95780516001600160a01b038116156133c057918190565b50809160019190565b604051903d90823e3d90fd5b5050505f9160039190565b60048110156105f457806133f2575050565b6001810361340c5760405163f645eedf60e01b8152600490fd5b6002810361342d5760405163fce698f760e01b815260048101839052602490fd5b6003146134375750565b602490604051906335e2f38360e21b82526004820152fdfe9016d09d72d40fdae2fd8ceac6b6234c7706214fd39c1cd1e609a0528c199300360894a13ba1a3210667c828492db98dca3e2076cc3735a920a3ca505d382bbccd5ed15c6e187e77e9aee88184c21f4f2182ab5827cb3b7e07fbedcd63f033009b779b17422d0df92223018b32b4d1fa46e071723d6817e2486d003becc55f00a2646970667358221220fbe3c5823ddf254b71ea7a2029deb809a9dfe76a97194bf36bfbbdcae3f0309e64736f6c63430008140033","linkReferences":{}},"methodIdentifiers":{"DECRYPTION_TIMEOUT()":"6e30bc9e","MAX_GAS_LIMIT()":"e3f5aa51","MAX_PAYLOAD_SIZE()":"a2ba1934","MIN_GAS_LIMIT()":"7ce1ffeb","UPGRADE_INTERFACE_VERSION()":"ad3cb1cc","canUserSubmit(address)":"92ea2c20","cancelEncryptedTx(bytes32)":"49d479c9","commitOrdering(bytes32,bytes32[],bytes32,bytes)":"68147590","decryptedTxs(bytes32)":"9eab4c7b","encryptedTxs(bytes32)":"c81fc75f","executeDecryptedTx(bytes32)":"04f22a97","getBatchTxStatuses(bytes32[])":"43a92dc6","getBatchUserPendingCounts(address[])":"1a6656cc","getDecryptedTx(bytes32)":"25b585c8","getEncryptedTx(bytes32)":"464e5937","getMempoolStatus()":"dc9dc9d6","getPendingQueueLength()":"80c85dfa","getStats()":"c59d4847","getSuccessRate()":"05785ad4","getTxStatus(bytes32)":"e6b3b0b1","getUserPendingTxs(address)":"ba3871c2","initialize(address,address,address)":"c0c53b8b","keyRegistry()":"086b5198","markExpired(bytes32[])":"d3d00120","maxQueueSize()":"f7d9cc1e","maxSubmissionsPerUserPerBlock()":"c8effe80","nextQueuePosition()":"31cd3a6d","orderingCommitments(bytes32)":"e6fb8a71","owner()":"8da5cb5b","pause()":"8456cb59","paused()":"5c975abb","pendingQueue(uint256)":"fc9df5d5","proxiableUUID()":"52d1902d","renounceOwnership()":"715018a6","sequencer()":"5c1bba38","setKeyRegistry(address)":"777aef9d","setMaxQueueSize(uint256)":"9e08ac25","setMaxSubmissionsPerUserPerBlock(uint256)":"26ca1a6d","setSequencer(address)":"2547fa3e","submitDecryption(bytes32,address,bytes,uint256,bytes)":"064e2cd3","submitEncryptedTx(bytes,uint256,uint256,uint256)":"5de19f75","totalExecuted()":"4562bfb1","totalExpired()":"ce5e9365","totalFailed()":"fcebcd28","totalSubmitted()":"fedbdf30","transferOwnership(address)":"f2fde38b","unpause()":"3f4ba83a","upgradeToAndCall(address,bytes)":"4f1ef286","userBlockSubmissions(address,uint256)":"97e174aa","userPendingTxs(address,uint256)":"97f5365a"},"id":393}