{"abi":[{"type":"constructor","inputs":[],"stateMutability":"nonpayable"},{"type":"function","name":"childInitialize","inputs":[],"outputs":[],"stateMutability":"nonpayable"},{"type":"function","name":"childInitializerRan","inputs":[],"outputs":[{"name":"","type":"bool","internalType":"bool"}],"stateMutability":"view"},{"type":"function","name":"initialize","inputs":[],"outputs":[],"stateMutability":"nonpayable"},{"type":"function","name":"initializeOnlyInitializing","inputs":[],"outputs":[],"stateMutability":"nonpayable"},{"type":"function","name":"initializerRan","inputs":[],"outputs":[{"name":"","type":"bool","internalType":"bool"}],"stateMutability":"view"},{"type":"function","name":"onlyInitializingRan","inputs":[],"outputs":[{"name":"","type":"bool","internalType":"bool"}],"stateMutability":"view"},{"type":"event","name":"Initialized","inputs":[{"name":"version","type":"uint64","indexed":false,"internalType":"uint64"}],"anonymous":false},{"type":"error","name":"InvalidInitialization","inputs":[]},{"type":"error","name":"NotInitializing","inputs":[]}],"bytecode":{"object":"0x608060409080825234610329577ff0c57e16840df040f15088dc2f81fe391c3923bec73e23a9662efc9c229c6a0080546001600160401b038082169382861c60ff161590851580610322575b60018097149081610318575b15908161030f575b5061030057506001600160401b03198381168617855592816102e3575b5083549060ff82881c16159183811687811591826102db575b1490816102d1575b1590816102c8575b506101e15782878683161787556102ab575b505f5491610280575b84549060ff82891c161561026f57610245575b5083549260ff84881c161593838116878115918261023d575b149081610233575b15908161022a575b506101e157848783831617875561020d575b5084549060ff82891c16159382168781159182610205575b1490816101fb575b1590816101f2575b506101e157811686178555620101019190836101c4575b5062ffffff1916175f55610199575b61016f575b8251610336908161032e8239f35b805460ff60401b1916905581519081525f8051602061066483398151915290602090a15f80610161565b68ff00000000000000001982541682555f8051602061066483398151915260208551858152a161015c565b6001600160481b031916680100000000000000011785555f61014d565b875163f92ee8a960e01b8152600490fd5b9050155f610136565b303b15915061012e565b869250610126565b6001600160481b031916680100000000000000011785555f61010e565b9050155f6100fc565b303b1591506100f4565b8792506100ec565b68ff0000000000000000191684555f8051602061066483398151915260208751878152a15f6100d3565b8751631afcd79f60e31b8152600490fd5b68ff00000000000000001985541685555f8051602061066483398151915260208851888152a16100c0565b6001600160481b031916680100000000000000011785555f6100b7565b9050155f6100a5565b303b15915061009d565b859250610095565b6001600160481b031916680100000000000000011784555f61007c565b63f92ee8a960e01b8152600490fd5b9050155f61005f565b303b159150610057565b508161004b565b5f80fdfe608060408181526004361015610013575f80fd5b5f91823560e01c90816310065ed214610290575080637cffe97a1461026c5780638129fc1c146101b3578063b23d810b1461018f578063c3b8ef2a1461016e5763de74c70314610061575f80fd5b3461016a578160031936011261016a575f805160206102e1833981519152805460ff81841c16159067ffffffffffffffff811680159081610162575b6001149081610158575b15908161014f575b5061013e5767ffffffffffffffff19811660011783558161011f575b50835462ff00001916620100001784556100e3578280f35b805460ff60401b1916905551600181527fc7f505b2f371ae2175ee4913f4499e1f2633a7b5936321eed1cdaeb6115181d290602090a15f808280f35b68ffffffffffffffffff1916680100000000000000011782555f6100cb565b835163f92ee8a960e01b8152600490fd5b9050155f6100af565b303b1591506100a7565b83915061009d565b5080fd5b503461016a578160031936011261016a5760ff602092541690519015158152f35b503461016a578160031936011261016a5760ff6020925460101c1690519015158152f35b503461016a578160031936011261016a575f805160206102e1833981519152805460ff81841c16159067ffffffffffffffff811680159081610264575b600114908161025a575b159081610251575b5061013e5767ffffffffffffffff198116600117835581610232575b50835460ff191660011784556100e3578280f35b68ffffffffffffffffff1916680100000000000000011782555f61021e565b9050155f610202565b303b1591506101fa565b8391506101f0565b503461016a578160031936011261016a5760ff6020925460081c1690519015158152f35b919050346102dc57826003193601126102dc575f805160206102e183398151915254901c60ff16156102cd5750805461ff00191661010017815580f35b631afcd79f60e31b8152600490fd5b8280fdfef0c57e16840df040f15088dc2f81fe391c3923bec73e23a9662efc9c229c6a00a2646970667358221220014156251638544700fcfa377e27c8bdf9fdceef60c06e93444114a33bdfae5164736f6c63430008140033c7f505b2f371ae2175ee4913f4499e1f2633a7b5936321eed1cdaeb6115181d2","linkReferences":{}},"methodIdentifiers":{"childInitialize()":"de74c703","childInitializerRan()":"b23d810b","initialize()":"8129fc1c","initializeOnlyInitializing()":"10065ed2","initializerRan()":"c3b8ef2a","onlyInitializingRan()":"7cffe97a"},"id":262}