{"abi":[{"type":"function","name":"current","inputs":[],"outputs":[{"name":"","type":"uint256","internalType":"uint256"}],"stateMutability":"view"},{"type":"function","name":"increment","inputs":[],"outputs":[],"stateMutability":"nonpayable"},{"type":"event","name":"Initialized","inputs":[{"name":"version","type":"uint64","indexed":false,"internalType":"uint64"}],"anonymous":false},{"type":"error","name":"InvalidInitialization","inputs":[]},{"type":"error","name":"NotInitializing","inputs":[]}],"bytecode":{"object":"0x608080604052346100155760b9908161001a8239f35b5f80fdfe60808060405260043610156011575f80fd5b5f90813560e01c9081639fa6a6e3146067575063d09de08a146031575f80fd5b346064578060031936011260645780545f198114605057600101815580f35b634e487b7160e01b82526011600452602482fd5b80fd5b905034607f5781600319360112607f57602091548152f35b5080fdfea2646970667358221220376be6d63ce2b3a8c427d3f166d39b2753ebd788df079cf66450086dac736a6564736f6c63430008140033","linkReferences":{}},"methodIdentifiers":{"current()":"9fa6a6e3","increment()":"d09de08a"},"id":124}