{"abi":[{"type":"constructor","inputs":[],"stateMutability":"nonpayable"},{"type":"function","name":"DECIMALS","inputs":[],"outputs":[{"name":"","type":"uint8","internalType":"uint8"}],"stateMutability":"view"},{"type":"function","name":"PRECISION","inputs":[],"outputs":[{"name":"","type":"uint256","internalType":"uint256"}],"stateMutability":"view"},{"type":"function","name":"UPGRADE_INTERFACE_VERSION","inputs":[],"outputs":[{"name":"","type":"string","internalType":"string"}],"stateMutability":"view"},{"type":"function","name":"allowance","inputs":[{"name":"owner_","type":"address","internalType":"address"},{"name":"spender","type":"address","internalType":"address"}],"outputs":[{"name":"","type":"uint256","internalType":"uint256"}],"stateMutability":"view"},{"type":"function","name":"approve","inputs":[{"name":"spender","type":"address","internalType":"address"},{"name":"amount","type":"uint256","internalType":"uint256"}],"outputs":[{"name":"","type":"bool","internalType":"bool"}],"stateMutability":"nonpayable"},{"type":"function","name":"balanceOf","inputs":[{"name":"account","type":"address","internalType":"address"}],"outputs":[{"name":"","type":"uint256","internalType":"uint256"}],"stateMutability":"view"},{"type":"function","name":"batchBalanceOf","inputs":[{"name":"accounts","type":"address[]","internalType":"address[]"}],"outputs":[{"name":"balances","type":"uint256[]","internalType":"uint256[]"}],"stateMutability":"view"},{"type":"function","name":"batchGetAmountByShares","inputs":[{"name":"sharesArray","type":"uint256[]","internalType":"uint256[]"}],"outputs":[{"name":"amounts","type":"uint256[]","internalType":"uint256[]"}],"stateMutability":"view"},{"type":"function","name":"batchGetSharesByAmount","inputs":[{"name":"amounts","type":"uint256[]","internalType":"uint256[]"}],"outputs":[{"name":"shares","type":"uint256[]","internalType":"uint256[]"}],"stateMutability":"view"},{"type":"function","name":"batchSharesOf","inputs":[{"name":"accounts","type":"address[]","internalType":"address[]"}],"outputs":[{"name":"shares","type":"uint256[]","internalType":"uint256[]"}],"stateMutability":"view"},{"type":"function","name":"batchTransfer","inputs":[{"name":"recipients","type":"address[]","internalType":"address[]"},{"name":"amounts","type":"uint256[]","internalType":"uint256[]"}],"outputs":[{"name":"success","type":"bool","internalType":"bool"}],"stateMutability":"nonpayable"},{"type":"function","name":"batchTransferShares","inputs":[{"name":"recipients","type":"address[]","internalType":"address[]"},{"name":"sharesAmounts","type":"uint256[]","internalType":"uint256[]"}],"outputs":[{"name":"success","type":"bool","internalType":"bool"}],"stateMutability":"nonpayable"},{"type":"function","name":"burnShares","inputs":[{"name":"from","type":"address","internalType":"address"},{"name":"shares","type":"uint256","internalType":"uint256"}],"outputs":[],"stateMutability":"nonpayable"},{"type":"function","name":"decimals","inputs":[],"outputs":[{"name":"","type":"uint8","internalType":"uint8"}],"stateMutability":"pure"},{"type":"function","name":"decreaseAllowance","inputs":[{"name":"spender","type":"address","internalType":"address"},{"name":"subtractedValue","type":"uint256","internalType":"uint256"}],"outputs":[{"name":"","type":"bool","internalType":"bool"}],"stateMutability":"nonpayable"},{"type":"function","name":"enforceNavStaleness","inputs":[],"outputs":[{"name":"","type":"bool","internalType":"bool"}],"stateMutability":"view"},{"type":"function","name":"getAccountDetails","inputs":[{"name":"account","type":"address","internalType":"address"}],"outputs":[{"name":"balance","type":"uint256","internalType":"uint256"},{"name":"shares","type":"uint256","internalType":"uint256"},{"name":"percentOfSupply","type":"uint256","internalType":"uint256"}],"stateMutability":"view"},{"type":"function","name":"getAccruedYield","inputs":[{"name":"account","type":"address","internalType":"address"},{"name":"baselineNAV","type":"uint256","internalType":"uint256"}],"outputs":[{"name":"yieldAccrued","type":"uint256","internalType":"uint256"},{"name":"yieldPercent","type":"uint256","internalType":"uint256"}],"stateMutability":"view"},{"type":"function","name":"getAmountByShares","inputs":[{"name":"shares","type":"uint256","internalType":"uint256"}],"outputs":[{"name":"","type":"uint256","internalType":"uint256"}],"stateMutability":"view"},{"type":"function","name":"getNavPerShare","inputs":[],"outputs":[{"name":"","type":"uint256","internalType":"uint256"}],"stateMutability":"view"},{"type":"function","name":"getSharesByAmount","inputs":[{"name":"amount","type":"uint256","internalType":"uint256"}],"outputs":[{"name":"","type":"uint256","internalType":"uint256"}],"stateMutability":"view"},{"type":"function","name":"getTokenStatus","inputs":[],"outputs":[{"name":"totalSupply_","type":"uint256","internalType":"uint256"},{"name":"totalShares_","type":"uint256","internalType":"uint256"},{"name":"navPerShare_","type":"uint256","internalType":"uint256"},{"name":"isPaused_","type":"bool","internalType":"bool"},{"name":"treasuryVault_","type":"address","internalType":"address"},{"name":"navOracle_","type":"address","internalType":"address"}],"stateMutability":"view"},{"type":"function","name":"increaseAllowance","inputs":[{"name":"spender","type":"address","internalType":"address"},{"name":"addedValue","type":"uint256","internalType":"uint256"}],"outputs":[{"name":"","type":"bool","internalType":"bool"}],"stateMutability":"nonpayable"},{"type":"function","name":"initialize","inputs":[{"name":"owner_","type":"address","internalType":"address"},{"name":"navOracle_","type":"address","internalType":"address"}],"outputs":[],"stateMutability":"nonpayable"},{"type":"function","name":"isNavStale","inputs":[],"outputs":[{"name":"isStale","type":"bool","internalType":"bool"},{"name":"timestamp","type":"uint256","internalType":"uint256"}],"stateMutability":"view"},{"type":"function","name":"largeTransferThreshold","inputs":[],"outputs":[{"name":"","type":"uint256","internalType":"uint256"}],"stateMutability":"view"},{"type":"function","name":"mintShares","inputs":[{"name":"to","type":"address","internalType":"address"},{"name":"shares","type":"uint256","internalType":"uint256"}],"outputs":[],"stateMutability":"nonpayable"},{"type":"function","name":"name","inputs":[],"outputs":[{"name":"","type":"string","internalType":"string"}],"stateMutability":"view"},{"type":"function","name":"navOracle","inputs":[],"outputs":[{"name":"","type":"address","internalType":"address"}],"stateMutability":"view"},{"type":"function","name":"owner","inputs":[],"outputs":[{"name":"","type":"address","internalType":"address"}],"stateMutability":"view"},{"type":"function","name":"pause","inputs":[],"outputs":[],"stateMutability":"nonpayable"},{"type":"function","name":"paused","inputs":[],"outputs":[{"name":"","type":"bool","internalType":"bool"}],"stateMutability":"view"},{"type":"function","name":"proxiableUUID","inputs":[],"outputs":[{"name":"","type":"bytes32","internalType":"bytes32"}],"stateMutability":"view"},{"type":"function","name":"renounceOwnership","inputs":[],"outputs":[],"stateMutability":"nonpayable"},{"type":"function","name":"revertOnStaleNav","inputs":[],"outputs":[{"name":"","type":"bool","internalType":"bool"}],"stateMutability":"view"},{"type":"function","name":"setLargeTransferThreshold","inputs":[{"name":"threshold_","type":"uint256","internalType":"uint256"}],"outputs":[],"stateMutability":"nonpayable"},{"type":"function","name":"setNavOracle","inputs":[{"name":"navOracle_","type":"address","internalType":"address"}],"outputs":[],"stateMutability":"nonpayable"},{"type":"function","name":"setStalenessSettings","inputs":[{"name":"enforce_","type":"bool","internalType":"bool"},{"name":"revertOnStale_","type":"bool","internalType":"bool"}],"outputs":[],"stateMutability":"nonpayable"},{"type":"function","name":"setTreasuryVault","inputs":[{"name":"treasuryVault_","type":"address","internalType":"address"}],"outputs":[],"stateMutability":"nonpayable"},{"type":"function","name":"sharesOf","inputs":[{"name":"account","type":"address","internalType":"address"}],"outputs":[{"name":"","type":"uint256","internalType":"uint256"}],"stateMutability":"view"},{"type":"function","name":"simulateBalanceAtNAV","inputs":[{"name":"account","type":"address","internalType":"address"},{"name":"newNavPerShare","type":"uint256","internalType":"uint256"}],"outputs":[{"name":"expectedBalance","type":"uint256","internalType":"uint256"}],"stateMutability":"view"},{"type":"function","name":"symbol","inputs":[],"outputs":[{"name":"","type":"string","internalType":"string"}],"stateMutability":"view"},{"type":"function","name":"totalShares","inputs":[],"outputs":[{"name":"","type":"uint256","internalType":"uint256"}],"stateMutability":"view"},{"type":"function","name":"totalSupply","inputs":[],"outputs":[{"name":"","type":"uint256","internalType":"uint256"}],"stateMutability":"view"},{"type":"function","name":"transfer","inputs":[{"name":"to","type":"address","internalType":"address"},{"name":"amount","type":"uint256","internalType":"uint256"}],"outputs":[{"name":"","type":"bool","internalType":"bool"}],"stateMutability":"nonpayable"},{"type":"function","name":"transferFrom","inputs":[{"name":"from","type":"address","internalType":"address"},{"name":"to","type":"address","internalType":"address"},{"name":"amount","type":"uint256","internalType":"uint256"}],"outputs":[{"name":"","type":"bool","internalType":"bool"}],"stateMutability":"nonpayable"},{"type":"function","name":"transferOwnership","inputs":[{"name":"newOwner","type":"address","internalType":"address"}],"outputs":[],"stateMutability":"nonpayable"},{"type":"function","name":"transferShares","inputs":[{"name":"to","type":"address","internalType":"address"},{"name":"shares","type":"uint256","internalType":"uint256"}],"outputs":[{"name":"","type":"bool","internalType":"bool"}],"stateMutability":"nonpayable"},{"type":"function","name":"transferSharesFrom","inputs":[{"name":"from","type":"address","internalType":"address"},{"name":"to","type":"address","internalType":"address"},{"name":"shares","type":"uint256","internalType":"uint256"}],"outputs":[{"name":"","type":"bool","internalType":"bool"}],"stateMutability":"nonpayable"},{"type":"function","name":"treasuryVault","inputs":[],"outputs":[{"name":"","type":"address","internalType":"address"}],"stateMutability":"view"},{"type":"function","name":"unpause","inputs":[],"outputs":[],"stateMutability":"nonpayable"},{"type":"function","name":"upgradeToAndCall","inputs":[{"name":"newImplementation","type":"address","internalType":"address"},{"name":"data","type":"bytes","internalType":"bytes"}],"outputs":[],"stateMutability":"payable"},{"type":"event","name":"Approval","inputs":[{"name":"owner","type":"address","indexed":true,"internalType":"address"},{"name":"spender","type":"address","indexed":true,"internalType":"address"},{"name":"value","type":"uint256","indexed":false,"internalType":"uint256"}],"anonymous":false},{"type":"event","name":"Initialized","inputs":[{"name":"version","type":"uint64","indexed":false,"internalType":"uint64"}],"anonymous":false},{"type":"event","name":"LargeTransfer","inputs":[{"name":"from","type":"address","indexed":true,"internalType":"address"},{"name":"to","type":"address","indexed":true,"internalType":"address"},{"name":"amount","type":"uint256","indexed":false,"internalType":"uint256"},{"name":"shares","type":"uint256","indexed":false,"internalType":"uint256"},{"name":"navPerShare","type":"uint256","indexed":false,"internalType":"uint256"}],"anonymous":false},{"type":"event","name":"LargeTransferThresholdUpdated","inputs":[{"name":"newThreshold","type":"uint256","indexed":false,"internalType":"uint256"}],"anonymous":false},{"type":"event","name":"NavOracleUpdated","inputs":[{"name":"oldOracle","type":"address","indexed":true,"internalType":"address"},{"name":"newOracle","type":"address","indexed":true,"internalType":"address"}],"anonymous":false},{"type":"event","name":"OwnershipTransferred","inputs":[{"name":"previousOwner","type":"address","indexed":true,"internalType":"address"},{"name":"newOwner","type":"address","indexed":true,"internalType":"address"}],"anonymous":false},{"type":"event","name":"Paused","inputs":[{"name":"account","type":"address","indexed":false,"internalType":"address"}],"anonymous":false},{"type":"event","name":"SharesBurned","inputs":[{"name":"from","type":"address","indexed":true,"internalType":"address"},{"name":"shares","type":"uint256","indexed":false,"internalType":"uint256"},{"name":"amount","type":"uint256","indexed":false,"internalType":"uint256"}],"anonymous":false},{"type":"event","name":"SharesMinted","inputs":[{"name":"to","type":"address","indexed":true,"internalType":"address"},{"name":"shares","type":"uint256","indexed":false,"internalType":"uint256"},{"name":"amount","type":"uint256","indexed":false,"internalType":"uint256"}],"anonymous":false},{"type":"event","name":"SharesTransferred","inputs":[{"name":"from","type":"address","indexed":true,"internalType":"address"},{"name":"to","type":"address","indexed":true,"internalType":"address"},{"name":"shares","type":"uint256","indexed":false,"internalType":"uint256"}],"anonymous":false},{"type":"event","name":"StaleNavFallback","inputs":[{"name":"staleTimestamp","type":"uint256","indexed":false,"internalType":"uint256"},{"name":"fallbackNav","type":"uint256","indexed":false,"internalType":"uint256"}],"anonymous":false},{"type":"event","name":"StalenessSettingsUpdated","inputs":[{"name":"enforced","type":"bool","indexed":false,"internalType":"bool"},{"name":"revertOnStale","type":"bool","indexed":false,"internalType":"bool"}],"anonymous":false},{"type":"event","name":"SupplyChange","inputs":[{"name":"previousSupply","type":"uint256","indexed":false,"internalType":"uint256"},{"name":"newSupply","type":"uint256","indexed":false,"internalType":"uint256"},{"name":"delta","type":"int256","indexed":false,"internalType":"int256"},{"name":"changeType","type":"string","indexed":true,"internalType":"string"}],"anonymous":false},{"type":"event","name":"Transfer","inputs":[{"name":"from","type":"address","indexed":true,"internalType":"address"},{"name":"to","type":"address","indexed":true,"internalType":"address"},{"name":"value","type":"uint256","indexed":false,"internalType":"uint256"}],"anonymous":false},{"type":"event","name":"TreasuryVaultUpdated","inputs":[{"name":"treasuryVault","type":"address","indexed":true,"internalType":"address"}],"anonymous":false},{"type":"event","name":"Unpaused","inputs":[{"name":"account","type":"address","indexed":false,"internalType":"address"}],"anonymous":false},{"type":"event","name":"Upgraded","inputs":[{"name":"implementation","type":"address","indexed":true,"internalType":"address"}],"anonymous":false},{"type":"error","name":"AddressEmptyCode","inputs":[{"name":"target","type":"address","internalType":"address"}]},{"type":"error","name":"ApproveFromZeroAddress","inputs":[]},{"type":"error","name":"ApproveToZeroAddress","inputs":[]},{"type":"error","name":"ArrayLengthMismatch","inputs":[]},{"type":"error","name":"BurnAmountExceedsBalance","inputs":[]},{"type":"error","name":"BurnFromZeroAddress","inputs":[]},{"type":"error","name":"ERC1967InvalidImplementation","inputs":[{"name":"implementation","type":"address","internalType":"address"}]},{"type":"error","name":"ERC1967NonPayable","inputs":[]},{"type":"error","name":"EmptyArray","inputs":[]},{"type":"error","name":"EnforcedPause","inputs":[]},{"type":"error","name":"ExpectedPause","inputs":[]},{"type":"error","name":"FailedInnerCall","inputs":[]},{"type":"error","name":"InsufficientAllowance","inputs":[]},{"type":"error","name":"InvalidAddress","inputs":[]},{"type":"error","name":"InvalidInitialization","inputs":[]},{"type":"error","name":"MintToZeroAddress","inputs":[]},{"type":"error","name":"NotInitializing","inputs":[]},{"type":"error","name":"NotTreasuryVault","inputs":[]},{"type":"error","name":"OwnableInvalidOwner","inputs":[{"name":"owner","type":"address","internalType":"address"}]},{"type":"error","name":"OwnableUnauthorizedAccount","inputs":[{"name":"account","type":"address","internalType":"address"}]},{"type":"error","name":"StaleNAV","inputs":[]},{"type":"error","name":"TransferAmountExceedsBalance","inputs":[]},{"type":"error","name":"TransferFromZeroAddress","inputs":[]},{"type":"error","name":"TransferSharesExceedsBalance","inputs":[]},{"type":"error","name":"TransferToZeroAddress","inputs":[]},{"type":"error","name":"UUPSUnauthorizedCallContext","inputs":[]},{"type":"error","name":"UUPSUnsupportedProxiableUUID","inputs":[{"name":"slot","type":"bytes32","internalType":"bytes32"}]}],"bytecode":{"object":"0x60a080604052346100cc57306080527ff0c57e16840df040f15088dc2f81fe391c3923bec73e23a9662efc9c229c6a009081549060ff8260401c166100bd57506001600160401b036002600160401b031982821601610078575b60405161280790816100d1823960805181818161129b01526114350152f35b6001600160401b031990911681179091556040519081527fc7f505b2f371ae2175ee4913f4499e1f2633a7b5936321eed1cdaeb6115181d290602090a15f8080610059565b63f92ee8a960e01b8152600490fd5b5f80fdfe6080604081815260049182361015610015575f80fd5b5f92833560e01c91826306fdde0314611da257508163095ea7b314611d785781630c3cc61a14611cda57816318160ddd14611caf5781631e9ee55f14611c3b57816323b872dd14611ae85781632aceb53414611a335781632e0f262514611967578163312d196f14611983578163313ce5671461196757816339509351146119175781633a98ef39146118f95781633f4ba83a14611882578163485cc9551461165357816349d4640d1461162a5781634b8fb92f146115fe5781634f1ef286146113ba578163528c198a146112ec57816352d1902d146112865781635c975abb1461125657816360588f9d14611224578163643aebf714611196578163698813dd1461116f5781636b6fe5e9146111215781636c5c36cf1461104a5781636d78045914610f3d57816370a0823114610ef6578163715018a614610e8d5781637edc9d4b14610e0f5781638456cb5914610da857816388d695b214610c2d5781638acee85d14610c045781638da5cb5b14610bcf5781638fcb4e5b14610af157816395d89b4114610a3757816395f8ac39146109ae578163a457c2d714610945578163a9059cbb146107ef578163aaf5eb68146107cc578163abd894b0146107a8578163ad3cb1cc14610746578163af8b1c6f1461071d578163b5354ce5146106fe578163cb9d9059146106d7578163d5f80c341461065c578163d8385675146104fc578163dd62ed3e146104b3578163de7ebb751461041c578163ee7a7c041461031557508063f2fde38b146102e5578063f5eb42dc146102ae5763fa7946721461025e575f80fd5b346102aa57806003193601126102aa57602091670de0b6b3a7640000906102a2906001600160a01b0361028f611e6e565b168152600285528360243591205461245d565b049051908152f35b5080fd5b50346102aa5760203660031901126102aa5760209181906001600160a01b036102d5611e6e565b1681526002845220549051908152f35b82346103125760203660031901126103125761030f610302611e6e565b61030a611fd7565b61200f565b80f35b80fd5b8383346102aa57806003193601126102aa5761032f611e6e565b60065460243592916001600160a01b03918216330361040c57169182156103fc5782845260026020528082852054106103ec578394837f8038d1806af22a919dcd5b2a4c313824e515ceb65343ff568379f92a1f323010949552600260205282862061039c83825461217d565b90556103a982825461217d565b9055670de0b6b3a76400006103c56103bf61248e565b8361245d565b0485855f8051602061277283398151915260208651858152a382519182526020820152a280f35b8151630bba337f60e11b81528590fd5b815163b817eee760e01b81528590fd5b825163fd54f04360e01b81528690fd5b839150346102aa5760203660031901126102aa5780356001600160401b0381116104af5761044c91369101611e9e565b610455816126cb565b925b81811061046f5784518061046b8682611ece565b0390f35b80670de0b6b3a764000061049961048a6104aa94868861267c565b35610493612336565b9061245d565b046104a482876126fd565b5261266e565b610457565b8280fd5b5050346102aa57806003193601126102aa57806020926104d1611e6e565b6104d9611e88565b6001600160a01b0391821683526003865283832091168252845220549051908152f35b8284346103125761050c36611f8d565b829493921561064c5780850361063c57919333159290845b818110610535576020885160018152f35b61054861054382848a61267c565b6126a0565b9061055481858761267c565b35918661055f61230c565b61062c576001600160a01b0316801561061c57338852600292602093808552818c8b20541061060c57610607945f805160206127b283398151915291338c528082528d8c206105af85825461217d565b9055848c5281528c8b206105c484825461215c565b9055838d670de0b6b3a76400006105e26105dc61248e565b8761245d565b0490519081525f80516020612772833981519152833392a38c519283523392a361266e565b610524565b8b516319cddfab60e11b81528d90fd5b8951633a954ecd60e21b81528b90fd5b8951630b07e54560e11b81528b90fd5b855163512509d360e11b81528790fd5b855163521299a960e01b81528790fd5b9050346104af5760203660031901126104af57610677611e6e565b61067f611fd7565b6001600160a01b03169182156106ca575050600680546001600160a01b031916821790557fe235357fb4be6890e84953079e2763088d92eeeb20b6a98ceebd9b62cbe720c28280a280f35b5163e6c4247b60e01b8152fd5b5050346102aa57816003193601126102aa5760209060ff60065460a81c1690519015158152f35b5050346102aa57816003193601126102aa576020906007549051908152f35b5050346102aa57816003193601126102aa5760065490516001600160a01b039091168152602090f35b8383346102aa57816003193601126102aa57805191818301908382106001600160401b03831117610795575061046b9350815260058252640352e302e360dc1b60208301525191829182611e27565b634e487b7160e01b815260418552602490fd5b5050346102aa57816003193601126102aa576020906107c5612336565b9051908152f35b5050346102aa57816003193601126102aa5760209051670de0b6b3a76400008152f35b828434610312578160031936011261031257610809611e6e565b6024359061081561230c565b3315610935576001600160a01b03169182156109255761084461083661248e565b61083f84612440565b612470565b9033815260209560028752828683205410610917575084903381526002875281812061087184825461217d565b9055848152600287522061088682825461215c565b90558284518381525f80516020612772833981519152873392a38284518281525f805160206127b2833981519152873392a3600754801515908161090c575b506108d5575b5050505160018152f35b5f80516020612732833981519152906108ec612336565b8551938452602084019190915260408301523391606090a38280806108cb565b9050821015866108c5565b8551635dd58b8b60e01b8152fd5b50505051633a954ecd60e21b8152fd5b50505051630b07e54560e11b8152fd5b82843461031257816003193601126103125761095f611e6e565b928260243592338152600360205281812060018060a01b03871682526020522054908282106109a057509261099991602094039033612571565b5160018152f35b83516313be252b60e01b8152fd5b9050823461031257602091826003193601126102aa5780356001600160401b0381116104af576109e091369101611e9e565b9190926109ec836126cb565b93825b848110610a035786518061046b8882611ece565b610a32906001600160a01b03610a1d61054383898761267c565b16855260028452878520546104a482896126fd565b6109ef565b5050346102aa57816003193601126102aa57805190826001805490610a5b826120e3565b80865291818116908115610ac95750600114610a8e575b505050610a848261046b940383611f3d565b5191829182611e27565b80955082526020948583205b828410610ab6575050508261046b94610a849282010194610a72565b8054868501880152928601928101610a9a565b61046b9750610a849450602092508693915060ff191682840152151560051b82010194610a72565b828434610312578160031936011261031257610b0b611e6e565b60243590610b1761230c565b3315610935576001600160a01b03169182156109255733815260209460028652828583205410610bc15750839033815260028652818120610b5984825461217d565b90558381526002865220610b6e82825461215c565b905581670de0b6b3a7640000610b8b610b8561248e565b8461245d565b0484519081525f80516020612772833981519152863392a382519081525f805160206127b2833981519152843392a35160018152f35b84516319cddfab60e11b8152fd5b5050346102aa57816003193601126102aa575f805160206127128339815191525490516001600160a01b039091168152602090f35b82843461031257806003193601126103125750610c1f6121a2565b825191151582526020820152f35b82843461031257610c3d36611f8d565b8294921561064c5780850361063c57929333159390835b818110610c65576020885160018152f35b610c7361054382848a61267c565b90610c7f81858761267c565b359187610c8a61230c565b61062c576001600160a01b0316801561061c57610cb1610ca861248e565b61083f85612440565b923388526002938b602086815282828c205410610d98575f805160206127b28339815191528592610d4498848e338152828652838120610cf289825461217d565b9055528352808d20610d0586825461215c565b90558381518781525f80516020612772833981519152853392a351918483523392a38b6007548015159081610d8d575b50610d49575b5050505061266e565b610c54565b5f8051602061273283398151915291610d81610d63612336565b92519283923396846040919493926060820195825260208201520152565b0390a38a80808b610d3b565b90508310158f610d35565b8151635dd58b8b60e01b81528f90fd5b5050346102aa57816003193601126102aa5760207f62e78cea01bee320cd4e420270b5ea74000d11b0c9f74754ebdbfc544b05a25891610de6611fd7565b610dee61230c565b5f80516020612792833981519152805460ff1916600117905551338152a180f35b919050346104af57826003193601126104af5760c09250610e2e612336565b915490670de0b6b3a7640000610e45610b85612336565b049260ff5f8051602061279283398151915254169060018060a01b039283600654169360055416948151968752602087015285015215156060840152608083015260a0820152f35b8334610312578060031936011261031257610ea6611fd7565b5f8051602061271283398151915280546001600160a01b0319811690915581906001600160a01b03167f8be0079c531659141344cd1fd0a4f28419497f9722a3daafe3b4186f6b6457e08280a380f35b5050346102aa5760203660031901126102aa57602091670de0b6b3a7640000906102a29083906001600160a01b03610f2c611e6e565b168152600286522054610493612336565b82843461031257610f4d36611f08565b9091670de0b6b3a764000090610f7682610f6e610f6861248e565b8661245d565b0433836125f2565b610f7e61230c565b6001600160a01b0390811693841561103a571693841561102a578381526020966002885283878320541061101c57509184845f805160206127728339815191528980958a88855f805160206127b28339815191529a5260028452818120610fe689825461217d565b90558681526002845220610ffb87825461215c565b90556110086105dc61248e565b048a51908152a38551908152a35160018152f35b86516319cddfab60e11b8152fd5b8551633a954ecd60e21b81528790fd5b8651630b07e54560e11b81528890fd5b90508234610312578260031936011261031257611065611e6e565b6001600160a01b0316815260026020528281205490918291829190670de0b6b3a76400006110a98161109e611098612336565b8561245d565b04926024359061245d565b04908181116110c3575b5050505082519182526020820152f35b8192939550906110d29161217d565b93816110df575b806110b3565b9091949392506127109081840291848304148415171561110e575061110692939450612470565b8380806110d9565b634e487b7160e01b815260118652602490fd5b9050346104af5760203660031901126104af577f61a0bfdde083acb7e5aff7f30211b84e3abd67286aa3bfde279b6662800f4d88916020913590611163611fd7565b8160075551908152a180f35b5050346102aa57816003193601126102aa5760209060ff60065460a01c1690519015158152f35b9050346104af57816003193601126104af5735908115158092036104af5760243591821515809303611220577f69b12f7cfbf6486209d2d247bc35d73e00330c685f9b3e6384ec6a1f8e77748b926111ec611fd7565b6006805461ffff60a01b191660a084901b60ff60a01b161760a883901b60ff60a81b1617905582519182526020820152a180f35b8380fd5b8284346103125760203660031901126103125750670de0b6b3a76400006102a260209361124f612336565b903561245d565b5050346102aa57816003193601126102aa5760209060ff5f80516020612792833981519152541690519015158152f35b828434610312578060031936011261031257507f00000000000000000000000000000000000000000000000000000000000000006001600160a01b031630036112df57602090515f805160206127528339815191528152f35b5163703e46dd60e11b8152fd5b8383346102aa57806003193601126102aa57611306611e6e565b60065460243592916001600160a01b03918216330361040c57169182156113ab5784611356827fd5103f333769455df788908e17b0f6f83838ebeae2cd1ed6f23ec20dad88c9a39596975461215c565b9055838552600260205281852061136e82825461215c565b9055670de0b6b3a76400006113846103bf61248e565b0484865f8051602061277283398151915260208651858152a382519182526020820152a280f35b8151622e076360e81b81528590fd5b918091506003193601126104af576113d0611e6e565b9060249384356001600160401b0381116102aa57366023820112156102aa57808501356113fc81611f72565b9461140985519687611f3d565b81865260209182870193368a83830101116115fa578186928b8693018737880101526001600160a01b037f000000000000000000000000000000000000000000000000000000000000000081163081149081156115df575b506115cf5761146e611fd7565b81169585516352d1902d60e01b815283818a818b5afa86918161159c575b506114a8575050505050505191634c9c8ce360e01b8352820152fd5b9088888894938c5f80516020612752833981519152918281036115875750853b15611573575080546001600160a01b031916821790558451889392917fbc7cd75a20ee27fd9adebab32041f755214dbc6bffa90cc0225b39da2e5c2d3b8580a28251156115555750506115479582915190845af4913d1561154b573d61153961153082611f72565b92519283611f3d565b81528581943d92013e612080565b5080f35b5060609250612080565b95509550505050503461156757505080f35b63b398979f60e01b8152fd5b8651634c9c8ce360e01b8152808501849052fd5b8751632a87526960e21b815280860191909152fd5b9091508481813d83116115c8575b6115b48183611f3d565b810103126115c45751905f61148c565b8680fd5b503d6115aa565b855163703e46dd60e11b81528890fd5b9050815f80516020612752833981519152541614155f611461565b8580fd5b82843461031257602036600319011261031257506107c560209261083f611623612336565b9135612440565b5050346102aa57816003193601126102aa5760055490516001600160a01b039091168152602090f35b9050346104af57816003193601126104af5761166d611e6e565b90611676611e88565b917ff0c57e16840df040f15088dc2f81fe391c3923bec73e23a9662efc9c229c6a009283549160ff83871c1615926001600160401b0381169485158061187b575b60018097149081611871575b159081611868575b5061185a575067ffffffffffffffff198116851786556116fd91908461183b575b506116f561211b565b61030a61211b565b61170561211b565b61170d61211b565b5f80516020612792833981519152805460ff1916905561172b61211b565b61173586546120e3565b601f811161180f575b5060247114d95d0814dd18589b1958dbda5b881554d160721b0186558254611765906120e3565b601f81116117e3575b50600a641cdcd554d160da1b018355600580546001600160a01b0319166001600160a01b03929092169190911790556117a5578380f35b815460ff60401b191690915590519081527fc7f505b2f371ae2175ee4913f4499e1f2633a7b5936321eed1cdaeb6115181d290602090a15f80808380f35b83875283601f60208920920160051c8201915b82811061180457505061176e565b8881550184906117f6565b86805283601f60208920920160051c8201915b82811061183057505061173e565b888155018490611822565b68ffffffffffffffffff1916680100000000000000011786555f6116ec565b875163f92ee8a960e01b8152fd5b9050155f6116cb565b303b1591506116c3565b50846116b7565b9050346104af57826003193601126104af5761189c611fd7565b5f805160206127928339815191529081549060ff8216156118eb575060ff19169055513381527f5db9ee0a495bf2e6ff9c91a7834c1ba4fdd244a5e8aa4e537bd38aeae4b073aa90602090a180f35b8351638dfc202b60e01b8152fd5b9050346104af57826003193601126104af5760209250549051908152f35b5050346102aa57806003193601126102aa5761099960209261196061193a611e6e565b338352600386528483206001600160a01b0382168452865291849020546024359061215c565b9033612571565b5050346102aa57816003193601126102aa576020905160128152f35b8383346102aa5760203660031901126102aa5782356001600160401b0381116104af576119b39036908501611e9e565b926119bd846126cb565b93815b8181106119d45784518061046b8882611ece565b6119df81838661267c565b356119e8612336565b90670de0b6b3a764000090818102918183041490151715611a2057611a1b9291611a1191612470565b6104a482896126fd565b6119c0565b634e487b7160e01b855260118952602485fd5b919050346104af5760203660031901126104af57611a4f611e6e565b6001600160a01b0316835260026020528083205492670de0b6b3a7640000611a78610f68612336565b04928054918215155f14611ada5761271091828702928784041487151715611ac757505061046b9291611aaa91612470565b905b51938493846040919493926060820195825260208201520152565b634e487b7160e01b825260119052602490fd5b905061046b92915090611aac565b82843461031257611af836611f08565b9091611b058233836125f2565b611b0d61230c565b6001600160a01b03908116928315611c2b5716928315611c1b57611b3261083661248e565b9083815260209660028852828783205410611c0d5750808487925260028852818120611b5f84825461217d565b90558581526002885220611b7482825461215c565b905583835f80516020612772833981519152888851868152a383835f805160206127b2833981519152888851858152a36007548015159081611c02575b50611bc0575b85855160018152f35b5f8051602061273283398151915291611bf6611bda612336565b8751938493846040919493926060820195825260208201520152565b0390a382808080611bb7565b905082101587611bb1565b8651635dd58b8b60e01b8152fd5b8451633a954ecd60e21b81528690fd5b8551630b07e54560e11b81528790fd5b9050346104af5760203660031901126104af57611c56611e6e565b90611c5f611fd7565b6001600160a01b039182169283156106ca575050600580546001600160a01b031981168417909155167f69f0849218bc66c64f090e4f1663131939384e6725e4ae478324ec63df70991b8380a380f35b82843461031257806003193601126103125750670de0b6b3a76400006102a260209354610493612336565b9050823461031257602091826003193601126102aa5780356001600160401b0381116104af57611d0c91369101611e9e565b919092611d18836126cb565b93825b848110611d2f5786518061046b8882611ece565b611d73906001600160a01b03611d4961054383898761267c565b16855260028452670de0b6b3a7640000611d6889872054610493612336565b046104a482896126fd565b611d1b565b5050346102aa57806003193601126102aa57602090610999611d98611e6e565b6024359033612571565b849084346104af57826003193601126104af57828054611dc1816120e3565b80855290600190818116908115610ac95750600114611dec57505050610a848261046b940383611f3d565b94508180526020948583205b828410611e14575050508261046b94610a849282010194610a72565b8054868501880152928601928101611df8565b602080825282518183018190529093925f5b828110611e5a57505060409293505f838284010152601f8019910116010190565b818101860151848201604001528501611e39565b600435906001600160a01b0382168203611e8457565b5f80fd5b602435906001600160a01b0382168203611e8457565b9181601f84011215611e84578235916001600160401b038311611e84576020808501948460051b010111611e8457565b602090816040818301928281528551809452019301915f5b828110611ef4575050505090565b835185529381019392810192600101611ee6565b6060906003190112611e84576001600160a01b03906004358281168103611e8457916024359081168103611e84579060443590565b90601f801991011681019081106001600160401b03821117611f5e57604052565b634e487b7160e01b5f52604160045260245ffd5b6001600160401b038111611f5e57601f01601f191660200190565b6040600319820112611e84576001600160401b0391600435838111611e845782611fb991600401611e9e565b93909392602435918211611e8457611fd391600401611e9e565b9091565b5f80516020612712833981519152546001600160a01b03163303611ff757565b60405163118cdaa760e01b8152336004820152602490fd5b6001600160a01b03908116908115612068575f8051602061271283398151915280546001600160a01b031981168417909155167f8be0079c531659141344cd1fd0a4f28419497f9722a3daafe3b4186f6b6457e05f80a3565b604051631e4fbdf760e01b81525f6004820152602490fd5b906120a7575080511561209557805190602001fd5b604051630a12f52160e11b8152600490fd5b815115806120da575b6120b8575090565b604051639996b31560e01b81526001600160a01b039091166004820152602490fd5b50803b156120b0565b90600182811c92168015612111575b60208310146120fd57565b634e487b7160e01b5f52602260045260245ffd5b91607f16916120f2565b60ff7ff0c57e16840df040f15088dc2f81fe391c3923bec73e23a9662efc9c229c6a005460401c161561214a57565b604051631afcd79f60e31b8152600490fd5b9190820180921161216957565b634e487b7160e01b5f52601160045260245ffd5b9190820391821161216957565b90816020910312611e8457518015158103611e845790565b6005546001600160a01b039081169190821561230457604092835163349ef2c960e11b815260e081600481855afa9283156122fa575f9361224d575b5050602060049185519283809263cd8a05df60e01b82525afa93841561224457505f93612211575b506060015191159190565b60609193506122369060203d811161223d575b61222e8183611f3d565b81019061218a565b9290612206565b503d612224565b513d5f823e3d90fd5b90919260e0833d82116122f2575b8161226860e09383611f3d565b810103126103125785519260e084018481106001600160401b038211176122de579060c091885280518552602081015160208601528781015188860152606081015160608601526080810151608086015260a081015160a086015201519182168203610312575060c082015290602060046121de565b634e487b7160e01b83526041600452602483fd5b3d915061225b565b85513d5f823e3d90fd5b505f91508190565b60ff5f80516020612792833981519152541661232457565b60405163d93c066560e01b8152600490fd5b6005546001600160a01b031680156124335760065460ff8160a01c16806123e9575b6123bf575060206004916040519283809263f1c68aed60e01b82525afa9081156123b4575f91612386575090565b906020823d82116123ac575b8161239f60209383611f3d565b8101031261031257505190565b3d9150612392565b6040513d5f823e3d90fd5b60ff915060a81c166123d757670de0b6b3a764000090565b604051631ccd2ef960e21b8152600490fd5b5060405163cd8a05df60e01b8152602081600481865afa9081156123b4575f91612415575b5015612358565b61242d915060203d811161223d5761222e8183611f3d565b5f61240e565b50670de0b6b3a764000090565b90670de0b6b3a76400009182810292818404149015171561216957565b8181029291811591840414171561216957565b811561247a570490565b634e487b7160e01b5f52601260045260245ffd5b6005546001600160a01b031680156124335760065460ff8160a01c1680612527575b6124de575060206004916040519283809263f1c68aed60e01b82525afa9081156123b4575f91612386575090565b60ff915060a81c166123d7576040514281527fd2a70cdd282962cab0beaa6e66ebf395541175b6c47625d3300c1c34ae9bbe2d6040670de0b6b3a764000092836020820152a190565b5060405163cd8a05df60e01b8152602081600481865afa9081156123b4575f91612553575b50156124b0565b61256b915060203d811161223d5761222e8183611f3d565b5f61254c565b6001600160a01b039081169182156125e057169182156125ce5760207f8c5be1e5ebec7d5bd14f71427d1e84f3dd0314c0f7b2291e5b200ac8c7c3b92591835f526003825260405f20855f5282528060405f2055604051908152a3565b60405163076e33c360e31b8152600490fd5b60405163eb3b083560e01b8152600490fd5b91909160018060a01b03809116925f9184835260036020526040832091169081835260205260408220545f19810361262c575b5050505050565b83811061265c5760409361263f9161217d565b938252600360205282822090825260205220555f80808080612625565b6040516313be252b60e01b8152600490fd5b5f1981146121695760010190565b919081101561268c5760051b0190565b634e487b7160e01b5f52603260045260245ffd5b356001600160a01b0381168103611e845790565b6001600160401b038111611f5e5760051b60200190565b906126d5826126b4565b6126e26040519182611f3d565b82815280926126f3601f19916126b4565b0190602036910137565b805182101561268c5760209160051b01019056fe9016d09d72d40fdae2fd8ceac6b6234c7706214fd39c1cd1e609a0528c19930014b4f78027591159f5c0f2b53666c2879d0cb8d680349e5affbdb0a16eee1bf1360894a13ba1a3210667c828492db98dca3e2076cc3735a920a3ca505d382bbcddf252ad1be2c89b69c2b068fc378daa952ba7f163c4a11628f55a4df523b3efcd5ed15c6e187e77e9aee88184c21f4f2182ab5827cb3b7e07fbedcd63f0330099c01cd4f8275976ef33d24514b1694c8a9d5730d92e26996834343e09778e99a26469706673582212209dcaff513f5a450b651ce82fc523e99d37edac69e6bbd0e0246f698d0ff8058d64736f6c63430008140033","linkReferences":{}},"methodIdentifiers":{"DECIMALS()":"2e0f2625","PRECISION()":"aaf5eb68","UPGRADE_INTERFACE_VERSION()":"ad3cb1cc","allowance(address,address)":"dd62ed3e","approve(address,uint256)":"095ea7b3","balanceOf(address)":"70a08231","batchBalanceOf(address[])":"0c3cc61a","batchGetAmountByShares(uint256[])":"de7ebb75","batchGetSharesByAmount(uint256[])":"312d196f","batchSharesOf(address[])":"95f8ac39","batchTransfer(address[],uint256[])":"88d695b2","batchTransferShares(address[],uint256[])":"d8385675","burnShares(address,uint256)":"ee7a7c04","decimals()":"313ce567","decreaseAllowance(address,uint256)":"a457c2d7","enforceNavStaleness()":"698813dd","getAccountDetails(address)":"2aceb534","getAccruedYield(address,uint256)":"6c5c36cf","getAmountByShares(uint256)":"60588f9d","getNavPerShare()":"abd894b0","getSharesByAmount(uint256)":"4b8fb92f","getTokenStatus()":"7edc9d4b","increaseAllowance(address,uint256)":"39509351","initialize(address,address)":"485cc955","isNavStale()":"8acee85d","largeTransferThreshold()":"b5354ce5","mintShares(address,uint256)":"528c198a","name()":"06fdde03","navOracle()":"49d4640d","owner()":"8da5cb5b","pause()":"8456cb59","paused()":"5c975abb","proxiableUUID()":"52d1902d","renounceOwnership()":"715018a6","revertOnStaleNav()":"cb9d9059","setLargeTransferThreshold(uint256)":"6b6fe5e9","setNavOracle(address)":"1e9ee55f","setStalenessSettings(bool,bool)":"643aebf7","setTreasuryVault(address)":"d5f80c34","sharesOf(address)":"f5eb42dc","simulateBalanceAtNAV(address,uint256)":"fa794672","symbol()":"95d89b41","totalShares()":"3a98ef39","totalSupply()":"18160ddd","transfer(address,uint256)":"a9059cbb","transferFrom(address,address,uint256)":"23b872dd","transferOwnership(address)":"f2fde38b","transferShares(address,uint256)":"8fcb4e5b","transferSharesFrom(address,address,uint256)":"6d780459","treasuryVault()":"af8b1c6f","unpause()":"3f4ba83a","upgradeToAndCall(address,bytes)":"4f1ef286"},"id":400}