{"abi":[{"type":"function","name":"initialize","inputs":[],"outputs":[],"stateMutability":"nonpayable"},{"type":"function","name":"isHuman","inputs":[],"outputs":[{"name":"","type":"bool","internalType":"bool"}],"stateMutability":"view"},{"type":"event","name":"Initialized","inputs":[{"name":"version","type":"uint64","indexed":false,"internalType":"uint64"}],"anonymous":false},{"type":"error","name":"InvalidInitialization","inputs":[]},{"type":"error","name":"NotInitializing","inputs":[]}],"bytecode":{"object":"0x60808060405234610016576101fa908161001b8239f35b5f80fdfe6080806040526004361015610012575f80fd5b5f90813560e01c9081634a6c9db6146101605750638129fc1c14610034575f80fd5b3461015d578060031936011261015d577ff0c57e16840df040f15088dc2f81fe391c3923bec73e23a9662efc9c229c6a00805460ff8160401c16159067ffffffffffffffff811680159081610155575b600114908161014b575b159081610142575b506101305767ffffffffffffffff198116600117835581610111575b506100bb610183565b6100c3610183565b825460ff191660011783556100d6575080f35b805460ff60401b19169055604051600181527fc7f505b2f371ae2175ee4913f4499e1f2633a7b5936321eed1cdaeb6115181d290602090a180f35b68ffffffffffffffffff1916680100000000000000011782555f6100b2565b60405163f92ee8a960e01b8152600490fd5b9050155f610096565b303b15915061008e565b839150610084565b80fd5b90503461017f578160031936011261017f5760ff602092541615158152f35b5080fd5b60ff7ff0c57e16840df040f15088dc2f81fe391c3923bec73e23a9662efc9c229c6a005460401c16156101b257565b604051631afcd79f60e31b8152600490fdfea2646970667358221220802de13acda98eeca65376dd5a719de562907914f62cdea7c415cea8b63a75fa64736f6c63430008140033","linkReferences":{}},"methodIdentifiers":{"initialize()":"8129fc1c","isHuman()":"4a6c9db6"},"id":93}