{"abi":[{"type":"function","name":"isValidSignature","inputs":[{"name":"","type":"bytes32","internalType":"bytes32"},{"name":"","type":"bytes","internalType":"bytes"}],"outputs":[{"name":"","type":"bytes4","internalType":"bytes4"}],"stateMutability":"pure"}],"bytecode":{"object":"0x608080604052346100155760fd908161001a8239f35b5f80fdfe608060405260043610156010575f80fd5b5f803560e01c631626ba7e146023575f80fd5b3460a757604036600319011260a75760243567ffffffffffffffff80821160a3573660238301121560a357816004013590808211609f5760405190601f8301601f19908116603f0116820190811182821017609f576040528181523660248385010111609b57816024602094018483013701015260be565b8380fd5b60aa565b8280fd5b80fd5b634e487b7160e01b5f52604160045260245ffd5b5f195f5260205ff3fea264697066735822122066d057368b109767a7c3070637e819b95b7d57bfae16033a78b74eb42d22836e64736f6c63430008140033","linkReferences":{}},"methodIdentifiers":{"isValidSignature(bytes32,bytes)":"1626ba7e"},"id":245}