{"abi":[{"type":"constructor","inputs":[{"name":"initialOwner","type":"address","internalType":"address"}],"stateMutability":"nonpayable"},{"type":"function","name":"normalThing","inputs":[],"outputs":[],"stateMutability":"nonpayable"},{"type":"function","name":"owner","inputs":[],"outputs":[{"name":"","type":"address","internalType":"address"}],"stateMutability":"view"},{"type":"function","name":"renounceOwnership","inputs":[],"outputs":[],"stateMutability":"nonpayable"},{"type":"function","name":"specialThing","inputs":[],"outputs":[],"stateMutability":"nonpayable"},{"type":"function","name":"transferOwnership","inputs":[{"name":"newOwner","type":"address","internalType":"address"}],"outputs":[],"stateMutability":"nonpayable"},{"type":"event","name":"OwnershipTransferred","inputs":[{"name":"previousOwner","type":"address","indexed":true,"internalType":"address"},{"name":"newOwner","type":"address","indexed":true,"internalType":"address"}],"anonymous":false},{"type":"error","name":"OwnableInvalidOwner","inputs":[{"name":"owner","type":"address","internalType":"address"}]},{"type":"error","name":"OwnableUnauthorizedAccount","inputs":[{"name":"account","type":"address","internalType":"address"}]}],"bytecode":{"object":"0x6080346100b957601f6102c338819003918201601f19168301916001600160401b038311848410176100bd578084926020946040528339810103126100b957516001600160a01b0390818116908190036100b95780156100a1575f80546001600160a01b03198116831782556040519316907f8be0079c531659141344cd1fd0a4f28419497f9722a3daafe3b4186f6b6457e09080a36101f190816100d28239f35b604051631e4fbdf760e01b81525f6004820152602490fd5b5f80fd5b634e487b7160e01b5f52604160045260245ffdfe60806040526004361015610011575f80fd5b5f803560e01c8063163e1d931461017c57806335fea8c914610160578063715018a6146101065780638da5cb5b146100df5763f2fde38b14610051575f80fd5b346100dc5760203660031901126100dc576004356001600160a01b03818116918290036100d857610080610190565b81156100bf5782546001600160a01b0319811683178455167f8be0079c531659141344cd1fd0a4f28419497f9722a3daafe3b4186f6b6457e08380a380f35b604051631e4fbdf760e01b815260048101849052602490fd5b8280fd5b80fd5b50346100dc57806003193601126100dc57546040516001600160a01b039091168152602090f35b50346100dc57806003193601126100dc5761011f610190565b80546001600160a01b03198116825581906001600160a01b03167f8be0079c531659141344cd1fd0a4f28419497f9722a3daafe3b4186f6b6457e08280a380f35b50346100dc57806003193601126100dc57610179610190565b80f35b50346100dc57806003193601126100dc5780f35b5f546001600160a01b031633036101a357565b60405163118cdaa760e01b8152336004820152602490fdfea2646970667358221220f700d978f3a453edb3933012a2fa91ecd0594e7f932055f389bb4fadeb5aba9964736f6c63430008140033","linkReferences":{}},"methodIdentifiers":{"normalThing()":"163e1d93","owner()":"8da5cb5b","renounceOwnership()":"715018a6","specialThing()":"35fea8c9","transferOwnership(address)":"f2fde38b"},"id":278}