{"abi":[{"type":"function","name":"bytesMap","inputs":[{"name":"key","type":"uint256","internalType":"uint256"}],"outputs":[{"name":"","type":"bytes","internalType":"bytes"}],"stateMutability":"view"},{"type":"function","name":"getAddress","inputs":[{"name":"slot","type":"bytes32","internalType":"bytes32"}],"outputs":[{"name":"","type":"address","internalType":"address"}],"stateMutability":"view"},{"type":"function","name":"getBoolean","inputs":[{"name":"slot","type":"bytes32","internalType":"bytes32"}],"outputs":[{"name":"","type":"bool","internalType":"bool"}],"stateMutability":"view"},{"type":"function","name":"getBytes","inputs":[{"name":"slot","type":"bytes32","internalType":"bytes32"}],"outputs":[{"name":"","type":"bytes","internalType":"bytes"}],"stateMutability":"view"},{"type":"function","name":"getBytes32","inputs":[{"name":"slot","type":"bytes32","internalType":"bytes32"}],"outputs":[{"name":"","type":"bytes32","internalType":"bytes32"}],"stateMutability":"view"},{"type":"function","name":"getBytesStorage","inputs":[{"name":"key","type":"uint256","internalType":"uint256"}],"outputs":[{"name":"","type":"bytes","internalType":"bytes"}],"stateMutability":"view"},{"type":"function","name":"getString","inputs":[{"name":"slot","type":"bytes32","internalType":"bytes32"}],"outputs":[{"name":"","type":"string","internalType":"string"}],"stateMutability":"view"},{"type":"function","name":"getStringStorage","inputs":[{"name":"key","type":"uint256","internalType":"uint256"}],"outputs":[{"name":"","type":"string","internalType":"string"}],"stateMutability":"view"},{"type":"function","name":"getUint256","inputs":[{"name":"slot","type":"bytes32","internalType":"bytes32"}],"outputs":[{"name":"","type":"uint256","internalType":"uint256"}],"stateMutability":"view"},{"type":"function","name":"setAddress","inputs":[{"name":"slot","type":"bytes32","internalType":"bytes32"},{"name":"value","type":"address","internalType":"address"}],"outputs":[],"stateMutability":"nonpayable"},{"type":"function","name":"setBoolean","inputs":[{"name":"slot","type":"bytes32","internalType":"bytes32"},{"name":"value","type":"bool","internalType":"bool"}],"outputs":[],"stateMutability":"nonpayable"},{"type":"function","name":"setBytes","inputs":[{"name":"slot","type":"bytes32","internalType":"bytes32"},{"name":"value","type":"bytes","internalType":"bytes"}],"outputs":[],"stateMutability":"nonpayable"},{"type":"function","name":"setBytes32","inputs":[{"name":"slot","type":"bytes32","internalType":"bytes32"},{"name":"value","type":"bytes32","internalType":"bytes32"}],"outputs":[],"stateMutability":"nonpayable"},{"type":"function","name":"setBytesStorage","inputs":[{"name":"key","type":"uint256","internalType":"uint256"},{"name":"value","type":"bytes","internalType":"bytes"}],"outputs":[],"stateMutability":"nonpayable"},{"type":"function","name":"setString","inputs":[{"name":"slot","type":"bytes32","internalType":"bytes32"},{"name":"value","type":"string","internalType":"string"}],"outputs":[],"stateMutability":"nonpayable"},{"type":"function","name":"setStringStorage","inputs":[{"name":"key","type":"uint256","internalType":"uint256"},{"name":"value","type":"string","internalType":"string"}],"outputs":[],"stateMutability":"nonpayable"},{"type":"function","name":"setUint256","inputs":[{"name":"slot","type":"bytes32","internalType":"bytes32"},{"name":"value","type":"uint256","internalType":"uint256"}],"outputs":[],"stateMutability":"nonpayable"},{"type":"function","name":"stringMap","inputs":[{"name":"key","type":"uint256","internalType":"uint256"}],"outputs":[{"name":"","type":"string","internalType":"string"}],"stateMutability":"view"},{"type":"event","name":"Initialized","inputs":[{"name":"version","type":"uint64","indexed":false,"internalType":"uint64"}],"anonymous":false},{"type":"error","name":"InvalidInitialization","inputs":[]},{"type":"error","name":"NotInitializing","inputs":[]}],"bytecode":{"object":"0x60808060405234610016576107ca908161001b8239f35b5f80fdfe604060808152600480361015610013575f80fd5b5f91823560e01c80630afb30ba146104df5780631e133d0f1461011757806321f8a721146104b55780632e28d0841461040f57806333598b00146101b35780633848207a146103ea5780633e60bd78146102fb5780634e91db08146102e25780634f3029c2146102e25780635a46e25d146101d35780636e899550146101fd578063986e791a1461018f5780639b22f343146101d3578063a6ed563e146101b3578063c031a1801461018f578063ca446dd914610157578063df6e58d6146101175763f8715b3e146100e3575f80fd5b3461010f57366003190112610113573560243580151580910361010f5760ff8019835416911617905580f35b8280fd5b5080fd5b50903461010f57602036600319011261010f57816101539361014092358152806020522061063f565b9051918291602083526020830190610703565b0390f35b503461010f5736600319011261011357356024356001600160a01b0381169081900361010f5781546001600160a01b03191617905580f35b5082346101b05760203660031901126101b05750610140610153923561063f565b80fd5b50903461010f57602036600319011261010f576020925035549051908152f35b50903461010f57602036600319011261010f5781610153936101409235815260016020522061063f565b8284346101b05761020d366105b6565b909367ffffffffffffffff82116102cf57506102338161022d8454610607565b84610741565b82601f821160011461026b57839482939492610260575b50508160011b915f199060031b1c191617905580f35b01359050848061024a565b601f198216948385526020918286209286905b8882106102b75750508360019596971061029e575b505050811b01905580f35b01355f19600384901b60f8161c19169055848080610293565b8060018496829495870135815501950192019061027e565b634e487b7160e01b845260419052602483fd5b503461010f573660031901126101135760243590355580f35b509190346101135761030c366105b6565b91845260209484865284209267ffffffffffffffff83116103d7575061033c826103368554610607565b85610741565b8394601f831160011461037657509383948293949261036b5750508160011b915f199060031b1c191617905580f35b013590505f8061024a565b90601f198316958486528286209286905b8882106103bf575050836001959697106103a657505050811b01905580f35b01355f19600384901b60f8161c191690555f8080610293565b80600184968294958701358155019501920190610387565b634e487b7160e01b855260419052602484fd5b5082346101b05760203660031901126101b0575060ff60209235541690519015158152f35b8284346101b05761041f366105b6565b909367ffffffffffffffff82116102cf575061043f8161022d8454610607565b82601f821160011461046b578394829394926102605750508160011b915f199060031b1c191617905580f35b601f198216948385526020918286209286905b88821061049d5750508360019596971061029e57505050811b01905580f35b8060018496829495870135815501950192019061047e565b50903461010f57602036600319011261010f57355490516001600160a01b03909116815260209150f35b503461010f576104ee366105b6565b91859391935260019260209184835286209467ffffffffffffffff84116105a357506105248361051e8754610607565b87610741565b8591601f841160011461055d57509282939183928794610552575b50501b915f199060031b1c191617905580f35b013592505f8061053f565b9183601f1981168789528489209489905b8883831061058957505050106103a657505050811b01905580f35b86860135885590960195938401938793509081019061056e565b634e487b7160e01b875260419052602486fd5b6040600319820112610603576004359160243567ffffffffffffffff9283821161060357806023830112156106035781600401359384116106035760248483010111610603576024019190565b5f80fd5b90600182811c92168015610635575b602083101461062157565b634e487b7160e01b5f52602260045260245ffd5b91607f1691610616565b90604051915f9080549061065282610607565b9081865260019283811690815f146106e257506001146106a8575b505050829003601f01601f1916820167ffffffffffffffff81118382101761069457604052565b634e487b7160e01b5f52604160045260245ffd5b9092505f52602091825f2091835f935b8385106106ce57505050508301015f808061066d565b8054888601830152930192849082016106b8565b92935050506020925060ff191682850152151560051b8301015f808061066d565b91908251928382525f5b84811061072d575050825f602080949584010152601f8019910116010190565b60208183018101518483018201520161070d565b90601f811161074f57505050565b5f91825260208220906020601f850160051c8301941061078a575b601f0160051c01915b82811061077f57505050565b818155600101610773565b909250829061076a56fea26469706673582212208a1e318d9c7573b1670800c2bd390b661157540da1605c713bb217bc8df7c85f64736f6c63430008140033","linkReferences":{}},"methodIdentifiers":{"bytesMap(uint256)":"5a46e25d","getAddress(bytes32)":"21f8a721","getBoolean(bytes32)":"3848207a","getBytes(bytes32)":"c031a180","getBytes32(bytes32)":"a6ed563e","getBytesStorage(uint256)":"9b22f343","getString(bytes32)":"986e791a","getStringStorage(uint256)":"df6e58d6","getUint256(bytes32)":"33598b00","setAddress(bytes32,address)":"ca446dd9","setBoolean(bytes32,bool)":"f8715b3e","setBytes(bytes32,bytes)":"2e28d084","setBytes32(bytes32,bytes32)":"4e91db08","setBytesStorage(uint256,bytes)":"0afb30ba","setString(bytes32,string)":"6e899550","setStringStorage(uint256,string)":"3e60bd78","setUint256(bytes32,uint256)":"4f3029c2","stringMap(uint256)":"1e133d0f"},"id":100}