{"abi":[{"type":"constructor","inputs":[],"stateMutability":"nonpayable"},{"type":"function","name":"MAX_BATCH_SIZE","inputs":[],"outputs":[{"name":"","type":"uint256","internalType":"uint256"}],"stateMutability":"view"},{"type":"function","name":"UPGRADE_INTERFACE_VERSION","inputs":[],"outputs":[{"name":"","type":"string","internalType":"string"}],"stateMutability":"view"},{"type":"function","name":"allowance","inputs":[{"name":"owner","type":"address","internalType":"address"},{"name":"spender","type":"address","internalType":"address"}],"outputs":[{"name":"","type":"uint256","internalType":"uint256"}],"stateMutability":"view"},{"type":"function","name":"approve","inputs":[{"name":"spender","type":"address","internalType":"address"},{"name":"value","type":"uint256","internalType":"uint256"}],"outputs":[{"name":"","type":"bool","internalType":"bool"}],"stateMutability":"nonpayable"},{"type":"function","name":"asset","inputs":[],"outputs":[{"name":"","type":"address","internalType":"address"}],"stateMutability":"view"},{"type":"function","name":"balanceOf","inputs":[{"name":"account","type":"address","internalType":"address"}],"outputs":[{"name":"","type":"uint256","internalType":"uint256"}],"stateMutability":"view"},{"type":"function","name":"batchBalanceOf","inputs":[{"name":"accounts","type":"address[]","internalType":"address[]"}],"outputs":[{"name":"balances","type":"uint256[]","internalType":"uint256[]"}],"stateMutability":"view"},{"type":"function","name":"batchGetSsUSDValues","inputs":[{"name":"accounts","type":"address[]","internalType":"address[]"}],"outputs":[{"name":"values","type":"uint256[]","internalType":"uint256[]"}],"stateMutability":"view"},{"type":"function","name":"batchUnwrap","inputs":[{"name":"amounts","type":"uint256[]","internalType":"uint256[]"}],"outputs":[{"name":"totalWssUSD","type":"uint256","internalType":"uint256"},{"name":"totalSsUSD","type":"uint256","internalType":"uint256"}],"stateMutability":"nonpayable"},{"type":"function","name":"batchWrap","inputs":[{"name":"recipients","type":"address[]","internalType":"address[]"},{"name":"amounts","type":"uint256[]","internalType":"uint256[]"}],"outputs":[{"name":"totalSsUSD","type":"uint256","internalType":"uint256"},{"name":"totalWssUSD","type":"uint256","internalType":"uint256"}],"stateMutability":"nonpayable"},{"type":"function","name":"canAccountWrap","inputs":[{"name":"account","type":"address","internalType":"address"},{"name":"amount","type":"uint256","internalType":"uint256"}],"outputs":[{"name":"canWrap","type":"bool","internalType":"bool"},{"name":"reason","type":"uint8","internalType":"uint8"}],"stateMutability":"view"},{"type":"function","name":"convertToAssets","inputs":[{"name":"shares","type":"uint256","internalType":"uint256"}],"outputs":[{"name":"","type":"uint256","internalType":"uint256"}],"stateMutability":"view"},{"type":"function","name":"convertToShares","inputs":[{"name":"assets","type":"uint256","internalType":"uint256"}],"outputs":[{"name":"","type":"uint256","internalType":"uint256"}],"stateMutability":"view"},{"type":"function","name":"dailyWrapAmount","inputs":[{"name":"","type":"address","internalType":"address"}],"outputs":[{"name":"","type":"uint256","internalType":"uint256"}],"stateMutability":"view"},{"type":"function","name":"dailyWrapLimit","inputs":[],"outputs":[{"name":"","type":"uint256","internalType":"uint256"}],"stateMutability":"view"},{"type":"function","name":"decimals","inputs":[],"outputs":[{"name":"","type":"uint8","internalType":"uint8"}],"stateMutability":"pure"},{"type":"function","name":"deposit","inputs":[{"name":"assets","type":"uint256","internalType":"uint256"},{"name":"receiver","type":"address","internalType":"address"}],"outputs":[{"name":"","type":"uint256","internalType":"uint256"}],"stateMutability":"nonpayable"},{"type":"function","name":"depositCap","inputs":[],"outputs":[{"name":"","type":"uint256","internalType":"uint256"}],"stateMutability":"view"},{"type":"function","name":"getAccountDetails","inputs":[{"name":"account","type":"address","internalType":"address"}],"outputs":[{"name":"wssUSDBalance","type":"uint256","internalType":"uint256"},{"name":"ssUSDValue","type":"uint256","internalType":"uint256"},{"name":"percentOfVault","type":"uint256","internalType":"uint256"}],"stateMutability":"view"},{"type":"function","name":"getAccruedYield","inputs":[],"outputs":[{"name":"yieldBps","type":"uint256","internalType":"uint256"}],"stateMutability":"view"},{"type":"function","name":"getLatestSnapshots","inputs":[{"name":"count","type":"uint256","internalType":"uint256"}],"outputs":[{"name":"prices","type":"uint256[]","internalType":"uint256[]"},{"name":"timestamps","type":"uint256[]","internalType":"uint256[]"}],"stateMutability":"view"},{"type":"function","name":"getRateLimitStatus","inputs":[{"name":"account","type":"address","internalType":"address"}],"outputs":[{"name":"remainingDaily","type":"uint256","internalType":"uint256"},{"name":"cooldownRemaining","type":"uint256","internalType":"uint256"},{"name":"canWrap","type":"bool","internalType":"bool"}],"stateMutability":"view"},{"type":"function","name":"getSSUSDByWssUSD","inputs":[{"name":"wssUSDAmount","type":"uint256","internalType":"uint256"}],"outputs":[{"name":"ssUSDAmount","type":"uint256","internalType":"uint256"}],"stateMutability":"view"},{"type":"function","name":"getSharePrice","inputs":[],"outputs":[{"name":"price","type":"uint256","internalType":"uint256"}],"stateMutability":"view"},{"type":"function","name":"getSharePriceHistoryRange","inputs":[{"name":"startIndex","type":"uint256","internalType":"uint256"},{"name":"count","type":"uint256","internalType":"uint256"}],"outputs":[{"name":"prices","type":"uint256[]","internalType":"uint256[]"},{"name":"timestamps","type":"uint256[]","internalType":"uint256[]"}],"stateMutability":"view"},{"type":"function","name":"getSnapshotCount","inputs":[],"outputs":[{"name":"count","type":"uint256","internalType":"uint256"}],"stateMutability":"view"},{"type":"function","name":"getVaultStatistics","inputs":[],"outputs":[{"name":"assets","type":"uint256","internalType":"uint256"},{"name":"supply","type":"uint256","internalType":"uint256"},{"name":"sharePrice","type":"uint256","internalType":"uint256"},{"name":"yieldBps","type":"uint256","internalType":"uint256"},{"name":"snapshotCount","type":"uint256","internalType":"uint256"},{"name":"dailyLimit","type":"uint256","internalType":"uint256"},{"name":"cooldown","type":"uint256","internalType":"uint256"}],"stateMutability":"view"},{"type":"function","name":"getVaultStatus","inputs":[],"outputs":[{"name":"assets","type":"uint256","internalType":"uint256"},{"name":"supply","type":"uint256","internalType":"uint256"},{"name":"sharePrice","type":"uint256","internalType":"uint256"},{"name":"cap","type":"uint256","internalType":"uint256"},{"name":"deposited","type":"uint256","internalType":"uint256"},{"name":"remainingCap","type":"uint256","internalType":"uint256"},{"name":"isPaused","type":"bool","internalType":"bool"}],"stateMutability":"view"},{"type":"function","name":"getWssUSDBySSUSD","inputs":[{"name":"ssUSDAmount","type":"uint256","internalType":"uint256"}],"outputs":[{"name":"wssUSDAmount","type":"uint256","internalType":"uint256"}],"stateMutability":"view"},{"type":"function","name":"getYieldOverPeriod","inputs":[{"name":"periodSeconds","type":"uint256","internalType":"uint256"}],"outputs":[{"name":"yieldBps","type":"uint256","internalType":"uint256"},{"name":"annualizedBps","type":"uint256","internalType":"uint256"}],"stateMutability":"view"},{"type":"function","name":"getssUSDValue","inputs":[{"name":"account","type":"address","internalType":"address"}],"outputs":[{"name":"value","type":"uint256","internalType":"uint256"}],"stateMutability":"view"},{"type":"function","name":"initialize","inputs":[{"name":"owner_","type":"address","internalType":"address"},{"name":"ssUSD_","type":"address","internalType":"address"}],"outputs":[],"stateMutability":"nonpayable"},{"type":"function","name":"lastWrapDay","inputs":[{"name":"","type":"address","internalType":"address"}],"outputs":[{"name":"","type":"uint256","internalType":"uint256"}],"stateMutability":"view"},{"type":"function","name":"lastWrapTime","inputs":[{"name":"","type":"address","internalType":"address"}],"outputs":[{"name":"","type":"uint256","internalType":"uint256"}],"stateMutability":"view"},{"type":"function","name":"maxDeposit","inputs":[{"name":"receiver","type":"address","internalType":"address"}],"outputs":[{"name":"maxAssets","type":"uint256","internalType":"uint256"}],"stateMutability":"view"},{"type":"function","name":"maxMint","inputs":[{"name":"receiver","type":"address","internalType":"address"}],"outputs":[{"name":"maxShares","type":"uint256","internalType":"uint256"}],"stateMutability":"view"},{"type":"function","name":"maxRedeem","inputs":[{"name":"owner","type":"address","internalType":"address"}],"outputs":[{"name":"maxShares","type":"uint256","internalType":"uint256"}],"stateMutability":"view"},{"type":"function","name":"maxWithdraw","inputs":[{"name":"owner","type":"address","internalType":"address"}],"outputs":[{"name":"maxAssets","type":"uint256","internalType":"uint256"}],"stateMutability":"view"},{"type":"function","name":"mint","inputs":[{"name":"shares","type":"uint256","internalType":"uint256"},{"name":"receiver","type":"address","internalType":"address"}],"outputs":[{"name":"","type":"uint256","internalType":"uint256"}],"stateMutability":"nonpayable"},{"type":"function","name":"name","inputs":[],"outputs":[{"name":"","type":"string","internalType":"string"}],"stateMutability":"view"},{"type":"function","name":"owner","inputs":[],"outputs":[{"name":"","type":"address","internalType":"address"}],"stateMutability":"view"},{"type":"function","name":"pause","inputs":[],"outputs":[],"stateMutability":"nonpayable"},{"type":"function","name":"paused","inputs":[],"outputs":[{"name":"","type":"bool","internalType":"bool"}],"stateMutability":"view"},{"type":"function","name":"previewBatchUnwrap","inputs":[{"name":"shareAmounts","type":"uint256[]","internalType":"uint256[]"}],"outputs":[{"name":"assets","type":"uint256[]","internalType":"uint256[]"}],"stateMutability":"view"},{"type":"function","name":"previewBatchWrap","inputs":[{"name":"amounts","type":"uint256[]","internalType":"uint256[]"}],"outputs":[{"name":"shares","type":"uint256[]","internalType":"uint256[]"}],"stateMutability":"view"},{"type":"function","name":"previewDeposit","inputs":[{"name":"assets","type":"uint256","internalType":"uint256"}],"outputs":[{"name":"","type":"uint256","internalType":"uint256"}],"stateMutability":"view"},{"type":"function","name":"previewMint","inputs":[{"name":"shares","type":"uint256","internalType":"uint256"}],"outputs":[{"name":"","type":"uint256","internalType":"uint256"}],"stateMutability":"view"},{"type":"function","name":"previewRedeem","inputs":[{"name":"shares","type":"uint256","internalType":"uint256"}],"outputs":[{"name":"","type":"uint256","internalType":"uint256"}],"stateMutability":"view"},{"type":"function","name":"previewWithdraw","inputs":[{"name":"assets","type":"uint256","internalType":"uint256"}],"outputs":[{"name":"","type":"uint256","internalType":"uint256"}],"stateMutability":"view"},{"type":"function","name":"proxiableUUID","inputs":[],"outputs":[{"name":"","type":"bytes32","internalType":"bytes32"}],"stateMutability":"view"},{"type":"function","name":"redeem","inputs":[{"name":"shares","type":"uint256","internalType":"uint256"},{"name":"receiver","type":"address","internalType":"address"},{"name":"owner","type":"address","internalType":"address"}],"outputs":[{"name":"","type":"uint256","internalType":"uint256"}],"stateMutability":"nonpayable"},{"type":"function","name":"renounceOwnership","inputs":[],"outputs":[],"stateMutability":"nonpayable"},{"type":"function","name":"setDailyWrapLimit","inputs":[{"name":"newLimit","type":"uint256","internalType":"uint256"}],"outputs":[],"stateMutability":"nonpayable"},{"type":"function","name":"setDepositCap","inputs":[{"name":"newCap","type":"uint256","internalType":"uint256"}],"outputs":[],"stateMutability":"nonpayable"},{"type":"function","name":"setSnapshotInterval","inputs":[{"name":"newInterval","type":"uint256","internalType":"uint256"}],"outputs":[],"stateMutability":"nonpayable"},{"type":"function","name":"setWrapCooldown","inputs":[{"name":"newCooldown","type":"uint256","internalType":"uint256"}],"outputs":[],"stateMutability":"nonpayable"},{"type":"function","name":"sharePriceHistory","inputs":[{"name":"","type":"uint256","internalType":"uint256"}],"outputs":[{"name":"price","type":"uint256","internalType":"uint256"},{"name":"timestamp","type":"uint256","internalType":"uint256"},{"name":"totalAssets","type":"uint256","internalType":"uint256"},{"name":"totalSupply","type":"uint256","internalType":"uint256"}],"stateMutability":"view"},{"type":"function","name":"snapshotInterval","inputs":[],"outputs":[{"name":"","type":"uint256","internalType":"uint256"}],"stateMutability":"view"},{"type":"function","name":"symbol","inputs":[],"outputs":[{"name":"","type":"string","internalType":"string"}],"stateMutability":"view"},{"type":"function","name":"totalAssets","inputs":[],"outputs":[{"name":"","type":"uint256","internalType":"uint256"}],"stateMutability":"view"},{"type":"function","name":"totalDeposited","inputs":[],"outputs":[{"name":"","type":"uint256","internalType":"uint256"}],"stateMutability":"view"},{"type":"function","name":"totalSupply","inputs":[],"outputs":[{"name":"","type":"uint256","internalType":"uint256"}],"stateMutability":"view"},{"type":"function","name":"transfer","inputs":[{"name":"to","type":"address","internalType":"address"},{"name":"value","type":"uint256","internalType":"uint256"}],"outputs":[{"name":"","type":"bool","internalType":"bool"}],"stateMutability":"nonpayable"},{"type":"function","name":"transferFrom","inputs":[{"name":"from","type":"address","internalType":"address"},{"name":"to","type":"address","internalType":"address"},{"name":"value","type":"uint256","internalType":"uint256"}],"outputs":[{"name":"","type":"bool","internalType":"bool"}],"stateMutability":"nonpayable"},{"type":"function","name":"transferOwnership","inputs":[{"name":"newOwner","type":"address","internalType":"address"}],"outputs":[],"stateMutability":"nonpayable"},{"type":"function","name":"triggerSnapshot","inputs":[],"outputs":[],"stateMutability":"nonpayable"},{"type":"function","name":"unpause","inputs":[],"outputs":[],"stateMutability":"nonpayable"},{"type":"function","name":"unwrap","inputs":[{"name":"wssUSDAmount","type":"uint256","internalType":"uint256"}],"outputs":[{"name":"ssUSDAmount","type":"uint256","internalType":"uint256"}],"stateMutability":"nonpayable"},{"type":"function","name":"upgradeToAndCall","inputs":[{"name":"newImplementation","type":"address","internalType":"address"},{"name":"data","type":"bytes","internalType":"bytes"}],"outputs":[],"stateMutability":"payable"},{"type":"function","name":"withdraw","inputs":[{"name":"assets","type":"uint256","internalType":"uint256"},{"name":"receiver","type":"address","internalType":"address"},{"name":"owner","type":"address","internalType":"address"}],"outputs":[{"name":"","type":"uint256","internalType":"uint256"}],"stateMutability":"nonpayable"},{"type":"function","name":"wrap","inputs":[{"name":"ssUSDAmount","type":"uint256","internalType":"uint256"}],"outputs":[{"name":"wssUSDAmount","type":"uint256","internalType":"uint256"}],"stateMutability":"nonpayable"},{"type":"function","name":"wrapCooldown","inputs":[],"outputs":[{"name":"","type":"uint256","internalType":"uint256"}],"stateMutability":"view"},{"type":"event","name":"Approval","inputs":[{"name":"owner","type":"address","indexed":true,"internalType":"address"},{"name":"spender","type":"address","indexed":true,"internalType":"address"},{"name":"value","type":"uint256","indexed":false,"internalType":"uint256"}],"anonymous":false},{"type":"event","name":"BatchUnwrapped","inputs":[{"name":"caller","type":"address","indexed":true,"internalType":"address"},{"name":"totalWssUSD","type":"uint256","indexed":false,"internalType":"uint256"},{"name":"totalSsUSD","type":"uint256","indexed":false,"internalType":"uint256"},{"name":"count","type":"uint256","indexed":false,"internalType":"uint256"}],"anonymous":false},{"type":"event","name":"BatchWrapped","inputs":[{"name":"caller","type":"address","indexed":true,"internalType":"address"},{"name":"totalSsUSD","type":"uint256","indexed":false,"internalType":"uint256"},{"name":"totalWssUSD","type":"uint256","indexed":false,"internalType":"uint256"},{"name":"count","type":"uint256","indexed":false,"internalType":"uint256"}],"anonymous":false},{"type":"event","name":"DailyWrapLimitUpdated","inputs":[{"name":"oldLimit","type":"uint256","indexed":false,"internalType":"uint256"},{"name":"newLimit","type":"uint256","indexed":false,"internalType":"uint256"}],"anonymous":false},{"type":"event","name":"Deposit","inputs":[{"name":"sender","type":"address","indexed":true,"internalType":"address"},{"name":"owner","type":"address","indexed":true,"internalType":"address"},{"name":"assets","type":"uint256","indexed":false,"internalType":"uint256"},{"name":"shares","type":"uint256","indexed":false,"internalType":"uint256"}],"anonymous":false},{"type":"event","name":"DepositCapUpdated","inputs":[{"name":"oldCap","type":"uint256","indexed":false,"internalType":"uint256"},{"name":"newCap","type":"uint256","indexed":false,"internalType":"uint256"}],"anonymous":false},{"type":"event","name":"Initialized","inputs":[{"name":"version","type":"uint64","indexed":false,"internalType":"uint64"}],"anonymous":false},{"type":"event","name":"OwnershipTransferred","inputs":[{"name":"previousOwner","type":"address","indexed":true,"internalType":"address"},{"name":"newOwner","type":"address","indexed":true,"internalType":"address"}],"anonymous":false},{"type":"event","name":"Paused","inputs":[{"name":"account","type":"address","indexed":false,"internalType":"address"}],"anonymous":false},{"type":"event","name":"SharePriceSnapshotRecorded","inputs":[{"name":"price","type":"uint256","indexed":false,"internalType":"uint256"},{"name":"totalAssets","type":"uint256","indexed":false,"internalType":"uint256"},{"name":"totalSupply","type":"uint256","indexed":false,"internalType":"uint256"}],"anonymous":false},{"type":"event","name":"SnapshotIntervalUpdated","inputs":[{"name":"oldInterval","type":"uint256","indexed":false,"internalType":"uint256"},{"name":"newInterval","type":"uint256","indexed":false,"internalType":"uint256"}],"anonymous":false},{"type":"event","name":"Transfer","inputs":[{"name":"from","type":"address","indexed":true,"internalType":"address"},{"name":"to","type":"address","indexed":true,"internalType":"address"},{"name":"value","type":"uint256","indexed":false,"internalType":"uint256"}],"anonymous":false},{"type":"event","name":"Unpaused","inputs":[{"name":"account","type":"address","indexed":false,"internalType":"address"}],"anonymous":false},{"type":"event","name":"Unwrapped","inputs":[{"name":"account","type":"address","indexed":true,"internalType":"address"},{"name":"wssUSDAmount","type":"uint256","indexed":false,"internalType":"uint256"},{"name":"ssUSDAmount","type":"uint256","indexed":false,"internalType":"uint256"}],"anonymous":false},{"type":"event","name":"Upgraded","inputs":[{"name":"implementation","type":"address","indexed":true,"internalType":"address"}],"anonymous":false},{"type":"event","name":"Withdraw","inputs":[{"name":"sender","type":"address","indexed":true,"internalType":"address"},{"name":"receiver","type":"address","indexed":true,"internalType":"address"},{"name":"owner","type":"address","indexed":true,"internalType":"address"},{"name":"assets","type":"uint256","indexed":false,"internalType":"uint256"},{"name":"shares","type":"uint256","indexed":false,"internalType":"uint256"}],"anonymous":false},{"type":"event","name":"WrapCooldownUpdated","inputs":[{"name":"oldCooldown","type":"uint256","indexed":false,"internalType":"uint256"},{"name":"newCooldown","type":"uint256","indexed":false,"internalType":"uint256"}],"anonymous":false},{"type":"event","name":"Wrapped","inputs":[{"name":"account","type":"address","indexed":true,"internalType":"address"},{"name":"ssUSDAmount","type":"uint256","indexed":false,"internalType":"uint256"},{"name":"wssUSDAmount","type":"uint256","indexed":false,"internalType":"uint256"}],"anonymous":false},{"type":"error","name":"AddressEmptyCode","inputs":[{"name":"target","type":"address","internalType":"address"}]},{"type":"error","name":"AddressInsufficientBalance","inputs":[{"name":"account","type":"address","internalType":"address"}]},{"type":"error","name":"ArrayLengthMismatch","inputs":[]},{"type":"error","name":"BatchTooLarge","inputs":[]},{"type":"error","name":"CooldownActive","inputs":[]},{"type":"error","name":"DailyLimitExceeded","inputs":[]},{"type":"error","name":"DepositCapExceeded","inputs":[]},{"type":"error","name":"ERC1967InvalidImplementation","inputs":[{"name":"implementation","type":"address","internalType":"address"}]},{"type":"error","name":"ERC1967NonPayable","inputs":[]},{"type":"error","name":"ERC20InsufficientAllowance","inputs":[{"name":"spender","type":"address","internalType":"address"},{"name":"allowance","type":"uint256","internalType":"uint256"},{"name":"needed","type":"uint256","internalType":"uint256"}]},{"type":"error","name":"ERC20InsufficientBalance","inputs":[{"name":"sender","type":"address","internalType":"address"},{"name":"balance","type":"uint256","internalType":"uint256"},{"name":"needed","type":"uint256","internalType":"uint256"}]},{"type":"error","name":"ERC20InvalidApprover","inputs":[{"name":"approver","type":"address","internalType":"address"}]},{"type":"error","name":"ERC20InvalidReceiver","inputs":[{"name":"receiver","type":"address","internalType":"address"}]},{"type":"error","name":"ERC20InvalidSender","inputs":[{"name":"sender","type":"address","internalType":"address"}]},{"type":"error","name":"ERC20InvalidSpender","inputs":[{"name":"spender","type":"address","internalType":"address"}]},{"type":"error","name":"ERC4626ExceededMaxDeposit","inputs":[{"name":"receiver","type":"address","internalType":"address"},{"name":"assets","type":"uint256","internalType":"uint256"},{"name":"max","type":"uint256","internalType":"uint256"}]},{"type":"error","name":"ERC4626ExceededMaxMint","inputs":[{"name":"receiver","type":"address","internalType":"address"},{"name":"shares","type":"uint256","internalType":"uint256"},{"name":"max","type":"uint256","internalType":"uint256"}]},{"type":"error","name":"ERC4626ExceededMaxRedeem","inputs":[{"name":"owner","type":"address","internalType":"address"},{"name":"shares","type":"uint256","internalType":"uint256"},{"name":"max","type":"uint256","internalType":"uint256"}]},{"type":"error","name":"ERC4626ExceededMaxWithdraw","inputs":[{"name":"owner","type":"address","internalType":"address"},{"name":"assets","type":"uint256","internalType":"uint256"},{"name":"max","type":"uint256","internalType":"uint256"}]},{"type":"error","name":"EmptyArray","inputs":[]},{"type":"error","name":"EnforcedPause","inputs":[]},{"type":"error","name":"ExpectedPause","inputs":[]},{"type":"error","name":"FailedInnerCall","inputs":[]},{"type":"error","name":"InvalidAddress","inputs":[]},{"type":"error","name":"InvalidDepositCap","inputs":[]},{"type":"error","name":"InvalidInitialization","inputs":[]},{"type":"error","name":"MathOverflowedMulDiv","inputs":[]},{"type":"error","name":"NotInitializing","inputs":[]},{"type":"error","name":"OwnableInvalidOwner","inputs":[{"name":"owner","type":"address","internalType":"address"}]},{"type":"error","name":"OwnableUnauthorizedAccount","inputs":[{"name":"account","type":"address","internalType":"address"}]},{"type":"error","name":"RateLimitExceeded","inputs":[]},{"type":"error","name":"SafeERC20FailedOperation","inputs":[{"name":"token","type":"address","internalType":"address"}]},{"type":"error","name":"UUPSUnauthorizedCallContext","inputs":[]},{"type":"error","name":"UUPSUnsupportedProxiableUUID","inputs":[{"name":"slot","type":"bytes32","internalType":"bytes32"}]}],"bytecode":{"object":"0x60a08060405234620000d157306080527ff0c57e16840df040f15088dc2f81fe391c3923bec73e23a9662efc9c229c6a009081549060ff8260401c16620000c257506001600160401b036002600160401b0319828216016200007c575b60405161381d9081620000d6823960805181818161140a01526114d60152f35b6001600160401b031990911681179091556040519081527fc7f505b2f371ae2175ee4913f4499e1f2633a7b5936321eed1cdaeb6115181d290602090a15f80806200005c565b63f92ee8a960e01b8152600490fd5b5f80fdfe60406080815260049081361015610014575f80fd5b5f91823560e01c9081622e87c8146121fd57816301e1d114146121e057816306fdde031461213957816307059a3b1461206057816307a2d13a1461167357816307d0413c14612041578163095ea7b314611f985781630a28a47714611f785781630c3cc61a14611f0757816314d6a42d14611ee757816318160ddd14611ebc5781631e66bb1914611e6757816323b872dd14611e2a5781632aceb53414611d6a5781632bd1d14114611cf15781632fdc19a214611cd4578163313ce56714611cb85781633268ed6214611c63578163376028d714611c4457816338d52e0f14611c0f5781633f4ba83a14611b98578163402d267d14611b71578163485cc955146116ae57816348c04d0e146116785781634cdad506146116735781634f1ef2861461145b57816352d1902d146113f55781635b1dac60146113d85781635c675bc0146112cc5781635c975abb1461129c5781636b05f58f146112475781636d50957d1461121c5781636e553f65146111f45781636ee961e414610f8657816370a0823114610f3f578163715018a614610ed657816374a6f84014610eb7578163764e57fe14610e62578163778b4e9914610e1c5781637960066014610da85781637f89162714610d885781638456cb5914610d215781638665120314610cce5781638da5cb5b14610c9957816394bf804d14610c3657816395d89b4114610b59578163a2159dc514610ad5578163a4a182f214610ab1578163a9059cbb14610a80578163ad3cb1cc14610a43578163aede67ea14610947578163b3d7f6b914610927578163b460af94146108c0578163ba087652146108a4578163bcbcf14814610885578163c63d75b61461085e578163c6e6f592146103bf578163c9913e7e14610826578163ce96cb7714610800578163cfdbf254146107e4578163d905777e146107b7578163dbd5edc71461079a578163dc362d6414610760578163dd62ed3e14610719578163de0e9a3e14610694578163df24e8bd14610662578163ea598cb0146104d3578163eab8e2b8146103c457508063ef8b30f7146103bf578063f2fde38b1461038f578063f630fce2146103585763ff50abdc14610337575f80fd5b346103545781600319360112610354576020906001549051908152f35b5080fd5b50346103545760203660031901126103545760209181906001600160a01b0361037f61241c565b1681526003845220549051908152f35b82346103bc5760203660031901126103bc576103b96103ac61241c565b6103b46125ff565b612637565b80f35b80fd5b6125e1565b919050346104cf5760203660031901126104cf576060926103e361241c565b6002549093816104825750505f19925b600554806104435750505b60ff5f805160206137a88339815191525416159081610439575b81610430575b82519384526020840152151590820152f35b8015915061041e565b8315159150610418565b6001600160a01b03909116825260066020528282205461046391906127c1565b4281111561047c5761047791504290612f9a565b6103fe565b506103fe565b6001600160a01b038516835260205282822054620151804204036104c9576003602052828220545b808211156104c1576104bb91612f9a565b926103f3565b5050806104bb565b816104aa565b8280fd5b919050346104cf57602092836003193601126103bc578235926104f4612f70565b6005548015159081610645575b5061063757600254806105ee575b50815480151590816105d9575b506105cb578391839133825260068752428383205562015180420490808852818484205414155f146105af573383528752828220556003865220555b6105623383612926565b9161056f816001546127c1565b60015561057a613004565b815190815282848201527f727200b48f3c812bfb404b578574e1c03694edb122d80fa6dcb352a9e4f8a938823392a251908152f35b505090915060038552206105c48382546127c1565b9055610558565b82516324d758c360e21b8152fd5b90506105e7856001546127c1565b115f61051c565b338352818652838320546201518042040361062d576003865261061485858520546127c1565b1161061f575f61050f565b8251630652f4c560e21b8152fd5b61061485846127c1565b825163aa9a98df60e01b8152fd5b61065a915033845260068752848420546127c1565b42105f610501565b8284346103bc5760203660031901126103bc57506106836106909235613432565b9290915192839283612584565b0390f35b83833461035457602036600319011261035457602092356106b3612f70565b6106be33338361296a565b928360015410155f1461071157506106d883600154612f9a565b6001555b815190815282848201527ff64ae1cc3e0e07da9c895b3225439175cab5838aca24c4e74852704858c96a7b823392a251908152f35b6001556106dc565b5050346103545780600319360112610354578060209261073761241c565b610748610742612432565b916124ab565b6001600160a01b039091168252845220549051908152f35b8284346103bc57816003193601126103bc575060ff61078961078061241c565b602435906135f7565b835191151582529091166020820152f35b505034610354578160031936011261035457602091549051908152f35b505034610354576020366003190112610354576020906107dd6107d861241c565b61333c565b9051908152f35b5050346103545781600319360112610354576020905160648152f35b505034610354576020366003190112610354576020906107dd61082161241c565b6132fa565b5050346103545760203660031901126103545760209181906001600160a01b0361084e61241c565b1681526006845220549051908152f35b5050346103545760203660031901126103545760209061087c61241c565b506107dd6132c4565b5050346103545781600319360112610354576020906007549051908152f35b505034610354576020906107dd6108ba366125ac565b9161296a565b8284346103bc57506108d1366125ac565b9291936108dd846132fa565b8086116109055750506108ff90846108f66020966129b2565b94859233612b9b565b51908152f35b9251633fa733bb60e21b8152948594610923949350909185016127a3565b0390fd5b8284346103bc5760203660031901126103bc57506107dd60209235612a57565b8383346103545781600319360112610354576109616128a4565b915f80516020613728833981519152549182155f14610a035760e09450670de0b6b3a7640000915b80549081158015806109f8575b156109e75750506109a960015482612f9a565b925b6001549260ff5f805160206137a8833981519152541695815197885260208801528601526060850152608084015260a0830152151560c0820152f35b939093156109ab575f1993506109ab565b506001548311610996565b670de0b6b3a7640000808502908582041485151715610a305760e0955083610a2a91612e18565b91610989565b634e487b7160e01b835260118652602483fd5b505034610354578160031936011261035457805161069091610a6482612512565b60058252640352e302e360dc1b602083015251918291826123af565b505034610354578060031936011261035457602090610aaa610aa061241c565b60243590336126e0565b5160018152f35b8284346103bc57816003193601126103bc5750610683610690926024359035613378565b839150346103545760203660031901126103545780356001600160401b0381116104cf57610b059136910161237b565b610b0e816131c3565b925b818110610b2c5784516020808252819061069090820187612448565b80610b44610b3e610b54938587613188565b356129e9565b610b4e82876131f5565b5261317a565b610b10565b505034610354578160031936011261035457805190827f52c63247e1f47db19d5ce0460030c497f067ca4cebf71ba98eeadabe20bace048054610b9b816126a8565b80865291600191808316908115610c0b5750600114610bd0575b6106908686610bc6828b0383612548565b51918291826123af565b835260208084209096505b828410610bf8575050508261069094610bc692820101945f610bb5565b8054868501880152928601928101610bdb565b90506106909750610bc69450602092508693915060ff191682840152151560051b820101945f610bb5565b905082346103bc57826003193601126103bc5750803591610c55612432565b91610c5e6132c4565b808511610c7e5750506108ff83610c76602095612a57565b809433612a8e565b8461092392935194859463284ff66760e01b865285016127a3565b5050346103545781600319360112610354575f805160206137088339815191525490516001600160a01b039091168152602090f35b919050346104cf5760203660031901126104cf577ffbe912fdd0185617e8cafd12d97b59175b90e15f5c629faf6413469af54ee0809135610d0d6125ff565b83549080855582519182526020820152a180f35b50503461035457816003193601126103545760207f62e78cea01bee320cd4e420270b5ea74000d11b0c9f74754ebdbfc544b05a25891610d5f6125ff565b610d67612f70565b5f805160206137a8833981519152805460ff1916600117905551338152a180f35b8284346103bc5760203660031901126103bc57506107dd60209235612a20565b839150346103545760203660031901126103545780356001600160401b0381116104cf57610dd89136910161237b565b610de1816131c3565b925b818110610dff5784516020808252819061069090820187612448565b80610b44610e11610e17938587613188565b35612a20565b610de3565b505034610354576020366003190112610354576020916107dd9082906001600160a01b03610e4861241c565b1681525f805160206136e883398151915285522054612a20565b919050346104cf5760203660031901126104cf577fbc5143323f071162f198e76b63f536d7cdbd14a00636421b821a264637d9b00e9135610ea16125ff565b600854908060085582519182526020820152a180f35b5050346103545781600319360112610354576020906005549051908152f35b83346103bc57806003193601126103bc57610eef6125ff565b5f8051602061370883398151915280546001600160a01b0319811690915581906001600160a01b03167f8be0079c531659141344cd1fd0a4f28419497f9722a3daafe3b4186f6b6457e08280a380f35b505034610354576020366003190112610354576020906107dd610f6061241c565b6001600160a01b03165f9081525f805160206136e8833981519152602052604090205490565b839150346103545782600319360112610354576001600160401b039080358281116111f057610fb8903690830161237b565b9190926024359081116111ec57610fd2903690830161237b565b610fdd959195612f70565b8195829585156111dc578286036111cc57606486116111bc57835b86811061105e5750505050505061100d613004565b7f4ef7f84d5fc65e3b1071fb8a7bda6a98b57522f4854be080c490fb30b7d558bc84518061104f33948688846040919493926060820195825260208201520152565b0390a282519182526020820152f35b96976001600160a01b0397908861107e611079848b87613188565b613198565b16156111ac5761108f828686613188565b35156111a0578554801515908161117f575b5061116f578a906110b3838787613188565b356110bf848b87613188565b6110c890613198565b6110d191612926565b9a8b916110df858989613188565b356001908154906110ef916127c1565b90556110fc858989613188565b35611106916127c1565b9b611110916127c1565b9961111c848b87613188565b61112590613198565b611130858989613188565b35928451938452602084015216917f727200b48f3c812bfb404b578574e1c03694edb122d80fa6dcb352a9e4f8a93891a261116a9061317a565b610ff8565b8a516324d758c360e21b81528790fd5b9050611199600154611192858989613188565b35906127c1565b118c6110a1565b98975061116a9061317a565b8a5163e6c4247b60e01b81528790fd5b88516305beb17160e11b81528590fd5b885163512509d360e11b81528590fd5b885163521299a960e01b81528590fd5b8480fd5b8380fd5b8284346103bc57816003193601126103bc57506107dd602092611215612432565b9035612926565b905082346103bc5760203660031901126103bc575061123b90356134ce565b82519182526020820152f35b919050346104cf5760203660031901126104cf577f789a7493d7e549a55755e4fd3fb2343b1a2f0679361f609b6074022677bfba8491356112866125ff565b600554908060055582519182526020820152a180f35b50503461035457816003193601126103545760209060ff5f805160206137a8833981519152541690519015158152f35b8284346103bc57806003193601126103bc576112e66128a4565b915f80516020613728833981519152549182155f1461139c57670de0b6b3a7640000905b670de0b6b3a764000081818411611351575b505060e09550600754916002549360055495815197885260208801528601526060850152608084015260a083015260c0820152f35b909150670de0b6b3a763ffff198301908382116113895761271091828102928184041490151715611389575060e0965004868061131c565b634e487b7160e01b815260118852602490fd5b670de0b6b3a76400008085029085820414851517156113c557836113bf91612e18565b9061130a565b634e487b7160e01b825260118652602482fd5b5050346103545781600319360112610354576020906107dd61312c565b8284346103bc57806003193601126103bc57507f00000000000000000000000000000000000000000000000000000000000000006001600160a01b0316300361144e57602090515f805160206137488339815191528152f35b5163703e46dd60e11b8152fd5b918091506003193601126104cf5761147161241c565b9060249384356001600160401b038111610354573660238201121561035457808501359361149e85612569565b6114aa85519182612548565b85815260209586820193368a838301011161163d578186928b8a93018737830101526001600160a01b037f00000000000000000000000000000000000000000000000000000000000000008116308114908115611658575b506116485761150f6125ff565b85516352d1902d60e01b81529083169680828a818b5afa9182918793611614575b505061154c5750505050505191634c9c8ce360e01b8352820152fd5b86899689925f80516020613748833981519152908181036115ff5750853b156115ea5780546001600160a01b0319168317905551869392917fbc7cd75a20ee27fd9adebab32041f755214dbc6bffa90cc0225b39da2e5c2d3b8580a28251156115ce5750506115ca9382915190845af46115c4612d48565b91612d77565b5080f35b935093505050346115de57505080f35b63b398979f60e01b8152fd5b5051634c9c8ce360e01b815291820152859150fd5b848a91845191632a87526960e21b8352820152fd5b9080929350813d8311611641575b61162c8183612548565b8101031261163d5751905f80611530565b8580fd5b503d611622565b855163703e46dd60e11b81528890fd5b9050815f80516020613748833981519152541614155f611502565b6123f6565b9050346104cf5760203660031901126104cf5760209282916001600160a01b036116a061241c565b168252845220549051908152f35b9050346104cf57816003193601126104cf576116c861241c565b916116d1612432565b7ff0c57e16840df040f15088dc2f81fe391c3923bec73e23a9662efc9c229c6a0093845460ff81851c1615926001600160401b039182811680159081611b69575b6001149081611b5f575b159081611b56575b50611b465767ffffffffffffffff198116600117885584611b27575b506001600160a01b039083821615611b1757168015611b0757611761612eb4565b611769612eb4565b61177281612ef5565b9015611afe57905b5f8051602061378883398151915280546001600160a81b03191660a09390931b60ff60a01b16929092171790558351906117b382612512565b601a82526020957f577261707065642053657420537461626c65636f696e20555344000000000000878401528551926117eb84612512565b60068452651ddcdcd554d160d21b88850152611805612eb4565b61180d612eb4565b8051838111611aeb57807f52c63247e1f47db19d5ce0460030c497f067ca4cebf71ba98eeadabe20bace039261184384546126a8565b601f8111611a9a575b508a908d601f8411600114611a385792611a2d575b50508160011b915f199060031b1c19161790555b8251918211611a1a57507f52c63247e1f47db19d5ce0460030c497f067ca4cebf71ba98eeadabe20bace04916118ab83546126a8565b601f81116119d7575b508690601f8311600114611970576118f5949392918a9183611965575b50508160011b915f199060031b1c19161790555b6118ed612eb4565b6103b4612eb4565b6118fd612eb4565b611905612eb4565b5f805160206137a8833981519152805460ff19169055611923612eb4565b61192b578380f35b7fc7f505b2f371ae2175ee4913f4499e1f2633a7b5936321eed1cdaeb6115181d29260ff60401b1981541690555160018152a15f80808380f35b015190505f806118d1565b838a52878a209190601f1984168b5b8a8282106119c15750509160019391856118f598979694106119a9575b505050811b0190556118e5565b01515f1960f88460031b161c191690555f808061199c565b600185968293968601518155019501930161197f565b838a52878a20601f840160051c810191898510611a10575b601f0160051c01905b818110611a0557506118b4565b8a81556001016119f8565b90915081906119ef565b634e487b7160e01b895260419052602488fd5b015190505f80611861565b8581528c81209350601f198516905b8d828210611a84575050908460019594939210611a6c575b505050811b019055611875565b01515f1960f88460031b161c191690555f8080611a5f565b6001859682939686015181550195019301611a47565b909150838d528a8d20601f840160051c8101918c8510611ae1575b849392918f91601f0160051c0191905b828210611ad357505061184c565b81558493506001018e611ac5565b9091508190611ab5565b634e487b7160e01b8b526041835260248bfd5b5060129061177a565b845163e6c4247b60e01b81528690fd5b855163e6c4247b60e01b81528790fd5b68ffffffffffffffffff1916680100000000000000011787555f611740565b855163f92ee8a960e01b81528790fd5b9050155f611724565b303b15915061171c565b869150611712565b50503461035457602036600319011261035457602090611b8f61241c565b506107dd613288565b9050346104cf57826003193601126104cf57611bb26125ff565b5f805160206137a88339815191529081549060ff821615611c01575060ff19169055513381527f5db9ee0a495bf2e6ff9c91a7834c1ba4fdd244a5e8aa4e537bd38aeae4b073aa90602090a180f35b8351638dfc202b60e01b8152fd5b5050346103545781600319360112610354575f805160206137888339815191525490516001600160a01b039091168152602090f35b5050346103545781600319360112610354576020906002549051908152f35b9050346104cf5760203660031901126104cf5735916007548310156103bc5750611c8e60809261247b565b50908154916001810154916003600283015492015492815194855260208501528301526060820152f35b5050346103545781600319360112610354576020905160128152f35b5050346103545781600319360112610354576020906107dd613209565b839150346103545760203660031901126103545780356001600160401b0381116104cf57611d219136910161237b565b611d2a816131c3565b925b818110611d485784516020808252819061069090820187612448565b80610b44611d60610f60611079611d65958789613188565b612a20565b611d2c565b838334610354576020366003190112610354576001600160a01b03611d8d61241c565b1682525f805160206136e88339815191526020528082205491611daf83612a20565b5f8051602061372883398151915254909490918215611e1c5761271091828602928684041486151715611e095750506106909291611dec91612e18565b905b51938493846040919493926060820195825260208201520152565b634e487b7160e01b825260119052602490fd5b905061069092915090611dee565b50503461035457606036600319011261035457602090610aaa611e4b61241c565b611e53612432565b60443591611e628333836127e2565b6126e0565b919050346104cf5760203660031901126104cf577fa79e19015b46e6ef7c83f34bba92e5501ce9e2e08c8ddddaf03fcf24759eeace9135611ea66125ff565b600254908060025582519182526020820152a180f35b5050346103545781600319360112610354576020905f80516020613728833981519152549051908152f35b8284346103bc5760203660031901126103bc57506107dd602092356129e9565b839150346103545760203660031901126103545780356001600160401b0381116104cf57611f379136910161237b565b611f40816131c3565b925b818110611f5e5784516020808252819061069090820187612448565b80610b44610f60611079611f73948688613188565b611f42565b8284346103bc5760203660031901126103bc57506107dd602092356129b2565b9050346104cf57816003193601126104cf57611fb261241c565b60243590331561202a576001600160a01b031691821561201357508083602095611fdb336124ab565b8582528752205582519081527f8c5be1e5ebec7d5bd14f71427d1e84f3dd0314c0f7b2291e5b200ac8c7c3b925843392a35160018152f35b8351634a1406b160e11b8152908101859052602490fd5b835163e602df0560e01b8152808401869052602490fd5b5050346103545781600319360112610354576020906008549051908152f35b83833461035457816003193601126103545761207a6125ff565b6120826128a4565b905f80516020613728833981519152549384155f146120e757506120e15f805160206137c88339815191529394670de0b6b3a7640000925b611dee81516120c8816124e3565b8581524260208201528683820152836060820152612fa7565b0390a180f35b93670de0b6b3a7640000808402908482041484151715612126575f805160206137c883398151915294955090612120816120e193612e18565b926120ba565b634e487b7160e01b855260118652602485fd5b505034610354578160031936011261035457805190827f52c63247e1f47db19d5ce0460030c497f067ca4cebf71ba98eeadabe20bace03805461217b816126a8565b80865291600191808316908115610c0b57506001146121a5576106908686610bc6828b0383612548565b835260208084209096505b8284106121cd575050508261069094610bc692820101945f610bb5565b80548685018801529286019281016121b0565b5050346103545781600319360112610354576020906107dd6128a4565b83915034610354576020806003193601126104cf5781356001600160401b0381116111f05761222f903690840161237b565b90612238612f70565b848094831561236d576064841161235f5750805b8381106122a5575050507fee3d70e5abbf6a2307a9319fec819a7597ce581eda30d375aa572163fc8a659c85518061229833948789846040919493926060820195825260208201520152565b0390a28351928352820152f35b6122b0818585613188565b35156123565761234a9061230961230397986122d833336122d2868b8b613188565b3561296a565b98899160018784825410155f1461234f57506122f5848254612f9a565b90555b611192858a8a613188565b996127c1565b96612315828787613188565b35908a51918252878201527ff64ae1cc3e0e07da9c895b3225439175cab5838aca24c4e74852704858c96a7b8a3392a261317a565b61224c565b90556122f8565b61234a9061317a565b87516305beb17160e11b8152fd5b875163521299a960e01b8152fd5b9181601f840112156123ab578235916001600160401b0383116123ab576020808501948460051b0101116123ab57565b5f80fd5b602080825282518183018190529093925f5b8281106123e257505060409293505f838284010152601f8019910116010190565b8181018601518482016040015285016123c1565b346123ab5760203660031901126123ab576020612414600435612a20565b604051908152f35b600435906001600160a01b03821682036123ab57565b602435906001600160a01b03821682036123ab57565b9081518082526020808093019301915f5b828110612467575050505090565b835185529381019392810192600101612459565b6007548110156124975760075f5260205f209060021b01905f90565b634e487b7160e01b5f52603260045260245ffd5b6001600160a01b03165f9081527f52c63247e1f47db19d5ce0460030c497f067ca4cebf71ba98eeadabe20bace016020526040902090565b608081019081106001600160401b038211176124fe57604052565b634e487b7160e01b5f52604160045260245ffd5b604081019081106001600160401b038211176124fe57604052565b602081019081106001600160401b038211176124fe57604052565b90601f801991011681019081106001600160401b038211176124fe57604052565b6001600160401b0381116124fe57601f01601f191660200190565b909161259b6125a993604084526040840190612448565b916020818403910152612448565b90565b60609060031901126123ab57600435906001600160a01b039060243582811681036123ab579160443590811681036123ab5790565b346123ab5760203660031901126123ab5760206124146004356129e9565b5f80516020613708833981519152546001600160a01b0316330361261f57565b60405163118cdaa760e01b8152336004820152602490fd5b6001600160a01b03908116908115612690575f8051602061370883398151915280546001600160a01b031981168417909155167f8be0079c531659141344cd1fd0a4f28419497f9722a3daafe3b4186f6b6457e05f80a3565b604051631e4fbdf760e01b81525f6004820152602490fd5b90600182811c921680156126d6575b60208310146126c257565b634e487b7160e01b5f52602260045260245ffd5b91607f16916126b7565b916001600160a01b0380841692831561278b5716928315612773575f908382525f805160206136e883398151915280602052604083205491848310612754575082845f80516020613768833981519152959360409388602097528652038282205586815220818154019055604051908152a3565b90506109238460405193849363391434e360e21b8552600485016127a3565b60405163ec442f0560e01b81525f6004820152602490fd5b604051634b637e8f60e11b81525f6004820152602490fd5b604091949392606082019560018060a01b0316825260208201520152565b919082018092116127ce57565b634e487b7160e01b5f52601160045260245ffd5b91906127ed836124ab565b9260018060a01b0390818316915f958387526020526040862054935f19850361281a575b50505050505050565b858510612885575081161561286c578115612853579061283d60409493926124ab565b908552602052039120555f808080808080612811565b604051634a1406b160e11b815260048101869052602490fd5b60405163e602df0560e01b815260048101869052602490fd5b849061092387604051938493637dc7a0d960e11b8552600485016127a3565b5f80516020613788833981519152546040516370a0823160e01b815230600482015290602090829060249082906001600160a01b03165afa90811561291b575f916128ed575090565b906020823d8211612913575b8161290660209383612548565b810103126103bc57505190565b3d91506128f9565b6040513d5f823e3d90fd5b9061292f613288565b80831161294d57506125a990612944836129e9565b92839133612a8e565b61092390604051938493633c8097d960e11b8552600485016127a3565b906129748361333c565b8083116129935750906125a99161298a82612a20565b93849133612b9b565b604051632e52afbb60e21b8152908190610923908587600485016127a3565b5f8051602061372883398151915254600181018091116127ce576129d46128a4565b90600182018092116127ce576125a992612dda565b5f8051602061372883398151915254600181018091116127ce57612a0b6128a4565b90600182018092116127ce576125a992612e22565b612a286128a4565b600181018091116127ce575f805160206137288339815191525490600182018092116127ce576125a992612e22565b612a5f6128a4565b600181018091116127ce575f805160206137288339815191525490600182018092116127ce576125a992612dda565b5f8051602061378883398151915254604080516323b872dd60e01b60208201526001600160a01b03938416602482018190523060448301526064808301889052825295919491939260a08201919084166001600160401b038311828410176124fe57612afb928752612cc7565b16938415612b8457907fdcbc1c05240f31ff3ad067ef1ee35ce4997762752e3a095284754544f4c709d792915f80516020613728833981519152612b408282546127c1565b9055855f525f805160206136e8833981519152602052825f20818154019055855f5f8051602061376883398151915260208651858152a382519182526020820152a3565b825163ec442f0560e01b81525f6004820152602490fd5b6001600160a01b038084169590948583169493909282888703612cb6575b5050861561278b57865f525f805160206136e88339815191529384602052604094855f205491848310612c9857509183612c8b927ffbde797d201c681b91056529119e0b02407c7bb96a4a2c75c01fc9667232c8db979695948b5f5260205203855f20555f805160206137288339815191528381540390555f895f8051602061376883398151915260208851878152a35f8051602061378883398151915254855163a9059cbb60e01b602082015291891660248301819052604480840187905283529816612c86826124e3565b612cc7565b82519182526020820152a4565b905061092384875193849363391434e360e21b8552600485016127a3565b612cc091866127e2565b5f82612bb9565b60018060a01b031690612cf05f80836020829551910182875af1612ce9612d48565b9084612d77565b908151918215159283612d20575b505050612d085750565b60249060405190635274afe760e01b82526004820152fd5b8192935090602091810103126103545760200151908115918215036103bc57505f8080612cfe565b3d15612d72573d90612d5982612569565b91612d676040519384612548565b82523d5f602084013e565b606090565b90612d9e5750805115612d8c57805190602001fd5b604051630a12f52160e11b8152600490fd5b81511580612dd1575b612daf575090565b604051639996b31560e01b81526001600160a01b039091166004820152602490fd5b50803b15612da7565b9190612de7828285612e22565b928215612e045709612df65790565b600181018091116127ce5790565b634e487b7160e01b5f52601260045260245ffd5b8115612e04570490565b9091828202915f1984820993838086109503948086039514612ea75784831115612e9557829109815f038216809204600280826003021880830282030280830282030280830282030280830282030280830282030280920290030293600183805f03040190848311900302920304170290565b60405163227bc15360e01b8152600490fd5b5050906125a99250612e18565b60ff7ff0c57e16840df040f15088dc2f81fe391c3923bec73e23a9662efc9c229c6a005460401c1615612ee357565b604051631afcd79f60e31b8152600490fd5b90604051602081019063313ce56760e01b825260048152612f1581612512565b515f9384928392916001600160a01b03165afa612f30612d48565b9080612f64575b612f41575b508190565b6020818051810103126104cf576020015160ff8111612f3c576001925060ff1690565b50602081511015612f37565b60ff5f805160206137a88339815191525416612f8857565b60405163d93c066560e01b8152600490fd5b919082039182116127ce57565b600754600160401b8110156124fe57806001612fc6920160075561247b565b919091612ff15760608160039251845560208101516001850155604081015160028501550151910155565b634e487b7160e01b5f525f60045260245ffd5b60085480156131295760075480151591826130fd575b50506130fb576130286128a4565b5f80516020613728833981519152545f929190806130aa575f805160206137c88339815191529293506130a5670de0b6b3a7640000915b61308860405161306e816124e3565b848152426020820152856040820152826060820152612fa7565b604051938493846040919493926060820195825260208201520152565b0390a1565b670de0b6b3a7640000938483029483860414831517156130e757506130a56130e1825f805160206137c88339815191529596612e18565b9161305f565b634e487b7160e01b81526011600452602490fd5b565b5f19820192509082116127ce5760016131186131209361247b565b5001546127c1565b42105f8061301a565b50565b5f8051602061372883398151915254801561316d576131496128a4565b90670de0b6b3a7640000918281029281840414901517156127ce576125a991612e18565b50670de0b6b3a764000090565b5f1981146127ce5760010190565b91908110156124975760051b0190565b356001600160a01b03811681036123ab5790565b6001600160401b0381116124fe5760051b60200190565b906131cd826131ac565b6131da6040519182612548565b82815280926131eb601f19916131ac565b0190602036910137565b80518210156124975760209160051b010190565b5f80516020613728833981519152548015613283576132266128a4565b670de0b6b3a764000091828202918083048414901517156127ce5761324a91612e18565b8181111561327d57670de0b6b3a763ffff1981019081116127ce57612710908181029181830414901517156127ce570490565b50505f90565b505f90565b60ff5f805160206137a883398151915254166132c0575f5480156132ba576001548181101561327d576125a991612f9a565b505f1990565b5f90565b60ff5f805160206137a883398151915254166132c0576132e2613288565b5f19908082146132f6576125a991506129e9565b5090565b60ff5f805160206137a88339815191525416613283576001600160a01b03165f9081525f805160206136e883398151915260205260409020546125a990612a20565b60ff5f805160206137a88339815191525416613283576001600160a01b03165f9081525f805160206136e8833981519152602052604090205490565b91906007549081841015613407576133a4916133958592836127c1565b908082116133ff575b50612f9a565b6133ad816131c3565b906133b7816131c3565b935f5b8281106133c8575050509190565b8060016133e06133db6133fa94866127c1565b61247b565b5080546133ed84896131f5565b520154610b4e82896131f5565b6133ba565b90505f61339e565b505060405191506134178261252d565b5f8252604051916134278361252d565b5f83525f3681379190565b9060075491821580156134c6575b6134b757828111156134b25750815b613458816131c3565b90613462816131c3565b935f1981019081115f5b83811061347b57505050509190565b816127ce578060016134936133db6134ad9487612f9a565b5080546134a0848a6131f5565b520154610b4e828a6131f5565b61346c565b61344f565b5060405191506134178261252d565b508015613440565b9060075491600283106135ef575f19908184019384116127ce576134fd6134f48561247b565b50549142612f9a565b9181925f9580805b61357d575b5050505083158015613575575b61356b578181111561356b578161352d91612f9a565b90612710918281029281840414901517156127ce5761354b91612e18565b916301e13380908184029184830414841517156127ce576125a991612e18565b505090505f905f90565b508115613517565b8381018181116127ce576135908161247b565b508460018092015411156135ae57505080156127ce57830180613505565b935093505093506135e59295506135dc816135d36135cb8561247b565b50549661247b565b5001549261247b565b50015490612f9a565b925f80808061350a565b505f91508190565b91909160ff5f805160206137a883398151915254166136de575f92835480151590816136c9575b506136c2576002549081613675575b5050600554801515918261364d575b50506136485760019190565b600490565b6001600160a01b031684526006602052604084205461366c92506127c1565b42105f8061363c565b6001600160a01b0383168552600460205260408520546136aa9190620151804204036136bc57600360205260408620546127c1565b116136b6575f8061362d565b50600390565b856127c1565b5050600290565b90506136d7826001546127c1565b115f61361e565b505f915060019056fe52c63247e1f47db19d5ce0460030c497f067ca4cebf71ba98eeadabe20bace009016d09d72d40fdae2fd8ceac6b6234c7706214fd39c1cd1e609a0528c19930052c63247e1f47db19d5ce0460030c497f067ca4cebf71ba98eeadabe20bace02360894a13ba1a3210667c828492db98dca3e2076cc3735a920a3ca505d382bbcddf252ad1be2c89b69c2b068fc378daa952ba7f163c4a11628f55a4df523b3ef0773e532dfede91f04b12a73d3d2acd361424f41f76b4fb79f090161e36b4e00cd5ed15c6e187e77e9aee88184c21f4f2182ab5827cb3b7e07fbedcd63f0330097f5c42c8e49e242b82b98e529e83dd8f7dd848e3240b35c2bfa4e2cbf80597aa2646970667358221220ce3f2bdb66bca7090ffed8231645363d05a27f5377482d37f0d8bb4ced99afd264736f6c63430008140033","linkReferences":{}},"methodIdentifiers":{"MAX_BATCH_SIZE()":"cfdbf254","UPGRADE_INTERFACE_VERSION()":"ad3cb1cc","allowance(address,address)":"dd62ed3e","approve(address,uint256)":"095ea7b3","asset()":"38d52e0f","balanceOf(address)":"70a08231","batchBalanceOf(address[])":"0c3cc61a","batchGetSsUSDValues(address[])":"2bd1d141","batchUnwrap(uint256[])":"002e87c8","batchWrap(address[],uint256[])":"6ee961e4","canAccountWrap(address,uint256)":"dc362d64","convertToAssets(uint256)":"07a2d13a","convertToShares(uint256)":"c6e6f592","dailyWrapAmount(address)":"f630fce2","dailyWrapLimit()":"376028d7","decimals()":"313ce567","deposit(uint256,address)":"6e553f65","depositCap()":"dbd5edc7","getAccountDetails(address)":"2aceb534","getAccruedYield()":"2fdc19a2","getLatestSnapshots(uint256)":"df24e8bd","getRateLimitStatus(address)":"eab8e2b8","getSSUSDByWssUSD(uint256)":"7f891627","getSharePrice()":"5b1dac60","getSharePriceHistoryRange(uint256,uint256)":"a4a182f2","getSnapshotCount()":"bcbcf148","getVaultStatistics()":"5c675bc0","getVaultStatus()":"aede67ea","getWssUSDBySSUSD(uint256)":"14d6a42d","getYieldOverPeriod(uint256)":"6d50957d","getssUSDValue(address)":"778b4e99","initialize(address,address)":"485cc955","lastWrapDay(address)":"48c04d0e","lastWrapTime(address)":"c9913e7e","maxDeposit(address)":"402d267d","maxMint(address)":"c63d75b6","maxRedeem(address)":"d905777e","maxWithdraw(address)":"ce96cb77","mint(uint256,address)":"94bf804d","name()":"06fdde03","owner()":"8da5cb5b","pause()":"8456cb59","paused()":"5c975abb","previewBatchUnwrap(uint256[])":"79600660","previewBatchWrap(uint256[])":"a2159dc5","previewDeposit(uint256)":"ef8b30f7","previewMint(uint256)":"b3d7f6b9","previewRedeem(uint256)":"4cdad506","previewWithdraw(uint256)":"0a28a477","proxiableUUID()":"52d1902d","redeem(uint256,address,address)":"ba087652","renounceOwnership()":"715018a6","setDailyWrapLimit(uint256)":"1e66bb19","setDepositCap(uint256)":"86651203","setSnapshotInterval(uint256)":"764e57fe","setWrapCooldown(uint256)":"6b05f58f","sharePriceHistory(uint256)":"3268ed62","snapshotInterval()":"07d0413c","symbol()":"95d89b41","totalAssets()":"01e1d114","totalDeposited()":"ff50abdc","totalSupply()":"18160ddd","transfer(address,uint256)":"a9059cbb","transferFrom(address,address,uint256)":"23b872dd","transferOwnership(address)":"f2fde38b","triggerSnapshot()":"07059a3b","unpause()":"3f4ba83a","unwrap(uint256)":"de0e9a3e","upgradeToAndCall(address,bytes)":"4f1ef286","withdraw(uint256,address,address)":"b460af94","wrap(uint256)":"ea598cb0","wrapCooldown()":"74a6f840"},"id":410}