{"abi":[{"type":"constructor","inputs":[],"stateMutability":"nonpayable"},{"type":"function","name":"UPGRADE_INTERFACE_VERSION","inputs":[],"outputs":[{"name":"","type":"string","internalType":"string"}],"stateMutability":"view"},{"type":"function","name":"assetConfigs","inputs":[{"name":"","type":"address","internalType":"address"}],"outputs":[{"name":"enabled","type":"bool","internalType":"bool"},{"name":"minAmount","type":"uint256","internalType":"uint256"},{"name":"maxAmount","type":"uint256","internalType":"uint256"},{"name":"dailyLimit","type":"uint256","internalType":"uint256"},{"name":"dailyVolume","type":"uint256","internalType":"uint256"},{"name":"lastDayReset","type":"uint256","internalType":"uint256"}],"stateMutability":"view"},{"type":"function","name":"authorizedSequencers","inputs":[{"name":"","type":"address","internalType":"address"}],"outputs":[{"name":"","type":"bool","internalType":"bool"}],"stateMutability":"view"},{"type":"function","name":"batches","inputs":[{"name":"","type":"bytes32","internalType":"bytes32"}],"outputs":[{"name":"batchId","type":"bytes32","internalType":"bytes32"},{"name":"merkleRoot","type":"bytes32","internalType":"bytes32"},{"name":"tenantStoreKey","type":"bytes32","internalType":"bytes32"},{"name":"sequenceStart","type":"uint64","internalType":"uint64"},{"name":"sequenceEnd","type":"uint64","internalType":"uint64"},{"name":"paymentCount","type":"uint32","internalType":"uint32"},{"name":"totalAmount","type":"uint256","internalType":"uint256"},{"name":"token","type":"address","internalType":"address"},{"name":"settledAt","type":"uint64","internalType":"uint64"},{"name":"submitter","type":"address","internalType":"address"},{"name":"executed","type":"bool","internalType":"bool"}],"stateMutability":"view"},{"type":"function","name":"configureAsset","inputs":[{"name":"_token","type":"address","internalType":"address"},{"name":"_enabled","type":"bool","internalType":"bool"},{"name":"_minAmount","type":"uint256","internalType":"uint256"},{"name":"_maxAmount","type":"uint256","internalType":"uint256"},{"name":"_dailyLimit","type":"uint256","internalType":"uint256"}],"outputs":[],"stateMutability":"nonpayable"},{"type":"function","name":"getAssetConfig","inputs":[{"name":"_token","type":"address","internalType":"address"}],"outputs":[{"name":"","type":"tuple","internalType":"struct SetPaymentBatch.AssetConfig","components":[{"name":"enabled","type":"bool","internalType":"bool"},{"name":"minAmount","type":"uint256","internalType":"uint256"},{"name":"maxAmount","type":"uint256","internalType":"uint256"},{"name":"dailyLimit","type":"uint256","internalType":"uint256"},{"name":"dailyVolume","type":"uint256","internalType":"uint256"},{"name":"lastDayReset","type":"uint256","internalType":"uint256"}]}],"stateMutability":"view"},{"type":"function","name":"getBatch","inputs":[{"name":"_batchId","type":"bytes32","internalType":"bytes32"}],"outputs":[{"name":"","type":"tuple","internalType":"struct SetPaymentBatch.BatchSettlement","components":[{"name":"batchId","type":"bytes32","internalType":"bytes32"},{"name":"merkleRoot","type":"bytes32","internalType":"bytes32"},{"name":"tenantStoreKey","type":"bytes32","internalType":"bytes32"},{"name":"sequenceStart","type":"uint64","internalType":"uint64"},{"name":"sequenceEnd","type":"uint64","internalType":"uint64"},{"name":"paymentCount","type":"uint32","internalType":"uint32"},{"name":"totalAmount","type":"uint256","internalType":"uint256"},{"name":"token","type":"address","internalType":"address"},{"name":"settledAt","type":"uint64","internalType":"uint64"},{"name":"submitter","type":"address","internalType":"address"},{"name":"executed","type":"bool","internalType":"bool"}]}],"stateMutability":"view"},{"type":"function","name":"getStats","inputs":[],"outputs":[{"name":"_totalPayments","type":"uint256","internalType":"uint256"},{"name":"_totalVolume","type":"uint256","internalType":"uint256"},{"name":"_totalBatches","type":"uint256","internalType":"uint256"},{"name":"_sequencers","type":"uint256","internalType":"uint256"}],"stateMutability":"view"},{"type":"function","name":"initialize","inputs":[{"name":"_owner","type":"address","internalType":"address"},{"name":"_sequencer","type":"address","internalType":"address"},{"name":"_usdcToken","type":"address","internalType":"address"},{"name":"_ssUsdToken","type":"address","internalType":"address"},{"name":"_registry","type":"address","internalType":"address"}],"outputs":[],"stateMutability":"nonpayable"},{"type":"function","name":"isIntentSettled","inputs":[{"name":"_intentId","type":"bytes32","internalType":"bytes32"}],"outputs":[{"name":"","type":"bool","internalType":"bool"}],"stateMutability":"view"},{"type":"function","name":"isNonceUsed","inputs":[{"name":"_payer","type":"address","internalType":"address"},{"name":"_nonce","type":"uint64","internalType":"uint64"}],"outputs":[{"name":"","type":"bool","internalType":"bool"}],"stateMutability":"view"},{"type":"function","name":"owner","inputs":[],"outputs":[{"name":"","type":"address","internalType":"address"}],"stateMutability":"view"},{"type":"function","name":"pause","inputs":[],"outputs":[],"stateMutability":"nonpayable"},{"type":"function","name":"paused","inputs":[],"outputs":[{"name":"","type":"bool","internalType":"bool"}],"stateMutability":"view"},{"type":"function","name":"proxiableUUID","inputs":[],"outputs":[{"name":"","type":"bytes32","internalType":"bytes32"}],"stateMutability":"view"},{"type":"function","name":"registry","inputs":[],"outputs":[{"name":"","type":"address","internalType":"address"}],"stateMutability":"view"},{"type":"function","name":"renounceOwnership","inputs":[],"outputs":[],"stateMutability":"nonpayable"},{"type":"function","name":"sequencerCount","inputs":[],"outputs":[{"name":"","type":"uint256","internalType":"uint256"}],"stateMutability":"view"},{"type":"function","name":"setRegistry","inputs":[{"name":"_registry","type":"address","internalType":"address"}],"outputs":[],"stateMutability":"nonpayable"},{"type":"function","name":"setSequencerAuthorization","inputs":[{"name":"_sequencer","type":"address","internalType":"address"},{"name":"_authorized","type":"bool","internalType":"bool"}],"outputs":[],"stateMutability":"nonpayable"},{"type":"function","name":"settleBatch","inputs":[{"name":"_batchId","type":"bytes32","internalType":"bytes32"},{"name":"_merkleRoot","type":"bytes32","internalType":"bytes32"},{"name":"_tenantStoreKey","type":"bytes32","internalType":"bytes32"},{"name":"_sequenceStart","type":"uint64","internalType":"uint64"},{"name":"_sequenceEnd","type":"uint64","internalType":"uint64"},{"name":"_payments","type":"tuple[]","internalType":"struct SetPaymentBatch.PaymentIntent[]","components":[{"name":"intentId","type":"bytes32","internalType":"bytes32"},{"name":"payer","type":"address","internalType":"address"},{"name":"payee","type":"address","internalType":"address"},{"name":"amount","type":"uint256","internalType":"uint256"},{"name":"token","type":"address","internalType":"address"},{"name":"nonce","type":"uint64","internalType":"uint64"},{"name":"validUntil","type":"uint64","internalType":"uint64"},{"name":"signingHash","type":"bytes32","internalType":"bytes32"}]}],"outputs":[],"stateMutability":"nonpayable"},{"type":"function","name":"settledIntents","inputs":[{"name":"","type":"bytes32","internalType":"bytes32"}],"outputs":[{"name":"","type":"bool","internalType":"bool"}],"stateMutability":"view"},{"type":"function","name":"ssUsdToken","inputs":[],"outputs":[{"name":"","type":"address","internalType":"address"}],"stateMutability":"view"},{"type":"function","name":"totalBatchesSettled","inputs":[],"outputs":[{"name":"","type":"uint256","internalType":"uint256"}],"stateMutability":"view"},{"type":"function","name":"totalPaymentsSettled","inputs":[],"outputs":[{"name":"","type":"uint256","internalType":"uint256"}],"stateMutability":"view"},{"type":"function","name":"totalVolumeSettled","inputs":[],"outputs":[{"name":"","type":"uint256","internalType":"uint256"}],"stateMutability":"view"},{"type":"function","name":"transferOwnership","inputs":[{"name":"newOwner","type":"address","internalType":"address"}],"outputs":[],"stateMutability":"nonpayable"},{"type":"function","name":"unpause","inputs":[],"outputs":[],"stateMutability":"nonpayable"},{"type":"function","name":"upgradeToAndCall","inputs":[{"name":"newImplementation","type":"address","internalType":"address"},{"name":"data","type":"bytes","internalType":"bytes"}],"outputs":[],"stateMutability":"payable"},{"type":"function","name":"usdcToken","inputs":[],"outputs":[{"name":"","type":"address","internalType":"address"}],"stateMutability":"view"},{"type":"function","name":"usedNonces","inputs":[{"name":"","type":"address","internalType":"address"},{"name":"","type":"uint64","internalType":"uint64"}],"outputs":[{"name":"","type":"bool","internalType":"bool"}],"stateMutability":"view"},{"type":"function","name":"verifyPaymentInclusion","inputs":[{"name":"_batchId","type":"bytes32","internalType":"bytes32"},{"name":"_intentId","type":"bytes32","internalType":"bytes32"},{"name":"_proof","type":"bytes32[]","internalType":"bytes32[]"},{"name":"_index","type":"uint256","internalType":"uint256"}],"outputs":[{"name":"","type":"bool","internalType":"bool"}],"stateMutability":"view"},{"type":"event","name":"AssetConfigured","inputs":[{"name":"token","type":"address","indexed":true,"internalType":"address"},{"name":"enabled","type":"bool","indexed":false,"internalType":"bool"},{"name":"minAmount","type":"uint256","indexed":false,"internalType":"uint256"},{"name":"maxAmount","type":"uint256","indexed":false,"internalType":"uint256"},{"name":"dailyLimit","type":"uint256","indexed":false,"internalType":"uint256"}],"anonymous":false},{"type":"event","name":"BatchSettled","inputs":[{"name":"batchId","type":"bytes32","indexed":true,"internalType":"bytes32"},{"name":"paymentsSettled","type":"uint32","indexed":false,"internalType":"uint32"},{"name":"totalAmount","type":"uint256","indexed":false,"internalType":"uint256"},{"name":"gasUsed","type":"uint256","indexed":false,"internalType":"uint256"}],"anonymous":false},{"type":"event","name":"BatchSubmitted","inputs":[{"name":"batchId","type":"bytes32","indexed":true,"internalType":"bytes32"},{"name":"merkleRoot","type":"bytes32","indexed":false,"internalType":"bytes32"},{"name":"paymentCount","type":"uint32","indexed":false,"internalType":"uint32"},{"name":"totalAmount","type":"uint256","indexed":false,"internalType":"uint256"},{"name":"token","type":"address","indexed":true,"internalType":"address"}],"anonymous":false},{"type":"event","name":"Initialized","inputs":[{"name":"version","type":"uint64","indexed":false,"internalType":"uint64"}],"anonymous":false},{"type":"event","name":"OwnershipTransferred","inputs":[{"name":"previousOwner","type":"address","indexed":true,"internalType":"address"},{"name":"newOwner","type":"address","indexed":true,"internalType":"address"}],"anonymous":false},{"type":"event","name":"Paused","inputs":[{"name":"account","type":"address","indexed":false,"internalType":"address"}],"anonymous":false},{"type":"event","name":"PaymentFailed","inputs":[{"name":"batchId","type":"bytes32","indexed":true,"internalType":"bytes32"},{"name":"intentId","type":"bytes32","indexed":true,"internalType":"bytes32"},{"name":"payer","type":"address","indexed":true,"internalType":"address"},{"name":"reason","type":"string","indexed":false,"internalType":"string"}],"anonymous":false},{"type":"event","name":"PaymentSettled","inputs":[{"name":"batchId","type":"bytes32","indexed":true,"internalType":"bytes32"},{"name":"intentId","type":"bytes32","indexed":true,"internalType":"bytes32"},{"name":"payer","type":"address","indexed":true,"internalType":"address"},{"name":"payee","type":"address","indexed":false,"internalType":"address"},{"name":"amount","type":"uint256","indexed":false,"internalType":"uint256"},{"name":"token","type":"address","indexed":false,"internalType":"address"}],"anonymous":false},{"type":"event","name":"SequencerAuthorized","inputs":[{"name":"sequencer","type":"address","indexed":true,"internalType":"address"},{"name":"authorized","type":"bool","indexed":false,"internalType":"bool"}],"anonymous":false},{"type":"event","name":"Unpaused","inputs":[{"name":"account","type":"address","indexed":false,"internalType":"address"}],"anonymous":false},{"type":"event","name":"Upgraded","inputs":[{"name":"implementation","type":"address","indexed":true,"internalType":"address"}],"anonymous":false},{"type":"error","name":"AddressEmptyCode","inputs":[{"name":"target","type":"address","internalType":"address"}]},{"type":"error","name":"AmountAboveMaximum","inputs":[]},{"type":"error","name":"AmountBelowMinimum","inputs":[]},{"type":"error","name":"ArrayLengthMismatch","inputs":[]},{"type":"error","name":"AssetNotEnabled","inputs":[]},{"type":"error","name":"BatchAlreadySettled","inputs":[]},{"type":"error","name":"BatchNotFound","inputs":[]},{"type":"error","name":"DailyLimitExceeded","inputs":[]},{"type":"error","name":"ERC1967InvalidImplementation","inputs":[{"name":"implementation","type":"address","internalType":"address"}]},{"type":"error","name":"ERC1967NonPayable","inputs":[]},{"type":"error","name":"EmptyBatch","inputs":[]},{"type":"error","name":"EnforcedPause","inputs":[]},{"type":"error","name":"ExpectedPause","inputs":[]},{"type":"error","name":"FailedInnerCall","inputs":[]},{"type":"error","name":"IntentAlreadySettled","inputs":[]},{"type":"error","name":"InvalidAddress","inputs":[]},{"type":"error","name":"InvalidInitialization","inputs":[]},{"type":"error","name":"InvalidMerkleRoot","inputs":[]},{"type":"error","name":"InvalidPaymentCount","inputs":[]},{"type":"error","name":"InvalidProof","inputs":[]},{"type":"error","name":"NonceAlreadyUsed","inputs":[]},{"type":"error","name":"NotAuthorizedSequencer","inputs":[]},{"type":"error","name":"NotInitializing","inputs":[]},{"type":"error","name":"OwnableInvalidOwner","inputs":[{"name":"owner","type":"address","internalType":"address"}]},{"type":"error","name":"OwnableUnauthorizedAccount","inputs":[{"name":"account","type":"address","internalType":"address"}]},{"type":"error","name":"PaymentExpired","inputs":[]},{"type":"error","name":"ReentrancyGuardReentrantCall","inputs":[]},{"type":"error","name":"TransferFailed","inputs":[]},{"type":"error","name":"UUPSUnauthorizedCallContext","inputs":[]},{"type":"error","name":"UUPSUnsupportedProxiableUUID","inputs":[{"name":"slot","type":"bytes32","internalType":"bytes32"}]}],"bytecode":{"object":"0x60a080604052346100cc57306080527ff0c57e16840df040f15088dc2f81fe391c3923bec73e23a9662efc9c229c6a009081549060ff8260401c166100bd57506001600160401b036002600160401b031982821601610078575b60405161207390816100d18239608051818181610a510152610b5e0152f35b6001600160401b031990911681179091556040519081527fc7f505b2f371ae2175ee4913f4499e1f2633a7b5936321eed1cdaeb6115181d290602090a15f8080610059565b63f92ee8a960e01b8152600490fd5b5f80fdfe6080806040526004361015610012575f80fd5b5f3560e01c9081630c31a221146111e85750806311eac855146111c05780631459457a14610e1a57806319755728146101ab57806333a87bb114610dc25780633a8a8beb14610dc25780633f4ba83a14610d4d5780634b618d4214610d305780634eb3427a14610d085780634f1ef28614610ae4578063524a6d7714610aa857806352d1902d14610a3f57806356bc28661461094b5780635c975abb1461091d5780635edb61161461083a5780636ec3ab6714610766578063715018a6146106ff5780637609d7f61461068b5780637b103999146106635780638456cb59146105fe57806384b71123146105e15780638da5cb5b146105ad578063a91ee0dc1461056a578063ad3cb1cc14610529578063b3840a37146104bd578063b50054b9146104a0578063c59d48471461046a578063c81e25ab146103b2578063cdd67f1214610395578063ed42136f146101da578063f08d96e3146101ab5763f2fde38b1461017c575f80fd5b346101a75760203660031901126101a7576101a5610198611703565b6101a0611e97565b611e26565b005b5f80fd5b346101a75760203660031901126101a7576004355f526005602052602060ff60405f2054166040519015158152f35b346101a75760203660031901126101a7575f6101406040516101fb81611719565b8281528260208201528260408201528260608201528260808201528260a08201528260c08201528260e0820152826101008201528261012082015201526004355f52600260205261016060405f2061014060405161025881611719565b60ff6006845494858452600181015460208501526002810154604085015263ffffffff60038201546001600160401b03811660608701526001600160401b038160401c16608087015260801c1660a0850152600481015460c08501526001600160401b03600582015460018060a01b03811660e087015260a01c16610100850152015460018060a01b03811661012084015260a01c1615158282015260405192835260208101516020840152604081015160408401526001600160401b0360608201511660608401526001600160401b03608082015116608084015263ffffffff60a08201511660a084015260c081015160c084015260018060a01b0360e08201511660e08401526001600160401b036101008201511661010084015260018060a01b036101208201511661012084015201511515610140820152f35b346101a7575f3660031901126101a7576020600754604051908152f35b346101a75760203660031901126101a7576004355f52600260205261016060405f2060ff815491600181015490600281015460038201549060048301549060066005850154940154946040519788526020880152604087015263ffffffff6001600160401b03928381166060890152838160401c16608089015260801c1660a087015260c086015260018060a01b039182811660e087015260a01c16610100850152811661012084015260a01c161515610140820152f35b346101a7575f3660031901126101a757608060065460075460085460015491604051938452602084015260408301526060820152f35b346101a7575f3660031901126101a7576020600654604051908152f35b346101a75760803660031901126101a7576044356001600160401b038082116101a757366023830112156101a75781600401359081116101a7573660248260051b840101116101a75760209161051f9160246064359201602435600435611d77565b6040519015158152f35b346101a7575f3660031901126101a75761056660405161054881611764565b60058152640352e302e360dc1b6020820152604051918291826117e5565b0390f35b346101a75760203660031901126101a757610583611703565b61058b611e97565b600b80546001600160a01b0319166001600160a01b0392909216919091179055005b346101a7575f3660031901126101a7575f80516020611f9e833981519152546040516001600160a01b039091168152602090f35b346101a7575f3660031901126101a7576020600154604051908152f35b346101a7575f3660031901126101a757610616611e97565b61061e611f10565b5f80516020611ffe833981519152600160ff198254161790557f62e78cea01bee320cd4e420270b5ea74000d11b0c9f74754ebdbfc544b05a2586020604051338152a1005b346101a7575f3660031901126101a757600b546040516001600160a01b039091168152602090f35b346101a75760203660031901126101a7576001600160a01b036106ac611703565b165f52600360205260c060405f2060ff81541690600181015490600281015460038201549060056004840154930154936040519515158652602086015260408501526060840152608083015260a0820152f35b346101a7575f3660031901126101a757610717611e97565b5f80516020611f9e83398151915280546001600160a01b031981169091555f906001600160a01b03167f8be0079c531659141344cd1fd0a4f28419497f9722a3daafe3b4186f6b6457e08280a3005b346101a75760203660031901126101a75761077f611703565b5f60a060405161078e81611749565b828152826020820152826040820152826060820152826080820152015260018060a01b03165f52600360205260c060405f206040516107cc81611749565b60ff8254161515918282526001810154602083019081526002820154604084019081526003830154916060850192835260a0600560048601549560808801968752015495019485526040519586525160208601525160408501525160608401525160808301525160a0820152f35b346101a75760403660031901126101a757610853611703565b61085b6117d6565b90610864611e97565b6001600160a01b031690811561090b5760207f299a9abe1b3f791134e324f74110ff919d8db0842db3e4d32f2037bcd996860991835f525f825260405f206108bd8260ff835416929060ff801983541691151516179055565b8180610903575b156108de575060018054016001555b6040519015158152a2005b811590816108fb575b50156108d3575f19600154016001556108d3565b9050856108e7565b5080156108c4565b60405163e6c4247b60e01b8152600490fd5b346101a7575f3660031901126101a757602060ff5f80516020611ffe83398151915254166040519015158152f35b346101a75760a03660031901126101a757610964611703565b5f80516020611fbe833981519152608061097c6117d6565b604435936064356084359161098f611e97565b60018060a01b031695865f52600360205260405f20936005806004870154960154604051926109bd84611749565b151596878452602084018581526040850187815260608601918983528b870193845260a087019485528d5f526003602052610a0b60405f2097511515889060ff801983541691151516179055565b51600187015551600286015551600385015551600484015551910155604051938452602084015260408301526060820152a2005b346101a7575f3660031901126101a7577f00000000000000000000000000000000000000000000000000000000000000006001600160a01b03163003610a965760206040515f80516020611fde8339815191528152f35b60405163703e46dd60e11b8152600490fd5b346101a75760203660031901126101a7576001600160a01b03610ac9611703565b165f525f602052602060ff60405f2054166040519015158152f35b60403660031901126101a757610af8611703565b60249081356001600160401b0381116101a757366023820112156101a7578060040135610b24816117bb565b92610b32604051948561179a565b81845260209182850193368783830101116101a757815f92888693018737860101526001600160a01b037f00000000000000000000000000000000000000000000000000000000000000008116308114908115610ced575b50610a9657610b97611e97565b8116936040516352d1902d60e01b81528381600481895afa5f9181610cbe575b50610bd457604051634c9c8ce360e01b8152600481018790528790fd5b8590875f80516020611fde83398151915291828103610ca95750843b15610c93575080546001600160a01b03191682179055604051907fbc7cd75a20ee27fd9adebab32041f755214dbc6bffa90cc0225b39da2e5c2d3b5f80a2815115610c7857505f6101a59481925190845af4903d15610c6f573d610c53816117bb565b90610c61604051928361179a565b81525f81943d92013e611f3a565b60609250611f3a565b935050505034610c8457005b63b398979f60e01b8152600490fd5b604051634c9c8ce360e01b815260048101849052fd5b60405190632a87526960e21b82526004820152fd5b9091508481813d8311610ce6575b610cd6818361179a565b810103126101a757519088610bb7565b503d610ccc565b9050815f80516020611fde8339815191525416141587610b8a565b346101a7575f3660031901126101a757600a546040516001600160a01b039091168152602090f35b346101a7575f3660031901126101a7576020600854604051908152f35b346101a7575f3660031901126101a757610d65611e97565b5f80516020611ffe833981519152805460ff811615610db05760ff191690557f5db9ee0a495bf2e6ff9c91a7834c1ba4fdd244a5e8aa4e537bd38aeae4b073aa6020604051338152a1005b604051638dfc202b60e01b8152600490fd5b346101a75760403660031901126101a757610ddb611703565b610de36116ed565b9060018060a01b03165f5260046020526001600160401b0360405f2091165f52602052602060ff60405f2054166040519015158152f35b346101a75760a03660031901126101a757610e33611703565b6001600160a01b03602435818116908190036101a7576044358281168091036101a757606435908382168092036101a7576084359384168094036101a7577ff0c57e16840df040f15088dc2f81fe391c3923bec73e23a9662efc9c229c6a009384549360ff8560401c1615946001600160401b038116978815806111b9575b6001809a1490816111af575b1590816111a6575b506111945767ffffffffffffffff19821689178855610ef69187611175575b50610eee611ecf565b6101a0611ecf565b610efe611ecf565b610f06611ecf565b865f8051602061201e83398151915255610f1e611ecf565b610f26611ecf565b60ff195f80516020611ffe833981519152818154169055610f45611ecf565b8161112e575b505060018060a01b0319828160095416176009558381600a541617600a55600b541617600b5580611076575b5080610fbe575b50610f8557005b805460ff60401b191690556040519081527fc7f505b2f371ae2175ee4913f4499e1f2633a7b5936321eed1cdaeb6115181d290602090a1005b5f80516020611fbe8339815191526080604051610fda81611749565b8681526020810190612710918281526040820191600564e8d4a51000928385528b60608401655af3107a400096878252898601925f845260a08701944286528d5f52600360205261103e60405f2098511515899060ff801983541691151516179055565b51908701555160028601555160038501555160048401555191015560405192898452602084015260408301526060820152a283610f7e565b5f80516020611fbe833981519152608060405161109281611749565b8781526020810190612710918281526040820191600564e8d4a51000928385528c60608401655af3107a400096878252898601925f845260a08701944286528d5f5260036020526110f660405f2098511515899060ff801983541691151516179055565b519087015551600286015551600385015551600484015551910155604051928a8452602084015260408301526060820152a284610f77565b815f525f6020528760405f20918254161790558680557f299a9abe1b3f791134e324f74110ff919d8db0842db3e4d32f2037bcd99686096020604051898152a28680610f4b565b68ffffffffffffffffff19166801000000000000000117885589610ee5565b60405163f92ee8a960e01b8152600490fd5b9050158a610ec6565b303b159150610ebe565b5086610eb2565b346101a7575f3660031901126101a7576009546040516001600160a01b039091168152602090f35b346101a75760c03660031901126101a7576064356001600160401b03811681036101a757608435916001600160401b03831683036101a7576001600160401b0360a435116101a75736602360a4350112156101a7576001600160401b0360a43560040135116101a75736602460a4356004013560081b60a4350101116101a757335f525f60205260ff60405f205416156116de575060025f8051602061201e83398151915254146116cc5760025f8051602061201e833981519152556112ac611f10565b60a43560040135156116ba576004355f52600260205260ff600660405f20015460a01c166116a85760243515611696575a906112eb60a480350161182c565b5f915f945f5b60a43560040135811061154357506001600160401b0390816040519361131685611719565b60043585526024356020860152604435604086015216606084015216608082015263ffffffff851660a08201528260c082015260018060a01b03821660e08201526001600160401b0342166101008201523361012082015260016101408201526004355f526002602052600660405f20825181556020830151600182015560408301516002820155600381016001600160401b036060850151168154906001600160401b0360401b608087015160401b169063ffffffff60801b60a088015160801b169260018060a01b031916171717905560c083015160048201556005810160018060a01b0360e0850151168154906001600160401b0360a01b61010087015160a01b169163ffffffff60e01b1617179055019060018060a01b036101208201511682549161014060ff60a01b910151151560a01b169160018060a81b0319161717905561146d63ffffffff851660065461184e565b60065561147c8260075461184e565b6007556001600854016008555a830392831161152f5760405190602435825263ffffffff8516602083015282604083015260018060a01b0316907f60ed01ce32d15e6a0d9d537bbc30f82c6725162691f48973018c88bc12083391606060043592a363ffffffff60405193168352602083015260408201527f2be2280e5bc850727d3d84a696562ede1f9212b72a85aca6931b994c8564a23f606060043592a260015f8051602061201e83398151915255005b634e487b7160e01b5f52601160045260245ffd5b959361155860248860081b60a435010161186f565b9015611627575063ffffffff600161157f6116229360848b60081b60a4350101359061184e565b9601169661159660448260081b60a435010161182c565b6115a960648360081b60a435010161182c565b906115bc60a48460081b8135010161182c565b906040519260018060a01b039283809216855260848660081b60a4350101356020860152166040840152169060248360081b60a435010135907f6012c68d92fcfe82072c5af63697de5bc68714d79533d164eeb0c41547d4e803606060043592a4611840565b6112f1565b9496909461162291906001600160a01b0361164c60a435600885901b0160440161182c565b1690604051907fb433b4645b40612911ef4426c2386a388e1d74ba5470a57fa7d91d4bb51e4b8360248560081b60a435010135928061168e60043594826117e5565b0390a4611840565b604051639dd854d360e01b8152600490fd5b6040516327e386a760e21b8152600490fd5b60405163c2e5347d60e01b8152600490fd5b604051633ee5aeb560e01b8152600490fd5b630e269f8360e41b8152600490fd5b602435906001600160401b03821682036101a757565b600435906001600160a01b03821682036101a757565b61016081019081106001600160401b0382111761173557604052565b634e487b7160e01b5f52604160045260245ffd5b60c081019081106001600160401b0382111761173557604052565b604081019081106001600160401b0382111761173557604052565b606081019081106001600160401b0382111761173557604052565b90601f801991011681019081106001600160401b0382111761173557604052565b6001600160401b03811161173557601f01601f191660200190565b6024359081151582036101a757565b602080825282518183018190529093925f5b82811061181857505060409293505f838284010152601f8019910116010190565b8181018601518482016040015285016117f7565b356001600160a01b03811681036101a75790565b5f19811461152f5760010190565b9190820180921161152f57565b356001600160401b03811681036101a75790565b9081355f8181526020916005835260409460ff8684205416611d55576001600160401b0390816118a160c0830161185b565b164211611d32576001600160a01b0392818601846118be8261182c565b1686526004948588528987209060a0850191866118da8461185b565b168952895260ff8b89205416611cfe576080850193816118f98661182c565b16895260038a528b89209560ff87541615611cc95760608101359560018801548710611c9a5760028801548711611c6b57600588018054620151808101809111611c5857421015611c4a575b50898801976003611957898b5461184e565b91015410611c1b57611969849161182c565b168d846119758861182c565b91516370a0823160e01b815291168b8201528c81602481855afa908115611ba6579088918d91611bea575b5010611bb1578d846119b18861182c565b9151636eb1769f60e11b815291168b8201523060248201528c81604481855afa908115611ba6578f908e9493928a918f91611b6b575b5010611b2e578b93928d87938484611a0b606496611a048f61182c565b960161182c565b905198899788966323b872dd60e01b885216908601521660248401528b60448401525af19081611af3575b50611a6d5750505050505050506e151c985b9cd9995c8819985a5b1959608a1b90935191611a6383611764565b600f835282015290565b90611ac394939291899c97989c5260058a52611a98878a209360ff199460018682541617905561182c565b1688528a895286611aab878a209261185b565b1688528852600185882091825416179055825461184e565b905560019581519485019285841090841117611ae0575052815290565b634e487b7160e01b845260419052602483fd5b8b81813d8311611b27575b611b08818361179a565b81010312611b23575180151503611b1f575f611a36565b8980fd5b8a80fd5b503d611afe565b50505050505050505050505075496e73756666696369656e7420616c6c6f77616e636560501b90935191611b6183611764565b6016835282015290565b9394959250505081813d8311611b9f575b611b86818361179a565b81010312611b9b57908e888e9493515f6119e7565b8b80fd5b503d611b7c565b508e513d8d823e3d90fd5b5050505050505050505073496e73756666696369656e742062616c616e636560601b90935191611be083611764565b6014835282015290565b8092508e8092503d8311611c14575b611c03818361179a565b81010312611b9b578790515f6119a0565b503d611bf9565b505050505050505050507311185a5b1e481b1a5b5a5d08195e18d95959195960621b90935191611be083611764565b8b8b8a01554290555f611945565b634e487b7160e01b8d5260118c5260248dfd5b5050505050505050505073416d6f756e742061626f7665206d6178696d756d60601b90935191611be083611764565b5050505050505050505073416d6f756e742062656c6f77206d696e696d756d60601b90935191611be083611764565b50505050505050505070105cdcd95d081b9bdd08195b98589b1959607a1b90935191611cf483611764565b6011835282015290565b5050505050505071139bdb98d948185b1c9958591e481d5cd95960721b90935191611d2883611764565b6012835282015290565b5050506e14185e5b595b9d08195e1c1a5c9959608a1b90935191611a6383611764565b50506e105b1c9958591e481cd95d1d1b1959608a1b90935191611a6383611764565b93909291935f52602060028152604090815f209460ff600687015460a01c1615611e1b57955f935b858510611db457505050505050600101541490565b611df2908560051b830135986001998a8316155f14611df85786519086820192835287820152868152611de68161177f565b519020985b1c94611840565b93611d9f565b9086519086820192835287820152868152611e128161177f565b51902098611deb565b505050505050505f90565b6001600160a01b03908116908115611e7f575f80516020611f9e83398151915280546001600160a01b031981168417909155167f8be0079c531659141344cd1fd0a4f28419497f9722a3daafe3b4186f6b6457e05f80a3565b604051631e4fbdf760e01b81525f6004820152602490fd5b5f80516020611f9e833981519152546001600160a01b03163303611eb757565b60405163118cdaa760e01b8152336004820152602490fd5b60ff7ff0c57e16840df040f15088dc2f81fe391c3923bec73e23a9662efc9c229c6a005460401c1615611efe57565b604051631afcd79f60e31b8152600490fd5b60ff5f80516020611ffe8339815191525416611f2857565b60405163d93c066560e01b8152600490fd5b90611f615750805115611f4f57805190602001fd5b604051630a12f52160e11b8152600490fd5b81511580611f94575b611f72575090565b604051639996b31560e01b81526001600160a01b039091166004820152602490fd5b50803b15611f6a56fe9016d09d72d40fdae2fd8ceac6b6234c7706214fd39c1cd1e609a0528c199300829f50ecde88ad0e5b596bbe0df7427eac707430c4d324561631d70b8c6a7c1f360894a13ba1a3210667c828492db98dca3e2076cc3735a920a3ca505d382bbccd5ed15c6e187e77e9aee88184c21f4f2182ab5827cb3b7e07fbedcd63f033009b779b17422d0df92223018b32b4d1fa46e071723d6817e2486d003becc55f00a2646970667358221220e28a56e1253982bdd8f00a7415d8e8e75553e3f762b6e4158cd75512578cd30c64736f6c63430008140033","linkReferences":{}},"methodIdentifiers":{"UPGRADE_INTERFACE_VERSION()":"ad3cb1cc","assetConfigs(address)":"7609d7f6","authorizedSequencers(address)":"524a6d77","batches(bytes32)":"c81e25ab","configureAsset(address,bool,uint256,uint256,uint256)":"56bc2866","getAssetConfig(address)":"6ec3ab67","getBatch(bytes32)":"ed42136f","getStats()":"c59d4847","initialize(address,address,address,address,address)":"1459457a","isIntentSettled(bytes32)":"19755728","isNonceUsed(address,uint64)":"3a8a8beb","owner()":"8da5cb5b","pause()":"8456cb59","paused()":"5c975abb","proxiableUUID()":"52d1902d","registry()":"7b103999","renounceOwnership()":"715018a6","sequencerCount()":"84b71123","setRegistry(address)":"a91ee0dc","setSequencerAuthorization(address,bool)":"5edb6116","settleBatch(bytes32,bytes32,bytes32,uint64,uint64,(bytes32,address,address,uint256,address,uint64,uint64,bytes32)[])":"0c31a221","settledIntents(bytes32)":"f08d96e3","ssUsdToken()":"4eb3427a","totalBatchesSettled()":"4b618d42","totalPaymentsSettled()":"b50054b9","totalVolumeSettled()":"cdd67f12","transferOwnership(address)":"f2fde38b","unpause()":"3f4ba83a","upgradeToAndCall(address,bytes)":"4f1ef286","usdcToken()":"11eac855","usedNonces(address,uint64)":"33a87bb1","verifyPaymentInclusion(bytes32,bytes32,bytes32[],uint256)":"b3840a37"},"id":2}