{"abi":[{"type":"constructor","inputs":[{"name":"initialAdmin","type":"address","internalType":"address"}],"stateMutability":"nonpayable"},{"type":"function","name":"ADMIN_ROLE","inputs":[],"outputs":[{"name":"","type":"uint64","internalType":"uint64"}],"stateMutability":"view"},{"type":"function","name":"PUBLIC_ROLE","inputs":[],"outputs":[{"name":"","type":"uint64","internalType":"uint64"}],"stateMutability":"view"},{"type":"function","name":"canCall","inputs":[{"name":"caller","type":"address","internalType":"address"},{"name":"target","type":"address","internalType":"address"},{"name":"selector","type":"bytes4","internalType":"bytes4"}],"outputs":[{"name":"immediate","type":"bool","internalType":"bool"},{"name":"delay","type":"uint32","internalType":"uint32"}],"stateMutability":"view"},{"type":"function","name":"cancel","inputs":[{"name":"caller","type":"address","internalType":"address"},{"name":"target","type":"address","internalType":"address"},{"name":"data","type":"bytes","internalType":"bytes"}],"outputs":[{"name":"","type":"uint32","internalType":"uint32"}],"stateMutability":"nonpayable"},{"type":"function","name":"consumeScheduledOp","inputs":[{"name":"caller","type":"address","internalType":"address"},{"name":"data","type":"bytes","internalType":"bytes"}],"outputs":[],"stateMutability":"nonpayable"},{"type":"function","name":"execute","inputs":[{"name":"target","type":"address","internalType":"address"},{"name":"data","type":"bytes","internalType":"bytes"}],"outputs":[{"name":"","type":"uint32","internalType":"uint32"}],"stateMutability":"payable"},{"type":"function","name":"expiration","inputs":[],"outputs":[{"name":"","type":"uint32","internalType":"uint32"}],"stateMutability":"view"},{"type":"function","name":"getAccess","inputs":[{"name":"roleId","type":"uint64","internalType":"uint64"},{"name":"account","type":"address","internalType":"address"}],"outputs":[{"name":"since","type":"uint48","internalType":"uint48"},{"name":"currentDelay","type":"uint32","internalType":"uint32"},{"name":"pendingDelay","type":"uint32","internalType":"uint32"},{"name":"effect","type":"uint48","internalType":"uint48"}],"stateMutability":"view"},{"type":"function","name":"getNonce","inputs":[{"name":"id","type":"bytes32","internalType":"bytes32"}],"outputs":[{"name":"","type":"uint32","internalType":"uint32"}],"stateMutability":"view"},{"type":"function","name":"getRoleAdmin","inputs":[{"name":"roleId","type":"uint64","internalType":"uint64"}],"outputs":[{"name":"","type":"uint64","internalType":"uint64"}],"stateMutability":"view"},{"type":"function","name":"getRoleGrantDelay","inputs":[{"name":"roleId","type":"uint64","internalType":"uint64"}],"outputs":[{"name":"","type":"uint32","internalType":"uint32"}],"stateMutability":"view"},{"type":"function","name":"getRoleGuardian","inputs":[{"name":"roleId","type":"uint64","internalType":"uint64"}],"outputs":[{"name":"","type":"uint64","internalType":"uint64"}],"stateMutability":"view"},{"type":"function","name":"getSchedule","inputs":[{"name":"id","type":"bytes32","internalType":"bytes32"}],"outputs":[{"name":"","type":"uint48","internalType":"uint48"}],"stateMutability":"view"},{"type":"function","name":"getTargetAdminDelay","inputs":[{"name":"target","type":"address","internalType":"address"}],"outputs":[{"name":"","type":"uint32","internalType":"uint32"}],"stateMutability":"view"},{"type":"function","name":"getTargetFunctionRole","inputs":[{"name":"target","type":"address","internalType":"address"},{"name":"selector","type":"bytes4","internalType":"bytes4"}],"outputs":[{"name":"","type":"uint64","internalType":"uint64"}],"stateMutability":"view"},{"type":"function","name":"grantRole","inputs":[{"name":"roleId","type":"uint64","internalType":"uint64"},{"name":"account","type":"address","internalType":"address"},{"name":"executionDelay","type":"uint32","internalType":"uint32"}],"outputs":[],"stateMutability":"nonpayable"},{"type":"function","name":"hasRole","inputs":[{"name":"roleId","type":"uint64","internalType":"uint64"},{"name":"account","type":"address","internalType":"address"}],"outputs":[{"name":"isMember","type":"bool","internalType":"bool"},{"name":"executionDelay","type":"uint32","internalType":"uint32"}],"stateMutability":"view"},{"type":"function","name":"hashOperation","inputs":[{"name":"caller","type":"address","internalType":"address"},{"name":"target","type":"address","internalType":"address"},{"name":"data","type":"bytes","internalType":"bytes"}],"outputs":[{"name":"","type":"bytes32","internalType":"bytes32"}],"stateMutability":"view"},{"type":"function","name":"isTargetClosed","inputs":[{"name":"target","type":"address","internalType":"address"}],"outputs":[{"name":"","type":"bool","internalType":"bool"}],"stateMutability":"view"},{"type":"function","name":"labelRole","inputs":[{"name":"roleId","type":"uint64","internalType":"uint64"},{"name":"label","type":"string","internalType":"string"}],"outputs":[],"stateMutability":"nonpayable"},{"type":"function","name":"minSetback","inputs":[],"outputs":[{"name":"","type":"uint32","internalType":"uint32"}],"stateMutability":"view"},{"type":"function","name":"multicall","inputs":[{"name":"data","type":"bytes[]","internalType":"bytes[]"}],"outputs":[{"name":"results","type":"bytes[]","internalType":"bytes[]"}],"stateMutability":"nonpayable"},{"type":"function","name":"renounceRole","inputs":[{"name":"roleId","type":"uint64","internalType":"uint64"},{"name":"callerConfirmation","type":"address","internalType":"address"}],"outputs":[],"stateMutability":"nonpayable"},{"type":"function","name":"revokeRole","inputs":[{"name":"roleId","type":"uint64","internalType":"uint64"},{"name":"account","type":"address","internalType":"address"}],"outputs":[],"stateMutability":"nonpayable"},{"type":"function","name":"schedule","inputs":[{"name":"target","type":"address","internalType":"address"},{"name":"data","type":"bytes","internalType":"bytes"},{"name":"when","type":"uint48","internalType":"uint48"}],"outputs":[{"name":"operationId","type":"bytes32","internalType":"bytes32"},{"name":"nonce","type":"uint32","internalType":"uint32"}],"stateMutability":"nonpayable"},{"type":"function","name":"setGrantDelay","inputs":[{"name":"roleId","type":"uint64","internalType":"uint64"},{"name":"newDelay","type":"uint32","internalType":"uint32"}],"outputs":[],"stateMutability":"nonpayable"},{"type":"function","name":"setRoleAdmin","inputs":[{"name":"roleId","type":"uint64","internalType":"uint64"},{"name":"admin","type":"uint64","internalType":"uint64"}],"outputs":[],"stateMutability":"nonpayable"},{"type":"function","name":"setRoleGuardian","inputs":[{"name":"roleId","type":"uint64","internalType":"uint64"},{"name":"guardian","type":"uint64","internalType":"uint64"}],"outputs":[],"stateMutability":"nonpayable"},{"type":"function","name":"setTargetAdminDelay","inputs":[{"name":"target","type":"address","internalType":"address"},{"name":"newDelay","type":"uint32","internalType":"uint32"}],"outputs":[],"stateMutability":"nonpayable"},{"type":"function","name":"setTargetClosed","inputs":[{"name":"target","type":"address","internalType":"address"},{"name":"closed","type":"bool","internalType":"bool"}],"outputs":[],"stateMutability":"nonpayable"},{"type":"function","name":"setTargetFunctionRole","inputs":[{"name":"target","type":"address","internalType":"address"},{"name":"selectors","type":"bytes4[]","internalType":"bytes4[]"},{"name":"roleId","type":"uint64","internalType":"uint64"}],"outputs":[],"stateMutability":"nonpayable"},{"type":"function","name":"updateAuthority","inputs":[{"name":"target","type":"address","internalType":"address"},{"name":"newAuthority","type":"address","internalType":"address"}],"outputs":[],"stateMutability":"nonpayable"},{"type":"event","name":"OperationCanceled","inputs":[{"name":"operationId","type":"bytes32","indexed":true,"internalType":"bytes32"},{"name":"nonce","type":"uint32","indexed":true,"internalType":"uint32"}],"anonymous":false},{"type":"event","name":"OperationExecuted","inputs":[{"name":"operationId","type":"bytes32","indexed":true,"internalType":"bytes32"},{"name":"nonce","type":"uint32","indexed":true,"internalType":"uint32"}],"anonymous":false},{"type":"event","name":"OperationScheduled","inputs":[{"name":"operationId","type":"bytes32","indexed":true,"internalType":"bytes32"},{"name":"nonce","type":"uint32","indexed":true,"internalType":"uint32"},{"name":"schedule","type":"uint48","indexed":false,"internalType":"uint48"},{"name":"caller","type":"address","indexed":false,"internalType":"address"},{"name":"target","type":"address","indexed":false,"internalType":"address"},{"name":"data","type":"bytes","indexed":false,"internalType":"bytes"}],"anonymous":false},{"type":"event","name":"RoleAdminChanged","inputs":[{"name":"roleId","type":"uint64","indexed":true,"internalType":"uint64"},{"name":"admin","type":"uint64","indexed":true,"internalType":"uint64"}],"anonymous":false},{"type":"event","name":"RoleGrantDelayChanged","inputs":[{"name":"roleId","type":"uint64","indexed":true,"internalType":"uint64"},{"name":"delay","type":"uint32","indexed":false,"internalType":"uint32"},{"name":"since","type":"uint48","indexed":false,"internalType":"uint48"}],"anonymous":false},{"type":"event","name":"RoleGranted","inputs":[{"name":"roleId","type":"uint64","indexed":true,"internalType":"uint64"},{"name":"account","type":"address","indexed":true,"internalType":"address"},{"name":"delay","type":"uint32","indexed":false,"internalType":"uint32"},{"name":"since","type":"uint48","indexed":false,"internalType":"uint48"},{"name":"newMember","type":"bool","indexed":false,"internalType":"bool"}],"anonymous":false},{"type":"event","name":"RoleGuardianChanged","inputs":[{"name":"roleId","type":"uint64","indexed":true,"internalType":"uint64"},{"name":"guardian","type":"uint64","indexed":true,"internalType":"uint64"}],"anonymous":false},{"type":"event","name":"RoleLabel","inputs":[{"name":"roleId","type":"uint64","indexed":true,"internalType":"uint64"},{"name":"label","type":"string","indexed":false,"internalType":"string"}],"anonymous":false},{"type":"event","name":"RoleRevoked","inputs":[{"name":"roleId","type":"uint64","indexed":true,"internalType":"uint64"},{"name":"account","type":"address","indexed":true,"internalType":"address"}],"anonymous":false},{"type":"event","name":"TargetAdminDelayUpdated","inputs":[{"name":"target","type":"address","indexed":true,"internalType":"address"},{"name":"delay","type":"uint32","indexed":false,"internalType":"uint32"},{"name":"since","type":"uint48","indexed":false,"internalType":"uint48"}],"anonymous":false},{"type":"event","name":"TargetClosed","inputs":[{"name":"target","type":"address","indexed":true,"internalType":"address"},{"name":"closed","type":"bool","indexed":false,"internalType":"bool"}],"anonymous":false},{"type":"event","name":"TargetFunctionRoleUpdated","inputs":[{"name":"target","type":"address","indexed":true,"internalType":"address"},{"name":"selector","type":"bytes4","indexed":false,"internalType":"bytes4"},{"name":"roleId","type":"uint64","indexed":true,"internalType":"uint64"}],"anonymous":false},{"type":"error","name":"AccessManagerAlreadyScheduled","inputs":[{"name":"operationId","type":"bytes32","internalType":"bytes32"}]},{"type":"error","name":"AccessManagerBadConfirmation","inputs":[]},{"type":"error","name":"AccessManagerExpired","inputs":[{"name":"operationId","type":"bytes32","internalType":"bytes32"}]},{"type":"error","name":"AccessManagerInvalidInitialAdmin","inputs":[{"name":"initialAdmin","type":"address","internalType":"address"}]},{"type":"error","name":"AccessManagerLockedAccount","inputs":[{"name":"account","type":"address","internalType":"address"}]},{"type":"error","name":"AccessManagerLockedRole","inputs":[{"name":"roleId","type":"uint64","internalType":"uint64"}]},{"type":"error","name":"AccessManagerNotReady","inputs":[{"name":"operationId","type":"bytes32","internalType":"bytes32"}]},{"type":"error","name":"AccessManagerNotScheduled","inputs":[{"name":"operationId","type":"bytes32","internalType":"bytes32"}]},{"type":"error","name":"AccessManagerUnauthorizedAccount","inputs":[{"name":"msgsender","type":"address","internalType":"address"},{"name":"roleId","type":"uint64","internalType":"uint64"}]},{"type":"error","name":"AccessManagerUnauthorizedCall","inputs":[{"name":"caller","type":"address","internalType":"address"},{"name":"target","type":"address","internalType":"address"},{"name":"selector","type":"bytes4","internalType":"bytes4"}]},{"type":"error","name":"AccessManagerUnauthorizedCancel","inputs":[{"name":"msgsender","type":"address","internalType":"address"},{"name":"caller","type":"address","internalType":"address"},{"name":"target","type":"address","internalType":"address"},{"name":"selector","type":"bytes4","internalType":"bytes4"}]},{"type":"error","name":"AccessManagerUnauthorizedConsume","inputs":[{"name":"target","type":"address","internalType":"address"}]},{"type":"error","name":"AddressEmptyCode","inputs":[{"name":"target","type":"address","internalType":"address"}]},{"type":"error","name":"AddressInsufficientBalance","inputs":[{"name":"account","type":"address","internalType":"address"}]},{"type":"error","name":"FailedInnerCall","inputs":[]},{"type":"error","name":"SafeCastOverflowedUintDowncast","inputs":[{"name":"bits","type":"uint8","internalType":"uint8"},{"name":"value","type":"uint256","internalType":"uint256"}]}],"bytecode":{"object":"0x6080346200028b57601f6200252538819003918201601f19168301926001600160401b0392909190838511838610176200028f57808392604096875283396020928391810103126200028b57516001600160a01b03811692908390036200028b57821562000274575f9182805260018152848320848452815265ffffffffffff908186852054161591825f146200016c57806200009c42620002a3565b16938185116200015857848851918983019083821090821117620001445789528152828101868152868052600184528887208888528452888720915182549151600160301b600160a01b0360309190911b166001600160a01b0319909216908416600160301b600160a01b031916171790555f805160206200250583398151915293606093909290915b885193878552169083015286820152a35161222e9081620002d78239f35b634e487b7160e01b88526041600452602488fd5b634e487b7160e01b86526011600452602486fd5b925083805260018152858420858552815263ffffffff86852054846200019242620002a3565b16607082901c861611620002695760301c16925b63ffffffff848116801562000261578181116200024d575b1681620001cb42620002a3565b160181811162000158578580526001835287862087875283528786208054600160301b600160a01b031916828a1b6dffffffffffff00000000000000001696851b67ffffffff00000000169690961760301b600160301b600160a01b0316959095179094555f8051602062002505833981519152936060939092909162000126565b634e487b7160e01b87526011600452602487fd5b5085620001be565b60501c1692620001a6565b8351630409d6d160e11b81525f6004820152602490fd5b5f80fd5b634e487b7160e01b5f52604160045260245ffd5b65ffffffffffff90818111620002b7571690565b604490604051906306dfcc6560e41b8252603060048301526024820152fdfe60406080815260049081361015610014575f80fd5b5f90813560e01c806308d6122d1461143b5780630b0a93ba146113f257806312be87271461139c578063167bd395146112f357806318ff183c146112545780631cff79cd1461114957806325c471a014610eee5780633078f11414610e9557806330cae18714610deb5780633adc277a14610dc45780633ca7c02a14610da35780634136a33c14610d725780634665096d14610d555780634c1da1e214610d2b5780635296295214610c68578063530dd45614610c335780636d5115bd14610bd657806375b238fc14610bbc578063853551b814610b0557806394c7d7ee14610a41578063a166aa89146109fe578063a64d95ce14610903578063abd9bd2a146108de578063ac9650d814610740578063b7009613146106f5578063b7d2b162146106c4578063cc1b6c81146106a7578063d1f856ee14610657578063d22b598914610595578063d6bb62c6146103cf578063f801a698146101d15763fe0776f51461017e575f80fd5b346101cd57806003193601126101cd5761019661157a565b61019e611534565b91336001600160a01b038416036101be5750906101ba916118b7565b5080f35b51635f159e6360e01b81528490fd5b5080fd5b5091346101cd5760603660031901126101cd576101ec61151e565b6024356001600160401b0381116103cb5761020a90369084016115a6565b92906044359365ffffffffffff958686168096036103c85761022e82848733611e6f565b96905061023a426120db565b61024c63ffffffff8099168092611854565b901580156103b3575b6103645788919082168082111561035d57505b169361027683858833611abb565b9788835260026020528983205416801515908161034c575b506103355750926103267f82a2da5dee54ea8021c6545b4444620291e07ee83be6dd57edb175062715f3b49369ffffffff0000000000009796938a878b80995260026020522080548560018b8360301c16019a8b169b8c9b60301b169169ffffffffffffffffffff1916171790558a51948594855233602086015260018060a01b03168b850152608060608501526080840191611805565b0390a382519182526020820152f35b885163813e945960e01b8152908101889052602490fd5b6103569150611f84565b155f61028e565b9050610268565b50505061037587916103af93611fad565b90516381c6f24b60e01b8152339381019384526001600160a01b0390941660208401526001600160e01b0319166040830152829160600190565b0390fd5b50811515801561025557508881168210610255565b80fd5b8380fd5b50829034610591576103fb906103e436611629565b6103f381839499959793611fad565b928887611abb565b938483526020966002885265ffffffffffff91828686205416155f1461043257855163060a299b60e41b8152808901889052602490fd5b9396949594936001600160a01b03908116913383036104a2575b505050505050907fbd9ac67a6e2f6463b80927326310338bcbb4bdb7936ce1365ea3e01067e7b9f7918084526002855263ffffffff82852080549065ffffffffffff198216905560301c16928392519480a38152f35b5f80805260018b528881203382528b5288902054848116906104cf9060301c6001600160701b031661210d565b5050508015159485610579575b505016918288528789528688209363ffffffff60e01b169384895289526105333361052e6001600160401b038a8c2054166001600160401b038091165f526001602052600160405f20015460401c1690565b6117ae565b5090159081610570575b5061054957808061044c565b60849450855193630ff89d4760e21b85523390850152602484015260448301526064820152fd5b9050158961053d565b90919450610586426120db565b161015928a806104dc565b8280fd5b50346101cd57806003193601126101cd577fa56b76017453f399ec2327ba00375dbfb1fd070ff854341ad6191e6a2e2de19c6105cf61151e565b916105d8611616565b926105e1611b05565b60018060a01b0316928385528460205261065160018060701b039261060e83856001848b20015416612147565b94878952886020526001838a2001911660018060701b0319825416179055519283928390929165ffffffffffff60209163ffffffff604085019616845216910152565b0390a280f35b50346101cd57806003193601126101cd576106a39061068561067761157a565b61067f611534565b906117ae565b9151901515815263ffffffff90911660208201529081906040820190565b0390f35b50346101cd57816003193601126101cd5760209051620697808152f35b50346101cd573660031901126103c8576101ba6106df61157a565b6106e7611534565b906106f0611b05565b6118b7565b5090346103c85760603660031901126103c8575061071161151e565b9061071a611534565b916044356001600160e01b03198116810361073c576106a39361068592611676565b5f80fd5b508234610591576020806003193601126103cb5781356001600160401b03928382116108da576107759194929436910161154a565b61077e8161209c565b9361078b84519586611882565b818552601f19928361079c8461209c565b01885b8181106108cb575050875b838110610842575050505081519380850191818652845180935281848701948460051b88010195019387915b8483106107e35787870388f35b909192939495603f19888203018352848288518b815191828652815b838110610828575050818501840152601f011690910181019681019594936001019201906107d6565b8082018601518782018701528a958895508f9350016107ff565b806005989596981b820135601e19833603018112156108c7578201908135918483116108c3578601918a81360384136103c857806108886108ba9561089f9436916119aa565b8981519101305af461089861200a565b9030612039565b6108a9828a6120b3565b526108b481896120b3565b50611957565b969493966107aa565b8a80fd5b8980fd5b60608882018a0152880161079f565b8580fd5b50346101cd576020906108fc6108f336611629565b92919091611abb565b9051908152f35b50346101cd57806003193601126101cd5761091c61157a565b90610925611616565b9361092e611b05565b6001600160401b038093169283146109e957507ffeb69018ee8b8fd50ea86348f1267d07673379f72cffdeccec63853ee8ce8b489084838552600160205261065161098a8260018060701b036001868a20015460801c16612147565b86885260016020818152868a209091018054600160801b600160f01b03191660809490941b600160801b600160f01b031693909317909255935163ffffffff909316835265ffffffffffff909316928201929092529081906040820190565b82602492519163061c6a4360e21b8352820152fd5b50346101cd5760203660031901126101cd5760209160ff9060019083906001600160a01b03610a2b61151e565b16815280865220015460701c1690519015158152f35b5082903461059157610a52366115d3565b9390928051638fb3603760e01b908181526020818581335afa908115610afb578891610ab5575b506001600160e01b03191603610a9e57856101ba610a9987873388611abb565b6119e0565b602492505190630641fee960e31b82523390820152fd5b90506020813d8211610af3575b81610acf60209383611882565b81010312610aef57516001600160e01b031981168103610aef5788610a79565b8780fd5b3d9150610ac2565b83513d8a823e3d90fd5b5091346101cd57826003193601126101cd57610b1f61157a565b6001600160401b0391602435838111610bb85790610b418492369083016115a6565b929093610b4c611b05565b16938415908115610bae575b50610b9757506106517f1256f5b5ecb89caec12db449738f2fbcd1ba5806cf38f35413f4e5c15bf6a45093949551928392602084526020840191611805565b855163061c6a4360e21b8152908101849052602490fd5b905084145f610b58565b8480fd5b50346101cd57816003193601126101cd5751908152602090f35b50346101cd57806003193601126101cd57610bef61151e565b6024359063ffffffff60e01b821680920361073c576001600160a01b031683526020838152828420918452908152918190205490516001600160401b039091168152f35b50346101cd5760203660031901126101cd576020906001600160401b03610c60610c5b61157a565b61173d565b915191168152f35b50829034610591578060031936011261059157610c8361157a565b90610c8c611590565b90610c95611b05565b6001600160401b038093169384158015610d22575b610d0d57508385526001602081905281862001805467ffffffffffffffff60401b19169183901b67ffffffffffffffff60401b1691909117905516907f7a8059630b897b5de4c08ade69f8b90c3ead1f8596d62d10b6c4d14a0afb4ae28380a380f35b84602492519163061c6a4360e21b8352820152fd5b50838514610caa565b50346101cd5760203660031901126101cd5760209063ffffffff610c60610d5061151e565b61170c565b50346101cd57816003193601126101cd576020905162093a808152f35b508234610591576020366003190112610591578160209363ffffffff9235815260028552205460301c169051908152f35b50346101cd57816003193601126101cd57602090516001600160401b038152f35b5090346103c85760203660031901126103c8575065ffffffffffff610c6060209335611965565b508234610591578160031936011261059157610e0561157a565b610e0d611590565b92610e16611b05565b6001600160401b038092169283158015610e8c575b610e77575060019083865281602052852001921691826001600160401b03198254161790557f1fd6dd7631312dfac2205b52913f99de03b4d7e381d5d27d3dbfe0713e6e63408380a380f35b83602492519163061c6a4360e21b8352820152fd5b50828414610e2b565b50346101cd57806003193601126101cd57608090610ec2610eb461157a565b610ebc611534565b9061175b565b91849194519465ffffffffffff809516865263ffffffff80921660208701521690840152166060820152f35b5082903461059157606036600319011261059157610f0a61157a565b90610f13611534565b926044359163ffffffff9182841680940361073c57610f30611b05565b6001600160401b038095169485885260019060209282845284610f648b8560018060701b0393849220015460801c1661210d565b505093838a1461113257898c52808652868c209a60018060a01b03169a8b5f52865265ffffffffffff9485885f2054161598895f146110435790610fb391610fab426120db565b911690611854565b9387519388850191858310908311176110305750926060989694928a8d8f9a5f805160206121d98339815191529d9b8f9661101f97839c9a84528a8a1688528b880195865282528a5220905f52875285885f2093511665ffffffffffff19845416178355511690611825565b83519586521690840152820152a380f35b604190634e487b7160e01b5f525260245ffd5b929050611068919394508a8d52838752878d208c5f528752875f205460301c1661210d565b5050928184168c8b5f8c84115f1461110957505050899003908282116110f657508b5f805160206121d9833981519152999795938b6110ba60609b9997956110f1955b166110b5426120db565b611854565b92528552858d205f8d8152908652869020909283871b65ffffffffffff60401b1690861b67ffffffff000000001617881790611825565b61101f565b601190634e487b7160e01b5f525260245ffd5b6110f194505f805160206121d98339815191529c9a989692935060609b9997956110ba916110ab565b865163061c6a4360e21b81528084018b9052602490fd5b5082611154366115d3565b9093919461116482868833611e6f565b94901580611246575b6112365761117d83878933611abb565b95829663ffffffff8097161580159061121d575b611207575b506111bc90600354946111b26111ac8284611fad565b8b611fc3565b60035536916119aa565b903447106111f0575095816111e592886020809a51910134855af16111df61200a565b91612039565b506003555191168152f35b60249085519063cd78605960e01b82523090820152fd5b6111bc919750611216906119e0565b9690611196565b5065ffffffffffff61122e82611965565b161515611191565b86906103af85610375868a611fad565b5063ffffffff85161561116d565b5082903461059157806003193601126105915761126f61151e565b9183611279611534565b93611282611b05565b6001600160a01b0390811694853b15610591576024908386519788948593637a9e5e4b60e01b855216878401525af180156112e9576112bf578380f35b6001600160401b0383116112d65750528180808380f35b634e487b7160e01b845260419052602483fd5b82513d86823e3d90fd5b5082903461059157806003193601126105915761130e61151e565b9060243591821515809303610bb857611325611b05565b6001600160a01b03169230841461138757508284526020848152818520600101805460ff60701b1916607085901b60ff60701b1617905590519182527f90d4e7bb7e5d933792b3562e1741306f8be94837e1348dacef9b6f1df56eb13891a280f35b836024925191630b40d17960e31b8352820152fd5b50346101cd5760203660031901126101cd5763ffffffff6113e86020936001600160401b036113c961157a565b168152600180865290849020015460801c6001600160701b031661210d565b5050915191168152f35b50346101cd5760203660031901126101cd576020906001600160401b03610c6061141a61157a565b6001600160401b038091165f526001602052600160405f20015460401c1690565b5082346105915760603660031901126105915761145661151e565b916024356001600160401b03928382116108da576114769136910161154a565b91906044359384168094036108da57611490949294611b05565b6001600160a01b0390921691855b8581106114a9578680f35b8060051b8201359063ffffffff60e01b8216809203610aef5785857f9ea6790c7dadfd01c9f8b9762b3682607af2c7e79e05a9f9fdf5580dde94915161151994828c526020908c82528c818a822091528252888d20856001600160401b03198254161790558851908152a3611957565b61149e565b600435906001600160a01b038216820361073c57565b602435906001600160a01b038216820361073c57565b9181601f8401121561073c578235916001600160401b03831161073c576020808501948460051b01011161073c57565b600435906001600160401b038216820361073c57565b602435906001600160401b038216820361073c57565b9181601f8401121561073c578235916001600160401b03831161073c576020838186019501011161073c57565b90604060031983011261073c576004356001600160a01b038116810361073c5791602435906001600160401b03821161073c57611612916004016115a6565b9091565b6024359063ffffffff8216820361073c57565b606060031982011261073c576001600160a01b0391600435838116810361073c5792602435908116810361073c5791604435906001600160401b03821161073c57611612916004016115a6565b6001600160a01b038281165f90815260208190526040812060018101549196959392909160701c60ff16156116ae5750505050508190565b821630036116ca5750506116c59060035492611fc3565b149190565b90916116f2935063ffffffff60e01b1685526020526001600160401b036040852054166117ae565b929015611706575063ffffffff8216159190565b91508190565b6001600160a01b03165f90815260208190526040902060010154611738906001600160701b031661210d565b505090565b6001600160401b038091165f526001602052600160405f2001541690565b6001600160401b03165f9081526001602090815260408083206001600160a01b039094168352929052205465ffffffffffff916117a4603083901c6001600160701b031661210d565b9490931693909291565b906001600160401b03808316036117c85750506001905f90565b6117d19161175b565b5050919065ffffffffffff80911680151591826117ef575b50509190565b9091506117fb426120db565b1610155f806117e9565b908060209392818452848401375f828201840152601f01601f1916010190565b80546601000000000000600160a01b03191660309290921b6601000000000000600160a01b0316919091179055565b91909165ffffffffffff8080941691160191821161186e57565b634e487b7160e01b5f52601160045260245ffd5b90601f801991011681019081106001600160401b038211176118a357604052565b634e487b7160e01b5f52604160045260245ffd5b6001600160401b0380911690811461193f575f8181526001602052604081209260018060a01b03169283825260205265ffffffffffff604082205416156119395780827ff229baa593af28c41b1d16b748cd7688f0c83aaf92d4be41c44005defe84c166925260016020526040812084825260205280604081205580a3600190565b91505090565b6024906040519063061c6a4360e21b82526004820152fd5b5f19811461186e5760010190565b5f52600260205265ffffffffffff60405f20541661198281611f84565b1561198c57505f90565b90565b6001600160401b0381116118a357601f01601f191660200190565b9291926119b68261198f565b916119c46040519384611882565b82948184528183011161073c578281602093845f960137010152565b5f818152600260205260408120549065ffffffffffff9163ffffffff8382169160301c169281155f14611a265760405163060a299b60e41b815260048101869052602490fd5b611a2f426120db565b16811115611a5057604051630c65b5bd60e11b815260048101859052602490fd5b611a5c90939293611f84565b611aa257907f76a2a46953689d4861a5d3f6ed883ad7e6af674a21f8e162707159fc9dde614d839282815260026020526040812065ffffffffffff19815416905580a390565b604051631e2975b960e21b815260048101839052602490fd5b611af1611aff929493604051948593602085019760018060a01b0380921689521660408501526060808501526080840191611805565b03601f198101835282611882565b51902090565b611b0f3633611eb6565b9015611b185750565b63ffffffff16611b55576044611b2d36611bad565b5060405163f07e038f60e01b81523360048201526001600160401b0390911660248201529050fd5b611baa6040516020810190338252306040820152606080820152366080820152365f60a08301375f60a03683010152611ba260a082601f19601f3601168101036080810184520182611882565b5190206119e0565b50565b60048110611d03578060041161073c575f9081356001600160e01b0319166310a6aa3760e31b81148015611cf3575b8015611ce3575b8015611cd3575b8015611cc3575b611cba5763063fc60f60e21b81148015611caa575b8015611c9a575b611c6b5763012e238d60e51b8114908115611c5a575b50611c2f575080918190565b6024116103c8576004356001600160401b03811681036101cd57611c529061173d565b916001929190565b635be958b160e11b1490505f611c23565b506024929192116101cd576004356001600160a01b0381169081900361059157611c949061170c565b60019291565b506308d6122d60e01b8114611c0d565b5063167bd39560e01b8114611c06565b50506001918190565b5063d22b598960e01b8114611bf1565b50635326cae760e11b8114611bea565b5063294b14a960e11b8114611be3565b506330cae18760e01b8114611bdc565b505f905f905f90565b9060048110611e65576001600160e01b0319611d288284611fad565b166310a6aa3760e31b81148015611e55575b8015611e45575b8015611e35575b8015611e25575b611e195763063fc60f60e21b81148015611e09575b8015611df9575b611dcc5763012e238d60e51b8114908115611dbb575b50611d905750505f905f905f90565b60241161073c57600401356001600160401b038116810361073c57611db49061173d565b6001915f90565b635be958b160e11b1490505f611d81565b5060241161073c576004013560018060a01b03811680910361073c57611df19061170c565b6001915f9190565b506308d6122d60e01b8114611d6b565b5063167bd39560e01b8114611d64565b5050506001905f905f90565b5063d22b598960e01b8114611d4f565b50635326cae760e11b8114611d48565b5063294b14a960e11b8114611d41565b506330cae18760e01b8114611d3a565b50505f905f905f90565b909291906001600160a01b0384163003611e8d576116129350611f49565b9192906004841015611ea357505050505f908190565b61161293611eb091611fad565b91611676565b9060048110611f11576001600160a01b0382163014611f2257611ed890611bad565b92909115611f1957611ee9916117ae565b9015611f115763ffffffff91821690821680821115611f0a57505b16801591565b9050611f04565b50505f905f90565b5050505f905f90565b905060041161073c57600354611f435f356001600160e01b03191630611fc3565b14905f90565b919060048210611f19576001600160a01b0383163014611f6d5790611ed891611d0c565b611f779250611fad565b611f436003549130611fc3565b62093a8065ffffffffffff809216019080821161186e5780611fa5426120db565b169116111590565b9060041161073c57356001600160e01b03191690565b604080516001600160a01b03909216602083019081526001600160e01b0319909316828201528152606081016001600160401b038111828210176118a35760405251902090565b3d15612034573d9061201b8261198f565b916120296040519384611882565b82523d5f602084013e565b606090565b90612060575080511561204e57805190602001fd5b604051630a12f52160e11b8152600490fd5b81511580612093575b612071575090565b604051639996b31560e01b81526001600160a01b039091166004820152602490fd5b50803b15612069565b6001600160401b0381116118a35760051b60200190565b80518210156120c75760209160051b010190565b634e487b7160e01b5f52603260045260245ffd5b65ffffffffffff908181116120ee571690565b604490604051906306dfcc6560e41b8252603060048301526024820152fd5b612116426120db565b63ffffffff8281169265ffffffffffff604082901c811693168311612140575091925f9250829150565b60201c1692565b6121539092919261210d565b50509163ffffffff80911690818185165f8282115f146121c057500381811161186e578167ffffffff000000009261219f925b620697809116808211156121b95750166110b5426120db565b9360201b1665ffffffffffff60401b8460401b1617179190565b90506110ab565b61219f92508391509267ffffffff000000009361218656fef98448b987f1428e0e230e1f3c6e2ce15b5693eaf31827fbd0b1ec4b424ae7cfa26469706673582212204e0314b069e5e79a2f5f16375a591dd186cae34f711129e492c3d710dc2a9d0364736f6c63430008140033f98448b987f1428e0e230e1f3c6e2ce15b5693eaf31827fbd0b1ec4b424ae7cf","linkReferences":{}},"methodIdentifiers":{"ADMIN_ROLE()":"75b238fc","PUBLIC_ROLE()":"3ca7c02a","canCall(address,address,bytes4)":"b7009613","cancel(address,address,bytes)":"d6bb62c6","consumeScheduledOp(address,bytes)":"94c7d7ee","execute(address,bytes)":"1cff79cd","expiration()":"4665096d","getAccess(uint64,address)":"3078f114","getNonce(bytes32)":"4136a33c","getRoleAdmin(uint64)":"530dd456","getRoleGrantDelay(uint64)":"12be8727","getRoleGuardian(uint64)":"0b0a93ba","getSchedule(bytes32)":"3adc277a","getTargetAdminDelay(address)":"4c1da1e2","getTargetFunctionRole(address,bytes4)":"6d5115bd","grantRole(uint64,address,uint32)":"25c471a0","hasRole(uint64,address)":"d1f856ee","hashOperation(address,address,bytes)":"abd9bd2a","isTargetClosed(address)":"a166aa89","labelRole(uint64,string)":"853551b8","minSetback()":"cc1b6c81","multicall(bytes[])":"ac9650d8","renounceRole(uint64,address)":"fe0776f5","revokeRole(uint64,address)":"b7d2b162","schedule(address,bytes,uint48)":"f801a698","setGrantDelay(uint64,uint32)":"a64d95ce","setRoleAdmin(uint64,uint64)":"30cae187","setRoleGuardian(uint64,uint64)":"52962952","setTargetAdminDelay(address,uint32)":"d22b5989","setTargetClosed(address,bool)":"167bd395","setTargetFunctionRole(address,bytes4[],uint64)":"08d6122d","updateAuthority(address,address)":"18ff183c"},"id":189}