{"abi":[{"type":"constructor","inputs":[],"stateMutability":"nonpayable"},{"type":"function","name":"callback","inputs":[],"outputs":[],"stateMutability":"nonpayable"},{"type":"function","name":"countAndCall","inputs":[{"name":"attacker","type":"address","internalType":"contract ReentrancyAttack"}],"outputs":[],"stateMutability":"nonpayable"},{"type":"function","name":"countLocalRecursive","inputs":[{"name":"n","type":"uint256","internalType":"uint256"}],"outputs":[],"stateMutability":"nonpayable"},{"type":"function","name":"countThisRecursive","inputs":[{"name":"n","type":"uint256","internalType":"uint256"}],"outputs":[],"stateMutability":"nonpayable"},{"type":"function","name":"counter","inputs":[],"outputs":[{"name":"","type":"uint256","internalType":"uint256"}],"stateMutability":"view"},{"type":"function","name":"guardedCheckEntered","inputs":[],"outputs":[],"stateMutability":"nonpayable"},{"type":"function","name":"unguardedCheckNotEntered","inputs":[],"outputs":[],"stateMutability":"view"},{"type":"error","name":"ReentrancyGuardReentrantCall","inputs":[]}],"bytecode":{"object":"0x6080806040523461001e5760015f555f60015561048790816100238239f35b5f80fdfe60406080815260049081361015610014575f80fd5b5f91823560e01c918263083b2732146103aa57826361bc221a146103875782638c5344fa1461024b57826396ffa690146101e8578263a408f312146101bf578263b672ad8b1461008d57505063cecc95a71461006e575f80fd5b3461008a578060031936011261008a57600281541461008a5780f35b80fd5b909150346101bb57602091826003193601126101b75780356001600160a01b03811693908490036101b3576100c0610430565b6100c861041d565b82519363041d939960e11b828601528285528385019467ffffffffffffffff86119281871084176101a057868652823b1561019c57918691889363f8123dd560e01b8452806044830152815190816064840152855b828110610182575050808201608401859052601f01601f191681010360440190829084905af1801561017857610156575b846001815580f35b6101655750525f80808061014e565b634e487b7160e01b845260419052602483fd5b83513d87823e3d90fd5b808401808301516084909101528b96508a9550810161011d565b8780fd5b634e487b7160e01b885260418552602488fd5b8480fd5b8380fd5b8280fd5b833461008a578060031936011261008a576101d8610430565b600281540361008a576001815580f35b50823461008a57602036600319011261008a578135610205610430565b80610213575b506001815580f35b61021b61041d565b5f198101908111610238576102319192506103d2565b808261020b565b506011602492634e487b7160e01b835252fd5b909150346101bb5760203660031901126101bb5781359061026a610430565b81610278575b836001815580f35b61028061041d565b5f19820191821161037457805160208101634629a27d60e11b815260249384830152838252606082019167ffffffffffffffff928181108482111761034a57845251869182919082305af1903d1561036e573d81811161035c57835191601f8201601f19908116603f011683019081118382101761034a57845281528560203d92013e5b61027057606492916020601b92519362461bcd60e51b85528401528201527f5265656e7472616e63794d6f636b3a206661696c65642063616c6c00000000006044820152fd5b634e487b7160e01b8852604187528588fd5b634e487b7160e01b8752604186528487fd5b50610304565b634e487b7160e01b845260118352602484fd5b8390346103a657816003193601126103a6576020906001549051908152f35b5080fd5b833461008a578060031936011261008a576103c3610430565b6103cb61041d565b6001815580f35b6103da610430565b806103e7575b5060015f55565b6103ef61041d565b5f19810190811161040957610403906103d2565b5f6103e0565b634e487b7160e01b5f52601160045260245ffd5b6001546001810180911161040957600155565b60025f541461043f5760025f55565b604051633ee5aeb560e01b8152600490fdfea2646970667358221220b1eabd1b884db2f0c31af843e08e58b242ff39c8440d64cbe1627592d444934964736f6c63430008140033","linkReferences":{}},"methodIdentifiers":{"callback()":"083b2732","countAndCall(address)":"b672ad8b","countLocalRecursive(uint256)":"96ffa690","countThisRecursive(uint256)":"8c5344fa","counter()":"61bc221a","guardedCheckEntered()":"a408f312","unguardedCheckNotEntered()":"cecc95a7"},"id":259}