{"abi":[{"type":"function","name":"callSender","inputs":[{"name":"data","type":"bytes","internalType":"bytes"}],"outputs":[],"stateMutability":"nonpayable"},{"type":"event","name":"Initialized","inputs":[{"name":"version","type":"uint64","indexed":false,"internalType":"uint64"}],"anonymous":false},{"type":"error","name":"InvalidInitialization","inputs":[]},{"type":"error","name":"NotInitializing","inputs":[]}],"bytecode":{"object":"0x6080806040523461001657610177908161001b8239f35b5f80fdfe608080604052600480361015610013575f80fd5b5f91823560e01c63f8123dd514610028575f80fd5b3461013d57602036600319011261013d5782823567ffffffffffffffff9283821161013d573660238301121561013d57818501359184831161013957366024848301011161013957828493602484930183378101838152039082335af1903d15610133573d8181116101205760405191601f8201601f19908116603f011683019081118382101761010d5760405281528360203d92013e5b156100c9575080f35b60649060206040519162461bcd60e51b8352820152601d60248201527f5265656e7472616e637941747461636b3a206661696c65642063616c6c0000006044820152fd5b634e487b7160e01b865260418552602486fd5b634e487b7160e01b855260418452602485fd5b506100c0565b8380fd5b8280fdfea2646970667358221220183e543d9f9aa37c38178bb5f3745d4d795cda0eeed97be9c94cd69c70403c5264736f6c63430008140033","linkReferences":{}},"methodIdentifiers":{"callSender(bytes)":"f8123dd5"},"id":96}