{"abi":[{"type":"function","name":"decimals","inputs":[],"outputs":[{"name":"","type":"uint256","internalType":"uint256"}],"stateMutability":"pure"}],"bytecode":{"object":"0x60808060405234601457607690816100198239f35b5f80fdfe60808060405260043610156011575f80fd5b5f90813560e01c63313ce567146025575f80fd5b34603c5781600319360112603c575f198152602090f35b5080fdfea2646970667358221220ce57e9333347ecfb5d3bbb5e022cb807d51ec586bdd179e825171fa32498bfd264736f6c63430008140033","linkReferences":{}},"methodIdentifiers":{"decimals()":"313ce567"},"id":297}