{"abi":[{"type":"constructor","inputs":[],"stateMutability":"nonpayable"},{"type":"receive","stateMutability":"payable"},{"type":"function","name":"EPOCH_DURATION","inputs":[],"outputs":[{"name":"","type":"uint256","internalType":"uint256"}],"stateMutability":"view"},{"type":"function","name":"MAX_KEYPERS","inputs":[],"outputs":[{"name":"","type":"uint256","internalType":"uint256"}],"stateMutability":"view"},{"type":"function","name":"MIN_KEYPERS","inputs":[],"outputs":[{"name":"","type":"uint256","internalType":"uint256"}],"stateMutability":"view"},{"type":"function","name":"MIN_THRESHOLD","inputs":[],"outputs":[{"name":"","type":"uint256","internalType":"uint256"}],"stateMutability":"view"},{"type":"function","name":"UPGRADE_INTERFACE_VERSION","inputs":[],"outputs":[{"name":"","type":"string","internalType":"string"}],"stateMutability":"view"},{"type":"function","name":"abortDKG","inputs":[{"name":"_reason","type":"string","internalType":"string"}],"outputs":[],"stateMutability":"nonpayable"},{"type":"function","name":"activeKeyperCount","inputs":[],"outputs":[{"name":"","type":"uint256","internalType":"uint256"}],"stateMutability":"view"},{"type":"function","name":"batchGetKeyperSummary","inputs":[{"name":"_keypers","type":"address[]","internalType":"address[]"}],"outputs":[{"name":"active_","type":"bool[]","internalType":"bool[]"},{"name":"stakes_","type":"uint256[]","internalType":"uint256[]"},{"name":"slashCounts","type":"uint256[]","internalType":"uint256[]"},{"name":"registeredForDKG","type":"bool[]","internalType":"bool[]"}],"stateMutability":"view"},{"type":"function","name":"batchGetStakes","inputs":[{"name":"_keypers","type":"address[]","internalType":"address[]"}],"outputs":[{"name":"stakedAmounts","type":"uint256[]","internalType":"uint256[]"}],"stateMutability":"view"},{"type":"function","name":"batchIsEpochKeyValid","inputs":[{"name":"_epochs","type":"uint256[]","internalType":"uint256[]"}],"outputs":[{"name":"valid","type":"bool[]","internalType":"bool[]"}],"stateMutability":"view"},{"type":"function","name":"batchIsKeyperActive","inputs":[{"name":"_keypers","type":"address[]","internalType":"address[]"}],"outputs":[{"name":"active","type":"bool[]","internalType":"bool[]"}],"stateMutability":"view"},{"type":"function","name":"batchIsRegisteredForDKG","inputs":[{"name":"_keypers","type":"address[]","internalType":"address[]"}],"outputs":[{"name":"registered","type":"bool[]","internalType":"bool[]"}],"stateMutability":"view"},{"type":"function","name":"currentEpoch","inputs":[],"outputs":[{"name":"","type":"uint256","internalType":"uint256"}],"stateMutability":"view"},{"type":"function","name":"deactivateKeyper","inputs":[{"name":"_keyper","type":"address","internalType":"address"},{"name":"_reason","type":"string","internalType":"string"}],"outputs":[],"stateMutability":"nonpayable"},{"type":"function","name":"epochKeys","inputs":[{"name":"","type":"uint256","internalType":"uint256"}],"outputs":[{"name":"epoch","type":"uint256","internalType":"uint256"},{"name":"aggregatedPubKey","type":"bytes","internalType":"bytes"},{"name":"keyCommitment","type":"bytes32","internalType":"bytes32"},{"name":"threshold","type":"uint256","internalType":"uint256"},{"name":"keyperCount","type":"uint256","internalType":"uint256"},{"name":"activatedAt","type":"uint256","internalType":"uint256"},{"name":"expiresAt","type":"uint256","internalType":"uint256"},{"name":"revoked","type":"bool","internalType":"bool"}],"stateMutability":"view"},{"type":"function","name":"finalizeDKG","inputs":[{"name":"_aggregatedPubKey","type":"bytes","internalType":"bytes"},{"name":"_keyCommitment","type":"bytes32","internalType":"bytes32"}],"outputs":[],"stateMutability":"nonpayable"},{"type":"function","name":"getActiveKeypers","inputs":[],"outputs":[{"name":"activeKeypers","type":"address[]","internalType":"address[]"}],"stateMutability":"view"},{"type":"function","name":"getAllKeypers","inputs":[],"outputs":[{"name":"allKeypers","type":"address[]","internalType":"address[]"}],"stateMutability":"view"},{"type":"function","name":"getCurrentKeyStatus","inputs":[],"outputs":[{"name":"valid","type":"bool","internalType":"bool"},{"name":"blocksRemaining","type":"uint256","internalType":"uint256"},{"name":"keyperCount","type":"uint256","internalType":"uint256"},{"name":"epochThreshold","type":"uint256","internalType":"uint256"}],"stateMutability":"view"},{"type":"function","name":"getCurrentPublicKey","inputs":[],"outputs":[{"name":"pubKey","type":"bytes","internalType":"bytes"}],"stateMutability":"view"},{"type":"function","name":"getDKGParticipants","inputs":[],"outputs":[{"name":"participants","type":"address[]","internalType":"address[]"}],"stateMutability":"view"},{"type":"function","name":"getDKGPhase","inputs":[],"outputs":[{"name":"phase","type":"uint256","internalType":"uint256"}],"stateMutability":"view"},{"type":"function","name":"getDKGStatus","inputs":[],"outputs":[{"name":"epoch","type":"uint256","internalType":"uint256"},{"name":"phase","type":"uint256","internalType":"uint256"},{"name":"deadline","type":"uint256","internalType":"uint256"},{"name":"participantCount","type":"uint256","internalType":"uint256"},{"name":"dealingsCount","type":"uint256","internalType":"uint256"},{"name":"blocksUntilDeadline","type":"uint256","internalType":"uint256"}],"stateMutability":"view"},{"type":"function","name":"getEpochHistory","inputs":[{"name":"_epochStart","type":"uint256","internalType":"uint256"},{"name":"_epochEnd","type":"uint256","internalType":"uint256"}],"outputs":[{"name":"epochs_","type":"uint256[]","internalType":"uint256[]"},{"name":"valid","type":"bool[]","internalType":"bool[]"},{"name":"revoked","type":"bool[]","internalType":"bool[]"},{"name":"thresholds_","type":"uint256[]","internalType":"uint256[]"}],"stateMutability":"view"},{"type":"function","name":"getEpochKey","inputs":[{"name":"_epoch","type":"uint256","internalType":"uint256"}],"outputs":[{"name":"key","type":"tuple","internalType":"struct ThresholdKeyRegistry.ThresholdKey","components":[{"name":"epoch","type":"uint256","internalType":"uint256"},{"name":"aggregatedPubKey","type":"bytes","internalType":"bytes"},{"name":"keyCommitment","type":"bytes32","internalType":"bytes32"},{"name":"threshold","type":"uint256","internalType":"uint256"},{"name":"keyperCount","type":"uint256","internalType":"uint256"},{"name":"activatedAt","type":"uint256","internalType":"uint256"},{"name":"expiresAt","type":"uint256","internalType":"uint256"},{"name":"revoked","type":"bool","internalType":"bool"}]}],"stateMutability":"view"},{"type":"function","name":"getKeyExpirationInfo","inputs":[],"outputs":[{"name":"blocksRemaining","type":"uint256","internalType":"uint256"},{"name":"secondsRemaining","type":"uint256","internalType":"uint256"},{"name":"percentRemaining","type":"uint256","internalType":"uint256"}],"stateMutability":"view"},{"type":"function","name":"getKeyperDetails","inputs":[{"name":"_keyper","type":"address","internalType":"address"}],"outputs":[{"name":"keyperData","type":"tuple","internalType":"struct ThresholdKeyRegistry.Keyper","components":[{"name":"addr","type":"address","internalType":"address"},{"name":"publicKey","type":"bytes","internalType":"bytes"},{"name":"endpoint","type":"string","internalType":"string"},{"name":"registeredAt","type":"uint256","internalType":"uint256"},{"name":"active","type":"bool","internalType":"bool"},{"name":"slashCount","type":"uint256","internalType":"uint256"}]},{"name":"stakedAmount","type":"uint256","internalType":"uint256"},{"name":"isActive","type":"bool","internalType":"bool"}],"stateMutability":"view"},{"type":"function","name":"getNetworkHealth","inputs":[],"outputs":[{"name":"totalKeypers_","type":"uint256","internalType":"uint256"},{"name":"activeCount_","type":"uint256","internalType":"uint256"},{"name":"avgStake","type":"uint256","internalType":"uint256"},{"name":"totalSlashed","type":"uint256","internalType":"uint256"},{"name":"networkSecure","type":"bool","internalType":"bool"}],"stateMutability":"view"},{"type":"function","name":"getRegistryStatus","inputs":[],"outputs":[{"name":"totalKeypers","type":"uint256","internalType":"uint256"},{"name":"activeCount","type":"uint256","internalType":"uint256"},{"name":"currentThreshold","type":"uint256","internalType":"uint256"},{"name":"epoch","type":"uint256","internalType":"uint256"},{"name":"dkgPhase","type":"uint256","internalType":"uint256"},{"name":"isPaused","type":"bool","internalType":"bool"}],"stateMutability":"view"},{"type":"function","name":"getTopKeypersByStake","inputs":[{"name":"_limit","type":"uint256","internalType":"uint256"}],"outputs":[{"name":"topKeypers","type":"address[]","internalType":"address[]"},{"name":"topStakes","type":"uint256[]","internalType":"uint256[]"}],"stateMutability":"view"},{"type":"function","name":"getTotalStaked","inputs":[],"outputs":[{"name":"totalStaked","type":"uint256","internalType":"uint256"}],"stateMutability":"view"},{"type":"function","name":"initialize","inputs":[{"name":"_owner","type":"address","internalType":"address"},{"name":"_threshold","type":"uint256","internalType":"uint256"},{"name":"_minStake","type":"uint256","internalType":"uint256"}],"outputs":[],"stateMutability":"nonpayable"},{"type":"function","name":"isEpochKeyValid","inputs":[{"name":"_epoch","type":"uint256","internalType":"uint256"}],"outputs":[{"name":"valid","type":"bool","internalType":"bool"}],"stateMutability":"view"},{"type":"function","name":"isKeyperActive","inputs":[{"name":"keyper","type":"address","internalType":"address"}],"outputs":[{"name":"active","type":"bool","internalType":"bool"}],"stateMutability":"view"},{"type":"function","name":"isRegisteredForDKG","inputs":[{"name":"_keyper","type":"address","internalType":"address"}],"outputs":[{"name":"registered","type":"bool","internalType":"bool"}],"stateMutability":"view"},{"type":"function","name":"keyperList","inputs":[{"name":"","type":"uint256","internalType":"uint256"}],"outputs":[{"name":"","type":"address","internalType":"address"}],"stateMutability":"view"},{"type":"function","name":"keypers","inputs":[{"name":"","type":"address","internalType":"address"}],"outputs":[{"name":"addr","type":"address","internalType":"address"},{"name":"publicKey","type":"bytes","internalType":"bytes"},{"name":"endpoint","type":"string","internalType":"string"},{"name":"registeredAt","type":"uint256","internalType":"uint256"},{"name":"active","type":"bool","internalType":"bool"},{"name":"slashCount","type":"uint256","internalType":"uint256"}],"stateMutability":"view"},{"type":"function","name":"minStake","inputs":[],"outputs":[{"name":"","type":"uint256","internalType":"uint256"}],"stateMutability":"view"},{"type":"function","name":"owner","inputs":[],"outputs":[{"name":"","type":"address","internalType":"address"}],"stateMutability":"view"},{"type":"function","name":"pause","inputs":[],"outputs":[],"stateMutability":"nonpayable"},{"type":"function","name":"paused","inputs":[],"outputs":[{"name":"","type":"bool","internalType":"bool"}],"stateMutability":"view"},{"type":"function","name":"proxiableUUID","inputs":[],"outputs":[{"name":"","type":"bytes32","internalType":"bytes32"}],"stateMutability":"view"},{"type":"function","name":"registerForDKG","inputs":[],"outputs":[],"stateMutability":"nonpayable"},{"type":"function","name":"registerKeyper","inputs":[{"name":"_publicKey","type":"bytes","internalType":"bytes"},{"name":"_endpoint","type":"string","internalType":"string"}],"outputs":[],"stateMutability":"payable"},{"type":"function","name":"renounceOwnership","inputs":[],"outputs":[],"stateMutability":"nonpayable"},{"type":"function","name":"revokeEpochKey","inputs":[{"name":"_epoch","type":"uint256","internalType":"uint256"},{"name":"_reason","type":"string","internalType":"string"}],"outputs":[],"stateMutability":"nonpayable"},{"type":"function","name":"setMinStake","inputs":[{"name":"_newMinStake","type":"uint256","internalType":"uint256"}],"outputs":[],"stateMutability":"nonpayable"},{"type":"function","name":"setThreshold","inputs":[{"name":"_newThreshold","type":"uint256","internalType":"uint256"}],"outputs":[],"stateMutability":"nonpayable"},{"type":"function","name":"slashKeyper","inputs":[{"name":"_keyper","type":"address","internalType":"address"},{"name":"_amount","type":"uint256","internalType":"uint256"},{"name":"_reason","type":"string","internalType":"string"}],"outputs":[],"stateMutability":"nonpayable"},{"type":"function","name":"stakes","inputs":[{"name":"","type":"address","internalType":"address"}],"outputs":[{"name":"","type":"uint256","internalType":"uint256"}],"stateMutability":"view"},{"type":"function","name":"startDKG","inputs":[],"outputs":[],"stateMutability":"nonpayable"},{"type":"function","name":"submitDealing","inputs":[{"name":"_dealingHash","type":"bytes32","internalType":"bytes32"}],"outputs":[],"stateMutability":"nonpayable"},{"type":"function","name":"threshold","inputs":[],"outputs":[{"name":"","type":"uint256","internalType":"uint256"}],"stateMutability":"view"},{"type":"function","name":"transferOwnership","inputs":[{"name":"newOwner","type":"address","internalType":"address"}],"outputs":[],"stateMutability":"nonpayable"},{"type":"function","name":"unpause","inputs":[],"outputs":[],"stateMutability":"nonpayable"},{"type":"function","name":"upgradeToAndCall","inputs":[{"name":"newImplementation","type":"address","internalType":"address"},{"name":"data","type":"bytes","internalType":"bytes"}],"outputs":[],"stateMutability":"payable"},{"type":"function","name":"withdrawStake","inputs":[],"outputs":[],"stateMutability":"nonpayable"},{"type":"event","name":"DKGAborted","inputs":[{"name":"reason","type":"string","indexed":false,"internalType":"string"}],"anonymous":false},{"type":"event","name":"DKGDealingSubmitted","inputs":[{"name":"epoch","type":"uint256","indexed":true,"internalType":"uint256"},{"name":"keyper","type":"address","indexed":true,"internalType":"address"}],"anonymous":false},{"type":"event","name":"DKGFinalized","inputs":[{"name":"epoch","type":"uint256","indexed":true,"internalType":"uint256"},{"name":"aggregatedPubKey","type":"bytes","indexed":false,"internalType":"bytes"},{"name":"threshold","type":"uint256","indexed":false,"internalType":"uint256"},{"name":"keyperCount","type":"uint256","indexed":false,"internalType":"uint256"}],"anonymous":false},{"type":"event","name":"DKGStarted","inputs":[{"name":"epoch","type":"uint256","indexed":true,"internalType":"uint256"},{"name":"deadline","type":"uint256","indexed":false,"internalType":"uint256"}],"anonymous":false},{"type":"event","name":"EpochKeyActivated","inputs":[{"name":"epoch","type":"uint256","indexed":true,"internalType":"uint256"},{"name":"aggregatedPubKey","type":"bytes","indexed":false,"internalType":"bytes"}],"anonymous":false},{"type":"event","name":"EpochKeyRevoked","inputs":[{"name":"epoch","type":"uint256","indexed":true,"internalType":"uint256"},{"name":"reason","type":"string","indexed":false,"internalType":"string"}],"anonymous":false},{"type":"event","name":"Initialized","inputs":[{"name":"version","type":"uint64","indexed":false,"internalType":"uint64"}],"anonymous":false},{"type":"event","name":"KeyperDeactivated","inputs":[{"name":"keyper","type":"address","indexed":true,"internalType":"address"},{"name":"reason","type":"string","indexed":false,"internalType":"string"}],"anonymous":false},{"type":"event","name":"KeyperRegistered","inputs":[{"name":"keyper","type":"address","indexed":true,"internalType":"address"},{"name":"publicKey","type":"bytes","indexed":false,"internalType":"bytes"},{"name":"endpoint","type":"string","indexed":false,"internalType":"string"}],"anonymous":false},{"type":"event","name":"KeyperSlashed","inputs":[{"name":"keyper","type":"address","indexed":true,"internalType":"address"},{"name":"amount","type":"uint256","indexed":false,"internalType":"uint256"},{"name":"reason","type":"string","indexed":false,"internalType":"string"}],"anonymous":false},{"type":"event","name":"OwnershipTransferred","inputs":[{"name":"previousOwner","type":"address","indexed":true,"internalType":"address"},{"name":"newOwner","type":"address","indexed":true,"internalType":"address"}],"anonymous":false},{"type":"event","name":"Paused","inputs":[{"name":"account","type":"address","indexed":false,"internalType":"address"}],"anonymous":false},{"type":"event","name":"ThresholdUpdated","inputs":[{"name":"oldThreshold","type":"uint256","indexed":false,"internalType":"uint256"},{"name":"newThreshold","type":"uint256","indexed":false,"internalType":"uint256"}],"anonymous":false},{"type":"event","name":"Unpaused","inputs":[{"name":"account","type":"address","indexed":false,"internalType":"address"}],"anonymous":false},{"type":"event","name":"Upgraded","inputs":[{"name":"implementation","type":"address","indexed":true,"internalType":"address"}],"anonymous":false},{"type":"error","name":"AddressEmptyCode","inputs":[{"name":"target","type":"address","internalType":"address"}]},{"type":"error","name":"AlreadyRegisteredForDKG","inputs":[]},{"type":"error","name":"AlreadySubmittedDealing","inputs":[]},{"type":"error","name":"DKGAlreadyActive","inputs":[]},{"type":"error","name":"DKGDeadlineNotPassed","inputs":[]},{"type":"error","name":"DKGDeadlinePassed","inputs":[]},{"type":"error","name":"DKGNotActive","inputs":[]},{"type":"error","name":"DKGPhaseIncorrect","inputs":[]},{"type":"error","name":"ERC1967InvalidImplementation","inputs":[{"name":"implementation","type":"address","internalType":"address"}]},{"type":"error","name":"ERC1967NonPayable","inputs":[]},{"type":"error","name":"EmptyArray","inputs":[]},{"type":"error","name":"EnforcedPause","inputs":[]},{"type":"error","name":"EpochAlreadyExists","inputs":[]},{"type":"error","name":"EpochNotActive","inputs":[]},{"type":"error","name":"ExpectedPause","inputs":[]},{"type":"error","name":"FailedInnerCall","inputs":[]},{"type":"error","name":"InsufficientStake","inputs":[]},{"type":"error","name":"InvalidAddress","inputs":[]},{"type":"error","name":"InvalidInitialization","inputs":[]},{"type":"error","name":"InvalidPublicKey","inputs":[]},{"type":"error","name":"InvalidThreshold","inputs":[]},{"type":"error","name":"KeyRevoked","inputs":[]},{"type":"error","name":"KeyperAlreadyRegistered","inputs":[]},{"type":"error","name":"KeyperNotRegistered","inputs":[]},{"type":"error","name":"NotEnoughKeypers","inputs":[]},{"type":"error","name":"NotInitializing","inputs":[]},{"type":"error","name":"NotRegisteredForDKG","inputs":[]},{"type":"error","name":"OwnableInvalidOwner","inputs":[{"name":"owner","type":"address","internalType":"address"}]},{"type":"error","name":"OwnableUnauthorizedAccount","inputs":[{"name":"account","type":"address","internalType":"address"}]},{"type":"error","name":"ReentrancyGuardReentrantCall","inputs":[]},{"type":"error","name":"TooManyKeypers","inputs":[]},{"type":"error","name":"UUPSUnauthorizedCallContext","inputs":[]},{"type":"error","name":"UUPSUnsupportedProxiableUUID","inputs":[{"name":"slot","type":"bytes32","internalType":"bytes32"}]}],"bytecode":{"object":"0x60a080604052346100cd57306080527ff0c57e16840df040f15088dc2f81fe391c3923bec73e23a9662efc9c229c6a009081549060ff8260401c166100be57506001600160401b036002600160401b031982821601610079575b60405161310b9081620000d28239608051818181611e170152611ebd0152f35b6001600160401b031990911681179091556040519081527fc7f505b2f371ae2175ee4913f4499e1f2633a7b5936321eed1cdaeb6115181d290602090a15f8080610059565b63f92ee8a960e01b8152600490fd5b5f80fdfe6080604052600436101561001a575b3615610018575f80fd5b005b60e05f35811c90816301ed3f6e146127bd5781630917e7761461275c57816310f92525146126c957816316934fc41461269157816319523f5b1461249f5781631982d00c146124085781631a76c87a1461230e5781631b681ce0146121d4578163315784b31461213c578163375b3c0a1461211f5781633c8a87a7146120dd5781633f4ba83a1461206857816342cde4e81461204b5781634f1ef28614611e6e57816352d1902d14611e0557816358e7bee614611d4e5781635c975abb14611d205781635fdbe8aa14611cc05781636b8ebd6714611c1d578163715018a614611bb65781637667180814611b995781637a1ac61e146119f55781637a461b2d146117425781637bcf6e231461161e575080637c60fa911461159f5780637e97caea146114a257806380310262146113515780638456cb59146112ec5780638c80fd90146112c55780638da5cb5b1461129157806392c0f44314611276578063960bfe04146111fe578063966bd1241461111e578063976525271461106657806397a551d414610cae5780639871d38f14610bf25780639e28516114610b4c578063a70b9f0c14610b30578063ac45338814610b13578063ad3cb1cc14610abc578063ae2f54b214610a48578063affbc6501461097b578063b6611b3d1461094e578063bc2e5b48146108f6578063bd11c4c0146108db578063bed9d861146107dc578063ce00cb741461079f578063cf752b5a14610784578063d10b6b28146106f7578063e5386c8e146106b8578063ea4fe63414610595578063eb7881ce14610451578063ef7f3a7214610434578063f27913be146103c6578063f2fde38b1461039d578063f34a87ba146103415763ffdea3af0361000e573461033d5760208060031936011261033d576004356001600160401b03811161033d576102c59036906004016128a2565b6102d181939293612e1e565b925f5b8281106102f6575050506102f2604051928284938452830190612986565b0390f35b610338906001600160a01b03610315610310838787612e64565b612e74565b165f52600b855260ff60405f20541661032e8288612e50565b9015159052612d48565b6102d4565b5f80fd5b3461033d57602036600319011261033d576004355f526003602052602060405f2080541515908161038d575b8161037e575b506040519015158152f35b60069150015443111582610373565b600781015460ff1615915061036d565b3461033d57602036600319011261033d576100186103b9612905565b6103c1612b71565b612ba9565b3461033d57604036600319011261033d5761040a6104186102f26104266103f1602435600435612ea6565b93929590916040519788976080895260808901906128d2565b908782036020890152612986565b908582036040870152612986565b9083820360608501526128d2565b3461033d575f36600319011261033d576020600254604051908152f35b3461033d57606036600319011261033d5761046a612905565b6024356044356001600160401b03811161033d5761048c90369060040161291b565b9091610496612b71565b60018060a01b0380941693845f525f60205260405f209081541615610583577f63a1073cd267aa7a2ff04aa8de3f832dd7bdd854f01f369bdbaf2d2764d344b09361054691865f52600e60205260405f208054948581115f1461057857506104fe8580612dac565b90556005810161050e8154612d48565b9055865f52600e60205260405f2054600d54118061056a575b61054b575b506040519384938452604060208501526040840191612d56565b0390a2005b60040160ff198154169055610561600254612da0565b6002558661052c565b5060ff600482015416610527565b6104fe908096612dac565b604051637101322f60e11b8152600490fd5b3461033d575f36600319011261033d576001600654036106a657600754431161069457335f525f60205260ff600460405f200154161561058357335f52600b60205260ff60405f20541661068257335f908152600b60205260409020805460ff19166001179055600854600160401b81101561066e5780600161061b92016008556129e7565b81546001600160a01b0360039290921b91821b19163390911b179055600854600c54111561064557005b600260065560c8430180431161065a57600755005b634e487b7160e01b5f52601160045260245ffd5b634e487b7160e01b5f52604160045260245ffd5b604051631910b5df60e31b8152600490fd5b60405163089ceb4b60e31b8152600490fd5b60405163d3aa82e160e01b8152600490fd5b3461033d57602036600319011261033d576001600160a01b036106d9612905565b165f525f602052602060ff600460405f200154166040519015158152f35b3461033d575f36600319011261033d576004545f52600360205260405f2060ff600782015416610772576006810154431161076057600161074c6102f2926107456040518094819301612ae0565b0382612a36565b604051918291602083526020830190612948565b60405163a5b38bdd60e01b8152600490fd5b60405163469537f160e01b8152600490fd5b3461033d575f36600319011261033d57602060405160158152f35b3461033d57602036600319011261033d576001600160a01b036107c0612905565b165f52600b602052602060ff60405f2054166040519015158152f35b3461033d575f36600319011261033d577f9b779b17422d0df92223018b32b4d1fa46e071723d6817e2486d003becc55f0060028154146108c95760028155335f90815260208190526040902080546001600160a01b031615610583576004015460ff1661058357335f52600e60205260405f205480156108b7575f80808093338252600e602052816040812055335af1610874612c1a565b50156108805760019055005b60405162461bcd60e51b815260206004820152600f60248201526e151c985b9cd9995c8819985a5b1959608a1b6044820152606490fd5b6040516378de4a6960e11b8152600490fd5b604051633ee5aeb560e01b8152600490fd5b3461033d575f36600319011261033d57602060405160028152f35b3461033d575f36600319011261033d5760c0600154600254600c546004546006549160ff5f805160206130b68339815191525416936040519586526020860152604085015260608401526080830152151560a0820152f35b3461033d575f36600319011261033d576060610968612f97565b9060405192835260208301526040820152f35b3461033d57602036600319011261033d576002600654036106a657600754431161069457335f52600b60205260ff60405f20541615610a3657335f525f60205260ff600460405f200154161561058357335f52600960205260405f2054610a2457335f52600960205260043560405f20556109f7600a54612d48565b600a55336005547f8f09056749b74cfd17cf3ad41ce107fc5b80b35f52d3992617b3f37307b6a68d5f80a3005b604051631e119db360e01b8152600490fd5b604051633101ee5d60e11b8152600490fd5b3461033d575f36600319011261033d576040518060085480825282602080930160085f52835f20925f5b85828210610a9d57505050610a8992500383612a36565b6102f2604051928284938452830190612866565b85546001600160a01b0316845260019586019588955093019201610a72565b3461033d575f36600319011261033d5760405160408101908082106001600160401b0383111761066e576102f29160405260058152640352e302e360dc1b6020820152604051918291602083526020830190612948565b3461033d575f36600319011261033d576020600654604051908152f35b3461033d575f36600319011261033d57602060405161c4e08152f35b3461033d575f36600319011261033d576004545f526003602052608060405f20805415159081610be2575b81610bd3575b5f908280610bc6575b610baf575b60036004820154910154916040519315158452602084015260408301526060820152f35b9050610bc060068201544390612dac565b90610b8b565b5060068101544310610b86565b60068101544311159150610b7d565b600781015460ff16159150610b77565b3461033d575f36600319011261033d576001546002545f91908280805b848110610c5757508260a09581610c46575b5050600c54831015926040519485526020850152604084015260608301526080820152f35b610c509250612e88565b8286610c21565b91610ca3610ca9915f610c69866129bb565b60018060a01b0391549060031b1c1698898252610c91602091600e8352604084205490612db9565b99825252600560405f20015490612db9565b92612d48565b610c0f565b604036600319011261033d576004356001600160401b03811161033d57610cd990369060040161291b565b906024356001600160401b03811161033d57610cf990369060040161291b565b919092610d04612d76565b335f908152602081905260409020546001600160a01b031661105457600d5434106108b75760308103611042576015600154101561103057604051610d48816129ff565b338152610d56368385612a72565b9060208101918252610d69368688612a72565b604082810191909152436060830152600160808301525f60a08301819052338152602081905220815181546001600160a01b0319166001600160a01b039190911617815591518051906001600160401b03821161066e578190610ddc82610dd36001880154612aa8565b60018801612d03565b602090601f8311600114610fc2575f92610fb7575b50508160011b915f199060031b1c19161760018301555b60408101518051906001600160401b03821161066e57610e3882610e2f6002870154612aa8565b60028701612d03565b602090601f8311600114610f465791806005949260a0945f92610f3b575b50508160011b915f199060031b1c19161760028501555b60608101516003850155610e9660808201511515600486019060ff801983541691151516179055565b0151910155600154600160401b81101561066e577f1b7e6ab9f0a9d2727f9890ca9fcd56fd12758ccf71fc0a0a1f7f32953dfdff1193610edf82600161054694016001556129bb565b81549060031b9033821b9160018060a01b03901b1916179055335f52600e6020523460405f2055610f11600254612d48565b600255610f2b604051948594604086526040860191612d56565b9083820360208501523396612d56565b015190508a80610e56565b90600285015f5260205f20915f5b601f1985168110610f9f5750926005949260019260a09583601f19811610610f87575b505050811b016002850155610e6d565b01515f1960f88460031b161c191690558a8080610f77565b91926020600181928685015181550194019201610f54565b015190508880610df1565b9250600185015f5260205f20905f935b601f1984168510611015576001945083601f19811610610ffd575b505050811b016001830155610e08565b01515f1960f88460031b161c19169055888080610fed565b81810151835560209485019460019093019290910190610fd2565b604051632de46ce360e21b8152600490fd5b60405163145a1fdd60e31b8152600490fd5b604051632deefbff60e01b8152600490fd5b3461033d57602036600319011261033d576001600160a01b0380611088612905565b165f525f60205260405f2090815416604051916110b3836110ac8160018501612ae0565b0384612a36565b6040516110c7816107458160028601612ae0565b600382015491611108600560ff600484015416920154926110fa604051978897885260c0602089015260c0880190612948565b908682036040880152612948565b9260608501521515608084015260a08301520390f35b3461033d57604036600319011261033d57611137612905565b6024356001600160401b03811161033d5761115690369060040161291b565b6001600160a01b039283169290919033841415806111e4575b61058357835f525f60205260405f209081541615610583576004019182549260ff841615610583577fe0eb12fa8a20b4eab4fe57277275aaf815bca6665dd6556ef604f9b0ec5ff0629360ff191690556111ca600254612da0565b600255610546604051928392602084526020840191612d56565b50805f80516020613076833981519152541633141561116f565b3461033d57602036600319011261033d5760043561121a612b71565b600281106112645760025481116112645760407fb06a54caabe58475c86c2bf9df3f2f06dd1213e9e10659c293117fe4893b274b91600c549080600c5582519182526020820152a1005b60405163aabd5a0960e01b8152600490fd5b3461033d575f36600319011261033d57602060405160038152f35b3461033d575f36600319011261033d575f80516020613076833981519152546040516001600160a01b039091168152602090f35b3461033d57602036600319011261033d576004356112e1612b71565b80156108b757600d55005b3461033d575f36600319011261033d57611304612b71565b61130c612d76565b5f805160206130b6833981519152600160ff198254161790557f62e78cea01bee320cd4e420270b5ea74000d11b0c9f74754ebdbfc544b05a2586020604051338152a1005b3461033d5760208060031936011261033d576004356001600160401b03811161033d576113829036906004016128a2565b9061138c82612e1e565b9161139681612e1e565b936113a082612e1e565b916113aa81612e1e565b935f5b828110611402576113d9876102f2886113f4896113e68a8f60405198899860808a5260808a0190612986565b91888303908901526128d2565b9085820360408701526128d2565b908382036060850152612986565b61149d906001600160a01b038061141d610310848888612e64565b165f525f865260405f2090600560ff928b61143f868660048501541692612e50565b901515905282611453610310878b8b612e64565b165f52600e89528c61146a8660405f205492612e50565b520154611477848a612e50565b52611486610310848888612e64565b165f52600b865260405f20541661032e8289612e50565b6113ad565b3461033d575f36600319011261033d576114ba612b71565b60065461158d57600254600c541161157b575f5b60085481101561151b57806114e5611516926129e7565b60018060a01b0391549060031b1c165f5260096020600b815260405f2060ff198154169055525f6040812055612d48565b6114ce565b6004546001810180911161065a578060055560016006556064430180431161065a57600755611548612dc6565b5f600a557f1520c73c7851967d7d838c9186c4b8f894640346efbf74664d6af3576de008796020600754604051908152a2005b604051634fcbd3ad60e01b8152600490fd5b6040516353535c9d60e01b8152600490fd5b3461033d575f36600319011261033d57604051600180548083525f8281526020928491848301917fb10e2d527612073b26eecdfd717e6a320cf44b4afac2b0732d9fcbe2b7fa0cf6915b868682106115ff578590610a8982870383612a36565b83546001600160a01b03168552889550909301929181019181016115e9565b3461033d576020908160031936011261033d575f8160405161163f81612a1a565b8281526060858201528260408201528260608201528260808201528260a08201528260c082015201526004355f526003825260405f20906040519161168383612a1a565b8054835260405161169b816107458160018601612ae0565b848401908152600282015492604085019384526003830154926060860193845260048101546080870190815260058201549060a0880191825260ff600760068501549460c08b01958652015416948489019515158652604051998a99818b5251908a01525195611719610100978860408c01526101208b0190612948565b975160608a01525160808901525160a08801525160c08701525190850152511515908301520390f35b3461033d57604036600319011261033d576001600160401b039060043582811161033d5761177490369060040161291b565b61177c612b71565b6002600654036106a657600a54600c5480911061157b576030820361104257600554936008549561c4e043019081431161065a57604051916117bd83612a1a565b8783526117cb368789612a72565b9460208401958652602435604085015260608401528860808401524360a084015260c08301525f83830152865f52600360205260405f20938251855551805191821161066e5761182282610dd36001880154612aa8565b602090601f831160011461193c577f8a1855e17af1911f5885f110c8690fd1e9757b241590715f3fb5be090302527494899a94846118e8957f98fa8f1e7a7c551d876572363becd899057f5ccd84a6ea3c2de503984750cc449c99956007955f92611931575b50508160011b915f199060031b1c19161760018501555b60408101516002850155606081015160038501556080810151600485015560a0810151600585015560c081015160068501550151151591019060ff801983541691151516179055565b5f60065582600455600c54906040519182916060835261190c60608401888a612d56565b91602084015260408301520390a2610546604051928392602084526020840191612d56565b015190508e80611888565b90600186015f5260205f20915f5b601f19851681106119dd575094899a946001857f98fa8f1e7a7c551d876572363becd899057f5ccd84a6ea3c2de503984750cc449c99956007957f8a1855e17af1911f5885f110c8690fd1e9757b241590715f3fb5be09030252749a6118e899601f198116106119c5575b505050811b01600185015561189f565b01515f1960f88460031b161c191690558e80806119b5565b9192602060018192868501518155019401920161194a565b3461033d57606036600319011261033d57611a0e612905565b602435907ff0c57e16840df040f15088dc2f81fe391c3923bec73e23a9662efc9c229c6a0091825460ff8160401c1615926001600160401b03821680159081611b91575b6001149081611b87575b159081611b7e575b50611b6c5767ffffffffffffffff1982166001178555611a959184611b4d575b50611a8d612cac565b6103c1612cac565b611a9d612cac565b611aa5612cac565b5f805160206130b6833981519152805460ff19169055611ac3612cac565b611acb612cac565b60017f9b779b17422d0df92223018b32b4d1fa46e071723d6817e2486d003becc55f0055611af7612cac565b6002811061126457600c55604435600d556001600455611b1357005b805460ff60401b19169055604051600181527fc7f505b2f371ae2175ee4913f4499e1f2633a7b5936321eed1cdaeb6115181d290602090a1005b68ffffffffffffffffff19166801000000000000000117855585611a84565b60405163f92ee8a960e01b8152600490fd5b90501586611a64565b303b159150611a5c565b859150611a52565b3461033d575f36600319011261033d576020600454604051908152f35b3461033d575f36600319011261033d57611bce612b71565b5f8051602061307683398151915280546001600160a01b031981169091555f906001600160a01b03167f8be0079c531659141344cd1fd0a4f28419497f9722a3daafe3b4186f6b6457e08280a3005b3461033d57602036600319011261033d576004355f52600360205260405f2080549060405192611c5b84611c548160018601612ae0565b0385612a36565b600282015491600381015490600481015460058201549060ff600760068501549401541693611c9c604051998a998a526101008060208c01528a0190612948565b9660408901526060880152608087015260a086015260c08501521515908301520390f35b3461033d575f36600319011261033d5760c05f60075490814310611d10575b600554916006549060085490600a5492604051958652602086015260408501526060840152608083015260a0820152f35b50611d1b4382612dac565b611cdf565b3461033d575f36600319011261033d57602060ff5f805160206130b683398151915254166040519015158152f35b3461033d5760208060031936011261033d576004356001600160401b03811161033d57611d7f9036906004016128a2565b9190611d8a83612e1e565b925f5b818110611dab575050506102f2604051928284938452830190612986565b80611dba611de1928486612e64565b355f526003855260405f20805415159081611df5575b81611de6575b5061032e8288612e50565b611d8d565b60069150015443111587611dd6565b600781015460ff16159150611dd0565b3461033d575f36600319011261033d577f00000000000000000000000000000000000000000000000000000000000000006001600160a01b03163003611e5c5760206040515f805160206130968339815191528152f35b60405163703e46dd60e11b8152600490fd5b604036600319011261033d57611e82612905565b6024356001600160401b03811161033d573660238201121561033d57611eb2903690602481600401359101612a72565b906001600160a01b037f00000000000000000000000000000000000000000000000000000000000000008116308114908115612030575b50611e5c57611ef6612b71565b8116906040516352d1902d60e01b8152602081600481865afa5f9181611ffd575b50611f3557604051634c9c8ce360e01b815260048101849052602490fd5b5f8051602061309683398151915292919290818103611fe55750823b15611fcc5780546001600160a01b03191682179055604051907fbc7cd75a20ee27fd9adebab32041f755214dbc6bffa90cc0225b39da2e5c2d3b5f80a2825115611fb357505f8083602061001895519101845af4611fad612c1a565b91612c49565b91505034611fbd57005b63b398979f60e01b8152600490fd5b604051634c9c8ce360e01b815260048101839052602490fd5b60249060405190632a87526960e21b82526004820152fd5b9091506020813d8211612028575b8161201860209383612a36565b8101031261033d57519085611f17565b3d915061200b565b9050815f805160206130968339815191525416141584611ee9565b3461033d575f36600319011261033d576020600c54604051908152f35b3461033d575f36600319011261033d57612080612b71565b5f805160206130b6833981519152805460ff8116156120cb5760ff191690557f5db9ee0a495bf2e6ff9c91a7834c1ba4fdd244a5e8aa4e537bd38aeae4b073aa6020604051338152a1005b604051638dfc202b60e01b8152600490fd5b3461033d57602036600319011261033d5760043560015481101561033d576121066020916129bb565b905460405160039290921b1c6001600160a01b03168152f35b3461033d575f36600319011261033d576020600d54604051908152f35b3461033d5760208060031936011261033d576004356001600160401b03811161033d5761216d9036906004016128a2565b61217981939293612e1e565b925f5b82811061219a575050506102f2604051928284938452830190612986565b6121cf906001600160a01b036121b4610310838787612e64565b165f525f855260ff600460405f2001541661032e8288612e50565b61217c565b3461033d5760208060031936011261033d576121ee612905565b604051916121fb836129ff565b5f83525f60a060609485848201528560408201528286820152826080820152015260018060a01b038092165f525f815260405f2090600e815260405f20549060ff600484015416604051968791612251836129ff565b8686541683526122ed60026122da60016122758a6107456040518094819301612ae0565b87870190815261228f8a6110ac6040518096819301612ae0565b604087019283528b60038b01549b8189019c8d5260a0600560808b019815159d8e8a52015499019889526040519e8f9e8f525116908d01525160c060808d01526101208c0190612948565b90518a8203605f190160a08c0152612948565b965160c0890152511515908701525161010086015284015260408301520390f35b3461033d5760208060031936011261033d576004356001600160401b03811161033d5761233f90369060040161291b565b9091612349612b71565b600654156123f6575f5b6008548110156123a2578061236a61239d926129e7565b905460039190911b1c6001600160a01b03165f908152600b84526040808220805460ff1916905560098552812055612d48565b612353565b506123f17fd7cec7b39c8b33122329297c1f845e66dee71e11d8c1f02b751c829664a8a6ec936123d0612dc6565b5f6005555f6006555f6007555f600a55604051938385948552840191612d56565b0390a1005b604051630432c9d960e11b8152600490fd5b3461033d57604036600319011261033d576004356024356001600160401b03811161033d5761243b90369060040161291b565b90612444612b71565b825f52600360205260405f20918254156107605760077fb06d279a79770f8613c90dd584e14612df61f1507106f0008b75ff0bd66bc3f79301600160ff19825416179055610546604051928392602084526020840191612d56565b3461033d5760208060031936011261033d576004359060018054809380151580612688575b612680575b506124d384612e1e565b916124dd85612e1e565b945f5b81811061262b57505f5b81811061257e575050506124fd81612e1e565b9361250782612e1e565b925f5b83811061253b5761252e876102f28888604051948594604086526040860190612866565b91848303908501526128d2565b612579906001600160a01b036125518285612e50565b511661255d828a612e50565b526125688185612e50565b516125738288612e50565b52612d48565b61250a565b82810180821161065a575b82811061259f575061259a90612d48565b6124ea565b806125ad6125c3928a612e50565b516125b8848b612e50565b51106125c857612d48565b612589565b6125d2818a612e50565b516125dd848b612e50565b516125e8838c612e50565b526125f3848b612e50565b526001600160a01b0380612607838a612e50565b511690612614858a612e50565b5116612620838a612e50565b526125738489612e50565b8061263861267b926129bb565b90546001600160a01b039160039190821b1c8216612656848a612e50565b52612660836129bb565b9054911b1c165f52600e875260405f2054612573828a612e50565b6124e0565b9050846124c9565b508181106124c4565b3461033d57602036600319011261033d576001600160a01b036126b2612905565b165f52600e602052602060405f2054604051908152f35b3461033d5760208060031936011261033d576004356001600160401b03811161033d576126fa9036906004016128a2565b61270681939293612e1e565b925f5b828110612727575050506102f26040519282849384528301906128d2565b612757906001600160a01b03612741610310838787612e64565b165f52600e855260405f20546125738288612e50565b612709565b3461033d575f36600319011261033d575f806001545b80831061278457602082604051908152f35b90610ca36127b691612795856129bb565b60018060a01b0391549060031b1c165f52600e60205260405f205490612db9565b9190612772565b3461033d575f36600319011261033d576127d8600254612e1e565b6001545f805b8281106127fb57604051602080825281906102f290820187612866565b612804816129bb565b60018060a01b03809254600392831b1c165f525f60205260ff600460405f2001541661283b575b505061283690612d48565b6127de565b9261285e91839461284e612836956129bb565b9054911b1c166125738288612e50565b91908561282b565b9081518082526020808093019301915f5b828110612885575050505090565b83516001600160a01b031685529381019392810192600101612877565b9181601f8401121561033d578235916001600160401b03831161033d576020808501948460051b01011161033d57565b9081518082526020808093019301915f5b8281106128f1575050505090565b8351855293810193928101926001016128e3565b600435906001600160a01b038216820361033d57565b9181601f8401121561033d578235916001600160401b03831161033d576020838186019501011161033d57565b91908251928382525f5b848110612972575050825f602080949584010152601f8019910116010190565b602081830181015184830182015201612952565b9081518082526020808093019301915f5b8281106129a5575050505090565b8351151585529381019392810192600101612997565b6001548110156129d35760015f5260205f2001905f90565b634e487b7160e01b5f52603260045260245ffd5b6008548110156129d35760085f5260205f2001905f90565b60c081019081106001600160401b0382111761066e57604052565b61010081019081106001600160401b0382111761066e57604052565b90601f801991011681019081106001600160401b0382111761066e57604052565b6001600160401b03811161066e57601f01601f191660200190565b929192612a7e82612a57565b91612a8c6040519384612a36565b82948184528183011161033d578281602093845f960137010152565b90600182811c92168015612ad6575b6020831014612ac257565b634e487b7160e01b5f52602260045260245ffd5b91607f1691612ab7565b905f9291805491612af083612aa8565b9182825260019384811690815f14612b4e5750600114612b11575b50505050565b90919394505f52602092835f2092845f945b838610612b3a57505050500101905f808080612b0b565b805485870183015294019385908201612b23565b9294505050602093945060ff191683830152151560051b0101905f808080612b0b565b5f80516020613076833981519152546001600160a01b03163303612b9157565b60405163118cdaa760e01b8152336004820152602490fd5b6001600160a01b03908116908115612c02575f8051602061307683398151915280546001600160a01b031981168417909155167f8be0079c531659141344cd1fd0a4f28419497f9722a3daafe3b4186f6b6457e05f80a3565b604051631e4fbdf760e01b81525f6004820152602490fd5b3d15612c44573d90612c2b82612a57565b91612c396040519384612a36565b82523d5f602084013e565b606090565b90612c705750805115612c5e57805190602001fd5b604051630a12f52160e11b8152600490fd5b81511580612ca3575b612c81575090565b604051639996b31560e01b81526001600160a01b039091166004820152602490fd5b50803b15612c79565b60ff7ff0c57e16840df040f15088dc2f81fe391c3923bec73e23a9662efc9c229c6a005460401c1615612cdb57565b604051631afcd79f60e31b8152600490fd5b818110612cf8575050565b5f8155600101612ced565b9190601f8111612d1257505050565b612d3c925f5260205f20906020601f840160051c83019310612d3e575b601f0160051c0190612ced565b565b9091508190612d2f565b5f19811461065a5760010190565b908060209392818452848401375f828201840152601f01601f1916010190565b60ff5f805160206130b68339815191525416612d8e57565b60405163d93c066560e01b8152600490fd5b801561065a575f190190565b9190820391821161065a57565b9190820180921161065a57565b6008545f60085580612dd55750565b60085f52612d3c907ff3f7a9fe364faab93b216da50a3214154f22a0a2b415b23a84c8169e8b636ee390810190612ced565b6001600160401b03811161066e5760051b60200190565b90612e2882612e07565b612e356040519182612a36565b8281528092612e46601f1991612e07565b0190602036910137565b80518210156129d35760209160051b010190565b91908110156129d35760051b0190565b356001600160a01b038116810361033d5790565b8115612e92570490565b634e487b7160e01b5f52601260045260245ffd5b90818110612f8a5781612eb891612dac565b906001820180921161065a57612ecd82612e1e565b92612ed783612e1e565b93612ee184612e1e565b93612eeb81612e1e565b935f90815b838110612f01575050505093929190565b80612f0f612f6e9284612db9565b808552600390816020526040862090612f28848a612e50565b5260ff60078201541691612f3c848d612e50565b92159283159052810154612f50848c612e50565b52805415159182612f82575b5081612f73575b5061032e828c612e50565b612ef0565b6006915001544311155f612f63565b91505f612f5c565b5050606090819082908390565b5f809160045483526003602052604083208054158015613067575b801561305a575b61305257600681015493612fcd4386612dac565b91600c830295831591848804600c1483171561303e5760050154612ff091612dac565b9182612fff575b505050929190565b9091929450612710918286029286840414171561302a57509061302191612e88565b915f8080612ff7565b634e487b7160e01b81526011600452602490fd5b634e487b7160e01b84526011600452602484fd5b508291508190565b5060068101544311612fb9565b5060ff600782015416612fb256fe9016d09d72d40fdae2fd8ceac6b6234c7706214fd39c1cd1e609a0528c199300360894a13ba1a3210667c828492db98dca3e2076cc3735a920a3ca505d382bbccd5ed15c6e187e77e9aee88184c21f4f2182ab5827cb3b7e07fbedcd63f03300a264697066735822122013961106601ea150dc609584edd2eb340f01ccb15e5249cf6650764ec446148164736f6c63430008140033","linkReferences":{}},"methodIdentifiers":{"EPOCH_DURATION()":"a70b9f0c","MAX_KEYPERS()":"cf752b5a","MIN_KEYPERS()":"92c0f443","MIN_THRESHOLD()":"bd11c4c0","UPGRADE_INTERFACE_VERSION()":"ad3cb1cc","abortDKG(string)":"1a76c87a","activeKeyperCount()":"ef7f3a72","batchGetKeyperSummary(address[])":"80310262","batchGetStakes(address[])":"10f92525","batchIsEpochKeyValid(uint256[])":"58e7bee6","batchIsKeyperActive(address[])":"315784b3","batchIsRegisteredForDKG(address[])":"ffdea3af","currentEpoch()":"76671808","deactivateKeyper(address,string)":"966bd124","epochKeys(uint256)":"6b8ebd67","finalizeDKG(bytes,bytes32)":"7a461b2d","getActiveKeypers()":"01ed3f6e","getAllKeypers()":"7c60fa91","getCurrentKeyStatus()":"9e285161","getCurrentPublicKey()":"d10b6b28","getDKGParticipants()":"ae2f54b2","getDKGPhase()":"ac453388","getDKGStatus()":"5fdbe8aa","getEpochHistory(uint256,uint256)":"f27913be","getEpochKey(uint256)":"7bcf6e23","getKeyExpirationInfo()":"b6611b3d","getKeyperDetails(address)":"1b681ce0","getNetworkHealth()":"9871d38f","getRegistryStatus()":"bc2e5b48","getTopKeypersByStake(uint256)":"19523f5b","getTotalStaked()":"0917e776","initialize(address,uint256,uint256)":"7a1ac61e","isEpochKeyValid(uint256)":"f34a87ba","isKeyperActive(address)":"e5386c8e","isRegisteredForDKG(address)":"ce00cb74","keyperList(uint256)":"3c8a87a7","keypers(address)":"97652527","minStake()":"375b3c0a","owner()":"8da5cb5b","pause()":"8456cb59","paused()":"5c975abb","proxiableUUID()":"52d1902d","registerForDKG()":"ea4fe634","registerKeyper(bytes,string)":"97a551d4","renounceOwnership()":"715018a6","revokeEpochKey(uint256,string)":"1982d00c","setMinStake(uint256)":"8c80fd90","setThreshold(uint256)":"960bfe04","slashKeyper(address,uint256,string)":"eb7881ce","stakes(address)":"16934fc4","startDKG()":"7e97caea","submitDealing(bytes32)":"affbc650","threshold()":"42cde4e8","transferOwnership(address)":"f2fde38b","unpause()":"3f4ba83a","upgradeToAndCall(address,bytes)":"4f1ef286","withdrawStake()":"bed9d861"},"id":396}