{"abi":[{"type":"function","name":"delegatedFunction","inputs":[],"outputs":[{"name":"","type":"bool","internalType":"bool"}],"stateMutability":"pure"},{"type":"function","name":"upgradeToAndCall","inputs":[{"name":"","type":"address","internalType":"address"},{"name":"","type":"bytes","internalType":"bytes"}],"outputs":[],"stateMutability":"payable"},{"type":"event","name":"ClashingImplementationCall","inputs":[],"anonymous":false}],"bytecode":{"object":"0x608080604052346100155760fc908161001a8239f35b5f80fdfe60808060405260043610156011575f80fd5b5f90813560e01c80634f1ef28614604a5763abf8e0e714602f575f80fd5b346046578160031936011260465780600160209252f35b5080fd5b82604036600319011260bf576004356001600160a01b0381160360bf5760243567ffffffffffffffff80821160c2573660238301121560c257816004013590811160c2573691016024011160bf577f87f295955c288a63c1ec9524b11bb3e2b47480139ca4755c7d6e1dacaa8c4b1b8180a180f35b80fd5b8280fdfea26469706673582212204b4c9d106dcd421ecf2cc47e6bb5027398055334949026eae90327c983f57bfb64736f6c63430008140033","linkReferences":{}},"methodIdentifiers":{"delegatedFunction()":"abf8e0e7","upgradeToAndCall(address,bytes)":"4f1ef286"},"id":292}