{"abi":[{"type":"function","name":"checkReturnValues","inputs":[{"name":"multicallToken","type":"address","internalType":"contract ERC20MulticallMock"},{"name":"recipients","type":"address[]","internalType":"address[]"},{"name":"amounts","type":"uint256[]","internalType":"uint256[]"}],"outputs":[],"stateMutability":"nonpayable"}],"bytecode":{"object":"0x60808060405234610016576104ee908161001b8239f35b5f80fdfe604060808152600480361015610013575f80fd5b5f91823560e01c63b568d01614610028575f80fd5b346103b65760603660031901126103b6576001600160a01b03823581811692908390036101785760249167ffffffffffffffff9083358281116103b25761007290369088016103ba565b92909560449687358381116103ae57906100928b93959236908c016103ba565b61009e88949294610425565b936100ab8a5195866103ef565b8885526100b789610425565b601f1999908a01875b81811061038a575050865b8181106102ea575050505050508551938491631592ca1b60e31b83528883019960209a8b8d86015282518091528b828601928260051b87010193019186905b8d8383106102a35750505050508383809203925af1968715610299578897610180575b505050505050825b825181101561017c576101488184610483565b51828180518101031261017857820151801590811503610178576101745761016f9061043d565b610135565b8380fd5b8480fd5b8380f35b90919293949596503d8089853e61019781856103ef565b830192878185031261029557805190838211610291570194601f93808588011215610291578651956101c887610425565b986101d584519a8b6103ef565b878a528a808b019860051b8a010198838a1161028d578b8101985b8a8a1061020e575050505050505050505050905f808080808061012d565b89518881116102895782019085603f83011215610289578d82015190898211610276578a8f61024590888b519386011601826103ef565b82815287898486010111610271578f938493610266918b8685019101610497565b8152019901986101f0565b508f80fd5b50634e487b7160e01b8f5260418852838ffd5b8e80fd5b8c80fd5b8980fd5b8880fd5b84513d8a823e3d90fd5b60019396985080929581929598506043198c82030186528c601f8a516102d481518092818752878088019101610497565b01160101960192019201928d959388959361010a565b9091929394959896506102fe81838861045f565b35858116809103610386578b8e8e9261031885898961045f565b3592519363a9059cbb60e01b60208601528401528201528d8152608081018181108a821117610371578c526103639190610352828c610483565b5261035d818b610483565b5061043d565b908e969895949392916100cb565b5050634e487b7160e01b8f525060418d528a8efd5b8f80fd5b879a98506060602082819495969798999a01015201908f97999695949392916100c0565b8a80fd5b8780fd5b8280fd5b9181601f840112156103eb5782359167ffffffffffffffff83116103eb576020808501948460051b0101116103eb57565b5f80fd5b90601f8019910116810190811067ffffffffffffffff82111761041157604052565b634e487b7160e01b5f52604160045260245ffd5b67ffffffffffffffff81116104115760051b60200190565b5f19811461044b5760010190565b634e487b7160e01b5f52601160045260245ffd5b919081101561046f5760051b0190565b634e487b7160e01b5f52603260045260245ffd5b805182101561046f5760209160051b010190565b5f5b8381106104a85750505f910152565b818101518382015260200161049956fea2646970667358221220d19e116b5d36defe0563e8f4e9f1651e9a4214418f7eb76ad33b795228339e0464736f6c63430008140033","linkReferences":{}},"methodIdentifiers":{"checkReturnValues(address,address[],uint256[])":"b568d016"},"id":263}