{"abi":[{"type":"function","name":"allowance","inputs":[{"name":"owner","type":"address","internalType":"address"},{"name":"spender","type":"address","internalType":"address"}],"outputs":[{"name":"","type":"uint256","internalType":"uint256"}],"stateMutability":"view"},{"type":"function","name":"approve","inputs":[{"name":"spender","type":"address","internalType":"address"},{"name":"value","type":"uint256","internalType":"uint256"}],"outputs":[{"name":"","type":"bool","internalType":"bool"}],"stateMutability":"nonpayable"},{"type":"function","name":"balanceOf","inputs":[{"name":"account","type":"address","internalType":"address"}],"outputs":[{"name":"","type":"uint256","internalType":"uint256"}],"stateMutability":"view"},{"type":"function","name":"decimals","inputs":[],"outputs":[{"name":"","type":"uint8","internalType":"uint8"}],"stateMutability":"view"},{"type":"function","name":"functionCall","inputs":[{"name":"target","type":"address","internalType":"address"},{"name":"data","type":"bytes","internalType":"bytes"}],"outputs":[{"name":"","type":"bytes","internalType":"bytes"}],"stateMutability":"nonpayable"},{"type":"function","name":"name","inputs":[],"outputs":[{"name":"","type":"string","internalType":"string"}],"stateMutability":"view"},{"type":"function","name":"scheduleReenter","inputs":[{"name":"when","type":"uint8","internalType":"enum ERC20ReentrantUpgradeable.Type"},{"name":"target","type":"address","internalType":"address"},{"name":"data","type":"bytes","internalType":"bytes"}],"outputs":[],"stateMutability":"nonpayable"},{"type":"function","name":"symbol","inputs":[],"outputs":[{"name":"","type":"string","internalType":"string"}],"stateMutability":"view"},{"type":"function","name":"totalSupply","inputs":[],"outputs":[{"name":"","type":"uint256","internalType":"uint256"}],"stateMutability":"view"},{"type":"function","name":"transfer","inputs":[{"name":"to","type":"address","internalType":"address"},{"name":"value","type":"uint256","internalType":"uint256"}],"outputs":[{"name":"","type":"bool","internalType":"bool"}],"stateMutability":"nonpayable"},{"type":"function","name":"transferFrom","inputs":[{"name":"from","type":"address","internalType":"address"},{"name":"to","type":"address","internalType":"address"},{"name":"value","type":"uint256","internalType":"uint256"}],"outputs":[{"name":"","type":"bool","internalType":"bool"}],"stateMutability":"nonpayable"},{"type":"event","name":"Approval","inputs":[{"name":"owner","type":"address","indexed":true,"internalType":"address"},{"name":"spender","type":"address","indexed":true,"internalType":"address"},{"name":"value","type":"uint256","indexed":false,"internalType":"uint256"}],"anonymous":false},{"type":"event","name":"Initialized","inputs":[{"name":"version","type":"uint64","indexed":false,"internalType":"uint64"}],"anonymous":false},{"type":"event","name":"Transfer","inputs":[{"name":"from","type":"address","indexed":true,"internalType":"address"},{"name":"to","type":"address","indexed":true,"internalType":"address"},{"name":"value","type":"uint256","indexed":false,"internalType":"uint256"}],"anonymous":false},{"type":"error","name":"AddressEmptyCode","inputs":[{"name":"target","type":"address","internalType":"address"}]},{"type":"error","name":"AddressInsufficientBalance","inputs":[{"name":"account","type":"address","internalType":"address"}]},{"type":"error","name":"ERC20InsufficientAllowance","inputs":[{"name":"spender","type":"address","internalType":"address"},{"name":"allowance","type":"uint256","internalType":"uint256"},{"name":"needed","type":"uint256","internalType":"uint256"}]},{"type":"error","name":"ERC20InsufficientBalance","inputs":[{"name":"sender","type":"address","internalType":"address"},{"name":"balance","type":"uint256","internalType":"uint256"},{"name":"needed","type":"uint256","internalType":"uint256"}]},{"type":"error","name":"ERC20InvalidApprover","inputs":[{"name":"approver","type":"address","internalType":"address"}]},{"type":"error","name":"ERC20InvalidReceiver","inputs":[{"name":"receiver","type":"address","internalType":"address"}]},{"type":"error","name":"ERC20InvalidSender","inputs":[{"name":"sender","type":"address","internalType":"address"}]},{"type":"error","name":"ERC20InvalidSpender","inputs":[{"name":"spender","type":"address","internalType":"address"}]},{"type":"error","name":"FailedInnerCall","inputs":[]},{"type":"error","name":"InvalidInitialization","inputs":[]},{"type":"error","name":"NotInitializing","inputs":[]}],"bytecode":{"object":"0x6080806040523461001657610b87908161001b8239f35b5f80fdfe6080604081815260049182361015610015575f80fd5b5f92833560e01c91826306fdde031461067b57508163095ea7b3146105d257816318160ddd1461059457816323b872dd146104a1578163313ce5671461048557816370a082311461042e57816395d89b4114610349578163a0b5ffb0146102ac578163a9059cbb1461027b578163cd594b63146100e4575063dd62ed3e1461009b575f80fd5b346100e057806003193601126100e057806020926100b7610789565b6100c86100c26107a3565b916108bf565b6001600160a01b039091168252845220549051908152f35b5080fd5b833461027857606036600319011261027857813560038110156100e0576101096107a3565b926044359167ffffffffffffffff9182841161027057366023850112156102705783013591821161027457602494368684860101116102705784546001600160a81b03191660ff929092169190911760089190911b610100600160a81b03161783556001805490929061017b9061080b565b601f8111610228575b508390601f83116001146101c25790849591839495936101b5575b5050505f19600383901b1c191690821b17905580f35b010135905084808061019f565b601f198316958486526020928387209387905b89821061020f57505084869798106101f4575b50505050811b01905580f35b5f1960f88660031b161c1992010135169055848080806101e8565b80888497868395968901013581550196019201906101d5565b83855260208520601f840160051c81019160208510610266575b601f0160051c019084905b82811061025b575050610184565b86815501849061024d565b9091508190610242565b8480fd5b8380fd5b80fd5b5050346100e057806003193601126100e0576020906102a561029b610789565b60243590336108f7565b5160018152f35b9050346103455781600319360112610345576102c6610789565b6024359167ffffffffffffffff83116102705736602384011215610270578201356102f0816107ef565b926102fd855194856107b9565b8184523660248383010111610341579460208261032a959493602461033d99018387013784010152610aaa565b905191829160208352602083019061074b565b0390f35b8580fd5b8280fd5b5050346100e057816003193601126100e057805190827f52c63247e1f47db19d5ce0460030c497f067ca4cebf71ba98eeadabe20bace04805461038b8161080b565b8086529160019180831690811561040357506001146103c8575b61033d86866103b6828b03836107b9565b5191829160208352602083019061074b565b835260208084209096505b8284106103f0575050508261033d946103b692820101945f6103a5565b80548685018801529286019281016103d3565b905061033d97506103b69450602092508693915060ff191682840152151560051b820101945f6103a5565b5050346100e05760203660031901126100e05760209181906001600160a01b03610456610789565b1681527f52c63247e1f47db19d5ce0460030c497f067ca4cebf71ba98eeadabe20bace00845220549051908152f35b5050346100e057816003193601126100e0576020905160128152f35b90508234610278576060366003190112610278576104bd610789565b6104c56107a3565b91604435936104d3836108bf565b3383526020528582205490600182016104f5575b6020876102a58888886108f7565b858210610569576001600160a01b0384161561055257331561053b5750916102a5939186866020989795610528856108bf565b3385528a520391205591939481936104e7565b8651634a1406b160e11b8152908101839052602490fd5b865163e602df0560e01b8152908101839052602490fd5b8651637dc7a0d960e11b81523391810191825260208201929092526040810186905281906060010390fd5b5050346100e057816003193601126100e0576020907f52c63247e1f47db19d5ce0460030c497f067ca4cebf71ba98eeadabe20bace02549051908152f35b9050346103455781600319360112610345576105ec610789565b602435903315610664576001600160a01b031691821561064d57508083602095610615336108bf565b8582528752205582519081527f8c5be1e5ebec7d5bd14f71427d1e84f3dd0314c0f7b2291e5b200ac8c7c3b925843392a35160018152f35b8351634a1406b160e11b8152908101859052602490fd5b835163e602df0560e01b8152808401869052602490fd5b84908434610345578260031936011261034557827f52c63247e1f47db19d5ce0460030c497f067ca4cebf71ba98eeadabe20bace0380546106bb8161080b565b8086529160019180831690811561072057506001146106e55761033d86866103b6828b03836107b9565b835260208084209096505b82841061070d575050508261033d946103b69282010194866103a5565b80548685018801529286019281016106f0565b905061033d97506103b69450602092508693915060ff191682840152151560051b82010194866103a5565b91908251928382525f5b848110610775575050825f602080949584010152601f8019910116010190565b602081830181015184830182015201610755565b600435906001600160a01b038216820361079f57565b5f80fd5b602435906001600160a01b038216820361079f57565b90601f8019910116810190811067ffffffffffffffff8211176107db57604052565b634e487b7160e01b5f52604160045260245ffd5b67ffffffffffffffff81116107db57601f01601f191660200190565b90600182811c92168015610839575b602083101461082557565b634e487b7160e01b5f52602260045260245ffd5b91607f169161081a565b600180545f93926108538261080b565b808252918381169081156108a4575060011461086e57505050565b90929350815f52602092835f2092845f945b8386106108905750505050010190565b805485870183015294019385908201610880565b91935050602093945060ff191683830152151560051b010190565b6001600160a01b03165f9081527f52c63247e1f47db19d5ce0460030c497f067ca4cebf71ba98eeadabe20bace016020526040902090565b906001600160a01b0390818316908115610a92578216908115610a7a575f94855460ff81166003811015610a6657600114610a42575b508186527f52c63247e1f47db19d5ce0460030c497f067ca4cebf71ba98eeadabe20bace0094856020526040958688205491838310610a10575091806020927fddf252ad1be2c89b69c2b068fc378daa952ba7f163c4a11628f55a4df523b3ef94868b52845203878920558488528688208181540190558651908152a382549160ff831660038110156109fc576002146109c8575b50505050565b6109f29360ff198416905551916109e9836109e281610843565b03846107b9565b60081c16610aaa565b505f8080806109c2565b634e487b7160e01b85526021600452602485fd5b875163391434e360e21b81526001600160a01b0391909116600482015260248101929092525060448101829052606490fd5b60ff1981168755604051610a5f9186906109e9836109e281610843565b505f61092d565b634e487b7160e01b88526021600452602488fd5b60405163ec442f0560e01b81525f6004820152602490fd5b604051634b637e8f60e11b81525f6004820152602490fd5b5f80610ae79360208151910182855af13d15610aea573d91610acb836107ef565b92610ad960405194856107b9565b83523d5f602085013e610aee565b90565b6060915b90610b155750805115610b0357805190602001fd5b604051630a12f52160e11b8152600490fd5b81511580610b48575b610b26575090565b604051639996b31560e01b81526001600160a01b039091166004820152602490fd5b50803b15610b1e56fea264697066735822122021677233022d5e2e2db7cab3fab05dd2ae65eb3f4a2cb1afe25f7f0d0e4617a964736f6c63430008140033","linkReferences":{}},"methodIdentifiers":{"allowance(address,address)":"dd62ed3e","approve(address,uint256)":"095ea7b3","balanceOf(address)":"70a08231","decimals()":"313ce567","functionCall(address,bytes)":"a0b5ffb0","name()":"06fdde03","scheduleReenter(uint8,address,bytes)":"cd594b63","symbol()":"95d89b41","totalSupply()":"18160ddd","transfer(address,uint256)":"a9059cbb","transferFrom(address,address,uint256)":"23b872dd"},"id":134}