{"abi":[{"type":"constructor","inputs":[{"name":"trustedForwarder","type":"address","internalType":"address"}],"stateMutability":"nonpayable"},{"type":"function","name":"isTrustedForwarder","inputs":[{"name":"forwarder","type":"address","internalType":"address"}],"outputs":[{"name":"","type":"bool","internalType":"bool"}],"stateMutability":"view"},{"type":"function","name":"msgData","inputs":[{"name":"integerValue","type":"uint256","internalType":"uint256"},{"name":"stringValue","type":"string","internalType":"string"}],"outputs":[],"stateMutability":"nonpayable"},{"type":"function","name":"msgDataShort","inputs":[],"outputs":[],"stateMutability":"nonpayable"},{"type":"function","name":"msgSender","inputs":[],"outputs":[],"stateMutability":"nonpayable"},{"type":"function","name":"trustedForwarder","inputs":[],"outputs":[{"name":"","type":"address","internalType":"address"}],"stateMutability":"view"},{"type":"event","name":"Data","inputs":[{"name":"data","type":"bytes","indexed":false,"internalType":"bytes"},{"name":"integerValue","type":"uint256","indexed":false,"internalType":"uint256"},{"name":"stringValue","type":"string","indexed":false,"internalType":"string"}],"anonymous":false},{"type":"event","name":"DataShort","inputs":[{"name":"data","type":"bytes","indexed":false,"internalType":"bytes"}],"anonymous":false},{"type":"event","name":"Initialized","inputs":[{"name":"version","type":"uint64","indexed":false,"internalType":"uint64"}],"anonymous":false},{"type":"event","name":"Sender","inputs":[{"name":"sender","type":"address","indexed":false,"internalType":"address"}],"anonymous":false},{"type":"error","name":"InvalidInitialization","inputs":[]},{"type":"error","name":"NotInitializing","inputs":[]}],"bytecode":{"object":"0x60a0346100b657601f6104f638819003918201601f19168301916001600160401b038311848410176100ba578084926020946040528339810103126100b657516001600160a01b039081811681036100b6577fd6558c3ed910d959271054471fd1c326679d9fece99c5091b00ed89627cf2bfc916020916080526100816100ce565b60405191168152a16040516103f3908161010382396080518181816101190152818161017a0152818161030001526103520152f35b5f80fd5b634e487b7160e01b5f52604160045260245ffd5b6080516001600160a01b03163314806100f7575b156100f35736601319013560601c90565b3390565b5060143610156100e256fe6080604081815260049182361015610015575f80fd5b5f92833560e01c918263376bf262146101a757508163572b6c0514610148575080637da0a87714610105578063d737d0c7146100b55763ff5f6b5914610059575f80fd5b346100b157816003193601126100b1577f6d7cec71eba467294d92341ddc4e8634eb4d742a90e16f408f06e4b70bc4cd66906100ab61009661034f565b919092519283926020845260208401916102dd565b0390a180f35b5080fd5b50346100b157816003193601126100b15760207fd6558c3ed910d959271054471fd1c326679d9fece99c5091b00ed89627cf2bfc916100f26102fd565b90516001600160a01b039091168152a180f35b50346100b157816003193601126100b157517f00000000000000000000000000000000000000000000000000000000000000006001600160a01b03168152602090f35b9050346101a35760203660031901126101a3576001600160a01b03919035828116919082900361019f576020935051917f000000000000000000000000000000000000000000000000000000000000000016148152f35b8380fd5b8280fd5b848285346101a357806003193601126101a35767ffffffffffffffff906024358281116102d957366023820112156102d957808401358381116102c657601f1993601f82018516603f0185168801908111888210176102b357835280875236602482840101116102af57918560249492846102469795602097889301838c01378901015261023361034f565b95908251966060885260608801916102dd565b923584860152848303908501528551808352855b81811061029c57867faf235354a0a47c91ee171961326335cb2d1a8e55b8a89859b0e61eb049e50ea08787818888601f8988868286010152011601030190a180f35b878101850151848201860152840161025a565b8580fd5b634e487b7160e01b875260418652602487fd5b634e487b7160e01b865260418552602486fd5b8480fd5b908060209392818452848401375f828201840152601f01601f1916010190565b337f00000000000000000000000000000000000000000000000000000000000000006001600160a01b03161480610344575b156103405736601319013560601c90565b3390565b50601436101561032f565b337f00000000000000000000000000000000000000000000000000000000000000006001600160a01b031614806103b2575b156103ac57601319360190368211610398575f9190565b634e487b7160e01b5f52601160045260245ffd5b5f903690565b50601436101561038156fea2646970667358221220eaef3aa003eecdd8c378174e3bf63927aaa940d8bd0dc01b0592e565720853f564736f6c63430008140033","linkReferences":{}},"methodIdentifiers":{"isTrustedForwarder(address)":"572b6c05","msgData(uint256,string)":"376bf262","msgDataShort()":"ff5f6b59","msgSender()":"d737d0c7","trustedForwarder()":"7da0a877"},"id":88}