{"abi":[{"type":"function","name":"getValue","inputs":[{"name":"_number","type":"uint256","internalType":"uint256"}],"outputs":[{"name":"","type":"uint256","internalType":"uint256"}],"stateMutability":"view"},{"type":"function","name":"initialize","inputs":[],"outputs":[],"stateMutability":"nonpayable"},{"type":"function","name":"setValue","inputs":[{"name":"_number","type":"uint256","internalType":"uint256"}],"outputs":[],"stateMutability":"nonpayable"},{"type":"event","name":"Initialized","inputs":[{"name":"version","type":"uint64","indexed":false,"internalType":"uint64"}],"anonymous":false},{"type":"error","name":"InvalidInitialization","inputs":[]},{"type":"error","name":"NotInitializing","inputs":[]}],"bytecode":{"object":"0x60808060405234610016576101e1908161001b8239f35b5f80fdfe6080806040526004361015610012575f80fd5b5f90813560e01c9081630ff4c9161461016a57508063552410771461015057638129fc1c1461003f575f80fd5b3461014d578060031936011261014d577ff0c57e16840df040f15088dc2f81fe391c3923bec73e23a9662efc9c229c6a00805460ff8160401c16159067ffffffffffffffff811680159081610145575b600114908161013b575b159081610132575b506101205767ffffffffffffffff198116600117835581610101575b506100c6575080f35b805460ff60401b19169055604051600181527fc7f505b2f371ae2175ee4913f4499e1f2633a7b5936321eed1cdaeb6115181d290602090a180f35b68ffffffffffffffffff1916680100000000000000011782555f6100bd565b60405163f92ee8a960e01b8152600490fd5b9050155f6100a1565b303b159150610099565b83915061008f565b80fd5b503461014d57602036600319011261014d57600435815580f35b9050346101a75760203660031901126101a7578154600435810180911161019357602092508152f35b634e487b7160e01b83526011600452602483fd5b5080fdfea26469706673582212202aee69a472af0e52be625ba3fcc47c912a0b9a099980e2255b6302e2d1084b4764736f6c63430008140033","linkReferences":{}},"methodIdentifiers":{"getValue(uint256)":"0ff4c916","initialize()":"8129fc1c","setValue(uint256)":"55241077"},"id":268}