{"abi":[{"type":"function","name":"UPGRADE_INTERFACE_VERSION","inputs":[],"outputs":[{"name":"","type":"string","internalType":"string"}],"stateMutability":"view"},{"type":"function","name":"current","inputs":[],"outputs":[{"name":"","type":"uint256","internalType":"uint256"}],"stateMutability":"view"},{"type":"function","name":"increment","inputs":[],"outputs":[],"stateMutability":"nonpayable"},{"type":"function","name":"proxiableUUID","inputs":[],"outputs":[{"name":"","type":"bytes32","internalType":"bytes32"}],"stateMutability":"view"},{"type":"function","name":"upgradeToAndCall","inputs":[{"name":"newImplementation","type":"address","internalType":"address"},{"name":"data","type":"bytes","internalType":"bytes"}],"outputs":[],"stateMutability":"payable"},{"type":"event","name":"Upgraded","inputs":[{"name":"implementation","type":"address","indexed":true,"internalType":"address"}],"anonymous":false},{"type":"error","name":"AddressEmptyCode","inputs":[{"name":"target","type":"address","internalType":"address"}]},{"type":"error","name":"ERC1967InvalidImplementation","inputs":[{"name":"implementation","type":"address","internalType":"address"}]},{"type":"error","name":"ERC1967NonPayable","inputs":[]},{"type":"error","name":"FailedInnerCall","inputs":[]},{"type":"error","name":"UUPSUnauthorizedCallContext","inputs":[]},{"type":"error","name":"UUPSUnsupportedProxiableUUID","inputs":[{"name":"slot","type":"bytes32","internalType":"bytes32"}]}],"bytecode":{"object":"0x60a0806040523461002a573060805261050b908161002f8239608051818181610167015261023e0152f35b5f80fdfe60406080815260049081361015610014575f80fd5b5f90813560e01c9081634f1ef286146101b857816352d1902d146101515781639fa6a6e314610130578163ad3cb1cc1461008f575063d09de08a14610057575f80fd5b3461008c578060031936011261008c5780545f19811461007957600101815580f35b506011602492634e487b7160e01b835252fd5b80fd5b9050823461012c578260031936011261012c578151908282019082821067ffffffffffffffff8311176101195750825260058152602090640352e302e360dc1b8282015282519382859384528251928382860152825b84811061010357505050828201840152601f01601f19168101030190f35b81810183015188820188015287955082016100e5565b634e487b7160e01b855260419052602484fd5b8280fd5b90503461014d578160031936011261014d57602091549051908152f35b5080fd5b9190503461008c578060031936011261008c57507f00000000000000000000000000000000000000000000000000000000000000006001600160a01b031630036101ab57602090515f805160206104b68339815191528152f35b5163703e46dd60e11b8152fd5b8391508060031936011261012c576001600160a01b0392823584811692919083810361014d5760249586359167ffffffffffffffff83116103fc57366023840112156103fc57828701359161020c83610436565b9061021987519283610400565b83825260209384830195368c83830101116103f8578188928d889301893784010152807f0000000000000000000000000000000000000000000000000000000000000000168030149182156103dd575b50506103cd5785516352d1902d60e01b815283818a818b5afa86918161039a575b506102a6575050505050505191634c9c8ce360e01b8352820152fd5b9088888894938c5f805160206104b6833981519152918281036103855750853b15610371575080546001600160a01b031916821790558451889392917fbc7cd75a20ee27fd9adebab32041f755214dbc6bffa90cc0225b39da2e5c2d3b8580a28251156103535750506103459582915190845af4913d15610349573d61033761032e82610436565b92519283610400565b81528581943d92013e610452565b5080f35b5060609250610452565b95509550505050503461036557505080f35b63b398979f60e01b8152fd5b8651634c9c8ce360e01b8152808501849052fd5b8751632a87526960e21b815280860191909152fd5b9091508481813d83116103c6575b6103b28183610400565b810103126103c25751908b61028a565b8680fd5b503d6103a8565b855163703e46dd60e11b81528890fd5b5f805160206104b68339815191525416141590508a80610269565b8780fd5b8380fd5b90601f8019910116810190811067ffffffffffffffff82111761042257604052565b634e487b7160e01b5f52604160045260245ffd5b67ffffffffffffffff811161042257601f01601f191660200190565b90610479575080511561046757805190602001fd5b604051630a12f52160e11b8152600490fd5b815115806104ac575b61048a575090565b604051639996b31560e01b81526001600160a01b039091166004820152602490fd5b50803b1561048256fe360894a13ba1a3210667c828492db98dca3e2076cc3735a920a3ca505d382bbca2646970667358221220e3c47030b50adc00e9e49c897f38aac25f6db3c98f4f3b2aeffaf8eb6c1dd75864736f6c63430008140033","linkReferences":{}},"methodIdentifiers":{"UPGRADE_INTERFACE_VERSION()":"ad3cb1cc","current()":"9fa6a6e3","increment()":"d09de08a","proxiableUUID()":"52d1902d","upgradeToAndCall(address,bytes)":"4f1ef286"},"id":285}