{"abi":[{"type":"constructor","inputs":[{"name":"_owner","type":"address","internalType":"address"},{"name":"_l2OutputOracle","type":"address","internalType":"address"},{"name":"_optimismPortal","type":"address","internalType":"address"}],"stateMutability":"nonpayable"},{"type":"function","name":"INCLUSION_DEADLINE","inputs":[],"outputs":[{"name":"","type":"uint256","internalType":"uint256"}],"stateMutability":"view"},{"type":"function","name":"MAX_GAS_LIMIT","inputs":[],"outputs":[{"name":"","type":"uint256","internalType":"uint256"}],"stateMutability":"view"},{"type":"function","name":"MIN_BOND","inputs":[],"outputs":[{"name":"","type":"uint256","internalType":"uint256"}],"stateMutability":"view"},{"type":"function","name":"allForcedTxs","inputs":[{"name":"","type":"uint256","internalType":"uint256"}],"outputs":[{"name":"","type":"bytes32","internalType":"bytes32"}],"stateMutability":"view"},{"type":"function","name":"claimExpired","inputs":[{"name":"_txId","type":"bytes32","internalType":"bytes32"}],"outputs":[],"stateMutability":"nonpayable"},{"type":"function","name":"confirmInclusion","inputs":[{"name":"_txId","type":"bytes32","internalType":"bytes32"},{"name":"_l2BlockNumber","type":"uint256","internalType":"uint256"},{"name":"_inclusionProof","type":"bytes","internalType":"bytes"}],"outputs":[],"stateMutability":"nonpayable"},{"type":"function","name":"forceTransaction","inputs":[{"name":"_target","type":"address","internalType":"address"},{"name":"_data","type":"bytes","internalType":"bytes"},{"name":"_gasLimit","type":"uint256","internalType":"uint256"}],"outputs":[{"name":"txId","type":"bytes32","internalType":"bytes32"}],"stateMutability":"payable"},{"type":"function","name":"forcedTransactions","inputs":[{"name":"","type":"bytes32","internalType":"bytes32"}],"outputs":[{"name":"sender","type":"address","internalType":"address"},{"name":"target","type":"address","internalType":"address"},{"name":"data","type":"bytes","internalType":"bytes"},{"name":"value","type":"uint256","internalType":"uint256"},{"name":"gasLimit","type":"uint256","internalType":"uint256"},{"name":"bond","type":"uint256","internalType":"uint256"},{"name":"deadline","type":"uint256","internalType":"uint256"},{"name":"l2BlockNumber","type":"uint256","internalType":"uint256"},{"name":"resolved","type":"bool","internalType":"bool"}],"stateMutability":"view"},{"type":"function","name":"getBatchTxStatuses","inputs":[{"name":"_txIds","type":"bytes32[]","internalType":"bytes32[]"}],"outputs":[{"name":"resolved","type":"bool[]","internalType":"bool[]"},{"name":"expired","type":"bool[]","internalType":"bool[]"}],"stateMutability":"view"},{"type":"function","name":"getExpirableTxs","inputs":[{"name":"_maxResults","type":"uint256","internalType":"uint256"}],"outputs":[{"name":"txIds","type":"bytes32[]","internalType":"bytes32[]"}],"stateMutability":"view"},{"type":"function","name":"getInclusionRate","inputs":[],"outputs":[{"name":"rate","type":"uint256","internalType":"uint256"}],"stateMutability":"view"},{"type":"function","name":"getPendingCount","inputs":[],"outputs":[{"name":"pendingCount","type":"uint256","internalType":"uint256"}],"stateMutability":"view"},{"type":"function","name":"getStats","inputs":[],"outputs":[{"name":"stats_","type":"tuple","internalType":"struct ForcedInclusion.Stats","components":[{"name":"totalForced","type":"uint256","internalType":"uint256"},{"name":"totalIncluded","type":"uint256","internalType":"uint256"},{"name":"totalExpired","type":"uint256","internalType":"uint256"},{"name":"totalBondsLocked","type":"uint256","internalType":"uint256"}]}],"stateMutability":"view"},{"type":"function","name":"getSystemStatus","inputs":[],"outputs":[{"name":"pendingCount","type":"uint256","internalType":"uint256"},{"name":"totalForced","type":"uint256","internalType":"uint256"},{"name":"totalIncluded","type":"uint256","internalType":"uint256"},{"name":"totalExpired","type":"uint256","internalType":"uint256"},{"name":"bondsLocked","type":"uint256","internalType":"uint256"},{"name":"isPaused","type":"bool","internalType":"bool"},{"name":"circuitBreakerCapacity","type":"uint256","internalType":"uint256"}],"stateMutability":"view"},{"type":"function","name":"getTxDetails","inputs":[{"name":"_txId","type":"bytes32","internalType":"bytes32"}],"outputs":[{"name":"sender","type":"address","internalType":"address"},{"name":"target","type":"address","internalType":"address"},{"name":"bond","type":"uint256","internalType":"uint256"},{"name":"deadline","type":"uint256","internalType":"uint256"},{"name":"isResolved","type":"bool","internalType":"bool"},{"name":"isExpiredNow","type":"bool","internalType":"bool"},{"name":"timeRemaining","type":"uint256","internalType":"uint256"}],"stateMutability":"view"},{"type":"function","name":"getUserPendingTxs","inputs":[{"name":"_user","type":"address","internalType":"address"}],"outputs":[{"name":"txIds","type":"bytes32[]","internalType":"bytes32[]"}],"stateMutability":"view"},{"type":"function","name":"getUserSummary","inputs":[{"name":"_user","type":"address","internalType":"address"}],"outputs":[{"name":"totalSubmitted","type":"uint256","internalType":"uint256"},{"name":"pendingCount","type":"uint256","internalType":"uint256"},{"name":"currentRateUsed","type":"uint256","internalType":"uint256"},{"name":"canSubmitNow","type":"bool","internalType":"bool"}],"stateMutability":"view"},{"type":"function","name":"isExpired","inputs":[{"name":"_txId","type":"bytes32","internalType":"bytes32"}],"outputs":[{"name":"expired","type":"bool","internalType":"bool"}],"stateMutability":"view"},{"type":"function","name":"isPending","inputs":[{"name":"_txId","type":"bytes32","internalType":"bytes32"}],"outputs":[{"name":"pending","type":"bool","internalType":"bool"}],"stateMutability":"view"},{"type":"function","name":"isRateLimited","inputs":[{"name":"_user","type":"address","internalType":"address"}],"outputs":[{"name":"limited","type":"bool","internalType":"bool"},{"name":"remaining","type":"uint256","internalType":"uint256"}],"stateMutability":"view"},{"type":"function","name":"l2OutputOracle","inputs":[],"outputs":[{"name":"","type":"address","internalType":"address"}],"stateMutability":"view"},{"type":"function","name":"maxPendingTxs","inputs":[],"outputs":[{"name":"","type":"uint256","internalType":"uint256"}],"stateMutability":"view"},{"type":"function","name":"maxTxsPerUserPerHour","inputs":[],"outputs":[{"name":"","type":"uint256","internalType":"uint256"}],"stateMutability":"view"},{"type":"function","name":"optimismPortal","inputs":[],"outputs":[{"name":"","type":"address","internalType":"address"}],"stateMutability":"view"},{"type":"function","name":"owner","inputs":[],"outputs":[{"name":"","type":"address","internalType":"address"}],"stateMutability":"view"},{"type":"function","name":"pause","inputs":[],"outputs":[],"stateMutability":"nonpayable"},{"type":"function","name":"paused","inputs":[],"outputs":[{"name":"","type":"bool","internalType":"bool"}],"stateMutability":"view"},{"type":"function","name":"renounceOwnership","inputs":[],"outputs":[],"stateMutability":"nonpayable"},{"type":"function","name":"sequencerPenalties","inputs":[{"name":"","type":"address","internalType":"address"}],"outputs":[{"name":"","type":"uint256","internalType":"uint256"}],"stateMutability":"view"},{"type":"function","name":"setCircuitBreakerLimits","inputs":[{"name":"_maxPendingTxs","type":"uint256","internalType":"uint256"},{"name":"_maxTxsPerUserPerHour","type":"uint256","internalType":"uint256"}],"outputs":[],"stateMutability":"nonpayable"},{"type":"function","name":"setL2OutputOracle","inputs":[{"name":"_l2OutputOracle","type":"address","internalType":"address"}],"outputs":[],"stateMutability":"nonpayable"},{"type":"function","name":"setOptimismPortal","inputs":[{"name":"_optimismPortal","type":"address","internalType":"address"}],"outputs":[],"stateMutability":"nonpayable"},{"type":"function","name":"setTxRootOracle","inputs":[{"name":"_txRootOracle","type":"address","internalType":"address"}],"outputs":[],"stateMutability":"nonpayable"},{"type":"function","name":"stats","inputs":[],"outputs":[{"name":"totalForced","type":"uint256","internalType":"uint256"},{"name":"totalIncluded","type":"uint256","internalType":"uint256"},{"name":"totalExpired","type":"uint256","internalType":"uint256"},{"name":"totalBondsLocked","type":"uint256","internalType":"uint256"}],"stateMutability":"view"},{"type":"function","name":"transferOwnership","inputs":[{"name":"newOwner","type":"address","internalType":"address"}],"outputs":[],"stateMutability":"nonpayable"},{"type":"function","name":"txRootOracle","inputs":[],"outputs":[{"name":"","type":"address","internalType":"address"}],"stateMutability":"view"},{"type":"function","name":"unpause","inputs":[],"outputs":[],"stateMutability":"nonpayable"},{"type":"function","name":"userForcedTxs","inputs":[{"name":"","type":"address","internalType":"address"},{"name":"","type":"uint256","internalType":"uint256"}],"outputs":[{"name":"","type":"bytes32","internalType":"bytes32"}],"stateMutability":"view"},{"type":"function","name":"userLastReset","inputs":[{"name":"","type":"address","internalType":"address"}],"outputs":[{"name":"","type":"uint256","internalType":"uint256"}],"stateMutability":"view"},{"type":"function","name":"userTxCount","inputs":[{"name":"","type":"address","internalType":"address"}],"outputs":[{"name":"","type":"uint256","internalType":"uint256"}],"stateMutability":"view"},{"type":"event","name":"BondClaimed","inputs":[{"name":"txId","type":"bytes32","indexed":true,"internalType":"bytes32"},{"name":"sender","type":"address","indexed":true,"internalType":"address"},{"name":"amount","type":"uint256","indexed":false,"internalType":"uint256"}],"anonymous":false},{"type":"event","name":"CircuitBreakerUpdated","inputs":[{"name":"maxPendingTxs","type":"uint256","indexed":false,"internalType":"uint256"},{"name":"maxTxsPerUserPerHour","type":"uint256","indexed":false,"internalType":"uint256"}],"anonymous":false},{"type":"event","name":"L2OutputOracleUpdated","inputs":[{"name":"oldOracle","type":"address","indexed":true,"internalType":"address"},{"name":"newOracle","type":"address","indexed":true,"internalType":"address"}],"anonymous":false},{"type":"event","name":"OptimismPortalUpdated","inputs":[{"name":"oldPortal","type":"address","indexed":true,"internalType":"address"},{"name":"newPortal","type":"address","indexed":true,"internalType":"address"}],"anonymous":false},{"type":"event","name":"OwnershipTransferred","inputs":[{"name":"previousOwner","type":"address","indexed":true,"internalType":"address"},{"name":"newOwner","type":"address","indexed":true,"internalType":"address"}],"anonymous":false},{"type":"event","name":"Paused","inputs":[{"name":"account","type":"address","indexed":false,"internalType":"address"}],"anonymous":false},{"type":"event","name":"TransactionExpired","inputs":[{"name":"txId","type":"bytes32","indexed":true,"internalType":"bytes32"},{"name":"sender","type":"address","indexed":true,"internalType":"address"},{"name":"bondReturned","type":"uint256","indexed":false,"internalType":"uint256"}],"anonymous":false},{"type":"event","name":"TransactionForced","inputs":[{"name":"txId","type":"bytes32","indexed":true,"internalType":"bytes32"},{"name":"sender","type":"address","indexed":true,"internalType":"address"},{"name":"target","type":"address","indexed":false,"internalType":"address"},{"name":"value","type":"uint256","indexed":false,"internalType":"uint256"},{"name":"gasLimit","type":"uint256","indexed":false,"internalType":"uint256"},{"name":"deadline","type":"uint256","indexed":false,"internalType":"uint256"}],"anonymous":false},{"type":"event","name":"TransactionIncluded","inputs":[{"name":"txId","type":"bytes32","indexed":true,"internalType":"bytes32"},{"name":"l2BlockNumber","type":"uint256","indexed":false,"internalType":"uint256"}],"anonymous":false},{"type":"event","name":"TxRootOracleUpdated","inputs":[{"name":"oldOracle","type":"address","indexed":true,"internalType":"address"},{"name":"newOracle","type":"address","indexed":true,"internalType":"address"}],"anonymous":false},{"type":"event","name":"Unpaused","inputs":[{"name":"account","type":"address","indexed":false,"internalType":"address"}],"anonymous":false},{"type":"error","name":"CircuitBreakerTripped","inputs":[]},{"type":"error","name":"DeadlineNotReached","inputs":[]},{"type":"error","name":"EnforcedPause","inputs":[]},{"type":"error","name":"ExpectedPause","inputs":[]},{"type":"error","name":"GasLimitTooHigh","inputs":[]},{"type":"error","name":"InsufficientBond","inputs":[]},{"type":"error","name":"InvalidAddress","inputs":[]},{"type":"error","name":"InvalidInclusionProof","inputs":[]},{"type":"error","name":"InvalidTarget","inputs":[]},{"type":"error","name":"OwnableInvalidOwner","inputs":[{"name":"owner","type":"address","internalType":"address"}]},{"type":"error","name":"OwnableUnauthorizedAccount","inputs":[{"name":"account","type":"address","internalType":"address"}]},{"type":"error","name":"RateLimitExceeded","inputs":[]},{"type":"error","name":"ReentrancyGuardReentrantCall","inputs":[]},{"type":"error","name":"TransactionAlreadyResolved","inputs":[]},{"type":"error","name":"TransactionNotFound","inputs":[]},{"type":"error","name":"TransferFailed","inputs":[]}],"bytecode":{"object":"0x6080346200011157601f620023b838819003918201601f19168301916001600160401b03831184841017620001155780849260609460405283398101031262000111576200004d8162000129565b620000696040620000616020850162000129565b930162000129565b6001600160a01b03918216928315620000f9575f80546001600160a01b0319808216871783559585939290918416907f8be0079c531659141344cd1fd0a4f28419497f9722a3daafe3b4186f6b6457e09080a36001805560ff196002541660025516836006541617600655169060075416176007556103e8600e55600a600f5560405161227990816200013f8239f35b604051631e4fbdf760e01b81525f6004820152602490fd5b5f80fd5b634e487b7160e01b5f52604160045260245ffd5b51906001600160a01b0382168203620001115756fe60806040526004361015610011575f80fd5b5f3560e01c8062cd1f081461029357806309fa9e111461028e5780630a49cb03146102895780631dd86f85146102845780632c5209621461027f5780633f4ba83a1461027a57806343a92dc6146102755780634a53f3c5146102705780634d9f15591461026b5780634f472bb314610266578063507ad58b1461026157806350c1d19d1461025c5780635579a4a5146102575780635c975abb146102525780636a6da2f51461024d5780636db2feb214610248578063715018a614610243578063773d0f391461023e5780638456cb59146102395780638a323a94146102345780638da5cb5b1461022f5780638fbd0c2d1461022a578063a4f18e3b14610225578063abacc0b714610220578063b16e13431461021b578063ba3871c214610216578063c351e40514610211578063c59d48471461020c578063d14bf2bf14610207578063d645ce7914610202578063d795ede1146101fd578063d80528ae146101f8578063dbe9e0e4146101f3578063ddd1391b146101ee578063e0de0fee146101e9578063e3f5aa51146101e4578063e531d8c7146101df578063eb0b2417146101da578063f01c089b146101d55763f2fde38b146101d0575f80fd5b6116dd565b6116b5565b61168a565b61163c565b61161f565b6115fe565b6114f3565b6113ad565b611377565b611341565b611324565b6112f3565b611277565b6110ba565b610fbe565b610e3f565b610e22565b610be1565b610a6e565b610a47565b610a2a565b6109d1565b61097a565b61091d565b6108b9565b610869565b610801565b61072a565b61068c565b61061e565b6105e6565b6105be565b610567565b6104fe565b610438565b6103ca565b610392565b61036a565b610332565b6102b2565b600435906001600160a01b03821682036102ae57565b5f80fd5b346102ae5760203660031901126102ae576102cb610298565b6102d3611763565b6001600160a01b0390811690811561032057600780546001600160a01b031981168417909155167faddb0b9a9d5ee9a90b8487c1e97944068e56d6abde9d827290a5b9ebedf231ae5f80a3005b60405163e6c4247b60e01b8152600490fd5b346102ae5760203660031901126102ae576001600160a01b03610353610298565b165f526011602052602060405f2054604051908152f35b346102ae575f3660031901126102ae576007546040516001600160a01b039091168152602090f35b346102ae5760203660031901126102ae576001600160a01b036103b3610298565b165f526010602052602060405f2054604051908152f35b346102ae5760203660031901126102ae576103e3610298565b6103eb611763565b6001600160a01b0390811690811561032057600680546001600160a01b031981168417909155167fe460de9101f927a0661bf78c597b787a339cae49769c9a0143e6198cef240ba55f80a3005b346102ae575f3660031901126102ae57610450611763565b60025460ff81161561048f5760ff19166002557f5db9ee0a495bf2e6ff9c91a7834c1ba4fdd244a5e8aa4e537bd38aeae4b073aa6020604051338152a1005b604051638dfc202b60e01b8152600490fd5b9081518082526020808093019301915f5b8281106104c0575050505090565b83511515855293810193928101926001016104b2565b90916104ed6104fb936040845260408401906104a1565b9160208184039101526104a1565b90565b346102ae5760203660031901126102ae576004356001600160401b038082116102ae57366023830112156102ae5781600401359081116102ae573660248260051b840101116102ae57602461055392016120aa565b90610563604051928392836104d6565b0390f35b346102ae5760403660031901126102ae577fc68559d32866f9af19028dbbf0d06d3f6954d41d9139bae98c0eea5b78e3b06760406004356024356105a9611763565b81600e5580600f5582519182526020820152a1005b346102ae575f3660031901126102ae576006546040516001600160a01b039091168152602090f35b346102ae5760203660031901126102ae576001600160a01b03610607610298565b165f52600d602052602060405f2054604051908152f35b346102ae5760203660031901126102ae57610637610298565b61063f611763565b6001600160a01b0390811690811561032057816008549182167f81893bbd9e42f9f92b7e6b5b981856a71298778b670c7c8c7ef710785b5af7625f80a36001600160a01b03191617600855005b346102ae575f3660031901126102ae57600954600a548082039082821161071a57600b5480830392831161071a57600e54915f8484111561071f575083830392831161071a5761056392915b600c549060ff60025416926040519788978893909796959260c0959260e086019986526020860152604085015260608401526080830152151560a08201520152565b6117ac565b6105639350916106d8565b346102ae5760203660031901126102ae5761074f6004355f52600360205260405f2090565b5f610563610761600884015460ff1690565b91821580806107f4575b6107dd575b806107cf575b845460018601546005870154600690970154604080516001600160a01b039485168152929093166020830152918101969096526060860152921515608085015291151560a084015260c0830191909152819060e0820190565b506006840154421015610776565b90506107ee600685015442906117c0565b90610770565b506006850154421061076b565b346102ae575f3660031901126102ae57602060ff600254166040519015158152f35b634e487b7160e01b5f52603260045260245ffd5b60055481101561084f5760055f5260205f2001905f90565b610823565b805482101561084f575f5260205f2001905f90565b346102ae5760203660031901126102ae576004356005548110156102ae5760055f527f036b6384b5eca791c62761152d0c79bb0604c104a5fb6f4eb0703f3154bb3db00154604051908152602090f35b346102ae5760203660031901126102ae576004355f526003602052602060405f2060018060a01b038154161515908161090d575b816108fe575b506040519015158152f35b6006915001544210155f6108f3565b600881015460ff161591506108ed565b346102ae575f8060031936011261097757610936611763565b80546001600160a01b03198116825581906001600160a01b03167f8be0079c531659141344cd1fd0a4f28419497f9722a3daafe3b4186f6b6457e08280a380f35b80fd5b346102ae5760403660031901126102ae57610993610298565b6001600160a01b03165f908152600460205260409020805460243591908210156102ae576020916109c391610854565b90546040519160031b1c8152f35b346102ae575f3660031901126102ae576109e9611763565b6109f161178e565b600160ff1960025416176002557f62e78cea01bee320cd4e420270b5ea74000d11b0c9f74754ebdbfc544b05a2586020604051338152a1005b346102ae575f3660031901126102ae576020600e54604051908152f35b346102ae575f3660031901126102ae575f546040516001600160a01b039091168152602090f35b346102ae5760203660031901126102ae57610a87610298565b6001600160a01b0381165f9081526004602052604081208054919290835b838110610b54575050610e10610af4610aed610ad18460018060a01b03165f52601060205260405f2090565b546001600160a01b039094165f90815260116020526040902090565b54426117c0565b1015610b4d575b61056390600f5481109081610b32575b60405194859485926060929594919560808501968552602085015260408401521515910152565b9050610b47610b4360025460ff1690565b1590565b90610b0b565b505f610afb565b610b8c610b436008610b84610b76610b6c8688610854565b90549060031b1c90565b5f52600360205260405f2090565b015460ff1690565b610b9f575b610b9a90611adf565b610aa5565b93610bac610b9a91611adf565b949050610b91565b9181601f840112156102ae578235916001600160401b0383116102ae57602083818601950101116102ae57565b60603660031901126102ae57610bf5610298565b6024356001600160401b0381116102ae57610c14903690600401610bb4565b909160443592610c22611aed565b610c2a61178e565b6001600160a01b03821615610e1057610c54610c4b600954600a54906117c0565b600b54906117c0565b600e541115610dfe57610c6633611fa2565b662386f26fc100003410610dec57629896808411610dda577f0a338e69f5f7837538b505e3d386b93915a9cd48a3cb17b232190ffedb01de8061056394610d466040516020810190610cd181610cc3438a888d8c4293338b6117cd565b03601f19810183528261143b565b519020958694610d06610ce34261180d565b91610cec61182a565b338152936001600160a01b038a1660208601523691611865565b60408301525f60608301528360808301523460a083015260c08201525f60e08201525f610100820152610d41855f52600360205260405f2090565b6119b6565b335f908152600460205260409020610d5f908490611aab565b610d6883611a64565b610d7b610d76600954611adf565b600955565b610d8f610d8a34600c5461181d565b600c55565b610d984261180d565b604080516001600160a01b039690961686525f602087015285019190915260608401523392608090a3610dca60018055565b6040519081529081906020820190565b604051637d2e4eb560e01b8152600490fd5b60405163e92c469f60e01b8152600490fd5b60405163f40982ef60e01b8152600490fd5b60405163416aebb560e11b8152600490fd5b346102ae575f3660031901126102ae576020604051620151808152f35b346102ae5760203660031901126102ae57600435610e5b611aed565b610e6d815f52600360205260405f2090565b805490916001600160a01b0391821615610f725760088301805460ff16610f605760068401544210610f4e57805460ff19166001179055600583015491610eb9610d8a84600c546117c0565b610ecc610ec7600b54611adf565b600b55565b5f938480808087610ee3865460018060a01b031690565b5af1610eed611b10565b5015610f3c5754604051938452166001600160a01b0316917fa22f8bd0fd3b949c964512960dc90869387e4b60c27d10d37ae5623d92c603649080602081015b0390a3610f3960018055565b80f35b6040516312171d8360e31b8152600490fd5b604051633376277360e11b8152600490fd5b604051633317432160e01b8152600490fd5b6040516331fb878f60e01b8152600490fd5b602090816040818301928281528551809452019301915f5b828110610faa575050505090565b835185529381019392810192600101610f9c565b346102ae5760203660031901126102ae57610ff3610fda610298565b6001600160a01b03165f90815260046020526040902090565b80545f805b82811061107a575061100990611b7c565b915f805b83811061102257604051806105638782610f84565b61103a610b436008610b84610b76610b6c8689610854565b61104d575b61104890611adf565b61100d565b9061107261104891611062610b6c8587610854565b61106c8289611bae565b52611adf565b91905061103f565b611092610b436008610b84610b76610b6c868a610854565b6110a5575b6110a090611adf565b610ff8565b906110b26110a091611adf565b919050611097565b346102ae5760603660031901126102ae57600460243581356044356001600160401b0381116102ae576110f09036908501610bb4565b906110f9611aed565b61110b835f52600360205260405f2090565b80549092906001600160a01b03161561126657600883019161112e835460ff1690565b6112555761114191610b43918787611d1e565b61124457805460ff1916600117905582600782015560058101549261116b610d8a85600c546117c0565b61117e611179600a54611adf565b600a55565b5f948580808088611195885460018060a01b031690565b5af161119f611b10565b501561123557506112246112187f03e8263f3afed7930daa8af1e52a6fb85e3c91af66348b09d23e2201467c214593857f6089b0e9c5c0bea51d790b3eea1377670070968b1cee16e9564ccfb8bf42479c611208610f2d96604051918291829190602083019252565b0390a2546001600160a01b031690565b6001600160a01b031690565b604051948552939081906020820190565b6040516312171d8360e31b8152fd5b6040516303cd656760e61b81528590fd5b604051633317432160e01b81528790fd5b6040516331fb878f60e01b81528690fd5b346102ae575f80600319360112610977576080906040906060825161129b8161141b565b8281528260208201528284820152015280516112b68161141b565b60095491828252600a5460208301908152600b54908284019182526060600c54940193845282519485525160208501525190830152516060820152f35b346102ae5760203660031901126102ae576040611316611311610298565b61204d565b825191151582526020820152f35b346102ae575f3660031901126102ae576020600f54604051908152f35b346102ae575f3660031901126102ae57600954600a54810390811161071a57600b54810390811161071a57602090604051908152f35b346102ae575f3660031901126102ae576080600954600a54600b54600c5491604051938452602084015260408301526060820152f35b346102ae575f3660031901126102ae5760206113c761220d565b604051908152f35b90600182811c921680156113fd575b60208310146113e957565b634e487b7160e01b5f52602260045260245ffd5b91607f16916113de565b634e487b7160e01b5f52604160045260245ffd5b608081019081106001600160401b0382111761143657604052565b611407565b90601f801991011681019081106001600160401b0382111761143657604052565b969492919099989795939960018060a01b038091168852602091168188015261012091826040890152805180938901525f5b8381106114de57505050916114dc969593916101009593610140905f828289010152601f8019910116860101996060860152608085015260a084015260c083015260e0820152019015159052565b565b8181018301518982016101400152820161148e565b346102ae576020806003193601126102ae575f906004358252600381526040822060018060a01b03808254169160019182820154169360028201604051938782549261153e846113cf565b808852938381169081156115da575060011461159f575b5087876105638888611569828f038361143b565b600381015460048201546005830154906006840154926115926008600787015496015460ff1690565b95604051998a998a61145c565b9080949950528783205b8284106115c757505050820190940193611569826105635f80611555565b80548685018a01529288019281016115a9565b60ff19168887015250505050151560051b8301019450611569826105635f80611555565b346102ae575f3660031901126102ae576020604051662386f26fc100008152f35b346102ae575f3660031901126102ae576020604051629896808152f35b346102ae5760203660031901126102ae576004355f526003602052602060405f2060018060a01b038154161515908161167a57506040519015158152f35b60ff91506008015416155f6108f3565b346102ae5760203660031901126102ae576105636116a9600435612135565b60405191829182610f84565b346102ae575f3660031901126102ae576008546040516001600160a01b039091168152602090f35b346102ae5760203660031901126102ae576116f6610298565b6116fe611763565b6001600160a01b03908116801561174b575f80546001600160a01b03198116831782559092167f8be0079c531659141344cd1fd0a4f28419497f9722a3daafe3b4186f6b6457e08380a380f35b604051631e4fbdf760e01b81525f6004820152602490fd5b5f546001600160a01b0316330361177657565b60405163118cdaa760e01b8152336004820152602490fd5b60ff6002541661179a57565b60405163d93c066560e01b8152600490fd5b634e487b7160e01b5f52601160045260245ffd5b9190820391821161071a57565b9192849391608898969795926001600160601b0319809260601b16855260601b166014840152602883013701926028840152604883015260688201520190565b9062015180820180921161071a57565b9190820180921161071a57565b6040519061012082018281106001600160401b0382111761143657604052565b6001600160401b03811161143657601f01601f191660200190565b9291926118718261184a565b9161187f604051938461143b565b8294818452818301116102ae578281602093845f960137010152565b90601f81116118a957505050565b5f91825260208220906020601f850160051c830194106118e4575b601f0160051c01915b8281106118d957505050565b8181556001016118cd565b90925082906118c4565b91909182516001600160401b038111611436576119158161190f84546113cf565b8461189b565b602080601f831160011461194f5750819293945f92611944575b50508160011b915f199060031b1c1916179055565b015190505f8061192f565b90601f19831695611963855f5260205f2090565b925f905b88821061199e57505083600195969710611986575b505050811b019055565b01515f1960f88460031b161c191690555f808061197c565b80600185968294968601518155019501930190611967565b815181546001600160a01b0319166001600160a01b039091161781556114dc91600890611a51906101009060208101516001860180546001600160a01b0319166001600160a01b03909216919091179055611a186040820151600287016118ee565b606081015160038601556080810151600486015560a0810151600586015560c0810151600686015560e081015160078601550151151590565b91019060ff801983541691151516179055565b600554600160401b81101561143657600181018060055581101561084f5760055f527f036b6384b5eca791c62761152d0c79bb0604c104a5fb6f4eb0703f3154bb3db00155565b8054600160401b81101561143657611ac891600182018155610854565b819291549060031b91821b915f19901b1916179055565b5f19811461071a5760010190565b600260015414611afe576002600155565b604051633ee5aeb560e01b8152600490fd5b3d15611b3a573d90611b218261184a565b91611b2f604051938461143b565b82523d5f602084013e565b606090565b6001600160401b0381116114365760051b60200190565b604051602081018181106001600160401b03821117611436576040525f8152905f368137565b90611b8682611b3f565b611b93604051918261143b565b8281528092611ba4601f1991611b3f565b0190602036910137565b805182101561084f5760209160051b010190565b6080818303126102ae57803592602092838301359360408401356001600160401b0381116102ae5784019180601f840112156102ae578235611c0381611b3f565b93611c11604051958661143b565b818552838086019260051b8201019283116102ae578301905b828210611c3e575050505060609092013590565b81358152908301908301611c2a565b908160209103126102ae575190565b6040513d5f823e3d90fd5b9493916001600160601b0319809260601b16865260601b1660148501525f918054611c91816113cf565b91600191808316908115611cf75750600114611cb4575b50505081526020019150565b90919293505f52602090815f20905f915b848310611ce357505050506028906020939401019083925f80611ca8565b805488840160280152918301918101611cc5565b91505060289394506020959692915060ff1916838301528015150201019083925f80611ca8565b9192909260808210611f1057611d3691810190611bc2565b6006549294909391926001600160a01b03166001600160a01b039681881615611f045760405197602094858a0163a25ae55760e01b81528a611d8085602483019190602083019252565b039a611d94601f199c8d810183528261143b565b5f958692839251915afa611da6611b10565b90158015611efa575b611eec57808780611dc593518301019101611c4d565b90811490811591611ee3575b50611ed7576008546001600160a01b0316168015611ed75760405163fa60fb0b60e01b815260048101929092528490829060249082905afa8015611ed25787918391611ea5575b5014801590611e9d575b611e935750611e87611e8f9596611e436002935f52600360205260405f2090565b8054909490611e7b906001600160a01b031660018701546001600160a01b031690600488015491604051978895860199019189611c67565b0390810183528261143b565b519020611f18565b1490565b9550505050505090565b508515611e22565b611ec59150853d8711611ecb575b611ebd818361143b565b810190611c4d565b5f611e18565b503d611eb3565b611c5c565b50509550505050505090565b9050155f611dd1565b505050509550505050505090565b5086815110611daf565b50505050505050505f90565b505050505f90565b929190925f915b8451831015611f9c57611f6d90611f368487611bae565b5160019390828516611f7357604080516020810193845290810191909152611f618160608101610cc3565b519020925b1c92611adf565b91611f1f565b60408051602081019283529081019290925290611f938160608101610cc3565b51902092611f66565b50925050565b60018060a01b0381165f52601160205260405f2054420342811161071a57610e101115612021575b6001600160a01b0381165f90815260106020526040902054600f54111561200f576001600160a01b03165f90815260106020526040902061200b8154611adf565b9055565b60405163a74c1c5f60e01b8152600490fd5b6001600160a01b0381165f90815260106020908152604080832083905560119091529020429055611fca565b905f9160018060a01b03168252601060205260408220549160116020526040812054420342811161071a57610e1011156120a257600f54928381101561209a57830392831161071a579190565b506001925090565b9150600f5490565b91906120b581611b7c565b906120bf81611b7c565b935f5b8281106120d0575050509190565b806120ec6121219260051b8401355f52600360205260405f2090565b60ff600882015416906120ff8388611bae565b9115918215905281612126575b506121178289611bae565b9015159052611adf565b6120c2565b6006915001544210155f61210c565b80156122045761214481611b7c565b5f8092600554935b848110806121fb575b156121f257612166610b6c82610837565b612178815f52600360205260405f2090565b805461218c906001600160a01b0316611218565b151590816121d9575b816121ca575b506121b0575b506121ab90611adf565b61214c565b836121c39161106c6121ab949688611bae565b92906121a1565b6006915001544210155f61219b565b90506121ec610b43600883015460ff1690565b90612195565b50508152919050565b50818310612155565b506104fb611b56565b600a54600b5481019081811161071a57811561223b576127109081810291818304149015171561071a570490565b50506127109056fea2646970667358221220454d7d3968aeac3421151e9f97f9a22f12e8c1cb94b478cf4fa9012c76a3f5a564736f6c63430008140033","linkReferences":{}},"methodIdentifiers":{"INCLUSION_DEADLINE()":"abacc0b7","MAX_GAS_LIMIT()":"e3f5aa51","MIN_BOND()":"e0de0fee","allForcedTxs(uint256)":"6a6da2f5","claimExpired(bytes32)":"b16e1343","confirmInclusion(bytes32,uint256,bytes)":"c351e405","forceTransaction(address,bytes,uint256)":"a4f18e3b","forcedTransactions(bytes32)":"ddd1391b","getBatchTxStatuses(bytes32[])":"43a92dc6","getExpirableTxs(uint256)":"eb0b2417","getInclusionRate()":"dbe9e0e4","getPendingCount()":"d795ede1","getStats()":"c59d4847","getSystemStatus()":"50c1d19d","getTxDetails(bytes32)":"5579a4a5","getUserPendingTxs(address)":"ba3871c2","getUserSummary(address)":"8fbd0c2d","isExpired(bytes32)":"6db2feb2","isPending(bytes32)":"e531d8c7","isRateLimited(address)":"d14bf2bf","l2OutputOracle()":"4d9f1559","maxPendingTxs()":"8a323a94","maxTxsPerUserPerHour()":"d645ce79","optimismPortal()":"0a49cb03","owner()":"8da5cb5b","pause()":"8456cb59","paused()":"5c975abb","renounceOwnership()":"715018a6","sequencerPenalties(address)":"4f472bb3","setCircuitBreakerLimits(uint256,uint256)":"4a53f3c5","setL2OutputOracle(address)":"2c520962","setOptimismPortal(address)":"00cd1f08","setTxRootOracle(address)":"507ad58b","stats()":"d80528ae","transferOwnership(address)":"f2fde38b","txRootOracle()":"f01c089b","unpause()":"3f4ba83a","userForcedTxs(address,uint256)":"773d0f39","userLastReset(address)":"09fa9e11","userTxCount(address)":"1dd86f85"},"id":394}