{"abi":[{"type":"function","name":"canCall","inputs":[{"name":"","type":"address","internalType":"address"},{"name":"","type":"address","internalType":"address"},{"name":"","type":"bytes4","internalType":"bytes4"}],"outputs":[],"stateMutability":"view"},{"type":"event","name":"Initialized","inputs":[{"name":"version","type":"uint64","indexed":false,"internalType":"uint64"}],"anonymous":false},{"type":"error","name":"InvalidInitialization","inputs":[]},{"type":"error","name":"NotInitializing","inputs":[]}],"bytecode":{"object":"0x60808060405234601457609b90816100198239f35b5f80fdfe6004361015600b575f80fd5b5f803560e01c63b700961314601e575f80fd5b34605e576060366003190112605e576001600160a01b036004358181160360615760243590811603605e576044356001600160e01b0319811603605e5780f35b80fd5b5080fdfea264697066735822122019d140c7d032436b3a95449a2b51170980de35ed0e613ddb0ad1ca65e369159464736f6c63430008140033","linkReferences":{}},"methodIdentifiers":{"canCall(address,address,bytes4)":"b7009613"},"id":77}