{"abi":[{"type":"function","name":"canCall","inputs":[{"name":"","type":"address","internalType":"address"},{"name":"","type":"address","internalType":"address"},{"name":"","type":"bytes4","internalType":"bytes4"}],"outputs":[{"name":"immediate","type":"bool","internalType":"bool"},{"name":"delay","type":"uint32","internalType":"uint32"}],"stateMutability":"pure"},{"type":"function","name":"consumeScheduledOp","inputs":[{"name":"caller","type":"address","internalType":"address"},{"name":"data","type":"bytes","internalType":"bytes"}],"outputs":[],"stateMutability":"nonpayable"},{"type":"event","name":"ConsumeScheduledOpCalled","inputs":[{"name":"caller","type":"address","indexed":false,"internalType":"address"},{"name":"data","type":"bytes","indexed":false,"internalType":"bytes"},{"name":"isConsuming","type":"bytes4","indexed":false,"internalType":"bytes4"}],"anonymous":false},{"type":"event","name":"Initialized","inputs":[{"name":"version","type":"uint64","indexed":false,"internalType":"uint64"}],"anonymous":false},{"type":"error","name":"InvalidInitialization","inputs":[]},{"type":"error","name":"NotInitializing","inputs":[]}],"bytecode":{"object":"0x608080604052346100165761029f908161001b8239f35b5f80fdfe60806040908082526004361015610014575f80fd5b5f90813560e01c90816394c7d7ee14610086575063b700961314610036575f80fd5b346100835760603660031901126100835761004f610219565b506024356001600160a01b03811603610083576044356001600160e01b031981160361008357815190815260016020820152f35b80fd5b9050346102155782600319360112610215576100a0610219565b906024359367ffffffffffffffff80861161021157366023870112156102115785600401359081116101fd57602090601f19966100e48389601f8501160186610233565b81855236602483830101116101f957818792602485930183880137850101528151638fb3603760e01b8152908082600481335afa9182156101ef5786926101ab575b5082519460018060a01b03168552606081860152835193846060870152865b85811061019757877f6be74e75ed90ba015d494c939c763657508b563a99197bf1323feb9e8f08b401886080818d601f8c8c8c8987848801015263ffffffff60e01b169085015201168101030190a180f35b818101830151878201608001528201610145565b9080925081813d83116101e8575b6101c38183610233565b810103126101e457516001600160e01b0319811681036101e457905f610126565b8580fd5b503d6101b9565b83513d88823e3d90fd5b8680fd5b634e487b7160e01b85526041600452602485fd5b8480fd5b5080fd5b600435906001600160a01b038216820361022f57565b5f80fd5b90601f8019910116810190811067ffffffffffffffff82111761025557604052565b634e487b7160e01b5f52604160045260245ffdfea264697066735822122070c7898e1d9fab1933e961c91d0b41fe04e73de9ed4656131859542370977b0964736f6c63430008140033","linkReferences":{}},"methodIdentifiers":{"canCall(address,address,bytes4)":"b7009613","consumeScheduledOp(address,bytes)":"94c7d7ee"},"id":77}