{"abi":[{"type":"function","name":"_setImmediate","inputs":[{"name":"immediate","type":"bool","internalType":"bool"}],"outputs":[],"stateMutability":"nonpayable"},{"type":"function","name":"canCall","inputs":[{"name":"","type":"address","internalType":"address"},{"name":"","type":"address","internalType":"address"},{"name":"","type":"bytes4","internalType":"bytes4"}],"outputs":[{"name":"immediate","type":"bool","internalType":"bool"}],"stateMutability":"view"},{"type":"event","name":"Initialized","inputs":[{"name":"version","type":"uint64","indexed":false,"internalType":"uint64"}],"anonymous":false},{"type":"error","name":"InvalidInitialization","inputs":[]},{"type":"error","name":"NotInitializing","inputs":[]}],"bytecode":{"object":"0x608080604052346100155760e5908161001a8239f35b5f80fdfe60808060405260043610156011575f80fd5b5f90813560e01c80633e5047b21460815763b700961314602f575f80fd5b3460795760603660031901126079576001600160a01b0360043581811603607d57602435908116036079576044356001600160e01b031981160360795760ff602092541615158152f35b5080fd5b8280fd5b823460ac57602036600319011260ac5760043580151580910360795760ff8019835416911617815580f35b80fdfea2646970667358221220d0271a37b01cc9c7f4ca1dd8a16f04190e833d7155d587742d418988587c9f6b64736f6c63430008140033","linkReferences":{}},"methodIdentifiers":{"_setImmediate(bool)":"3e5047b2","canCall(address,address,bytes4)":"b7009613"},"id":77}