{"abi":[{"type":"function","name":"_setDelay","inputs":[{"name":"delay","type":"uint32","internalType":"uint32"}],"outputs":[],"stateMutability":"nonpayable"},{"type":"function","name":"_setImmediate","inputs":[{"name":"immediate","type":"bool","internalType":"bool"}],"outputs":[],"stateMutability":"nonpayable"},{"type":"function","name":"canCall","inputs":[{"name":"","type":"address","internalType":"address"},{"name":"","type":"address","internalType":"address"},{"name":"","type":"bytes4","internalType":"bytes4"}],"outputs":[{"name":"immediate","type":"bool","internalType":"bool"},{"name":"delay","type":"uint32","internalType":"uint32"}],"stateMutability":"view"},{"type":"event","name":"Initialized","inputs":[{"name":"version","type":"uint64","indexed":false,"internalType":"uint64"}],"anonymous":false},{"type":"error","name":"InvalidInitialization","inputs":[]},{"type":"error","name":"NotInitializing","inputs":[]}],"bytecode":{"object":"0x6080806040523461001657610148908161001b8239f35b5f80fdfe6080806040526004361015610012575f80fd5b5f90813560e01c80632afc4521146100d45780633e5047b2146100a35763b70096131461003d575f80fd5b3461009b57606036600319011261009b576001600160a01b036004358181160361009f576024359081160361009b576044356001600160e01b031981160361009b5763ffffffff6040925460ff81161515835260081c166020820152f35b5080fd5b8280fd5b82346100d15760203660031901126100d15760043580151580910361009b5760ff8019835416911617815580f35b80fd5b82346100d15760203660031901126100d15760043563ffffffff8116810361009b5764ffffffff0082549160081b169064ffffffff00191617815580f3fea2646970667358221220c96afef5f110183eeef0bd773647d841ce84b9fee192532c4cee5cbd3ded94e464736f6c63430008140033","linkReferences":{}},"methodIdentifiers":{"_setDelay(uint32)":"2afc4521","_setImmediate(bool)":"3e5047b2","canCall(address,address,bytes4)":"b7009613"},"id":77}