{"abi":[{"type":"function","name":"allowance","inputs":[{"name":"owner","type":"address","internalType":"address"},{"name":"spender","type":"address","internalType":"address"}],"outputs":[{"name":"","type":"uint256","internalType":"uint256"}],"stateMutability":"view"},{"type":"function","name":"approve","inputs":[{"name":"spender","type":"address","internalType":"address"},{"name":"value","type":"uint256","internalType":"uint256"}],"outputs":[{"name":"","type":"bool","internalType":"bool"}],"stateMutability":"nonpayable"},{"type":"function","name":"balanceOf","inputs":[{"name":"account","type":"address","internalType":"address"}],"outputs":[{"name":"","type":"uint256","internalType":"uint256"}],"stateMutability":"view"},{"type":"function","name":"decimals","inputs":[],"outputs":[{"name":"","type":"uint8","internalType":"uint8"}],"stateMutability":"view"},{"type":"function","name":"functionCall","inputs":[{"name":"target","type":"address","internalType":"address"},{"name":"data","type":"bytes","internalType":"bytes"}],"outputs":[{"name":"","type":"bytes","internalType":"bytes"}],"stateMutability":"nonpayable"},{"type":"function","name":"name","inputs":[],"outputs":[{"name":"","type":"string","internalType":"string"}],"stateMutability":"view"},{"type":"function","name":"scheduleReenter","inputs":[{"name":"when","type":"uint8","internalType":"enum ERC20Reentrant.Type"},{"name":"target","type":"address","internalType":"address"},{"name":"data","type":"bytes","internalType":"bytes"}],"outputs":[],"stateMutability":"nonpayable"},{"type":"function","name":"symbol","inputs":[],"outputs":[{"name":"","type":"string","internalType":"string"}],"stateMutability":"view"},{"type":"function","name":"totalSupply","inputs":[],"outputs":[{"name":"","type":"uint256","internalType":"uint256"}],"stateMutability":"view"},{"type":"function","name":"transfer","inputs":[{"name":"to","type":"address","internalType":"address"},{"name":"value","type":"uint256","internalType":"uint256"}],"outputs":[{"name":"","type":"bool","internalType":"bool"}],"stateMutability":"nonpayable"},{"type":"function","name":"transferFrom","inputs":[{"name":"from","type":"address","internalType":"address"},{"name":"to","type":"address","internalType":"address"},{"name":"value","type":"uint256","internalType":"uint256"}],"outputs":[{"name":"","type":"bool","internalType":"bool"}],"stateMutability":"nonpayable"},{"type":"event","name":"Approval","inputs":[{"name":"owner","type":"address","indexed":true,"internalType":"address"},{"name":"spender","type":"address","indexed":true,"internalType":"address"},{"name":"value","type":"uint256","indexed":false,"internalType":"uint256"}],"anonymous":false},{"type":"event","name":"Transfer","inputs":[{"name":"from","type":"address","indexed":true,"internalType":"address"},{"name":"to","type":"address","indexed":true,"internalType":"address"},{"name":"value","type":"uint256","indexed":false,"internalType":"uint256"}],"anonymous":false},{"type":"error","name":"AddressEmptyCode","inputs":[{"name":"target","type":"address","internalType":"address"}]},{"type":"error","name":"AddressInsufficientBalance","inputs":[{"name":"account","type":"address","internalType":"address"}]},{"type":"error","name":"ERC20InsufficientAllowance","inputs":[{"name":"spender","type":"address","internalType":"address"},{"name":"allowance","type":"uint256","internalType":"uint256"},{"name":"needed","type":"uint256","internalType":"uint256"}]},{"type":"error","name":"ERC20InsufficientBalance","inputs":[{"name":"sender","type":"address","internalType":"address"},{"name":"balance","type":"uint256","internalType":"uint256"},{"name":"needed","type":"uint256","internalType":"uint256"}]},{"type":"error","name":"ERC20InvalidApprover","inputs":[{"name":"approver","type":"address","internalType":"address"}]},{"type":"error","name":"ERC20InvalidReceiver","inputs":[{"name":"receiver","type":"address","internalType":"address"}]},{"type":"error","name":"ERC20InvalidSender","inputs":[{"name":"sender","type":"address","internalType":"address"}]},{"type":"error","name":"ERC20InvalidSpender","inputs":[{"name":"spender","type":"address","internalType":"address"}]},{"type":"error","name":"FailedInnerCall","inputs":[]}],"bytecode":{"object":"0x60803462000315576040906001600160401b03908083018281118282101762000301578352600491828252602063151154d560e21b8184015284519085820182811084821117620002ee578652600391828152621514d560ea1b82820152845191848311620001fb578354926001968785811c95168015620002e3575b83861014620002d0578190601f958681116200027d575b5083908683116001146200021a575f926200020e575b50505f1982871b1c191690871b1784555b8151948511620001fb5786548681811c91168015620001f0575b82821014620001dd5783811162000195575b50809285116001146200012b57509383949184925f956200011f575b50501b925f19911b1c19161790555b51610b0a90816200031a8239f35b015193505f8062000102565b92919084601f198116885f52855f20955f905b898383106200017a575050501062000160575b50505050811b01905562000111565b01519060f8845f19921b161c191690555f80808062000151565b8587015189559097019694850194889350908101906200013e565b875f52815f208480880160051c820192848910620001d3575b0160051c019087905b828110620001c7575050620000e6565b5f8155018790620001b7565b92508192620001ae565b602288634e487b7160e01b5f525260245ffd5b90607f1690620000d4565b604187634e487b7160e01b5f525260245ffd5b015190505f80620000a9565b90899350601f19831691885f52855f20925f5b878282106200026657505084116200024e575b505050811b018455620000ba565b01515f1983891b60f8161c191690555f808062000240565b8385015186558d979095019493840193016200022d565b909150865f52835f208680850160051c820192868610620002c6575b918b91869594930160051c01915b828110620002b757505062000093565b5f81558594508b9101620002a7565b9250819262000299565b602289634e487b7160e01b5f525260245ffd5b94607f16946200007c565b604186634e487b7160e01b5f525260245ffd5b634e487b7160e01b5f52604160045260245ffd5b5f80fdfe6080604081815260049182361015610015575f80fd5b5f92833560e01c91826306fdde031461065a57508163095ea7b3146105b057816318160ddd1461059157816323b872dd1461049e578163313ce5671461048257816370a082311461044b57816395d89b4114610386578163a0b5ffb0146102e9578163a9059cbb146102b8578163cd594b63146100e6575063dd62ed3e1461009b575f80fd5b346100e257806003193601126100e257806020926100b7610765565b6100bf61077f565b6001600160a01b0391821683526001865283832091168252845220549051908152f35b5080fd5b83346102b55760603660031901126102b55781359160038310156100e25761010c61077f565b926044359067ffffffffffffffff928383116102ad57366023840112156102ad578201359283116102b157602494368685850101116102ad57600580546001600160a81b03191660ff939093169290921760089190911b610100600160a81b031617905560065461017c906107e7565b601f811161024a575b508290601f83116001146101c457908394918394936101b7575b5050508160011b915f199060031b1c19161760065580f35b010135905083808061019f565b60068452601f198316947ff652222313e28459528d920b65115c16c04f3efc82aaedc97be59f3f377c0d3f928560205b888210610230575050846001969710610215575b50505050811b0160065580f35b5f1960f88660031b161c199201013516905583808080610208565b8060018497868395968901013581550196019201906101f4565b600684527ff652222313e28459528d920b65115c16c04f3efc82aaedc97be59f3f377c0d3f601f840160051c810191602085106102a3575b601f0160051c01905b8181106102985750610185565b84815560010161028b565b9091508190610282565b8480fd5b8380fd5b80fd5b5050346100e257806003193601126100e2576020906102e26102d8610765565b602435903361089f565b5160018152f35b905034610382578160031936011261038257610303610765565b6024359167ffffffffffffffff83116102ad57366023840112156102ad5782013561032d816107cb565b9261033a85519485610795565b818452366024838301011161037e5794602082610367959493602461037a99018387013784010152610a2d565b9051918291602083526020830190610727565b0390f35b8580fd5b8280fd5b8383346100e257816003193601126100e257805191809380546103a8816107e7565b8086529160019180831690811561042057506001146103e5575b61037a86866103d3828b0383610795565b51918291602083526020830190610727565b835260208084209096505b82841061040d575050508261037a946103d39282010194866103c2565b80548685018801529286019281016103f0565b905061037a97506103d39450602092508693915060ff191682840152151560051b82010194866103c2565b5050346100e25760203660031901126100e25760209181906001600160a01b03610473610765565b16815280845220549051908152f35b5050346100e257816003193601126100e2576020905160128152f35b905082346102b55760603660031901126102b5576104ba610765565b6104c261077f565b916044359360018060a01b038316808352600160205286832033845260205286832054915f1983036104fd575b6020886102e289898961089f565b86831061056557811561054e573315610537575082526001602090815286832033845281529186902090859003905582906102e2876104ef565b8751634a1406b160e11b8152908101849052602490fd5b875163e602df0560e01b8152908101849052602490fd5b8751637dc7a0d960e11b8152339181019182526020820193909352604081018790528291506060010390fd5b5050346100e257816003193601126100e2576020906002549051908152f35b9050346103825781600319360112610382576105ca610765565b602435903315610643576001600160a01b031691821561062c57508083602095338152600187528181208582528752205582519081527f8c5be1e5ebec7d5bd14f71427d1e84f3dd0314c0f7b2291e5b200ac8c7c3b925843392a35160018152f35b8351634a1406b160e11b8152908101859052602490fd5b835163e602df0560e01b8152808401869052602490fd5b849084346103825782600319360112610382578260035461067a816107e7565b808552906001908181169081156106ff57506001146106a6575b5050506103d38261037a940383610795565b60038352602095507fc2575a0e9e593c00f959f8c92f12db2869c3395a3b0502d05e2516446f71f85b5b8284106106ec575050508261037a946103d39282010194610694565b80548685018801529286019281016106d0565b61037a97506103d39450602092508693915060ff191682840152151560051b82010194610694565b91908251928382525f5b848110610751575050825f602080949584010152601f8019910116010190565b602081830181015184830182015201610731565b600435906001600160a01b038216820361077b57565b5f80fd5b602435906001600160a01b038216820361077b57565b90601f8019910116810190811067ffffffffffffffff8211176107b757604052565b634e487b7160e01b5f52604160045260245ffd5b67ffffffffffffffff81116107b757601f01601f191660200190565b90600182811c92168015610815575b602083101461080157565b634e487b7160e01b5f52602260045260245ffd5b91607f16916107f6565b6006545f929161082e826107e7565b9081815260019283811690815f14610884575060011461084d57505050565b9092935060065f52602092835f2092845f945b8386106108705750505050010190565b805485870183015294019385908201610860565b91935050602093945060ff191683830152151560051b010190565b91906001600160a01b0390818416908115610a155782169081156109fd5760055460ff811660038110156109e9576001146109c4575b505f938185528460205260409586862054908282106109935750817fddf252ad1be2c89b69c2b068fc378daa952ba7f163c4a11628f55a4df523b3ef9260209285895288845203888820558487528787208181540190558751908152a36005549160ff831690600382101561097f575060021461095157505050565b61097c9260ff19831660055551916109738361096c8161081f565b0384610795565b60081c16610a2d565b50565b634e487b7160e01b81526021600452602490fd5b875163391434e360e21b81526001600160a01b03919091166004820152602481019190915260448101829052606490fd5b60ff1981166005556040516109e29185906109738361096c8161081f565b505f6108d5565b634e487b7160e01b5f52602160045260245ffd5b60405163ec442f0560e01b81525f6004820152602490fd5b604051634b637e8f60e11b81525f6004820152602490fd5b5f80610a6a9360208151910182855af13d15610a6d573d91610a4e836107cb565b92610a5c6040519485610795565b83523d5f602085013e610a71565b90565b6060915b90610a985750805115610a8657805190602001fd5b604051630a12f52160e11b8152600490fd5b81511580610acb575b610aa9575090565b604051639996b31560e01b81526001600160a01b039091166004820152602490fd5b50803b15610aa156fea2646970667358221220c31bfbff5253b6f06b073873981d1ae91472b3f5c02a6debbce629f3edb3e53564736f6c63430008140033","linkReferences":{}},"methodIdentifiers":{"allowance(address,address)":"dd62ed3e","approve(address,uint256)":"095ea7b3","balanceOf(address)":"70a08231","decimals()":"313ce567","functionCall(address,bytes)":"a0b5ffb0","name()":"06fdde03","scheduleReenter(uint8,address,bytes)":"cd594b63","symbol()":"95d89b41","totalSupply()":"18160ddd","transfer(address,uint256)":"a9059cbb","transferFrom(address,address,uint256)":"23b872dd"},"id":295}