{"abi":[{"type":"function","name":"onFlashLoan","inputs":[{"name":"","type":"address","internalType":"address"},{"name":"token","type":"address","internalType":"address"},{"name":"amount","type":"uint256","internalType":"uint256"},{"name":"fee","type":"uint256","internalType":"uint256"},{"name":"data","type":"bytes","internalType":"bytes"}],"outputs":[{"name":"","type":"bytes32","internalType":"bytes32"}],"stateMutability":"nonpayable"},{"type":"event","name":"BalanceOf","inputs":[{"name":"token","type":"address","indexed":false,"internalType":"address"},{"name":"account","type":"address","indexed":false,"internalType":"address"},{"name":"value","type":"uint256","indexed":false,"internalType":"uint256"}],"anonymous":false},{"type":"event","name":"Initialized","inputs":[{"name":"version","type":"uint64","indexed":false,"internalType":"uint64"}],"anonymous":false},{"type":"event","name":"TotalSupply","inputs":[{"name":"token","type":"address","indexed":false,"internalType":"address"},{"name":"value","type":"uint256","indexed":false,"internalType":"uint256"}],"anonymous":false},{"type":"error","name":"AddressEmptyCode","inputs":[{"name":"target","type":"address","internalType":"address"}]},{"type":"error","name":"AddressInsufficientBalance","inputs":[{"name":"account","type":"address","internalType":"address"}]},{"type":"error","name":"FailedInnerCall","inputs":[]},{"type":"error","name":"InvalidInitialization","inputs":[]},{"type":"error","name":"NotInitializing","inputs":[]}],"bytecode":{"object":"0x608080604052346100165761043f908161001b8239f35b5f80fdfe60806040818152600480361015610014575f80fd5b5f90813560e01c6323e30c8b14610029575f80fd5b3461023b5760a036600319011261023b576001600160a01b03813581811603610350576024359081169081810361034c576044359267ffffffffffffffff6084358181116103485736602382011215610348578083013591821161034857366024838301011161034857843303610348576370a0823160e01b895230838a01526020988981602481895afa90811561031057889161031a575b5060607f6ff2acfcb07917b1e80e53f0fe390b467b1151d15b38730a6e08397799c05a8b918a5190888252308d8301528b820152a187516318160ddd60e01b815289818581895afa90811561031057918a91899384916102d6575b508a516001600160a01b038816815260208101919091527f7249fd4c03cce09b30a13d77804b198e2647c0ccd59eadf4de4e7c16099badc59080604081015b0390a18984610263575b50505060ff915054166101b6575b5050505060ff815460081c165f146101b057507f439148f0bbc682ca079e46d6e2c2f0c1e3b820f1a291b069d8882abf8cf18dd9905b51908152f35b906101aa565b606435840180941161025057855163095ea7b360e01b81526001600160a01b039092169082019081526020810193909352918591839182908690829060400103925af180156102465761020c575b808080610174565b8381813d831161023f575b6102218183610354565b8101031261023b575180151503610238575f610204565b80fd5b5080fd5b503d610217565b83513d84823e3d90fd5b634e487b7160e01b855260119052602484fd5b8380938661027f6102766102c39961038a565b94519485610354565b8084528060248386019601863783010152519082875af13d156102ce573d906102a78261038a565b916102b48a519384610354565b82523d888b84013e5b846103a6565b505f85888289610166565b6060906102bd565b92809294508391503d8311610309575b6102f08183610354565b81010312610305575187918a9161015c61011d565b8780fd5b503d6102e6565b89513d8a823e3d90fd5b90508981813d8311610341575b6103318183610354565b81010312610305575160606100c2565b503d610327565b8680fd5b8380fd5b8280fd5b90601f8019910116810190811067ffffffffffffffff82111761037657604052565b634e487b7160e01b5f52604160045260245ffd5b67ffffffffffffffff811161037657601f01601f191660200190565b906103cd57508051156103bb57805190602001fd5b604051630a12f52160e11b8152600490fd5b81511580610400575b6103de575090565b604051639996b31560e01b81526001600160a01b039091166004820152602490fd5b50803b156103d656fea26469706673582212202e4b5f4095f32d4aeb73abb494928608c86f044f9680d43e80d812537b62442664736f6c63430008140033","linkReferences":{}},"methodIdentifiers":{"onFlashLoan(address,address,uint256,uint256,bytes)":"23e30c8b"},"id":89}