{"abi":[{"type":"function","name":"callback","inputs":[],"outputs":[],"stateMutability":"nonpayable"},{"type":"function","name":"countAndCall","inputs":[{"name":"attacker","type":"address","internalType":"contract ReentrancyAttackUpgradeable"}],"outputs":[],"stateMutability":"nonpayable"},{"type":"function","name":"countLocalRecursive","inputs":[{"name":"n","type":"uint256","internalType":"uint256"}],"outputs":[],"stateMutability":"nonpayable"},{"type":"function","name":"countThisRecursive","inputs":[{"name":"n","type":"uint256","internalType":"uint256"}],"outputs":[],"stateMutability":"nonpayable"},{"type":"function","name":"counter","inputs":[],"outputs":[{"name":"","type":"uint256","internalType":"uint256"}],"stateMutability":"view"},{"type":"function","name":"guardedCheckEntered","inputs":[],"outputs":[],"stateMutability":"nonpayable"},{"type":"function","name":"unguardedCheckNotEntered","inputs":[],"outputs":[],"stateMutability":"view"},{"type":"event","name":"Initialized","inputs":[{"name":"version","type":"uint64","indexed":false,"internalType":"uint64"}],"anonymous":false},{"type":"error","name":"InvalidInitialization","inputs":[]},{"type":"error","name":"NotInitializing","inputs":[]},{"type":"error","name":"ReentrancyGuardReentrantCall","inputs":[]}],"bytecode":{"object":"0x608080604052346100165761050d908161001b8239f35b5f80fdfe60406080815260049081361015610014575f80fd5b5f91823560e01c918263083b2732146103ea57826361bc221a146103cd5782638c5344fa1461028457826396ffa69014610214578263a408f312146101d9578263b672ad8b1461009a57505063cecc95a71461006e575f80fd5b3461009757806003193601126100975760025f805160206104b883398151915254146100975780f35b80fd5b909150346101d557602091826003193601126101d15780356001600160a01b03811693908490036101cd576100cd610488565b6100d5610477565b82519363041d939960e11b828601528285528385019467ffffffffffffffff86119281871084176101ba57868652823b156101b657918691889363f8123dd560e01b8452806044830152815190816064840152855b82811061019c575050808201608401859052601f01601f191681010360440190829084905af1801561019257610170575b8460015f805160206104b88339815191525580f35b61017f5750525f80808061015b565b634e487b7160e01b845260419052602483fd5b83513d87823e3d90fd5b808401808301516084909101528b96508a9550810161012a565b8780fd5b634e487b7160e01b885260418552602488fd5b8480fd5b8380fd5b8280fd5b83346100975780600319360112610097576101f2610488565b5f805160206104b88339815191526002815403610210576001905580f35b5080fd5b508234610097576020366003190112610097578135610231610488565b8061024c575b5060015f805160206104b88339815191525580f35b610254610477565b5f1981019081116102715761026a91925061041f565b8082610237565b506011602492634e487b7160e01b835252fd5b909150346101d55760203660031901126101d5578135906102a3610488565b816102be575b8360015f805160206104b88339815191525580f35b6102c6610477565b5f1982019182116103ba57805160208101634629a27d60e11b815260249384830152838252606082019167ffffffffffffffff928181108482111761039057845251869182919082305af1903d156103b4573d8181116103a257835191601f8201601f19908116603f011683019081118382101761039057845281528560203d92013e5b6102a957606492916020601b92519362461bcd60e51b85528401528201527f5265656e7472616e63794d6f636b3a206661696c65642063616c6c00000000006044820152fd5b634e487b7160e01b8852604187528588fd5b634e487b7160e01b8752604186528487fd5b5061034a565b634e487b7160e01b845260118352602484fd5b839034610210578160031936011261021057602091549051908152f35b8334610097578060031936011261009757610403610488565b61040b610477565b60015f805160206104b88339815191525580f35b610427610488565b80610441575b5060015f805160206104b883398151915255565b610449610477565b5f1981019081116104635761045d9061041f565b5f61042d565b634e487b7160e01b5f52601160045260245ffd5b5f5460018101809111610463575f55565b5f805160206104b883398151915260028154146104a55760029055565b604051633ee5aeb560e01b8152600490fdfe9b779b17422d0df92223018b32b4d1fa46e071723d6817e2486d003becc55f00a26469706673582212202cbd57bea0ce0f0281711723bc7ea9f8f23085283b7f0fe2daadcf13a423060164736f6c63430008140033","linkReferences":{}},"methodIdentifiers":{"callback()":"083b2732","countAndCall(address)":"b672ad8b","countLocalRecursive(uint256)":"96ffa690","countThisRecursive(uint256)":"8c5344fa","counter()":"61bc221a","guardedCheckEntered()":"a408f312","unguardedCheckNotEntered()":"cecc95a7"},"id":97}