{"abi":[{"type":"constructor","inputs":[],"stateMutability":"nonpayable"},{"type":"receive","stateMutability":"payable"},{"type":"function","name":"MAX_BATCH_SIZE","inputs":[],"outputs":[{"name":"","type":"uint256","internalType":"uint256"}],"stateMutability":"view"},{"type":"function","name":"UPGRADE_INTERFACE_VERSION","inputs":[],"outputs":[{"name":"","type":"string","internalType":"string"}],"stateMutability":"view"},{"type":"function","name":"balance","inputs":[],"outputs":[{"name":"","type":"uint256","internalType":"uint256"}],"stateMutability":"view"},{"type":"function","name":"batchCanSponsor","inputs":[{"name":"_merchants","type":"address[]","internalType":"address[]"},{"name":"_amounts","type":"uint256[]","internalType":"uint256[]"}],"outputs":[{"name":"canSponsor_","type":"bool[]","internalType":"bool[]"},{"name":"reasons","type":"string[]","internalType":"string[]"}],"stateMutability":"view"},{"type":"function","name":"batchExecuteSponsorship","inputs":[{"name":"_merchants","type":"address[]","internalType":"address[]"},{"name":"_amounts","type":"uint256[]","internalType":"uint256[]"},{"name":"_operationTypes","type":"uint8[]","internalType":"enum SetPaymaster.OperationType[]"}],"outputs":[{"name":"succeeded","type":"uint256","internalType":"uint256"},{"name":"failed","type":"uint256","internalType":"uint256"}],"stateMutability":"nonpayable"},{"type":"function","name":"batchGetMerchantDetails","inputs":[{"name":"_merchants","type":"address[]","internalType":"address[]"}],"outputs":[{"name":"active","type":"bool[]","internalType":"bool[]"},{"name":"tierIds","type":"uint256[]","internalType":"uint256[]"},{"name":"spentToday","type":"uint256[]","internalType":"uint256[]"},{"name":"spentThisMonth","type":"uint256[]","internalType":"uint256[]"},{"name":"totalSponsored","type":"uint256[]","internalType":"uint256[]"}],"stateMutability":"view"},{"type":"function","name":"batchGetMerchantStatus","inputs":[{"name":"_merchants","type":"address[]","internalType":"address[]"}],"outputs":[{"name":"statuses","type":"bool[]","internalType":"bool[]"},{"name":"tiers_","type":"uint256[]","internalType":"uint256[]"}],"stateMutability":"view"},{"type":"function","name":"batchGetRemainingDailyAllowance","inputs":[{"name":"_merchants","type":"address[]","internalType":"address[]"}],"outputs":[{"name":"allowances","type":"uint256[]","internalType":"uint256[]"}],"stateMutability":"view"},{"type":"function","name":"batchRefundUnusedGas","inputs":[{"name":"_merchants","type":"address[]","internalType":"address[]"},{"name":"_refundAmounts","type":"uint256[]","internalType":"uint256[]"}],"outputs":[],"stateMutability":"nonpayable"},{"type":"function","name":"batchRevokeMerchants","inputs":[{"name":"_merchants","type":"address[]","internalType":"address[]"}],"outputs":[],"stateMutability":"nonpayable"},{"type":"function","name":"batchSponsorMerchants","inputs":[{"name":"_merchants","type":"address[]","internalType":"address[]"},{"name":"_tierIds","type":"uint256[]","internalType":"uint256[]"}],"outputs":[],"stateMutability":"nonpayable"},{"type":"function","name":"batchUpdateMerchantTier","inputs":[{"name":"_merchants","type":"address[]","internalType":"address[]"},{"name":"_newTierId","type":"uint256","internalType":"uint256"}],"outputs":[],"stateMutability":"nonpayable"},{"type":"function","name":"canSponsor","inputs":[{"name":"_merchant","type":"address","internalType":"address"},{"name":"_amount","type":"uint256","internalType":"uint256"}],"outputs":[{"name":"sponsorable","type":"bool","internalType":"bool"},{"name":"reason","type":"string","internalType":"string"}],"stateMutability":"view"},{"type":"function","name":"createTier","inputs":[{"name":"_name","type":"string","internalType":"string"},{"name":"_maxPerTx","type":"uint256","internalType":"uint256"},{"name":"_maxPerDay","type":"uint256","internalType":"uint256"},{"name":"_maxPerMonth","type":"uint256","internalType":"uint256"}],"outputs":[{"name":"tierId","type":"uint256","internalType":"uint256"}],"stateMutability":"nonpayable"},{"type":"function","name":"deposit","inputs":[],"outputs":[],"stateMutability":"payable"},{"type":"function","name":"executeSponsorship","inputs":[{"name":"_merchant","type":"address","internalType":"address"},{"name":"_amount","type":"uint256","internalType":"uint256"},{"name":"_operationType","type":"uint8","internalType":"enum SetPaymaster.OperationType"}],"outputs":[],"stateMutability":"nonpayable"},{"type":"function","name":"getAllTiers","inputs":[],"outputs":[{"name":"tierIds","type":"uint256[]","internalType":"uint256[]"},{"name":"names","type":"string[]","internalType":"string[]"},{"name":"maxPerTx","type":"uint256[]","internalType":"uint256[]"},{"name":"maxPerDay_","type":"uint256[]","internalType":"uint256[]"},{"name":"maxPerMonth_","type":"uint256[]","internalType":"uint256[]"}],"stateMutability":"view"},{"type":"function","name":"getMerchantDetails","inputs":[{"name":"_merchant","type":"address","internalType":"address"}],"outputs":[{"name":"active","type":"bool","internalType":"bool"},{"name":"tierId","type":"uint256","internalType":"uint256"},{"name":"spentToday","type":"uint256","internalType":"uint256"},{"name":"spentThisMonth","type":"uint256","internalType":"uint256"},{"name":"totalSponsored","type":"uint256","internalType":"uint256"}],"stateMutability":"view"},{"type":"function","name":"getPaymasterStatus","inputs":[],"outputs":[{"name":"paymasterBalance","type":"uint256","internalType":"uint256"},{"name":"totalSponsored_","type":"uint256","internalType":"uint256"},{"name":"tierCount","type":"uint256","internalType":"uint256"},{"name":"treasuryAddr","type":"address","internalType":"address"}],"stateMutability":"view"},{"type":"function","name":"getRemainingDailyAllowance","inputs":[{"name":"_merchant","type":"address","internalType":"address"}],"outputs":[{"name":"","type":"uint256","internalType":"uint256"}],"stateMutability":"view"},{"type":"function","name":"initialize","inputs":[{"name":"_owner","type":"address","internalType":"address"},{"name":"_treasury","type":"address","internalType":"address"}],"outputs":[],"stateMutability":"nonpayable"},{"type":"function","name":"merchantSponsorship","inputs":[{"name":"","type":"address","internalType":"address"}],"outputs":[{"name":"active","type":"bool","internalType":"bool"},{"name":"tierId","type":"uint256","internalType":"uint256"},{"name":"spentToday","type":"uint256","internalType":"uint256"},{"name":"spentThisMonth","type":"uint256","internalType":"uint256"},{"name":"lastDayReset","type":"uint256","internalType":"uint256"},{"name":"lastMonthReset","type":"uint256","internalType":"uint256"},{"name":"totalSponsored","type":"uint256","internalType":"uint256"}],"stateMutability":"view"},{"type":"function","name":"minDeposit","inputs":[],"outputs":[{"name":"","type":"uint256","internalType":"uint256"}],"stateMutability":"view"},{"type":"function","name":"nextTierId","inputs":[],"outputs":[{"name":"","type":"uint256","internalType":"uint256"}],"stateMutability":"view"},{"type":"function","name":"operators","inputs":[{"name":"","type":"address","internalType":"address"}],"outputs":[{"name":"","type":"bool","internalType":"bool"}],"stateMutability":"view"},{"type":"function","name":"owner","inputs":[],"outputs":[{"name":"","type":"address","internalType":"address"}],"stateMutability":"view"},{"type":"function","name":"proxiableUUID","inputs":[],"outputs":[{"name":"","type":"bytes32","internalType":"bytes32"}],"stateMutability":"view"},{"type":"function","name":"refundUnusedGas","inputs":[{"name":"_merchant","type":"address","internalType":"address"},{"name":"_refundAmount","type":"uint256","internalType":"uint256"}],"outputs":[],"stateMutability":"nonpayable"},{"type":"function","name":"renounceOwnership","inputs":[],"outputs":[],"stateMutability":"nonpayable"},{"type":"function","name":"revokeMerchant","inputs":[{"name":"_merchant","type":"address","internalType":"address"}],"outputs":[],"stateMutability":"nonpayable"},{"type":"function","name":"setMinDeposit","inputs":[{"name":"_minDeposit","type":"uint256","internalType":"uint256"}],"outputs":[],"stateMutability":"nonpayable"},{"type":"function","name":"setOperator","inputs":[{"name":"_operator","type":"address","internalType":"address"},{"name":"_authorized","type":"bool","internalType":"bool"}],"outputs":[],"stateMutability":"nonpayable"},{"type":"function","name":"setTierActive","inputs":[{"name":"_tierId","type":"uint256","internalType":"uint256"},{"name":"_active","type":"bool","internalType":"bool"}],"outputs":[],"stateMutability":"nonpayable"},{"type":"function","name":"setTreasury","inputs":[{"name":"_treasury","type":"address","internalType":"address"}],"outputs":[],"stateMutability":"nonpayable"},{"type":"function","name":"sponsorMerchant","inputs":[{"name":"_merchant","type":"address","internalType":"address"},{"name":"_tierId","type":"uint256","internalType":"uint256"}],"outputs":[],"stateMutability":"nonpayable"},{"type":"function","name":"tiers","inputs":[{"name":"","type":"uint256","internalType":"uint256"}],"outputs":[{"name":"name","type":"string","internalType":"string"},{"name":"maxPerTransaction","type":"uint256","internalType":"uint256"},{"name":"maxPerDay","type":"uint256","internalType":"uint256"},{"name":"maxPerMonth","type":"uint256","internalType":"uint256"},{"name":"active","type":"bool","internalType":"bool"}],"stateMutability":"view"},{"type":"function","name":"totalGasSponsored","inputs":[],"outputs":[{"name":"","type":"uint256","internalType":"uint256"}],"stateMutability":"view"},{"type":"function","name":"transferOwnership","inputs":[{"name":"newOwner","type":"address","internalType":"address"}],"outputs":[],"stateMutability":"nonpayable"},{"type":"function","name":"treasury","inputs":[],"outputs":[{"name":"","type":"address","internalType":"address"}],"stateMutability":"view"},{"type":"function","name":"updateTier","inputs":[{"name":"_tierId","type":"uint256","internalType":"uint256"},{"name":"_maxPerTx","type":"uint256","internalType":"uint256"},{"name":"_maxPerDay","type":"uint256","internalType":"uint256"},{"name":"_maxPerMonth","type":"uint256","internalType":"uint256"}],"outputs":[],"stateMutability":"nonpayable"},{"type":"function","name":"upgradeToAndCall","inputs":[{"name":"newImplementation","type":"address","internalType":"address"},{"name":"data","type":"bytes","internalType":"bytes"}],"outputs":[],"stateMutability":"payable"},{"type":"function","name":"withdraw","inputs":[{"name":"_amount","type":"uint256","internalType":"uint256"}],"outputs":[],"stateMutability":"nonpayable"},{"type":"event","name":"BatchSponsorshipCompleted","inputs":[{"name":"processed","type":"uint256","indexed":false,"internalType":"uint256"},{"name":"succeeded","type":"uint256","indexed":false,"internalType":"uint256"},{"name":"failed","type":"uint256","indexed":false,"internalType":"uint256"}],"anonymous":false},{"type":"event","name":"BatchSponsorshipFailed","inputs":[{"name":"merchant","type":"address","indexed":true,"internalType":"address"},{"name":"reason","type":"string","indexed":false,"internalType":"string"}],"anonymous":false},{"type":"event","name":"Deposited","inputs":[{"name":"from","type":"address","indexed":true,"internalType":"address"},{"name":"amount","type":"uint256","indexed":false,"internalType":"uint256"}],"anonymous":false},{"type":"event","name":"GasSponsored","inputs":[{"name":"merchant","type":"address","indexed":true,"internalType":"address"},{"name":"amount","type":"uint256","indexed":false,"internalType":"uint256"},{"name":"operationType","type":"uint8","indexed":false,"internalType":"enum SetPaymaster.OperationType"}],"anonymous":false},{"type":"event","name":"Initialized","inputs":[{"name":"version","type":"uint64","indexed":false,"internalType":"uint64"}],"anonymous":false},{"type":"event","name":"MerchantRevoked","inputs":[{"name":"merchant","type":"address","indexed":true,"internalType":"address"}],"anonymous":false},{"type":"event","name":"MerchantSponsored","inputs":[{"name":"merchant","type":"address","indexed":true,"internalType":"address"},{"name":"tierId","type":"uint256","indexed":false,"internalType":"uint256"}],"anonymous":false},{"type":"event","name":"MinDepositUpdated","inputs":[{"name":"minDeposit","type":"uint256","indexed":false,"internalType":"uint256"}],"anonymous":false},{"type":"event","name":"OperatorUpdated","inputs":[{"name":"operator","type":"address","indexed":true,"internalType":"address"},{"name":"authorized","type":"bool","indexed":false,"internalType":"bool"}],"anonymous":false},{"type":"event","name":"OwnershipTransferred","inputs":[{"name":"previousOwner","type":"address","indexed":true,"internalType":"address"},{"name":"newOwner","type":"address","indexed":true,"internalType":"address"}],"anonymous":false},{"type":"event","name":"TierCreated","inputs":[{"name":"tierId","type":"uint256","indexed":true,"internalType":"uint256"},{"name":"name","type":"string","indexed":false,"internalType":"string"},{"name":"maxPerTx","type":"uint256","indexed":false,"internalType":"uint256"},{"name":"maxPerDay","type":"uint256","indexed":false,"internalType":"uint256"}],"anonymous":false},{"type":"event","name":"TierStatusUpdated","inputs":[{"name":"tierId","type":"uint256","indexed":true,"internalType":"uint256"},{"name":"active","type":"bool","indexed":false,"internalType":"bool"}],"anonymous":false},{"type":"event","name":"TierUpdated","inputs":[{"name":"tierId","type":"uint256","indexed":true,"internalType":"uint256"},{"name":"maxPerTx","type":"uint256","indexed":false,"internalType":"uint256"},{"name":"maxPerDay","type":"uint256","indexed":false,"internalType":"uint256"}],"anonymous":false},{"type":"event","name":"Upgraded","inputs":[{"name":"implementation","type":"address","indexed":true,"internalType":"address"}],"anonymous":false},{"type":"event","name":"Withdrawn","inputs":[{"name":"to","type":"address","indexed":true,"internalType":"address"},{"name":"amount","type":"uint256","indexed":false,"internalType":"uint256"}],"anonymous":false},{"type":"error","name":"AddressEmptyCode","inputs":[{"name":"target","type":"address","internalType":"address"}]},{"type":"error","name":"ArrayLengthMismatch","inputs":[]},{"type":"error","name":"BatchTooLarge","inputs":[]},{"type":"error","name":"ERC1967InvalidImplementation","inputs":[{"name":"implementation","type":"address","internalType":"address"}]},{"type":"error","name":"ERC1967NonPayable","inputs":[]},{"type":"error","name":"EmptyArray","inputs":[]},{"type":"error","name":"ExceedsDailyLimit","inputs":[{"name":"requested","type":"uint256","internalType":"uint256"},{"name":"remaining","type":"uint256","internalType":"uint256"}]},{"type":"error","name":"ExceedsMonthlyLimit","inputs":[{"name":"requested","type":"uint256","internalType":"uint256"},{"name":"remaining","type":"uint256","internalType":"uint256"}]},{"type":"error","name":"ExceedsTransactionLimit","inputs":[{"name":"requested","type":"uint256","internalType":"uint256"},{"name":"max","type":"uint256","internalType":"uint256"}]},{"type":"error","name":"FailedInnerCall","inputs":[]},{"type":"error","name":"InsufficientBalance","inputs":[]},{"type":"error","name":"InvalidAddress","inputs":[]},{"type":"error","name":"InvalidInitialization","inputs":[]},{"type":"error","name":"InvalidTier","inputs":[]},{"type":"error","name":"InvalidTierLimits","inputs":[]},{"type":"error","name":"NotInitializing","inputs":[]},{"type":"error","name":"NotOperator","inputs":[]},{"type":"error","name":"NotSponsored","inputs":[]},{"type":"error","name":"OwnableInvalidOwner","inputs":[{"name":"owner","type":"address","internalType":"address"}]},{"type":"error","name":"OwnableUnauthorizedAccount","inputs":[{"name":"account","type":"address","internalType":"address"}]},{"type":"error","name":"ReentrancyGuardReentrantCall","inputs":[]},{"type":"error","name":"TierNotActive","inputs":[]},{"type":"error","name":"UUPSUnauthorizedCallContext","inputs":[]},{"type":"error","name":"UUPSUnsupportedProxiableUUID","inputs":[{"name":"slot","type":"bytes32","internalType":"bytes32"}]}],"bytecode":{"object":"0x60a08060405234620000d157306080527ff0c57e16840df040f15088dc2f81fe391c3923bec73e23a9662efc9c229c6a009081549060ff8260401c16620000c257506001600160401b036002600160401b0319828216016200007c575b6040516136ad9081620000d68239608051818181611dc10152611e670152f35b6001600160401b031990911681179091556040519081527fc7f505b2f371ae2175ee4913f4499e1f2633a7b5936321eed1cdaeb6115181d290602090a15f80806200005c565b63f92ee8a960e01b8152600490fd5b5f80fdfe60806040526004361015610046575b3615610018575f80fd5b6040513481527f2da466a7b24304f47e87fa2e1e5a81b9831ce54fec19055ce277ca2f39ba42c460203392a2005b5f3560e01c80630204747714612b5b578063039af9eb14612ae75780630594fd0414612aca5780630803b2ae1461293c57806313e7c9d8146128ff5780631b583f90146128d45780632e1a7d4d1461280e57806330462e8d1461274957806341b3d1851461272c578063485cc955146120665780634e6cdee414611ff55780634f1ef28614611e1857806352d1902d14611daf578063558a729714611d3157806361d027b314611d095780636471af8314611b5a5780636f003ea5146118f0578063715018a6146118895780637b03ed4014611845578063819a701c146117db5780638422abc01461175c5780638770f1da146115f95780638da5cb5b146115c55780638fcc9cfb14611579578063aa62b0a414611485578063ad3cb1cc14611440578063aef8356c146113ae578063b130d941146112da578063b69ef8a8146112bf578063ba90ac07146111c9578063c03bc09c14611049578063cfdbf2541461102e578063d0e30db014610faf578063d133281d14610f73578063e0f6dfca14610f56578063e77b33cb14610e05578063eeda3ef714610d87578063f0f4426014610d41578063f19ed7f61461068e578063f2fde38b14610663578063f6f95ae2146103775763ffcbc64a0361000e5734610373576040366003190112610373576004356001600160401b03811161037357610248903690600401612dff565b906024356102546134bf565b8215610361576064831161034f5760019182548210801590610336575b610324575f5b84811061028057005b6001600160a01b03908161029d610298838987613363565b613387565b161561031257816102db926102b6610298848a88613363565b165f526020906002825260405f2090868860ff8454166102e0575b5050505050612f9c565b610277565b5f805160206136188339815191529301556102ff610298858b89613363565b1691604051878152a25f808086886102d1565b60405163e6c4247b60e01b8152600490fd5b60405163e142361760e01b8152600490fd5b50815f525f60205260ff600460405f2001541615610271565b6040516305beb17160e11b8152600490fd5b60405163521299a960e01b8152600490fd5b5f80fd5b34610373576080366003190112610373576004356001600160401b0381116103735736602382011215610373576001600160401b0381600401351161037357366024826004013583010111610373576064356103d16134bf565b604435602435118015610658575b61064657600154906103f082612f9c565b6001556040519061040082612cc1565b61041236856004013560248701612eb2565b825260243560208301526044356040830152606082015260016080820152815f525f60205260405f209080518051906001600160401b038211610632576104598454612c6e565b601f81116105ed575b5091849391602096938790601f8311600114610556576104f693837f0655289c4d9d7c45c2b83b18a45e3ce05f40710e413db2117ee045e2ab12cab29796946004946080945f9261054b575b50508160011b915f199060031b1c19161784555b89810151600185015560408101516002850155606081015160038501550151151591019060ff801983541691151516179055565b608060405180926060825280600401356060830152806004013560248201848401375f83826004013584010152602435888301526044356040830152601f8019916004013501168101030190a2604051908152f35b015190508c806104ae565b959493929190835f52885f20965f5b601f19841681106105d35750926001837f0655289c4d9d7c45c2b83b18a45e3ce05f40710e413db2117ee045e2ab12cab298996080946104f69897600497601f198116106105bb575b505050811b0184556104c2565b01515f1960f88460031b161c191690558c80806105ae565b828201518955600190980197899750918a01918a01610565565b845f5260205f20601f840160051c81019160208510610628575b601f0160051c01905b81811061061d5750610462565b5f8155600101610610565b9091508190610607565b634e487b7160e01b5f52604160045260245ffd5b604051630d77019560e41b8152600490fd5b5080604435116103df565b346103735760203660031901126103735761068c61067f612c58565b6106876134bf565b61344e565b005b34610373576060366003190112610373576001600160401b03600435818111610373576106bf903690600401612dff565b602435838111610373576106d7903690600401612dff565b93604435908111610373576106f0903690600401612dff565b9390335f52600660205260ff60405f2054161580610d20575b610d0e57610715613525565b5f945f96851561036157808614801590610d04575b610cf2576064861161034f57939291905f945b86861061079a576040888a7f0dddffe575b4f16a5066eb5224448852a8a5efa535a9666ff40ce166f593061460608b85519081528460208201528386820152a160015f805160206136388339815191525582519182526020820152f35b90919293949660018060a01b036107b56102988a8a89613363565b1615610c94576001600160a01b036107d16102988a8a89613363565b165f52600260205260405f2060ff81541615610c38576001808201545f525f60205260405f209060ff60048301541615610bd6576108108b868b613363565b359082015410610b7457610823826132ce565b61083d60028301546108368c878c613363565b3590612fbe565b600282015410610b0f57610850826132f7565b600382015490600361086d6108668d888d613363565b3584612fbe565b91015410610aa857476108818b868b613363565b3511610a68575f80808a6109128e898f6102988f61090c9285918d60066108ea8c9f868a8e6108d66108e0946108c66108bb868686613363565b3560028b0154612fbe565b60028a0155610836858585613363565b6003880155613363565b3582840154612fbe565b9101556109046108fb84888c613363565b35600354612fbe565b600355613363565b93613363565b35905af161091e6131be565b50156109b05750610933610298898988613363565b9061093f898489613363565b359061094c8a8688613363565b35916007831015610373577f3c5e8d9be1c0fff5d7bacdfcf3543f199abb043157416d665da09cc0b209573a6109a0936109a69561099860405192839260018060a01b03169583613217565b0390a2612f9c565b97612f9c565b949392919061073d565b8899610a62916006610a13610a098d6109fd6109a6989f808f806109e86109dd8f9395846109f297613363565b3560028c01546131b1565b60028b0155613363565b3560038701546131b1565b6003860155888d613363565b35828401546131b1565b910155610a2d610a248c868b613363565b356003546131b1565b6003556001600160a01b03610a466102988d8c8b613363565b165f805160206135b883398151915260405180610998816131ed565b98612f9c565b5097989097506109a690610a62906001600160a01b03610a8c6102988d8c8b613363565b165f805160206135b88339815191526040518061099881613244565b5097989097506109a690610a62906001600160a01b03610acc6102988d8c8b613363565b165f805160206135b88339815191526060604051602081526015602082015274115e18d959591cc81b5bdb9d1a1b1e481b1a5b5a5d605a1b6040820152a2612f9c565b5097989097506109a690610a62906001600160a01b03610b336102988d8c8b613363565b165f805160206135b88339815191526060604051602081526013602082015272115e18d959591cc819185a5b1e481b1a5b5a5d606a1b6040820152a2612f9c565b5097989097506109a690610a62906001600160a01b03610b986102988d8c8b613363565b165f805160206135b8833981519152606060405160208152601060208201526f115e18d959591cc81d1e081b1a5b5a5d60821b6040820152a2612f9c565b5098999198506109a691610a6291506001600160a01b03610bfb6102988d8c8b613363565b165f805160206135b8833981519152606060405160208152600f60208201526e54696572206e6f742061637469766560881b6040820152a2612f9c565b5096976109a690610a62906001600160a01b03610c596102988d8c8b613363565b165f805160206135b8833981519152606060405160208152600d60208201526c139bdd081cdc1bdb9cdbdc9959609a1b6040820152a2612f9c565b96976109a690610a62906001600160a01b03610cb46102988d8c8b613363565b165f805160206135b8833981519152606060405160208152601060208201526f125b9d985b1a59081b595c98da185b9d60821b6040820152a2612f9c565b60405163512509d360e11b8152600490fd5b508181141561072a565b604051631f0853c160e21b8152600490fd5b505f805160206135d8833981519152546001600160a01b0316331415610709565b3461037357602036600319011261037357610d5a612c58565b610d626134bf565b6001600160a01b0316801561031257600480546001600160a01b031916919091179055005b34610373576020366003190112610373576001600160a01b03610da8612c58565b165f52600260205260e060405f2060ff815416906001810154906002810154600382015460048301549160066005850154940154946040519615158752602087015260408601526060850152608084015260a083015260c0820152f35b3461037357610e1336612f52565b92335f52600660209181835260ff60405f2054161580610f35575b610d0e57841561036157858503610cf2576064851161034f575f5b858110610e5257005b6001600160a01b039081610e6a610298838a87613363565b161561031257610efa91610e82610298838a87613363565b165f52600280865260405f2090610e9a838b8a613363565b90820180549135918211610f2d57610eb38282546131b1565b90555b8560039283810180548411155f14610f2557610ed38482546131b1565b90555b0180548281811115610f12575b50505081549081811115610eff575b505050612f9c565b610e49565b610f08916131b1565b9055888080610ef2565b610f1b916131b1565b90558a8082610ee3565b5f9055610ed6565b5f9055610eb6565b505f805160206135d8833981519152546001600160a01b0316331415610e2e565b34610373575f366003190112610373576020600354604051908152f35b34610373575f3660031901126103735760804760035460015460018060a01b036004541691604051938452602084015260408301526060820152f35b5f366003190112610373576005543410610ff1576040513481527f2da466a7b24304f47e87fa2e1e5a81b9831ce54fec19055ce277ca2f39ba42c460203392a2005b60405162461bcd60e51b815260206004820152601560248201527410995b1bddc81b5a5b9a5b5d5b4819195c1bdcda5d605a1b6044820152606490fd5b34610373575f36600319011261037357602060405160648152f35b346103735761105736612f52565b9092916110626134bf565b801561036157818103610cf2576064811161034f575f5b81811061108257005b6001600160a01b03908161109a610298838689613363565b1615610312576110ab818588613363565b35916001928354118015906111a5575b610324575f805160206136188339815191526111a093836006896110e0838b8e613363565b35896040519485926110f184612ca6565b87845260209788850191825260408501905f82528b61113061029860608901965f885260808a0198428a5260c060a08c019b428d52019b5f8d52613363565b165f52600292838b5261115660405f209a5115158b9060ff801983541691151516179055565b519089015551908701555160038601555160048501555160058401555191015561118461029885888b613363565b9261119085898c613363565b35936040519485521692a2612f9c565b611079565b506111b1828689613363565b355f525f60205260ff600460405f20015416156110bb565b3461037357602080600319360112610373576004356001600160401b038111610373576111fa903690600401612dff565b9190611205836133b2565b925f5b81811061122a57505050611226604051928284938452830190612e64565b0390f35b611238610298828486613363565b6040516301b583f960e41b81526001600160a01b039091166004820152908482602481305afa80156112b4575f90611285575b611280925061127a82886133e4565b52612f9c565b611208565b508482813d83116112ad575b61129b8183612cf7565b8101031261037357611280915161126b565b503d611291565b6040513d5f823e3d90fd5b34610373575f36600319011261037357602047604051908152f35b3461037357602080600319360112610373576004356001600160401b0381116103735761130b903690600401612dff565b906113146134bf565b8115610361576064821161034f575f5b82811061132d57005b6001600160a01b039081611345610298838787613363565b161561031257816113a99261135e610298848888613363565b165f526002865260405f2060ff19815416905561137f610298838787613363565b167f1bc5b06af60efc2e1bf6905dcc4fa4bb9153c3a9b61a0aa9568c573cbe01076b5f80a2612f9c565b611324565b34610373576080366003190112610373576004356044356064356024356113d36134bf565b600154841015610324578281118015611437575b610646577f2702951ec468d8fb7c1501e01af87b4bd50cda65a20463fc38ee59b954a777b092604092855f525f6020526003845f20846001820155836002820155015582519182526020820152a2005b508183116113e7565b34610373575f3660031901126103735761122660405161145f81612cdc565b60058152640352e302e360dc1b6020820152604051918291602083526020830190612dda565b346103735760403660031901126103735761149e612c58565b60243590335f52600660205260ff60405f2054161580611558575b610d0e5760018060a01b03165f526002602052600660405f206002810180548411155f14611550576114ec8482546131b1565b90555b6003810180548411611548576115068482546131b1565b90555b0180548281811115611535575b505050600354908181111561152757005b611530916131b1565b600355005b61153e916131b1565b9055818082611516565b5f9055611509565b5f90556114ef565b505f805160206135d8833981519152546001600160a01b03163314156114b9565b34610373576020366003190112610373577f96a008f96f1c0ab9fa3d9ddd43cdfc614848c4d054d51f43662ed900e9d094c860206004356115b86134bf565b80600555604051908152a1005b34610373575f366003190112610373575f805160206135d8833981519152546040516001600160a01b039091168152602090f35b346103735761160736612f52565b919290828403610cf25761161a846133b2565b92611624856133f8565b945f5b8181106116585761164a8661122689604051938493604085526040850190612e2f565b908382036020850152612ef7565b611666610298828488613363565b90611672818587613363565b6040516301ec0fb560e61b81526001600160a01b0390931660048401523560248301525f82604481305afa80156112b4575f905f906116d5575b6116d093506116bb838b6133e4565b526116c682896133e4565b9015159052612f9c565b611627565b50503d805f843e6116e68184612cf7565b8201604083820312610373576116fb83613441565b60209384810151906001600160401b03821161037357019382601f8601121561037357845161172981612e97565b936117376040519586612cf7565b818552828288010111610373576116d095826117569386019101612db9565b906116ac565b3461037357604036600319011261037357600435611778612ee8565b6117806134bf565b6001548210156103245760207f2df1b71ce90a262ee59e0664d1738fc1066db1518d04b64cda13d23eccc8d21491835f525f82526117d081600460405f20019060ff801983541691151516179055565b6040519015158152a2005b34610373576020366003190112610373576117f4612c58565b6117fc6134bf565b6001600160a01b0316801561031257805f52600260205260405f2060ff1981541690557f1bc5b06af60efc2e1bf6905dcc4fa4bb9153c3a9b61a0aa9568c573cbe01076b5f80a2005b346103735760403660031901126103735761186a611861612c58565b60243590612fcb565b9061122660405192839215158352604060208401526040830190612dda565b34610373575f366003190112610373576118a16134bf565b5f805160206135d883398151915280546001600160a01b031981169091555f906001600160a01b03167f8be0079c531659141344cd1fd0a4f28419497f9722a3daafe3b4186f6b6457e08280a3005b3461037357606036600319011261037357611909612c58565b602435604435600781101561037357335f52600660205260ff60405f2054161580611b39575b610d0e5761193b613525565b6001600160a01b0383165f818152600260205260409020805491949160ff1615611b275760018101545f525f60205260405f209060ff60048301541615611b15576001820154808611611af75750611992816132ce565b600281019182546119a38782612fbe565b6002830154809111611ad05750506119ba826132f7565b600382019081549060036119ce8984612fbe565b910154809111611aa95750864710611a97575f946006869594869594611a048b8096886119fd838c9b54612fbe565b9055612fbe565b905501611a12838254612fbe565b9055611a2082600354612fbe565b6003555af1611a2d6131be565b5015611a7a577f3c5e8d9be1c0fff5d7bacdfcf3543f199abb043157416d665da09cc0b209573a91611a6460405192839283613217565b0390a260015f8051602061363883398151915255005b60405162461bcd60e51b815280611a93600482016131ed565b0390fd5b604051631e9acf1760e31b8152600490fd5b611ab660449289926131b1565b604051916379f16a8560e11b835260048301526024820152fd5b611add60449289926131b1565b6040519163239d191360e11b835260048301526024820152fd5b8560449160405191636ff82ea360e01b835260048301526024820152fd5b604051632015bd1360e11b8152600490fd5b60405163a3624f6560e01b8152600490fd5b505f805160206135d8833981519152546001600160a01b031633141561192f565b34610373575f366003190112610373575f8060018054925b838110611ccf5750611b83826133b2565b91611b8d816133f8565b93611b97826133b2565b90611baa611ba4846133b2565b936133b2565b935f805b838110611c1657611bde8861122689611c088a611bfa8f611bec8d91604051998a9960a08b5260a08b0190612e64565b9089820360208b0152612ef7565b908782036040890152612e64565b908582036060870152612e64565b908382036080850152612e64565b805f5260205f8152898960ff600460405f20015416611c41575b505050611c3c90612f9c565b611bae565b611cc692611c7e86809487611c5b611c3c999a5f976133e4565b52888552848452611c6e60408620612d18565b611c7883836133e4565b526133e4565b5085825281815286604083200154611c96848b6133e4565b528582528181526002604083200154611caf848c6133e4565b5285825252600360405f20015461127a828b6133e4565b91908989611c30565b805f525f60205260ff600460405f20015416611cf4575b611cef90612f9c565b611b72565b91611d01611cef91612f9c565b929050611ce6565b34610373575f366003190112610373576004546040516001600160a01b039091168152602090f35b3461037357604036600319011261037357611d4a612c58565b611d52612ee8565b90611d5b6134bf565b6001600160a01b03169081156103125760207f966c160e1c4dbc7df8d69af4ace01e9297c3cf016397b7914971f2fbfa32672d91835f52600682526117d08160405f209060ff801983541691151516179055565b34610373575f366003190112610373577f00000000000000000000000000000000000000000000000000000000000000006001600160a01b03163003611e065760206040515f805160206135f88339815191528152f35b60405163703e46dd60e11b8152600490fd5b604036600319011261037357611e2c612c58565b6024356001600160401b038111610373573660238201121561037357611e5c903690602481600401359101612eb2565b906001600160a01b037f00000000000000000000000000000000000000000000000000000000000000008116308114908115611fda575b50611e0657611ea06134bf565b8116906040516352d1902d60e01b8152602081600481865afa5f9181611fa7575b50611edf57604051634c9c8ce360e01b815260048101849052602490fd5b5f805160206135f883398151915292919290818103611f8f5750823b15611f765780546001600160a01b03191682179055604051907fbc7cd75a20ee27fd9adebab32041f755214dbc6bffa90cc0225b39da2e5c2d3b5f80a2825115611f5d57505f8083602061068c95519101845af4611f576131be565b91613554565b91505034611f6757005b63b398979f60e01b8152600490fd5b604051634c9c8ce360e01b815260048101839052602490fd5b60249060405190632a87526960e21b82526004820152fd5b9091506020813d8211611fd2575b81611fc260209383612cf7565b8101031261037357519085611ec1565b3d9150611fb5565b9050815f805160206135f88339815191525416141584611e93565b34610373576020366003190112610373576001600160a01b03612016612c58565b165f52600260205260a060405f2060ff8154169060018101549061203981613320565b600661204483613344565b9201549260405194151585526020850152604084015260608301526080820152f35b346103735760403660031901126103735761207f612c58565b6001600160a01b03906024358281169190829003610373575f8051602061365883398151915254926001600160401b0384168015908161271c575b6001149081612712575b159081612709575b506126f75760016001600160401b03198516175f805160206136588339815191525560ff8460401c16156126cb575b81161580156126c3575b6103125761211d906121156134f7565b6106876134f7565b6121256134f7565b61212d6134f7565b60015f80516020613638833981519152556121466134f7565b600480546001600160a01b031916919091179055662386f26fc100006005556040519061217282612cc1565b60405161217e81612cdc565b600781526629ba30b93a32b960c91b6020820152825266038d7ea4c680006020830152662386f26fc10000604083015267016345785d8a00006060830152600160808301525f80525f60205260405f2082519283516001600160401b038111610632576121eb8354612c6e565b601f8111612682575b506020601f821160011461262d57918160809260049461225f97985f92612574575b50508160011b915f199060031b1c19161784555b6020810151600185015560408101516002850155606081015160038501550151151591019060ff801983541691151516179055565b6040519061226c82612cc1565b60405161227881612cdc565b600681526508ee4deeee8d60d31b602082015282526611c37937e08000602083015266b1a2bc2ec5000060408301526706f05b59d3b2000060608301526001608083015260015f525f60205260405f2082519283516001600160401b038111610632576122e58354612c6e565b601f81116125ec575b506020601f821160011461257f57918160809260049461235797985f926125745750508160011b915f199060031b1c19161784556020810151600185015560408101516002850155606081015160038501550151151591019060ff801983541691151516179055565b6040519061236482612cc1565b60405161237081612cdc565b600a815269456e746572707269736560b01b60208201528252662386f26fc10000602083015267016345785d8a00006040830152670de0b6b3a764000060608301526001608083015260025f525f60205260405f2082519283516001600160401b038111610632576123e28354612c6e565b601f8111612533575b506020601f82116001146124c35761245693928260049360809360ff995f926124b85750508160011b915f199060031b1c19161784556020810151600185015560408101516002850155606081015160038501550151151591019060ff801983541691151516179055565b600360015560401c161561246657005b60ff60401b195f8051602061365883398151915254165f80516020613658833981519152557fc7f505b2f371ae2175ee4913f4499e1f2633a7b5936321eed1cdaeb6115181d2602060405160018152a1005b015190508980612216565b835f5260205f20955f5b601f198416811061251b57509260018360ff986080946124569897600497601f19811610612503575b505050811b01845561222a565b01515f1960f88460031b161c191690558980806124f6565b828201518855600190970196602092830192016124cd565b835f5260205f20601f830160051c81016020841061256d575b601f830160051c820181106125625750506123eb565b5f815560010161254c565b508061254c565b015190508880612216565b835f5260205f20955f5b601f19841681106125d4575082612357969760049593600193608096601f198116106125bc57505050811b01845561222a565b01515f1960f88460031b161c191690558880806124f6565b82820151885560019097019660209283019201612589565b835f5260205f20601f830160051c810160208410612626575b601f830160051c8201811061261b5750506122ee565b5f8155600101612605565b5080612605565b835f5260205f20955f5b601f198416811061266a57508261225f969760049593600193608096601f198116106125bc57505050811b01845561222a565b82820151885560019097019660209283019201612637565b835f5260205f20601f830160051c8101602084106126bc575b601f830160051c820181106126b15750506121f4565b5f815560010161269b565b508061269b565b508115612105565b68ffffffffffffffffff19841668010000000000000001175f80516020613658833981519152556120fb565b60405163f92ee8a960e01b8152600490fd5b905015856120cc565b303b1591506120c4565b604086901c60ff161591506120ba565b34610373575f366003190112610373576020600554604051908152f35b3461037357602080600319360112610373576004356001600160401b0381116103735761277a903690600401612dff565b90612784826133b2565b9161278e816133b2565b915f5b8281106127c2576127b5856112268887604051948594604086526040860190612e2f565b9184830390850152612e64565b612809906001600160a01b036127dc610298838787613363565b165f5260028752600160405f2060ff8154166127f8848a6133e4565b9015159052015461127a82876133e4565b612791565b346103735760203660031901126103735760043561282a6134bf565b8047106128bb5760018060a01b035f8080808585600454165af161284c6131be565b50156128845760207f7084f5476618d8e60b11ef0d7d3f06914655adb8793e28ff7f018d4c76d505d5916004541692604051908152a2005b60405162461bcd60e51b815260206004820152600f60248201526e15da5d1a191c985dc819985a5b1959608a1b6044820152606490fd5b60405162461bcd60e51b815280611a9360048201613244565b346103735760203660031901126103735760206128f76128f2612c58565b613273565b604051908152f35b34610373576020366003190112610373576001600160a01b03612920612c58565b165f526006602052602060ff60405f2054166040519015158152f35b3461037357602080600319360112610373576004356001600160401b0381116103735761296d903690600401612dff565b612979819392936133b2565b91612983826133b2565b9061298d836133b2565b91612997846133b2565b956129a1856133b2565b945f5b8181106129e1576129d48861122689611c088d611bfa8c611bec8d8d6040519a8b9a60a08c5260a08c0190612e2f565b918a8303908b0152612e64565b6129ef610298828486613363565b60405163139b37b960e21b81526001600160a01b0390911660048201529060a08083602481305afa80156112b4578b935f925f928c5f935f935f93612a6a575b5050612a6597612a4492611c788980946133e4565b52612a4f848b6133e4565b52612a5a83886133e4565b526116c6828b6133e4565b6129a4565b96509750505050505082813d8311612ac3575b612a878183612cf7565b8101031261037357898883612a9e612a6595613441565b818a015160408301516060840151608090940151959750919490939192918787612a2f565b503d612a7d565b34610373575f366003190112610373576020600154604051908152f35b34610373576020366003190112610373576004355f525f602052612b4060405f20612b1181612d18565b9060018101549060028101549060ff60046003830154920154169160405195869560a0875260a0870190612dda565b93602086015260408501526060840152151560808301520390f35b3461037357604036600319011261037357612b74612c58565b60243590612b806134bf565b6001600160a01b0316908115610312576001548110801590612c3f575b6103245760205f8051602061361883398151915291604051612bbe81612ca6565b600181526006838201838152604083015f8152606084015f8152608085019042825260a086019242845260c08701945f86528b5f5260028a52612c1460405f2098511515899060ff801983541691151516179055565b51600188015551600287015551600386015551600485015551600584015551910155604051908152a2005b50805f525f60205260ff600460405f2001541615612b9d565b600435906001600160a01b038216820361037357565b90600182811c92168015612c9c575b6020831014612c8857565b634e487b7160e01b5f52602260045260245ffd5b91607f1691612c7d565b60e081019081106001600160401b0382111761063257604052565b60a081019081106001600160401b0382111761063257604052565b604081019081106001600160401b0382111761063257604052565b90601f801991011681019081106001600160401b0382111761063257604052565b9060405191825f825492612d2b84612c6e565b9081845260019485811690815f14612d965750600114612d56575b5050612d5492500383612cf7565b565b909391505f52602090815f20935f915b818310612d7e575050612d5493508201015f80612d46565b85548884018501529485019487945091830191612d66565b915050612d5494506020925060ff191682840152151560051b8201015f80612d46565b5f5b838110612dca5750505f910152565b8181015183820152602001612dbb565b90602091612df381518092818552858086019101612db9565b601f01601f1916010190565b9181601f84011215610373578235916001600160401b038311610373576020808501948460051b01011161037357565b9081518082526020808093019301915f5b828110612e4e575050505090565b8351151585529381019392810192600101612e40565b9081518082526020808093019301915f5b828110612e83575050505090565b835185529381019392810192600101612e75565b6001600160401b03811161063257601f01601f191660200190565b929192612ebe82612e97565b91612ecc6040519384612cf7565b829481845281830111610373578281602093845f960137010152565b60243590811515820361037357565b908082519081815260208091019281808460051b8301019501935f915b848310612f245750505050505090565b9091929394958480612f42600193601f198682030187528a51612dda565b9801930193019194939290612f14565b6040600319820112610373576001600160401b03916004358381116103735782612f7e91600401612dff565b9390939260243591821161037357612f9891600401612dff565b9091565b5f198114612faa5760010190565b634e487b7160e01b5f52601160045260245ffd5b91908201809211612faa57565b6001600160a01b03165f90815260026020908152604080832080549195949293929160ff161561318757600181015483528284528583209060ff6004830154161561315a57600182015483116131235761302d8361302883613320565b612fbe565b6002830154106130f25761304683613028600393613344565b910154106130c1574710613089576001938051928301908382106001600160401b038311176130755752815290565b634e487b7160e01b83526041600452602483fd5b7f496e73756666696369656e74207061796d61737465722062616c616e63650000909351916130b783612cdc565b601e835282015290565b5074115e18d959591cc81b5bdb9d1a1b1e481b1a5b5a5d605a1b909351916130e883612cdc565b6015835282015290565b50505072115e18d959591cc819185a5b1e481b1a5b5a5d606a1b9093519161311983612cdc565b6013835282015290565b50505078115e18d959591cc81d1c985b9cd858dd1a5bdb881b1a5b5a5d603a1b9093519161315083612cdc565b6019835282015290565b5050506e54696572206e6f742061637469766560881b9093519161317d83612cdc565b600f835282015290565b50506c139bdd081cdc1bdb9cdbdc9959609a1b909351916131a783612cdc565b600d835282015290565b91908203918211612faa57565b3d156131e8573d906131cf82612e97565b916131dd6040519384612cf7565b82523d5f602084013e565b606090565b60609060208152600f60208201526e151c985b9cd9995c8819985a5b1959608a1b60408201520190565b9081526040810192919060078210156132305760200152565b634e487b7160e01b5f52602160045260245ffd5b606090602081526014602082015273496e73756666696369656e742062616c616e636560601b60408201520190565b6001600160a01b03165f908152600260205260408120805460ff16156132ca57600181015482528160205260026132ad6040842092613320565b910154808210156132c5576132c292506131b1565b90565b505090565b5090565b6004810190620151806132e28354426131b1565b10156132ec575050565b60025f910155429055565b600581019062278d0061330b8354426131b1565b1015613315575050565b60035f910155429055565b620151806133326004830154426131b1565b101561333f576002015490565b505f90565b62278d006133566005830154426131b1565b101561333f576003015490565b91908110156133735760051b0190565b634e487b7160e01b5f52603260045260245ffd5b356001600160a01b03811681036103735790565b6001600160401b0381116106325760051b60200190565b906133bc8261339b565b6133c96040519182612cf7565b82815280926133da601f199161339b565b0190602036910137565b80518210156133735760209160051b010190565b906134028261339b565b61340f6040519182612cf7565b8281528092613420601f199161339b565b01905f5b82811061343057505050565b806060602080938501015201613424565b5190811515820361037357565b6001600160a01b039081169081156134a7575f805160206135d883398151915280546001600160a01b031981168417909155167f8be0079c531659141344cd1fd0a4f28419497f9722a3daafe3b4186f6b6457e05f80a3565b604051631e4fbdf760e01b81525f6004820152602490fd5b5f805160206135d8833981519152546001600160a01b031633036134df57565b60405163118cdaa760e01b8152336004820152602490fd5b60ff5f805160206136588339815191525460401c161561351357565b604051631afcd79f60e31b8152600490fd5b5f8051602061363883398151915260028154146135425760029055565b604051633ee5aeb560e01b8152600490fd5b9061357b575080511561356957805190602001fd5b604051630a12f52160e11b8152600490fd5b815115806135ae575b61358c575090565b604051639996b31560e01b81526001600160a01b039091166004820152602490fd5b50803b1561358456fe6e72b8e9b57f7c6e2e5b520441f8b5b30c32186bf5bf80d54191dce22c6f476f9016d09d72d40fdae2fd8ceac6b6234c7706214fd39c1cd1e609a0528c199300360894a13ba1a3210667c828492db98dca3e2076cc3735a920a3ca505d382bbc3e8fda488d3393149d5f450b2c2c3c07e1c0715419c8bb1e21b645c0d04c74759b779b17422d0df92223018b32b4d1fa46e071723d6817e2486d003becc55f00f0c57e16840df040f15088dc2f81fe391c3923bec73e23a9662efc9c229c6a00a264697066735822122023076026ab648ce7b457449eb17b7c9016d4cb1355c2659647bd024b8bf81af164736f6c63430008140033","linkReferences":{}},"methodIdentifiers":{"MAX_BATCH_SIZE()":"cfdbf254","UPGRADE_INTERFACE_VERSION()":"ad3cb1cc","balance()":"b69ef8a8","batchCanSponsor(address[],uint256[])":"8770f1da","batchExecuteSponsorship(address[],uint256[],uint8[])":"f19ed7f6","batchGetMerchantDetails(address[])":"0803b2ae","batchGetMerchantStatus(address[])":"30462e8d","batchGetRemainingDailyAllowance(address[])":"ba90ac07","batchRefundUnusedGas(address[],uint256[])":"e77b33cb","batchRevokeMerchants(address[])":"b130d941","batchSponsorMerchants(address[],uint256[])":"c03bc09c","batchUpdateMerchantTier(address[],uint256)":"ffcbc64a","canSponsor(address,uint256)":"7b03ed40","createTier(string,uint256,uint256,uint256)":"f6f95ae2","deposit()":"d0e30db0","executeSponsorship(address,uint256,uint8)":"6f003ea5","getAllTiers()":"6471af83","getMerchantDetails(address)":"4e6cdee4","getPaymasterStatus()":"d133281d","getRemainingDailyAllowance(address)":"1b583f90","initialize(address,address)":"485cc955","merchantSponsorship(address)":"eeda3ef7","minDeposit()":"41b3d185","nextTierId()":"0594fd04","operators(address)":"13e7c9d8","owner()":"8da5cb5b","proxiableUUID()":"52d1902d","refundUnusedGas(address,uint256)":"aa62b0a4","renounceOwnership()":"715018a6","revokeMerchant(address)":"819a701c","setMinDeposit(uint256)":"8fcc9cfb","setOperator(address,bool)":"558a7297","setTierActive(uint256,bool)":"8422abc0","setTreasury(address)":"f0f44260","sponsorMerchant(address,uint256)":"02047477","tiers(uint256)":"039af9eb","totalGasSponsored()":"e0f6dfca","transferOwnership(address)":"f2fde38b","treasury()":"61d027b3","updateTier(uint256,uint256,uint256,uint256)":"aef8356c","upgradeToAndCall(address,bytes)":"4f1ef286","withdraw(uint256)":"2e1a7d4d"},"id":1}