{"abi":[{"type":"function","name":"ADMIN_ROLE","inputs":[],"outputs":[{"name":"","type":"uint64","internalType":"uint64"}],"stateMutability":"view"},{"type":"function","name":"PUBLIC_ROLE","inputs":[],"outputs":[{"name":"","type":"uint64","internalType":"uint64"}],"stateMutability":"view"},{"type":"function","name":"canCall","inputs":[{"name":"caller","type":"address","internalType":"address"},{"name":"target","type":"address","internalType":"address"},{"name":"selector","type":"bytes4","internalType":"bytes4"}],"outputs":[{"name":"immediate","type":"bool","internalType":"bool"},{"name":"delay","type":"uint32","internalType":"uint32"}],"stateMutability":"view"},{"type":"function","name":"cancel","inputs":[{"name":"caller","type":"address","internalType":"address"},{"name":"target","type":"address","internalType":"address"},{"name":"data","type":"bytes","internalType":"bytes"}],"outputs":[{"name":"","type":"uint32","internalType":"uint32"}],"stateMutability":"nonpayable"},{"type":"function","name":"consumeScheduledOp","inputs":[{"name":"caller","type":"address","internalType":"address"},{"name":"data","type":"bytes","internalType":"bytes"}],"outputs":[],"stateMutability":"nonpayable"},{"type":"function","name":"execute","inputs":[{"name":"target","type":"address","internalType":"address"},{"name":"data","type":"bytes","internalType":"bytes"}],"outputs":[{"name":"","type":"uint32","internalType":"uint32"}],"stateMutability":"payable"},{"type":"function","name":"expiration","inputs":[],"outputs":[{"name":"","type":"uint32","internalType":"uint32"}],"stateMutability":"view"},{"type":"function","name":"getAccess","inputs":[{"name":"roleId","type":"uint64","internalType":"uint64"},{"name":"account","type":"address","internalType":"address"}],"outputs":[{"name":"since","type":"uint48","internalType":"uint48"},{"name":"currentDelay","type":"uint32","internalType":"uint32"},{"name":"pendingDelay","type":"uint32","internalType":"uint32"},{"name":"effect","type":"uint48","internalType":"uint48"}],"stateMutability":"view"},{"type":"function","name":"getNonce","inputs":[{"name":"id","type":"bytes32","internalType":"bytes32"}],"outputs":[{"name":"","type":"uint32","internalType":"uint32"}],"stateMutability":"view"},{"type":"function","name":"getRoleAdmin","inputs":[{"name":"roleId","type":"uint64","internalType":"uint64"}],"outputs":[{"name":"","type":"uint64","internalType":"uint64"}],"stateMutability":"view"},{"type":"function","name":"getRoleGrantDelay","inputs":[{"name":"roleId","type":"uint64","internalType":"uint64"}],"outputs":[{"name":"","type":"uint32","internalType":"uint32"}],"stateMutability":"view"},{"type":"function","name":"getRoleGuardian","inputs":[{"name":"roleId","type":"uint64","internalType":"uint64"}],"outputs":[{"name":"","type":"uint64","internalType":"uint64"}],"stateMutability":"view"},{"type":"function","name":"getSchedule","inputs":[{"name":"id","type":"bytes32","internalType":"bytes32"}],"outputs":[{"name":"","type":"uint48","internalType":"uint48"}],"stateMutability":"view"},{"type":"function","name":"getTargetAdminDelay","inputs":[{"name":"target","type":"address","internalType":"address"}],"outputs":[{"name":"","type":"uint32","internalType":"uint32"}],"stateMutability":"view"},{"type":"function","name":"getTargetFunctionRole","inputs":[{"name":"target","type":"address","internalType":"address"},{"name":"selector","type":"bytes4","internalType":"bytes4"}],"outputs":[{"name":"","type":"uint64","internalType":"uint64"}],"stateMutability":"view"},{"type":"function","name":"grantRole","inputs":[{"name":"roleId","type":"uint64","internalType":"uint64"},{"name":"account","type":"address","internalType":"address"},{"name":"executionDelay","type":"uint32","internalType":"uint32"}],"outputs":[],"stateMutability":"nonpayable"},{"type":"function","name":"hasRole","inputs":[{"name":"roleId","type":"uint64","internalType":"uint64"},{"name":"account","type":"address","internalType":"address"}],"outputs":[{"name":"isMember","type":"bool","internalType":"bool"},{"name":"executionDelay","type":"uint32","internalType":"uint32"}],"stateMutability":"view"},{"type":"function","name":"hashOperation","inputs":[{"name":"caller","type":"address","internalType":"address"},{"name":"target","type":"address","internalType":"address"},{"name":"data","type":"bytes","internalType":"bytes"}],"outputs":[{"name":"","type":"bytes32","internalType":"bytes32"}],"stateMutability":"view"},{"type":"function","name":"isTargetClosed","inputs":[{"name":"target","type":"address","internalType":"address"}],"outputs":[{"name":"","type":"bool","internalType":"bool"}],"stateMutability":"view"},{"type":"function","name":"labelRole","inputs":[{"name":"roleId","type":"uint64","internalType":"uint64"},{"name":"label","type":"string","internalType":"string"}],"outputs":[],"stateMutability":"nonpayable"},{"type":"function","name":"minSetback","inputs":[],"outputs":[{"name":"","type":"uint32","internalType":"uint32"}],"stateMutability":"view"},{"type":"function","name":"multicall","inputs":[{"name":"data","type":"bytes[]","internalType":"bytes[]"}],"outputs":[{"name":"results","type":"bytes[]","internalType":"bytes[]"}],"stateMutability":"nonpayable"},{"type":"function","name":"renounceRole","inputs":[{"name":"roleId","type":"uint64","internalType":"uint64"},{"name":"callerConfirmation","type":"address","internalType":"address"}],"outputs":[],"stateMutability":"nonpayable"},{"type":"function","name":"revokeRole","inputs":[{"name":"roleId","type":"uint64","internalType":"uint64"},{"name":"account","type":"address","internalType":"address"}],"outputs":[],"stateMutability":"nonpayable"},{"type":"function","name":"schedule","inputs":[{"name":"target","type":"address","internalType":"address"},{"name":"data","type":"bytes","internalType":"bytes"},{"name":"when","type":"uint48","internalType":"uint48"}],"outputs":[{"name":"operationId","type":"bytes32","internalType":"bytes32"},{"name":"nonce","type":"uint32","internalType":"uint32"}],"stateMutability":"nonpayable"},{"type":"function","name":"setGrantDelay","inputs":[{"name":"roleId","type":"uint64","internalType":"uint64"},{"name":"newDelay","type":"uint32","internalType":"uint32"}],"outputs":[],"stateMutability":"nonpayable"},{"type":"function","name":"setRoleAdmin","inputs":[{"name":"roleId","type":"uint64","internalType":"uint64"},{"name":"admin","type":"uint64","internalType":"uint64"}],"outputs":[],"stateMutability":"nonpayable"},{"type":"function","name":"setRoleGuardian","inputs":[{"name":"roleId","type":"uint64","internalType":"uint64"},{"name":"guardian","type":"uint64","internalType":"uint64"}],"outputs":[],"stateMutability":"nonpayable"},{"type":"function","name":"setTargetAdminDelay","inputs":[{"name":"target","type":"address","internalType":"address"},{"name":"newDelay","type":"uint32","internalType":"uint32"}],"outputs":[],"stateMutability":"nonpayable"},{"type":"function","name":"setTargetClosed","inputs":[{"name":"target","type":"address","internalType":"address"},{"name":"closed","type":"bool","internalType":"bool"}],"outputs":[],"stateMutability":"nonpayable"},{"type":"function","name":"setTargetFunctionRole","inputs":[{"name":"target","type":"address","internalType":"address"},{"name":"selectors","type":"bytes4[]","internalType":"bytes4[]"},{"name":"roleId","type":"uint64","internalType":"uint64"}],"outputs":[],"stateMutability":"nonpayable"},{"type":"function","name":"updateAuthority","inputs":[{"name":"target","type":"address","internalType":"address"},{"name":"newAuthority","type":"address","internalType":"address"}],"outputs":[],"stateMutability":"nonpayable"},{"type":"event","name":"Initialized","inputs":[{"name":"version","type":"uint64","indexed":false,"internalType":"uint64"}],"anonymous":false},{"type":"event","name":"OperationCanceled","inputs":[{"name":"operationId","type":"bytes32","indexed":true,"internalType":"bytes32"},{"name":"nonce","type":"uint32","indexed":true,"internalType":"uint32"}],"anonymous":false},{"type":"event","name":"OperationExecuted","inputs":[{"name":"operationId","type":"bytes32","indexed":true,"internalType":"bytes32"},{"name":"nonce","type":"uint32","indexed":true,"internalType":"uint32"}],"anonymous":false},{"type":"event","name":"OperationScheduled","inputs":[{"name":"operationId","type":"bytes32","indexed":true,"internalType":"bytes32"},{"name":"nonce","type":"uint32","indexed":true,"internalType":"uint32"},{"name":"schedule","type":"uint48","indexed":false,"internalType":"uint48"},{"name":"caller","type":"address","indexed":false,"internalType":"address"},{"name":"target","type":"address","indexed":false,"internalType":"address"},{"name":"data","type":"bytes","indexed":false,"internalType":"bytes"}],"anonymous":false},{"type":"event","name":"RoleAdminChanged","inputs":[{"name":"roleId","type":"uint64","indexed":true,"internalType":"uint64"},{"name":"admin","type":"uint64","indexed":true,"internalType":"uint64"}],"anonymous":false},{"type":"event","name":"RoleGrantDelayChanged","inputs":[{"name":"roleId","type":"uint64","indexed":true,"internalType":"uint64"},{"name":"delay","type":"uint32","indexed":false,"internalType":"uint32"},{"name":"since","type":"uint48","indexed":false,"internalType":"uint48"}],"anonymous":false},{"type":"event","name":"RoleGranted","inputs":[{"name":"roleId","type":"uint64","indexed":true,"internalType":"uint64"},{"name":"account","type":"address","indexed":true,"internalType":"address"},{"name":"delay","type":"uint32","indexed":false,"internalType":"uint32"},{"name":"since","type":"uint48","indexed":false,"internalType":"uint48"},{"name":"newMember","type":"bool","indexed":false,"internalType":"bool"}],"anonymous":false},{"type":"event","name":"RoleGuardianChanged","inputs":[{"name":"roleId","type":"uint64","indexed":true,"internalType":"uint64"},{"name":"guardian","type":"uint64","indexed":true,"internalType":"uint64"}],"anonymous":false},{"type":"event","name":"RoleLabel","inputs":[{"name":"roleId","type":"uint64","indexed":true,"internalType":"uint64"},{"name":"label","type":"string","indexed":false,"internalType":"string"}],"anonymous":false},{"type":"event","name":"RoleRevoked","inputs":[{"name":"roleId","type":"uint64","indexed":true,"internalType":"uint64"},{"name":"account","type":"address","indexed":true,"internalType":"address"}],"anonymous":false},{"type":"event","name":"TargetAdminDelayUpdated","inputs":[{"name":"target","type":"address","indexed":true,"internalType":"address"},{"name":"delay","type":"uint32","indexed":false,"internalType":"uint32"},{"name":"since","type":"uint48","indexed":false,"internalType":"uint48"}],"anonymous":false},{"type":"event","name":"TargetClosed","inputs":[{"name":"target","type":"address","indexed":true,"internalType":"address"},{"name":"closed","type":"bool","indexed":false,"internalType":"bool"}],"anonymous":false},{"type":"event","name":"TargetFunctionRoleUpdated","inputs":[{"name":"target","type":"address","indexed":true,"internalType":"address"},{"name":"selector","type":"bytes4","indexed":false,"internalType":"bytes4"},{"name":"roleId","type":"uint64","indexed":true,"internalType":"uint64"}],"anonymous":false},{"type":"error","name":"AccessManagerAlreadyScheduled","inputs":[{"name":"operationId","type":"bytes32","internalType":"bytes32"}]},{"type":"error","name":"AccessManagerBadConfirmation","inputs":[]},{"type":"error","name":"AccessManagerExpired","inputs":[{"name":"operationId","type":"bytes32","internalType":"bytes32"}]},{"type":"error","name":"AccessManagerInvalidInitialAdmin","inputs":[{"name":"initialAdmin","type":"address","internalType":"address"}]},{"type":"error","name":"AccessManagerLockedAccount","inputs":[{"name":"account","type":"address","internalType":"address"}]},{"type":"error","name":"AccessManagerLockedRole","inputs":[{"name":"roleId","type":"uint64","internalType":"uint64"}]},{"type":"error","name":"AccessManagerNotReady","inputs":[{"name":"operationId","type":"bytes32","internalType":"bytes32"}]},{"type":"error","name":"AccessManagerNotScheduled","inputs":[{"name":"operationId","type":"bytes32","internalType":"bytes32"}]},{"type":"error","name":"AccessManagerUnauthorizedAccount","inputs":[{"name":"msgsender","type":"address","internalType":"address"},{"name":"roleId","type":"uint64","internalType":"uint64"}]},{"type":"error","name":"AccessManagerUnauthorizedCall","inputs":[{"name":"caller","type":"address","internalType":"address"},{"name":"target","type":"address","internalType":"address"},{"name":"selector","type":"bytes4","internalType":"bytes4"}]},{"type":"error","name":"AccessManagerUnauthorizedCancel","inputs":[{"name":"msgsender","type":"address","internalType":"address"},{"name":"caller","type":"address","internalType":"address"},{"name":"target","type":"address","internalType":"address"},{"name":"selector","type":"bytes4","internalType":"bytes4"}]},{"type":"error","name":"AccessManagerUnauthorizedConsume","inputs":[{"name":"target","type":"address","internalType":"address"}]},{"type":"error","name":"AddressEmptyCode","inputs":[{"name":"target","type":"address","internalType":"address"}]},{"type":"error","name":"AddressInsufficientBalance","inputs":[{"name":"account","type":"address","internalType":"address"}]},{"type":"error","name":"FailedInnerCall","inputs":[]},{"type":"error","name":"InvalidInitialization","inputs":[]},{"type":"error","name":"NotInitializing","inputs":[]},{"type":"error","name":"SafeCastOverflowedUintDowncast","inputs":[{"name":"bits","type":"uint8","internalType":"uint8"},{"name":"value","type":"uint256","internalType":"uint256"}]}],"bytecode":{"object":"0x608080604052346100165761237c908161001b8239f35b5f80fdfe60406080815260049081361015610014575f80fd5b5f90813560e01c806308d6122d1461147b5780630b0a93ba1461144e57806312be872714611412578063167bd3951461135b57806318ff183c146112bc5780631cff79cd146111ab57806325c471a014610f575780633078f11414610efe57806330cae18714610e505780633adc277a14610e295780633ca7c02a14610e085780634136a33c14610dcb5780634665096d14610dae5780634c1da1e214610d7c5780635296295214610cb8578063530dd45614610c7f5780636d5115bd14610c2c57806375b238fc14610c12578063853551b814610b5b57806394c7d7ee14610a97578063a166aa8914610a47578063a64d95ce1461094b578063abd9bd2a14610926578063ac9650d814610784578063b700961314610739578063b7d2b16214610708578063cc1b6c81146106eb578063d1f856ee1461069b578063d22b5989146105c0578063d6bb62c6146103dc578063f801a698146101d15763fe0776f51461017e575f80fd5b346101cd57806003193601126101cd576101966115c7565b61019e611581565b91336001600160a01b038416036101be5750906101ba9161196c565b5080f35b51635f159e6360e01b81528490fd5b5080fd5b509190346103d55760603660031901126103d5576101ed61156b565b6024356001600160401b0381116103d85761020b90369085016115f3565b92906044359365ffffffffffff928386168096036103d55761022f82848733611f4b565b96905061023b426121c9565b61024d63ffffffff8099168092611909565b901580156103c0575b6103725785919082168082111561036b57505b169361027783858833611b88565b978883525f805160206122e783398151915291826020528a84205416801515908161035a575b5061034357507f82a2da5dee54ea8021c6545b4444620291e07ee83be6dd57edb175062715f3b49369ffffffff0000000000009796938a84610334948c809a97526020522080548560018b8360301c16019a8b169b8c9b60301b169169ffffffffffffffffffff1916171790558a51948594855233602086015260018060a01b03168b8501526080606085015260808401916118ba565b0390a382519182526020820152f35b895163813e945960e01b8152908101899052602490fd5b6103649150612072565b155f61029d565b9050610269565b86896103bc8c610382888a61209b565b90516381c6f24b60e01b8152339381019384526001600160a01b0390941660208401526001600160e01b0319166040830152829160600190565b0390fd5b50811515801561025657508581168210610256565b80fd5b8280fd5b508290346103d857610409906103f136611676565b610401818397939994959961209b565b958489611b88565b938482525f805160206122e78339815191529060209382855265ffffffffffff98898786205416155f1461044e57865163060a299b60e41b8152808a01899052602490fd5b94979396949293926001600160a01b03908116913383036104bf575b50505050507fbd9ac67a6e2f6463b80927326310338bcbb4bdb7936ce1365ea3e01067e7b9f793949550818552855263ffffffff82852080549065ffffffffffff198216905560301c16928392519480a38152f35b5f8080527f40c6c8c28789853c7efd823ab20824bbd71718a8a5915e855f6f288c9a26ad018b528881203382528b52889020548b81169061050b9060301c6001600160701b03166121fb565b5050508015159b8c6105a8575b505016988988525f8051602061232783398151915289528688209263ffffffff60e01b169283895289526105603361055b6001600160401b038a8c2054166117fa565b611863565b509015908161059f575b5061057657808061046a565b608493508890865193630ff89d4760e21b85523390850152602484015260448301526064820152fd5b9050158a61056a565b90919b506105b5426121c9565b161015998b80610518565b50346101cd57806003193601126101cd577fa56b76017453f399ec2327ba00375dbfb1fd070ff854341ad6191e6a2e2de19c6105fa61156b565b91610603611663565b9261060c611bd2565b6001600160a01b03168085525f8051602061232783398151915260208190528286206001015491946001600160701b0393909261069592906106519085908716612235565b959091888a526020526001838a2001911660018060701b0319825416179055519283928390929165ffffffffffff60209163ffffffff604085019616845216910152565b0390a280f35b50346101cd57806003193601126101cd576106e7906106c96106bb6115c7565b6106c3611581565b90611863565b9151901515815263ffffffff90911660208201529081906040820190565b0390f35b50346101cd57816003193601126101cd5760209051620697808152f35b50346101cd573660031901126103d5576101ba6107236115c7565b61072b611581565b90610734611bd2565b61196c565b5090346103d55760603660031901126103d5575061075561156b565b9061075e611581565b916044356001600160e01b031981168103610780576106e7936106c9926116c3565b5f80fd5b5082346103d8576020806003193601126109225781356001600160401b039283821161091e576107b991949294369101611597565b6107c2816120f8565b936107cf84519586611937565b818552601f1992836107e0846120f8565b01885b81811061090f575050875b838110610886575050505081519380850191818652845180935281848701948460051b88010195019387915b8483106108275787870388f35b909192939495603f19888203018352848288518b815191828652815b83811061086c575050818501840152601f0116909101810196810195949360010192019061081a565b8082018601518782018701528a958895508f935001610843565b806005989596981b820135601e198336030181121561090b57820190813591848311610907578601918a81360384136103d557806108cc6108fe956108e3943691611a6a565b8981519101305af46108dc612137565b9030612166565b6108ed828a61210f565b526108f8818961210f565b50611a0b565b969493966107ee565b8a80fd5b8980fd5b60608882018a015288016107e3565b8580fd5b8380fd5b50346101cd5760209061094461093b36611676565b92919091611b88565b9051908152f35b508290346103d857806003193601126103d8576109666115c7565b9061096f611663565b91610978611bd2565b6001600160401b0393848216948514610a3057507ffeb69018ee8b8fd50ea86348f1267d07673379f72cffdeccec63853ee8ce8b48926109e4929091610695919060016109dc856001600160701b03836109d1866117c4565b015460801c16612235565b9690926117c4565b018054600160801b600160f01b03191660809290921b600160801b600160f01b03169190911790555163ffffffff909216825265ffffffffffff90921660208201529081906040820190565b825163061c6a4360e21b8152908101859052602490fd5b50346101cd5760203660031901126101cd5760209160ff9060019083906001600160a01b03610a7461156b565b1681525f80516020612327833981519152865220015460701c1690519015158152f35b508290346103d857610aa836611620565b9390928051638fb3603760e01b908181526020818581335afa908115610b51578891610b0b575b506001600160e01b03191603610af457856101ba610aef87873388611b88565b611aa0565b602492505190630641fee960e31b82523390820152fd5b90506020813d8211610b49575b81610b2560209383611937565b81010312610b4557516001600160e01b031981168103610b455788610acf565b8780fd5b3d9150610b18565b83513d8a823e3d90fd5b5091346101cd57826003193601126101cd57610b756115c7565b6001600160401b0391602435838111610c0e5790610b978492369083016115f3565b929093610ba2611bd2565b16938415908115610c04575b50610bed57506106957f1256f5b5ecb89caec12db449738f2fbcd1ba5806cf38f35413f4e5c15bf6a450939495519283926020845260208401916118ba565b855163061c6a4360e21b8152908101849052602490fd5b905084145f610bae565b8480fd5b50346101cd57816003193601126101cd5751908152602090f35b50346101cd57806003193601126101cd57610c4561156b565b6024359063ffffffff60e01b8216809203610780576020936001600160401b0392610c708593611762565b90825285522054169051908152f35b50346101cd5760203660031901126101cd576020906001600160401b036001610cae610ca96115c7565b6117c4565b0154169051908152f35b508290346103d857806003193601126103d857610cd36115c7565b90610cdc6115dd565b90610ce5611bd2565b6001600160401b03928381169485158015610d73575b610d5c5750610d0b6001916117c4565b01805467ffffffffffffffff60401b19169183901b67ffffffffffffffff60401b1691909117905516907f7a8059630b897b5de4c08ade69f8b90c3ead1f8596d62d10b6c4d14a0afb4ae28380a380f35b825163061c6a4360e21b8152908101869052602490fd5b50848614610cfb565b50346101cd5760203660031901126101cd5760209063ffffffff610da6610da161156b565b611787565b915191168152f35b50346101cd57816003193601126101cd576020905162093a808152f35b5082346103d85760203660031901126103d8578160209363ffffffff923581525f805160206122e78339815191528552205460301c169051908152f35b50346101cd57816003193601126101cd57602090516001600160401b038152f35b5090346103d55760203660031901126103d5575065ffffffffffff610da660209335611a19565b508290346103d857806003193601126103d857610e6b6115c7565b91610e746115dd565b92610e7d611bd2565b6001600160401b03918282169384158015610ef5575b610edf575050610ea46001916117c4565b01921691826001600160401b03198254161790557f1fd6dd7631312dfac2205b52913f99de03b4d7e381d5d27d3dbfe0713e6e63408380a380f35b5163061c6a4360e21b8152908101849052602490fd5b50838514610e93565b50346101cd57806003193601126101cd57608090610f2b610f1d6115c7565b610f25611581565b90611816565b91849194519465ffffffffffff809516865263ffffffff80921660208701521690840152166060820152f35b5082346103d85760603660031901126103d857610f726115c7565b91610f7b611581565b6044359163ffffffff9182841680940361078057610f97611bd2565b6001600160701b0394610fba866001610faf8a6117c4565b015460801c166121fb565b5050906001600160401b03908189169782891461119457610fda8a6117c4565b9460018060a01b0316998a5f52602095865265ffffffffffff9485885f2054161598895f146110a7579061101991611011426121c9565b911690611909565b938751938885019185831090831117611094575092606098969492611083928997955f805160206123078339815191529c9a5285851683528d611061888501928c84526117c4565b905f52875285885f2093511665ffffffffffff198454161783555116906118da565b83519586521690840152820152a380f35b604190634e487b7160e01b5f525260245ffd5b929050819394506110ba6110cc926117c4565b8c5f528752875f205460301c166121fb565b5050928184165f8a82115f1461116957508990039082821161115657505f805160206123078339815191529896949261112161111b60609a989694611151945b16611116426121c9565b611909565b916117c4565b5f8d8152908652869020909283871b65ffffffffffff60401b1690861b67ffffffff0000000016178817906118da565b611083565b601190634e487b7160e01b5f525260245ffd5b61115192505f805160206123078339815191529a989694915061111b60609a9896946111219261110c565b855163061c6a4360e21b81528083018a9052602490fd5b5091906111b736611620565b906111c6828285989533611f4b565b949015806112ae575b61129e576111df83838933611b88565b95819663ffffffff80971615801590611285575b611273575b5061122a5f805160206122c78339815191529384549561122161121b828461209b565b8c6120b1565b86553691611a6a565b9034471061125c5750968161125392896020809b51910134855af161124d612137565b91612166565b50555191168152f35b60249086519063cd78605960e01b82523090820152fd5b61127e919750611aa0565b955f6111f8565b5065ffffffffffff61129682611a19565b1615156111f3565b506103bc9350906103829161209b565b5063ffffffff8516156111cf565b508290346103d857806003193601126103d8576112d761156b565b91836112e1611581565b936112ea611bd2565b6001600160a01b0390811694853b156103d8576024908386519788948593637a9e5e4b60e01b855216878401525af1801561135157611327578380f35b6001600160401b03831161133e5750528180808380f35b634e487b7160e01b845260419052602483fd5b82513d86823e3d90fd5b508290346103d857806003193601126103d85761137661156b565b9060243591821515809303610c0e5761138d611bd2565b6001600160a01b0316923084146113fd57508284525f805160206123278339815191526020908152818520600101805460ff60701b1916607085901b60ff60701b1617905590519182527f90d4e7bb7e5d933792b3562e1741306f8be94837e1348dacef9b6f1df56eb13891a280f35b836024925191630b40d17960e31b8352820152fd5b50346101cd5760203660031901126101cd5760209063ffffffff6114446001600160701b036001610faf610ca96115c7565b5050915191168152f35b50346101cd5760203660031901126101cd576020906001600160401b03610da66114766115c7565b6117fa565b5082346103d85760603660031901126103d85761149661156b565b916024356001600160401b039283821161091e576114b691369101611597565b919060443593841680940361091e576114d0949294611bd2565b6001600160a01b0390921691855b8581106114e9578680f35b8060051b8201359063ffffffff60e01b8216809203610b455785857f9ea6790c7dadfd01c9f8b9762b3682607af2c7e79e05a9f9fdf5580dde94915161156694828c526020905f8051602061232783398151915282528c818a822091528252888d20856001600160401b03198254161790558851908152a3611a0b565b6114de565b600435906001600160a01b038216820361078057565b602435906001600160a01b038216820361078057565b9181601f84011215610780578235916001600160401b038311610780576020808501948460051b01011161078057565b600435906001600160401b038216820361078057565b602435906001600160401b038216820361078057565b9181601f84011215610780578235916001600160401b038311610780576020838186019501011161078057565b906040600319830112610780576004356001600160a01b03811681036107805791602435906001600160401b0382116107805761165f916004016115f3565b9091565b6024359063ffffffff8216820361078057565b6060600319820112610780576001600160a01b03916004358381168103610780579260243590811681036107805791604435906001600160401b0382116107805761165f916004016115f3565b91909160ff60016116d385611762565b015460701c16156116e7575050505f905f90565b6001600160a01b03811630036117175750611711905f805160206122c783398151915254926120b1565b14905f90565b611725611748929493611762565b5f9463ffffffff60e01b1685526020526001600160401b03604085205416611863565b92901561175c575063ffffffff8216159190565b91508190565b6001600160a01b03165f9081525f805160206123278339815191526020526040902090565b6001600160a01b03165f9081525f8051602061232783398151915260205260409020600101546117bf906001600160701b03166121fb565b505090565b6001600160401b03165f527f40c6c8c28789853c7efd823ab20824bbd71718a8a5915e855f6f288c9a26ad0160205260405f2090565b600161180d6001600160401b03926117c4565b015460401c1690565b9061182865ffffffffffff93926117c4565b6001600160a01b039091165f908152602091909152604090205490611859603083901c6001600160701b03166121fb565b9490931693909291565b906001600160401b038083160361187d5750506001905f90565b61188691611816565b5050919065ffffffffffff80911680151591826118a4575b50509190565b9091506118b0426121c9565b1610155f8061189e565b908060209392818452848401375f828201840152601f01601f1916010190565b80546601000000000000600160a01b03191660309290921b6601000000000000600160a01b0316919091179055565b91909165ffffffffffff8080941691160191821161192357565b634e487b7160e01b5f52601160045260245ffd5b90601f801991011681019081106001600160401b0382111761195857604052565b634e487b7160e01b5f52604160045260245ffd5b906001600160401b03908183169182146119f257611989836117c4565b9060018060a01b0316925f9184835260205265ffffffffffff604083205416156119eb57906119d87ff229baa593af28c41b1d16b748cd7688f0c83aaf92d4be41c44005defe84c166926117c4565b84825260205280604081205580a3600190565b5091505090565b60405163061c6a4360e21b815260048101839052602490fd5b5f1981146119235760010190565b5f525f805160206122e783398151915260205265ffffffffffff60405f205416611a4281612072565b15611a4c57505f90565b90565b6001600160401b03811161195857601f01601f191660200190565b929192611a7682611a4f565b91611a846040519384611937565b829481845281830111610780578281602093845f960137010152565b5f8181525f805160206122e7833981519152908160205260408120549165ffffffffffff9263ffffffff8482169160301c169381155f14611af45760405163060a299b60e41b815260048101879052602490fd5b611afd426121c9565b16811115611b1e57604051630c65b5bd60e11b815260048101869052602490fd5b611b2a90949394612072565b611b6f5782825260205260408120805465ffffffffffff191690558291907f76a2a46953689d4861a5d3f6ed883ad7e6af674a21f8e162707159fc9dde614d9080a390565b604051631e2975b960e21b815260048101849052602490fd5b611bbe611bcc929493604051948593602085019760018060a01b03809216895216604085015260608085015260808401916118ba565b03601f198101835282611937565b51902090565b611bdc3633611f92565b9015611be55750565b63ffffffff16611c22576044611bfa36611c7a565b5060405163f07e038f60e01b81523360048201526001600160401b0390911660248201529050fd5b611c776040516020810190338252306040820152606080820152366080820152365f60a08301375f60a03683010152611c6f60a082601f19601f3601168101036080810184520182611937565b519020611aa0565b50565b60048110611dd65780600411610780575f9081356001600160e01b0319166310a6aa3760e31b81148015611dc6575b8015611db6575b8015611da6575b8015611d96575b611d8d5763063fc60f60e21b81148015611d7d575b8015611d6d575b611d3e5763012e238d60e51b8114908115611d2d575b50611cfc575080918190565b6024116103d5576001600160401b0360043581811681036103d857611d226001916117c4565b015416916001929190565b635be958b160e11b1490505f611cf0565b506024929192116101cd576004356001600160a01b038116908190036103d857611d6790611787565b60019291565b506308d6122d60e01b8114611cda565b5063167bd39560e01b8114611cd3565b50506001918190565b5063d22b598960e01b8114611cbe565b50635326cae760e11b8114611cb7565b5063294b14a960e11b8114611cb0565b506330cae18760e01b8114611ca9565b505f905f905f90565b9060048110611f41576001600160e01b0319611dfb828461209b565b166310a6aa3760e31b81148015611f31575b8015611f21575b8015611f11575b8015611f01575b611ef55763063fc60f60e21b81148015611ee5575b8015611ed5575b611ea85763012e238d60e51b8114908115611e97575b50611e635750505f905f905f90565b60241161078057600401356001600160401b0390818116810361078057611e8b6001916117c4565b01541690600191905f90565b635be958b160e11b1490505f611e54565b50602411610780576004013560018060a01b03811680910361078057611ecd90611787565b6001915f9190565b506308d6122d60e01b8114611e3e565b5063167bd39560e01b8114611e37565b5050506001905f905f90565b5063d22b598960e01b8114611e22565b50635326cae760e11b8114611e1b565b5063294b14a960e11b8114611e14565b506330cae18760e01b8114611e0d565b50505f905f905f90565b909291906001600160a01b0384163003611f695761165f935061202b565b9192906004841015611f7f57505050505f908190565b61165f93611f8c9161209b565b916116c3565b9060048110611fed576001600160a01b0382163014611ffe57611fb490611c7a565b92909115611ff557611fc591611863565b9015611fed5763ffffffff91821690821680821115611fe657505b16801591565b9050611fe0565b50505f905f90565b5050505f905f90565b9050600411610780575f805160206122c7833981519152546117115f356001600160e01b031916306120b1565b919060048210611ff5576001600160a01b038316301461204f5790611fb491611ddf565b612059925061209b565b6117115f805160206122c78339815191525491306120b1565b62093a8065ffffffffffff80921601908082116119235780612093426121c9565b169116111590565b9060041161078057356001600160e01b03191690565b604080516001600160a01b03909216602083019081526001600160e01b0319909316828201528152606081016001600160401b038111828210176119585760405251902090565b6001600160401b0381116119585760051b60200190565b80518210156121235760209160051b010190565b634e487b7160e01b5f52603260045260245ffd5b3d15612161573d9061214882611a4f565b916121566040519384611937565b82523d5f602084013e565b606090565b9061218d575080511561217b57805190602001fd5b604051630a12f52160e11b8152600490fd5b815115806121c0575b61219e575090565b604051639996b31560e01b81526001600160a01b039091166004820152602490fd5b50803b15612196565b65ffffffffffff908181116121dc571690565b604490604051906306dfcc6560e41b8252603060048301526024820152fd5b612204426121c9565b63ffffffff8281169265ffffffffffff604082901c81169316831161222e575091925f9250829150565b60201c1692565b612241909291926121fb565b50509163ffffffff80911690818185165f8282115f146122ae575003818111611923578167ffffffff000000009261228d925b620697809116808211156122a7575016611116426121c9565b9360201b1665ffffffffffff60401b8460401b1617179190565b905061110c565b61228d92508391509267ffffffff000000009361227456fe40c6c8c28789853c7efd823ab20824bbd71718a8a5915e855f6f288c9a26ad0340c6c8c28789853c7efd823ab20824bbd71718a8a5915e855f6f288c9a26ad02f98448b987f1428e0e230e1f3c6e2ce15b5693eaf31827fbd0b1ec4b424ae7cf40c6c8c28789853c7efd823ab20824bbd71718a8a5915e855f6f288c9a26ad00a2646970667358221220eac0592d6c4d8ca3a82c70034f40c560bd0dfb6297567eebd0e2e997d05c0f3164736f6c63430008140033","linkReferences":{}},"methodIdentifiers":{"ADMIN_ROLE()":"75b238fc","PUBLIC_ROLE()":"3ca7c02a","canCall(address,address,bytes4)":"b7009613","cancel(address,address,bytes)":"d6bb62c6","consumeScheduledOp(address,bytes)":"94c7d7ee","execute(address,bytes)":"1cff79cd","expiration()":"4665096d","getAccess(uint64,address)":"3078f114","getNonce(bytes32)":"4136a33c","getRoleAdmin(uint64)":"530dd456","getRoleGrantDelay(uint64)":"12be8727","getRoleGuardian(uint64)":"0b0a93ba","getSchedule(bytes32)":"3adc277a","getTargetAdminDelay(address)":"4c1da1e2","getTargetFunctionRole(address,bytes4)":"6d5115bd","grantRole(uint64,address,uint32)":"25c471a0","hasRole(uint64,address)":"d1f856ee","hashOperation(address,address,bytes)":"abd9bd2a","isTargetClosed(address)":"a166aa89","labelRole(uint64,string)":"853551b8","minSetback()":"cc1b6c81","multicall(bytes[])":"ac9650d8","renounceRole(uint64,address)":"fe0776f5","revokeRole(uint64,address)":"b7d2b162","schedule(address,bytes,uint48)":"f801a698","setGrantDelay(uint64,uint32)":"a64d95ce","setRoleAdmin(uint64,uint64)":"30cae187","setRoleGuardian(uint64,uint64)":"52962952","setTargetAdminDelay(address,uint32)":"d22b5989","setTargetClosed(address,bool)":"167bd395","setTargetFunctionRole(address,bytes4[],uint64)":"08d6122d","updateAuthority(address,address)":"18ff183c"},"id":59}