{"abi":[{"type":"function","name":"mockFunction","inputs":[],"outputs":[{"name":"","type":"string","internalType":"string"}],"stateMutability":"payable"},{"type":"function","name":"mockFunctionEmptyReturn","inputs":[],"outputs":[],"stateMutability":"payable"},{"type":"function","name":"mockFunctionNonPayable","inputs":[],"outputs":[{"name":"","type":"string","internalType":"string"}],"stateMutability":"nonpayable"},{"type":"function","name":"mockFunctionOutOfGas","inputs":[],"outputs":[],"stateMutability":"payable"},{"type":"function","name":"mockFunctionRevertsNoReason","inputs":[],"outputs":[],"stateMutability":"payable"},{"type":"function","name":"mockFunctionRevertsReason","inputs":[],"outputs":[],"stateMutability":"payable"},{"type":"function","name":"mockFunctionThrows","inputs":[],"outputs":[],"stateMutability":"payable"},{"type":"function","name":"mockFunctionWithArgs","inputs":[{"name":"a","type":"uint256","internalType":"uint256"},{"name":"b","type":"uint256","internalType":"uint256"}],"outputs":[{"name":"","type":"string","internalType":"string"}],"stateMutability":"payable"},{"type":"function","name":"mockFunctionWritesStorage","inputs":[{"name":"slot","type":"bytes32","internalType":"bytes32"},{"name":"value","type":"bytes32","internalType":"bytes32"}],"outputs":[{"name":"","type":"string","internalType":"string"}],"stateMutability":"nonpayable"},{"type":"function","name":"mockStaticFunction","inputs":[],"outputs":[{"name":"","type":"string","internalType":"string"}],"stateMutability":"pure"},{"type":"event","name":"Initialized","inputs":[{"name":"version","type":"uint64","indexed":false,"internalType":"uint64"}],"anonymous":false},{"type":"event","name":"MockFunctionCalled","inputs":[],"anonymous":false},{"type":"event","name":"MockFunctionCalledWithArgs","inputs":[{"name":"a","type":"uint256","indexed":false,"internalType":"uint256"},{"name":"b","type":"uint256","indexed":false,"internalType":"uint256"}],"anonymous":false},{"type":"error","name":"InvalidInitialization","inputs":[]},{"type":"error","name":"NotInitializing","inputs":[]}],"bytecode":{"object":"0x608080604052346100165761038d908161001b8239f35b5f80fdfe6080604081815260049182361015610015575f80fd5b5f90813560e01c9081630c0349681461025a575080630f63e42c1461022c5780632c81d6381461021d5780633bcfaa14146101fd5780633e6fec04146101d4578063425397a2146101ab578063a793ab471461012c578063c292d81c1461010c578063c8fc7696146100ea5763fdb273251461008f575f80fd5b816003193601126100e757507f2b42b3c9af4187c86225f201736204c7597312c830cb5c2537dff6ef24b946ae816100e3938151903581526024356020820152a16100d86102f0565b9051918291826102a9565b0390f35b80fd5b5090346101085781600319360112610108576100e3906100d86102f0565b5080fd5b50806003193601126100e7575f805160206103388339815191528180a180f35b8382806003193601126100e757805b8154600160401b81101561019857600181018084558110156101855782805260208320018190555f1981146101725760010161013b565b506011602492634e487b7160e01b835252fd5b634e487b7160e01b835260328452602483fd5b634e487b7160e01b835260418452602483fd5b5091346101d057816003193601126101d0576100e392506024359035556100d86102f0565b8280fd5b509081600319360112610108575f80516020610338833981519152826100e393a16100d86102f0565b50828160031936011261010857634e487b7160e01b825260019052602490fd5b50806003193601126100e75780fd5b5090346101085781600319360112610108575f80516020610338833981519152826100e393a16100d86102f0565b925050806003193601126100e75750602060649262461bcd60e51b8352820152601b60248201527f43616c6c52656365697665724d6f636b3a20726576657274696e6700000000006044820152fd5b602080825282518183018190529093925f5b8281106102dc57505060409293505f838284010152601f8019910116010190565b8181018601518482016040015285016102bb565b604051906040820182811067ffffffffffffffff8211176103235760405260068252650c1e0c4c8ccd60d21b6020830152565b634e487b7160e01b5f52604160045260245ffdfe52c66ed6ec9ca819cba26fe2b2650059270d8981b295af300187a964f54a8c23a264697066735822122091d5edf8e29d6a92d51ab9019c80a769c442189210b307c833d8643a699b2c5964736f6c63430008140033","linkReferences":{}},"methodIdentifiers":{"mockFunction()":"3e6fec04","mockFunctionEmptyReturn()":"c292d81c","mockFunctionNonPayable()":"0f63e42c","mockFunctionOutOfGas()":"a793ab47","mockFunctionRevertsNoReason()":"2c81d638","mockFunctionRevertsReason()":"0c034968","mockFunctionThrows()":"3bcfaa14","mockFunctionWithArgs(uint256,uint256)":"fdb27325","mockFunctionWritesStorage(bytes32,bytes32)":"425397a2","mockStaticFunction()":"c8fc7696"},"id":79}