{"abi":[{"type":"constructor","inputs":[],"stateMutability":"nonpayable"},{"type":"function","name":"BPS_DENOMINATOR","inputs":[],"outputs":[{"name":"","type":"uint256","internalType":"uint256"}],"stateMutability":"view"},{"type":"function","name":"DEFAULT_MAX_NAV_CHANGE_BPS","inputs":[],"outputs":[{"name":"","type":"uint256","internalType":"uint256"}],"stateMutability":"view"},{"type":"function","name":"INITIAL_NAV_PER_SHARE","inputs":[],"outputs":[{"name":"","type":"uint256","internalType":"uint256"}],"stateMutability":"view"},{"type":"function","name":"PRECISION","inputs":[],"outputs":[{"name":"","type":"uint256","internalType":"uint256"}],"stateMutability":"view"},{"type":"function","name":"UPGRADE_INTERFACE_VERSION","inputs":[],"outputs":[{"name":"","type":"string","internalType":"string"}],"stateMutability":"view"},{"type":"function","name":"attestNAV","inputs":[{"name":"totalAssets","type":"uint256","internalType":"uint256"},{"name":"reportDate","type":"uint256","internalType":"uint256"},{"name":"proofHash","type":"bytes32","internalType":"bytes32"}],"outputs":[],"stateMutability":"nonpayable"},{"type":"function","name":"attestationThreshold","inputs":[],"outputs":[{"name":"","type":"uint256","internalType":"uint256"}],"stateMutability":"view"},{"type":"function","name":"attestorCount","inputs":[],"outputs":[{"name":"","type":"uint256","internalType":"uint256"}],"stateMutability":"view"},{"type":"function","name":"authorizedAttestors","inputs":[{"name":"","type":"address","internalType":"address"}],"outputs":[{"name":"","type":"bool","internalType":"bool"}],"stateMutability":"view"},{"type":"function","name":"batchIsAuthorized","inputs":[{"name":"addresses","type":"address[]","internalType":"address[]"}],"outputs":[{"name":"authorized","type":"bool[]","internalType":"bool[]"}],"stateMutability":"view"},{"type":"function","name":"batchSetAuthorizedAttestors","inputs":[{"name":"attestors","type":"address[]","internalType":"address[]"},{"name":"authorized","type":"bool[]","internalType":"bool[]"}],"outputs":[],"stateMutability":"nonpayable"},{"type":"function","name":"currentPendingKey","inputs":[],"outputs":[{"name":"","type":"bytes32","internalType":"bytes32"}],"stateMutability":"view"},{"type":"function","name":"getAnnualizedYield","inputs":[],"outputs":[{"name":"annualizedBps","type":"uint256","internalType":"uint256"},{"name":"periodDays","type":"uint256","internalType":"uint256"}],"stateMutability":"view"},{"type":"function","name":"getCumulativeYield","inputs":[{"name":"baselineNav","type":"uint256","internalType":"uint256"}],"outputs":[{"name":"yieldBps","type":"uint256","internalType":"uint256"},{"name":"yieldAmount","type":"uint256","internalType":"uint256"}],"stateMutability":"view"},{"type":"function","name":"getCurrentNAV","inputs":[],"outputs":[{"name":"","type":"tuple","internalType":"struct INAVOracle.NAVReport","components":[{"name":"totalAssets","type":"uint256","internalType":"uint256"},{"name":"totalShares","type":"uint256","internalType":"uint256"},{"name":"navPerShare","type":"uint256","internalType":"uint256"},{"name":"timestamp","type":"uint256","internalType":"uint256"},{"name":"reportDate","type":"uint256","internalType":"uint256"},{"name":"proofHash","type":"bytes32","internalType":"bytes32"},{"name":"attestor","type":"address","internalType":"address"}]}],"stateMutability":"view"},{"type":"function","name":"getCurrentNAVPerShare","inputs":[],"outputs":[{"name":"","type":"uint256","internalType":"uint256"}],"stateMutability":"view"},{"type":"function","name":"getHistoricalNAV","inputs":[{"name":"index","type":"uint256","internalType":"uint256"}],"outputs":[{"name":"report","type":"tuple","internalType":"struct INAVOracle.NAVReport","components":[{"name":"totalAssets","type":"uint256","internalType":"uint256"},{"name":"totalShares","type":"uint256","internalType":"uint256"},{"name":"navPerShare","type":"uint256","internalType":"uint256"},{"name":"timestamp","type":"uint256","internalType":"uint256"},{"name":"reportDate","type":"uint256","internalType":"uint256"},{"name":"proofHash","type":"bytes32","internalType":"bytes32"},{"name":"attestor","type":"address","internalType":"address"}]}],"stateMutability":"view"},{"type":"function","name":"getHistoryCount","inputs":[],"outputs":[{"name":"","type":"uint256","internalType":"uint256"}],"stateMutability":"view"},{"type":"function","name":"getHistoryLength","inputs":[],"outputs":[{"name":"count","type":"uint256","internalType":"uint256"}],"stateMutability":"view"},{"type":"function","name":"getLastReportDate","inputs":[],"outputs":[{"name":"","type":"uint256","internalType":"uint256"}],"stateMutability":"view"},{"type":"function","name":"getMaxAllowedNavChange","inputs":[],"outputs":[{"name":"maxNav","type":"uint256","internalType":"uint256"}],"stateMutability":"view"},{"type":"function","name":"getNAVHistory","inputs":[{"name":"count","type":"uint256","internalType":"uint256"}],"outputs":[{"name":"","type":"tuple[]","internalType":"struct INAVOracle.NAVReport[]","components":[{"name":"totalAssets","type":"uint256","internalType":"uint256"},{"name":"totalShares","type":"uint256","internalType":"uint256"},{"name":"navPerShare","type":"uint256","internalType":"uint256"},{"name":"timestamp","type":"uint256","internalType":"uint256"},{"name":"reportDate","type":"uint256","internalType":"uint256"},{"name":"proofHash","type":"bytes32","internalType":"bytes32"},{"name":"attestor","type":"address","internalType":"address"}]}],"stateMutability":"view"},{"type":"function","name":"getNAVHistoryInRange","inputs":[{"name":"startDate","type":"uint256","internalType":"uint256"},{"name":"endDate","type":"uint256","internalType":"uint256"}],"outputs":[{"name":"reports","type":"tuple[]","internalType":"struct INAVOracle.NAVReport[]","components":[{"name":"totalAssets","type":"uint256","internalType":"uint256"},{"name":"totalShares","type":"uint256","internalType":"uint256"},{"name":"navPerShare","type":"uint256","internalType":"uint256"},{"name":"timestamp","type":"uint256","internalType":"uint256"},{"name":"reportDate","type":"uint256","internalType":"uint256"},{"name":"proofHash","type":"bytes32","internalType":"bytes32"},{"name":"attestor","type":"address","internalType":"address"}]}],"stateMutability":"view"},{"type":"function","name":"getNAVStatistics","inputs":[],"outputs":[{"name":"avgNav","type":"uint256","internalType":"uint256"},{"name":"minNav","type":"uint256","internalType":"uint256"},{"name":"maxNav","type":"uint256","internalType":"uint256"},{"name":"volatility","type":"uint256","internalType":"uint256"},{"name":"historyCount","type":"uint256","internalType":"uint256"}],"stateMutability":"view"},{"type":"function","name":"getNAVTrend","inputs":[],"outputs":[{"name":"currentNav","type":"uint256","internalType":"uint256"},{"name":"previousNav","type":"uint256","internalType":"uint256"},{"name":"changeBps","type":"uint256","internalType":"uint256"},{"name":"isPositive","type":"bool","internalType":"bool"}],"stateMutability":"view"},{"type":"function","name":"getOracleHealth","inputs":[],"outputs":[{"name":"isFresh","type":"bool","internalType":"bool"},{"name":"hasHistory","type":"bool","internalType":"bool"},{"name":"hasAttestor","type":"bool","internalType":"bool"},{"name":"ssUSDLinked","type":"bool","internalType":"bool"},{"name":"healthScore","type":"uint256","internalType":"uint256"}],"stateMutability":"view"},{"type":"function","name":"getOracleStatus","inputs":[],"outputs":[{"name":"navPerShare","type":"uint256","internalType":"uint256"},{"name":"lastUpdate","type":"uint256","internalType":"uint256"},{"name":"isFresh","type":"bool","internalType":"bool"},{"name":"reportDate","type":"uint256","internalType":"uint256"},{"name":"totalAssets","type":"uint256","internalType":"uint256"},{"name":"configuredMaxChange","type":"uint256","internalType":"uint256"}],"stateMutability":"view"},{"type":"function","name":"getPendingAttestation","inputs":[],"outputs":[{"name":"key","type":"bytes32","internalType":"bytes32"},{"name":"totalAssets","type":"uint256","internalType":"uint256"},{"name":"reportDate","type":"uint256","internalType":"uint256"},{"name":"signatureCount","type":"uint256","internalType":"uint256"},{"name":"threshold","type":"uint256","internalType":"uint256"},{"name":"expiresAt","type":"uint256","internalType":"uint256"},{"name":"isActive","type":"bool","internalType":"bool"}],"stateMutability":"view"},{"type":"function","name":"getTotalAssets","inputs":[],"outputs":[{"name":"","type":"uint256","internalType":"uint256"}],"stateMutability":"view"},{"type":"function","name":"hasAttested","inputs":[{"name":"","type":"bytes32","internalType":"bytes32"},{"name":"","type":"address","internalType":"address"}],"outputs":[{"name":"","type":"bool","internalType":"bool"}],"stateMutability":"view"},{"type":"function","name":"hasAttestorSigned","inputs":[{"name":"attestor","type":"address","internalType":"address"}],"outputs":[{"name":"","type":"bool","internalType":"bool"}],"stateMutability":"view"},{"type":"function","name":"initialize","inputs":[{"name":"owner_","type":"address","internalType":"address"},{"name":"attestor_","type":"address","internalType":"address"},{"name":"maxStaleness_","type":"uint256","internalType":"uint256"}],"outputs":[],"stateMutability":"nonpayable"},{"type":"function","name":"isAttestationOverdue","inputs":[],"outputs":[{"name":"overdue","type":"bool","internalType":"bool"}],"stateMutability":"view"},{"type":"function","name":"isNAVFresh","inputs":[],"outputs":[{"name":"","type":"bool","internalType":"bool"}],"stateMutability":"view"},{"type":"function","name":"maxNavChangeBps","inputs":[],"outputs":[{"name":"","type":"uint256","internalType":"uint256"}],"stateMutability":"view"},{"type":"function","name":"maxStalenessSeconds","inputs":[],"outputs":[{"name":"","type":"uint256","internalType":"uint256"}],"stateMutability":"view"},{"type":"function","name":"owner","inputs":[],"outputs":[{"name":"","type":"address","internalType":"address"}],"stateMutability":"view"},{"type":"function","name":"pendingAttestationExpiry","inputs":[],"outputs":[{"name":"","type":"uint256","internalType":"uint256"}],"stateMutability":"view"},{"type":"function","name":"pendingAttestations","inputs":[{"name":"","type":"bytes32","internalType":"bytes32"}],"outputs":[{"name":"totalAssets","type":"uint256","internalType":"uint256"},{"name":"reportDate","type":"uint256","internalType":"uint256"},{"name":"proofHash","type":"bytes32","internalType":"bytes32"},{"name":"attestationCount","type":"uint256","internalType":"uint256"},{"name":"createdAt","type":"uint256","internalType":"uint256"},{"name":"finalized","type":"bool","internalType":"bool"}],"stateMutability":"view"},{"type":"function","name":"proxiableUUID","inputs":[],"outputs":[{"name":"","type":"bytes32","internalType":"bytes32"}],"stateMutability":"view"},{"type":"function","name":"renounceOwnership","inputs":[],"outputs":[],"stateMutability":"nonpayable"},{"type":"function","name":"secondsSinceLastAttestation","inputs":[],"outputs":[{"name":"seconds_","type":"uint256","internalType":"uint256"}],"stateMutability":"view"},{"type":"function","name":"setAttestationThreshold","inputs":[{"name":"threshold_","type":"uint256","internalType":"uint256"}],"outputs":[],"stateMutability":"nonpayable"},{"type":"function","name":"setAuthorizedAttestor","inputs":[{"name":"attestor","type":"address","internalType":"address"},{"name":"authorized","type":"bool","internalType":"bool"}],"outputs":[],"stateMutability":"nonpayable"},{"type":"function","name":"setMaxNavChangeBps","inputs":[{"name":"bps_","type":"uint256","internalType":"uint256"}],"outputs":[],"stateMutability":"nonpayable"},{"type":"function","name":"setMaxStaleness","inputs":[{"name":"seconds_","type":"uint256","internalType":"uint256"}],"outputs":[],"stateMutability":"nonpayable"},{"type":"function","name":"setPendingAttestationExpiry","inputs":[{"name":"expiry_","type":"uint256","internalType":"uint256"}],"outputs":[],"stateMutability":"nonpayable"},{"type":"function","name":"setssUSD","inputs":[{"name":"ssUSD_","type":"address","internalType":"address"}],"outputs":[],"stateMutability":"nonpayable"},{"type":"function","name":"ssUSD","inputs":[],"outputs":[{"name":"","type":"address","internalType":"address"}],"stateMutability":"view"},{"type":"function","name":"transferOwnership","inputs":[{"name":"newOwner","type":"address","internalType":"address"}],"outputs":[],"stateMutability":"nonpayable"},{"type":"function","name":"upgradeToAndCall","inputs":[{"name":"newImplementation","type":"address","internalType":"address"},{"name":"data","type":"bytes","internalType":"bytes"}],"outputs":[],"stateMutability":"payable"},{"type":"event","name":"AttestationExpiredEvent","inputs":[{"name":"attestationKey","type":"bytes32","indexed":true,"internalType":"bytes32"}],"anonymous":false},{"type":"event","name":"AttestationFinalized","inputs":[{"name":"attestationKey","type":"bytes32","indexed":true,"internalType":"bytes32"},{"name":"totalAssets","type":"uint256","indexed":false,"internalType":"uint256"},{"name":"navPerShare","type":"uint256","indexed":false,"internalType":"uint256"}],"anonymous":false},{"type":"event","name":"AttestationSigned","inputs":[{"name":"attestationKey","type":"bytes32","indexed":true,"internalType":"bytes32"},{"name":"attestor","type":"address","indexed":true,"internalType":"address"},{"name":"signatureCount","type":"uint256","indexed":false,"internalType":"uint256"},{"name":"threshold","type":"uint256","indexed":false,"internalType":"uint256"}],"anonymous":false},{"type":"event","name":"AttestationSubmitted","inputs":[{"name":"attestationKey","type":"bytes32","indexed":true,"internalType":"bytes32"},{"name":"attestor","type":"address","indexed":true,"internalType":"address"},{"name":"totalAssets","type":"uint256","indexed":false,"internalType":"uint256"},{"name":"reportDate","type":"uint256","indexed":false,"internalType":"uint256"}],"anonymous":false},{"type":"event","name":"AttestorUpdated","inputs":[{"name":"attestor","type":"address","indexed":true,"internalType":"address"},{"name":"authorized","type":"bool","indexed":false,"internalType":"bool"}],"anonymous":false},{"type":"event","name":"Initialized","inputs":[{"name":"version","type":"uint64","indexed":false,"internalType":"uint64"}],"anonymous":false},{"type":"event","name":"MaxNavChangeBpsUpdated","inputs":[{"name":"bps","type":"uint256","indexed":false,"internalType":"uint256"}],"anonymous":false},{"type":"event","name":"NAVAttested","inputs":[{"name":"totalAssets","type":"uint256","indexed":false,"internalType":"uint256"},{"name":"navPerShare","type":"uint256","indexed":false,"internalType":"uint256"},{"name":"reportDate","type":"uint256","indexed":false,"internalType":"uint256"},{"name":"attestor","type":"address","indexed":true,"internalType":"address"}],"anonymous":false},{"type":"event","name":"OwnershipTransferred","inputs":[{"name":"previousOwner","type":"address","indexed":true,"internalType":"address"},{"name":"newOwner","type":"address","indexed":true,"internalType":"address"}],"anonymous":false},{"type":"event","name":"PendingExpiryUpdated","inputs":[{"name":"oldExpiry","type":"uint256","indexed":false,"internalType":"uint256"},{"name":"newExpiry","type":"uint256","indexed":false,"internalType":"uint256"}],"anonymous":false},{"type":"event","name":"StalenessUpdated","inputs":[{"name":"maxStalenessSeconds","type":"uint256","indexed":false,"internalType":"uint256"}],"anonymous":false},{"type":"event","name":"ThresholdUpdated","inputs":[{"name":"oldThreshold","type":"uint256","indexed":false,"internalType":"uint256"},{"name":"newThreshold","type":"uint256","indexed":false,"internalType":"uint256"}],"anonymous":false},{"type":"event","name":"Upgraded","inputs":[{"name":"implementation","type":"address","indexed":true,"internalType":"address"}],"anonymous":false},{"type":"event","name":"ssUSDUpdated","inputs":[{"name":"ssUSD","type":"address","indexed":true,"internalType":"address"}],"anonymous":false},{"type":"error","name":"AddressEmptyCode","inputs":[{"name":"target","type":"address","internalType":"address"}]},{"type":"error","name":"AlreadyAttested","inputs":[]},{"type":"error","name":"ArrayLengthMismatch","inputs":[]},{"type":"error","name":"AttestationExpired","inputs":[]},{"type":"error","name":"AttestationMismatch","inputs":[]},{"type":"error","name":"ERC1967InvalidImplementation","inputs":[{"name":"implementation","type":"address","internalType":"address"}]},{"type":"error","name":"ERC1967NonPayable","inputs":[]},{"type":"error","name":"EmptyArray","inputs":[]},{"type":"error","name":"FailedInnerCall","inputs":[]},{"type":"error","name":"InvalidAddress","inputs":[]},{"type":"error","name":"InvalidInitialization","inputs":[]},{"type":"error","name":"InvalidNavChangeBps","inputs":[]},{"type":"error","name":"InvalidReportDate","inputs":[]},{"type":"error","name":"InvalidStaleness","inputs":[]},{"type":"error","name":"InvalidThreshold","inputs":[]},{"type":"error","name":"InvalidTotalAssets","inputs":[]},{"type":"error","name":"MultiSigRequired","inputs":[]},{"type":"error","name":"NAVChangeExceedsLimit","inputs":[]},{"type":"error","name":"NotAuthorizedAttestor","inputs":[]},{"type":"error","name":"NotInitializing","inputs":[]},{"type":"error","name":"OwnableInvalidOwner","inputs":[{"name":"owner","type":"address","internalType":"address"}]},{"type":"error","name":"OwnableUnauthorizedAccount","inputs":[{"name":"account","type":"address","internalType":"address"}]},{"type":"error","name":"ReportDateNotNew","inputs":[]},{"type":"error","name":"ThresholdNotMet","inputs":[]},{"type":"error","name":"UUPSUnauthorizedCallContext","inputs":[]},{"type":"error","name":"UUPSUnsupportedProxiableUUID","inputs":[{"name":"slot","type":"bytes32","internalType":"bytes32"}]},{"type":"error","name":"ssUSDNotSet","inputs":[]}],"bytecode":{"object":"0x60a080604052346100cc57306080527ff0c57e16840df040f15088dc2f81fe391c3923bec73e23a9662efc9c229c6a009081549060ff8260401c166100bd57506001600160401b036002600160401b031982821601610078575b6040516125aa90816100d18239608051818181610c480152610ef90152f35b6001600160401b031990911681179091556040519081527fc7f505b2f371ae2175ee4913f4499e1f2633a7b5936321eed1cdaeb6115181d290602090a15f8080610059565b63f92ee8a960e01b8152600490fd5b5f80fdfe604060808152600480361015610013575f80fd5b5f90813560e01c806304bb603c1461176d578063077dbe6614611736578063100bc9e1146116bc57806313657e1c1461169357806315386478146116105780631794bb3c146114105780633a45bf2d146113c95780633afba55c146113aa578063428bd7131461134857806344f428fa1461123657806347892898146110c25780634f1ef28614610e7f57806350bb36c214610e605780635144455014610d18578063518359a914610c9957806352d1902d14610c325780635417818014610c065780635478f468146109375780635495135f14610be55780635d62dea714610ba7578063631255f214610b88578063693de59214610b5f5780636e07302b14610b42578063715018a614610ad95780637bb5cb2d14610aba57806382a0b84f14610a6b578063896e1841146109ef5780638da5cb5b146109ba57806394b604d91461099b5780639782f4aa146109635780639fb673d41461093c578063a18861a314610937578063a1b282ad146108bf578063a783094f14610890578063aaf5eb68146107a7578063ad3cb1cc146107f4578063bfd103fb146107ac578063c429cf8f146107a7578063c52385601461076d578063ca6d424c146106c7578063cd8a05df146106a1578063cf82dea414610537578063d4d2b35b14610432578063e12dde0c1461040f578063e1a45218146103f2578063f1c68aed146103d3578063f2fde38b146103a3578063f5dd87bf14610386578063f7209c3e14610367578063f822cff7146102e55763feedd4741461024e575f80fd5b346102e15760203660031901126102e157600754929035838111156102db5750825b610279846121ef565b925b8481106102935782518061028f86826118e7565b0390f35b806102bb6102b56102b06102d6946102ab8a88611d8f565b611a7b565b611d9c565b5061217f565b6102c5828761223e565b526102d0818661223e565b50611a9c565b61027b565b92610270565b5080fd5b50346102e15760203660031901126102e157803590828092600254818111610318575b5050505082519182526020820152f35b8193969550610328929450611d8f565b9161271090818402918483041484151715610354575061034a92939450611d71565b905f808080610308565b634e487b7160e01b815260118652602490fd5b8284346102e157816003193601126102e1576020906010549051908152f35b8284346102e157816003193601126102e157602090516101f48152f35b82346103d05760203660031901126103d0576103cd6103c0611793565b6103c861192e565b611966565b80f35b80fd5b8284346102e157816003193601126102e1576020906002549051908152f35b8284346102e157816003193601126102e157602090516127108152f35b5082903461042e578260031936011261042e5760209250549051908152f35b8280fd5b50346102e1576020908160031936011261042e5780356001600160401b038111610533576104658592859236910161182e565b610471819392936121d8565b9061047e855192836117f2565b80825261048a816121d8565b8287019490601f1901368637835b8281106104df5750505083519485948186019282875251809352850193925b8281106104c657505050500390f35b83511515855286955093810193928101926001016104b7565b9596949592949392610528906001600160a01b03610506610501838787612252565b612262565b1685526008865260ff898620541661051e828961223e565b9015159052611a9c565b969594929396610498565b8380fd5b50823461042e578060031936011261042e578135926024359281908290600754915b82811061064d575080549286888510159485610642575b50506105809084610634576121ef565b95845b8381106105c55761028f888888886105a1575b5051918291826118e7565b6105be906105ad612133565b6105b7828661223e565b528361223e565b5083610596565b8089846105d46105e894611d9c565b50015410158061061e575b6105ed57611a9c565b610583565b6102d06105f982611d9c565b509761060d61060782611a9c565b9961217f565b610617828d61223e565b528a61223e565b50828461062a83611d9c565b50015411156105df565b61063d90611a9c565b6121ef565b111593508689610570565b878261065883611d9c565b50015410158061068b575b610676575b61067190611a9c565b610559565b9261068361067191611a9c565b939050610668565b50868261069783611d9c565b5001541115610663565b8284346102e157816003193601126102e1576020906106be6120e7565b90519015158152f35b50823461042e578260031936011261042e579160e092818081908293839560105497600c54958961071a575b5050815197885260208801528601526060850152608084015260a0830152151560c0820152f35b93509550509450849150858152600e602052209182549360018401549060ff600561075060038801549588015460115490611a7b565b960154161580610763575b9589806106f3565b508442111561075b565b8284346102e157816003193601126102e15760a09061078a612283565b939490928151958652602086015284015260608301526080820152f35b6118c5565b5082903461042e578160031936011261042e578160209360ff926107ce6117ad565b90358252600f86528282206001600160a01b039091168252855220549151911615158152f35b5082903461042e578260031936011261042e57815190828201908282106001600160401b0383111761087d5750825260058152602090640352e302e360dc1b8282015282519382859384528251928382860152825b84811061086757505050828201840152601f01601f19168101030190f35b8181018301518882018801528795508201610849565b634e487b7160e01b855260419052602484fd5b509190346103d05760203660031901126103d057506108bd6108b460e09335612405565b9151809261187b565bf35b50823461042e57602036600319011261042e578135916108dd61192e565b600a8310801561092c575b61091e5750816020917fbdfb9bf1b17acb68077ffd003e7dd60827d4662ae18e30a3ce600b4a624f8ec693600b5551908152a180f35b9051630114bd1f60e51b8152fd5b506103e883116108e8565b61185e565b5050346103d057806003193601126103d05750610957612430565b82519182526020820152f35b8284346102e157816003193601126102e15760209061099460025461271061098d600b5483611d5e565b0490611a7b565b9051908152f35b8284346102e157816003193601126102e1576020906011549051908152f35b8284346102e157816003193601126102e1575f805160206125158339815191525490516001600160a01b039091168152602090f35b5082903461042e57602036600319011261042e57610a0b611793565b610a1361192e565b6001600160a01b0316918215610a5e575050600a80546001600160a01b031916821790557f3c0e4dc736cea721ab3f49dfffac702f2b7b00dbc3f8415f39bbb48d5d4eabcb8280a280f35b5163e6c4247b60e01b8152fd5b5091346102e157816003193601126102e15760c0926002549260035492610a906120e7565b9254915492600b5494825196875260208701521515908501526060840152608083015260a0820152f35b8284346102e157816003193601126102e157602090600b549051908152f35b82346103d057806003193601126103d057610af261192e565b5f8051602061251583398151915280546001600160a01b0319811690915581906001600160a01b03167f8be0079c531659141344cd1fd0a4f28419497f9722a3daafe3b4186f6b6457e08280a380f35b8284346102e157816003193601126102e157602091549051908152f35b8284346102e157816003193601126102e15760e090610b7c6120fc565b506108bd6108b4612133565b8284346102e157816003193601126102e157602090600d549051908152f35b8284346102e15760203660031901126102e15760209160ff9082906001600160a01b03610bd2611793565b1681526008855220541690519015158152f35b8284346102e157816003193601126102e15760209061099460035442611d8f565b8284346102e157816003193601126102e157602090610c2760035442611d8f565b600954109051908152f35b509190346103d057806003193601126103d057507f00000000000000000000000000000000000000000000000000000000000000006001600160a01b03163003610c8c57602090515f805160206125358339815191528152f35b5163703e46dd60e11b8152fd5b5082903461042e57602036600319011261042e57803590610cb861192e565b81158015610d0d575b610cff5750907fb06a54caabe58475c86c2bf9df3f2f06dd1213e9e10659c293117fe4893b274b91600c549080600c5582519182526020820152a180f35b825163aabd5a0960e01b8152fd5b50600d548211610cc1565b5091346102e157806003193601126102e1576001600160401b0392803584811161053357610d49903690830161182e565b94602435908111610e5c57610d61903690840161182e565b91610d6a61192e565b8615610e4c57828703610e3c57855b878110610d84578680f35b6001600160a01b0380610d9b610501848c87612252565b1615610e2c5790815f8051602061255583398151915289610e08610501858e610e028a8f610e279b8f8f8787610de0610ddb83610de69661050196612252565b612276565b96612252565b16885260209760088952209060ff801983541691151516179055565b89612252565b92610e17610ddb868b8b612252565b938b5194151585521692a2611a9c565b610d79565b865163e6c4247b60e01b81528690fd5b845163512509d360e11b81528490fd5b845163521299a960e01b81528490fd5b8480fd5b8284346102e157816003193601126102e157602090600c549051908152f35b50828060031936011261042e57610e94611793565b9060249384356001600160401b0381116102e157366023820112156102e15780850135610ec081611813565b94610ecd855196876117f2565b81865260209182870193368a83830101116110be578186928b8693018737880101526001600160a01b037f000000000000000000000000000000000000000000000000000000000000000081163081149081156110a3575b5061109357610f3261192e565b81169585516352d1902d60e01b815283818a818b5afa869181611060575b50610f6c575050505050505191634c9c8ce360e01b8352820152fd5b9088888894938c5f805160206125358339815191529182810361104b5750853b15611037575080546001600160a01b031916821790558451889392917fbc7cd75a20ee27fd9adebab32041f755214dbc6bffa90cc0225b39da2e5c2d3b8580a282511561101957505061100b9582915190845af4913d1561100f573d610ffd610ff482611813565b925192836117f2565b81528581943d92013e6119d7565b5080f35b50606092506119d7565b95509550505050503461102b57505080f35b63b398979f60e01b8152fd5b8651634c9c8ce360e01b8152808501849052fd5b8751632a87526960e21b815280860191909152fd5b9091508481813d831161108c575b61107881836117f2565b810103126110885751908b610f50565b8680fd5b503d61106e565b855163703e46dd60e11b81528890fd5b9050815f80516020612535833981519152541614158a610f25565b8580fd5b50823461042e578060031936011261042e576110dc611793565b90602435928315801593848603611088576110f561192e565b6001600160a01b0316948515611226578587526008602052838720805482151560ff90811660ff1983161790925516908061121e575b1561115c575050505f8051602061255583398151915291602091611150600d54611a9c565b600d555b51908152a280f35b81611216575b50611180575b505f8051602061255583398151915291602091611154565b600d549081156112035750916020915f80516020612555833981519152935f190180600d5581600c54828111806111fa575b6111c2575b505050915091611168565b827fb06a54caabe58475c86c2bf9df3f2f06dd1213e9e10659c293117fe4893b274b93600c55825191825286820152a18681816111b7565b508215156111b2565b634e487b7160e01b865260119052602485fd5b905086611162565b50801561112b565b835163e6c4247b60e01b81528390fd5b5091346102e157816003193601126102e15761125760035460095490611a7b565b421115918291600754151560018060a01b039081600654168452600860205260ff838520541691600a5416151593809561133f575b81611316575b826112eb575b846112bf575b5060a096508251958652602086015215159084015260608301526080820152f35b6014869296018092116112d8575060a09650935f61129e565b634e487b7160e01b815260118852602490fd5b96959460148101809111611303579596949594611298565b634e487b7160e01b885260118752602488fd5b9091946014810180911161132c57949190611292565b634e487b7160e01b825260118852602482fd5b6028955061128c565b50823461042e57602036600319011261042e578060c09383358152600e6020522080549260018201549260028301549060ff600560038601549486015495015416948151968752602087015285015260608401526080830152151560a0820152f35b8284346102e157816003193601126102e1576020906009549051908152f35b50823461042e57606036600319011261042e57338352600860205260ff81842054161561140357506103cd90604435906024359035611aaa565b516336c65e5560e01b8152fd5b5082903461042e57606036600319011261042e5761142c611793565b6114346117ad565b907ff0c57e16840df040f15088dc2f81fe391c3923bec73e23a9662efc9c229c6a009283549260ff84871c1615926001600160401b03851694851580611609575b600180971490816115ff575b1590816115f6575b506115e65767ffffffffffffffff198116861787558892916114bc91866115c7575b506114b4611a3a565b6103c8611a3a565b6114c4611a3a565b6001600160a01b03168082526008602052868220805460ff191686179055600d8590556044356009556101f4600b55600c859055613840601155865190929061150c816117c3565b8281528260208201528360c0670de0b6b3a764000092838b8201524260608201528560808201528560a0820152015282805582865560025542600355558560055561156b8160018060a01b031660018060a01b03196006541617600655565b5f8051602061255583398151915260208651858152a2611589578380f35b815460ff60401b191690915590519081527fc7f505b2f371ae2175ee4913f4499e1f2633a7b5936321eed1cdaeb6115181d290602090a18180808380f35b68ffffffffffffffffff1916680100000000000000011788558a6114ab565b875163f92ee8a960e01b81528490fd5b9050158a611489565b303b159150611481565b5084611475565b5082903461042e57602036600319011261042e5780359061162f61192e565b610e1082108015611687575b6116795750907f34b24c1d494f5ca34a6ab92fa16933ea54df32c63d3b3d3f8d48d2d9f88bc5df91601154908060115582519182526020820152a180f35b8251636351541960e01b8152fd5b5062015180821161163b565b8284346102e157816003193601126102e157600a5490516001600160a01b039091168152602090f35b50823461042e57602036600319011261042e578135916116da61192e565b610e108310801561172a575b61171c5750816020917f70ea5820bcfc23261788cd8be4d1abbb3ce78259bd2d58f4475866f0216a85059360095551908152a180f35b9051636351541960e01b8152fd5b5062093a8083116116e6565b8284346102e157816003193601126102e157608090611753612369565b929390918151948552602085015283015215156060820152f35b8284346102e15760203660031901126102e1576020906106be61178e611793565b6120b4565b600435906001600160a01b03821682036117a957565b5f80fd5b602435906001600160a01b03821682036117a957565b60e081019081106001600160401b038211176117de57604052565b634e487b7160e01b5f52604160045260245ffd5b90601f801991011681019081106001600160401b038211176117de57604052565b6001600160401b0381116117de57601f01601f191660200190565b9181601f840112156117a9578235916001600160401b0383116117a9576020808501948460051b0101116117a957565b346117a9575f3660031901126117a9576020600754604051908152f35b60c090805183526020810151602084015260408101516040840152606081015160608401526080810151608084015260a081015160a08401528160018060a01b0391015116910152565b346117a9575f3660031901126117a9576020604051670de0b6b3a76400008152f35b602090816040818301928281528551809452019301915f5b82811061190d575050505090565b909192938260e082611922600194895161187b565b019501939291016118ff565b5f80516020612515833981519152546001600160a01b0316330361194e57565b60405163118cdaa760e01b8152336004820152602490fd5b6001600160a01b039081169081156119bf575f8051602061251583398151915280546001600160a01b031981168417909155167f8be0079c531659141344cd1fd0a4f28419497f9722a3daafe3b4186f6b6457e05f80a3565b604051631e4fbdf760e01b81525f6004820152602490fd5b906119fe57508051156119ec57805190602001fd5b604051630a12f52160e11b8152600490fd5b81511580611a31575b611a0f575090565b604051639996b31560e01b81526001600160a01b039091166004820152602490fd5b50803b15611a07565b60ff7ff0c57e16840df040f15088dc2f81fe391c3923bec73e23a9662efc9c229c6a005460401c1615611a6957565b604051631afcd79f60e31b8152600490fd5b91908201809211611a8857565b634e487b7160e01b5f52601160045260245ffd5b5f198114611a885760010190565b908115611d4c576004918254821115611d3c576001600c5414611d2c57604091825160209182820184815281868401528760608401526060835260808301928084106001600160401b03851117611d1957838752519020965f92888452600f8552868420338552855260ff8785205416611d0b575060105480151580611d01575b611ca3575b50878352600e84528583209680880190815480155f14611c6a575050858855826001890155816002890155600160038901554290556005870160ff1981541690558760105585518581528285820152887f11c21d13f2ec5f967700bc67751870c42846b0c1ab178ca3542d9b2a10b5a038883393a35b878352600f845285832033845284528583209160ff19926001848254161790556003880154600c5490885181815282888201528b7f22f3061f6e3cdf1ee4b5ee99e7ed85bee35b78c6dcc7c022b8855ebb0252dd928b3393a31015611c11575b505050505050505050565b7f75ad50421cf045e8c054383d28ef9681e59c9432093183f8162d6008bce7f02f97611c4460059260019433918a611de7565b0191825416179055601055600254908351928352820152a25f8080808080808080611c06565b611c7991925060115490611a7b565b4211611c95575060038701611c8e8154611a9c565b9055611ba6565b865163716dcc3960e01b8152fd5b808452600e8552611cbc88888620015460115490611a7b565b421115611cf1577f5068abe01c7a97bcf376afeea509b37307fe399737858c7e72394b9cd733ea758480a2826010555f611b30565b86516399fe67c360e01b81528890fd5b5088811415611b2b565b6335d9080560e01b81528790fd5b604188634e487b7160e01b5f525260245ffd5b915091611d3a923392611de7565b565b60405162420fe360e81b81528390fd5b60405163d485ecd560e01b8152600490fd5b81810292918115918404141715611a8857565b8115611d7b570490565b634e487b7160e01b5f52601260045260245ffd5b91908203918211611a8857565b600754811015611dd35760075f81815291027fa66cc928b5edb82af9bd49922954155ab7b0942694bea4ce44661d9a8736c6880191565b634e487b7160e01b5f52603260045260245ffd5b600a546001600160a01b0394919391905f90861680612046575b50905f95821596875f146120075750670de0b6b3a7640000965b5f54908115159081611ffe575b50611fa2575b600354611edc575b50926060949260c097927fbe4f15f5df6ca025486a9622dd2affd8e8c0e261aa09df972ca9b6125bef33dd979560405191611e70836117c3565b87835283602084015285604084015242898401528660808401528460a0840152169889910152845f55600155816002554260035582600455600555611ec98660018060a01b031660018060a01b03196006541617600655565b60405192835260208301526040820152a2565b95939096919492600754600160401b8110156117de57806001611f029201600755611d9c565b969096611f8f5760c0987fbe4f15f5df6ca025486a9622dd2affd8e8c0e261aa09df972ca9b6125bef33dd9888606099611f47575b5050929597509297509294611e36565b60069181556001546001820155600254600282015560035460038201556004546004820155600554600582015501816006541660018060a01b03198254161790555f80611f37565b634e487b7160e01b5f525f60045260245ffd5b60025461271090611fc082611fb9600b5484611d5e565b0482611a7b565b8a11611fec57606481029181830460641482151715611a8857611fe4920490611d8f565b881015611e2e575b604051630521f11d60e11b8152600490fd5b9050155f611e28565b670de0b6b3a76400009081880291888304148815171561203257508361202c91611d71565b96611e1b565b634e487b7160e01b81526011600452602490fd5b602060049160405192838092633a98ef3960e01b82525afa9182156120a8578092612074575b50505f611e01565b9091506020823d82116120a0575b8161208f602093836117f2565b810103126103d05750515f8061206c565b3d9150612082565b604051903d90823e3d90fd5b60105480156120e1575f52600f60205260405f209060018060a01b03165f5260205260ff60405f20541690565b50505f90565b6120f660035460095490611a7b565b42111590565b60405190612109826117c3565b8160c05f918281528260208201528260408201528260608201528260808201528260a08201520152565b60405190612140826117c3565b5f548252600154602083015260025460408301526003546060830152600454608083015260055460a08301526006546001600160a01b031660c0830152565b9060405161218c816117c3565b8254815260018301546020820152600283015460408201526003830154606082015260048301546080820152600583015460a08201526006909201546001600160a01b031660c0830152565b6001600160401b0381116117de5760051b60200190565b906121f9826121d8565b61220660405191826117f2565b8281528092612217601f19916121d8565b01905f5b82811061222757505050565b6020906122326120fc565b8282850101520161221b565b8051821015611dd35760209160051b010190565b9190811015611dd35760051b0190565b356001600160a01b03811681036117a95790565b3580151581036117a95790565b5f905f91600754801561235a57600292835494858095825b85811061231157505060018401908185116122fd57906122ba91611d71565b90816122c9575b509493929190565b9093506122d68686611d8f565b90612710918281029281840414901517156120325750836122f691611d71565b925f6122c1565b634e487b7160e01b83526011600452602483fd5b6123288261231e83611d9c565b5001548094611a7b565b92898110612352575b888111612348575b5061234390611a9c565b61229b565b9750612343612339565b985088612331565b50509060025491829183918190565b6002546007548181156123fb57505f198101908111611a885761238d600291611d9c565b500154918282106123cb576001906123a58484611d8f565b61271090818102918183041490151715611a8857846123c391611d71565b925b93929190565b5f906123d78385611d8f565b61271090818102918183041490151715611a8857846123f591611d71565b926123c5565b91925f9150600190565b61240d6120fc565b50600754811015612427576102b561242491611d9c565b90565b50612424612133565b6007541561250e5760075f908152906124687fa66cc928b5edb82af9bd49922954155ab7b0942694bea4ce44661d9a8736c68861217f565b916002549260408101519081158015612504575b6124fb5761249290606060035491015190611d8f565b80156124fb576201518090049384156124f2575b816124b091611d8f565b612710908181029181830414901517156122fd57906124ce91611d71565b9061016d918281029281840414901517156120325750826124ee91611d71565b9190565b600194506124a6565b50508092509190565b508185111561247c565b5f905f9056fe9016d09d72d40fdae2fd8ceac6b6234c7706214fd39c1cd1e609a0528c199300360894a13ba1a3210667c828492db98dca3e2076cc3735a920a3ca505d382bbc93b8543bdf0aade4f1b01f7bc7eccaa0d387724a3b85d45b5edb4c03bd8824b5a2646970667358221220fbd0391104ef131d7de6f0be4bebabc5524687a11afc3e5e1884f56212769d7a64736f6c63430008140033","linkReferences":{}},"methodIdentifiers":{"BPS_DENOMINATOR()":"e1a45218","DEFAULT_MAX_NAV_CHANGE_BPS()":"f5dd87bf","INITIAL_NAV_PER_SHARE()":"c429cf8f","PRECISION()":"aaf5eb68","UPGRADE_INTERFACE_VERSION()":"ad3cb1cc","attestNAV(uint256,uint256,bytes32)":"3a45bf2d","attestationThreshold()":"50bb36c2","attestorCount()":"631255f2","authorizedAttestors(address)":"5d62dea7","batchIsAuthorized(address[])":"d4d2b35b","batchSetAuthorizedAttestors(address[],bool[])":"51444550","currentPendingKey()":"f7209c3e","getAnnualizedYield()":"9fb673d4","getCumulativeYield(uint256)":"f822cff7","getCurrentNAV()":"693de592","getCurrentNAVPerShare()":"f1c68aed","getHistoricalNAV(uint256)":"a783094f","getHistoryCount()":"a18861a3","getHistoryLength()":"5478f468","getLastReportDate()":"e12dde0c","getMaxAllowedNavChange()":"9782f4aa","getNAVHistory(uint256)":"feedd474","getNAVHistoryInRange(uint256,uint256)":"cf82dea4","getNAVStatistics()":"c5238560","getNAVTrend()":"077dbe66","getOracleHealth()":"44f428fa","getOracleStatus()":"82a0b84f","getPendingAttestation()":"ca6d424c","getTotalAssets()":"6e07302b","hasAttested(bytes32,address)":"bfd103fb","hasAttestorSigned(address)":"04bb603c","initialize(address,address,uint256)":"1794bb3c","isAttestationOverdue()":"54178180","isNAVFresh()":"cd8a05df","maxNavChangeBps()":"7bb5cb2d","maxStalenessSeconds()":"3afba55c","owner()":"8da5cb5b","pendingAttestationExpiry()":"94b604d9","pendingAttestations(bytes32)":"428bd713","proxiableUUID()":"52d1902d","renounceOwnership()":"715018a6","secondsSinceLastAttestation()":"5495135f","setAttestationThreshold(uint256)":"518359a9","setAuthorizedAttestor(address,bool)":"47892898","setMaxNavChangeBps(uint256)":"a1b282ad","setMaxStaleness(uint256)":"100bc9e1","setPendingAttestationExpiry(uint256)":"15386478","setssUSD(address)":"896e1841","ssUSD()":"13657e1c","transferOwnership(address)":"f2fde38b","upgradeToAndCall(address,bytes)":"4f1ef286"},"id":401}